{
  "_format": "hh-sol-artifact-1",
  "contractName": "Helth",
  "sourceName": "contracts/Health.sol",
  "abi": [
    {
      "inputs": [],
      "stateMutability": "nonpayable",
      "type": "constructor"
    },
    {
      "inputs": [],
      "name": "ContractOwner",
      "outputs": [
        {
          "internalType": "address",
          "name": "",
          "type": "address"
        }
      ],
      "stateMutability": "view",
      "type": "function"
    },
    {
      "inputs": [
        {
          "internalType": "address",
          "name": "user",
          "type": "address"
        }
      ],
      "name": "accressDataAnyone",
      "outputs": [],
      "stateMutability": "nonpayable",
      "type": "function"
    },
    {
      "inputs": [
        {
          "internalType": "address",
          "name": "",
          "type": "address"
        },
        {
          "internalType": "address",
          "name": "",
          "type": "address"
        }
      ],
      "name": "accressList",
      "outputs": [
        {
          "internalType": "bool",
          "name": "",
          "type": "bool"
        }
      ],
      "stateMutability": "view",
      "type": "function"
    },
    {
      "inputs": [
        {
          "internalType": "address",
          "name": "_issuerAddress",
          "type": "address"
        },
        {
          "internalType": "string",
          "name": "_credentielType",
          "type": "string"
        },
        {
          "internalType": "string",
          "name": "_credentialIssuer",
          "type": "string"
        },
        {
          "internalType": "string",
          "name": "_credentialValue",
          "type": "string"
        },
        {
          "internalType": "string",
          "name": "_dateIssued",
          "type": "string"
        }
      ],
      "name": "addCredential",
      "outputs": [],
      "stateMutability": "nonpayable",
      "type": "function"
    },
    {
      "inputs": [
        {
          "internalType": "address",
          "name": "_dataAnalyst",
          "type": "address"
        },
        {
          "internalType": "string",
          "name": "_name",
          "type": "string"
        },
        {
          "internalType": "uint256",
          "name": "_dataAnalystId",
          "type": "uint256"
        }
      ],
      "name": "addDataAnalyst",
      "outputs": [],
      "stateMutability": "nonpayable",
      "type": "function"
    },
    {
      "inputs": [
        {
          "internalType": "address",
          "name": "_doctor",
          "type": "address"
        },
        {
          "internalType": "string",
          "name": "_name",
          "type": "string"
        },
        {
          "internalType": "uint256",
          "name": "_age",
          "type": "uint256"
        },
        {
          "internalType": "uint256",
          "name": "_doctorId",
          "type": "uint256"
        },
        {
          "internalType": "uint256",
          "name": "_nid",
          "type": "uint256"
        }
      ],
      "name": "addDoctor",
      "outputs": [],
      "stateMutability": "nonpayable",
      "type": "function"
    },
    {
      "inputs": [
        {
          "internalType": "address",
          "name": "_patient",
          "type": "address"
        },
        {
          "internalType": "string",
          "name": "_name",
          "type": "string"
        },
        {
          "internalType": "uint256",
          "name": "_age",
          "type": "uint256"
        },
        {
          "internalType": "uint256",
          "name": "_patientId",
          "type": "uint256"
        },
        {
          "internalType": "string",
          "name": "_gender",
          "type": "string"
        },
        {
          "internalType": "uint256",
          "name": "_birthDay",
          "type": "uint256"
        },
        {
          "internalType": "string",
          "name": "_bloodGroup",
          "type": "string"
        },
        {
          "internalType": "uint256",
          "name": "_nid",
          "type": "uint256"
        }
      ],
      "name": "addPatient",
      "outputs": [],
      "stateMutability": "nonpayable",
      "type": "function"
    },
    {
      "inputs": [
        {
          "internalType": "string",
          "name": "_name",
          "type": "string"
        },
        {
          "internalType": "address",
          "name": "_patientParient",
          "type": "address"
        },
        {
          "internalType": "uint256",
          "name": "_age",
          "type": "uint256"
        },
        {
          "internalType": "string",
          "name": "_gender",
          "type": "string"
        },
        {
          "internalType": "uint256",
          "name": "_birthDay",
          "type": "uint256"
        },
        {
          "internalType": "string",
          "name": "_bloodGroup",
          "type": "string"
        },
        {
          "internalType": "uint256",
          "name": "_nid",
          "type": "uint256"
        }
      ],
      "name": "addPatientParient",
      "outputs": [],
      "stateMutability": "nonpayable",
      "type": "function"
    },
    {
      "inputs": [
        {
          "internalType": "address",
          "name": "_pharmacy",
          "type": "address"
        },
        {
          "internalType": "string",
          "name": "_name",
          "type": "string"
        },
        {
          "internalType": "uint256",
          "name": "_pharmacyId",
          "type": "uint256"
        }
      ],
      "name": "addPharmacy",
      "outputs": [],
      "stateMutability": "nonpayable",
      "type": "function"
    },
    {
      "inputs": [
        {
          "internalType": "uint256",
          "name": "",
          "type": "uint256"
        }
      ],
      "name": "allAddress",
      "outputs": [
        {
          "internalType": "address",
          "name": "",
          "type": "address"
        }
      ],
      "stateMutability": "view",
      "type": "function"
    },
    {
      "inputs": [
        {
          "internalType": "address",
          "name": "",
          "type": "address"
        }
      ],
      "name": "allCredential",
      "outputs": [
        {
          "internalType": "address",
          "name": "issuerAddress",
          "type": "address"
        },
        {
          "internalType": "string",
          "name": "credentielType",
          "type": "string"
        },
        {
          "internalType": "string",
          "name": "credentialIssuer",
          "type": "string"
        },
        {
          "internalType": "string",
          "name": "credentialValue",
          "type": "string"
        },
        {
          "internalType": "string",
          "name": "dateIssued",
          "type": "string"
        },
        {
          "internalType": "bool",
          "name": "isAdded",
          "type": "bool"
        },
        {
          "internalType": "bool",
          "name": "dataAccress",
          "type": "bool"
        }
      ],
      "stateMutability": "view",
      "type": "function"
    },
    {
      "inputs": [
        {
          "internalType": "uint256",
          "name": "",
          "type": "uint256"
        }
      ],
      "name": "allCredentialAddress",
      "outputs": [
        {
          "internalType": "address",
          "name": "",
          "type": "address"
        }
      ],
      "stateMutability": "view",
      "type": "function"
    },
    {
      "inputs": [
        {
          "internalType": "address",
          "name": "",
          "type": "address"
        }
      ],
      "name": "allDataAnalyst",
      "outputs": [
        {
          "internalType": "address",
          "name": "dataAnalyst",
          "type": "address"
        },
        {
          "internalType": "string",
          "name": "name",
          "type": "string"
        },
        {
          "internalType": "uint256",
          "name": "dataAnalystId",
          "type": "uint256"
        },
        {
          "internalType": "bool",
          "name": "isAdded",
          "type": "bool"
        },
        {
          "internalType": "bool",
          "name": "dataAccress",
          "type": "bool"
        }
      ],
      "stateMutability": "view",
      "type": "function"
    },
    {
      "inputs": [
        {
          "internalType": "uint256",
          "name": "",
          "type": "uint256"
        }
      ],
      "name": "allDataAnalystAddress",
      "outputs": [
        {
          "internalType": "address",
          "name": "",
          "type": "address"
        }
      ],
      "stateMutability": "view",
      "type": "function"
    },
    {
      "inputs": [
        {
          "internalType": "address",
          "name": "",
          "type": "address"
        }
      ],
      "name": "allDoctor",
      "outputs": [
        {
          "internalType": "address",
          "name": "doctor",
          "type": "address"
        },
        {
          "internalType": "string",
          "name": "name",
          "type": "string"
        },
        {
          "internalType": "uint256",
          "name": "age",
          "type": "uint256"
        },
        {
          "internalType": "uint256",
          "name": "doctorId",
          "type": "uint256"
        },
        {
          "internalType": "uint256",
          "name": "nid",
          "type": "uint256"
        },
        {
          "internalType": "bool",
          "name": "isAdded",
          "type": "bool"
        },
        {
          "internalType": "bool",
          "name": "dataAccress",
          "type": "bool"
        }
      ],
      "stateMutability": "view",
      "type": "function"
    },
    {
      "inputs": [
        {
          "internalType": "uint256",
          "name": "",
          "type": "uint256"
        }
      ],
      "name": "allDoctorAddress",
      "outputs": [
        {
          "internalType": "address",
          "name": "",
          "type": "address"
        }
      ],
      "stateMutability": "view",
      "type": "function"
    },
    {
      "inputs": [
        {
          "internalType": "address",
          "name": "",
          "type": "address"
        }
      ],
      "name": "allFoodIndusty",
      "outputs": [
        {
          "internalType": "address",
          "name": "foodIndusty",
          "type": "address"
        },
        {
          "internalType": "string",
          "name": "name",
          "type": "string"
        },
        {
          "internalType": "uint256",
          "name": "foodIndustyId",
          "type": "uint256"
        },
        {
          "internalType": "bool",
          "name": "isAdded",
          "type": "bool"
        },
        {
          "internalType": "bool",
          "name": "dataAccress",
          "type": "bool"
        }
      ],
      "stateMutability": "view",
      "type": "function"
    },
    {
      "inputs": [
        {
          "internalType": "uint256",
          "name": "",
          "type": "uint256"
        }
      ],
      "name": "allFoodIndustyAddress",
      "outputs": [
        {
          "internalType": "address",
          "name": "",
          "type": "address"
        }
      ],
      "stateMutability": "view",
      "type": "function"
    },
    {
      "inputs": [
        {
          "internalType": "address",
          "name": "",
          "type": "address"
        }
      ],
      "name": "allHospital",
      "outputs": [
        {
          "internalType": "address",
          "name": "hospital",
          "type": "address"
        },
        {
          "internalType": "string",
          "name": "name",
          "type": "string"
        },
        {
          "internalType": "uint256",
          "name": "hospitalId",
          "type": "uint256"
        },
        {
          "internalType": "bool",
          "name": "isAdded",
          "type": "bool"
        },
        {
          "internalType": "bool",
          "name": "dataAccress",
          "type": "bool"
        }
      ],
      "stateMutability": "view",
      "type": "function"
    },
    {
      "inputs": [
        {
          "internalType": "uint256",
          "name": "",
          "type": "uint256"
        }
      ],
      "name": "allHospitalAddress",
      "outputs": [
        {
          "internalType": "address",
          "name": "",
          "type": "address"
        }
      ],
      "stateMutability": "view",
      "type": "function"
    },
    {
      "inputs": [
        {
          "internalType": "address",
          "name": "",
          "type": "address"
        }
      ],
      "name": "allPatient",
      "outputs": [
        {
          "internalType": "address",
          "name": "patient",
          "type": "address"
        },
        {
          "internalType": "string",
          "name": "name",
          "type": "string"
        },
        {
          "internalType": "uint256",
          "name": "age",
          "type": "uint256"
        },
        {
          "internalType": "uint256",
          "name": "patientId",
          "type": "uint256"
        },
        {
          "internalType": "string",
          "name": "gender",
          "type": "string"
        },
        {
          "internalType": "uint256",
          "name": "birthDay",
          "type": "uint256"
        },
        {
          "internalType": "string",
          "name": "bloodGroup",
          "type": "string"
        },
        {
          "components": [
            {
              "internalType": "string",
              "name": "name",
              "type": "string"
            },
            {
              "internalType": "address",
              "name": "patientParient",
              "type": "address"
            },
            {
              "internalType": "uint256",
              "name": "age",
              "type": "uint256"
            },
            {
              "internalType": "string",
              "name": "gender",
              "type": "string"
            },
            {
              "internalType": "uint256",
              "name": "birthDay",
              "type": "uint256"
            },
            {
              "internalType": "string",
              "name": "bloodGroup",
              "type": "string"
            },
            {
              "internalType": "uint256",
              "name": "nid",
              "type": "uint256"
            },
            {
              "internalType": "bool",
              "name": "isAdded",
              "type": "bool"
            }
          ],
          "internalType": "struct Helth.PatientParient",
          "name": "patientParient",
          "type": "tuple"
        },
        {
          "internalType": "uint256",
          "name": "nid",
          "type": "uint256"
        },
        {
          "internalType": "bool",
          "name": "isAdded",
          "type": "bool"
        }
      ],
      "stateMutability": "view",
      "type": "function"
    },
    {
      "inputs": [
        {
          "internalType": "uint256",
          "name": "",
          "type": "uint256"
        }
      ],
      "name": "allPatientAddress",
      "outputs": [
        {
          "internalType": "address",
          "name": "",
          "type": "address"
        }
      ],
      "stateMutability": "view",
      "type": "function"
    },
    {
      "inputs": [
        {
          "internalType": "address",
          "name": "",
          "type": "address"
        }
      ],
      "name": "allPatientParient",
      "outputs": [
        {
          "internalType": "string",
          "name": "name",
          "type": "string"
        },
        {
          "internalType": "address",
          "name": "patientParient",
          "type": "address"
        },
        {
          "internalType": "uint256",
          "name": "age",
          "type": "uint256"
        },
        {
          "internalType": "string",
          "name": "gender",
          "type": "string"
        },
        {
          "internalType": "uint256",
          "name": "birthDay",
          "type": "uint256"
        },
        {
          "internalType": "string",
          "name": "bloodGroup",
          "type": "string"
        },
        {
          "internalType": "uint256",
          "name": "nid",
          "type": "uint256"
        },
        {
          "internalType": "bool",
          "name": "isAdded",
          "type": "bool"
        }
      ],
      "stateMutability": "view",
      "type": "function"
    },
    {
      "inputs": [
        {
          "internalType": "uint256",
          "name": "",
          "type": "uint256"
        }
      ],
      "name": "allPatientParientAddress",
      "outputs": [
        {
          "internalType": "address",
          "name": "",
          "type": "address"
        }
      ],
      "stateMutability": "view",
      "type": "function"
    },
    {
      "inputs": [
        {
          "internalType": "address",
          "name": "",
          "type": "address"
        }
      ],
      "name": "allPharmaciest",
      "outputs": [
        {
          "internalType": "address",
          "name": "pharmaciest",
          "type": "address"
        },
        {
          "internalType": "string",
          "name": "name",
          "type": "string"
        },
        {
          "internalType": "uint256",
          "name": "pharmaciestId",
          "type": "uint256"
        },
        {
          "internalType": "bool",
          "name": "isAdded",
          "type": "bool"
        },
        {
          "internalType": "bool",
          "name": "dataAccress",
          "type": "bool"
        }
      ],
      "stateMutability": "view",
      "type": "function"
    },
    {
      "inputs": [
        {
          "internalType": "uint256",
          "name": "",
          "type": "uint256"
        }
      ],
      "name": "allPharmaciestAddress",
      "outputs": [
        {
          "internalType": "address",
          "name": "",
          "type": "address"
        }
      ],
      "stateMutability": "view",
      "type": "function"
    },
    {
      "inputs": [
        {
          "internalType": "address",
          "name": "",
          "type": "address"
        }
      ],
      "name": "allPharmacy",
      "outputs": [
        {
          "internalType": "address",
          "name": "pharmacy",
          "type": "address"
        },
        {
          "internalType": "string",
          "name": "name",
          "type": "string"
        },
        {
          "internalType": "uint256",
          "name": "pharmacyId",
          "type": "uint256"
        },
        {
          "internalType": "bool",
          "name": "isAdded",
          "type": "bool"
        },
        {
          "internalType": "bool",
          "name": "dataAccress",
          "type": "bool"
        }
      ],
      "stateMutability": "view",
      "type": "function"
    },
    {
      "inputs": [
        {
          "internalType": "uint256",
          "name": "",
          "type": "uint256"
        }
      ],
      "name": "allPharmacyAddress",
      "outputs": [
        {
          "internalType": "address",
          "name": "",
          "type": "address"
        }
      ],
      "stateMutability": "view",
      "type": "function"
    },
    {
      "inputs": [
        {
          "internalType": "address",
          "name": "",
          "type": "address"
        }
      ],
      "name": "allPharmacyCompany",
      "outputs": [
        {
          "internalType": "address",
          "name": "pharmacyCompany",
          "type": "address"
        },
        {
          "internalType": "string",
          "name": "name",
          "type": "string"
        },
        {
          "internalType": "uint256",
          "name": "pharmacyCompanyId",
          "type": "uint256"
        },
        {
          "internalType": "bool",
          "name": "isAdded",
          "type": "bool"
        },
        {
          "internalType": "bool",
          "name": "dataAccress",
          "type": "bool"
        }
      ],
      "stateMutability": "view",
      "type": "function"
    },
    {
      "inputs": [
        {
          "internalType": "uint256",
          "name": "",
          "type": "uint256"
        }
      ],
      "name": "allPharmacyCompanyAddress",
      "outputs": [
        {
          "internalType": "address",
          "name": "",
          "type": "address"
        }
      ],
      "stateMutability": "view",
      "type": "function"
    },
    {
      "inputs": [
        {
          "internalType": "address",
          "name": "user",
          "type": "address"
        }
      ],
      "name": "revokeDataAnyone",
      "outputs": [],
      "stateMutability": "nonpayable",
      "type": "function"
    },
    {
      "inputs": [
        {
          "internalType": "address",
          "name": "_issuerAddress",
          "type": "address"
        }
      ],
      "name": "viewCredential",
      "outputs": [
        {
          "internalType": "address",
          "name": "",
          "type": "address"
        },
        {
          "internalType": "string",
          "name": "",
          "type": "string"
        },
        {
          "internalType": "string",
          "name": "",
          "type": "string"
        },
        {
          "internalType": "string",
          "name": "",
          "type": "string"
        },
        {
          "internalType": "string",
          "name": "",
          "type": "string"
        },
        {
          "internalType": "bool",
          "name": "",
          "type": "bool"
        }
      ],
      "stateMutability": "view",
      "type": "function"
    },
    {
      "inputs": [
        {
          "internalType": "address",
          "name": "_dataAnalyst",
          "type": "address"
        }
      ],
      "name": "viewDataAnalyst",
      "outputs": [
        {
          "internalType": "address",
          "name": "",
          "type": "address"
        },
        {
          "internalType": "string",
          "name": "",
          "type": "string"
        },
        {
          "internalType": "uint256",
          "name": "",
          "type": "uint256"
        },
        {
          "internalType": "bool",
          "name": "",
          "type": "bool"
        }
      ],
      "stateMutability": "view",
      "type": "function"
    },
    {
      "inputs": [
        {
          "internalType": "address",
          "name": "_doctor",
          "type": "address"
        }
      ],
      "name": "viewDoctor",
      "outputs": [
        {
          "internalType": "address",
          "name": "",
          "type": "address"
        },
        {
          "internalType": "string",
          "name": "",
          "type": "string"
        },
        {
          "internalType": "uint256",
          "name": "",
          "type": "uint256"
        },
        {
          "internalType": "uint256",
          "name": "",
          "type": "uint256"
        },
        {
          "internalType": "uint256",
          "name": "",
          "type": "uint256"
        },
        {
          "internalType": "bool",
          "name": "",
          "type": "bool"
        }
      ],
      "stateMutability": "view",
      "type": "function"
    },
    {
      "inputs": [
        {
          "internalType": "address",
          "name": "_patient",
          "type": "address"
        }
      ],
      "name": "viewPatient",
      "outputs": [
        {
          "internalType": "address",
          "name": "",
          "type": "address"
        },
        {
          "internalType": "string",
          "name": "",
          "type": "string"
        },
        {
          "internalType": "uint256",
          "name": "",
          "type": "uint256"
        },
        {
          "internalType": "uint256",
          "name": "",
          "type": "uint256"
        },
        {
          "internalType": "string",
          "name": "",
          "type": "string"
        },
        {
          "internalType": "uint256",
          "name": "",
          "type": "uint256"
        },
        {
          "internalType": "string",
          "name": "",
          "type": "string"
        },
        {
          "internalType": "uint256",
          "name": "",
          "type": "uint256"
        },
        {
          "internalType": "bool",
          "name": "",
          "type": "bool"
        }
      ],
      "stateMutability": "view",
      "type": "function"
    },
    {
      "inputs": [
        {
          "internalType": "address",
          "name": "_patientParient",
          "type": "address"
        }
      ],
      "name": "viewPatientParient",
      "outputs": [
        {
          "internalType": "string",
          "name": "",
          "type": "string"
        },
        {
          "internalType": "address",
          "name": "",
          "type": "address"
        },
        {
          "internalType": "uint256",
          "name": "",
          "type": "uint256"
        },
        {
          "internalType": "string",
          "name": "",
          "type": "string"
        },
        {
          "internalType": "uint256",
          "name": "",
          "type": "uint256"
        },
        {
          "internalType": "string",
          "name": "",
          "type": "string"
        },
        {
          "internalType": "uint256",
          "name": "",
          "type": "uint256"
        },
        {
          "internalType": "bool",
          "name": "",
          "type": "bool"
        }
      ],
      "stateMutability": "view",
      "type": "function"
    },
    {
      "inputs": [
        {
          "internalType": "address",
          "name": "_pharmacy",
          "type": "address"
        }
      ],
      "name": "viewPharmacy",
      "outputs": [
        {
          "internalType": "address",
          "name": "",
          "type": "address"
        },
        {
          "internalType": "string",
          "name": "",
          "type": "string"
        },
        {
          "internalType": "uint256",
          "name": "",
          "type": "uint256"
        },
        {
          "internalType": "bool",
          "name": "",
          "type": "bool"
        }
      ],
      "stateMutability": "view",
      "type": "function"
    }
  ],
  "bytecode": "0x608060405234801561001057600080fd5b5033601660006101000a81548173ffffffffffffffffffffffffffffffffffffffff021916908373ffffffffffffffffffffffffffffffffffffffff16021790555061502a806100616000396000f3fe608060405234801561001057600080fd5b50600436106102275760003560e01c806369af39bc116101305780638e87d2f9116100b8578063b03a985d1161007c578063b03a985d146107d8578063cd32d81b1461080d578063d96e84a514610841578063e8a5733c14610871578063fb57baff1461088d57610227565b80638e87d2f9146106f857806394f233d2146107285780639605f4441461075c578063a790782314610778578063a8cef27a146107a857610227565b806372f96ccc116100ff57806372f96ccc146106125780637645dea41461064657806378a9ae69146106625780637dd848951461069257806386e62dc8146106c257610227565b806369af39bc146105765780636b75d055146105925780636d2e3c16146105c657806372232f14146105f657610227565b8063362b3b31116101b3578063590ce34d11610182578063590ce34d146104a85780635a63fbc9146104d85780635d21836d146104f65780635d7a1b271461051257806368def1b61461054657610227565b8063362b3b31146103ec5780634798c711146104255780634ebf7a2f1461045857806352e5904e1461047457610227565b80631ae738b8116101fa5780631ae738b8146102fc578063210145c91461033457806325570ae9146103695780632dff8bce14610385578063325b5c79146103bc57610227565b80630a088f631461022c5780630eb4ce371461025c57806315f250651461028f578063166d37d5146102c5575b600080fd5b61024660048036038101906102419190613ce5565b6108bd565b6040516102539190613d53565b60405180910390f35b61027660048036038101906102719190613d9a565b6108fc565b6040516102869493929190613e81565b60405180910390f35b6102a960048036038101906102a49190613d9a565b610af2565b6040516102bc9796959493929190613ecd565b60405180910390f35b6102df60048036038101906102da9190613d9a565b610d8e565b6040516102f3989796959493929190613f58565b60405180910390f35b61031660048036038101906103119190613d9a565b611144565b60405161032b99989796959493929190613feb565b60405180910390f35b61034e60048036038101906103499190613d9a565b611728565b6040516103609695949392919061408d565b60405180910390f35b610383600480360381019061037e9190613d9a565b611ad2565b005b61039f600480360381019061039a9190613d9a565b611c16565b6040516103b3989796959493929190613f58565b60405180910390f35b6103d660048036038101906103d19190613ce5565b611e23565b6040516103e39190613d53565b60405180910390f35b61040660048036038101906104019190613d9a565b611e62565b60405161041c9a9998979695949392919061423f565b60405180910390f35b61043f600480360381019061043a9190613d9a565b6122cb565b60405161044f9493929190613e81565b60405180910390f35b610472600480360381019061046d919061442c565b6124c1565b005b61048e60048036038101906104899190613d9a565b6126ad565b60405161049f959493929190614517565b60405180910390f35b6104c260048036038101906104bd9190613ce5565b6127a5565b6040516104cf9190613d53565b60405180910390f35b6104e06127e4565b6040516104ed9190613d53565b60405180910390f35b610510600480360381019061050b9190614571565b61280a565b005b61052c60048036038101906105279190613d9a565b612a01565b60405161053d959493929190614517565b60405180910390f35b610560600480360381019061055b9190613ce5565b612af9565b60405161056d9190613d53565b60405180910390f35b610590600480360381019061058b9190614667565b612b38565b005b6105ac60048036038101906105a79190613d9a565b612d37565b6040516105bd959493929190614517565b60405180910390f35b6105e060048036038101906105db9190613ce5565b612e2f565b6040516105ed9190613d53565b60405180910390f35b610610600480360381019061060b9190613d9a565b612e6e565b005b61062c60048036038101906106279190613d9a565b612fb2565b60405161063d959493929190614517565b60405180910390f35b610660600480360381019061065b9190614771565b6130aa565b005b61067c60048036038101906106779190613ce5565b61327b565b6040516106899190613d53565b60405180910390f35b6106ac60048036038101906106a79190613ce5565b6132ba565b6040516106b99190613d53565b60405180910390f35b6106dc60048036038101906106d79190613d9a565b6132f9565b6040516106ef9796959493929190614808565b60405180910390f35b610712600480360381019061070d9190613ce5565b6133fd565b60405161071f9190613d53565b60405180910390f35b610742600480360381019061073d9190613d9a565b61343c565b604051610753959493929190614517565b60405180910390f35b6107766004803603810190610771919061487e565b613534565b005b610792600480360381019061078d9190613ce5565b6136f1565b60405161079f9190613d53565b60405180910390f35b6107c260048036038101906107bd9190613ce5565b613730565b6040516107cf9190613d53565b60405180910390f35b6107f260048036038101906107ed9190613d9a565b61376f565b604051610804969594939291906148ed565b60405180910390f35b61082760048036038101906108229190613d9a565b613978565b604051610838959493929190614517565b60405180910390f35b61085b60048036038101906108569190614955565b613a70565b6040516108689190614995565b60405180910390f35b61088b6004803603810190610886919061487e565b613a9f565b005b6108a760048036038101906108a29190613ce5565b613c5c565b6040516108b49190613d53565b60405180910390f35b600a81815481106108cd57600080fd5b906000526020600020016000915054906101000a900473ffffffffffffffffffffffffffffffffffffffff1681565b6000606060008060011515601560008773ffffffffffffffffffffffffffffffffffffffff1673ffffffffffffffffffffffffffffffffffffffff16815260200190815260200160002060003373ffffffffffffffffffffffffffffffffffffffff1673ffffffffffffffffffffffffffffffffffffffff16815260200190815260200160002060009054906101000a900460ff161515146109d3576040517f08c379a00000000000000000000000000000000000000000000000000000000081526004016109ca90614a22565b60405180910390fd5b6000600760008773ffffffffffffffffffffffffffffffffffffffff1673ffffffffffffffffffffffffffffffffffffffff16815260200190815260200160002090508060000160009054906101000a900473ffffffffffffffffffffffffffffffffffffffff168160010182600201548360030160009054906101000a900460ff16828054610a6290614a71565b80601f0160208091040260200160405190810160405280929190818152602001828054610a8e90614a71565b8015610adb5780601f10610ab057610100808354040283529160200191610adb565b820191906000526020600020905b815481529060010190602001808311610abe57829003601f168201915b505050505092509450945094509450509193509193565b60096020528060005260406000206000915090508060000160009054906101000a900473ffffffffffffffffffffffffffffffffffffffff1690806001018054610b3b90614a71565b80601f0160208091040260200160405190810160405280929190818152602001828054610b6790614a71565b8015610bb45780601f10610b8957610100808354040283529160200191610bb4565b820191906000526020600020905b815481529060010190602001808311610b9757829003601f168201915b505050505090806002018054610bc990614a71565b80601f0160208091040260200160405190810160405280929190818152602001828054610bf590614a71565b8015610c425780601f10610c1757610100808354040283529160200191610c42565b820191906000526020600020905b815481529060010190602001808311610c2557829003601f168201915b505050505090806003018054610c5790614a71565b80601f0160208091040260200160405190810160405280929190818152602001828054610c8390614a71565b8015610cd05780601f10610ca557610100808354040283529160200191610cd0565b820191906000526020600020905b815481529060010190602001808311610cb357829003601f168201915b505050505090806004018054610ce590614a71565b80601f0160208091040260200160405190810160405280929190818152602001828054610d1190614a71565b8015610d5e5780601f10610d3357610100808354040283529160200191610d5e565b820191906000526020600020905b815481529060010190602001808311610d4157829003601f168201915b5050505050908060050160009054906101000a900460ff16908060050160019054906101000a900460ff16905087565b606060008060606000606060008060011515601560008b73ffffffffffffffffffffffffffffffffffffffff1673ffffffffffffffffffffffffffffffffffffffff16815260200190815260200160002060003373ffffffffffffffffffffffffffffffffffffffff1673ffffffffffffffffffffffffffffffffffffffff16815260200190815260200160002060009054906101000a900460ff16151514610e6c576040517f08c379a0000000000000000000000000000000000000000000000000000000008152600401610e6390614a22565b60405180910390fd5b6000600160008b73ffffffffffffffffffffffffffffffffffffffff1673ffffffffffffffffffffffffffffffffffffffff16815260200190815260200160002060405180610100016040529081600082018054610ec990614a71565b80601f0160208091040260200160405190810160405280929190818152602001828054610ef590614a71565b8015610f425780601f10610f1757610100808354040283529160200191610f42565b820191906000526020600020905b815481529060010190602001808311610f2557829003601f168201915b505050505081526020016001820160009054906101000a900473ffffffffffffffffffffffffffffffffffffffff1673ffffffffffffffffffffffffffffffffffffffff1673ffffffffffffffffffffffffffffffffffffffff16815260200160028201548152602001600382018054610fbb90614a71565b80601f0160208091040260200160405190810160405280929190818152602001828054610fe790614a71565b80156110345780601f1061100957610100808354040283529160200191611034565b820191906000526020600020905b81548152906001019060200180831161101757829003601f168201915b505050505081526020016004820154815260200160058201805461105790614a71565b80601f016020809104026020016040519081016040528092919081815260200182805461108390614a71565b80156110d05780601f106110a5576101008083540402835291602001916110d0565b820191906000526020600020905b8154815290600101906020018083116110b357829003601f168201915b50505050508152602001600682015481526020016007820160009054906101000a900460ff1615151515815250509050806000015181602001518260400151836060015184608001518560a001518660c001518760e001519850985098509850985098509850985050919395975091939597565b6000606060008060606000606060008060008060008c73ffffffffffffffffffffffffffffffffffffffff1673ffffffffffffffffffffffffffffffffffffffff168152602001908152602001600020604051806101600160405290816000820160009054906101000a900473ffffffffffffffffffffffffffffffffffffffff1673ffffffffffffffffffffffffffffffffffffffff1673ffffffffffffffffffffffffffffffffffffffff16815260200160018201805461120690614a71565b80601f016020809104026020016040519081016040528092919081815260200182805461123290614a71565b801561127f5780601f106112545761010080835404028352916020019161127f565b820191906000526020600020905b81548152906001019060200180831161126257829003601f168201915b5050505050815260200160028201548152602001600382015481526020016004820180546112ac90614a71565b80601f01602080910402602001604051908101604052809291908181526020018280546112d890614a71565b80156113255780601f106112fa57610100808354040283529160200191611325565b820191906000526020600020905b81548152906001019060200180831161130857829003601f168201915b505050505081526020016005820154815260200160068201805461134890614a71565b80601f016020809104026020016040519081016040528092919081815260200182805461137490614a71565b80156113c15780601f10611396576101008083540402835291602001916113c1565b820191906000526020600020905b8154815290600101906020018083116113a457829003601f168201915b5050505050815260200160078201604051806101000160405290816000820180546113eb90614a71565b80601f016020809104026020016040519081016040528092919081815260200182805461141790614a71565b80156114645780601f1061143957610100808354040283529160200191611464565b820191906000526020600020905b81548152906001019060200180831161144757829003601f168201915b505050505081526020016001820160009054906101000a900473ffffffffffffffffffffffffffffffffffffffff1673ffffffffffffffffffffffffffffffffffffffff1673ffffffffffffffffffffffffffffffffffffffff168152602001600282015481526020016003820180546114dd90614a71565b80601f016020809104026020016040519081016040528092919081815260200182805461150990614a71565b80156115565780601f1061152b57610100808354040283529160200191611556565b820191906000526020600020905b81548152906001019060200180831161153957829003601f168201915b505050505081526020016004820154815260200160058201805461157990614a71565b80601f01602080910402602001604051908101604052809291908181526020018280546115a590614a71565b80156115f25780601f106115c7576101008083540402835291602001916115f2565b820191906000526020600020905b8154815290600101906020018083116115d557829003601f168201915b50505050508152602001600682015481526020016007820160009054906101000a900460ff1615151515815250508152602001600f82015481526020016010820160009054906101000a900460ff16151515158152602001601182018054806020026020016040519081016040528092919081815260200182805480156116ce57602002820191906000526020600020905b8160009054906101000a900473ffffffffffffffffffffffffffffffffffffffff1673ffffffffffffffffffffffffffffffffffffffff1681526020019060010190808311611684575b5050505050815250509050806000015181602001518260400151836060015184608001518560a001518660c00151876101000151886101200151995099509950995099509950995099509950509193959799909294969850565b6000606080606080600060011515601560008973ffffffffffffffffffffffffffffffffffffffff1673ffffffffffffffffffffffffffffffffffffffff16815260200190815260200160002060003373ffffffffffffffffffffffffffffffffffffffff1673ffffffffffffffffffffffffffffffffffffffff16815260200190815260200160002060009054906101000a900460ff16151514611802576040517f08c379a00000000000000000000000000000000000000000000000000000000081526004016117f990614a22565b60405180910390fd5b6000600960008973ffffffffffffffffffffffffffffffffffffffff1673ffffffffffffffffffffffffffffffffffffffff16815260200190815260200160002090508060000160009054906101000a900473ffffffffffffffffffffffffffffffffffffffff16816001018260020183600301846004018560050160009054906101000a900460ff1684805461189890614a71565b80601f01602080910402602001604051908101604052809291908181526020018280546118c490614a71565b80156119115780601f106118e657610100808354040283529160200191611911565b820191906000526020600020905b8154815290600101906020018083116118f457829003601f168201915b5050505050945083805461192490614a71565b80601f016020809104026020016040519081016040528092919081815260200182805461195090614a71565b801561199d5780601f106119725761010080835404028352916020019161199d565b820191906000526020600020905b81548152906001019060200180831161198057829003601f168201915b505050505093508280546119b090614a71565b80601f01602080910402602001604051908101604052809291908181526020018280546119dc90614a71565b8015611a295780601f106119fe57610100808354040283529160200191611a29565b820191906000526020600020905b815481529060010190602001808311611a0c57829003601f168201915b50505050509250818054611a3c90614a71565b80601f0160208091040260200160405190810160405280929190818152602001828054611a6890614a71565b8015611ab55780601f10611a8a57610100808354040283529160200191611ab5565b820191906000526020600020905b815481529060010190602001808311611a9857829003601f168201915b505050505091509650965096509650965096505091939550919395565b8073ffffffffffffffffffffffffffffffffffffffff163373ffffffffffffffffffffffffffffffffffffffff1603611b40576040517f08c379a0000000000000000000000000000000000000000000000000000000008152600401611b3790614aee565b60405180910390fd5b6000601560003373ffffffffffffffffffffffffffffffffffffffff1673ffffffffffffffffffffffffffffffffffffffff16815260200190815260200160002060008373ffffffffffffffffffffffffffffffffffffffff1673ffffffffffffffffffffffffffffffffffffffff16815260200190815260200160002060006101000a81548160ff0219169083151502179055611c13576040517f08c379a0000000000000000000000000000000000000000000000000000000008152600401611c0a90614b80565b60405180910390fd5b50565b6001602052806000526040600020600091509050806000018054611c3990614a71565b80601f0160208091040260200160405190810160405280929190818152602001828054611c6590614a71565b8015611cb25780601f10611c8757610100808354040283529160200191611cb2565b820191906000526020600020905b815481529060010190602001808311611c9557829003601f168201915b5050505050908060010160009054906101000a900473ffffffffffffffffffffffffffffffffffffffff1690806002015490806003018054611cf390614a71565b80601f0160208091040260200160405190810160405280929190818152602001828054611d1f90614a71565b8015611d6c5780601f10611d4157610100808354040283529160200191611d6c565b820191906000526020600020905b815481529060010190602001808311611d4f57829003601f168201915b505050505090806004015490806005018054611d8790614a71565b80601f0160208091040260200160405190810160405280929190818152602001828054611db390614a71565b8015611e005780601f10611dd557610100808354040283529160200191611e00565b820191906000526020600020905b815481529060010190602001808311611de357829003601f168201915b5050505050908060060154908060070160009054906101000a900460ff16905088565b60108181548110611e3357600080fd5b906000526020600020016000915054906101000a900473ffffffffffffffffffffffffffffffffffffffff1681565b60006020528060005260406000206000915090508060000160009054906101000a900473ffffffffffffffffffffffffffffffffffffffff1690806001018054611eab90614a71565b80601f0160208091040260200160405190810160405280929190818152602001828054611ed790614a71565b8015611f245780601f10611ef957610100808354040283529160200191611f24565b820191906000526020600020905b815481529060010190602001808311611f0757829003601f168201915b505050505090806002015490806003015490806004018054611f4590614a71565b80601f0160208091040260200160405190810160405280929190818152602001828054611f7190614a71565b8015611fbe5780601f10611f9357610100808354040283529160200191611fbe565b820191906000526020600020905b815481529060010190602001808311611fa157829003601f168201915b505050505090806005015490806006018054611fd990614a71565b80601f016020809104026020016040519081016040528092919081815260200182805461200590614a71565b80156120525780601f1061202757610100808354040283529160200191612052565b820191906000526020600020905b81548152906001019060200180831161203557829003601f168201915b505050505090806007016040518061010001604052908160008201805461207890614a71565b80601f01602080910402602001604051908101604052809291908181526020018280546120a490614a71565b80156120f15780601f106120c6576101008083540402835291602001916120f1565b820191906000526020600020905b8154815290600101906020018083116120d457829003601f168201915b505050505081526020016001820160009054906101000a900473ffffffffffffffffffffffffffffffffffffffff1673ffffffffffffffffffffffffffffffffffffffff1673ffffffffffffffffffffffffffffffffffffffff1681526020016002820154815260200160038201805461216a90614a71565b80601f016020809104026020016040519081016040528092919081815260200182805461219690614a71565b80156121e35780601f106121b8576101008083540402835291602001916121e3565b820191906000526020600020905b8154815290600101906020018083116121c657829003601f168201915b505050505081526020016004820154815260200160058201805461220690614a71565b80601f016020809104026020016040519081016040528092919081815260200182805461223290614a71565b801561227f5780601f106122545761010080835404028352916020019161227f565b820191906000526020600020905b81548152906001019060200180831161226257829003601f168201915b50505050508152602001600682015481526020016007820160009054906101000a900460ff1615151515815250509080600f0154908060100160009054906101000a900460ff1690508a565b6000606060008060011515601560008773ffffffffffffffffffffffffffffffffffffffff1673ffffffffffffffffffffffffffffffffffffffff16815260200190815260200160002060003373ffffffffffffffffffffffffffffffffffffffff1673ffffffffffffffffffffffffffffffffffffffff16815260200190815260200160002060009054906101000a900460ff161515146123a2576040517f08c379a000000000000000000000000000000000000000000000000000000000815260040161239990614a22565b60405180910390fd5b6000600860008773ffffffffffffffffffffffffffffffffffffffff1673ffffffffffffffffffffffffffffffffffffffff16815260200190815260200160002090508060000160009054906101000a900473ffffffffffffffffffffffffffffffffffffffff168160010182600201548360030160009054906101000a900460ff1682805461243190614a71565b80601f016020809104026020016040519081016040528092919081815260200182805461245d90614a71565b80156124aa5780601f1061247f576101008083540402835291602001916124aa565b820191906000526020600020905b81548152906001019060200180831161248d57829003601f168201915b505050505092509450945094509450509193509193565b60001515600960008773ffffffffffffffffffffffffffffffffffffffff1673ffffffffffffffffffffffffffffffffffffffff16815260200190815260200160002060050160009054906101000a900460ff16151514612557576040517f08c379a000000000000000000000000000000000000000000000000000000000815260040161254e90614c12565b60405180910390fd5b6000600960008773ffffffffffffffffffffffffffffffffffffffff1673ffffffffffffffffffffffffffffffffffffffff1681526020019081526020016000209050858160000160006101000a81548173ffffffffffffffffffffffffffffffffffffffff021916908373ffffffffffffffffffffffffffffffffffffffff160217905550848160010190816125ee9190614dde565b50838160020190816126009190614dde565b50828160030190816126129190614dde565b50818160040190816126249190614dde565b5060018160050160006101000a81548160ff0219169083151502179055506013869080600181540180825580915050600190039060005260206000200160009091909190916101000a81548173ffffffffffffffffffffffffffffffffffffffff021916908373ffffffffffffffffffffffffffffffffffffffff160217905550505050505050565b60086020528060005260406000206000915090508060000160009054906101000a900473ffffffffffffffffffffffffffffffffffffffff16908060010180546126f690614a71565b80601f016020809104026020016040519081016040528092919081815260200182805461272290614a71565b801561276f5780601f106127445761010080835404028352916020019161276f565b820191906000526020600020905b81548152906001019060200180831161275257829003601f168201915b5050505050908060020154908060030160009054906101000a900460ff16908060030160019054906101000a900460ff16905085565b600f81815481106127b557600080fd5b906000526020600020016000915054906101000a900473ffffffffffffffffffffffffffffffffffffffff1681565b601660009054906101000a900473ffffffffffffffffffffffffffffffffffffffff1681565b60001515600160008873ffffffffffffffffffffffffffffffffffffffff1673ffffffffffffffffffffffffffffffffffffffff16815260200190815260200160002060070160009054906101000a900460ff161515146128a0576040517f08c379a000000000000000000000000000000000000000000000000000000000815260040161289790614efc565b60405180910390fd5b6000600160008873ffffffffffffffffffffffffffffffffffffffff1673ffffffffffffffffffffffffffffffffffffffff1681526020019081526020016000209050878160000190816128f49190614dde565b50868160010160006101000a81548173ffffffffffffffffffffffffffffffffffffffff021916908373ffffffffffffffffffffffffffffffffffffffff160217905550858160020181905550848160030190816129529190614dde565b508381600401819055508281600501908161296d9190614dde565b5081816006018190555060018160070160006101000a81548160ff021916908315150217905550600b879080600181540180825580915050600190039060005260206000200160009091909190916101000a81548173ffffffffffffffffffffffffffffffffffffffff021916908373ffffffffffffffffffffffffffffffffffffffff1602179055505050505050505050565b60046020528060005260406000206000915090508060000160009054906101000a900473ffffffffffffffffffffffffffffffffffffffff1690806001018054612a4a90614a71565b80601f0160208091040260200160405190810160405280929190818152602001828054612a7690614a71565b8015612ac35780601f10612a9857610100808354040283529160200191612ac3565b820191906000526020600020905b815481529060010190602001808311612aa657829003601f168201915b5050505050908060020154908060030160009054906101000a900460ff16908060030160019054906101000a900460ff16905085565b600e8181548110612b0957600080fd5b906000526020600020016000915054906101000a900473ffffffffffffffffffffffffffffffffffffffff1681565b600015156000808a73ffffffffffffffffffffffffffffffffffffffff1673ffffffffffffffffffffffffffffffffffffffff16815260200190815260200160002060100160009054906101000a900460ff16151514612bcd576040517f08c379a0000000000000000000000000000000000000000000000000000000008152600401612bc490614f68565b60405180910390fd5b60008060008a73ffffffffffffffffffffffffffffffffffffffff1673ffffffffffffffffffffffffffffffffffffffff1681526020019081526020016000209050888160000160006101000a81548173ffffffffffffffffffffffffffffffffffffffff021916908373ffffffffffffffffffffffffffffffffffffffff16021790555087816001019081612c639190614dde565b5086816002018190555085816003018190555084816004019081612c879190614dde565b508381600501819055508181600f018190555082816006019081612cab9190614dde565b5060018160100160006101000a81548160ff021916908315150217905550600a899080600181540180825580915050600190039060005260206000200160009091909190916101000a81548173ffffffffffffffffffffffffffffffffffffffff021916908373ffffffffffffffffffffffffffffffffffffffff160217905550505050505050505050565b60036020528060005260406000206000915090508060000160009054906101000a900473ffffffffffffffffffffffffffffffffffffffff1690806001018054612d8090614a71565b80601f0160208091040260200160405190810160405280929190818152602001828054612dac90614a71565b8015612df95780601f10612dce57610100808354040283529160200191612df9565b820191906000526020600020905b815481529060010190602001808311612ddc57829003601f168201915b5050505050908060020154908060030160009054906101000a900460ff16908060030160019054906101000a900460ff16905085565b60138181548110612e3f57600080fd5b906000526020600020016000915054906101000a900473ffffffffffffffffffffffffffffffffffffffff1681565b8073ffffffffffffffffffffffffffffffffffffffff163373ffffffffffffffffffffffffffffffffffffffff1603612edc576040517f08c379a0000000000000000000000000000000000000000000000000000000008152600401612ed390614fd4565b60405180910390fd5b6001601560003373ffffffffffffffffffffffffffffffffffffffff1673ffffffffffffffffffffffffffffffffffffffff16815260200190815260200160002060008373ffffffffffffffffffffffffffffffffffffffff1673ffffffffffffffffffffffffffffffffffffffff16815260200190815260200160002060006101000a81548160ff0219169083151502179055612faf576040517f08c379a0000000000000000000000000000000000000000000000000000000008152600401612fa690614a22565b60405180910390fd5b50565b60076020528060005260406000206000915090508060000160009054906101000a900473ffffffffffffffffffffffffffffffffffffffff1690806001018054612ffb90614a71565b80601f016020809104026020016040519081016040528092919081815260200182805461302790614a71565b80156130745780601f1061304957610100808354040283529160200191613074565b820191906000526020600020905b81548152906001019060200180831161305757829003601f168201915b5050505050908060020154908060030160009054906101000a900460ff16908060030160019054906101000a900460ff16905085565b60001515600260008773ffffffffffffffffffffffffffffffffffffffff1673ffffffffffffffffffffffffffffffffffffffff16815260200190815260200160002060060160009054906101000a900460ff16151514613140576040517f08c379a000000000000000000000000000000000000000000000000000000000815260040161313790614f68565b60405180910390fd5b6000600260008773ffffffffffffffffffffffffffffffffffffffff1673ffffffffffffffffffffffffffffffffffffffff1681526020019081526020016000209050858160000160006101000a81548173ffffffffffffffffffffffffffffffffffffffff021916908373ffffffffffffffffffffffffffffffffffffffff160217905550848160010190816131d79190614dde565b5083816002018190555082816003018190555081816004018190555060018160060160006101000a81548160ff021916908315150217905550600c869080600181540180825580915050600190039060005260206000200160009091909190916101000a81548173ffffffffffffffffffffffffffffffffffffffff021916908373ffffffffffffffffffffffffffffffffffffffff160217905550505050505050565b600b818154811061328b57600080fd5b906000526020600020016000915054906101000a900473ffffffffffffffffffffffffffffffffffffffff1681565b601281815481106132ca57600080fd5b906000526020600020016000915054906101000a900473ffffffffffffffffffffffffffffffffffffffff1681565b60026020528060005260406000206000915090508060000160009054906101000a900473ffffffffffffffffffffffffffffffffffffffff169080600101805461334290614a71565b80601f016020809104026020016040519081016040528092919081815260200182805461336e90614a71565b80156133bb5780601f10613390576101008083540402835291602001916133bb565b820191906000526020600020905b81548152906001019060200180831161339e57829003601f168201915b5050505050908060020154908060030154908060040154908060060160009054906101000a900460ff16908060060160019054906101000a900460ff16905087565b600d818154811061340d57600080fd5b906000526020600020016000915054906101000a900473ffffffffffffffffffffffffffffffffffffffff1681565b60056020528060005260406000206000915090508060000160009054906101000a900473ffffffffffffffffffffffffffffffffffffffff169080600101805461348590614a71565b80601f01602080910402602001604051908101604052809291908181526020018280546134b190614a71565b80156134fe5780601f106134d3576101008083540402835291602001916134fe565b820191906000526020600020905b8154815290600101906020018083116134e157829003601f168201915b5050505050908060020154908060030160009054906101000a900460ff16908060030160019054906101000a900460ff16905085565b60001515600760008573ffffffffffffffffffffffffffffffffffffffff1673ffffffffffffffffffffffffffffffffffffffff16815260200190815260200160002060030160009054906101000a900460ff161515146135ca576040517f08c379a00000000000000000000000000000000000000000000000000000000081526004016135c190614f68565b60405180910390fd5b6000600760008573ffffffffffffffffffffffffffffffffffffffff1673ffffffffffffffffffffffffffffffffffffffff1681526020019081526020016000209050838160000160006101000a81548173ffffffffffffffffffffffffffffffffffffffff021916908373ffffffffffffffffffffffffffffffffffffffff160217905550828160010190816136619190614dde565b5081816002018190555060018160030160006101000a81548160ff0219169083151502179055506011849080600181540180825580915050600190039060005260206000200160009091909190916101000a81548173ffffffffffffffffffffffffffffffffffffffff021916908373ffffffffffffffffffffffffffffffffffffffff16021790555050505050565b6011818154811061370157600080fd5b906000526020600020016000915054906101000a900473ffffffffffffffffffffffffffffffffffffffff1681565b6014818154811061374057600080fd5b906000526020600020016000915054906101000a900473ffffffffffffffffffffffffffffffffffffffff1681565b600060606000806000806000600260008973ffffffffffffffffffffffffffffffffffffffff1673ffffffffffffffffffffffffffffffffffffffff168152602001908152602001600020905060011515601560008a73ffffffffffffffffffffffffffffffffffffffff1673ffffffffffffffffffffffffffffffffffffffff16815260200190815260200160002060003373ffffffffffffffffffffffffffffffffffffffff1673ffffffffffffffffffffffffffffffffffffffff16815260200190815260200160002060009054906101000a900460ff1615151461388c576040517f08c379a000000000000000000000000000000000000000000000000000000000815260040161388390614a22565b60405180910390fd5b8060000160009054906101000a900473ffffffffffffffffffffffffffffffffffffffff16816001018260020154836003015484600401548560060160009054906101000a900460ff168480546138e290614a71565b80601f016020809104026020016040519081016040528092919081815260200182805461390e90614a71565b801561395b5780601f106139305761010080835404028352916020019161395b565b820191906000526020600020905b81548152906001019060200180831161393e57829003601f168201915b505050505094509650965096509650965096505091939550919395565b60066020528060005260406000206000915090508060000160009054906101000a900473ffffffffffffffffffffffffffffffffffffffff16908060010180546139c190614a71565b80601f01602080910402602001604051908101604052809291908181526020018280546139ed90614a71565b8015613a3a5780601f10613a0f57610100808354040283529160200191613a3a565b820191906000526020600020905b815481529060010190602001808311613a1d57829003601f168201915b5050505050908060020154908060030160009054906101000a900460ff16908060030160019054906101000a900460ff16905085565b60156020528160005260406000206020528060005260406000206000915091509054906101000a900460ff1681565b60001515600860008573ffffffffffffffffffffffffffffffffffffffff1673ffffffffffffffffffffffffffffffffffffffff16815260200190815260200160002060030160009054906101000a900460ff16151514613b35576040517f08c379a0000000000000000000000000000000000000000000000000000000008152600401613b2c90614f68565b60405180910390fd5b6000600860008573ffffffffffffffffffffffffffffffffffffffff1673ffffffffffffffffffffffffffffffffffffffff1681526020019081526020016000209050838160000160006101000a81548173ffffffffffffffffffffffffffffffffffffffff021916908373ffffffffffffffffffffffffffffffffffffffff16021790555082816001019081613bcc9190614dde565b5081816002018190555060018160030160006101000a81548160ff0219169083151502179055506012849080600181540180825580915050600190039060005260206000200160009091909190916101000a81548173ffffffffffffffffffffffffffffffffffffffff021916908373ffffffffffffffffffffffffffffffffffffffff16021790555050505050565b600c8181548110613c6c57600080fd5b906000526020600020016000915054906101000a900473ffffffffffffffffffffffffffffffffffffffff1681565b6000604051905090565b600080fd5b600080fd5b6000819050919050565b613cc281613caf565b8114613ccd57600080fd5b50565b600081359050613cdf81613cb9565b92915050565b600060208284031215613cfb57613cfa613ca5565b5b6000613d0984828501613cd0565b91505092915050565b600073ffffffffffffffffffffffffffffffffffffffff82169050919050565b6000613d3d82613d12565b9050919050565b613d4d81613d32565b82525050565b6000602082019050613d686000830184613d44565b92915050565b613d7781613d32565b8114613d8257600080fd5b50565b600081359050613d9481613d6e565b92915050565b600060208284031215613db057613daf613ca5565b5b6000613dbe84828501613d85565b91505092915050565b600081519050919050565b600082825260208201905092915050565b60005b83811015613e01578082015181840152602081019050613de6565b60008484015250505050565b6000601f19601f8301169050919050565b6000613e2982613dc7565b613e338185613dd2565b9350613e43818560208601613de3565b613e4c81613e0d565b840191505092915050565b613e6081613caf565b82525050565b60008115159050919050565b613e7b81613e66565b82525050565b6000608082019050613e966000830187613d44565b8181036020830152613ea88186613e1e565b9050613eb76040830185613e57565b613ec46060830184613e72565b95945050505050565b600060e082019050613ee2600083018a613d44565b8181036020830152613ef48189613e1e565b90508181036040830152613f088188613e1e565b90508181036060830152613f1c8187613e1e565b90508181036080830152613f308186613e1e565b9050613f3f60a0830185613e72565b613f4c60c0830184613e72565b98975050505050505050565b6000610100820190508181036000830152613f73818b613e1e565b9050613f82602083018a613d44565b613f8f6040830189613e57565b8181036060830152613fa18188613e1e565b9050613fb06080830187613e57565b81810360a0830152613fc28186613e1e565b9050613fd160c0830185613e57565b613fde60e0830184613e72565b9998505050505050505050565b600061012082019050614001600083018c613d44565b8181036020830152614013818b613e1e565b9050614022604083018a613e57565b61402f6060830189613e57565b81810360808301526140418188613e1e565b905061405060a0830187613e57565b81810360c08301526140628186613e1e565b905061407160e0830185613e57565b61407f610100830184613e72565b9a9950505050505050505050565b600060c0820190506140a26000830189613d44565b81810360208301526140b48188613e1e565b905081810360408301526140c88187613e1e565b905081810360608301526140dc8186613e1e565b905081810360808301526140f08185613e1e565b90506140ff60a0830184613e72565b979650505050505050565b600082825260208201905092915050565b600061412682613dc7565b614130818561410a565b9350614140818560208601613de3565b61414981613e0d565b840191505092915050565b61415d81613d32565b82525050565b61416c81613caf565b82525050565b61417b81613e66565b82525050565b600061010083016000830151848203600086015261419f828261411b565b91505060208301516141b46020860182614154565b5060408301516141c76040860182614163565b50606083015184820360608601526141df828261411b565b91505060808301516141f46080860182614163565b5060a083015184820360a086015261420c828261411b565b91505060c083015161422160c0860182614163565b5060e083015161423460e0860182614172565b508091505092915050565b600061014082019050614255600083018d613d44565b8181036020830152614267818c613e1e565b9050614276604083018b613e57565b614283606083018a613e57565b81810360808301526142958189613e1e565b90506142a460a0830188613e57565b81810360c08301526142b68187613e1e565b905081810360e08301526142ca8186614181565b90506142da610100830185613e57565b6142e8610120830184613e72565b9b9a5050505050505050505050565b600080fd5b600080fd5b7f4e487b7100000000000000000000000000000000000000000000000000000000600052604160045260246000fd5b61433982613e0d565b810181811067ffffffffffffffff8211171561435857614357614301565b5b80604052505050565b600061436b613c9b565b90506143778282614330565b919050565b600067ffffffffffffffff82111561439757614396614301565b5b6143a082613e0d565b9050602081019050919050565b82818337600083830152505050565b60006143cf6143ca8461437c565b614361565b9050828152602081018484840111156143eb576143ea6142fc565b5b6143f68482856143ad565b509392505050565b600082601f830112614413576144126142f7565b5b81356144238482602086016143bc565b91505092915050565b600080600080600060a0868803121561444857614447613ca5565b5b600061445688828901613d85565b955050602086013567ffffffffffffffff81111561447757614476613caa565b5b614483888289016143fe565b945050604086013567ffffffffffffffff8111156144a4576144a3613caa565b5b6144b0888289016143fe565b935050606086013567ffffffffffffffff8111156144d1576144d0613caa565b5b6144dd888289016143fe565b925050608086013567ffffffffffffffff8111156144fe576144fd613caa565b5b61450a888289016143fe565b9150509295509295909350565b600060a08201905061452c6000830188613d44565b818103602083015261453e8187613e1e565b905061454d6040830186613e57565b61455a6060830185613e72565b6145676080830184613e72565b9695505050505050565b600080600080600080600060e0888a0312156145905761458f613ca5565b5b600088013567ffffffffffffffff8111156145ae576145ad613caa565b5b6145ba8a828b016143fe565b97505060206145cb8a828b01613d85565b96505060406145dc8a828b01613cd0565b955050606088013567ffffffffffffffff8111156145fd576145fc613caa565b5b6146098a828b016143fe565b945050608061461a8a828b01613cd0565b93505060a088013567ffffffffffffffff81111561463b5761463a613caa565b5b6146478a828b016143fe565b92505060c06146588a828b01613cd0565b91505092959891949750929550565b600080600080600080600080610100898b03121561468857614687613ca5565b5b60006146968b828c01613d85565b985050602089013567ffffffffffffffff8111156146b7576146b6613caa565b5b6146c38b828c016143fe565b97505060406146d48b828c01613cd0565b96505060606146e58b828c01613cd0565b955050608089013567ffffffffffffffff81111561470657614705613caa565b5b6147128b828c016143fe565b94505060a06147238b828c01613cd0565b93505060c089013567ffffffffffffffff81111561474457614743613caa565b5b6147508b828c016143fe565b92505060e06147618b828c01613cd0565b9150509295985092959890939650565b600080600080600060a0868803121561478d5761478c613ca5565b5b600061479b88828901613d85565b955050602086013567ffffffffffffffff8111156147bc576147bb613caa565b5b6147c8888289016143fe565b94505060406147d988828901613cd0565b93505060606147ea88828901613cd0565b92505060806147fb88828901613cd0565b9150509295509295909350565b600060e08201905061481d600083018a613d44565b818103602083015261482f8189613e1e565b905061483e6040830188613e57565b61484b6060830187613e57565b6148586080830186613e57565b61486560a0830185613e72565b61487260c0830184613e72565b98975050505050505050565b60008060006060848603121561489757614896613ca5565b5b60006148a586828701613d85565b935050602084013567ffffffffffffffff8111156148c6576148c5613caa565b5b6148d2868287016143fe565b92505060406148e386828701613cd0565b9150509250925092565b600060c0820190506149026000830189613d44565b81810360208301526149148188613e1e565b90506149236040830187613e57565b6149306060830186613e57565b61493d6080830185613e57565b61494a60a0830184613e72565b979650505050505050565b6000806040838503121561496c5761496b613ca5565b5b600061497a85828601613d85565b925050602061498b85828601613d85565b9150509250929050565b60006020820190506149aa6000830184613e72565b92915050565b7f7573657220616c726564792068617665206163637265737320696e20796f757260008201527f2064617461000000000000000000000000000000000000000000000000000000602082015250565b6000614a0c602583613dd2565b9150614a17826149b0565b604082019050919050565b60006020820190508181036000830152614a3b816149ff565b9050919050565b7f4e487b7100000000000000000000000000000000000000000000000000000000600052602260045260246000fd5b60006002820490506001821680614a8957607f821691505b602082108103614a9c57614a9b614a42565b5b50919050565b7f796f752063616e2774207265766f6b6520796f757273656c6620000000000000600082015250565b6000614ad8601a83613dd2565b9150614ae382614aa2565b602082019050919050565b60006020820190508181036000830152614b0781614acb565b9050919050565b7f7573657220616c72656479207265766f6b65642066726f6d202064617461206160008201527f6363726573730000000000000000000000000000000000000000000000000000602082015250565b6000614b6a602683613dd2565b9150614b7582614b0e565b604082019050919050565b60006020820190508181036000830152614b9981614b5d565b9050919050565b7f796f7520616c726561647920616464656420796f75722043726564656e74696160008201527f6c00000000000000000000000000000000000000000000000000000000000000602082015250565b6000614bfc602183613dd2565b9150614c0782614ba0565b604082019050919050565b60006020820190508181036000830152614c2b81614bef565b9050919050565b60008190508160005260206000209050919050565b60006020601f8301049050919050565b600082821b905092915050565b600060088302614c947fffffffffffffffffffffffffffffffffffffffffffffffffffffffffffffffff82614c57565b614c9e8683614c57565b95508019841693508086168417925050509392505050565b6000819050919050565b6000614cdb614cd6614cd184613caf565b614cb6565b613caf565b9050919050565b6000819050919050565b614cf583614cc0565b614d09614d0182614ce2565b848454614c64565b825550505050565b600090565b614d1e614d11565b614d29818484614cec565b505050565b5b81811015614d4d57614d42600082614d16565b600181019050614d2f565b5050565b601f821115614d9257614d6381614c32565b614d6c84614c47565b81016020851015614d7b578190505b614d8f614d8785614c47565b830182614d2e565b50505b505050565b600082821c905092915050565b6000614db560001984600802614d97565b1980831691505092915050565b6000614dce8383614da4565b9150826002028217905092915050565b614de782613dc7565b67ffffffffffffffff811115614e0057614dff614301565b5b614e0a8254614a71565b614e15828285614d51565b600060209050601f831160018114614e485760008415614e36578287015190505b614e408582614dc2565b865550614ea8565b601f198416614e5686614c32565b60005b82811015614e7e57848901518255600182019150602085019450602081019050614e59565b86831015614e9b5784890151614e97601f891682614da4565b8355505b6001600288020188555050505b505050505050565b7f796f7520616c72656164792063726561746520796f75722070726f66696c6500600082015250565b6000614ee6601f83613dd2565b9150614ef182614eb0565b602082019050919050565b60006020820190508181036000830152614f1581614ed9565b9050919050565b7f796f7520616c726561647920616464656420796f757273656c66000000000000600082015250565b6000614f52601a83613dd2565b9150614f5d82614f1c565b602082019050919050565b60006020820190508181036000830152614f8181614f45565b9050919050565b7f796f752063616e2774206163637265737320796f757273656c66200000000000600082015250565b6000614fbe601b83613dd2565b9150614fc982614f88565b602082019050919050565b60006020820190508181036000830152614fed81614fb1565b905091905056fea2646970667358221220deda792d613f09ddac7846dfdba2b1aaba263a3772a05447782cb4260d824e6464736f6c63430008110033",
  "linkReferences": {},
  "deployedLinkReferences": {}
}