{
  "_format": "hh-sol-artifact-1",
  "contractName": "Helth",
  "sourceName": "contracts/Health.sol",
  "abi": [
    {
      "inputs": [
        {
          "internalType": "contract PatientData",
          "name": "_PatientContract",
          "type": "address"
        }
      ],
      "stateMutability": "nonpayable",
      "type": "constructor"
    },
    {
      "inputs": [],
      "name": "ContractOwner",
      "outputs": [
        {
          "internalType": "address",
          "name": "",
          "type": "address"
        }
      ],
      "stateMutability": "view",
      "type": "function"
    },
    {
      "inputs": [],
      "name": "Patient",
      "outputs": [
        {
          "internalType": "contract PatientData",
          "name": "",
          "type": "address"
        }
      ],
      "stateMutability": "view",
      "type": "function"
    },
    {
      "inputs": [
        {
          "internalType": "address",
          "name": "_dataAnalyst",
          "type": "address"
        },
        {
          "internalType": "string",
          "name": "_name",
          "type": "string"
        },
        {
          "internalType": "uint256",
          "name": "_dataAnalystId",
          "type": "uint256"
        }
      ],
      "name": "addDataAnalyst",
      "outputs": [],
      "stateMutability": "nonpayable",
      "type": "function"
    },
    {
      "inputs": [
        {
          "internalType": "address",
          "name": "_doctor",
          "type": "address"
        },
        {
          "internalType": "string",
          "name": "_name",
          "type": "string"
        },
        {
          "internalType": "uint256",
          "name": "_age",
          "type": "uint256"
        },
        {
          "internalType": "uint256",
          "name": "_doctorId",
          "type": "uint256"
        },
        {
          "internalType": "uint256",
          "name": "_nid",
          "type": "uint256"
        }
      ],
      "name": "addDoctor",
      "outputs": [],
      "stateMutability": "nonpayable",
      "type": "function"
    },
    {
      "inputs": [
        {
          "internalType": "address",
          "name": "_foodIndusty",
          "type": "address"
        },
        {
          "internalType": "string",
          "name": "_name",
          "type": "string"
        },
        {
          "internalType": "uint256",
          "name": "_foodIndustyId",
          "type": "uint256"
        }
      ],
      "name": "addFoodIndusty",
      "outputs": [],
      "stateMutability": "nonpayable",
      "type": "function"
    },
    {
      "inputs": [
        {
          "internalType": "address",
          "name": "_hospital",
          "type": "address"
        },
        {
          "internalType": "string",
          "name": "_name",
          "type": "string"
        },
        {
          "internalType": "uint256",
          "name": "_hospitalId",
          "type": "uint256"
        }
      ],
      "name": "addHospital",
      "outputs": [],
      "stateMutability": "nonpayable",
      "type": "function"
    },
    {
      "inputs": [
        {
          "internalType": "address",
          "name": "_pharmaciest",
          "type": "address"
        },
        {
          "internalType": "string",
          "name": "_name",
          "type": "string"
        },
        {
          "internalType": "uint256",
          "name": "_pharmaciestId",
          "type": "uint256"
        }
      ],
      "name": "addPharmaciest",
      "outputs": [],
      "stateMutability": "nonpayable",
      "type": "function"
    },
    {
      "inputs": [
        {
          "internalType": "address",
          "name": "_pharmacy",
          "type": "address"
        },
        {
          "internalType": "string",
          "name": "_name",
          "type": "string"
        },
        {
          "internalType": "uint256",
          "name": "_pharmacyId",
          "type": "uint256"
        }
      ],
      "name": "addPharmacy",
      "outputs": [],
      "stateMutability": "nonpayable",
      "type": "function"
    },
    {
      "inputs": [
        {
          "internalType": "address",
          "name": "_pharmacyCompany",
          "type": "address"
        },
        {
          "internalType": "string",
          "name": "_name",
          "type": "string"
        },
        {
          "internalType": "uint256",
          "name": "_pharmacyCompanyId",
          "type": "uint256"
        }
      ],
      "name": "addPharmacyCompany",
      "outputs": [],
      "stateMutability": "nonpayable",
      "type": "function"
    },
    {
      "inputs": [],
      "name": "admin",
      "outputs": [
        {
          "internalType": "address",
          "name": "",
          "type": "address"
        }
      ],
      "stateMutability": "view",
      "type": "function"
    },
    {
      "inputs": [
        {
          "internalType": "uint256",
          "name": "",
          "type": "uint256"
        }
      ],
      "name": "allAddress",
      "outputs": [
        {
          "internalType": "address",
          "name": "",
          "type": "address"
        }
      ],
      "stateMutability": "view",
      "type": "function"
    },
    {
      "inputs": [
        {
          "internalType": "address",
          "name": "",
          "type": "address"
        }
      ],
      "name": "allDataAnalyst",
      "outputs": [
        {
          "internalType": "address",
          "name": "dataAnalyst",
          "type": "address"
        },
        {
          "internalType": "string",
          "name": "name",
          "type": "string"
        },
        {
          "internalType": "uint256",
          "name": "dataAnalystId",
          "type": "uint256"
        },
        {
          "internalType": "bool",
          "name": "isAdded",
          "type": "bool"
        },
        {
          "internalType": "bool",
          "name": "dataAccress",
          "type": "bool"
        }
      ],
      "stateMutability": "view",
      "type": "function"
    },
    {
      "inputs": [
        {
          "internalType": "uint256",
          "name": "",
          "type": "uint256"
        }
      ],
      "name": "allDataAnalystAddress",
      "outputs": [
        {
          "internalType": "address",
          "name": "",
          "type": "address"
        }
      ],
      "stateMutability": "view",
      "type": "function"
    },
    {
      "inputs": [
        {
          "internalType": "address",
          "name": "",
          "type": "address"
        }
      ],
      "name": "allDoctor",
      "outputs": [
        {
          "internalType": "address",
          "name": "doctor",
          "type": "address"
        },
        {
          "internalType": "string",
          "name": "name",
          "type": "string"
        },
        {
          "internalType": "uint256",
          "name": "age",
          "type": "uint256"
        },
        {
          "internalType": "uint256",
          "name": "doctorId",
          "type": "uint256"
        },
        {
          "internalType": "uint256",
          "name": "nid",
          "type": "uint256"
        },
        {
          "internalType": "bool",
          "name": "isAdded",
          "type": "bool"
        },
        {
          "internalType": "bool",
          "name": "dataAccress",
          "type": "bool"
        }
      ],
      "stateMutability": "view",
      "type": "function"
    },
    {
      "inputs": [
        {
          "internalType": "uint256",
          "name": "",
          "type": "uint256"
        }
      ],
      "name": "allDoctorAddress",
      "outputs": [
        {
          "internalType": "address",
          "name": "",
          "type": "address"
        }
      ],
      "stateMutability": "view",
      "type": "function"
    },
    {
      "inputs": [
        {
          "internalType": "address",
          "name": "",
          "type": "address"
        }
      ],
      "name": "allFoodIndusty",
      "outputs": [
        {
          "internalType": "address",
          "name": "foodIndusty",
          "type": "address"
        },
        {
          "internalType": "string",
          "name": "name",
          "type": "string"
        },
        {
          "internalType": "uint256",
          "name": "foodIndustyId",
          "type": "uint256"
        },
        {
          "internalType": "bool",
          "name": "isAdded",
          "type": "bool"
        },
        {
          "internalType": "bool",
          "name": "dataAccress",
          "type": "bool"
        }
      ],
      "stateMutability": "view",
      "type": "function"
    },
    {
      "inputs": [
        {
          "internalType": "uint256",
          "name": "",
          "type": "uint256"
        }
      ],
      "name": "allFoodIndustyAddress",
      "outputs": [
        {
          "internalType": "address",
          "name": "",
          "type": "address"
        }
      ],
      "stateMutability": "view",
      "type": "function"
    },
    {
      "inputs": [
        {
          "internalType": "address",
          "name": "",
          "type": "address"
        }
      ],
      "name": "allHospital",
      "outputs": [
        {
          "internalType": "address",
          "name": "hospital",
          "type": "address"
        },
        {
          "internalType": "string",
          "name": "name",
          "type": "string"
        },
        {
          "internalType": "uint256",
          "name": "hospitalId",
          "type": "uint256"
        },
        {
          "internalType": "bool",
          "name": "isAdded",
          "type": "bool"
        },
        {
          "internalType": "bool",
          "name": "dataAccress",
          "type": "bool"
        }
      ],
      "stateMutability": "view",
      "type": "function"
    },
    {
      "inputs": [
        {
          "internalType": "uint256",
          "name": "",
          "type": "uint256"
        }
      ],
      "name": "allHospitalAddress",
      "outputs": [
        {
          "internalType": "address",
          "name": "",
          "type": "address"
        }
      ],
      "stateMutability": "view",
      "type": "function"
    },
    {
      "inputs": [
        {
          "internalType": "address",
          "name": "",
          "type": "address"
        }
      ],
      "name": "allPharmaciest",
      "outputs": [
        {
          "internalType": "address",
          "name": "pharmaciest",
          "type": "address"
        },
        {
          "internalType": "string",
          "name": "name",
          "type": "string"
        },
        {
          "internalType": "uint256",
          "name": "pharmaciestId",
          "type": "uint256"
        },
        {
          "internalType": "bool",
          "name": "isAdded",
          "type": "bool"
        },
        {
          "internalType": "bool",
          "name": "dataAccress",
          "type": "bool"
        }
      ],
      "stateMutability": "view",
      "type": "function"
    },
    {
      "inputs": [
        {
          "internalType": "uint256",
          "name": "",
          "type": "uint256"
        }
      ],
      "name": "allPharmaciestAddress",
      "outputs": [
        {
          "internalType": "address",
          "name": "",
          "type": "address"
        }
      ],
      "stateMutability": "view",
      "type": "function"
    },
    {
      "inputs": [
        {
          "internalType": "address",
          "name": "",
          "type": "address"
        }
      ],
      "name": "allPharmacy",
      "outputs": [
        {
          "internalType": "address",
          "name": "pharmacy",
          "type": "address"
        },
        {
          "internalType": "string",
          "name": "name",
          "type": "string"
        },
        {
          "internalType": "uint256",
          "name": "pharmacyId",
          "type": "uint256"
        },
        {
          "internalType": "bool",
          "name": "isAdded",
          "type": "bool"
        },
        {
          "internalType": "bool",
          "name": "dataAccress",
          "type": "bool"
        }
      ],
      "stateMutability": "view",
      "type": "function"
    },
    {
      "inputs": [
        {
          "internalType": "uint256",
          "name": "",
          "type": "uint256"
        }
      ],
      "name": "allPharmacyAddress",
      "outputs": [
        {
          "internalType": "address",
          "name": "",
          "type": "address"
        }
      ],
      "stateMutability": "view",
      "type": "function"
    },
    {
      "inputs": [
        {
          "internalType": "address",
          "name": "",
          "type": "address"
        }
      ],
      "name": "allPharmacyCompany",
      "outputs": [
        {
          "internalType": "address",
          "name": "pharmacyCompany",
          "type": "address"
        },
        {
          "internalType": "string",
          "name": "name",
          "type": "string"
        },
        {
          "internalType": "uint256",
          "name": "pharmacyCompanyId",
          "type": "uint256"
        },
        {
          "internalType": "bool",
          "name": "isAdded",
          "type": "bool"
        },
        {
          "internalType": "bool",
          "name": "dataAccress",
          "type": "bool"
        }
      ],
      "stateMutability": "view",
      "type": "function"
    },
    {
      "inputs": [
        {
          "internalType": "uint256",
          "name": "",
          "type": "uint256"
        }
      ],
      "name": "allPharmacyCompanyAddress",
      "outputs": [
        {
          "internalType": "address",
          "name": "",
          "type": "address"
        }
      ],
      "stateMutability": "view",
      "type": "function"
    },
    {
      "inputs": [
        {
          "internalType": "address",
          "name": "_dataAnalyst",
          "type": "address"
        }
      ],
      "name": "viewDataAnalyst",
      "outputs": [
        {
          "internalType": "address",
          "name": "",
          "type": "address"
        },
        {
          "internalType": "string",
          "name": "",
          "type": "string"
        },
        {
          "internalType": "uint256",
          "name": "",
          "type": "uint256"
        },
        {
          "internalType": "bool",
          "name": "",
          "type": "bool"
        }
      ],
      "stateMutability": "view",
      "type": "function"
    },
    {
      "inputs": [
        {
          "internalType": "address",
          "name": "_doctor",
          "type": "address"
        }
      ],
      "name": "viewDoctor",
      "outputs": [
        {
          "internalType": "address",
          "name": "",
          "type": "address"
        },
        {
          "internalType": "string",
          "name": "",
          "type": "string"
        },
        {
          "internalType": "uint256",
          "name": "",
          "type": "uint256"
        },
        {
          "internalType": "uint256",
          "name": "",
          "type": "uint256"
        },
        {
          "internalType": "uint256",
          "name": "",
          "type": "uint256"
        },
        {
          "internalType": "bool",
          "name": "",
          "type": "bool"
        }
      ],
      "stateMutability": "view",
      "type": "function"
    },
    {
      "inputs": [
        {
          "internalType": "address",
          "name": "_foodIndusty",
          "type": "address"
        }
      ],
      "name": "viewFoodIndusty",
      "outputs": [
        {
          "internalType": "address",
          "name": "",
          "type": "address"
        },
        {
          "internalType": "string",
          "name": "",
          "type": "string"
        },
        {
          "internalType": "uint256",
          "name": "",
          "type": "uint256"
        },
        {
          "internalType": "bool",
          "name": "",
          "type": "bool"
        }
      ],
      "stateMutability": "view",
      "type": "function"
    },
    {
      "inputs": [
        {
          "internalType": "address",
          "name": "_hospital",
          "type": "address"
        }
      ],
      "name": "viewHospital",
      "outputs": [
        {
          "internalType": "address",
          "name": "",
          "type": "address"
        },
        {
          "internalType": "string",
          "name": "",
          "type": "string"
        },
        {
          "internalType": "uint256",
          "name": "",
          "type": "uint256"
        },
        {
          "internalType": "bool",
          "name": "",
          "type": "bool"
        }
      ],
      "stateMutability": "view",
      "type": "function"
    },
    {
      "inputs": [
        {
          "internalType": "address",
          "name": "_pharmaciest",
          "type": "address"
        }
      ],
      "name": "viewPharmaciest",
      "outputs": [
        {
          "internalType": "address",
          "name": "",
          "type": "address"
        },
        {
          "internalType": "string",
          "name": "",
          "type": "string"
        },
        {
          "internalType": "uint256",
          "name": "",
          "type": "uint256"
        },
        {
          "internalType": "bool",
          "name": "",
          "type": "bool"
        }
      ],
      "stateMutability": "view",
      "type": "function"
    },
    {
      "inputs": [
        {
          "internalType": "address",
          "name": "_pharmacy",
          "type": "address"
        }
      ],
      "name": "viewPharmacy",
      "outputs": [
        {
          "internalType": "address",
          "name": "",
          "type": "address"
        },
        {
          "internalType": "string",
          "name": "",
          "type": "string"
        },
        {
          "internalType": "uint256",
          "name": "",
          "type": "uint256"
        },
        {
          "internalType": "bool",
          "name": "",
          "type": "bool"
        }
      ],
      "stateMutability": "view",
      "type": "function"
    },
    {
      "inputs": [
        {
          "internalType": "address",
          "name": "_pharmacyCompany",
          "type": "address"
        }
      ],
      "name": "viewPharmacyCompany",
      "outputs": [
        {
          "internalType": "address",
          "name": "",
          "type": "address"
        },
        {
          "internalType": "string",
          "name": "",
          "type": "string"
        },
        {
          "internalType": "uint256",
          "name": "",
          "type": "uint256"
        },
        {
          "internalType": "bool",
          "name": "",
          "type": "bool"
        }
      ],
      "stateMutability": "view",
      "type": "function"
    }
  ],
  "bytecode": "0x60806040523480156200001157600080fd5b50604051620030803803806200308083398181016040528101906200003791906200013d565b806000806101000a81548173ffffffffffffffffffffffffffffffffffffffff021916908373ffffffffffffffffffffffffffffffffffffffff16021790555033600160006101000a81548173ffffffffffffffffffffffffffffffffffffffff021916908373ffffffffffffffffffffffffffffffffffffffff160217905550506200016f565b600080fd5b600073ffffffffffffffffffffffffffffffffffffffff82169050919050565b6000620000f182620000c4565b9050919050565b60006200010582620000e4565b9050919050565b6200011781620000f8565b81146200012357600080fd5b50565b60008151905062000137816200010c565b92915050565b600060208284031215620001565762000155620000bf565b5b6000620001668482850162000126565b91505092915050565b612f01806200017f6000396000f3fe608060405234801561001057600080fd5b50600436106101f05760003560e01c806386e62dc81161010f578063a9cee49a116100a2578063e8a5733c11610071578063e8a5733c146106e2578063ee7df0b4146106fe578063f851a4401461071a578063fb57baff14610738576101f0565b8063a9cee49a14610628578063ac40c9a81461065b578063b03a985d14610679578063cd32d81b146106ae576101f0565b80639a8243c1116100de5780639a8243c114610590578063a7907823146105ac578063a865eacd146105dc578063a8cef27a146105f8576101f0565b806386e62dc8146104da5780638e87d2f91461051057806394f233d2146105405780639605f44414610574576101f0565b80635a63fbc9116101875780636bd16a33116101565780636bd16a331461042757806372f96ccc1461045a5780637645dea41461048e5780637dd84895146104aa576101f0565b80635a63fbc9146103715780635d7a1b271461038f57806368def1b6146103c35780636b75d055146103f3576101f0565b80634798c711116101c35780634798c711146102a757806352e5904e146102da578063574eb6ba1461030e578063590ce34d14610341576101f0565b80630eb4ce37146101f55780631835916614610228578063325b5c791461025b5780634189f7e61461028b575b600080fd5b61020f600480360381019061020a9190612572565b610768565b60405161021f9493929190612672565b60405180910390f35b610242600480360381019061023d9190612572565b61088e565b6040516102529493929190612672565b60405180910390f35b610275600480360381019061027091906126ea565b6109b4565b6040516102829190612717565b60405180910390f35b6102a560048036038101906102a09190612867565b6109f3565b005b6102c160048036038101906102bc9190612572565b610bb0565b6040516102d19493929190612672565b60405180910390f35b6102f460048036038101906102ef9190612572565b610cd6565b6040516103059594939291906128d6565b60405180910390f35b61032860048036038101906103239190612572565b610dce565b6040516103389493929190612672565b60405180910390f35b61035b600480360381019061035691906126ea565b610ef4565b6040516103689190612717565b60405180910390f35b610379610f33565b6040516103869190612717565b60405180910390f35b6103a960048036038101906103a49190612572565b610f59565b6040516103ba9594939291906128d6565b60405180910390f35b6103dd60048036038101906103d891906126ea565b611051565b6040516103ea9190612717565b60405180910390f35b61040d60048036038101906104089190612572565b611090565b60405161041e9594939291906128d6565b60405180910390f35b610441600480360381019061043c9190612572565b611188565b6040516104519493929190612672565b60405180910390f35b610474600480360381019061046f9190612572565b6112ae565b6040516104859594939291906128d6565b60405180910390f35b6104a860048036038101906104a39190612930565b6113a6565b005b6104c460048036038101906104bf91906126ea565b611577565b6040516104d19190612717565b60405180910390f35b6104f460048036038101906104ef9190612572565b6115b6565b60405161050797969594939291906129c7565b60405180910390f35b61052a600480360381019061052591906126ea565b6116ba565b6040516105379190612717565b60405180910390f35b61055a60048036038101906105559190612572565b6116f9565b60405161056b9594939291906128d6565b60405180910390f35b61058e60048036038101906105899190612867565b6117f1565b005b6105aa60048036038101906105a59190612867565b6119ae565b005b6105c660048036038101906105c191906126ea565b611b6b565b6040516105d39190612717565b60405180910390f35b6105f660048036038101906105f19190612867565b611baa565b005b610612600480360381019061060d91906126ea565b611d67565b60405161061f9190612717565b60405180910390f35b610642600480360381019061063d9190612572565b611da6565b6040516106529493929190612672565b60405180910390f35b610663611ecc565b6040516106709190612a9c565b60405180910390f35b610693600480360381019061068e9190612572565b611ef0565b6040516106a596959493929190612ab7565b60405180910390f35b6106c860048036038101906106c39190612572565b612029565b6040516106d99594939291906128d6565b60405180910390f35b6106fc60048036038101906106f79190612867565b612121565b005b61071860048036038101906107139190612867565b6122de565b005b61072261249b565b60405161072f9190612717565b60405180910390f35b610752600480360381019061074d91906126ea565b6124c1565b60405161075f9190612717565b60405180910390f35b600060606000806000600760008773ffffffffffffffffffffffffffffffffffffffff1673ffffffffffffffffffffffffffffffffffffffff16815260200190815260200160002090508060000160009054906101000a900473ffffffffffffffffffffffffffffffffffffffff168160010182600201548360030160009054906101000a900460ff168280546107fe90612b4e565b80601f016020809104026020016040519081016040528092919081815260200182805461082a90612b4e565b80156108775780601f1061084c57610100808354040283529160200191610877565b820191906000526020600020905b81548152906001019060200180831161085a57829003601f168201915b505050505092509450945094509450509193509193565b600060606000806000600560008773ffffffffffffffffffffffffffffffffffffffff1673ffffffffffffffffffffffffffffffffffffffff16815260200190815260200160002090508060000160009054906101000a900473ffffffffffffffffffffffffffffffffffffffff168160010182600201548360030160009054906101000a900460ff1682805461092490612b4e565b80601f016020809104026020016040519081016040528092919081815260200182805461095090612b4e565b801561099d5780601f106109725761010080835404028352916020019161099d565b820191906000526020600020905b81548152906001019060200180831161098057829003601f168201915b505050505092509450945094509450509193509193565b600d81815481106109c457600080fd5b906000526020600020016000915054906101000a900473ffffffffffffffffffffffffffffffffffffffff1681565b60001515600560008573ffffffffffffffffffffffffffffffffffffffff1673ffffffffffffffffffffffffffffffffffffffff16815260200190815260200160002060030160009054906101000a900460ff16151514610a89576040517f08c379a0000000000000000000000000000000000000000000000000000000008152600401610a8090612bcb565b60405180910390fd5b6000600560008573ffffffffffffffffffffffffffffffffffffffff1673ffffffffffffffffffffffffffffffffffffffff1681526020019081526020016000209050838160000160006101000a81548173ffffffffffffffffffffffffffffffffffffffff021916908373ffffffffffffffffffffffffffffffffffffffff16021790555082816001019081610b209190612d8d565b5081816002018190555060018160030160006101000a81548160ff021916908315150217905550600c849080600181540180825580915050600190039060005260206000200160009091909190916101000a81548173ffffffffffffffffffffffffffffffffffffffff021916908373ffffffffffffffffffffffffffffffffffffffff16021790555050505050565b600060606000806000600860008773ffffffffffffffffffffffffffffffffffffffff1673ffffffffffffffffffffffffffffffffffffffff16815260200190815260200160002090508060000160009054906101000a900473ffffffffffffffffffffffffffffffffffffffff168160010182600201548360030160009054906101000a900460ff16828054610c4690612b4e565b80601f0160208091040260200160405190810160405280929190818152602001828054610c7290612b4e565b8015610cbf5780601f10610c9457610100808354040283529160200191610cbf565b820191906000526020600020905b815481529060010190602001808311610ca257829003601f168201915b505050505092509450945094509450509193509193565b60086020528060005260406000206000915090508060000160009054906101000a900473ffffffffffffffffffffffffffffffffffffffff1690806001018054610d1f90612b4e565b80601f0160208091040260200160405190810160405280929190818152602001828054610d4b90612b4e565b8015610d985780601f10610d6d57610100808354040283529160200191610d98565b820191906000526020600020905b815481529060010190602001808311610d7b57829003601f168201915b5050505050908060020154908060030160009054906101000a900460ff16908060030160019054906101000a900460ff16905085565b600060606000806000600360008773ffffffffffffffffffffffffffffffffffffffff1673ffffffffffffffffffffffffffffffffffffffff16815260200190815260200160002090508060000160009054906101000a900473ffffffffffffffffffffffffffffffffffffffff168160010182600201548360030160009054906101000a900460ff16828054610e6490612b4e565b80601f0160208091040260200160405190810160405280929190818152602001828054610e9090612b4e565b8015610edd5780601f10610eb257610100808354040283529160200191610edd565b820191906000526020600020905b815481529060010190602001808311610ec057829003601f168201915b505050505092509450945094509450509193509193565b600c8181548110610f0457600080fd5b906000526020600020016000915054906101000a900473ffffffffffffffffffffffffffffffffffffffff1681565b601160009054906101000a900473ffffffffffffffffffffffffffffffffffffffff1681565b60046020528060005260406000206000915090508060000160009054906101000a900473ffffffffffffffffffffffffffffffffffffffff1690806001018054610fa290612b4e565b80601f0160208091040260200160405190810160405280929190818152602001828054610fce90612b4e565b801561101b5780601f10610ff05761010080835404028352916020019161101b565b820191906000526020600020905b815481529060010190602001808311610ffe57829003601f168201915b5050505050908060020154908060030160009054906101000a900460ff16908060030160019054906101000a900460ff16905085565b600b818154811061106157600080fd5b906000526020600020016000915054906101000a900473ffffffffffffffffffffffffffffffffffffffff1681565b60036020528060005260406000206000915090508060000160009054906101000a900473ffffffffffffffffffffffffffffffffffffffff16908060010180546110d990612b4e565b80601f016020809104026020016040519081016040528092919081815260200182805461110590612b4e565b80156111525780601f1061112757610100808354040283529160200191611152565b820191906000526020600020905b81548152906001019060200180831161113557829003601f168201915b5050505050908060020154908060030160009054906101000a900460ff16908060030160019054906101000a900460ff16905085565b600060606000806000600660008773ffffffffffffffffffffffffffffffffffffffff1673ffffffffffffffffffffffffffffffffffffffff16815260200190815260200160002090508060000160009054906101000a900473ffffffffffffffffffffffffffffffffffffffff168160010182600201548360030160009054906101000a900460ff1682805461121e90612b4e565b80601f016020809104026020016040519081016040528092919081815260200182805461124a90612b4e565b80156112975780601f1061126c57610100808354040283529160200191611297565b820191906000526020600020905b81548152906001019060200180831161127a57829003601f168201915b505050505092509450945094509450509193509193565b60076020528060005260406000206000915090508060000160009054906101000a900473ffffffffffffffffffffffffffffffffffffffff16908060010180546112f790612b4e565b80601f016020809104026020016040519081016040528092919081815260200182805461132390612b4e565b80156113705780601f1061134557610100808354040283529160200191611370565b820191906000526020600020905b81548152906001019060200180831161135357829003601f168201915b5050505050908060020154908060030160009054906101000a900460ff16908060030160019054906101000a900460ff16905085565b60001515600260008773ffffffffffffffffffffffffffffffffffffffff1673ffffffffffffffffffffffffffffffffffffffff16815260200190815260200160002060050160009054906101000a900460ff1615151461143c576040517f08c379a000000000000000000000000000000000000000000000000000000000815260040161143390612bcb565b60405180910390fd5b6000600260008773ffffffffffffffffffffffffffffffffffffffff1673ffffffffffffffffffffffffffffffffffffffff1681526020019081526020016000209050858160000160006101000a81548173ffffffffffffffffffffffffffffffffffffffff021916908373ffffffffffffffffffffffffffffffffffffffff160217905550848160010190816114d39190612d8d565b5083816002018190555082816003018190555081816004018190555060018160050160006101000a81548160ff0219169083151502179055506009869080600181540180825580915050600190039060005260206000200160009091909190916101000a81548173ffffffffffffffffffffffffffffffffffffffff021916908373ffffffffffffffffffffffffffffffffffffffff160217905550505050505050565b600f818154811061158757600080fd5b906000526020600020016000915054906101000a900473ffffffffffffffffffffffffffffffffffffffff1681565b60026020528060005260406000206000915090508060000160009054906101000a900473ffffffffffffffffffffffffffffffffffffffff16908060010180546115ff90612b4e565b80601f016020809104026020016040519081016040528092919081815260200182805461162b90612b4e565b80156116785780601f1061164d57610100808354040283529160200191611678565b820191906000526020600020905b81548152906001019060200180831161165b57829003601f168201915b5050505050908060020154908060030154908060040154908060050160009054906101000a900460ff16908060050160019054906101000a900460ff16905087565b600a81815481106116ca57600080fd5b906000526020600020016000915054906101000a900473ffffffffffffffffffffffffffffffffffffffff1681565b60056020528060005260406000206000915090508060000160009054906101000a900473ffffffffffffffffffffffffffffffffffffffff169080600101805461174290612b4e565b80601f016020809104026020016040519081016040528092919081815260200182805461176e90612b4e565b80156117bb5780601f10611790576101008083540402835291602001916117bb565b820191906000526020600020905b81548152906001019060200180831161179e57829003601f168201915b5050505050908060020154908060030160009054906101000a900460ff16908060030160019054906101000a900460ff16905085565b60001515600760008573ffffffffffffffffffffffffffffffffffffffff1673ffffffffffffffffffffffffffffffffffffffff16815260200190815260200160002060030160009054906101000a900460ff16151514611887576040517f08c379a000000000000000000000000000000000000000000000000000000000815260040161187e90612bcb565b60405180910390fd5b6000600760008573ffffffffffffffffffffffffffffffffffffffff1673ffffffffffffffffffffffffffffffffffffffff1681526020019081526020016000209050838160000160006101000a81548173ffffffffffffffffffffffffffffffffffffffff021916908373ffffffffffffffffffffffffffffffffffffffff1602179055508281600101908161191e9190612d8d565b5081816002018190555060018160030160006101000a81548160ff021916908315150217905550600e849080600181540180825580915050600190039060005260206000200160009091909190916101000a81548173ffffffffffffffffffffffffffffffffffffffff021916908373ffffffffffffffffffffffffffffffffffffffff16021790555050505050565b60001515600660008573ffffffffffffffffffffffffffffffffffffffff1673ffffffffffffffffffffffffffffffffffffffff16815260200190815260200160002060030160009054906101000a900460ff16151514611a44576040517f08c379a0000000000000000000000000000000000000000000000000000000008152600401611a3b90612eab565b60405180910390fd5b6000600660008573ffffffffffffffffffffffffffffffffffffffff1673ffffffffffffffffffffffffffffffffffffffff1681526020019081526020016000209050838160000160006101000a81548173ffffffffffffffffffffffffffffffffffffffff021916908373ffffffffffffffffffffffffffffffffffffffff16021790555082816001019081611adb9190612d8d565b5081816002018190555060018160030160006101000a81548160ff021916908315150217905550600d849080600181540180825580915050600190039060005260206000200160009091909190916101000a81548173ffffffffffffffffffffffffffffffffffffffff021916908373ffffffffffffffffffffffffffffffffffffffff16021790555050505050565b600e8181548110611b7b57600080fd5b906000526020600020016000915054906101000a900473ffffffffffffffffffffffffffffffffffffffff1681565b60001515600360008573ffffffffffffffffffffffffffffffffffffffff1673ffffffffffffffffffffffffffffffffffffffff16815260200190815260200160002060030160009054906101000a900460ff16151514611c40576040517f08c379a0000000000000000000000000000000000000000000000000000000008152600401611c3790612bcb565b60405180910390fd5b6000600360008573ffffffffffffffffffffffffffffffffffffffff1673ffffffffffffffffffffffffffffffffffffffff1681526020019081526020016000209050838160000160006101000a81548173ffffffffffffffffffffffffffffffffffffffff021916908373ffffffffffffffffffffffffffffffffffffffff16021790555082816001019081611cd79190612d8d565b5081816002018190555060018160030160006101000a81548160ff021916908315150217905550600a849080600181540180825580915050600190039060005260206000200160009091909190916101000a81548173ffffffffffffffffffffffffffffffffffffffff021916908373ffffffffffffffffffffffffffffffffffffffff16021790555050505050565b60108181548110611d7757600080fd5b906000526020600020016000915054906101000a900473ffffffffffffffffffffffffffffffffffffffff1681565b600060606000806000600460008773ffffffffffffffffffffffffffffffffffffffff1673ffffffffffffffffffffffffffffffffffffffff16815260200190815260200160002090508060000160009054906101000a900473ffffffffffffffffffffffffffffffffffffffff168160010182600201548360030160009054906101000a900460ff16828054611e3c90612b4e565b80601f0160208091040260200160405190810160405280929190818152602001828054611e6890612b4e565b8015611eb55780601f10611e8a57610100808354040283529160200191611eb5565b820191906000526020600020905b815481529060010190602001808311611e9857829003601f168201915b505050505092509450945094509450509193509193565b60008054906101000a900473ffffffffffffffffffffffffffffffffffffffff1681565b600060606000806000806000600260008973ffffffffffffffffffffffffffffffffffffffff1673ffffffffffffffffffffffffffffffffffffffff16815260200190815260200160002090508060000160009054906101000a900473ffffffffffffffffffffffffffffffffffffffff16816001018260020154836003015484600401548560050160009054906101000a900460ff16848054611f9390612b4e565b80601f0160208091040260200160405190810160405280929190818152602001828054611fbf90612b4e565b801561200c5780601f10611fe15761010080835404028352916020019161200c565b820191906000526020600020905b815481529060010190602001808311611fef57829003601f168201915b505050505094509650965096509650965096505091939550919395565b60066020528060005260406000206000915090508060000160009054906101000a900473ffffffffffffffffffffffffffffffffffffffff169080600101805461207290612b4e565b80601f016020809104026020016040519081016040528092919081815260200182805461209e90612b4e565b80156120eb5780601f106120c0576101008083540402835291602001916120eb565b820191906000526020600020905b8154815290600101906020018083116120ce57829003601f168201915b5050505050908060020154908060030160009054906101000a900460ff16908060030160019054906101000a900460ff16905085565b60001515600860008573ffffffffffffffffffffffffffffffffffffffff1673ffffffffffffffffffffffffffffffffffffffff16815260200190815260200160002060030160009054906101000a900460ff161515146121b7576040517f08c379a00000000000000000000000000000000000000000000000000000000081526004016121ae90612bcb565b60405180910390fd5b6000600860008573ffffffffffffffffffffffffffffffffffffffff1673ffffffffffffffffffffffffffffffffffffffff1681526020019081526020016000209050838160000160006101000a81548173ffffffffffffffffffffffffffffffffffffffff021916908373ffffffffffffffffffffffffffffffffffffffff1602179055508281600101908161224e9190612d8d565b5081816002018190555060018160030160006101000a81548160ff021916908315150217905550600f849080600181540180825580915050600190039060005260206000200160009091909190916101000a81548173ffffffffffffffffffffffffffffffffffffffff021916908373ffffffffffffffffffffffffffffffffffffffff16021790555050505050565b60001515600460008573ffffffffffffffffffffffffffffffffffffffff1673ffffffffffffffffffffffffffffffffffffffff16815260200190815260200160002060030160009054906101000a900460ff16151514612374576040517f08c379a000000000000000000000000000000000000000000000000000000000815260040161236b90612bcb565b60405180910390fd5b6000600460008573ffffffffffffffffffffffffffffffffffffffff1673ffffffffffffffffffffffffffffffffffffffff1681526020019081526020016000209050838160000160006101000a81548173ffffffffffffffffffffffffffffffffffffffff021916908373ffffffffffffffffffffffffffffffffffffffff1602179055508281600101908161240b9190612d8d565b5081816002018190555060018160030160006101000a81548160ff021916908315150217905550600b849080600181540180825580915050600190039060005260206000200160009091909190916101000a81548173ffffffffffffffffffffffffffffffffffffffff021916908373ffffffffffffffffffffffffffffffffffffffff16021790555050505050565b600160009054906101000a900473ffffffffffffffffffffffffffffffffffffffff1681565b600981815481106124d157600080fd5b906000526020600020016000915054906101000a900473ffffffffffffffffffffffffffffffffffffffff1681565b6000604051905090565b600080fd5b600080fd5b600073ffffffffffffffffffffffffffffffffffffffff82169050919050565b600061253f82612514565b9050919050565b61254f81612534565b811461255a57600080fd5b50565b60008135905061256c81612546565b92915050565b6000602082840312156125885761258761250a565b5b60006125968482850161255d565b91505092915050565b6125a881612534565b82525050565b600081519050919050565b600082825260208201905092915050565b60005b838110156125e85780820151818401526020810190506125cd565b60008484015250505050565b6000601f19601f8301169050919050565b6000612610826125ae565b61261a81856125b9565b935061262a8185602086016125ca565b612633816125f4565b840191505092915050565b6000819050919050565b6126518161263e565b82525050565b60008115159050919050565b61266c81612657565b82525050565b6000608082019050612687600083018761259f565b81810360208301526126998186612605565b90506126a86040830185612648565b6126b56060830184612663565b95945050505050565b6126c78161263e565b81146126d257600080fd5b50565b6000813590506126e4816126be565b92915050565b600060208284031215612700576126ff61250a565b5b600061270e848285016126d5565b91505092915050565b600060208201905061272c600083018461259f565b92915050565b600080fd5b600080fd5b7f4e487b7100000000000000000000000000000000000000000000000000000000600052604160045260246000fd5b612774826125f4565b810181811067ffffffffffffffff821117156127935761279261273c565b5b80604052505050565b60006127a6612500565b90506127b2828261276b565b919050565b600067ffffffffffffffff8211156127d2576127d161273c565b5b6127db826125f4565b9050602081019050919050565b82818337600083830152505050565b600061280a612805846127b7565b61279c565b90508281526020810184848401111561282657612825612737565b5b6128318482856127e8565b509392505050565b600082601f83011261284e5761284d612732565b5b813561285e8482602086016127f7565b91505092915050565b6000806000606084860312156128805761287f61250a565b5b600061288e8682870161255d565b935050602084013567ffffffffffffffff8111156128af576128ae61250f565b5b6128bb86828701612839565b92505060406128cc868287016126d5565b9150509250925092565b600060a0820190506128eb600083018861259f565b81810360208301526128fd8187612605565b905061290c6040830186612648565b6129196060830185612663565b6129266080830184612663565b9695505050505050565b600080600080600060a0868803121561294c5761294b61250a565b5b600061295a8882890161255d565b955050602086013567ffffffffffffffff81111561297b5761297a61250f565b5b61298788828901612839565b9450506040612998888289016126d5565b93505060606129a9888289016126d5565b92505060806129ba888289016126d5565b9150509295509295909350565b600060e0820190506129dc600083018a61259f565b81810360208301526129ee8189612605565b90506129fd6040830188612648565b612a0a6060830187612648565b612a176080830186612648565b612a2460a0830185612663565b612a3160c0830184612663565b98975050505050505050565b6000819050919050565b6000612a62612a5d612a5884612514565b612a3d565b612514565b9050919050565b6000612a7482612a47565b9050919050565b6000612a8682612a69565b9050919050565b612a9681612a7b565b82525050565b6000602082019050612ab16000830184612a8d565b92915050565b600060c082019050612acc600083018961259f565b8181036020830152612ade8188612605565b9050612aed6040830187612648565b612afa6060830186612648565b612b076080830185612648565b612b1460a0830184612663565b979650505050505050565b7f4e487b7100000000000000000000000000000000000000000000000000000000600052602260045260246000fd5b60006002820490506001821680612b6657607f821691505b602082108103612b7957612b78612b1f565b5b50919050565b7f796f7520616c726561647920616464656420796f757273656c66000000000000600082015250565b6000612bb5601a836125b9565b9150612bc082612b7f565b602082019050919050565b60006020820190508181036000830152612be481612ba8565b9050919050565b60008190508160005260206000209050919050565b60006020601f8301049050919050565b600082821b905092915050565b600060088302612c4d7fffffffffffffffffffffffffffffffffffffffffffffffffffffffffffffffff82612c10565b612c578683612c10565b95508019841693508086168417925050509392505050565b6000612c8a612c85612c808461263e565b612a3d565b61263e565b9050919050565b6000819050919050565b612ca483612c6f565b612cb8612cb082612c91565b848454612c1d565b825550505050565b600090565b612ccd612cc0565b612cd8818484612c9b565b505050565b5b81811015612cfc57612cf1600082612cc5565b600181019050612cde565b5050565b601f821115612d4157612d1281612beb565b612d1b84612c00565b81016020851015612d2a578190505b612d3e612d3685612c00565b830182612cdd565b50505b505050565b600082821c905092915050565b6000612d6460001984600802612d46565b1980831691505092915050565b6000612d7d8383612d53565b9150826002028217905092915050565b612d96826125ae565b67ffffffffffffffff811115612daf57612dae61273c565b5b612db98254612b4e565b612dc4828285612d00565b600060209050601f831160018114612df75760008415612de5578287015190505b612def8582612d71565b865550612e57565b601f198416612e0586612beb565b60005b82811015612e2d57848901518255600182019150602085019450602081019050612e08565b86831015612e4a5784890151612e46601f891682612d53565b8355505b6001600288020188555050505b505050505050565b7f796f7520616c72656164792063726561746520796f75722070726f66696c6500600082015250565b6000612e95601f836125b9565b9150612ea082612e5f565b602082019050919050565b60006020820190508181036000830152612ec481612e88565b905091905056fea26469706673582212206107d337b2d4f0a7899fb81cd0a5e2f4fa9a22b967ec5df239c0d710606bc2a764736f6c63430008110033",
  "linkReferences": {},
  "deployedLinkReferences": {}
}