{
  "_format": "hh-sol-artifact-1",
  "contractName": "Helth",
  "sourceName": "contracts/Health.sol",
  "abi": [
    {
      "inputs": [],
      "stateMutability": "nonpayable",
      "type": "constructor"
    },
    {
      "inputs": [
        {
          "internalType": "address",
          "name": "",
          "type": "address"
        },
        {
          "internalType": "address",
          "name": "",
          "type": "address"
        }
      ],
      "name": "accessList",
      "outputs": [
        {
          "internalType": "bool",
          "name": "",
          "type": "bool"
        }
      ],
      "stateMutability": "view",
      "type": "function"
    },
    {
      "inputs": [
        {
          "internalType": "address",
          "name": "_issuerAddress",
          "type": "address"
        },
        {
          "internalType": "string",
          "name": "_credentialType",
          "type": "string"
        },
        {
          "internalType": "string",
          "name": "_credentialIssuer",
          "type": "string"
        },
        {
          "internalType": "string",
          "name": "_credentialValue",
          "type": "string"
        },
        {
          "internalType": "string",
          "name": "_dateIssued",
          "type": "string"
        }
      ],
      "name": "addCredential",
      "outputs": [],
      "stateMutability": "nonpayable",
      "type": "function"
    },
    {
      "inputs": [
        {
          "internalType": "address",
          "name": "_dataAnalyst",
          "type": "address"
        },
        {
          "internalType": "string",
          "name": "_name",
          "type": "string"
        },
        {
          "internalType": "uint256",
          "name": "_analystId",
          "type": "uint256"
        }
      ],
      "name": "addDataAnalyst",
      "outputs": [],
      "stateMutability": "nonpayable",
      "type": "function"
    },
    {
      "inputs": [
        {
          "internalType": "address",
          "name": "_doctor",
          "type": "address"
        },
        {
          "internalType": "string",
          "name": "_name",
          "type": "string"
        },
        {
          "internalType": "uint256",
          "name": "_doctorId",
          "type": "uint256"
        }
      ],
      "name": "addDoctor",
      "outputs": [],
      "stateMutability": "nonpayable",
      "type": "function"
    },
    {
      "inputs": [
        {
          "internalType": "address",
          "name": "_foodIndusty",
          "type": "address"
        },
        {
          "internalType": "string",
          "name": "_name",
          "type": "string"
        },
        {
          "internalType": "uint256",
          "name": "_foodIndustyId",
          "type": "uint256"
        }
      ],
      "name": "addFoodIndusty",
      "outputs": [],
      "stateMutability": "nonpayable",
      "type": "function"
    },
    {
      "inputs": [
        {
          "internalType": "address",
          "name": "_hospital",
          "type": "address"
        },
        {
          "internalType": "string",
          "name": "_name",
          "type": "string"
        },
        {
          "internalType": "uint256",
          "name": "_hospitalId",
          "type": "uint256"
        }
      ],
      "name": "addHospital",
      "outputs": [],
      "stateMutability": "nonpayable",
      "type": "function"
    },
    {
      "inputs": [
        {
          "internalType": "address",
          "name": "_patient",
          "type": "address"
        },
        {
          "internalType": "string",
          "name": "_name",
          "type": "string"
        },
        {
          "internalType": "uint256",
          "name": "_age",
          "type": "uint256"
        },
        {
          "internalType": "uint256",
          "name": "_patientId",
          "type": "uint256"
        },
        {
          "internalType": "string",
          "name": "_gender",
          "type": "string"
        },
        {
          "internalType": "uint256",
          "name": "_birthDay",
          "type": "uint256"
        },
        {
          "internalType": "string",
          "name": "_bloodGroup",
          "type": "string"
        },
        {
          "internalType": "uint256",
          "name": "_nid",
          "type": "uint256"
        }
      ],
      "name": "addPatient",
      "outputs": [],
      "stateMutability": "nonpayable",
      "type": "function"
    },
    {
      "inputs": [
        {
          "internalType": "address",
          "name": "_pharmaciest",
          "type": "address"
        },
        {
          "internalType": "string",
          "name": "_name",
          "type": "string"
        },
        {
          "internalType": "uint256",
          "name": "_pharmaciestId",
          "type": "uint256"
        }
      ],
      "name": "addPharmaciest",
      "outputs": [],
      "stateMutability": "nonpayable",
      "type": "function"
    },
    {
      "inputs": [
        {
          "internalType": "address",
          "name": "_pharmacy",
          "type": "address"
        },
        {
          "internalType": "string",
          "name": "_name",
          "type": "string"
        },
        {
          "internalType": "uint256",
          "name": "_pharmacyId",
          "type": "uint256"
        }
      ],
      "name": "addPharmacy",
      "outputs": [],
      "stateMutability": "nonpayable",
      "type": "function"
    },
    {
      "inputs": [
        {
          "internalType": "address",
          "name": "_pharmacyCompany",
          "type": "address"
        },
        {
          "internalType": "string",
          "name": "_name",
          "type": "string"
        },
        {
          "internalType": "uint256",
          "name": "_companyId",
          "type": "uint256"
        }
      ],
      "name": "addPharmacyCompany",
      "outputs": [],
      "stateMutability": "nonpayable",
      "type": "function"
    },
    {
      "inputs": [
        {
          "internalType": "address",
          "name": "",
          "type": "address"
        }
      ],
      "name": "allCredential",
      "outputs": [
        {
          "internalType": "address",
          "name": "issuerAddress",
          "type": "address"
        },
        {
          "internalType": "string",
          "name": "credentialType",
          "type": "string"
        },
        {
          "internalType": "string",
          "name": "credentialIssuer",
          "type": "string"
        },
        {
          "internalType": "string",
          "name": "credentialValue",
          "type": "string"
        },
        {
          "internalType": "string",
          "name": "dateIssued",
          "type": "string"
        },
        {
          "internalType": "bool",
          "name": "isAdded",
          "type": "bool"
        },
        {
          "internalType": "bool",
          "name": "dataAccess",
          "type": "bool"
        }
      ],
      "stateMutability": "view",
      "type": "function"
    },
    {
      "inputs": [
        {
          "internalType": "uint256",
          "name": "",
          "type": "uint256"
        }
      ],
      "name": "allCredentialAddress",
      "outputs": [
        {
          "internalType": "address",
          "name": "",
          "type": "address"
        }
      ],
      "stateMutability": "view",
      "type": "function"
    },
    {
      "inputs": [
        {
          "internalType": "address",
          "name": "",
          "type": "address"
        }
      ],
      "name": "allDataAnalyst",
      "outputs": [
        {
          "internalType": "address",
          "name": "dataAnalyst",
          "type": "address"
        },
        {
          "internalType": "string",
          "name": "name",
          "type": "string"
        },
        {
          "internalType": "uint256",
          "name": "analystId",
          "type": "uint256"
        }
      ],
      "stateMutability": "view",
      "type": "function"
    },
    {
      "inputs": [
        {
          "internalType": "uint256",
          "name": "",
          "type": "uint256"
        }
      ],
      "name": "allDataAnalystAddress",
      "outputs": [
        {
          "internalType": "address",
          "name": "",
          "type": "address"
        }
      ],
      "stateMutability": "view",
      "type": "function"
    },
    {
      "inputs": [
        {
          "internalType": "address",
          "name": "",
          "type": "address"
        }
      ],
      "name": "allDoctor",
      "outputs": [
        {
          "internalType": "address",
          "name": "doctor",
          "type": "address"
        },
        {
          "internalType": "string",
          "name": "name",
          "type": "string"
        },
        {
          "internalType": "uint256",
          "name": "doctorId",
          "type": "uint256"
        }
      ],
      "stateMutability": "view",
      "type": "function"
    },
    {
      "inputs": [
        {
          "internalType": "uint256",
          "name": "",
          "type": "uint256"
        }
      ],
      "name": "allDoctorAddress",
      "outputs": [
        {
          "internalType": "address",
          "name": "",
          "type": "address"
        }
      ],
      "stateMutability": "view",
      "type": "function"
    },
    {
      "inputs": [
        {
          "internalType": "address",
          "name": "",
          "type": "address"
        }
      ],
      "name": "allFoodIndusty",
      "outputs": [
        {
          "internalType": "address",
          "name": "foodIndusty",
          "type": "address"
        },
        {
          "internalType": "string",
          "name": "name",
          "type": "string"
        },
        {
          "internalType": "uint256",
          "name": "foodIndustyId",
          "type": "uint256"
        }
      ],
      "stateMutability": "view",
      "type": "function"
    },
    {
      "inputs": [
        {
          "internalType": "uint256",
          "name": "",
          "type": "uint256"
        }
      ],
      "name": "allFoodIndustyAddress",
      "outputs": [
        {
          "internalType": "address",
          "name": "",
          "type": "address"
        }
      ],
      "stateMutability": "view",
      "type": "function"
    },
    {
      "inputs": [
        {
          "internalType": "address",
          "name": "",
          "type": "address"
        }
      ],
      "name": "allHospital",
      "outputs": [
        {
          "internalType": "address",
          "name": "hospital",
          "type": "address"
        },
        {
          "internalType": "string",
          "name": "name",
          "type": "string"
        },
        {
          "internalType": "uint256",
          "name": "hospitalId",
          "type": "uint256"
        }
      ],
      "stateMutability": "view",
      "type": "function"
    },
    {
      "inputs": [
        {
          "internalType": "uint256",
          "name": "",
          "type": "uint256"
        }
      ],
      "name": "allHospitalAddress",
      "outputs": [
        {
          "internalType": "address",
          "name": "",
          "type": "address"
        }
      ],
      "stateMutability": "view",
      "type": "function"
    },
    {
      "inputs": [
        {
          "internalType": "uint256",
          "name": "",
          "type": "uint256"
        }
      ],
      "name": "allPatientAddress",
      "outputs": [
        {
          "internalType": "address",
          "name": "",
          "type": "address"
        }
      ],
      "stateMutability": "view",
      "type": "function"
    },
    {
      "inputs": [
        {
          "internalType": "address",
          "name": "",
          "type": "address"
        }
      ],
      "name": "allPatientParient",
      "outputs": [
        {
          "internalType": "string",
          "name": "name",
          "type": "string"
        },
        {
          "internalType": "address",
          "name": "patientParient",
          "type": "address"
        },
        {
          "internalType": "uint256",
          "name": "age",
          "type": "uint256"
        },
        {
          "internalType": "string",
          "name": "gender",
          "type": "string"
        },
        {
          "internalType": "uint256",
          "name": "birthDay",
          "type": "uint256"
        },
        {
          "internalType": "string",
          "name": "bloodGroup",
          "type": "string"
        },
        {
          "internalType": "uint256",
          "name": "nid",
          "type": "uint256"
        },
        {
          "internalType": "bool",
          "name": "isAdded",
          "type": "bool"
        }
      ],
      "stateMutability": "view",
      "type": "function"
    },
    {
      "inputs": [
        {
          "internalType": "uint256",
          "name": "",
          "type": "uint256"
        }
      ],
      "name": "allPatientParientAddress",
      "outputs": [
        {
          "internalType": "address",
          "name": "",
          "type": "address"
        }
      ],
      "stateMutability": "view",
      "type": "function"
    },
    {
      "inputs": [
        {
          "internalType": "address",
          "name": "",
          "type": "address"
        }
      ],
      "name": "allPharmaciest",
      "outputs": [
        {
          "internalType": "address",
          "name": "pharmaciest",
          "type": "address"
        },
        {
          "internalType": "string",
          "name": "name",
          "type": "string"
        },
        {
          "internalType": "uint256",
          "name": "pharmaciestId",
          "type": "uint256"
        }
      ],
      "stateMutability": "view",
      "type": "function"
    },
    {
      "inputs": [
        {
          "internalType": "uint256",
          "name": "",
          "type": "uint256"
        }
      ],
      "name": "allPharmaciestAddress",
      "outputs": [
        {
          "internalType": "address",
          "name": "",
          "type": "address"
        }
      ],
      "stateMutability": "view",
      "type": "function"
    },
    {
      "inputs": [
        {
          "internalType": "address",
          "name": "",
          "type": "address"
        }
      ],
      "name": "allPharmacy",
      "outputs": [
        {
          "internalType": "address",
          "name": "pharmacy",
          "type": "address"
        },
        {
          "internalType": "string",
          "name": "name",
          "type": "string"
        },
        {
          "internalType": "uint256",
          "name": "pharmacyId",
          "type": "uint256"
        }
      ],
      "stateMutability": "view",
      "type": "function"
    },
    {
      "inputs": [
        {
          "internalType": "uint256",
          "name": "",
          "type": "uint256"
        }
      ],
      "name": "allPharmacyAddress",
      "outputs": [
        {
          "internalType": "address",
          "name": "",
          "type": "address"
        }
      ],
      "stateMutability": "view",
      "type": "function"
    },
    {
      "inputs": [
        {
          "internalType": "address",
          "name": "",
          "type": "address"
        }
      ],
      "name": "allPharmacyCompany",
      "outputs": [
        {
          "internalType": "address",
          "name": "pharmacyCompany",
          "type": "address"
        },
        {
          "internalType": "string",
          "name": "name",
          "type": "string"
        },
        {
          "internalType": "uint256",
          "name": "companyId",
          "type": "uint256"
        }
      ],
      "stateMutability": "view",
      "type": "function"
    },
    {
      "inputs": [
        {
          "internalType": "uint256",
          "name": "",
          "type": "uint256"
        }
      ],
      "name": "allPharmacyCompanyAddress",
      "outputs": [
        {
          "internalType": "address",
          "name": "",
          "type": "address"
        }
      ],
      "stateMutability": "view",
      "type": "function"
    },
    {
      "inputs": [
        {
          "internalType": "address",
          "name": "_patientAddress",
          "type": "address"
        }
      ],
      "name": "checkAccess",
      "outputs": [
        {
          "internalType": "bool",
          "name": "",
          "type": "bool"
        }
      ],
      "stateMutability": "view",
      "type": "function"
    },
    {
      "inputs": [
        {
          "internalType": "address",
          "name": "_patientAddress",
          "type": "address"
        }
      ],
      "name": "grantAccess",
      "outputs": [],
      "stateMutability": "nonpayable",
      "type": "function"
    },
    {
      "inputs": [
        {
          "internalType": "address",
          "name": "_dataAnalyst",
          "type": "address"
        }
      ],
      "name": "isDataAnalystAdded",
      "outputs": [
        {
          "internalType": "bool",
          "name": "",
          "type": "bool"
        }
      ],
      "stateMutability": "view",
      "type": "function"
    },
    {
      "inputs": [
        {
          "internalType": "address",
          "name": "_doctor",
          "type": "address"
        }
      ],
      "name": "isDoctorAdded",
      "outputs": [
        {
          "internalType": "bool",
          "name": "",
          "type": "bool"
        }
      ],
      "stateMutability": "view",
      "type": "function"
    },
    {
      "inputs": [
        {
          "internalType": "address",
          "name": "_foodIndusty",
          "type": "address"
        }
      ],
      "name": "isFoodIndustyAdded",
      "outputs": [
        {
          "internalType": "bool",
          "name": "",
          "type": "bool"
        }
      ],
      "stateMutability": "view",
      "type": "function"
    },
    {
      "inputs": [
        {
          "internalType": "address",
          "name": "_hospital",
          "type": "address"
        }
      ],
      "name": "isHospitalAdded",
      "outputs": [
        {
          "internalType": "bool",
          "name": "",
          "type": "bool"
        }
      ],
      "stateMutability": "view",
      "type": "function"
    },
    {
      "inputs": [
        {
          "internalType": "address",
          "name": "_pharmaciest",
          "type": "address"
        }
      ],
      "name": "isPharmaciestAdded",
      "outputs": [
        {
          "internalType": "bool",
          "name": "",
          "type": "bool"
        }
      ],
      "stateMutability": "view",
      "type": "function"
    },
    {
      "inputs": [
        {
          "internalType": "address",
          "name": "_pharmacy",
          "type": "address"
        }
      ],
      "name": "isPharmacyAdded",
      "outputs": [
        {
          "internalType": "bool",
          "name": "",
          "type": "bool"
        }
      ],
      "stateMutability": "view",
      "type": "function"
    },
    {
      "inputs": [
        {
          "internalType": "address",
          "name": "_pharmacyCompany",
          "type": "address"
        }
      ],
      "name": "isPharmacyCompanyAdded",
      "outputs": [
        {
          "internalType": "bool",
          "name": "",
          "type": "bool"
        }
      ],
      "stateMutability": "view",
      "type": "function"
    },
    {
      "inputs": [],
      "name": "ownerOfContract",
      "outputs": [
        {
          "internalType": "address",
          "name": "",
          "type": "address"
        }
      ],
      "stateMutability": "view",
      "type": "function"
    },
    {
      "inputs": [
        {
          "internalType": "address",
          "name": "_patientAddress",
          "type": "address"
        }
      ],
      "name": "revokeAccess",
      "outputs": [],
      "stateMutability": "nonpayable",
      "type": "function"
    },
    {
      "inputs": [
        {
          "internalType": "address",
          "name": "_issuerAddress",
          "type": "address"
        }
      ],
      "name": "viewCredential",
      "outputs": [
        {
          "internalType": "address",
          "name": "",
          "type": "address"
        },
        {
          "internalType": "string",
          "name": "",
          "type": "string"
        },
        {
          "internalType": "string",
          "name": "",
          "type": "string"
        },
        {
          "internalType": "string",
          "name": "",
          "type": "string"
        },
        {
          "internalType": "string",
          "name": "",
          "type": "string"
        },
        {
          "internalType": "bool",
          "name": "",
          "type": "bool"
        }
      ],
      "stateMutability": "view",
      "type": "function"
    },
    {
      "inputs": [
        {
          "internalType": "address",
          "name": "_dataAnalyst",
          "type": "address"
        }
      ],
      "name": "viewDataAnalystData",
      "outputs": [
        {
          "internalType": "string",
          "name": "",
          "type": "string"
        },
        {
          "internalType": "uint256",
          "name": "",
          "type": "uint256"
        }
      ],
      "stateMutability": "view",
      "type": "function"
    },
    {
      "inputs": [
        {
          "internalType": "address",
          "name": "_doctor",
          "type": "address"
        }
      ],
      "name": "viewDoctorData",
      "outputs": [
        {
          "internalType": "string",
          "name": "",
          "type": "string"
        },
        {
          "internalType": "uint256",
          "name": "",
          "type": "uint256"
        }
      ],
      "stateMutability": "view",
      "type": "function"
    },
    {
      "inputs": [
        {
          "internalType": "address",
          "name": "_foodIndusty",
          "type": "address"
        }
      ],
      "name": "viewFoodIndustyData",
      "outputs": [
        {
          "internalType": "string",
          "name": "",
          "type": "string"
        },
        {
          "internalType": "uint256",
          "name": "",
          "type": "uint256"
        }
      ],
      "stateMutability": "view",
      "type": "function"
    },
    {
      "inputs": [
        {
          "internalType": "address",
          "name": "_hospital",
          "type": "address"
        }
      ],
      "name": "viewHospitalData",
      "outputs": [
        {
          "internalType": "string",
          "name": "",
          "type": "string"
        },
        {
          "internalType": "uint256",
          "name": "",
          "type": "uint256"
        }
      ],
      "stateMutability": "view",
      "type": "function"
    },
    {
      "inputs": [
        {
          "internalType": "address",
          "name": "_patient",
          "type": "address"
        }
      ],
      "name": "viewPatient",
      "outputs": [
        {
          "internalType": "address",
          "name": "",
          "type": "address"
        },
        {
          "internalType": "string",
          "name": "",
          "type": "string"
        },
        {
          "internalType": "uint256",
          "name": "",
          "type": "uint256"
        },
        {
          "internalType": "uint256",
          "name": "",
          "type": "uint256"
        },
        {
          "internalType": "string",
          "name": "",
          "type": "string"
        },
        {
          "internalType": "uint256",
          "name": "",
          "type": "uint256"
        },
        {
          "internalType": "string",
          "name": "",
          "type": "string"
        },
        {
          "internalType": "uint256",
          "name": "",
          "type": "uint256"
        },
        {
          "internalType": "bool",
          "name": "",
          "type": "bool"
        }
      ],
      "stateMutability": "view",
      "type": "function"
    },
    {
      "inputs": [
        {
          "internalType": "address",
          "name": "_pharmaciest",
          "type": "address"
        }
      ],
      "name": "viewPharmaciestData",
      "outputs": [
        {
          "internalType": "string",
          "name": "",
          "type": "string"
        },
        {
          "internalType": "uint256",
          "name": "",
          "type": "uint256"
        }
      ],
      "stateMutability": "view",
      "type": "function"
    },
    {
      "inputs": [
        {
          "internalType": "address",
          "name": "_pharmacyCompany",
          "type": "address"
        }
      ],
      "name": "viewPharmacyCompanyData",
      "outputs": [
        {
          "internalType": "string",
          "name": "",
          "type": "string"
        },
        {
          "internalType": "uint256",
          "name": "",
          "type": "uint256"
        }
      ],
      "stateMutability": "view",
      "type": "function"
    },
    {
      "inputs": [
        {
          "internalType": "address",
          "name": "_pharmacy",
          "type": "address"
        }
      ],
      "name": "viewPharmacyData",
      "outputs": [
        {
          "internalType": "string",
          "name": "",
          "type": "string"
        },
        {
          "internalType": "uint256",
          "name": "",
          "type": "uint256"
        }
      ],
      "stateMutability": "view",
      "type": "function"
    }
  ],
  "bytecode": "0x608060405234801561001057600080fd5b5033600760006101000a81548173ffffffffffffffffffffffffffffffffffffffff021916908373ffffffffffffffffffffffffffffffffffffffff160217905550615422806100616000396000f3fe608060405234801561001057600080fd5b50600436106102bb5760003560e01c8063778146461161018257806398dc216c116100e9578063d6ddef67116100a2578063e8a5733c1161007c578063e8a5733c14610a98578063ee7df0b414610ab4578063f7b2d7d714610ad0578063fb57baff14610b01576102bb565b8063d6ddef6714610a1b578063e0eea17314610a4c578063e3c5d72d14610a68576102bb565b806398dc216c1461091f5780639a8243c114610950578063a79078231461096c578063a865eacd1461099c578063cd32d81b146109b8578063d04a74b1146109ea576102bb565b806386493e191161013b57806386493e191461080e57806386e62dc81461083f5780638aa7da46146108715780638e87d2f9146108a157806394f233d2146108d15780639605f44414610903576102bb565b806377814646146107025780637872dd711461073257806378a9ae69146107625780637dc88515146107925780637dd84895146107c257806385e68531146107f2576102bb565b8063468229ae11610226578063686c2088116101df578063686c2088146105f257806368def1b61461062257806369af39bc146106525780636b75d0551461066e5780636d2e3c16146106a057806372f96ccc146106d0576102bb565b8063468229ae146104f35780634ebf7a2f1461051157806352e5904e1461052d578063590ce34d1461055f5780635d7a1b271461058f578063681b0b16146105c1576102bb565b8063325b5c7911610278578063325b5c79146103e657806335749bcb146104165780634189f7e61461044657806344c1659714610462578063457be2b914610492578063466a0146146104c3576102bb565b80630a088f63146102c05780630ae5e739146102f057806315f250651461030c5780631ae738b814610342578063210145c91461037a5780632dff8bce146103af575b600080fd5b6102da60048036038101906102d5919061444f565b610b31565b6040516102e791906144bd565b60405180910390f35b61030a60048036038101906103059190614504565b610b70565b005b61032660048036038101906103219190614504565b610c08565b60405161033997969594939291906145dc565b60405180910390f35b61035c60048036038101906103579190614504565b610ea4565b60405161037199989796959493929190614676565b60405180910390f35b610394600480360381019061038f9190614504565b611587565b6040516103a696959493929190614718565b60405180910390f35b6103c960048036038101906103c49190614504565b6119e6565b6040516103dd989796959493929190614795565b60405180910390f35b61040060048036038101906103fb919061444f565b611bf3565b60405161040d91906144bd565b60405180910390f35b610430600480360381019061042b9190614504565b611c32565b60405161043d9190614828565b60405180910390f35b610460600480360381019061045b9190614978565b611ccc565b005b61047c60048036038101906104779190614504565b611e1f565b6040516104899190614828565b60405180910390f35b6104ac60048036038101906104a79190614504565b611eb9565b6040516104ba9291906149e7565b60405180910390f35b6104dd60048036038101906104d89190614504565b61209e565b6040516104ea9190614828565b60405180910390f35b6104fb612131565b60405161050891906144bd565b60405180910390f35b61052b60048036038101906105269190614a17565b612157565b005b61054760048036038101906105429190614504565b61233d565b60405161055693929190614b02565b60405180910390f35b6105796004803603810190610574919061444f565b61240f565b60405161058691906144bd565b60405180910390f35b6105a960048036038101906105a49190614504565b61244e565b6040516105b893929190614b02565b60405180910390f35b6105db60048036038101906105d69190614504565b612520565b6040516105e99291906149e7565b60405180910390f35b61060c60048036038101906106079190614504565b612705565b6040516106199190614828565b60405180910390f35b61063c6004803603810190610637919061444f565b61279f565b60405161064991906144bd565b60405180910390f35b61066c60048036038101906106679190614b40565b6127de565b005b61068860048036038101906106839190614504565b6129d7565b60405161069793929190614b02565b60405180910390f35b6106ba60048036038101906106b5919061444f565b612aa9565b6040516106c791906144bd565b60405180910390f35b6106ea60048036038101906106e59190614504565b612ae8565b6040516106f993929190614b02565b60405180910390f35b61071c60048036038101906107179190614c4a565b612bba565b6040516107299190614828565b60405180910390f35b61074c60048036038101906107479190614504565b612be9565b6040516107599190614828565b60405180910390f35b61077c6004803603810190610777919061444f565b612c83565b60405161078991906144bd565b60405180910390f35b6107ac60048036038101906107a79190614504565b612cc2565b6040516107b99190614828565b60405180910390f35b6107dc60048036038101906107d7919061444f565b612d5c565b6040516107e991906144bd565b60405180910390f35b61080c60048036038101906108079190614504565b612d9b565b005b61082860048036038101906108239190614504565b612e33565b6040516108369291906149e7565b60405180910390f35b61085960048036038101906108549190614504565b613018565b60405161086893929190614b02565b60405180910390f35b61088b60048036038101906108869190614504565b6130ea565b6040516108989190614828565b60405180910390f35b6108bb60048036038101906108b6919061444f565b613184565b6040516108c891906144bd565b60405180910390f35b6108eb60048036038101906108e69190614504565b6131c3565b6040516108fa93929190614b02565b60405180910390f35b61091d60048036038101906109189190614978565b613295565b005b61093960048036038101906109349190614504565b6133e8565b6040516109479291906149e7565b60405180910390f35b61096a60048036038101906109659190614978565b6135cd565b005b6109866004803603810190610981919061444f565b613720565b60405161099391906144bd565b60405180910390f35b6109b660048036038101906109b19190614978565b61375f565b005b6109d260048036038101906109cd9190614504565b6138b2565b6040516109e193929190614b02565b60405180910390f35b610a0460048036038101906109ff9190614504565b613984565b604051610a129291906149e7565b60405180910390f35b610a356004803603810190610a309190614504565b613b69565b604051610a439291906149e7565b60405180910390f35b610a666004803603810190610a619190614978565b613d4e565b005b610a826004803603810190610a7d9190614504565b613ea1565b604051610a8f9190614828565b60405180910390f35b610ab26004803603810190610aad9190614978565b613f3b565b005b610ace6004803603810190610ac99190614978565b61408e565b005b610aea6004803603810190610ae59190614504565b6141e1565b604051610af89291906149e7565b60405180910390f35b610b1b6004803603810190610b16919061444f565b6143c6565b604051610b2891906144bd565b60405180910390f35b60048181548110610b4157600080fd5b906000526020600020016000915054906101000a900473ffffffffffffffffffffffffffffffffffffffff1681565b6001600360003373ffffffffffffffffffffffffffffffffffffffff1673ffffffffffffffffffffffffffffffffffffffff16815260200190815260200160002060008373ffffffffffffffffffffffffffffffffffffffff1673ffffffffffffffffffffffffffffffffffffffff16815260200190815260200160002060006101000a81548160ff02191690831515021790555050565b60026020528060005260406000206000915090508060000160009054906101000a900473ffffffffffffffffffffffffffffffffffffffff1690806001018054610c5190614cb9565b80601f0160208091040260200160405190810160405280929190818152602001828054610c7d90614cb9565b8015610cca5780601f10610c9f57610100808354040283529160200191610cca565b820191906000526020600020905b815481529060010190602001808311610cad57829003601f168201915b505050505090806002018054610cdf90614cb9565b80601f0160208091040260200160405190810160405280929190818152602001828054610d0b90614cb9565b8015610d585780601f10610d2d57610100808354040283529160200191610d58565b820191906000526020600020905b815481529060010190602001808311610d3b57829003601f168201915b505050505090806003018054610d6d90614cb9565b80601f0160208091040260200160405190810160405280929190818152602001828054610d9990614cb9565b8015610de65780601f10610dbb57610100808354040283529160200191610de6565b820191906000526020600020905b815481529060010190602001808311610dc957829003601f168201915b505050505090806004018054610dfb90614cb9565b80601f0160208091040260200160405190810160405280929190818152602001828054610e2790614cb9565b8015610e745780601f10610e4957610100808354040283529160200191610e74565b820191906000526020600020905b815481529060010190602001808311610e5757829003601f168201915b5050505050908060050160009054906101000a900460ff16908060050160019054906101000a900460ff16905087565b600060606000806060600060606000803373ffffffffffffffffffffffffffffffffffffffff168a73ffffffffffffffffffffffffffffffffffffffff161480610f745750600360008b73ffffffffffffffffffffffffffffffffffffffff1673ffffffffffffffffffffffffffffffffffffffff16815260200190815260200160002060003373ffffffffffffffffffffffffffffffffffffffff1673ffffffffffffffffffffffffffffffffffffffff16815260200190815260200160002060009054906101000a900460ff165b610fb3576040517f08c379a0000000000000000000000000000000000000000000000000000000008152600401610faa90614d5c565b60405180910390fd5b60008060008c73ffffffffffffffffffffffffffffffffffffffff1673ffffffffffffffffffffffffffffffffffffffff168152602001908152602001600020604051806101600160405290816000820160009054906101000a900473ffffffffffffffffffffffffffffffffffffffff1673ffffffffffffffffffffffffffffffffffffffff1673ffffffffffffffffffffffffffffffffffffffff16815260200160018201805461106590614cb9565b80601f016020809104026020016040519081016040528092919081815260200182805461109190614cb9565b80156110de5780601f106110b3576101008083540402835291602001916110de565b820191906000526020600020905b8154815290600101906020018083116110c157829003601f168201915b50505050508152602001600282015481526020016003820154815260200160048201805461110b90614cb9565b80601f016020809104026020016040519081016040528092919081815260200182805461113790614cb9565b80156111845780601f1061115957610100808354040283529160200191611184565b820191906000526020600020905b81548152906001019060200180831161116757829003601f168201915b50505050508152602001600582015481526020016006820180546111a790614cb9565b80601f01602080910402602001604051908101604052809291908181526020018280546111d390614cb9565b80156112205780601f106111f557610100808354040283529160200191611220565b820191906000526020600020905b81548152906001019060200180831161120357829003601f168201915b50505050508152602001600782016040518061010001604052908160008201805461124a90614cb9565b80601f016020809104026020016040519081016040528092919081815260200182805461127690614cb9565b80156112c35780601f10611298576101008083540402835291602001916112c3565b820191906000526020600020905b8154815290600101906020018083116112a657829003601f168201915b505050505081526020016001820160009054906101000a900473ffffffffffffffffffffffffffffffffffffffff1673ffffffffffffffffffffffffffffffffffffffff1673ffffffffffffffffffffffffffffffffffffffff1681526020016002820154815260200160038201805461133c90614cb9565b80601f016020809104026020016040519081016040528092919081815260200182805461136890614cb9565b80156113b55780601f1061138a576101008083540402835291602001916113b5565b820191906000526020600020905b81548152906001019060200180831161139857829003601f168201915b50505050508152602001600482015481526020016005820180546113d890614cb9565b80601f016020809104026020016040519081016040528092919081815260200182805461140490614cb9565b80156114515780601f1061142657610100808354040283529160200191611451565b820191906000526020600020905b81548152906001019060200180831161143457829003601f168201915b50505050508152602001600682015481526020016007820160009054906101000a900460ff1615151515815250508152602001600f82015481526020016010820160009054906101000a900460ff161515151581526020016011820180548060200260200160405190810160405280929190818152602001828054801561152d57602002820191906000526020600020905b8160009054906101000a900473ffffffffffffffffffffffffffffffffffffffff1673ffffffffffffffffffffffffffffffffffffffff16815260200190600101908083116114e3575b5050505050815250509050806000015181602001518260400151836060015184608001518560a001518660c00151876101000151886101200151995099509950995099509950995099509950509193959799909294969850565b600060608060608060003373ffffffffffffffffffffffffffffffffffffffff168773ffffffffffffffffffffffffffffffffffffffff1614806116515750600360008873ffffffffffffffffffffffffffffffffffffffff1673ffffffffffffffffffffffffffffffffffffffff16815260200190815260200160002060003373ffffffffffffffffffffffffffffffffffffffff1673ffffffffffffffffffffffffffffffffffffffff16815260200190815260200160002060009054906101000a900460ff165b611690576040517f08c379a000000000000000000000000000000000000000000000000000000000815260040161168790614d5c565b60405180910390fd5b6000600260008973ffffffffffffffffffffffffffffffffffffffff1673ffffffffffffffffffffffffffffffffffffffff1681526020019081526020016000206040518060e00160405290816000820160009054906101000a900473ffffffffffffffffffffffffffffffffffffffff1673ffffffffffffffffffffffffffffffffffffffff1673ffffffffffffffffffffffffffffffffffffffff16815260200160018201805461174290614cb9565b80601f016020809104026020016040519081016040528092919081815260200182805461176e90614cb9565b80156117bb5780601f10611790576101008083540402835291602001916117bb565b820191906000526020600020905b81548152906001019060200180831161179e57829003601f168201915b505050505081526020016002820180546117d490614cb9565b80601f016020809104026020016040519081016040528092919081815260200182805461180090614cb9565b801561184d5780601f106118225761010080835404028352916020019161184d565b820191906000526020600020905b81548152906001019060200180831161183057829003601f168201915b5050505050815260200160038201805461186690614cb9565b80601f016020809104026020016040519081016040528092919081815260200182805461189290614cb9565b80156118df5780601f106118b4576101008083540402835291602001916118df565b820191906000526020600020905b8154815290600101906020018083116118c257829003601f168201915b505050505081526020016004820180546118f890614cb9565b80601f016020809104026020016040519081016040528092919081815260200182805461192490614cb9565b80156119715780601f1061194657610100808354040283529160200191611971565b820191906000526020600020905b81548152906001019060200180831161195457829003601f168201915b505050505081526020016005820160009054906101000a900460ff161515151581526020016005820160019054906101000a900460ff1615151515815250509050806000015181602001518260400151836060015184608001518560a001519650965096509650965096505091939550919395565b6001602052806000526040600020600091509050806000018054611a0990614cb9565b80601f0160208091040260200160405190810160405280929190818152602001828054611a3590614cb9565b8015611a825780601f10611a5757610100808354040283529160200191611a82565b820191906000526020600020905b815481529060010190602001808311611a6557829003601f168201915b5050505050908060010160009054906101000a900473ffffffffffffffffffffffffffffffffffffffff1690806002015490806003018054611ac390614cb9565b80601f0160208091040260200160405190810160405280929190818152602001828054611aef90614cb9565b8015611b3c5780601f10611b1157610100808354040283529160200191611b3c565b820191906000526020600020905b815481529060010190602001808311611b1f57829003601f168201915b505050505090806004015490806005018054611b5790614cb9565b80601f0160208091040260200160405190810160405280929190818152602001828054611b8390614cb9565b8015611bd05780601f10611ba557610100808354040283529160200191611bd0565b820191906000526020600020905b815481529060010190602001808311611bb357829003601f168201915b5050505050908060060154908060070160009054906101000a900460ff16905088565b60138181548110611c0357600080fd5b906000526020600020016000915054906101000a900473ffffffffffffffffffffffffffffffffffffffff1681565b60003373ffffffffffffffffffffffffffffffffffffffff16600960008473ffffffffffffffffffffffffffffffffffffffff1673ffffffffffffffffffffffffffffffffffffffff16815260200190815260200160002060000160009054906101000a900473ffffffffffffffffffffffffffffffffffffffff1673ffffffffffffffffffffffffffffffffffffffff16149050919050565b611cd5836130ea565b15611d15576040517f08c379a0000000000000000000000000000000000000000000000000000000008152600401611d0c90614dc8565b60405180910390fd5b6000600b60008573ffffffffffffffffffffffffffffffffffffffff1673ffffffffffffffffffffffffffffffffffffffff1681526020019081526020016000209050838160000160006101000a81548173ffffffffffffffffffffffffffffffffffffffff021916908373ffffffffffffffffffffffffffffffffffffffff16021790555082816001019081611dac9190614f94565b508181600201819055506012849080600181540180825580915050600190039060005260206000200160009091909190916101000a81548173ffffffffffffffffffffffffffffffffffffffff021916908373ffffffffffffffffffffffffffffffffffffffff16021790555050505050565b60003373ffffffffffffffffffffffffffffffffffffffff16600d60008473ffffffffffffffffffffffffffffffffffffffff1673ffffffffffffffffffffffffffffffffffffffff16815260200190815260200160002060000160009054906101000a900473ffffffffffffffffffffffffffffffffffffffff1673ffffffffffffffffffffffffffffffffffffffff16149050919050565b606060003373ffffffffffffffffffffffffffffffffffffffff168373ffffffffffffffffffffffffffffffffffffffff161480611f7d5750600360008473ffffffffffffffffffffffffffffffffffffffff1673ffffffffffffffffffffffffffffffffffffffff16815260200190815260200160002060003373ffffffffffffffffffffffffffffffffffffffff1673ffffffffffffffffffffffffffffffffffffffff16815260200190815260200160002060009054906101000a900460ff165b611fbc576040517f08c379a0000000000000000000000000000000000000000000000000000000008152600401611fb390614d5c565b60405180910390fd5b6000600c60008573ffffffffffffffffffffffffffffffffffffffff1673ffffffffffffffffffffffffffffffffffffffff168152602001908152602001600020905080600101816002015481805461201490614cb9565b80601f016020809104026020016040519081016040528092919081815260200182805461204090614cb9565b801561208d5780601f106120625761010080835404028352916020019161208d565b820191906000526020600020905b81548152906001019060200180831161207057829003601f168201915b505050505091509250925050915091565b6000600360003373ffffffffffffffffffffffffffffffffffffffff1673ffffffffffffffffffffffffffffffffffffffff16815260200190815260200160002060008373ffffffffffffffffffffffffffffffffffffffff1673ffffffffffffffffffffffffffffffffffffffff16815260200190815260200160002060009054906101000a900460ff169050919050565b600760009054906101000a900473ffffffffffffffffffffffffffffffffffffffff1681565b600260008673ffffffffffffffffffffffffffffffffffffffff1673ffffffffffffffffffffffffffffffffffffffff16815260200190815260200160002060050160009054906101000a900460ff16156121e7576040517f08c379a00000000000000000000000000000000000000000000000000000000081526004016121de906150d8565b60405180910390fd5b6000600260008773ffffffffffffffffffffffffffffffffffffffff1673ffffffffffffffffffffffffffffffffffffffff1681526020019081526020016000209050858160000160006101000a81548173ffffffffffffffffffffffffffffffffffffffff021916908373ffffffffffffffffffffffffffffffffffffffff1602179055508481600101908161227e9190614f94565b50838160020190816122909190614f94565b50828160030190816122a29190614f94565b50818160040190816122b49190614f94565b5060018160050160006101000a81548160ff0219169083151502179055506006869080600181540180825580915050600190039060005260206000200160009091909190916101000a81548173ffffffffffffffffffffffffffffffffffffffff021916908373ffffffffffffffffffffffffffffffffffffffff160217905550505050505050565b600e6020528060005260406000206000915090508060000160009054906101000a900473ffffffffffffffffffffffffffffffffffffffff169080600101805461238690614cb9565b80601f01602080910402602001604051908101604052809291908181526020018280546123b290614cb9565b80156123ff5780601f106123d4576101008083540402835291602001916123ff565b820191906000526020600020905b8154815290600101906020018083116123e257829003601f168201915b5050505050908060020154905083565b6012818154811061241f57600080fd5b906000526020600020016000915054906101000a900473ffffffffffffffffffffffffffffffffffffffff1681565b600a6020528060005260406000206000915090508060000160009054906101000a900473ffffffffffffffffffffffffffffffffffffffff169080600101805461249790614cb9565b80601f01602080910402602001604051908101604052809291908181526020018280546124c390614cb9565b80156125105780601f106124e557610100808354040283529160200191612510565b820191906000526020600020905b8154815290600101906020018083116124f357829003601f168201915b5050505050908060020154905083565b606060003373ffffffffffffffffffffffffffffffffffffffff168373ffffffffffffffffffffffffffffffffffffffff1614806125e45750600360008473ffffffffffffffffffffffffffffffffffffffff1673ffffffffffffffffffffffffffffffffffffffff16815260200190815260200160002060003373ffffffffffffffffffffffffffffffffffffffff1673ffffffffffffffffffffffffffffffffffffffff16815260200190815260200160002060009054906101000a900460ff165b612623576040517f08c379a000000000000000000000000000000000000000000000000000000000815260040161261a90614d5c565b60405180910390fd5b6000600960008573ffffffffffffffffffffffffffffffffffffffff1673ffffffffffffffffffffffffffffffffffffffff168152602001908152602001600020905080600101816002015481805461267b90614cb9565b80601f01602080910402602001604051908101604052809291908181526020018280546126a790614cb9565b80156126f45780601f106126c9576101008083540402835291602001916126f4565b820191906000526020600020905b8154815290600101906020018083116126d757829003601f168201915b505050505091509250925050915091565b60003373ffffffffffffffffffffffffffffffffffffffff16600e60008473ffffffffffffffffffffffffffffffffffffffff1673ffffffffffffffffffffffffffffffffffffffff16815260200190815260200160002060000160009054906101000a900473ffffffffffffffffffffffffffffffffffffffff1673ffffffffffffffffffffffffffffffffffffffff16149050919050565b601181815481106127af57600080fd5b906000526020600020016000915054906101000a900473ffffffffffffffffffffffffffffffffffffffff1681565b6000808973ffffffffffffffffffffffffffffffffffffffff1673ffffffffffffffffffffffffffffffffffffffff16815260200190815260200160002060100160009054906101000a900460ff161561286d576040517f08c379a000000000000000000000000000000000000000000000000000000000815260040161286490615144565b60405180910390fd5b60008060008a73ffffffffffffffffffffffffffffffffffffffff1673ffffffffffffffffffffffffffffffffffffffff1681526020019081526020016000209050888160000160006101000a81548173ffffffffffffffffffffffffffffffffffffffff021916908373ffffffffffffffffffffffffffffffffffffffff160217905550878160010190816129039190614f94565b50868160020181905550858160030181905550848160040190816129279190614f94565b50838160050181905550828160060190816129429190614f94565b508181600f018190555060018160100160006101000a81548160ff0219169083151502179055506004899080600181540180825580915050600190039060005260206000200160009091909190916101000a81548173ffffffffffffffffffffffffffffffffffffffff021916908373ffffffffffffffffffffffffffffffffffffffff160217905550505050505050505050565b60096020528060005260406000206000915090508060000160009054906101000a900473ffffffffffffffffffffffffffffffffffffffff1690806001018054612a2090614cb9565b80601f0160208091040260200160405190810160405280929190818152602001828054612a4c90614cb9565b8015612a995780601f10612a6e57610100808354040283529160200191612a99565b820191906000526020600020905b815481529060010190602001808311612a7c57829003601f168201915b5050505050908060020154905083565b60068181548110612ab957600080fd5b906000526020600020016000915054906101000a900473ffffffffffffffffffffffffffffffffffffffff1681565b600d6020528060005260406000206000915090508060000160009054906101000a900473ffffffffffffffffffffffffffffffffffffffff1690806001018054612b3190614cb9565b80601f0160208091040260200160405190810160405280929190818152602001828054612b5d90614cb9565b8015612baa5780601f10612b7f57610100808354040283529160200191612baa565b820191906000526020600020905b815481529060010190602001808311612b8d57829003601f168201915b5050505050908060020154905083565b60036020528160005260406000206020528060005260406000206000915091509054906101000a900460ff1681565b60003373ffffffffffffffffffffffffffffffffffffffff16600a60008473ffffffffffffffffffffffffffffffffffffffff1673ffffffffffffffffffffffffffffffffffffffff16815260200190815260200160002060000160009054906101000a900473ffffffffffffffffffffffffffffffffffffffff1673ffffffffffffffffffffffffffffffffffffffff16149050919050565b60058181548110612c9357600080fd5b906000526020600020016000915054906101000a900473ffffffffffffffffffffffffffffffffffffffff1681565b60003373ffffffffffffffffffffffffffffffffffffffff16600c60008473ffffffffffffffffffffffffffffffffffffffff1673ffffffffffffffffffffffffffffffffffffffff16815260200190815260200160002060000160009054906101000a900473ffffffffffffffffffffffffffffffffffffffff1673ffffffffffffffffffffffffffffffffffffffff16149050919050565b60158181548110612d6c57600080fd5b906000526020600020016000915054906101000a900473ffffffffffffffffffffffffffffffffffffffff1681565b6000600360003373ffffffffffffffffffffffffffffffffffffffff1673ffffffffffffffffffffffffffffffffffffffff16815260200190815260200160002060008373ffffffffffffffffffffffffffffffffffffffff1673ffffffffffffffffffffffffffffffffffffffff16815260200190815260200160002060006101000a81548160ff02191690831515021790555050565b606060003373ffffffffffffffffffffffffffffffffffffffff168373ffffffffffffffffffffffffffffffffffffffff161480612ef75750600360008473ffffffffffffffffffffffffffffffffffffffff1673ffffffffffffffffffffffffffffffffffffffff16815260200190815260200160002060003373ffffffffffffffffffffffffffffffffffffffff1673ffffffffffffffffffffffffffffffffffffffff16815260200190815260200160002060009054906101000a900460ff165b612f36576040517f08c379a0000000000000000000000000000000000000000000000000000000008152600401612f2d90614d5c565b60405180910390fd5b6000600a60008573ffffffffffffffffffffffffffffffffffffffff1673ffffffffffffffffffffffffffffffffffffffff1681526020019081526020016000209050806001018160020154818054612f8e90614cb9565b80601f0160208091040260200160405190810160405280929190818152602001828054612fba90614cb9565b80156130075780601f10612fdc57610100808354040283529160200191613007565b820191906000526020600020905b815481529060010190602001808311612fea57829003601f168201915b505050505091509250925050915091565b60086020528060005260406000206000915090508060000160009054906101000a900473ffffffffffffffffffffffffffffffffffffffff169080600101805461306190614cb9565b80601f016020809104026020016040519081016040528092919081815260200182805461308d90614cb9565b80156130da5780601f106130af576101008083540402835291602001916130da565b820191906000526020600020905b8154815290600101906020018083116130bd57829003601f168201915b5050505050908060020154905083565b60003373ffffffffffffffffffffffffffffffffffffffff16600b60008473ffffffffffffffffffffffffffffffffffffffff1673ffffffffffffffffffffffffffffffffffffffff16815260200190815260200160002060000160009054906101000a900473ffffffffffffffffffffffffffffffffffffffff1673ffffffffffffffffffffffffffffffffffffffff16149050919050565b6010818154811061319457600080fd5b906000526020600020016000915054906101000a900473ffffffffffffffffffffffffffffffffffffffff1681565b600b6020528060005260406000206000915090508060000160009054906101000a900473ffffffffffffffffffffffffffffffffffffffff169080600101805461320c90614cb9565b80601f016020809104026020016040519081016040528092919081815260200182805461323890614cb9565b80156132855780601f1061325a57610100808354040283529160200191613285565b820191906000526020600020905b81548152906001019060200180831161326857829003601f168201915b5050505050908060020154905083565b61329e83611e1f565b156132de576040517f08c379a00000000000000000000000000000000000000000000000000000000081526004016132d5906151b0565b60405180910390fd5b6000600d60008573ffffffffffffffffffffffffffffffffffffffff1673ffffffffffffffffffffffffffffffffffffffff1681526020019081526020016000209050838160000160006101000a81548173ffffffffffffffffffffffffffffffffffffffff021916908373ffffffffffffffffffffffffffffffffffffffff160217905550828160010190816133759190614f94565b508181600201819055506014849080600181540180825580915050600190039060005260206000200160009091909190916101000a81548173ffffffffffffffffffffffffffffffffffffffff021916908373ffffffffffffffffffffffffffffffffffffffff16021790555050505050565b606060003373ffffffffffffffffffffffffffffffffffffffff168373ffffffffffffffffffffffffffffffffffffffff1614806134ac5750600360008473ffffffffffffffffffffffffffffffffffffffff1673ffffffffffffffffffffffffffffffffffffffff16815260200190815260200160002060003373ffffffffffffffffffffffffffffffffffffffff1673ffffffffffffffffffffffffffffffffffffffff16815260200190815260200160002060009054906101000a900460ff165b6134eb576040517f08c379a00000000000000000000000000000000000000000000000000000000081526004016134e290614d5c565b60405180910390fd5b6000600b60008573ffffffffffffffffffffffffffffffffffffffff1673ffffffffffffffffffffffffffffffffffffffff168152602001908152602001600020905080600101816002015481805461354390614cb9565b80601f016020809104026020016040519081016040528092919081815260200182805461356f90614cb9565b80156135bc5780601f10613591576101008083540402835291602001916135bc565b820191906000526020600020905b81548152906001019060200180831161359f57829003601f168201915b505050505091509250925050915091565b6135d683612cc2565b15613616576040517f08c379a000000000000000000000000000000000000000000000000000000000815260040161360d9061521c565b60405180910390fd5b6000600c60008573ffffffffffffffffffffffffffffffffffffffff1673ffffffffffffffffffffffffffffffffffffffff1681526020019081526020016000209050838160000160006101000a81548173ffffffffffffffffffffffffffffffffffffffff021916908373ffffffffffffffffffffffffffffffffffffffff160217905550828160010190816136ad9190614f94565b508181600201819055506013849080600181540180825580915050600190039060005260206000200160009091909190916101000a81548173ffffffffffffffffffffffffffffffffffffffff021916908373ffffffffffffffffffffffffffffffffffffffff16021790555050505050565b6014818154811061373057600080fd5b906000526020600020016000915054906101000a900473ffffffffffffffffffffffffffffffffffffffff1681565b61376883611c32565b156137a8576040517f08c379a000000000000000000000000000000000000000000000000000000000815260040161379f90615288565b60405180910390fd5b6000600960008573ffffffffffffffffffffffffffffffffffffffff1673ffffffffffffffffffffffffffffffffffffffff1681526020019081526020016000209050838160000160006101000a81548173ffffffffffffffffffffffffffffffffffffffff021916908373ffffffffffffffffffffffffffffffffffffffff1602179055508281600101908161383f9190614f94565b508181600201819055506010849080600181540180825580915050600190039060005260206000200160009091909190916101000a81548173ffffffffffffffffffffffffffffffffffffffff021916908373ffffffffffffffffffffffffffffffffffffffff16021790555050505050565b600c6020528060005260406000206000915090508060000160009054906101000a900473ffffffffffffffffffffffffffffffffffffffff16908060010180546138fb90614cb9565b80601f016020809104026020016040519081016040528092919081815260200182805461392790614cb9565b80156139745780601f1061394957610100808354040283529160200191613974565b820191906000526020600020905b81548152906001019060200180831161395757829003601f168201915b5050505050908060020154905083565b606060003373ffffffffffffffffffffffffffffffffffffffff168373ffffffffffffffffffffffffffffffffffffffff161480613a485750600360008473ffffffffffffffffffffffffffffffffffffffff1673ffffffffffffffffffffffffffffffffffffffff16815260200190815260200160002060003373ffffffffffffffffffffffffffffffffffffffff1673ffffffffffffffffffffffffffffffffffffffff16815260200190815260200160002060009054906101000a900460ff165b613a87576040517f08c379a0000000000000000000000000000000000000000000000000000000008152600401613a7e90614d5c565b60405180910390fd5b6000600860008573ffffffffffffffffffffffffffffffffffffffff1673ffffffffffffffffffffffffffffffffffffffff1681526020019081526020016000209050806001018160020154818054613adf90614cb9565b80601f0160208091040260200160405190810160405280929190818152602001828054613b0b90614cb9565b8015613b585780601f10613b2d57610100808354040283529160200191613b58565b820191906000526020600020905b815481529060010190602001808311613b3b57829003601f168201915b505050505091509250925050915091565b606060003373ffffffffffffffffffffffffffffffffffffffff168373ffffffffffffffffffffffffffffffffffffffff161480613c2d5750600360008473ffffffffffffffffffffffffffffffffffffffff1673ffffffffffffffffffffffffffffffffffffffff16815260200190815260200160002060003373ffffffffffffffffffffffffffffffffffffffff1673ffffffffffffffffffffffffffffffffffffffff16815260200190815260200160002060009054906101000a900460ff165b613c6c576040517f08c379a0000000000000000000000000000000000000000000000000000000008152600401613c6390614d5c565b60405180910390fd5b6000600d60008573ffffffffffffffffffffffffffffffffffffffff1673ffffffffffffffffffffffffffffffffffffffff1681526020019081526020016000209050806001018160020154818054613cc490614cb9565b80601f0160208091040260200160405190810160405280929190818152602001828054613cf090614cb9565b8015613d3d5780601f10613d1257610100808354040283529160200191613d3d565b820191906000526020600020905b815481529060010190602001808311613d2057829003601f168201915b505050505091509250925050915091565b613d5783613ea1565b15613d97576040517f08c379a0000000000000000000000000000000000000000000000000000000008152600401613d8e906152f4565b60405180910390fd5b6000600860008573ffffffffffffffffffffffffffffffffffffffff1673ffffffffffffffffffffffffffffffffffffffff1681526020019081526020016000209050838160000160006101000a81548173ffffffffffffffffffffffffffffffffffffffff021916908373ffffffffffffffffffffffffffffffffffffffff16021790555082816001019081613e2e9190614f94565b50818160020181905550600f849080600181540180825580915050600190039060005260206000200160009091909190916101000a81548173ffffffffffffffffffffffffffffffffffffffff021916908373ffffffffffffffffffffffffffffffffffffffff16021790555050505050565b60003373ffffffffffffffffffffffffffffffffffffffff16600860008473ffffffffffffffffffffffffffffffffffffffff1673ffffffffffffffffffffffffffffffffffffffff16815260200190815260200160002060000160009054906101000a900473ffffffffffffffffffffffffffffffffffffffff1673ffffffffffffffffffffffffffffffffffffffff16149050919050565b613f4483612705565b15613f84576040517f08c379a0000000000000000000000000000000000000000000000000000000008152600401613f7b90615360565b60405180910390fd5b6000600e60008573ffffffffffffffffffffffffffffffffffffffff1673ffffffffffffffffffffffffffffffffffffffff1681526020019081526020016000209050838160000160006101000a81548173ffffffffffffffffffffffffffffffffffffffff021916908373ffffffffffffffffffffffffffffffffffffffff1602179055508281600101908161401b9190614f94565b508181600201819055506015849080600181540180825580915050600190039060005260206000200160009091909190916101000a81548173ffffffffffffffffffffffffffffffffffffffff021916908373ffffffffffffffffffffffffffffffffffffffff16021790555050505050565b61409783612be9565b156140d7576040517f08c379a00000000000000000000000000000000000000000000000000000000081526004016140ce906153cc565b60405180910390fd5b6000600a60008573ffffffffffffffffffffffffffffffffffffffff1673ffffffffffffffffffffffffffffffffffffffff1681526020019081526020016000209050838160000160006101000a81548173ffffffffffffffffffffffffffffffffffffffff021916908373ffffffffffffffffffffffffffffffffffffffff1602179055508281600101908161416e9190614f94565b508181600201819055506011849080600181540180825580915050600190039060005260206000200160009091909190916101000a81548173ffffffffffffffffffffffffffffffffffffffff021916908373ffffffffffffffffffffffffffffffffffffffff16021790555050505050565b606060003373ffffffffffffffffffffffffffffffffffffffff168373ffffffffffffffffffffffffffffffffffffffff1614806142a55750600360008473ffffffffffffffffffffffffffffffffffffffff1673ffffffffffffffffffffffffffffffffffffffff16815260200190815260200160002060003373ffffffffffffffffffffffffffffffffffffffff1673ffffffffffffffffffffffffffffffffffffffff16815260200190815260200160002060009054906101000a900460ff165b6142e4576040517f08c379a00000000000000000000000000000000000000000000000000000000081526004016142db90614d5c565b60405180910390fd5b6000600e60008573ffffffffffffffffffffffffffffffffffffffff1673ffffffffffffffffffffffffffffffffffffffff168152602001908152602001600020905080600101816002015481805461433c90614cb9565b80601f016020809104026020016040519081016040528092919081815260200182805461436890614cb9565b80156143b55780601f1061438a576101008083540402835291602001916143b5565b820191906000526020600020905b81548152906001019060200180831161439857829003601f168201915b505050505091509250925050915091565b600f81815481106143d657600080fd5b906000526020600020016000915054906101000a900473ffffffffffffffffffffffffffffffffffffffff1681565b6000604051905090565b600080fd5b600080fd5b6000819050919050565b61442c81614419565b811461443757600080fd5b50565b60008135905061444981614423565b92915050565b6000602082840312156144655761446461440f565b5b60006144738482850161443a565b91505092915050565b600073ffffffffffffffffffffffffffffffffffffffff82169050919050565b60006144a78261447c565b9050919050565b6144b78161449c565b82525050565b60006020820190506144d260008301846144ae565b92915050565b6144e18161449c565b81146144ec57600080fd5b50565b6000813590506144fe816144d8565b92915050565b60006020828403121561451a5761451961440f565b5b6000614528848285016144ef565b91505092915050565b600081519050919050565b600082825260208201905092915050565b60005b8381101561456b578082015181840152602081019050614550565b60008484015250505050565b6000601f19601f8301169050919050565b600061459382614531565b61459d818561453c565b93506145ad81856020860161454d565b6145b681614577565b840191505092915050565b60008115159050919050565b6145d6816145c1565b82525050565b600060e0820190506145f1600083018a6144ae565b81810360208301526146038189614588565b905081810360408301526146178188614588565b9050818103606083015261462b8187614588565b9050818103608083015261463f8186614588565b905061464e60a08301856145cd565b61465b60c08301846145cd565b98975050505050505050565b61467081614419565b82525050565b60006101208201905061468c600083018c6144ae565b818103602083015261469e818b614588565b90506146ad604083018a614667565b6146ba6060830189614667565b81810360808301526146cc8188614588565b90506146db60a0830187614667565b81810360c08301526146ed8186614588565b90506146fc60e0830185614667565b61470a6101008301846145cd565b9a9950505050505050505050565b600060c08201905061472d60008301896144ae565b818103602083015261473f8188614588565b905081810360408301526147538187614588565b905081810360608301526147678186614588565b9050818103608083015261477b8185614588565b905061478a60a08301846145cd565b979650505050505050565b60006101008201905081810360008301526147b0818b614588565b90506147bf602083018a6144ae565b6147cc6040830189614667565b81810360608301526147de8188614588565b90506147ed6080830187614667565b81810360a08301526147ff8186614588565b905061480e60c0830185614667565b61481b60e08301846145cd565b9998505050505050505050565b600060208201905061483d60008301846145cd565b92915050565b600080fd5b600080fd5b7f4e487b7100000000000000000000000000000000000000000000000000000000600052604160045260246000fd5b61488582614577565b810181811067ffffffffffffffff821117156148a4576148a361484d565b5b80604052505050565b60006148b7614405565b90506148c3828261487c565b919050565b600067ffffffffffffffff8211156148e3576148e261484d565b5b6148ec82614577565b9050602081019050919050565b82818337600083830152505050565b600061491b614916846148c8565b6148ad565b90508281526020810184848401111561493757614936614848565b5b6149428482856148f9565b509392505050565b600082601f83011261495f5761495e614843565b5b813561496f848260208601614908565b91505092915050565b6000806000606084860312156149915761499061440f565b5b600061499f868287016144ef565b935050602084013567ffffffffffffffff8111156149c0576149bf614414565b5b6149cc8682870161494a565b92505060406149dd8682870161443a565b9150509250925092565b60006040820190508181036000830152614a018185614588565b9050614a106020830184614667565b9392505050565b600080600080600060a08688031215614a3357614a3261440f565b5b6000614a41888289016144ef565b955050602086013567ffffffffffffffff811115614a6257614a61614414565b5b614a6e8882890161494a565b945050604086013567ffffffffffffffff811115614a8f57614a8e614414565b5b614a9b8882890161494a565b935050606086013567ffffffffffffffff811115614abc57614abb614414565b5b614ac88882890161494a565b925050608086013567ffffffffffffffff811115614ae957614ae8614414565b5b614af58882890161494a565b9150509295509295909350565b6000606082019050614b1760008301866144ae565b8181036020830152614b298185614588565b9050614b386040830184614667565b949350505050565b600080600080600080600080610100898b031215614b6157614b6061440f565b5b6000614b6f8b828c016144ef565b985050602089013567ffffffffffffffff811115614b9057614b8f614414565b5b614b9c8b828c0161494a565b9750506040614bad8b828c0161443a565b9650506060614bbe8b828c0161443a565b955050608089013567ffffffffffffffff811115614bdf57614bde614414565b5b614beb8b828c0161494a565b94505060a0614bfc8b828c0161443a565b93505060c089013567ffffffffffffffff811115614c1d57614c1c614414565b5b614c298b828c0161494a565b92505060e0614c3a8b828c0161443a565b9150509295985092959890939650565b60008060408385031215614c6157614c6061440f565b5b6000614c6f858286016144ef565b9250506020614c80858286016144ef565b9150509250929050565b7f4e487b7100000000000000000000000000000000000000000000000000000000600052602260045260246000fd5b60006002820490506001821680614cd157607f821691505b602082108103614ce457614ce3614c8a565b5b50919050565b7f7573657220646f6e277420686176652061636365737320696e20796f7572206460008201527f6174610000000000000000000000000000000000000000000000000000000000602082015250565b6000614d4660238361453c565b9150614d5182614cea565b604082019050919050565b60006020820190508181036000830152614d7581614d39565b9050919050565b7f466f6f6420496e64757374727920616c72656164792061646465640000000000600082015250565b6000614db2601b8361453c565b9150614dbd82614d7c565b602082019050919050565b60006020820190508181036000830152614de181614da5565b9050919050565b60008190508160005260206000209050919050565b60006020601f8301049050919050565b600082821b905092915050565b600060088302614e4a7fffffffffffffffffffffffffffffffffffffffffffffffffffffffffffffffff82614e0d565b614e548683614e0d565b95508019841693508086168417925050509392505050565b6000819050919050565b6000614e91614e8c614e8784614419565b614e6c565b614419565b9050919050565b6000819050919050565b614eab83614e76565b614ebf614eb782614e98565b848454614e1a565b825550505050565b600090565b614ed4614ec7565b614edf818484614ea2565b505050565b5b81811015614f0357614ef8600082614ecc565b600181019050614ee5565b5050565b601f821115614f4857614f1981614de8565b614f2284614dfd565b81016020851015614f31578190505b614f45614f3d85614dfd565b830182614ee4565b50505b505050565b600082821c905092915050565b6000614f6b60001984600802614f4d565b1980831691505092915050565b6000614f848383614f5a565b9150826002028217905092915050565b614f9d82614531565b67ffffffffffffffff811115614fb657614fb561484d565b5b614fc08254614cb9565b614fcb828285614f07565b600060209050601f831160018114614ffe5760008415614fec578287015190505b614ff68582614f78565b86555061505e565b601f19841661500c86614de8565b60005b828110156150345784890151825560018201915060208501945060208101905061500f565b86831015615051578489015161504d601f891682614f5a565b8355505b6001600288020188555050505b505050505050565b7f596f75206861766520616c726561647920616464656420796f7572204372656460008201527f656e7469616c0000000000000000000000000000000000000000000000000000602082015250565b60006150c260268361453c565b91506150cd82615066565b604082019050919050565b600060208201905081810360008301526150f1816150b5565b9050919050565b7f596f75206861766520616c726561647920616464656420796f757273656c6600600082015250565b600061512e601f8361453c565b9150615139826150f8565b602082019050919050565b6000602082019050818103600083015261515d81615121565b9050919050565b7f506861726d61637920616c726561647920616464656400000000000000000000600082015250565b600061519a60168361453c565b91506151a582615164565b602082019050919050565b600060208201905081810360008301526151c98161518d565b9050919050565b7f486f73706974616c20616c726561647920616464656400000000000000000000600082015250565b600061520660168361453c565b9150615211826151d0565b602082019050919050565b60006020820190508181036000830152615235816151f9565b9050919050565b7f506861726d61637920436f6d70616e7920616c72656164792061646465640000600082015250565b6000615272601e8361453c565b915061527d8261523c565b602082019050919050565b600060208201905081810360008301526152a181615265565b9050919050565b7f446f63746f7220616c7265616479206164646564000000000000000000000000600082015250565b60006152de60148361453c565b91506152e9826152a8565b602082019050919050565b6000602082019050818103600083015261530d816152d1565b9050919050565b7f4461746120416e616c79737420616c7265616479206164646564000000000000600082015250565b600061534a601a8361453c565b915061535582615314565b602082019050919050565b600060208201905081810360008301526153798161533d565b9050919050565b7f506861726d61636965737420616c726561647920616464656400000000000000600082015250565b60006153b660198361453c565b91506153c182615380565b602082019050919050565b600060208201905081810360008301526153e5816153a9565b905091905056fea2646970667358221220d96e406124a42249e82f1bb55f6689c610fe411cbb5045559b228612a8fa428a64736f6c63430008110033",
  "linkReferences": {},
  "deployedLinkReferences": {}
}