{
  "_format": "hh-sol-artifact-1",
  "contractName": "Helth",
  "sourceName": "contracts/Health.sol",
  "abi": [
    {
      "inputs": [
        {
          "internalType": "contract PatientData",
          "name": "_PatientContract",
          "type": "address"
        }
      ],
      "stateMutability": "nonpayable",
      "type": "constructor"
    },
    {
      "inputs": [],
      "name": "ContractOwner",
      "outputs": [
        {
          "internalType": "address",
          "name": "",
          "type": "address"
        }
      ],
      "stateMutability": "view",
      "type": "function"
    },
    {
      "inputs": [],
      "name": "Patient",
      "outputs": [
        {
          "internalType": "contract PatientData",
          "name": "",
          "type": "address"
        }
      ],
      "stateMutability": "view",
      "type": "function"
    },
    {
      "inputs": [
        {
          "internalType": "address",
          "name": "_dataAnalyst",
          "type": "address"
        },
        {
          "internalType": "string",
          "name": "_name",
          "type": "string"
        },
        {
          "internalType": "uint256",
          "name": "_dataAnalystId",
          "type": "uint256"
        }
      ],
      "name": "addDataAnalyst",
      "outputs": [],
      "stateMutability": "nonpayable",
      "type": "function"
    },
    {
      "inputs": [
        {
          "internalType": "address",
          "name": "_doctor",
          "type": "address"
        },
        {
          "internalType": "string",
          "name": "_name",
          "type": "string"
        },
        {
          "internalType": "uint256",
          "name": "_age",
          "type": "uint256"
        },
        {
          "internalType": "uint256",
          "name": "_doctorId",
          "type": "uint256"
        },
        {
          "internalType": "uint256",
          "name": "_nid",
          "type": "uint256"
        }
      ],
      "name": "addDoctor",
      "outputs": [],
      "stateMutability": "nonpayable",
      "type": "function"
    },
    {
      "inputs": [
        {
          "internalType": "address",
          "name": "_foodIndusty",
          "type": "address"
        },
        {
          "internalType": "string",
          "name": "_name",
          "type": "string"
        },
        {
          "internalType": "uint256",
          "name": "_foodIndustyId",
          "type": "uint256"
        }
      ],
      "name": "addFoodIndusty",
      "outputs": [],
      "stateMutability": "nonpayable",
      "type": "function"
    },
    {
      "inputs": [
        {
          "internalType": "address",
          "name": "_hospital",
          "type": "address"
        },
        {
          "internalType": "string",
          "name": "_name",
          "type": "string"
        },
        {
          "internalType": "uint256",
          "name": "_hospitalId",
          "type": "uint256"
        }
      ],
      "name": "addHospital",
      "outputs": [],
      "stateMutability": "nonpayable",
      "type": "function"
    },
    {
      "inputs": [
        {
          "internalType": "address",
          "name": "_pharmaciest",
          "type": "address"
        },
        {
          "internalType": "string",
          "name": "_name",
          "type": "string"
        },
        {
          "internalType": "uint256",
          "name": "_pharmaciestId",
          "type": "uint256"
        }
      ],
      "name": "addPharmaciest",
      "outputs": [],
      "stateMutability": "nonpayable",
      "type": "function"
    },
    {
      "inputs": [
        {
          "internalType": "address",
          "name": "_pharmacy",
          "type": "address"
        },
        {
          "internalType": "string",
          "name": "_name",
          "type": "string"
        },
        {
          "internalType": "uint256",
          "name": "_pharmacyId",
          "type": "uint256"
        }
      ],
      "name": "addPharmacy",
      "outputs": [],
      "stateMutability": "nonpayable",
      "type": "function"
    },
    {
      "inputs": [
        {
          "internalType": "address",
          "name": "_pharmacyCompany",
          "type": "address"
        },
        {
          "internalType": "string",
          "name": "_name",
          "type": "string"
        },
        {
          "internalType": "uint256",
          "name": "_pharmacyCompanyId",
          "type": "uint256"
        }
      ],
      "name": "addPharmacyCompany",
      "outputs": [],
      "stateMutability": "nonpayable",
      "type": "function"
    },
    {
      "inputs": [],
      "name": "admin",
      "outputs": [
        {
          "internalType": "address",
          "name": "",
          "type": "address"
        }
      ],
      "stateMutability": "view",
      "type": "function"
    },
    {
      "inputs": [
        {
          "internalType": "uint256",
          "name": "",
          "type": "uint256"
        }
      ],
      "name": "allAddress",
      "outputs": [
        {
          "internalType": "address",
          "name": "",
          "type": "address"
        }
      ],
      "stateMutability": "view",
      "type": "function"
    },
    {
      "inputs": [
        {
          "internalType": "address",
          "name": "",
          "type": "address"
        }
      ],
      "name": "allDataAnalyst",
      "outputs": [
        {
          "internalType": "address",
          "name": "dataAnalyst",
          "type": "address"
        },
        {
          "internalType": "string",
          "name": "name",
          "type": "string"
        },
        {
          "internalType": "uint256",
          "name": "dataAnalystId",
          "type": "uint256"
        },
        {
          "internalType": "bool",
          "name": "isAdded",
          "type": "bool"
        },
        {
          "internalType": "bool",
          "name": "dataAccress",
          "type": "bool"
        }
      ],
      "stateMutability": "view",
      "type": "function"
    },
    {
      "inputs": [
        {
          "internalType": "uint256",
          "name": "",
          "type": "uint256"
        }
      ],
      "name": "allDataAnalystAddress",
      "outputs": [
        {
          "internalType": "address",
          "name": "",
          "type": "address"
        }
      ],
      "stateMutability": "view",
      "type": "function"
    },
    {
      "inputs": [
        {
          "internalType": "address",
          "name": "",
          "type": "address"
        }
      ],
      "name": "allDoctor",
      "outputs": [
        {
          "internalType": "address",
          "name": "doctor",
          "type": "address"
        },
        {
          "internalType": "string",
          "name": "name",
          "type": "string"
        },
        {
          "internalType": "uint256",
          "name": "age",
          "type": "uint256"
        },
        {
          "internalType": "uint256",
          "name": "doctorId",
          "type": "uint256"
        },
        {
          "internalType": "uint256",
          "name": "nid",
          "type": "uint256"
        },
        {
          "internalType": "bool",
          "name": "isAdded",
          "type": "bool"
        },
        {
          "internalType": "bool",
          "name": "dataAccress",
          "type": "bool"
        }
      ],
      "stateMutability": "view",
      "type": "function"
    },
    {
      "inputs": [
        {
          "internalType": "uint256",
          "name": "",
          "type": "uint256"
        }
      ],
      "name": "allDoctorAddress",
      "outputs": [
        {
          "internalType": "address",
          "name": "",
          "type": "address"
        }
      ],
      "stateMutability": "view",
      "type": "function"
    },
    {
      "inputs": [
        {
          "internalType": "address",
          "name": "",
          "type": "address"
        }
      ],
      "name": "allFoodIndusty",
      "outputs": [
        {
          "internalType": "address",
          "name": "foodIndusty",
          "type": "address"
        },
        {
          "internalType": "string",
          "name": "name",
          "type": "string"
        },
        {
          "internalType": "uint256",
          "name": "foodIndustyId",
          "type": "uint256"
        },
        {
          "internalType": "bool",
          "name": "isAdded",
          "type": "bool"
        },
        {
          "internalType": "bool",
          "name": "dataAccress",
          "type": "bool"
        }
      ],
      "stateMutability": "view",
      "type": "function"
    },
    {
      "inputs": [
        {
          "internalType": "uint256",
          "name": "",
          "type": "uint256"
        }
      ],
      "name": "allFoodIndustyAddress",
      "outputs": [
        {
          "internalType": "address",
          "name": "",
          "type": "address"
        }
      ],
      "stateMutability": "view",
      "type": "function"
    },
    {
      "inputs": [
        {
          "internalType": "address",
          "name": "",
          "type": "address"
        }
      ],
      "name": "allHospital",
      "outputs": [
        {
          "internalType": "address",
          "name": "hospital",
          "type": "address"
        },
        {
          "internalType": "string",
          "name": "name",
          "type": "string"
        },
        {
          "internalType": "uint256",
          "name": "hospitalId",
          "type": "uint256"
        },
        {
          "internalType": "bool",
          "name": "isAdded",
          "type": "bool"
        },
        {
          "internalType": "bool",
          "name": "dataAccress",
          "type": "bool"
        }
      ],
      "stateMutability": "view",
      "type": "function"
    },
    {
      "inputs": [
        {
          "internalType": "uint256",
          "name": "",
          "type": "uint256"
        }
      ],
      "name": "allHospitalAddress",
      "outputs": [
        {
          "internalType": "address",
          "name": "",
          "type": "address"
        }
      ],
      "stateMutability": "view",
      "type": "function"
    },
    {
      "inputs": [
        {
          "internalType": "address",
          "name": "",
          "type": "address"
        }
      ],
      "name": "allPharmaciest",
      "outputs": [
        {
          "internalType": "address",
          "name": "pharmaciest",
          "type": "address"
        },
        {
          "internalType": "string",
          "name": "name",
          "type": "string"
        },
        {
          "internalType": "uint256",
          "name": "pharmaciestId",
          "type": "uint256"
        },
        {
          "internalType": "bool",
          "name": "isAdded",
          "type": "bool"
        },
        {
          "internalType": "bool",
          "name": "dataAccress",
          "type": "bool"
        }
      ],
      "stateMutability": "view",
      "type": "function"
    },
    {
      "inputs": [
        {
          "internalType": "uint256",
          "name": "",
          "type": "uint256"
        }
      ],
      "name": "allPharmaciestAddress",
      "outputs": [
        {
          "internalType": "address",
          "name": "",
          "type": "address"
        }
      ],
      "stateMutability": "view",
      "type": "function"
    },
    {
      "inputs": [
        {
          "internalType": "address",
          "name": "",
          "type": "address"
        }
      ],
      "name": "allPharmacy",
      "outputs": [
        {
          "internalType": "address",
          "name": "pharmacy",
          "type": "address"
        },
        {
          "internalType": "string",
          "name": "name",
          "type": "string"
        },
        {
          "internalType": "uint256",
          "name": "pharmacyId",
          "type": "uint256"
        },
        {
          "internalType": "bool",
          "name": "isAdded",
          "type": "bool"
        },
        {
          "internalType": "bool",
          "name": "dataAccress",
          "type": "bool"
        }
      ],
      "stateMutability": "view",
      "type": "function"
    },
    {
      "inputs": [
        {
          "internalType": "uint256",
          "name": "",
          "type": "uint256"
        }
      ],
      "name": "allPharmacyAddress",
      "outputs": [
        {
          "internalType": "address",
          "name": "",
          "type": "address"
        }
      ],
      "stateMutability": "view",
      "type": "function"
    },
    {
      "inputs": [
        {
          "internalType": "address",
          "name": "",
          "type": "address"
        }
      ],
      "name": "allPharmacyCompany",
      "outputs": [
        {
          "internalType": "address",
          "name": "pharmacyCompany",
          "type": "address"
        },
        {
          "internalType": "string",
          "name": "name",
          "type": "string"
        },
        {
          "internalType": "uint256",
          "name": "pharmacyCompanyId",
          "type": "uint256"
        },
        {
          "internalType": "bool",
          "name": "isAdded",
          "type": "bool"
        },
        {
          "internalType": "bool",
          "name": "dataAccress",
          "type": "bool"
        }
      ],
      "stateMutability": "view",
      "type": "function"
    },
    {
      "inputs": [
        {
          "internalType": "uint256",
          "name": "",
          "type": "uint256"
        }
      ],
      "name": "allPharmacyCompanyAddress",
      "outputs": [
        {
          "internalType": "address",
          "name": "",
          "type": "address"
        }
      ],
      "stateMutability": "view",
      "type": "function"
    },
    {
      "inputs": [
        {
          "internalType": "address",
          "name": "_dataAnalyst",
          "type": "address"
        }
      ],
      "name": "viewDataAnalyst",
      "outputs": [
        {
          "internalType": "address",
          "name": "",
          "type": "address"
        },
        {
          "internalType": "string",
          "name": "",
          "type": "string"
        },
        {
          "internalType": "uint256",
          "name": "",
          "type": "uint256"
        },
        {
          "internalType": "bool",
          "name": "",
          "type": "bool"
        }
      ],
      "stateMutability": "view",
      "type": "function"
    },
    {
      "inputs": [
        {
          "internalType": "address",
          "name": "_doctor",
          "type": "address"
        }
      ],
      "name": "viewDoctor",
      "outputs": [
        {
          "internalType": "address",
          "name": "",
          "type": "address"
        },
        {
          "internalType": "string",
          "name": "",
          "type": "string"
        },
        {
          "internalType": "uint256",
          "name": "",
          "type": "uint256"
        },
        {
          "internalType": "uint256",
          "name": "",
          "type": "uint256"
        },
        {
          "internalType": "uint256",
          "name": "",
          "type": "uint256"
        },
        {
          "internalType": "bool",
          "name": "",
          "type": "bool"
        }
      ],
      "stateMutability": "view",
      "type": "function"
    },
    {
      "inputs": [
        {
          "internalType": "address",
          "name": "_foodIndusty",
          "type": "address"
        }
      ],
      "name": "viewFoodIndusty",
      "outputs": [
        {
          "internalType": "address",
          "name": "",
          "type": "address"
        },
        {
          "internalType": "string",
          "name": "",
          "type": "string"
        },
        {
          "internalType": "uint256",
          "name": "",
          "type": "uint256"
        },
        {
          "internalType": "bool",
          "name": "",
          "type": "bool"
        }
      ],
      "stateMutability": "view",
      "type": "function"
    },
    {
      "inputs": [
        {
          "internalType": "address",
          "name": "_hospital",
          "type": "address"
        }
      ],
      "name": "viewHospital",
      "outputs": [
        {
          "internalType": "address",
          "name": "",
          "type": "address"
        },
        {
          "internalType": "string",
          "name": "",
          "type": "string"
        },
        {
          "internalType": "uint256",
          "name": "",
          "type": "uint256"
        },
        {
          "internalType": "bool",
          "name": "",
          "type": "bool"
        }
      ],
      "stateMutability": "view",
      "type": "function"
    },
    {
      "inputs": [
        {
          "internalType": "address",
          "name": "_pharmaciest",
          "type": "address"
        }
      ],
      "name": "viewPharmaciest",
      "outputs": [
        {
          "internalType": "address",
          "name": "",
          "type": "address"
        },
        {
          "internalType": "string",
          "name": "",
          "type": "string"
        },
        {
          "internalType": "uint256",
          "name": "",
          "type": "uint256"
        },
        {
          "internalType": "bool",
          "name": "",
          "type": "bool"
        }
      ],
      "stateMutability": "view",
      "type": "function"
    },
    {
      "inputs": [
        {
          "internalType": "address",
          "name": "_pharmacy",
          "type": "address"
        }
      ],
      "name": "viewPharmacy",
      "outputs": [
        {
          "internalType": "address",
          "name": "",
          "type": "address"
        },
        {
          "internalType": "string",
          "name": "",
          "type": "string"
        },
        {
          "internalType": "uint256",
          "name": "",
          "type": "uint256"
        },
        {
          "internalType": "bool",
          "name": "",
          "type": "bool"
        }
      ],
      "stateMutability": "view",
      "type": "function"
    },
    {
      "inputs": [
        {
          "internalType": "address",
          "name": "_pharmacyCompany",
          "type": "address"
        }
      ],
      "name": "viewPharmacyCompany",
      "outputs": [
        {
          "internalType": "address",
          "name": "",
          "type": "address"
        },
        {
          "internalType": "string",
          "name": "",
          "type": "string"
        },
        {
          "internalType": "uint256",
          "name": "",
          "type": "uint256"
        },
        {
          "internalType": "bool",
          "name": "",
          "type": "bool"
        }
      ],
      "stateMutability": "view",
      "type": "function"
    }
  ],
  "bytecode": "0x60806040523480156200001157600080fd5b506040516200393c3803806200393c83398181016040528101906200003791906200013d565b806000806101000a81548173ffffffffffffffffffffffffffffffffffffffff021916908373ffffffffffffffffffffffffffffffffffffffff16021790555033600160006101000a81548173ffffffffffffffffffffffffffffffffffffffff021916908373ffffffffffffffffffffffffffffffffffffffff160217905550506200016f565b600080fd5b600073ffffffffffffffffffffffffffffffffffffffff82169050919050565b6000620000f182620000c4565b9050919050565b60006200010582620000e4565b9050919050565b6200011781620000f8565b81146200012357600080fd5b50565b60008151905062000137816200010c565b92915050565b600060208284031215620001565762000155620000bf565b5b6000620001668482850162000126565b91505092915050565b6137bd806200017f6000396000f3fe608060405234801561001057600080fd5b50600436106101f05760003560e01c806386e62dc81161010f578063a9cee49a116100a2578063e8a5733c11610071578063e8a5733c146106e2578063ee7df0b4146106fe578063f851a4401461071a578063fb57baff14610738576101f0565b8063a9cee49a14610628578063ac40c9a81461065b578063b03a985d14610679578063cd32d81b146106ae576101f0565b80639a8243c1116100de5780639a8243c114610590578063a7907823146105ac578063a865eacd146105dc578063a8cef27a146105f8576101f0565b806386e62dc8146104da5780638e87d2f91461051057806394f233d2146105405780639605f44414610574576101f0565b80635a63fbc9116101875780636bd16a33116101565780636bd16a331461042757806372f96ccc1461045a5780637645dea41461048e5780637dd84895146104aa576101f0565b80635a63fbc9146103715780635d7a1b271461038f57806368def1b6146103c35780636b75d055146103f3576101f0565b80634798c711116101c35780634798c711146102a757806352e5904e146102da578063574eb6ba1461030e578063590ce34d14610341576101f0565b80630eb4ce37146101f55780631835916614610228578063325b5c791461025b5780634189f7e61461028b575b600080fd5b61020f600480360381019061020a9190612d1a565b610768565b60405161021f9493929190612e1a565b60405180910390f35b610242600480360381019061023d9190612d1a565b6109a6565b6040516102529493929190612e1a565b60405180910390f35b61027560048036038101906102709190612e92565b610be4565b6040516102829190612ebf565b60405180910390f35b6102a560048036038101906102a0919061300f565b610c23565b005b6102c160048036038101906102bc9190612d1a565b610de0565b6040516102d19493929190612e1a565b60405180910390f35b6102f460048036038101906102ef9190612d1a565b61101e565b60405161030595949392919061307e565b60405180910390f35b61032860048036038101906103239190612d1a565b611116565b6040516103389493929190612e1a565b60405180910390f35b61035b60048036038101906103569190612e92565b611354565b6040516103689190612ebf565b60405180910390f35b610379611393565b6040516103869190612ebf565b60405180910390f35b6103a960048036038101906103a49190612d1a565b6113b9565b6040516103ba95949392919061307e565b60405180910390f35b6103dd60048036038101906103d89190612e92565b6114b1565b6040516103ea9190612ebf565b60405180910390f35b61040d60048036038101906104089190612d1a565b6114f0565b60405161041e95949392919061307e565b60405180910390f35b610441600480360381019061043c9190612d1a565b6115e8565b6040516104519493929190612e1a565b60405180910390f35b610474600480360381019061046f9190612d1a565b611826565b60405161048595949392919061307e565b60405180910390f35b6104a860048036038101906104a391906130d8565b61191e565b005b6104c460048036038101906104bf9190612e92565b611aef565b6040516104d19190612ebf565b60405180910390f35b6104f460048036038101906104ef9190612d1a565b611b2e565b604051610507979695949392919061316f565b60405180910390f35b61052a60048036038101906105259190612e92565b611c32565b6040516105379190612ebf565b60405180910390f35b61055a60048036038101906105559190612d1a565b611c71565b60405161056b95949392919061307e565b60405180910390f35b61058e6004803603810190610589919061300f565b611d69565b005b6105aa60048036038101906105a5919061300f565b611f26565b005b6105c660048036038101906105c19190612e92565b6120e3565b6040516105d39190612ebf565b60405180910390f35b6105f660048036038101906105f1919061300f565b612122565b005b610612600480360381019061060d9190612e92565b6122df565b60405161061f9190612ebf565b60405180910390f35b610642600480360381019061063d9190612d1a565b61231e565b6040516106529493929190612e1a565b60405180910390f35b61066361255c565b6040516106709190613244565b60405180910390f35b610693600480360381019061068e9190612d1a565b612580565b6040516106a59695949392919061325f565b60405180910390f35b6106c860048036038101906106c39190612d1a565b6127d1565b6040516106d995949392919061307e565b60405180910390f35b6106fc60048036038101906106f7919061300f565b6128c9565b005b6107186004803603810190610713919061300f565b612a86565b005b610722612c43565b60405161072f9190612ebf565b60405180910390f35b610752600480360381019061074d9190612e92565b612c69565b60405161075f9190612ebf565b60405180910390f35b600060606000803373ffffffffffffffffffffffffffffffffffffffff168573ffffffffffffffffffffffffffffffffffffffff16148061084857506001151560008054906101000a900473ffffffffffffffffffffffffffffffffffffffff1673ffffffffffffffffffffffffffffffffffffffff1663d96e84a587336040518363ffffffff1660e01b81526004016108039291906132c7565b602060405180830381865afa158015610820573d6000803e3d6000fd5b505050506040513d601f19601f82011682018060405250810190610844919061331c565b1515145b610887576040517f08c379a000000000000000000000000000000000000000000000000000000000815260040161087e906133bb565b60405180910390fd5b6000600760008773ffffffffffffffffffffffffffffffffffffffff1673ffffffffffffffffffffffffffffffffffffffff16815260200190815260200160002090508060000160009054906101000a900473ffffffffffffffffffffffffffffffffffffffff168160010182600201548360030160009054906101000a900460ff168280546109169061340a565b80601f01602080910402602001604051908101604052809291908181526020018280546109429061340a565b801561098f5780601f106109645761010080835404028352916020019161098f565b820191906000526020600020905b81548152906001019060200180831161097257829003601f168201915b505050505092509450945094509450509193509193565b600060606000803373ffffffffffffffffffffffffffffffffffffffff168573ffffffffffffffffffffffffffffffffffffffff161480610a8657506001151560008054906101000a900473ffffffffffffffffffffffffffffffffffffffff1673ffffffffffffffffffffffffffffffffffffffff1663d96e84a587336040518363ffffffff1660e01b8152600401610a419291906132c7565b602060405180830381865afa158015610a5e573d6000803e3d6000fd5b505050506040513d601f19601f82011682018060405250810190610a82919061331c565b1515145b610ac5576040517f08c379a0000000000000000000000000000000000000000000000000000000008152600401610abc906133bb565b60405180910390fd5b6000600560008773ffffffffffffffffffffffffffffffffffffffff1673ffffffffffffffffffffffffffffffffffffffff16815260200190815260200160002090508060000160009054906101000a900473ffffffffffffffffffffffffffffffffffffffff168160010182600201548360030160009054906101000a900460ff16828054610b549061340a565b80601f0160208091040260200160405190810160405280929190818152602001828054610b809061340a565b8015610bcd5780601f10610ba257610100808354040283529160200191610bcd565b820191906000526020600020905b815481529060010190602001808311610bb057829003601f168201915b505050505092509450945094509450509193509193565b600d8181548110610bf457600080fd5b906000526020600020016000915054906101000a900473ffffffffffffffffffffffffffffffffffffffff1681565b60001515600560008573ffffffffffffffffffffffffffffffffffffffff1673ffffffffffffffffffffffffffffffffffffffff16815260200190815260200160002060030160009054906101000a900460ff16151514610cb9576040517f08c379a0000000000000000000000000000000000000000000000000000000008152600401610cb090613487565b60405180910390fd5b6000600560008573ffffffffffffffffffffffffffffffffffffffff1673ffffffffffffffffffffffffffffffffffffffff1681526020019081526020016000209050838160000160006101000a81548173ffffffffffffffffffffffffffffffffffffffff021916908373ffffffffffffffffffffffffffffffffffffffff16021790555082816001019081610d509190613649565b5081816002018190555060018160030160006101000a81548160ff021916908315150217905550600c849080600181540180825580915050600190039060005260206000200160009091909190916101000a81548173ffffffffffffffffffffffffffffffffffffffff021916908373ffffffffffffffffffffffffffffffffffffffff16021790555050505050565b600060606000803373ffffffffffffffffffffffffffffffffffffffff168573ffffffffffffffffffffffffffffffffffffffff161480610ec057506001151560008054906101000a900473ffffffffffffffffffffffffffffffffffffffff1673ffffffffffffffffffffffffffffffffffffffff1663d96e84a587336040518363ffffffff1660e01b8152600401610e7b9291906132c7565b602060405180830381865afa158015610e98573d6000803e3d6000fd5b505050506040513d601f19601f82011682018060405250810190610ebc919061331c565b1515145b610eff576040517f08c379a0000000000000000000000000000000000000000000000000000000008152600401610ef6906133bb565b60405180910390fd5b6000600860008773ffffffffffffffffffffffffffffffffffffffff1673ffffffffffffffffffffffffffffffffffffffff16815260200190815260200160002090508060000160009054906101000a900473ffffffffffffffffffffffffffffffffffffffff168160010182600201548360030160009054906101000a900460ff16828054610f8e9061340a565b80601f0160208091040260200160405190810160405280929190818152602001828054610fba9061340a565b80156110075780601f10610fdc57610100808354040283529160200191611007565b820191906000526020600020905b815481529060010190602001808311610fea57829003601f168201915b505050505092509450945094509450509193509193565b60086020528060005260406000206000915090508060000160009054906101000a900473ffffffffffffffffffffffffffffffffffffffff16908060010180546110679061340a565b80601f01602080910402602001604051908101604052809291908181526020018280546110939061340a565b80156110e05780601f106110b5576101008083540402835291602001916110e0565b820191906000526020600020905b8154815290600101906020018083116110c357829003601f168201915b5050505050908060020154908060030160009054906101000a900460ff16908060030160019054906101000a900460ff16905085565b600060606000803373ffffffffffffffffffffffffffffffffffffffff168573ffffffffffffffffffffffffffffffffffffffff1614806111f657506001151560008054906101000a900473ffffffffffffffffffffffffffffffffffffffff1673ffffffffffffffffffffffffffffffffffffffff1663d96e84a587336040518363ffffffff1660e01b81526004016111b19291906132c7565b602060405180830381865afa1580156111ce573d6000803e3d6000fd5b505050506040513d601f19601f820116820180604052508101906111f2919061331c565b1515145b611235576040517f08c379a000000000000000000000000000000000000000000000000000000000815260040161122c906133bb565b60405180910390fd5b6000600360008773ffffffffffffffffffffffffffffffffffffffff1673ffffffffffffffffffffffffffffffffffffffff16815260200190815260200160002090508060000160009054906101000a900473ffffffffffffffffffffffffffffffffffffffff168160010182600201548360030160009054906101000a900460ff168280546112c49061340a565b80601f01602080910402602001604051908101604052809291908181526020018280546112f09061340a565b801561133d5780601f106113125761010080835404028352916020019161133d565b820191906000526020600020905b81548152906001019060200180831161132057829003601f168201915b505050505092509450945094509450509193509193565b600c818154811061136457600080fd5b906000526020600020016000915054906101000a900473ffffffffffffffffffffffffffffffffffffffff1681565b601160009054906101000a900473ffffffffffffffffffffffffffffffffffffffff1681565b60046020528060005260406000206000915090508060000160009054906101000a900473ffffffffffffffffffffffffffffffffffffffff16908060010180546114029061340a565b80601f016020809104026020016040519081016040528092919081815260200182805461142e9061340a565b801561147b5780601f106114505761010080835404028352916020019161147b565b820191906000526020600020905b81548152906001019060200180831161145e57829003601f168201915b5050505050908060020154908060030160009054906101000a900460ff16908060030160019054906101000a900460ff16905085565b600b81815481106114c157600080fd5b906000526020600020016000915054906101000a900473ffffffffffffffffffffffffffffffffffffffff1681565b60036020528060005260406000206000915090508060000160009054906101000a900473ffffffffffffffffffffffffffffffffffffffff16908060010180546115399061340a565b80601f01602080910402602001604051908101604052809291908181526020018280546115659061340a565b80156115b25780601f10611587576101008083540402835291602001916115b2565b820191906000526020600020905b81548152906001019060200180831161159557829003601f168201915b5050505050908060020154908060030160009054906101000a900460ff16908060030160019054906101000a900460ff16905085565b600060606000803373ffffffffffffffffffffffffffffffffffffffff168573ffffffffffffffffffffffffffffffffffffffff1614806116c857506001151560008054906101000a900473ffffffffffffffffffffffffffffffffffffffff1673ffffffffffffffffffffffffffffffffffffffff1663d96e84a587336040518363ffffffff1660e01b81526004016116839291906132c7565b602060405180830381865afa1580156116a0573d6000803e3d6000fd5b505050506040513d601f19601f820116820180604052508101906116c4919061331c565b1515145b611707576040517f08c379a00000000000000000000000000000000000000000000000000000000081526004016116fe906133bb565b60405180910390fd5b6000600660008773ffffffffffffffffffffffffffffffffffffffff1673ffffffffffffffffffffffffffffffffffffffff16815260200190815260200160002090508060000160009054906101000a900473ffffffffffffffffffffffffffffffffffffffff168160010182600201548360030160009054906101000a900460ff168280546117969061340a565b80601f01602080910402602001604051908101604052809291908181526020018280546117c29061340a565b801561180f5780601f106117e45761010080835404028352916020019161180f565b820191906000526020600020905b8154815290600101906020018083116117f257829003601f168201915b505050505092509450945094509450509193509193565b60076020528060005260406000206000915090508060000160009054906101000a900473ffffffffffffffffffffffffffffffffffffffff169080600101805461186f9061340a565b80601f016020809104026020016040519081016040528092919081815260200182805461189b9061340a565b80156118e85780601f106118bd576101008083540402835291602001916118e8565b820191906000526020600020905b8154815290600101906020018083116118cb57829003601f168201915b5050505050908060020154908060030160009054906101000a900460ff16908060030160019054906101000a900460ff16905085565b60001515600260008773ffffffffffffffffffffffffffffffffffffffff1673ffffffffffffffffffffffffffffffffffffffff16815260200190815260200160002060050160009054906101000a900460ff161515146119b4576040517f08c379a00000000000000000000000000000000000000000000000000000000081526004016119ab90613487565b60405180910390fd5b6000600260008773ffffffffffffffffffffffffffffffffffffffff1673ffffffffffffffffffffffffffffffffffffffff1681526020019081526020016000209050858160000160006101000a81548173ffffffffffffffffffffffffffffffffffffffff021916908373ffffffffffffffffffffffffffffffffffffffff16021790555084816001019081611a4b9190613649565b5083816002018190555082816003018190555081816004018190555060018160050160006101000a81548160ff0219169083151502179055506009869080600181540180825580915050600190039060005260206000200160009091909190916101000a81548173ffffffffffffffffffffffffffffffffffffffff021916908373ffffffffffffffffffffffffffffffffffffffff160217905550505050505050565b600f8181548110611aff57600080fd5b906000526020600020016000915054906101000a900473ffffffffffffffffffffffffffffffffffffffff1681565b60026020528060005260406000206000915090508060000160009054906101000a900473ffffffffffffffffffffffffffffffffffffffff1690806001018054611b779061340a565b80601f0160208091040260200160405190810160405280929190818152602001828054611ba39061340a565b8015611bf05780601f10611bc557610100808354040283529160200191611bf0565b820191906000526020600020905b815481529060010190602001808311611bd357829003601f168201915b5050505050908060020154908060030154908060040154908060050160009054906101000a900460ff16908060050160019054906101000a900460ff16905087565b600a8181548110611c4257600080fd5b906000526020600020016000915054906101000a900473ffffffffffffffffffffffffffffffffffffffff1681565b60056020528060005260406000206000915090508060000160009054906101000a900473ffffffffffffffffffffffffffffffffffffffff1690806001018054611cba9061340a565b80601f0160208091040260200160405190810160405280929190818152602001828054611ce69061340a565b8015611d335780601f10611d0857610100808354040283529160200191611d33565b820191906000526020600020905b815481529060010190602001808311611d1657829003601f168201915b5050505050908060020154908060030160009054906101000a900460ff16908060030160019054906101000a900460ff16905085565b60001515600760008573ffffffffffffffffffffffffffffffffffffffff1673ffffffffffffffffffffffffffffffffffffffff16815260200190815260200160002060030160009054906101000a900460ff16151514611dff576040517f08c379a0000000000000000000000000000000000000000000000000000000008152600401611df690613487565b60405180910390fd5b6000600760008573ffffffffffffffffffffffffffffffffffffffff1673ffffffffffffffffffffffffffffffffffffffff1681526020019081526020016000209050838160000160006101000a81548173ffffffffffffffffffffffffffffffffffffffff021916908373ffffffffffffffffffffffffffffffffffffffff16021790555082816001019081611e969190613649565b5081816002018190555060018160030160006101000a81548160ff021916908315150217905550600e849080600181540180825580915050600190039060005260206000200160009091909190916101000a81548173ffffffffffffffffffffffffffffffffffffffff021916908373ffffffffffffffffffffffffffffffffffffffff16021790555050505050565b60001515600660008573ffffffffffffffffffffffffffffffffffffffff1673ffffffffffffffffffffffffffffffffffffffff16815260200190815260200160002060030160009054906101000a900460ff16151514611fbc576040517f08c379a0000000000000000000000000000000000000000000000000000000008152600401611fb390613767565b60405180910390fd5b6000600660008573ffffffffffffffffffffffffffffffffffffffff1673ffffffffffffffffffffffffffffffffffffffff1681526020019081526020016000209050838160000160006101000a81548173ffffffffffffffffffffffffffffffffffffffff021916908373ffffffffffffffffffffffffffffffffffffffff160217905550828160010190816120539190613649565b5081816002018190555060018160030160006101000a81548160ff021916908315150217905550600d849080600181540180825580915050600190039060005260206000200160009091909190916101000a81548173ffffffffffffffffffffffffffffffffffffffff021916908373ffffffffffffffffffffffffffffffffffffffff16021790555050505050565b600e81815481106120f357600080fd5b906000526020600020016000915054906101000a900473ffffffffffffffffffffffffffffffffffffffff1681565b60001515600360008573ffffffffffffffffffffffffffffffffffffffff1673ffffffffffffffffffffffffffffffffffffffff16815260200190815260200160002060030160009054906101000a900460ff161515146121b8576040517f08c379a00000000000000000000000000000000000000000000000000000000081526004016121af90613487565b60405180910390fd5b6000600360008573ffffffffffffffffffffffffffffffffffffffff1673ffffffffffffffffffffffffffffffffffffffff1681526020019081526020016000209050838160000160006101000a81548173ffffffffffffffffffffffffffffffffffffffff021916908373ffffffffffffffffffffffffffffffffffffffff1602179055508281600101908161224f9190613649565b5081816002018190555060018160030160006101000a81548160ff021916908315150217905550600a849080600181540180825580915050600190039060005260206000200160009091909190916101000a81548173ffffffffffffffffffffffffffffffffffffffff021916908373ffffffffffffffffffffffffffffffffffffffff16021790555050505050565b601081815481106122ef57600080fd5b906000526020600020016000915054906101000a900473ffffffffffffffffffffffffffffffffffffffff1681565b600060606000803373ffffffffffffffffffffffffffffffffffffffff168573ffffffffffffffffffffffffffffffffffffffff1614806123fe57506001151560008054906101000a900473ffffffffffffffffffffffffffffffffffffffff1673ffffffffffffffffffffffffffffffffffffffff1663d96e84a587336040518363ffffffff1660e01b81526004016123b99291906132c7565b602060405180830381865afa1580156123d6573d6000803e3d6000fd5b505050506040513d601f19601f820116820180604052508101906123fa919061331c565b1515145b61243d576040517f08c379a0000000000000000000000000000000000000000000000000000000008152600401612434906133bb565b60405180910390fd5b6000600460008773ffffffffffffffffffffffffffffffffffffffff1673ffffffffffffffffffffffffffffffffffffffff16815260200190815260200160002090508060000160009054906101000a900473ffffffffffffffffffffffffffffffffffffffff168160010182600201548360030160009054906101000a900460ff168280546124cc9061340a565b80601f01602080910402602001604051908101604052809291908181526020018280546124f89061340a565b80156125455780601f1061251a57610100808354040283529160200191612545565b820191906000526020600020905b81548152906001019060200180831161252857829003601f168201915b505050505092509450945094509450509193509193565b60008054906101000a900473ffffffffffffffffffffffffffffffffffffffff1681565b600060606000806000806000600260008973ffffffffffffffffffffffffffffffffffffffff1673ffffffffffffffffffffffffffffffffffffffff16815260200190815260200160002090503373ffffffffffffffffffffffffffffffffffffffff168873ffffffffffffffffffffffffffffffffffffffff1614806126a657506001151560008054906101000a900473ffffffffffffffffffffffffffffffffffffffff1673ffffffffffffffffffffffffffffffffffffffff1663d96e84a58a336040518363ffffffff1660e01b81526004016126619291906132c7565b602060405180830381865afa15801561267e573d6000803e3d6000fd5b505050506040513d601f19601f820116820180604052508101906126a2919061331c565b1515145b6126e5576040517f08c379a00000000000000000000000000000000000000000000000000000000081526004016126dc906133bb565b60405180910390fd5b8060000160009054906101000a900473ffffffffffffffffffffffffffffffffffffffff16816001018260020154836003015484600401548560050160009054906101000a900460ff1684805461273b9061340a565b80601f01602080910402602001604051908101604052809291908181526020018280546127679061340a565b80156127b45780601f10612789576101008083540402835291602001916127b4565b820191906000526020600020905b81548152906001019060200180831161279757829003601f168201915b505050505094509650965096509650965096505091939550919395565b60066020528060005260406000206000915090508060000160009054906101000a900473ffffffffffffffffffffffffffffffffffffffff169080600101805461281a9061340a565b80601f01602080910402602001604051908101604052809291908181526020018280546128469061340a565b80156128935780601f1061286857610100808354040283529160200191612893565b820191906000526020600020905b81548152906001019060200180831161287657829003601f168201915b5050505050908060020154908060030160009054906101000a900460ff16908060030160019054906101000a900460ff16905085565b60001515600860008573ffffffffffffffffffffffffffffffffffffffff1673ffffffffffffffffffffffffffffffffffffffff16815260200190815260200160002060030160009054906101000a900460ff1615151461295f576040517f08c379a000000000000000000000000000000000000000000000000000000000815260040161295690613487565b60405180910390fd5b6000600860008573ffffffffffffffffffffffffffffffffffffffff1673ffffffffffffffffffffffffffffffffffffffff1681526020019081526020016000209050838160000160006101000a81548173ffffffffffffffffffffffffffffffffffffffff021916908373ffffffffffffffffffffffffffffffffffffffff160217905550828160010190816129f69190613649565b5081816002018190555060018160030160006101000a81548160ff021916908315150217905550600f849080600181540180825580915050600190039060005260206000200160009091909190916101000a81548173ffffffffffffffffffffffffffffffffffffffff021916908373ffffffffffffffffffffffffffffffffffffffff16021790555050505050565b60001515600460008573ffffffffffffffffffffffffffffffffffffffff1673ffffffffffffffffffffffffffffffffffffffff16815260200190815260200160002060030160009054906101000a900460ff16151514612b1c576040517f08c379a0000000000000000000000000000000000000000000000000000000008152600401612b1390613487565b60405180910390fd5b6000600460008573ffffffffffffffffffffffffffffffffffffffff1673ffffffffffffffffffffffffffffffffffffffff1681526020019081526020016000209050838160000160006101000a81548173ffffffffffffffffffffffffffffffffffffffff021916908373ffffffffffffffffffffffffffffffffffffffff16021790555082816001019081612bb39190613649565b5081816002018190555060018160030160006101000a81548160ff021916908315150217905550600b849080600181540180825580915050600190039060005260206000200160009091909190916101000a81548173ffffffffffffffffffffffffffffffffffffffff021916908373ffffffffffffffffffffffffffffffffffffffff16021790555050505050565b600160009054906101000a900473ffffffffffffffffffffffffffffffffffffffff1681565b60098181548110612c7957600080fd5b906000526020600020016000915054906101000a900473ffffffffffffffffffffffffffffffffffffffff1681565b6000604051905090565b600080fd5b600080fd5b600073ffffffffffffffffffffffffffffffffffffffff82169050919050565b6000612ce782612cbc565b9050919050565b612cf781612cdc565b8114612d0257600080fd5b50565b600081359050612d1481612cee565b92915050565b600060208284031215612d3057612d2f612cb2565b5b6000612d3e84828501612d05565b91505092915050565b612d5081612cdc565b82525050565b600081519050919050565b600082825260208201905092915050565b60005b83811015612d90578082015181840152602081019050612d75565b60008484015250505050565b6000601f19601f8301169050919050565b6000612db882612d56565b612dc28185612d61565b9350612dd2818560208601612d72565b612ddb81612d9c565b840191505092915050565b6000819050919050565b612df981612de6565b82525050565b60008115159050919050565b612e1481612dff565b82525050565b6000608082019050612e2f6000830187612d47565b8181036020830152612e418186612dad565b9050612e506040830185612df0565b612e5d6060830184612e0b565b95945050505050565b612e6f81612de6565b8114612e7a57600080fd5b50565b600081359050612e8c81612e66565b92915050565b600060208284031215612ea857612ea7612cb2565b5b6000612eb684828501612e7d565b91505092915050565b6000602082019050612ed46000830184612d47565b92915050565b600080fd5b600080fd5b7f4e487b7100000000000000000000000000000000000000000000000000000000600052604160045260246000fd5b612f1c82612d9c565b810181811067ffffffffffffffff82111715612f3b57612f3a612ee4565b5b80604052505050565b6000612f4e612ca8565b9050612f5a8282612f13565b919050565b600067ffffffffffffffff821115612f7a57612f79612ee4565b5b612f8382612d9c565b9050602081019050919050565b82818337600083830152505050565b6000612fb2612fad84612f5f565b612f44565b905082815260208101848484011115612fce57612fcd612edf565b5b612fd9848285612f90565b509392505050565b600082601f830112612ff657612ff5612eda565b5b8135613006848260208601612f9f565b91505092915050565b60008060006060848603121561302857613027612cb2565b5b600061303686828701612d05565b935050602084013567ffffffffffffffff81111561305757613056612cb7565b5b61306386828701612fe1565b925050604061307486828701612e7d565b9150509250925092565b600060a0820190506130936000830188612d47565b81810360208301526130a58187612dad565b90506130b46040830186612df0565b6130c16060830185612e0b565b6130ce6080830184612e0b565b9695505050505050565b600080600080600060a086880312156130f4576130f3612cb2565b5b600061310288828901612d05565b955050602086013567ffffffffffffffff81111561312357613122612cb7565b5b61312f88828901612fe1565b945050604061314088828901612e7d565b935050606061315188828901612e7d565b925050608061316288828901612e7d565b9150509295509295909350565b600060e082019050613184600083018a612d47565b81810360208301526131968189612dad565b90506131a56040830188612df0565b6131b26060830187612df0565b6131bf6080830186612df0565b6131cc60a0830185612e0b565b6131d960c0830184612e0b565b98975050505050505050565b6000819050919050565b600061320a61320561320084612cbc565b6131e5565b612cbc565b9050919050565b600061321c826131ef565b9050919050565b600061322e82613211565b9050919050565b61323e81613223565b82525050565b60006020820190506132596000830184613235565b92915050565b600060c0820190506132746000830189612d47565b81810360208301526132868188612dad565b90506132956040830187612df0565b6132a26060830186612df0565b6132af6080830185612df0565b6132bc60a0830184612e0b565b979650505050505050565b60006040820190506132dc6000830185612d47565b6132e96020830184612d47565b9392505050565b6132f981612dff565b811461330457600080fd5b50565b600081519050613316816132f0565b92915050565b60006020828403121561333257613331612cb2565b5b600061334084828501613307565b91505092915050565b7f7573657220646f6e277420686176652061636365737320696e20796f7572206460008201527f6174610000000000000000000000000000000000000000000000000000000000602082015250565b60006133a5602383612d61565b91506133b082613349565b604082019050919050565b600060208201905081810360008301526133d481613398565b9050919050565b7f4e487b7100000000000000000000000000000000000000000000000000000000600052602260045260246000fd5b6000600282049050600182168061342257607f821691505b602082108103613435576134346133db565b5b50919050565b7f796f7520616c726561647920616464656420796f757273656c66000000000000600082015250565b6000613471601a83612d61565b915061347c8261343b565b602082019050919050565b600060208201905081810360008301526134a081613464565b9050919050565b60008190508160005260206000209050919050565b60006020601f8301049050919050565b600082821b905092915050565b6000600883026135097fffffffffffffffffffffffffffffffffffffffffffffffffffffffffffffffff826134cc565b61351386836134cc565b95508019841693508086168417925050509392505050565b600061354661354161353c84612de6565b6131e5565b612de6565b9050919050565b6000819050919050565b6135608361352b565b61357461356c8261354d565b8484546134d9565b825550505050565b600090565b61358961357c565b613594818484613557565b505050565b5b818110156135b8576135ad600082613581565b60018101905061359a565b5050565b601f8211156135fd576135ce816134a7565b6135d7846134bc565b810160208510156135e6578190505b6135fa6135f2856134bc565b830182613599565b50505b505050565b600082821c905092915050565b600061362060001984600802613602565b1980831691505092915050565b6000613639838361360f565b9150826002028217905092915050565b61365282612d56565b67ffffffffffffffff81111561366b5761366a612ee4565b5b613675825461340a565b6136808282856135bc565b600060209050601f8311600181146136b357600084156136a1578287015190505b6136ab858261362d565b865550613713565b601f1984166136c1866134a7565b60005b828110156136e9578489015182556001820191506020850194506020810190506136c4565b868310156137065784890151613702601f89168261360f565b8355505b6001600288020188555050505b505050505050565b7f796f7520616c72656164792063726561746520796f75722070726f66696c6500600082015250565b6000613751601f83612d61565b915061375c8261371b565b602082019050919050565b6000602082019050818103600083015261378081613744565b905091905056fea2646970667358221220fadf45982715263fbff068a2abd6b2e84b71ce5523d34b2c6b101894c9f1799264736f6c63430008110033",
  "linkReferences": {},
  "deployedLinkReferences": {}
}