{
  "_format": "hh-sol-artifact-1",
  "contractName": "MedicalData",
  "sourceName": "contracts/patientDataManagement.sol",
  "abi": [
    {
      "inputs": [
        {
          "internalType": "address",
          "name": "useraddress",
          "type": "address"
        }
      ],
      "name": "ConnectedAccountType",
      "outputs": [
        {
          "internalType": "uint256",
          "name": "",
          "type": "uint256"
        }
      ],
      "stateMutability": "view",
      "type": "function"
    },
    {
      "inputs": [
        {
          "internalType": "address",
          "name": "",
          "type": "address"
        }
      ],
      "name": "accounts",
      "outputs": [
        {
          "internalType": "uint256",
          "name": "",
          "type": "uint256"
        }
      ],
      "stateMutability": "view",
      "type": "function"
    },
    {
      "inputs": [
        {
          "internalType": "address",
          "name": "_user",
          "type": "address"
        },
        {
          "internalType": "string",
          "name": "url",
          "type": "string"
        }
      ],
      "name": "addPrescription",
      "outputs": [],
      "stateMutability": "nonpayable",
      "type": "function"
    },
    {
      "inputs": [
        {
          "internalType": "string",
          "name": "medichine",
          "type": "string"
        }
      ],
      "name": "addTopMedichine",
      "outputs": [],
      "stateMutability": "nonpayable",
      "type": "function"
    },
    {
      "inputs": [
        {
          "internalType": "address",
          "name": "_doctorAddress",
          "type": "address"
        }
      ],
      "name": "getDoctor",
      "outputs": [
        {
          "components": [
            {
              "internalType": "address",
              "name": "DoctorAddress",
              "type": "address"
            },
            {
              "internalType": "uint256",
              "name": "doctorID",
              "type": "uint256"
            },
            {
              "internalType": "string",
              "name": "name",
              "type": "string"
            },
            {
              "internalType": "string",
              "name": "specialty",
              "type": "string"
            },
            {
              "internalType": "uint256",
              "name": "consultationFee",
              "type": "uint256"
            },
            {
              "internalType": "uint256",
              "name": "BMDCNumber",
              "type": "uint256"
            },
            {
              "internalType": "uint256",
              "name": "yearOfExperience",
              "type": "uint256"
            },
            {
              "internalType": "address[]",
              "name": "PatientToDoctor",
              "type": "address[]"
            },
            {
              "internalType": "address[]",
              "name": "PathologiestToDoctor",
              "type": "address[]"
            },
            {
              "internalType": "bool",
              "name": "isAdded",
              "type": "bool"
            },
            {
              "internalType": "address[]",
              "name": "TreatedPatient",
              "type": "address[]"
            },
            {
              "internalType": "string[]",
              "name": "patientTest",
              "type": "string[]"
            },
            {
              "internalType": "string",
              "name": "userType",
              "type": "string"
            }
          ],
          "internalType": "struct MedicalData.Doctor",
          "name": "",
          "type": "tuple"
        }
      ],
      "stateMutability": "view",
      "type": "function"
    },
    {
      "inputs": [
        {
          "internalType": "address",
          "name": "_labAddress",
          "type": "address"
        }
      ],
      "name": "getMedicalResearchLab",
      "outputs": [
        {
          "components": [
            {
              "internalType": "address",
              "name": "labAddress",
              "type": "address"
            },
            {
              "internalType": "uint256",
              "name": "labID",
              "type": "uint256"
            },
            {
              "internalType": "string",
              "name": "name",
              "type": "string"
            },
            {
              "internalType": "uint256",
              "name": "licenseID",
              "type": "uint256"
            },
            {
              "internalType": "string",
              "name": "researchArea",
              "type": "string"
            },
            {
              "internalType": "uint256",
              "name": "labRating",
              "type": "uint256"
            },
            {
              "internalType": "bool",
              "name": "isAdded",
              "type": "bool"
            },
            {
              "internalType": "address[]",
              "name": "PatientToMedRcLab",
              "type": "address[]"
            },
            {
              "internalType": "string[]",
              "name": "PatientLabReport",
              "type": "string[]"
            },
            {
              "internalType": "string",
              "name": "userType",
              "type": "string"
            }
          ],
          "internalType": "struct MedicalData.MedicalResearchLab",
          "name": "",
          "type": "tuple"
        }
      ],
      "stateMutability": "view",
      "type": "function"
    },
    {
      "inputs": [
        {
          "internalType": "address",
          "name": "_pathologistAddress",
          "type": "address"
        }
      ],
      "name": "getPathologist",
      "outputs": [
        {
          "components": [
            {
              "internalType": "address",
              "name": "pathologistAddress",
              "type": "address"
            },
            {
              "internalType": "uint256",
              "name": "pathologistID",
              "type": "uint256"
            },
            {
              "internalType": "string",
              "name": "name",
              "type": "string"
            },
            {
              "internalType": "uint256",
              "name": "licenseNumber",
              "type": "uint256"
            },
            {
              "internalType": "string",
              "name": "specializationArea",
              "type": "string"
            },
            {
              "internalType": "uint256",
              "name": "totalExperience",
              "type": "uint256"
            },
            {
              "internalType": "bool",
              "name": "isAdded",
              "type": "bool"
            },
            {
              "internalType": "address[]",
              "name": "PatientToPathologiest",
              "type": "address[]"
            },
            {
              "internalType": "string",
              "name": "userType",
              "type": "string"
            },
            {
              "internalType": "string[]",
              "name": "pathologistTest",
              "type": "string[]"
            }
          ],
          "internalType": "struct MedicalData.Pathologist",
          "name": "",
          "type": "tuple"
        }
      ],
      "stateMutability": "view",
      "type": "function"
    },
    {
      "inputs": [
        {
          "internalType": "address",
          "name": "_patientAddress",
          "type": "address"
        }
      ],
      "name": "getPatient",
      "outputs": [
        {
          "components": [
            {
              "internalType": "address",
              "name": "patientAddress",
              "type": "address"
            },
            {
              "internalType": "uint256",
              "name": "patientID",
              "type": "uint256"
            },
            {
              "internalType": "string",
              "name": "name",
              "type": "string"
            },
            {
              "internalType": "string",
              "name": "gender",
              "type": "string"
            },
            {
              "internalType": "uint256",
              "name": "age",
              "type": "uint256"
            },
            {
              "internalType": "string",
              "name": "location",
              "type": "string"
            },
            {
              "internalType": "bool",
              "name": "isAdded",
              "type": "bool"
            },
            {
              "internalType": "string",
              "name": "userType",
              "type": "string"
            },
            {
              "internalType": "string[]",
              "name": "imgUrl",
              "type": "string[]"
            },
            {
              "components": [
                {
                  "internalType": "uint256",
                  "name": "height",
                  "type": "uint256"
                },
                {
                  "internalType": "string",
                  "name": "Blood",
                  "type": "string"
                },
                {
                  "internalType": "string",
                  "name": "PreviousDiseases",
                  "type": "string"
                },
                {
                  "internalType": "string",
                  "name": "Medicinedrugs",
                  "type": "string"
                },
                {
                  "internalType": "string",
                  "name": "BadHabits",
                  "type": "string"
                },
                {
                  "internalType": "string",
                  "name": "ChronicDiseases",
                  "type": "string"
                },
                {
                  "internalType": "string",
                  "name": "HealthAllergies",
                  "type": "string"
                },
                {
                  "internalType": "string",
                  "name": "BirthDefects",
                  "type": "string"
                }
              ],
              "internalType": "struct MedicalData.PatientPersonalData",
              "name": "patientPersonalData",
              "type": "tuple"
            },
            {
              "internalType": "address[]",
              "name": "personalDoctor",
              "type": "address[]"
            }
          ],
          "internalType": "struct MedicalData.Patient",
          "name": "",
          "type": "tuple"
        }
      ],
      "stateMutability": "view",
      "type": "function"
    },
    {
      "inputs": [
        {
          "internalType": "address",
          "name": "_pharmacyCompanyAddress",
          "type": "address"
        }
      ],
      "name": "getPharmacyCompany",
      "outputs": [
        {
          "components": [
            {
              "internalType": "address",
              "name": "pharmacyCompanyAddress",
              "type": "address"
            },
            {
              "internalType": "uint256",
              "name": "companyID",
              "type": "uint256"
            },
            {
              "internalType": "string",
              "name": "name",
              "type": "string"
            },
            {
              "internalType": "uint256",
              "name": "licenseID",
              "type": "uint256"
            },
            {
              "internalType": "string",
              "name": "productInformation",
              "type": "string"
            },
            {
              "internalType": "uint256",
              "name": "pharmacyRating",
              "type": "uint256"
            },
            {
              "internalType": "bool",
              "name": "isAdded",
              "type": "bool"
            },
            {
              "internalType": "address[]",
              "name": "PatientToPharmacy",
              "type": "address[]"
            },
            {
              "internalType": "string",
              "name": "userType",
              "type": "string"
            },
            {
              "internalType": "string[]",
              "name": "TopMedichine",
              "type": "string[]"
            }
          ],
          "internalType": "struct MedicalData.PharmacyCompany",
          "name": "",
          "type": "tuple"
        }
      ],
      "stateMutability": "view",
      "type": "function"
    },
    {
      "inputs": [
        {
          "internalType": "uint256",
          "name": "doctorID",
          "type": "uint256"
        },
        {
          "internalType": "string",
          "name": "name",
          "type": "string"
        },
        {
          "internalType": "string",
          "name": "specialty",
          "type": "string"
        },
        {
          "internalType": "uint256",
          "name": "consultationFee",
          "type": "uint256"
        },
        {
          "internalType": "uint256",
          "name": "BMDCNumber",
          "type": "uint256"
        },
        {
          "internalType": "uint256",
          "name": "yearOfExperience",
          "type": "uint256"
        }
      ],
      "name": "setDoctor",
      "outputs": [],
      "stateMutability": "nonpayable",
      "type": "function"
    },
    {
      "inputs": [
        {
          "internalType": "uint256",
          "name": "labID",
          "type": "uint256"
        },
        {
          "internalType": "string",
          "name": "name",
          "type": "string"
        },
        {
          "internalType": "uint256",
          "name": "licenseID",
          "type": "uint256"
        },
        {
          "internalType": "string",
          "name": "researchArea",
          "type": "string"
        },
        {
          "internalType": "uint256",
          "name": "labRating",
          "type": "uint256"
        }
      ],
      "name": "setMedicalResearchLab",
      "outputs": [],
      "stateMutability": "nonpayable",
      "type": "function"
    },
    {
      "inputs": [
        {
          "internalType": "uint256",
          "name": "pathologistID",
          "type": "uint256"
        },
        {
          "internalType": "string",
          "name": "name",
          "type": "string"
        },
        {
          "internalType": "uint256",
          "name": "licenseNumber",
          "type": "uint256"
        },
        {
          "internalType": "string",
          "name": "specializationArea",
          "type": "string"
        },
        {
          "internalType": "uint256",
          "name": "totalExperience",
          "type": "uint256"
        }
      ],
      "name": "setPathologist",
      "outputs": [],
      "stateMutability": "nonpayable",
      "type": "function"
    },
    {
      "inputs": [
        {
          "internalType": "uint256",
          "name": "patientID",
          "type": "uint256"
        },
        {
          "internalType": "string",
          "name": "name",
          "type": "string"
        },
        {
          "internalType": "string",
          "name": "gender",
          "type": "string"
        },
        {
          "internalType": "uint256",
          "name": "age",
          "type": "uint256"
        },
        {
          "internalType": "string",
          "name": "location",
          "type": "string"
        }
      ],
      "name": "setPatient",
      "outputs": [],
      "stateMutability": "nonpayable",
      "type": "function"
    },
    {
      "inputs": [
        {
          "internalType": "uint256",
          "name": "height",
          "type": "uint256"
        },
        {
          "internalType": "string",
          "name": "blood",
          "type": "string"
        },
        {
          "internalType": "string",
          "name": "previousDiseases",
          "type": "string"
        },
        {
          "internalType": "string",
          "name": "medicineDrugs",
          "type": "string"
        },
        {
          "internalType": "string",
          "name": "badHabits",
          "type": "string"
        },
        {
          "internalType": "string",
          "name": "chronicDiseases",
          "type": "string"
        },
        {
          "internalType": "string",
          "name": "healthAllergies",
          "type": "string"
        },
        {
          "internalType": "string",
          "name": "birthDefects",
          "type": "string"
        }
      ],
      "name": "setPatientPersonalData",
      "outputs": [],
      "stateMutability": "nonpayable",
      "type": "function"
    },
    {
      "inputs": [
        {
          "internalType": "uint256",
          "name": "companyID",
          "type": "uint256"
        },
        {
          "internalType": "string",
          "name": "name",
          "type": "string"
        },
        {
          "internalType": "uint256",
          "name": "licenseID",
          "type": "uint256"
        },
        {
          "internalType": "string",
          "name": "productInformation",
          "type": "string"
        },
        {
          "internalType": "uint256",
          "name": "pharmacyRating",
          "type": "uint256"
        }
      ],
      "name": "setPharmacyCompany",
      "outputs": [],
      "stateMutability": "nonpayable",
      "type": "function"
    },
    {
      "inputs": [
        {
          "internalType": "address",
          "name": "useraddress",
          "type": "address"
        }
      ],
      "name": "transferDataByPatient",
      "outputs": [],
      "stateMutability": "nonpayable",
      "type": "function"
    }
  ],
  "bytecode": "0x608060405234801561001057600080fd5b5061579780620000216000396000f3fe608060405234801561001057600080fd5b50600436106101005760003560e01c80639059229b11610097578063d10b07d811610066578063d10b07d8146102cd578063d23fb52c146102e9578063ea8c9e0414610305578063f4bffd5a1461033557610100565b80639059229b14610235578063a3e12bc014610265578063a9d0b46a14610281578063b5368e201461029d57610100565b80635e5c06e2116100d35780635e5c06e2146101b15780636757711b146101e15780636bc071a5146101fd5780637ddd3f051461021957610100565b8063100d1a7f1461010557806316ecfa84146101215780632a1ebd01146101515780632f04e06414610181575b600080fd5b61011f600480360381019061011a9190613f97565b610351565b005b61013b6004803603810190610136919061416f565b61043e565b60405161014891906144bb565b60405180910390f35b61016b6004803603810190610166919061416f565b6108d3565b60405161017891906144ec565b60405180910390f35b61019b6004803603810190610196919061416f565b610a05565b6040516101a8919061464a565b60405180910390f35b6101cb60048036038101906101c6919061416f565b610fc0565b6040516101d891906144ec565b60405180910390f35b6101fb60048036038101906101f6919061466c565b610fd8565b005b6102176004803603810190610212919061471f565b6111e9565b005b610233600480360381019061022e919061466c565b611261565b005b61024f600480360381019061024a919061416f565b611472565b60405161025c919061485e565b60405180910390f35b61027f600480360381019061027a9190614880565b611907565b005b61029b6004803603810190610296919061416f565b61217c565b005b6102b760048036038101906102b2919061416f565b612774565b6040516102c49190614acf565b60405180910390f35b6102e760048036038101906102e2919061466c565b6130ae565b005b61030360048036038101906102fe9190614af1565b6132bf565b005b61031f600480360381019061031a919061416f565b6134d9565b60405161032c9190614cb6565b60405180910390f35b61034f600480360381019061034a9190614cd8565b61396e565b005b6000600160003373ffffffffffffffffffffffffffffffffffffffff1673ffffffffffffffffffffffffffffffffffffffff1681526020019081526020016000209050888160090160000181905550878160090160010190816103b49190614fa9565b50868160090160020190816103c99190614fa9565b50858160090160030190816103de9190614fa9565b50848160090160040190816103f39190614fa9565b50838160090160050190816104089190614fa9565b508281600901600601908161041d9190614fa9565b50818160090160070190816104329190614fa9565b50505050505050505050565b610446613b89565b600360008373ffffffffffffffffffffffffffffffffffffffff1673ffffffffffffffffffffffffffffffffffffffff16815260200190815260200160002060060160009054906101000a900460ff166104d5576040517f08c379a00000000000000000000000000000000000000000000000000000000081526004016104cc906150d8565b60405180910390fd5b600360008373ffffffffffffffffffffffffffffffffffffffff1673ffffffffffffffffffffffffffffffffffffffff168152602001908152602001600020604051806101400160405290816000820160009054906101000a900473ffffffffffffffffffffffffffffffffffffffff1673ffffffffffffffffffffffffffffffffffffffff1673ffffffffffffffffffffffffffffffffffffffff1681526020016001820154815260200160028201805461059090614dcc565b80601f01602080910402602001604051908101604052809291908181526020018280546105bc90614dcc565b80156106095780601f106105de57610100808354040283529160200191610609565b820191906000526020600020905b8154815290600101906020018083116105ec57829003601f168201915b505050505081526020016003820154815260200160048201805461062c90614dcc565b80601f016020809104026020016040519081016040528092919081815260200182805461065890614dcc565b80156106a55780601f1061067a576101008083540402835291602001916106a5565b820191906000526020600020905b81548152906001019060200180831161068857829003601f168201915b50505050508152602001600582015481526020016006820160009054906101000a900460ff161515151581526020016007820180548060200260200160405190810160405280929190818152602001828054801561075857602002820191906000526020600020905b8160009054906101000a900473ffffffffffffffffffffffffffffffffffffffff1673ffffffffffffffffffffffffffffffffffffffff168152602001906001019080831161070e575b5050505050815260200160088201805461077190614dcc565b80601f016020809104026020016040519081016040528092919081815260200182805461079d90614dcc565b80156107ea5780601f106107bf576101008083540402835291602001916107ea565b820191906000526020600020905b8154815290600101906020018083116107cd57829003601f168201915b5050505050815260200160098201805480602002602001604051908101604052809291908181526020016000905b828210156108c457838290600052602060002001805461083790614dcc565b80601f016020809104026020016040519081016040528092919081815260200182805461086390614dcc565b80156108b05780601f10610885576101008083540402835291602001916108b0565b820191906000526020600020905b81548152906001019060200180831161089357829003601f168201915b505050505081526020019060010190610818565b50505050815250509050919050565b6000806000808473ffffffffffffffffffffffffffffffffffffffff1673ffffffffffffffffffffffffffffffffffffffff1681526020019081526020016000205490506001600581111561092b5761092a6150f8565b5b810361093a5780915050610a00565b60058081111561094d5761094c6150f8565b5b810361095c5780915050610a00565b600260058111156109705761096f6150f8565b5b810361097f5780915050610a00565b60036005811115610993576109926150f8565b5b81036109a25780915050610a00565b600460058111156109b6576109b56150f8565b5b81036109c55780915050610a00565b6040517f08c379a00000000000000000000000000000000000000000000000000000000081526004016109f790615173565b60405180910390fd5b919050565b610a0d613bf4565b600260008373ffffffffffffffffffffffffffffffffffffffff1673ffffffffffffffffffffffffffffffffffffffff16815260200190815260200160002060090160009054906101000a900460ff16610a9c576040517f08c379a0000000000000000000000000000000000000000000000000000000008152600401610a93906151df565b60405180910390fd5b600260008373ffffffffffffffffffffffffffffffffffffffff1673ffffffffffffffffffffffffffffffffffffffff168152602001908152602001600020604051806101a00160405290816000820160009054906101000a900473ffffffffffffffffffffffffffffffffffffffff1673ffffffffffffffffffffffffffffffffffffffff1673ffffffffffffffffffffffffffffffffffffffff16815260200160018201548152602001600282018054610b5790614dcc565b80601f0160208091040260200160405190810160405280929190818152602001828054610b8390614dcc565b8015610bd05780601f10610ba557610100808354040283529160200191610bd0565b820191906000526020600020905b815481529060010190602001808311610bb357829003601f168201915b50505050508152602001600382018054610be990614dcc565b80601f0160208091040260200160405190810160405280929190818152602001828054610c1590614dcc565b8015610c625780601f10610c3757610100808354040283529160200191610c62565b820191906000526020600020905b815481529060010190602001808311610c4557829003601f168201915b5050505050815260200160048201548152602001600582015481526020016006820154815260200160078201805480602002602001604051908101604052809291908181526020018280548015610d0e57602002820191906000526020600020905b8160009054906101000a900473ffffffffffffffffffffffffffffffffffffffff1673ffffffffffffffffffffffffffffffffffffffff1681526020019060010190808311610cc4575b5050505050815260200160088201805480602002602001604051908101604052809291908181526020018280548015610d9c57602002820191906000526020600020905b8160009054906101000a900473ffffffffffffffffffffffffffffffffffffffff1673ffffffffffffffffffffffffffffffffffffffff1681526020019060010190808311610d52575b505050505081526020016009820160009054906101000a900460ff16151515158152602001600a8201805480602002602001604051908101604052809291908181526020018280548015610e4557602002820191906000526020600020905b8160009054906101000a900473ffffffffffffffffffffffffffffffffffffffff1673ffffffffffffffffffffffffffffffffffffffff1681526020019060010190808311610dfb575b50505050508152602001600b8201805480602002602001604051908101604052809291908181526020016000905b82821015610f1f578382906000526020600020018054610e9290614dcc565b80601f0160208091040260200160405190810160405280929190818152602001828054610ebe90614dcc565b8015610f0b5780601f10610ee057610100808354040283529160200191610f0b565b820191906000526020600020905b815481529060010190602001808311610eee57829003601f168201915b505050505081526020019060010190610e73565b505050508152602001600c82018054610f3790614dcc565b80601f0160208091040260200160405190810160405280929190818152602001828054610f6390614dcc565b8015610fb05780601f10610f8557610100808354040283529160200191610fb0565b820191906000526020600020905b815481529060010190602001808311610f9357829003601f168201915b5050505050815250509050919050565b60006020528060005260406000206000915090505481565b600033905060001515600360008373ffffffffffffffffffffffffffffffffffffffff1673ffffffffffffffffffffffffffffffffffffffff16815260200190815260200160002060060160009054906101000a900460ff16151514611073576040517f08c379a000000000000000000000000000000000000000000000000000000000815260040161106a9061524b565b60405180910390fd5b6000600360008373ffffffffffffffffffffffffffffffffffffffff1673ffffffffffffffffffffffffffffffffffffffff1681526020019081526020016000209050818160000160006101000a81548173ffffffffffffffffffffffffffffffffffffffff021916908373ffffffffffffffffffffffffffffffffffffffff160217905550868160010181905550858160020190816111139190614fa9565b508481600301819055508381600401908161112e9190614fa9565b5082816005018190555060026000808473ffffffffffffffffffffffffffffffffffffffff1673ffffffffffffffffffffffffffffffffffffffff1681526020019081526020016000208190555060018160060160006101000a81548160ff0219169083151502179055506040518060400160405280600b81526020017f506174686f6c6f676973740000000000000000000000000000000000000000008152508160080190816111df9190614fa9565b5050505050505050565b600560003373ffffffffffffffffffffffffffffffffffffffff1673ffffffffffffffffffffffffffffffffffffffff1681526020019081526020016000206009018190806001815401808255809150506001900390600052602060002001600090919091909150908161125d9190614fa9565b5050565b600033905060001515600560008373ffffffffffffffffffffffffffffffffffffffff1673ffffffffffffffffffffffffffffffffffffffff16815260200190815260200160002060060160009054906101000a900460ff161515146112fc576040517f08c379a00000000000000000000000000000000000000000000000000000000081526004016112f39061524b565b60405180910390fd5b6000600560008373ffffffffffffffffffffffffffffffffffffffff1673ffffffffffffffffffffffffffffffffffffffff1681526020019081526020016000209050818160000160006101000a81548173ffffffffffffffffffffffffffffffffffffffff021916908373ffffffffffffffffffffffffffffffffffffffff1602179055508681600101819055508581600201908161139c9190614fa9565b50848160030181905550838160040190816113b79190614fa9565b5082816005018190555060018160060160006101000a81548160ff02191690831515021790555060046000808473ffffffffffffffffffffffffffffffffffffffff1673ffffffffffffffffffffffffffffffffffffffff168152602001908152602001600020819055506040518060400160405280601081526020017f506861726d61637920436f6d70616e79000000000000000000000000000000008152508160080190816114689190614fa9565b5050505050505050565b61147a613c74565b600560008373ffffffffffffffffffffffffffffffffffffffff1673ffffffffffffffffffffffffffffffffffffffff16815260200190815260200160002060060160009054906101000a900460ff16611509576040517f08c379a0000000000000000000000000000000000000000000000000000000008152600401611500906152b7565b60405180910390fd5b600560008373ffffffffffffffffffffffffffffffffffffffff1673ffffffffffffffffffffffffffffffffffffffff168152602001908152602001600020604051806101400160405290816000820160009054906101000a900473ffffffffffffffffffffffffffffffffffffffff1673ffffffffffffffffffffffffffffffffffffffff1673ffffffffffffffffffffffffffffffffffffffff168152602001600182015481526020016002820180546115c490614dcc565b80601f01602080910402602001604051908101604052809291908181526020018280546115f090614dcc565b801561163d5780601f106116125761010080835404028352916020019161163d565b820191906000526020600020905b81548152906001019060200180831161162057829003601f168201915b505050505081526020016003820154815260200160048201805461166090614dcc565b80601f016020809104026020016040519081016040528092919081815260200182805461168c90614dcc565b80156116d95780601f106116ae576101008083540402835291602001916116d9565b820191906000526020600020905b8154815290600101906020018083116116bc57829003601f168201915b50505050508152602001600582015481526020016006820160009054906101000a900460ff161515151581526020016007820180548060200260200160405190810160405280929190818152602001828054801561178c57602002820191906000526020600020905b8160009054906101000a900473ffffffffffffffffffffffffffffffffffffffff1673ffffffffffffffffffffffffffffffffffffffff1681526020019060010190808311611742575b505050505081526020016008820180546117a590614dcc565b80601f01602080910402602001604051908101604052809291908181526020018280546117d190614dcc565b801561181e5780601f106117f35761010080835404028352916020019161181e565b820191906000526020600020905b81548152906001019060200180831161180157829003601f168201915b5050505050815260200160098201805480602002602001604051908101604052809291908181526020016000905b828210156118f857838290600052602060002001805461186b90614dcc565b80601f016020809104026020016040519081016040528092919081815260200182805461189790614dcc565b80156118e45780601f106118b9576101008083540402835291602001916118e4565b820191906000526020600020905b8154815290600101906020018083116118c757829003601f168201915b50505050508152602001906001019061184c565b50505050815250509050919050565b6001600581111561191b5761191a6150f8565b5b6000803373ffffffffffffffffffffffffffffffffffffffff1673ffffffffffffffffffffffffffffffffffffffff1681526020019081526020016000205403611d1857600260003373ffffffffffffffffffffffffffffffffffffffff1673ffffffffffffffffffffffffffffffffffffffff16815260200190815260200160002060090160009054906101000a900460ff166119ee576040517f08c379a00000000000000000000000000000000000000000000000000000000081526004016119e5906151df565b60405180910390fd5b60026005811115611a0257611a016150f8565b5b6000808473ffffffffffffffffffffffffffffffffffffffff1673ffffffffffffffffffffffffffffffffffffffff1681526020019081526020016000205403611ac057600360008373ffffffffffffffffffffffffffffffffffffffff1673ffffffffffffffffffffffffffffffffffffffff16815260200190815260200160002060090181908060018154018082558091505060019003906000526020600020016000909190919091509081611aba9190614fa9565b50611d13565b600580811115611ad357611ad26150f8565b5b6000808473ffffffffffffffffffffffffffffffffffffffff1673ffffffffffffffffffffffffffffffffffffffff1681526020019081526020016000205403611cd757600260003373ffffffffffffffffffffffffffffffffffffffff1673ffffffffffffffffffffffffffffffffffffffff168152602001908152602001600020600a01829080600181540180825580915050600190039060005260206000200160009091909190916101000a81548173ffffffffffffffffffffffffffffffffffffffff021916908373ffffffffffffffffffffffffffffffffffffffff160217905550600160008373ffffffffffffffffffffffffffffffffffffffff1673ffffffffffffffffffffffffffffffffffffffff16815260200190815260200160002060080181908060018154018082558091505060019003906000526020600020016000909190919091509081611c2e9190614fa9565b50600160008373ffffffffffffffffffffffffffffffffffffffff1673ffffffffffffffffffffffffffffffffffffffff168152602001908152602001600020601101339080600181540180825580915050600190039060005260206000200160009091909190916101000a81548173ffffffffffffffffffffffffffffffffffffffff021916908373ffffffffffffffffffffffffffffffffffffffff160217905550611d12565b6040517f08c379a0000000000000000000000000000000000000000000000000000000008152600401611d0990615349565b60405180910390fd5b5b612178565b600580811115611d2b57611d2a6150f8565b5b6000803373ffffffffffffffffffffffffffffffffffffffff1673ffffffffffffffffffffffffffffffffffffffff1681526020019081526020016000205403611e7857600160003373ffffffffffffffffffffffffffffffffffffffff1673ffffffffffffffffffffffffffffffffffffffff16815260200190815260200160002060060160009054906101000a900460ff16611dfe576040517f08c379a0000000000000000000000000000000000000000000000000000000008152600401611df5906153b5565b60405180910390fd5b600160003373ffffffffffffffffffffffffffffffffffffffff1673ffffffffffffffffffffffffffffffffffffffff16815260200190815260200160002060080181908060018154018082558091505060019003906000526020600020016000909190919091509081611e729190614fa9565b50612177565b60026005811115611e8c57611e8b6150f8565b5b6000803373ffffffffffffffffffffffffffffffffffffffff1673ffffffffffffffffffffffffffffffffffffffff1681526020019081526020016000205403611fd957600360003373ffffffffffffffffffffffffffffffffffffffff1673ffffffffffffffffffffffffffffffffffffffff16815260200190815260200160002060060160009054906101000a900460ff16611f5f576040517f08c379a0000000000000000000000000000000000000000000000000000000008152600401611f5690615421565b60405180910390fd5b600260008373ffffffffffffffffffffffffffffffffffffffff1673ffffffffffffffffffffffffffffffffffffffff168152602001908152602001600020600b0181908060018154018082558091505060019003906000526020600020016000909190919091509081611fd39190614fa9565b50612176565b60036005811115611fed57611fec6150f8565b5b6000803373ffffffffffffffffffffffffffffffffffffffff1673ffffffffffffffffffffffffffffffffffffffff168152602001908152602001600020540361213a57600460003373ffffffffffffffffffffffffffffffffffffffff1673ffffffffffffffffffffffffffffffffffffffff16815260200190815260200160002060060160009054906101000a900460ff166120c0576040517f08c379a00000000000000000000000000000000000000000000000000000000081526004016120b7906154b3565b60405180910390fd5b600460003373ffffffffffffffffffffffffffffffffffffffff1673ffffffffffffffffffffffffffffffffffffffff168152602001908152602001600020600801819080600181540180825580915050600190039060005260206000200160009091909190915090816121349190614fa9565b50612175565b6040517f08c379a000000000000000000000000000000000000000000000000000000000815260040161216c90615349565b60405180910390fd5b5b5b5b5050565b60008060008373ffffffffffffffffffffffffffffffffffffffff1673ffffffffffffffffffffffffffffffffffffffff1681526020019081526020016000205490506005808111156121d2576121d16150f8565b5b60050361277057600160003373ffffffffffffffffffffffffffffffffffffffff1673ffffffffffffffffffffffffffffffffffffffff16815260200190815260200160002060060160009054906101000a900460ff16612268576040517f08c379a000000000000000000000000000000000000000000000000000000000815260040161225f906153b5565b60405180910390fd5b6001600581111561227c5761227b6150f8565b5b8114801561229c5750600580811115612298576122976150f8565b5b6005145b156123ce576000600260008473ffffffffffffffffffffffffffffffffffffffff1673ffffffffffffffffffffffffffffffffffffffff1681526020019081526020016000206005015403612326576040517f08c379a000000000000000000000000000000000000000000000000000000000815260040161231d906151df565b60405180910390fd5b600260008373ffffffffffffffffffffffffffffffffffffffff1673ffffffffffffffffffffffffffffffffffffffff168152602001908152602001600020600701339080600181540180825580915050600190039060005260206000200160009091909190916101000a81548173ffffffffffffffffffffffffffffffffffffffff021916908373ffffffffffffffffffffffffffffffffffffffff16021790555061276f565b600360058111156123e2576123e16150f8565b5b8114801561240257506005808111156123fe576123fd6150f8565b5b6005145b1561258057600073ffffffffffffffffffffffffffffffffffffffff16600460008473ffffffffffffffffffffffffffffffffffffffff1673ffffffffffffffffffffffffffffffffffffffff16815260200190815260200160002060000160009054906101000a900473ffffffffffffffffffffffffffffffffffffffff1673ffffffffffffffffffffffffffffffffffffffff16036124d8576040517f08c379a00000000000000000000000000000000000000000000000000000000081526004016124cf90615545565b60405180910390fd5b600460008373ffffffffffffffffffffffffffffffffffffffff1673ffffffffffffffffffffffffffffffffffffffff168152602001908152602001600020600701339080600181540180825580915050600190039060005260206000200160009091909190916101000a81548173ffffffffffffffffffffffffffffffffffffffff021916908373ffffffffffffffffffffffffffffffffffffffff16021790555061276e565b60046005811115612594576125936150f8565b5b811480156125b457506005808111156125b0576125af6150f8565b5b6005145b1561273257600073ffffffffffffffffffffffffffffffffffffffff16600560008473ffffffffffffffffffffffffffffffffffffffff1673ffffffffffffffffffffffffffffffffffffffff16815260200190815260200160002060000160009054906101000a900473ffffffffffffffffffffffffffffffffffffffff1673ffffffffffffffffffffffffffffffffffffffff160361268a576040517f08c379a0000000000000000000000000000000000000000000000000000000008152600401612681906155b1565b60405180910390fd5b600560008373ffffffffffffffffffffffffffffffffffffffff1673ffffffffffffffffffffffffffffffffffffffff168152602001908152602001600020600701339080600181540180825580915050600190039060005260206000200160009091909190916101000a81548173ffffffffffffffffffffffffffffffffffffffff021916908373ffffffffffffffffffffffffffffffffffffffff16021790555061276d565b6040517f08c379a000000000000000000000000000000000000000000000000000000000815260040161276490615643565b60405180910390fd5b5b5b5b5050565b61277c613cdf565b600160008373ffffffffffffffffffffffffffffffffffffffff1673ffffffffffffffffffffffffffffffffffffffff16815260200190815260200160002060060160009054906101000a900460ff1661280b576040517f08c379a0000000000000000000000000000000000000000000000000000000008152600401612802906156af565b60405180910390fd5b600160008373ffffffffffffffffffffffffffffffffffffffff1673ffffffffffffffffffffffffffffffffffffffff168152602001908152602001600020604051806101600160405290816000820160009054906101000a900473ffffffffffffffffffffffffffffffffffffffff1673ffffffffffffffffffffffffffffffffffffffff1673ffffffffffffffffffffffffffffffffffffffff168152602001600182015481526020016002820180546128c690614dcc565b80601f01602080910402602001604051908101604052809291908181526020018280546128f290614dcc565b801561293f5780601f106129145761010080835404028352916020019161293f565b820191906000526020600020905b81548152906001019060200180831161292257829003601f168201915b5050505050815260200160038201805461295890614dcc565b80601f016020809104026020016040519081016040528092919081815260200182805461298490614dcc565b80156129d15780601f106129a6576101008083540402835291602001916129d1565b820191906000526020600020905b8154815290600101906020018083116129b457829003601f168201915b50505050508152602001600482015481526020016005820180546129f490614dcc565b80601f0160208091040260200160405190810160405280929190818152602001828054612a2090614dcc565b8015612a6d5780601f10612a4257610100808354040283529160200191612a6d565b820191906000526020600020905b815481529060010190602001808311612a5057829003601f168201915b505050505081526020016006820160009054906101000a900460ff16151515158152602001600782018054612aa190614dcc565b80601f0160208091040260200160405190810160405280929190818152602001828054612acd90614dcc565b8015612b1a5780601f10612aef57610100808354040283529160200191612b1a565b820191906000526020600020905b815481529060010190602001808311612afd57829003601f168201915b5050505050815260200160088201805480602002602001604051908101604052809291908181526020016000905b82821015612bf4578382906000526020600020018054612b6790614dcc565b80601f0160208091040260200160405190810160405280929190818152602001828054612b9390614dcc565b8015612be05780601f10612bb557610100808354040283529160200191612be0565b820191906000526020600020905b815481529060010190602001808311612bc357829003601f168201915b505050505081526020019060010190612b48565b505050508152602001600982016040518061010001604052908160008201548152602001600182018054612c2790614dcc565b80601f0160208091040260200160405190810160405280929190818152602001828054612c5390614dcc565b8015612ca05780601f10612c7557610100808354040283529160200191612ca0565b820191906000526020600020905b815481529060010190602001808311612c8357829003601f168201915b50505050508152602001600282018054612cb990614dcc565b80601f0160208091040260200160405190810160405280929190818152602001828054612ce590614dcc565b8015612d325780601f10612d0757610100808354040283529160200191612d32565b820191906000526020600020905b815481529060010190602001808311612d1557829003601f168201915b50505050508152602001600382018054612d4b90614dcc565b80601f0160208091040260200160405190810160405280929190818152602001828054612d7790614dcc565b8015612dc45780601f10612d9957610100808354040283529160200191612dc4565b820191906000526020600020905b815481529060010190602001808311612da757829003601f168201915b50505050508152602001600482018054612ddd90614dcc565b80601f0160208091040260200160405190810160405280929190818152602001828054612e0990614dcc565b8015612e565780601f10612e2b57610100808354040283529160200191612e56565b820191906000526020600020905b815481529060010190602001808311612e3957829003601f168201915b50505050508152602001600582018054612e6f90614dcc565b80601f0160208091040260200160405190810160405280929190818152602001828054612e9b90614dcc565b8015612ee85780601f10612ebd57610100808354040283529160200191612ee8565b820191906000526020600020905b815481529060010190602001808311612ecb57829003601f168201915b50505050508152602001600682018054612f0190614dcc565b80601f0160208091040260200160405190810160405280929190818152602001828054612f2d90614dcc565b8015612f7a5780601f10612f4f57610100808354040283529160200191612f7a565b820191906000526020600020905b815481529060010190602001808311612f5d57829003601f168201915b50505050508152602001600782018054612f9390614dcc565b80601f0160208091040260200160405190810160405280929190818152602001828054612fbf90614dcc565b801561300c5780601f10612fe15761010080835404028352916020019161300c565b820191906000526020600020905b815481529060010190602001808311612fef57829003601f168201915b50505050508152505081526020016011820180548060200260200160405190810160405280929190818152602001828054801561309e57602002820191906000526020600020905b8160009054906101000a900473ffffffffffffffffffffffffffffffffffffffff1673ffffffffffffffffffffffffffffffffffffffff1681526020019060010190808311613054575b5050505050815250509050919050565b600033905060001515600460008373ffffffffffffffffffffffffffffffffffffffff1673ffffffffffffffffffffffffffffffffffffffff16815260200190815260200160002060060160009054906101000a900460ff16151514613149576040517f08c379a00000000000000000000000000000000000000000000000000000000081526004016131409061524b565b60405180910390fd5b6000600460008373ffffffffffffffffffffffffffffffffffffffff1673ffffffffffffffffffffffffffffffffffffffff1681526020019081526020016000209050818160000160006101000a81548173ffffffffffffffffffffffffffffffffffffffff021916908373ffffffffffffffffffffffffffffffffffffffff160217905550868160010181905550858160020190816131e99190614fa9565b50848160030181905550838160040190816132049190614fa9565b5082816005018190555060018160060160006101000a81548160ff02191690831515021790555060036000808473ffffffffffffffffffffffffffffffffffffffff1673ffffffffffffffffffffffffffffffffffffffff168152602001908152602001600020819055506040518060400160405280601481526020017f4d65646963616c205265736561726368204c61620000000000000000000000008152508160090190816132b59190614fa9565b5050505050505050565b600033905060001515600160008373ffffffffffffffffffffffffffffffffffffffff1673ffffffffffffffffffffffffffffffffffffffff16815260200190815260200160002060060160009054906101000a900460ff1615151461335a576040517f08c379a000000000000000000000000000000000000000000000000000000000815260040161335190615741565b60405180910390fd5b6000600160008373ffffffffffffffffffffffffffffffffffffffff1673ffffffffffffffffffffffffffffffffffffffff1681526020019081526020016000209050818160000160006101000a81548173ffffffffffffffffffffffffffffffffffffffff021916908373ffffffffffffffffffffffffffffffffffffffff160217905550868160010181905550858160020190816133fa9190614fa9565b508481600301908161340c9190614fa9565b5083816004018190555060056000808473ffffffffffffffffffffffffffffffffffffffff1673ffffffffffffffffffffffffffffffffffffffff168152602001908152602001600020819055508281600501908161346b9190614fa9565b5060018160060160006101000a81548160ff0219169083151502179055506040518060400160405280600781526020017f50617469656e74000000000000000000000000000000000000000000000000008152508160070190816134cf9190614fa9565b5050505050505050565b6134e1613d57565b600460008373ffffffffffffffffffffffffffffffffffffffff1673ffffffffffffffffffffffffffffffffffffffff16815260200190815260200160002060060160009054906101000a900460ff16613570576040517f08c379a000000000000000000000000000000000000000000000000000000000815260040161356790615545565b60405180910390fd5b600460008373ffffffffffffffffffffffffffffffffffffffff1673ffffffffffffffffffffffffffffffffffffffff168152602001908152602001600020604051806101400160405290816000820160009054906101000a900473ffffffffffffffffffffffffffffffffffffffff1673ffffffffffffffffffffffffffffffffffffffff1673ffffffffffffffffffffffffffffffffffffffff1681526020016001820154815260200160028201805461362b90614dcc565b80601f016020809104026020016040519081016040528092919081815260200182805461365790614dcc565b80156136a45780601f10613679576101008083540402835291602001916136a4565b820191906000526020600020905b81548152906001019060200180831161368757829003601f168201915b50505050508152602001600382015481526020016004820180546136c790614dcc565b80601f01602080910402602001604051908101604052809291908181526020018280546136f390614dcc565b80156137405780601f1061371557610100808354040283529160200191613740565b820191906000526020600020905b81548152906001019060200180831161372357829003601f168201915b50505050508152602001600582015481526020016006820160009054906101000a900460ff16151515158152602001600782018054806020026020016040519081016040528092919081815260200182805480156137f357602002820191906000526020600020905b8160009054906101000a900473ffffffffffffffffffffffffffffffffffffffff1673ffffffffffffffffffffffffffffffffffffffff16815260200190600101908083116137a9575b5050505050815260200160088201805480602002602001604051908101604052809291908181526020016000905b828210156138cd57838290600052602060002001805461384090614dcc565b80601f016020809104026020016040519081016040528092919081815260200182805461386c90614dcc565b80156138b95780601f1061388e576101008083540402835291602001916138b9565b820191906000526020600020905b81548152906001019060200180831161389c57829003601f168201915b505050505081526020019060010190613821565b5050505081526020016009820180546138e590614dcc565b80601f016020809104026020016040519081016040528092919081815260200182805461391190614dcc565b801561395e5780601f106139335761010080835404028352916020019161395e565b820191906000526020600020905b81548152906001019060200180831161394157829003601f168201915b5050505050815250509050919050565b600033905060001515600260008373ffffffffffffffffffffffffffffffffffffffff1673ffffffffffffffffffffffffffffffffffffffff16815260200190815260200160002060090160009054906101000a900460ff16151514613a09576040517f08c379a0000000000000000000000000000000000000000000000000000000008152600401613a009061524b565b60405180910390fd5b6000600260008373ffffffffffffffffffffffffffffffffffffffff1673ffffffffffffffffffffffffffffffffffffffff1681526020019081526020016000209050818160000160006101000a81548173ffffffffffffffffffffffffffffffffffffffff021916908373ffffffffffffffffffffffffffffffffffffffff16021790555087816001018190555086816002019081613aa99190614fa9565b5085816003019081613abb9190614fa9565b508481600401819055508381600501819055508281600601819055506040518060400160405280600681526020017f446f63746f72000000000000000000000000000000000000000000000000000081525081600c019081613b1d9190614fa9565b5060018160090160006101000a81548160ff02191690831515021790555060016000808473ffffffffffffffffffffffffffffffffffffffff1673ffffffffffffffffffffffffffffffffffffffff168152602001908152602001600020819055505050505050505050565b604051806101400160405280600073ffffffffffffffffffffffffffffffffffffffff16815260200160008152602001606081526020016000815260200160608152602001600081526020016000151581526020016060815260200160608152602001606081525090565b604051806101a00160405280600073ffffffffffffffffffffffffffffffffffffffff16815260200160008152602001606081526020016060815260200160008152602001600081526020016000815260200160608152602001606081526020016000151581526020016060815260200160608152602001606081525090565b604051806101400160405280600073ffffffffffffffffffffffffffffffffffffffff16815260200160008152602001606081526020016000815260200160608152602001600081526020016000151581526020016060815260200160608152602001606081525090565b604051806101600160405280600073ffffffffffffffffffffffffffffffffffffffff16815260200160008152602001606081526020016060815260200160008152602001606081526020016000151581526020016060815260200160608152602001613d4a613dc2565b8152602001606081525090565b604051806101400160405280600073ffffffffffffffffffffffffffffffffffffffff16815260200160008152602001606081526020016000815260200160608152602001600081526020016000151581526020016060815260200160608152602001606081525090565b60405180610100016040528060008152602001606081526020016060815260200160608152602001606081526020016060815260200160608152602001606081525090565b6000604051905090565b600080fd5b600080fd5b6000819050919050565b613e2e81613e1b565b8114613e3957600080fd5b50565b600081359050613e4b81613e25565b92915050565b600080fd5b600080fd5b6000601f19601f8301169050919050565b7f4e487b7100000000000000000000000000000000000000000000000000000000600052604160045260246000fd5b613ea482613e5b565b810181811067ffffffffffffffff82111715613ec357613ec2613e6c565b5b80604052505050565b6000613ed6613e07565b9050613ee28282613e9b565b919050565b600067ffffffffffffffff821115613f0257613f01613e6c565b5b613f0b82613e5b565b9050602081019050919050565b82818337600083830152505050565b6000613f3a613f3584613ee7565b613ecc565b905082815260208101848484011115613f5657613f55613e56565b5b613f61848285613f18565b509392505050565b600082601f830112613f7e57613f7d613e51565b5b8135613f8e848260208601613f27565b91505092915050565b600080600080600080600080610100898b031215613fb857613fb7613e11565b5b6000613fc68b828c01613e3c565b985050602089013567ffffffffffffffff811115613fe757613fe6613e16565b5b613ff38b828c01613f69565b975050604089013567ffffffffffffffff81111561401457614013613e16565b5b6140208b828c01613f69565b965050606089013567ffffffffffffffff81111561404157614040613e16565b5b61404d8b828c01613f69565b955050608089013567ffffffffffffffff81111561406e5761406d613e16565b5b61407a8b828c01613f69565b94505060a089013567ffffffffffffffff81111561409b5761409a613e16565b5b6140a78b828c01613f69565b93505060c089013567ffffffffffffffff8111156140c8576140c7613e16565b5b6140d48b828c01613f69565b92505060e089013567ffffffffffffffff8111156140f5576140f4613e16565b5b6141018b828c01613f69565b9150509295985092959890939650565b600073ffffffffffffffffffffffffffffffffffffffff82169050919050565b600061413c82614111565b9050919050565b61414c81614131565b811461415757600080fd5b50565b60008135905061416981614143565b92915050565b60006020828403121561418557614184613e11565b5b60006141938482850161415a565b91505092915050565b6141a581614131565b82525050565b6141b481613e1b565b82525050565b600081519050919050565b600082825260208201905092915050565b60005b838110156141f45780820151818401526020810190506141d9565b60008484015250505050565b600061420b826141ba565b61421581856141c5565b93506142258185602086016141d6565b61422e81613e5b565b840191505092915050565b60008115159050919050565b61424e81614239565b82525050565b600081519050919050565b600082825260208201905092915050565b6000819050602082019050919050565b600061428c838361419c565b60208301905092915050565b6000602082019050919050565b60006142b082614254565b6142ba818561425f565b93506142c583614270565b8060005b838110156142f65781516142dd8882614280565b97506142e883614298565b9250506001810190506142c9565b5085935050505092915050565b600081519050919050565b600082825260208201905092915050565b6000819050602082019050919050565b600061433b8383614200565b905092915050565b6000602082019050919050565b600061435b82614303565b614365818561430e565b9350836020820285016143778561431f565b8060005b858110156143b35784840389528151614394858261432f565b945061439f83614343565b925060208a0199505060018101905061437b565b50829750879550505050505092915050565b6000610140830160008301516143de600086018261419c565b5060208301516143f160208601826141ab565b50604083015184820360408601526144098282614200565b915050606083015161441e60608601826141ab565b50608083015184820360808601526144368282614200565b91505060a083015161444b60a08601826141ab565b5060c083015161445e60c0860182614245565b5060e083015184820360e086015261447682826142a5565b9150506101008301518482036101008601526144928282614200565b9150506101208301518482036101208601526144ae8282614350565b9150508091505092915050565b600060208201905081810360008301526144d581846143c5565b905092915050565b6144e681613e1b565b82525050565b600060208201905061450160008301846144dd565b92915050565b60006101a083016000830151614520600086018261419c565b50602083015161453360208601826141ab565b506040830151848203604086015261454b8282614200565b915050606083015184820360608601526145658282614200565b915050608083015161457a60808601826141ab565b5060a083015161458d60a08601826141ab565b5060c08301516145a060c08601826141ab565b5060e083015184820360e08601526145b882826142a5565b9150506101008301518482036101008601526145d482826142a5565b9150506101208301516145eb610120860182614245565b5061014083015184820361014086015261460582826142a5565b9150506101608301518482036101608601526146218282614350565b91505061018083015184820361018086015261463d8282614200565b9150508091505092915050565b600060208201905081810360008301526146648184614507565b905092915050565b600080600080600060a0868803121561468857614687613e11565b5b600061469688828901613e3c565b955050602086013567ffffffffffffffff8111156146b7576146b6613e16565b5b6146c388828901613f69565b94505060406146d488828901613e3c565b935050606086013567ffffffffffffffff8111156146f5576146f4613e16565b5b61470188828901613f69565b925050608061471288828901613e3c565b9150509295509295909350565b60006020828403121561473557614734613e11565b5b600082013567ffffffffffffffff81111561475357614752613e16565b5b61475f84828501613f69565b91505092915050565b600061014083016000830151614781600086018261419c565b50602083015161479460208601826141ab565b50604083015184820360408601526147ac8282614200565b91505060608301516147c160608601826141ab565b50608083015184820360808601526147d98282614200565b91505060a08301516147ee60a08601826141ab565b5060c083015161480160c0860182614245565b5060e083015184820360e086015261481982826142a5565b9150506101008301518482036101008601526148358282614200565b9150506101208301518482036101208601526148518282614350565b9150508091505092915050565b600060208201905081810360008301526148788184614768565b905092915050565b6000806040838503121561489757614896613e11565b5b60006148a58582860161415a565b925050602083013567ffffffffffffffff8111156148c6576148c5613e16565b5b6148d285828601613f69565b9150509250929050565b6000610100830160008301516148f560008601826141ab565b506020830151848203602086015261490d8282614200565b915050604083015184820360408601526149278282614200565b915050606083015184820360608601526149418282614200565b9150506080830151848203608086015261495b8282614200565b91505060a083015184820360a08601526149758282614200565b91505060c083015184820360c086015261498f8282614200565b91505060e083015184820360e08601526149a98282614200565b9150508091505092915050565b6000610160830160008301516149cf600086018261419c565b5060208301516149e260208601826141ab565b50604083015184820360408601526149fa8282614200565b91505060608301518482036060860152614a148282614200565b9150506080830151614a2960808601826141ab565b5060a083015184820360a0860152614a418282614200565b91505060c0830151614a5660c0860182614245565b5060e083015184820360e0860152614a6e8282614200565b915050610100830151848203610100860152614a8a8282614350565b915050610120830151848203610120860152614aa682826148dc565b915050610140830151848203610140860152614ac282826142a5565b9150508091505092915050565b60006020820190508181036000830152614ae981846149b6565b905092915050565b600080600080600060a08688031215614b0d57614b0c613e11565b5b6000614b1b88828901613e3c565b955050602086013567ffffffffffffffff811115614b3c57614b3b613e16565b5b614b4888828901613f69565b945050604086013567ffffffffffffffff811115614b6957614b68613e16565b5b614b7588828901613f69565b9350506060614b8688828901613e3c565b925050608086013567ffffffffffffffff811115614ba757614ba6613e16565b5b614bb388828901613f69565b9150509295509295909350565b600061014083016000830151614bd9600086018261419c565b506020830151614bec60208601826141ab565b5060408301518482036040860152614c048282614200565b9150506060830151614c1960608601826141ab565b5060808301518482036080860152614c318282614200565b91505060a0830151614c4660a08601826141ab565b5060c0830151614c5960c0860182614245565b5060e083015184820360e0860152614c7182826142a5565b915050610100830151848203610100860152614c8d8282614350565b915050610120830151848203610120860152614ca98282614200565b9150508091505092915050565b60006020820190508181036000830152614cd08184614bc0565b905092915050565b60008060008060008060c08789031215614cf557614cf4613e11565b5b6000614d0389828a01613e3c565b965050602087013567ffffffffffffffff811115614d2457614d23613e16565b5b614d3089828a01613f69565b955050604087013567ffffffffffffffff811115614d5157614d50613e16565b5b614d5d89828a01613f69565b9450506060614d6e89828a01613e3c565b9350506080614d7f89828a01613e3c565b92505060a0614d9089828a01613e3c565b9150509295509295509295565b7f4e487b7100000000000000000000000000000000000000000000000000000000600052602260045260246000fd5b60006002820490506001821680614de457607f821691505b602082108103614df757614df6614d9d565b5b50919050565b60008190508160005260206000209050919050565b60006020601f8301049050919050565b600082821b905092915050565b600060088302614e5f7fffffffffffffffffffffffffffffffffffffffffffffffffffffffffffffffff82614e22565b614e698683614e22565b95508019841693508086168417925050509392505050565b6000819050919050565b6000614ea6614ea1614e9c84613e1b565b614e81565b613e1b565b9050919050565b6000819050919050565b614ec083614e8b565b614ed4614ecc82614ead565b848454614e2f565b825550505050565b600090565b614ee9614edc565b614ef4818484614eb7565b505050565b5b81811015614f1857614f0d600082614ee1565b600181019050614efa565b5050565b601f821115614f5d57614f2e81614dfd565b614f3784614e12565b81016020851015614f46578190505b614f5a614f5285614e12565b830182614ef9565b50505b505050565b600082821c905092915050565b6000614f8060001984600802614f62565b1980831691505092915050565b6000614f998383614f6f565b9150826002028217905092915050565b614fb2826141ba565b67ffffffffffffffff811115614fcb57614fca613e6c565b5b614fd58254614dcc565b614fe0828285614f1c565b600060209050601f8311600181146150135760008415615001578287015190505b61500b8582614f8d565b865550615073565b601f19841661502186614dfd565b60005b8281101561504957848901518255600182019150602085019450602081019050615024565b868310156150665784890151615062601f891682614f6f565b8355505b6001600288020188555050505b505050505050565b600082825260208201905092915050565b7f506174686f6c6f676973747320646f65736e2774206578697374000000000000600082015250565b60006150c2601a8361507b565b91506150cd8261508c565b602082019050919050565b600060208201905081810360008301526150f1816150b5565b9050919050565b7f4e487b7100000000000000000000000000000000000000000000000000000000600052602160045260246000fd5b7f4e6f206163636f756e7400000000000000000000000000000000000000000000600082015250565b600061515d600a8361507b565b915061516882615127565b602082019050919050565b6000602082019050818103600083015261518c81615150565b9050919050565b7f446f63746f7220646f65736e2774206578697374000000000000000000000000600082015250565b60006151c960148361507b565b91506151d482615193565b602082019050919050565b600060208201905081810360008301526151f8816151bc565b9050919050565b7f596f7520616c72656164792063726561746520796f75722070726f66696c6500600082015250565b6000615235601f8361507b565b9150615240826151ff565b602082019050919050565b6000602082019050818103600083015261526481615228565b9050919050565b7f506861726d61637920436f6d70616e69657320646f65736e2774206578697374600082015250565b60006152a160208361507b565b91506152ac8261526b565b602082019050919050565b600060208201905081810360008301526152d081615294565b9050919050565b7f596f7520646f6e277420616464507265736372697074696f6e20696e2074686960008201527f732020656e746974792000000000000000000000000000000000000000000000602082015250565b6000615333602a8361507b565b915061533e826152d7565b604082019050919050565b6000602082019050818103600083015261536281615326565b9050919050565b7f50617469656e7420646f65736e27742065786973740000000000000000000000600082015250565b600061539f60158361507b565b91506153aa82615369565b602082019050919050565b600060208201905081810360008301526153ce81615392565b9050919050565b7f706174686f6c6f676973747320646f65736e2774206578697374000000000000600082015250565b600061540b601a8361507b565b9150615416826153d5565b602082019050919050565b6000602082019050818103600083015261543a816153fe565b9050919050565b7f6d65646963616c52657365617263684c61627320646f65736e2774206578697360008201527f7400000000000000000000000000000000000000000000000000000000000000602082015250565b600061549d60218361507b565b91506154a882615441565b604082019050919050565b600060208201905081810360008301526154cc81615490565b9050919050565b7f4d65646963616c205265736561726368204c616220646f65736e27742065786960008201527f7374000000000000000000000000000000000000000000000000000000000000602082015250565b600061552f60228361507b565b915061553a826154d3565b604082019050919050565b6000602082019050818103600083015261555e81615522565b9050919050565b7f506861726d61637920436f6d70616e7920646f65736e27742065786973740000600082015250565b600061559b601e8361507b565b91506155a682615565565b602082019050919050565b600060208201905081810360008301526155ca8161558e565b9050919050565b7f50617469656e742063616e207472616e73666572206461746120776974686f7560008201527f7420706174686f6c6f6769737473200000000000000000000000000000000000602082015250565b600061562d602f8361507b565b9150615638826155d1565b604082019050919050565b6000602082019050818103600083015261565c81615620565b9050919050565b7f50617469656e7420646f6573206e6f7420657869737400000000000000000000600082015250565b600061569960168361507b565b91506156a482615663565b602082019050919050565b600060208201905081810360008301526156c88161568c565b9050919050565b7f596f75206861766520616c7265616479206372656174656420796f757220707260008201527f6f66696c65000000000000000000000000000000000000000000000000000000602082015250565b600061572b60258361507b565b9150615736826156cf565b604082019050919050565b6000602082019050818103600083015261575a8161571e565b905091905056fea26469706673582212207a7ae41dfbb6aa7fef94f34c7147c709d41f2318397268a4d870e14a7ec64a3a64736f6c63430008110033",
  "linkReferences": {},
  "deployedLinkReferences": {}
}