{
  "_format": "hh-sol-artifact-1",
  "contractName": "MedicalData",
  "sourceName": "contracts/patientDataManagement.sol",
  "abi": [
    {
      "inputs": [
        {
          "internalType": "uint256",
          "name": "",
          "type": "uint256"
        }
      ],
      "name": "MedicalResearchLabReports",
      "outputs": [
        {
          "internalType": "string",
          "name": "",
          "type": "string"
        }
      ],
      "stateMutability": "view",
      "type": "function"
    },
    {
      "inputs": [
        {
          "internalType": "uint256",
          "name": "",
          "type": "uint256"
        }
      ],
      "name": "TopMedichine",
      "outputs": [
        {
          "internalType": "string",
          "name": "",
          "type": "string"
        }
      ],
      "stateMutability": "view",
      "type": "function"
    },
    {
      "inputs": [
        {
          "internalType": "address",
          "name": "_user",
          "type": "address"
        },
        {
          "internalType": "string",
          "name": "url",
          "type": "string"
        }
      ],
      "name": "add",
      "outputs": [],
      "stateMutability": "nonpayable",
      "type": "function"
    },
    {
      "inputs": [
        {
          "internalType": "string",
          "name": "report",
          "type": "string"
        }
      ],
      "name": "addLabReport",
      "outputs": [],
      "stateMutability": "nonpayable",
      "type": "function"
    },
    {
      "inputs": [
        {
          "internalType": "string",
          "name": "medichine",
          "type": "string"
        }
      ],
      "name": "addTopMedichine",
      "outputs": [],
      "stateMutability": "nonpayable",
      "type": "function"
    },
    {
      "inputs": [],
      "name": "displayImage",
      "outputs": [
        {
          "internalType": "string[]",
          "name": "",
          "type": "string[]"
        }
      ],
      "stateMutability": "view",
      "type": "function"
    },
    {
      "inputs": [
        {
          "internalType": "address",
          "name": "_doctorAddress",
          "type": "address"
        }
      ],
      "name": "getDoctor",
      "outputs": [
        {
          "components": [
            {
              "internalType": "address",
              "name": "DoctorAddress",
              "type": "address"
            },
            {
              "internalType": "uint256",
              "name": "doctorID",
              "type": "uint256"
            },
            {
              "internalType": "string",
              "name": "name",
              "type": "string"
            },
            {
              "internalType": "string",
              "name": "specialty",
              "type": "string"
            },
            {
              "internalType": "uint256",
              "name": "consultationFee",
              "type": "uint256"
            },
            {
              "internalType": "uint256",
              "name": "BMDCNumber",
              "type": "uint256"
            },
            {
              "internalType": "uint256",
              "name": "yearOfExperience",
              "type": "uint256"
            },
            {
              "internalType": "address[]",
              "name": "allPatientsAddressSharedToDoctor",
              "type": "address[]"
            },
            {
              "internalType": "bool",
              "name": "isAdded",
              "type": "bool"
            },
            {
              "internalType": "string",
              "name": "userType",
              "type": "string"
            }
          ],
          "internalType": "struct MedicalData.Doctor",
          "name": "",
          "type": "tuple"
        }
      ],
      "stateMutability": "view",
      "type": "function"
    },
    {
      "inputs": [
        {
          "internalType": "address",
          "name": "_labAddress",
          "type": "address"
        }
      ],
      "name": "getMedicalResearchLab",
      "outputs": [
        {
          "components": [
            {
              "internalType": "address",
              "name": "labAddress",
              "type": "address"
            },
            {
              "internalType": "uint256",
              "name": "labID",
              "type": "uint256"
            },
            {
              "internalType": "string",
              "name": "name",
              "type": "string"
            },
            {
              "internalType": "uint256",
              "name": "licenseID",
              "type": "uint256"
            },
            {
              "internalType": "string",
              "name": "researchArea",
              "type": "string"
            },
            {
              "internalType": "uint256",
              "name": "labRating",
              "type": "uint256"
            },
            {
              "internalType": "bool",
              "name": "isAdded",
              "type": "bool"
            },
            {
              "internalType": "address[]",
              "name": "allPatientsAddressSharedToMedicalResearchLab",
              "type": "address[]"
            },
            {
              "internalType": "string",
              "name": "userType",
              "type": "string"
            }
          ],
          "internalType": "struct MedicalData.MedicalResearchLab",
          "name": "",
          "type": "tuple"
        }
      ],
      "stateMutability": "view",
      "type": "function"
    },
    {
      "inputs": [
        {
          "internalType": "address",
          "name": "_pathologistAddress",
          "type": "address"
        }
      ],
      "name": "getPathologist",
      "outputs": [
        {
          "components": [
            {
              "internalType": "address",
              "name": "pathologistAddress",
              "type": "address"
            },
            {
              "internalType": "uint256",
              "name": "pathologistID",
              "type": "uint256"
            },
            {
              "internalType": "string",
              "name": "name",
              "type": "string"
            },
            {
              "internalType": "uint256",
              "name": "licenseNumber",
              "type": "uint256"
            },
            {
              "internalType": "string",
              "name": "specializationArea",
              "type": "string"
            },
            {
              "internalType": "uint256",
              "name": "totalExperience",
              "type": "uint256"
            },
            {
              "internalType": "bool",
              "name": "isAdded",
              "type": "bool"
            },
            {
              "internalType": "address[]",
              "name": "allPatientsAddressSharedTopathologist",
              "type": "address[]"
            },
            {
              "internalType": "string",
              "name": "userType",
              "type": "string"
            }
          ],
          "internalType": "struct MedicalData.Pathologist",
          "name": "",
          "type": "tuple"
        }
      ],
      "stateMutability": "view",
      "type": "function"
    },
    {
      "inputs": [
        {
          "internalType": "address",
          "name": "_patientAddress",
          "type": "address"
        }
      ],
      "name": "getPatient",
      "outputs": [
        {
          "components": [
            {
              "internalType": "address",
              "name": "patientAddress",
              "type": "address"
            },
            {
              "internalType": "uint256",
              "name": "patientID",
              "type": "uint256"
            },
            {
              "internalType": "string",
              "name": "name",
              "type": "string"
            },
            {
              "internalType": "string",
              "name": "gender",
              "type": "string"
            },
            {
              "internalType": "uint256",
              "name": "age",
              "type": "uint256"
            },
            {
              "internalType": "string",
              "name": "location",
              "type": "string"
            },
            {
              "internalType": "bool",
              "name": "isAdded",
              "type": "bool"
            },
            {
              "internalType": "string",
              "name": "userType",
              "type": "string"
            },
            {
              "internalType": "string[]",
              "name": "imgUrl",
              "type": "string[]"
            },
            {
              "components": [
                {
                  "internalType": "uint256",
                  "name": "height",
                  "type": "uint256"
                },
                {
                  "internalType": "string",
                  "name": "Blood",
                  "type": "string"
                },
                {
                  "internalType": "string",
                  "name": "PreviousDiseases",
                  "type": "string"
                },
                {
                  "internalType": "string",
                  "name": "Medicinedrugs",
                  "type": "string"
                },
                {
                  "internalType": "string",
                  "name": "BadHabits",
                  "type": "string"
                },
                {
                  "internalType": "string",
                  "name": "ChronicDiseases",
                  "type": "string"
                },
                {
                  "internalType": "string",
                  "name": "HealthAllergies",
                  "type": "string"
                },
                {
                  "internalType": "string",
                  "name": "BirthDefects",
                  "type": "string"
                }
              ],
              "internalType": "struct MedicalData.PatientPersonalData",
              "name": "patientPersonalData",
              "type": "tuple"
            }
          ],
          "internalType": "struct MedicalData.Patient",
          "name": "",
          "type": "tuple"
        }
      ],
      "stateMutability": "view",
      "type": "function"
    },
    {
      "inputs": [
        {
          "internalType": "address",
          "name": "_pharmacyCompanyAddress",
          "type": "address"
        }
      ],
      "name": "getPharmacyCompany",
      "outputs": [
        {
          "components": [
            {
              "internalType": "address",
              "name": "pharmacyCompanyAddress",
              "type": "address"
            },
            {
              "internalType": "uint256",
              "name": "companyID",
              "type": "uint256"
            },
            {
              "internalType": "string",
              "name": "name",
              "type": "string"
            },
            {
              "internalType": "uint256",
              "name": "licenseID",
              "type": "uint256"
            },
            {
              "internalType": "string",
              "name": "productInformation",
              "type": "string"
            },
            {
              "internalType": "uint256",
              "name": "pharmacyRating",
              "type": "uint256"
            },
            {
              "internalType": "bool",
              "name": "isAdded",
              "type": "bool"
            },
            {
              "internalType": "address[]",
              "name": "allPatientAddressSharedToPharmacyCompany",
              "type": "address[]"
            },
            {
              "internalType": "string",
              "name": "userType",
              "type": "string"
            }
          ],
          "internalType": "struct MedicalData.PharmacyCompany",
          "name": "",
          "type": "tuple"
        }
      ],
      "stateMutability": "view",
      "type": "function"
    },
    {
      "inputs": [
        {
          "internalType": "address",
          "name": "",
          "type": "address"
        }
      ],
      "name": "patientData",
      "outputs": [
        {
          "internalType": "uint256",
          "name": "height",
          "type": "uint256"
        },
        {
          "internalType": "string",
          "name": "Blood",
          "type": "string"
        },
        {
          "internalType": "string",
          "name": "PreviousDiseases",
          "type": "string"
        },
        {
          "internalType": "string",
          "name": "Medicinedrugs",
          "type": "string"
        },
        {
          "internalType": "string",
          "name": "BadHabits",
          "type": "string"
        },
        {
          "internalType": "string",
          "name": "ChronicDiseases",
          "type": "string"
        },
        {
          "internalType": "string",
          "name": "HealthAllergies",
          "type": "string"
        },
        {
          "internalType": "string",
          "name": "BirthDefects",
          "type": "string"
        }
      ],
      "stateMutability": "view",
      "type": "function"
    },
    {
      "inputs": [
        {
          "internalType": "uint256",
          "name": "doctorID",
          "type": "uint256"
        },
        {
          "internalType": "string",
          "name": "name",
          "type": "string"
        },
        {
          "internalType": "string",
          "name": "specialty",
          "type": "string"
        },
        {
          "internalType": "uint256",
          "name": "consultationFee",
          "type": "uint256"
        },
        {
          "internalType": "uint256",
          "name": "BMDCNumber",
          "type": "uint256"
        },
        {
          "internalType": "uint256",
          "name": "yearOfExperience",
          "type": "uint256"
        }
      ],
      "name": "setDoctor",
      "outputs": [],
      "stateMutability": "nonpayable",
      "type": "function"
    },
    {
      "inputs": [
        {
          "internalType": "uint256",
          "name": "labID",
          "type": "uint256"
        },
        {
          "internalType": "string",
          "name": "name",
          "type": "string"
        },
        {
          "internalType": "uint256",
          "name": "licenseID",
          "type": "uint256"
        },
        {
          "internalType": "string",
          "name": "researchArea",
          "type": "string"
        },
        {
          "internalType": "uint256",
          "name": "labRating",
          "type": "uint256"
        }
      ],
      "name": "setMedicalResearchLab",
      "outputs": [],
      "stateMutability": "nonpayable",
      "type": "function"
    },
    {
      "inputs": [
        {
          "internalType": "uint256",
          "name": "pathologistID",
          "type": "uint256"
        },
        {
          "internalType": "string",
          "name": "name",
          "type": "string"
        },
        {
          "internalType": "uint256",
          "name": "licenseNumber",
          "type": "uint256"
        },
        {
          "internalType": "string",
          "name": "specializationArea",
          "type": "string"
        },
        {
          "internalType": "uint256",
          "name": "totalExperience",
          "type": "uint256"
        }
      ],
      "name": "setPathologist",
      "outputs": [],
      "stateMutability": "nonpayable",
      "type": "function"
    },
    {
      "inputs": [
        {
          "internalType": "uint256",
          "name": "patientID",
          "type": "uint256"
        },
        {
          "internalType": "string",
          "name": "name",
          "type": "string"
        },
        {
          "internalType": "string",
          "name": "gender",
          "type": "string"
        },
        {
          "internalType": "uint256",
          "name": "age",
          "type": "uint256"
        },
        {
          "internalType": "string",
          "name": "location",
          "type": "string"
        }
      ],
      "name": "setPatient",
      "outputs": [],
      "stateMutability": "nonpayable",
      "type": "function"
    },
    {
      "inputs": [
        {
          "internalType": "address",
          "name": "user",
          "type": "address"
        },
        {
          "internalType": "uint256",
          "name": "height",
          "type": "uint256"
        },
        {
          "internalType": "string",
          "name": "blood",
          "type": "string"
        },
        {
          "internalType": "string",
          "name": "previousDiseases",
          "type": "string"
        },
        {
          "internalType": "string",
          "name": "medicineDrugs",
          "type": "string"
        },
        {
          "internalType": "string",
          "name": "badHabits",
          "type": "string"
        },
        {
          "internalType": "string",
          "name": "chronicDiseases",
          "type": "string"
        },
        {
          "internalType": "string",
          "name": "healthAllergies",
          "type": "string"
        },
        {
          "internalType": "string",
          "name": "birthDefects",
          "type": "string"
        }
      ],
      "name": "setPatientPersonalData",
      "outputs": [],
      "stateMutability": "nonpayable",
      "type": "function"
    },
    {
      "inputs": [
        {
          "internalType": "uint256",
          "name": "companyID",
          "type": "uint256"
        },
        {
          "internalType": "string",
          "name": "name",
          "type": "string"
        },
        {
          "internalType": "uint256",
          "name": "licenseID",
          "type": "uint256"
        },
        {
          "internalType": "string",
          "name": "productInformation",
          "type": "string"
        },
        {
          "internalType": "uint256",
          "name": "pharmacyRating",
          "type": "uint256"
        }
      ],
      "name": "setPharmacyCompany",
      "outputs": [],
      "stateMutability": "nonpayable",
      "type": "function"
    },
    {
      "inputs": [
        {
          "internalType": "string",
          "name": "entityType1",
          "type": "string"
        },
        {
          "internalType": "string",
          "name": "entityType2",
          "type": "string"
        },
        {
          "internalType": "address",
          "name": "user2",
          "type": "address"
        }
      ],
      "name": "transferData",
      "outputs": [],
      "stateMutability": "nonpayable",
      "type": "function"
    }
  ],
  "bytecode": "0x608060405234801561001057600080fd5b5061536e806100206000396000f3fe608060405234801561001057600080fd5b50600436106101215760003560e01c806371d7cfda116100ad578063d10b07d811610071578063d10b07d81461032f578063d23fb52c1461034b578063e71b255514610367578063ea8c9e0414610397578063f4bffd5a146103c757610121565b806371d7cfda146102675780637ddd3f05146102835780637fd653d01461029f5780639059229b146102cf578063b5368e20146102ff57610121565b806336d6da55116100f457806336d6da55146101db57806339000b24146101f757806359ac529a146102135780636757711b1461022f5780636bc071a51461024b57610121565b806316ecfa84146101265780631e10b2ea146101565780632e608c02146101745780632f04e064146101ab575b600080fd5b610140600480360381019061013b9190613a4a565b6103e3565b60405161014d9190613cd3565b60405180910390f35b61015e61079f565b60405161016b9190613db7565b60405180910390f35b61018e60048036038101906101899190613a4a565b6108b8565b6040516101a2989796959493929190613e32565b60405180910390f35b6101c560048036038101906101c09190613a4a565b610cb8565b6040516101d29190613fd0565b60405180910390f35b6101f560048036038101906101f09190614127565b61107e565b005b610211600480360381019061020c9190614183565b611186565b005b61022d600480360381019061022891906141f8565b6111be565b005b61024960048036038101906102449190614386565b6112e8565b005b61026560048036038101906102609190614183565b611537565b005b610281600480360381019061027c9190614439565b61156f565b005b61029d60048036038101906102989190614386565b611cc0565b005b6102b960048036038101906102b491906144c4565b611f0f565b6040516102c691906144f1565b60405180910390f35b6102e960048036038101906102e49190613a4a565b611fbb565b6040516102f691906145ed565b60405180910390f35b61031960048036038101906103149190613a4a565b612377565b604051610326919061486c565b60405180910390f35b61034960048036038101906103449190614386565b612c23565b005b6103656004803603810190610360919061488e565b612e72565b005b610381600480360381019061037c91906144c4565b6130ca565b60405161038e91906144f1565b60405180910390f35b6103b160048036038101906103ac9190613a4a565b613176565b6040516103be9190614a37565b60405180910390f35b6103e160048036038101906103dc9190614a59565b613532565b005b6103eb61378b565b600660008373ffffffffffffffffffffffffffffffffffffffff1673ffffffffffffffffffffffffffffffffffffffff16815260200190815260200160002060060160009054906101000a900460ff1661047a576040517f08c379a000000000000000000000000000000000000000000000000000000000815260040161047190614b6a565b60405180910390fd5b600660008373ffffffffffffffffffffffffffffffffffffffff1673ffffffffffffffffffffffffffffffffffffffff168152602001908152602001600020604051806101200160405290816000820160009054906101000a900473ffffffffffffffffffffffffffffffffffffffff1673ffffffffffffffffffffffffffffffffffffffff1673ffffffffffffffffffffffffffffffffffffffff1681526020016001820154815260200160028201805461053590614bb9565b80601f016020809104026020016040519081016040528092919081815260200182805461056190614bb9565b80156105ae5780601f10610583576101008083540402835291602001916105ae565b820191906000526020600020905b81548152906001019060200180831161059157829003601f168201915b50505050508152602001600382015481526020016004820180546105d190614bb9565b80601f01602080910402602001604051908101604052809291908181526020018280546105fd90614bb9565b801561064a5780601f1061061f5761010080835404028352916020019161064a565b820191906000526020600020905b81548152906001019060200180831161062d57829003601f168201915b50505050508152602001600582015481526020016006820160009054906101000a900460ff16151515158152602001600782018054806020026020016040519081016040528092919081815260200182805480156106fd57602002820191906000526020600020905b8160009054906101000a900473ffffffffffffffffffffffffffffffffffffffff1673ffffffffffffffffffffffffffffffffffffffff16815260200190600101908083116106b3575b5050505050815260200160088201805461071690614bb9565b80601f016020809104026020016040519081016040528092919081815260200182805461074290614bb9565b801561078f5780601f106107645761010080835404028352916020019161078f565b820191906000526020600020905b81548152906001019060200180831161077257829003601f168201915b5050505050815250509050919050565b6060600460003373ffffffffffffffffffffffffffffffffffffffff1673ffffffffffffffffffffffffffffffffffffffff168152602001908152602001600020600801805480602002602001604051908101604052809291908181526020016000905b828210156108af57838290600052602060002001805461082290614bb9565b80601f016020809104026020016040519081016040528092919081815260200182805461084e90614bb9565b801561089b5780601f106108705761010080835404028352916020019161089b565b820191906000526020600020905b81548152906001019060200180831161087e57829003601f168201915b505050505081526020019060010190610803565b50505050905090565b60006020528060005260406000206000915090508060000154908060010180546108e190614bb9565b80601f016020809104026020016040519081016040528092919081815260200182805461090d90614bb9565b801561095a5780601f1061092f5761010080835404028352916020019161095a565b820191906000526020600020905b81548152906001019060200180831161093d57829003601f168201915b50505050509080600201805461096f90614bb9565b80601f016020809104026020016040519081016040528092919081815260200182805461099b90614bb9565b80156109e85780601f106109bd576101008083540402835291602001916109e8565b820191906000526020600020905b8154815290600101906020018083116109cb57829003601f168201915b5050505050908060030180546109fd90614bb9565b80601f0160208091040260200160405190810160405280929190818152602001828054610a2990614bb9565b8015610a765780601f10610a4b57610100808354040283529160200191610a76565b820191906000526020600020905b815481529060010190602001808311610a5957829003601f168201915b505050505090806004018054610a8b90614bb9565b80601f0160208091040260200160405190810160405280929190818152602001828054610ab790614bb9565b8015610b045780601f10610ad957610100808354040283529160200191610b04565b820191906000526020600020905b815481529060010190602001808311610ae757829003601f168201915b505050505090806005018054610b1990614bb9565b80601f0160208091040260200160405190810160405280929190818152602001828054610b4590614bb9565b8015610b925780601f10610b6757610100808354040283529160200191610b92565b820191906000526020600020905b815481529060010190602001808311610b7557829003601f168201915b505050505090806006018054610ba790614bb9565b80601f0160208091040260200160405190810160405280929190818152602001828054610bd390614bb9565b8015610c205780601f10610bf557610100808354040283529160200191610c20565b820191906000526020600020905b815481529060010190602001808311610c0357829003601f168201915b505050505090806007018054610c3590614bb9565b80601f0160208091040260200160405190810160405280929190818152602001828054610c6190614bb9565b8015610cae5780601f10610c8357610100808354040283529160200191610cae565b820191906000526020600020905b815481529060010190602001808311610c9157829003601f168201915b5050505050905088565b610cc06137ef565b600560008373ffffffffffffffffffffffffffffffffffffffff1673ffffffffffffffffffffffffffffffffffffffff16815260200190815260200160002060080160009054906101000a900460ff16610d4f576040517f08c379a0000000000000000000000000000000000000000000000000000000008152600401610d4690614c36565b60405180910390fd5b600560008373ffffffffffffffffffffffffffffffffffffffff1673ffffffffffffffffffffffffffffffffffffffff168152602001908152602001600020604051806101400160405290816000820160009054906101000a900473ffffffffffffffffffffffffffffffffffffffff1673ffffffffffffffffffffffffffffffffffffffff1673ffffffffffffffffffffffffffffffffffffffff16815260200160018201548152602001600282018054610e0a90614bb9565b80601f0160208091040260200160405190810160405280929190818152602001828054610e3690614bb9565b8015610e835780601f10610e5857610100808354040283529160200191610e83565b820191906000526020600020905b815481529060010190602001808311610e6657829003601f168201915b50505050508152602001600382018054610e9c90614bb9565b80601f0160208091040260200160405190810160405280929190818152602001828054610ec890614bb9565b8015610f155780601f10610eea57610100808354040283529160200191610f15565b820191906000526020600020905b815481529060010190602001808311610ef857829003601f168201915b5050505050815260200160048201548152602001600582015481526020016006820154815260200160078201805480602002602001604051908101604052809291908181526020018280548015610fc157602002820191906000526020600020905b8160009054906101000a900473ffffffffffffffffffffffffffffffffffffffff1673ffffffffffffffffffffffffffffffffffffffff1681526020019060010190808311610f77575b505050505081526020016008820160009054906101000a900460ff16151515158152602001600982018054610ff590614bb9565b80601f016020809104026020016040519081016040528092919081815260200182805461102190614bb9565b801561106e5780601f106110435761010080835404028352916020019161106e565b820191906000526020600020905b81548152906001019060200180831161105157829003601f168201915b5050505050815250509050919050565b600460008373ffffffffffffffffffffffffffffffffffffffff1673ffffffffffffffffffffffffffffffffffffffff16815260200190815260200160002060060160009054906101000a900460ff1661110d576040517f08c379a000000000000000000000000000000000000000000000000000000000815260040161110490614ca2565b60405180910390fd5b600460008373ffffffffffffffffffffffffffffffffffffffff1673ffffffffffffffffffffffffffffffffffffffff168152602001908152602001600020600801819080600181540180825580915050600190039060005260206000200160009091909190915090816111819190614e6e565b505050565b6001819080600181540180825580915050600190039060005260206000200160009091909190915090816111ba9190614e6e565b5050565b604051806101000160405280898152602001888152602001878152602001868152602001858152602001848152602001838152602001828152506000808b73ffffffffffffffffffffffffffffffffffffffff1673ffffffffffffffffffffffffffffffffffffffff1681526020019081526020016000206000820151816000015560208201518160010190816112559190614e6e565b50604082015181600201908161126b9190614e6e565b5060608201518160030190816112819190614e6e565b5060808201518160040190816112979190614e6e565b5060a08201518160050190816112ad9190614e6e565b5060c08201518160060190816112c39190614e6e565b5060e08201518160070190816112d99190614e6e565b50905050505050505050505050565b600033905060001515600660008373ffffffffffffffffffffffffffffffffffffffff1673ffffffffffffffffffffffffffffffffffffffff16815260200190815260200160002060060160009054906101000a900460ff16151514611383576040517f08c379a000000000000000000000000000000000000000000000000000000000815260040161137a90614f8c565b60405180910390fd5b6000600660008373ffffffffffffffffffffffffffffffffffffffff1673ffffffffffffffffffffffffffffffffffffffff1681526020019081526020016000209050818160000160006101000a81548173ffffffffffffffffffffffffffffffffffffffff021916908373ffffffffffffffffffffffffffffffffffffffff160217905550868160010181905550858160020190816114239190614e6e565b508481600301819055508381600401908161143e9190614e6e565b508281600501819055506040518060400160405280600b81526020017f506174686f6c6f67697374000000000000000000000000000000000000000000815250600360008473ffffffffffffffffffffffffffffffffffffffff1673ffffffffffffffffffffffffffffffffffffffff16815260200190815260200160002090816114c99190614e6e565b5060018160060160006101000a81548160ff0219169083151502179055506040518060400160405280600b81526020017f506174686f6c6f6769737400000000000000000000000000000000000000000081525081600801908161152d9190614e6e565b5050505050505050565b60098190806001815401808255809150506001900390600052602060002001600090919091909150908161156b9190614e6e565b5050565b7f675bc9802ff0994bbcafe826bffd0f15ec0a3ec17fd0cfbe035a08cbededf8a3838051906020012003611cbb57600460003373ffffffffffffffffffffffffffffffffffffffff1673ffffffffffffffffffffffffffffffffffffffff16815260200190815260200160002060060160009054906101000a900460ff1661162c576040517f08c379a000000000000000000000000000000000000000000000000000000000815260040161162390614ca2565b60405180910390fd5b7f81801538196f6575c6900044ae3429ef092e7ad29a7f4da69ed7f897d69f5759828051906020012003611787576000600560008373ffffffffffffffffffffffffffffffffffffffff1673ffffffffffffffffffffffffffffffffffffffff16815260200190815260200160002060050154036116df576040517f08c379a00000000000000000000000000000000000000000000000000000000081526004016116d690614c36565b60405180910390fd5b600560008273ffffffffffffffffffffffffffffffffffffffff1673ffffffffffffffffffffffffffffffffffffffff168152602001908152602001600020600701339080600181540180825580915050600190039060005260206000200160009091909190916101000a81548173ffffffffffffffffffffffffffffffffffffffff021916908373ffffffffffffffffffffffffffffffffffffffff160217905550611cba565b7f25c5b8ad70a2aae48e105ad1defb4db2071cfe805f37688493811662827be14282805190602001200361192e57600073ffffffffffffffffffffffffffffffffffffffff16600660008373ffffffffffffffffffffffffffffffffffffffff1673ffffffffffffffffffffffffffffffffffffffff16815260200190815260200160002060000160009054906101000a900473ffffffffffffffffffffffffffffffffffffffff1673ffffffffffffffffffffffffffffffffffffffff1603611886576040517f08c379a000000000000000000000000000000000000000000000000000000000815260040161187d90614ff8565b60405180910390fd5b600660008273ffffffffffffffffffffffffffffffffffffffff1673ffffffffffffffffffffffffffffffffffffffff168152602001908152602001600020600701339080600181540180825580915050600190039060005260206000200160009091909190916101000a81548173ffffffffffffffffffffffffffffffffffffffff021916908373ffffffffffffffffffffffffffffffffffffffff160217905550611cb9565b7f8aef25603e09a14c263a6e271c085f8e2764c5df2a79ce7ef9270a7bdd45072c828051906020012003611ad557600073ffffffffffffffffffffffffffffffffffffffff16600760008373ffffffffffffffffffffffffffffffffffffffff1673ffffffffffffffffffffffffffffffffffffffff16815260200190815260200160002060000160009054906101000a900473ffffffffffffffffffffffffffffffffffffffff1673ffffffffffffffffffffffffffffffffffffffff1603611a2d576040517f08c379a0000000000000000000000000000000000000000000000000000000008152600401611a249061508a565b60405180910390fd5b600760008273ffffffffffffffffffffffffffffffffffffffff1673ffffffffffffffffffffffffffffffffffffffff168152602001908152602001600020600701339080600181540180825580915050600190039060005260206000200160009091909190916101000a81548173ffffffffffffffffffffffffffffffffffffffff021916908373ffffffffffffffffffffffffffffffffffffffff160217905550611cb8565b7f07e343dc849601cdf88dd1e300e4fa5a1a1ae98568c5b9d8cea9dacb2617385a828051906020012003611c7c57600073ffffffffffffffffffffffffffffffffffffffff16600860008373ffffffffffffffffffffffffffffffffffffffff1673ffffffffffffffffffffffffffffffffffffffff16815260200190815260200160002060000160009054906101000a900473ffffffffffffffffffffffffffffffffffffffff1673ffffffffffffffffffffffffffffffffffffffff1603611bd4576040517f08c379a0000000000000000000000000000000000000000000000000000000008152600401611bcb906150f6565b60405180910390fd5b600860008273ffffffffffffffffffffffffffffffffffffffff1673ffffffffffffffffffffffffffffffffffffffff168152602001908152602001600020600701339080600181540180825580915050600190039060005260206000200160009091909190916101000a81548173ffffffffffffffffffffffffffffffffffffffff021916908373ffffffffffffffffffffffffffffffffffffffff160217905550611cb7565b6040517f08c379a0000000000000000000000000000000000000000000000000000000008152600401611cae90615162565b60405180910390fd5b5b5b5b5b505050565b600033905060001515600860008373ffffffffffffffffffffffffffffffffffffffff1673ffffffffffffffffffffffffffffffffffffffff16815260200190815260200160002060060160009054906101000a900460ff16151514611d5b576040517f08c379a0000000000000000000000000000000000000000000000000000000008152600401611d5290614f8c565b60405180910390fd5b6000600860008373ffffffffffffffffffffffffffffffffffffffff1673ffffffffffffffffffffffffffffffffffffffff1681526020019081526020016000209050818160000160006101000a81548173ffffffffffffffffffffffffffffffffffffffff021916908373ffffffffffffffffffffffffffffffffffffffff16021790555086816001018190555085816002019081611dfb9190614e6e565b5084816003018190555083816004019081611e169190614e6e565b5082816005018190555060018160060160006101000a81548160ff0219169083151502179055506040518060400160405280600f81526020017f506861726d616379436f6d70616e790000000000000000000000000000000000815250600360008473ffffffffffffffffffffffffffffffffffffffff1673ffffffffffffffffffffffffffffffffffffffff1681526020019081526020016000209081611ebe9190614e6e565b506040518060400160405280600f81526020017f506861726d616379436f6d70616e790000000000000000000000000000000000815250816008019081611f059190614e6e565b5050505050505050565b60018181548110611f1f57600080fd5b906000526020600020016000915090508054611f3a90614bb9565b80601f0160208091040260200160405190810160405280929190818152602001828054611f6690614bb9565b8015611fb35780601f10611f8857610100808354040283529160200191611fb3565b820191906000526020600020905b815481529060010190602001808311611f9657829003601f168201915b505050505081565b611fc361385a565b600860008373ffffffffffffffffffffffffffffffffffffffff1673ffffffffffffffffffffffffffffffffffffffff16815260200190815260200160002060060160009054906101000a900460ff16612052576040517f08c379a0000000000000000000000000000000000000000000000000000000008152600401612049906151f4565b60405180910390fd5b600860008373ffffffffffffffffffffffffffffffffffffffff1673ffffffffffffffffffffffffffffffffffffffff168152602001908152602001600020604051806101200160405290816000820160009054906101000a900473ffffffffffffffffffffffffffffffffffffffff1673ffffffffffffffffffffffffffffffffffffffff1673ffffffffffffffffffffffffffffffffffffffff1681526020016001820154815260200160028201805461210d90614bb9565b80601f016020809104026020016040519081016040528092919081815260200182805461213990614bb9565b80156121865780601f1061215b57610100808354040283529160200191612186565b820191906000526020600020905b81548152906001019060200180831161216957829003601f168201915b50505050508152602001600382015481526020016004820180546121a990614bb9565b80601f01602080910402602001604051908101604052809291908181526020018280546121d590614bb9565b80156122225780601f106121f757610100808354040283529160200191612222565b820191906000526020600020905b81548152906001019060200180831161220557829003601f168201915b50505050508152602001600582015481526020016006820160009054906101000a900460ff16151515158152602001600782018054806020026020016040519081016040528092919081815260200182805480156122d557602002820191906000526020600020905b8160009054906101000a900473ffffffffffffffffffffffffffffffffffffffff1673ffffffffffffffffffffffffffffffffffffffff168152602001906001019080831161228b575b505050505081526020016008820180546122ee90614bb9565b80601f016020809104026020016040519081016040528092919081815260200182805461231a90614bb9565b80156123675780601f1061233c57610100808354040283529160200191612367565b820191906000526020600020905b81548152906001019060200180831161234a57829003601f168201915b5050505050815250509050919050565b61237f6138be565b600460008373ffffffffffffffffffffffffffffffffffffffff1673ffffffffffffffffffffffffffffffffffffffff16815260200190815260200160002060060160009054906101000a900460ff1661240e576040517f08c379a000000000000000000000000000000000000000000000000000000000815260040161240590614ca2565b60405180910390fd5b600460008373ffffffffffffffffffffffffffffffffffffffff1673ffffffffffffffffffffffffffffffffffffffff168152602001908152602001600020604051806101400160405290816000820160009054906101000a900473ffffffffffffffffffffffffffffffffffffffff1673ffffffffffffffffffffffffffffffffffffffff1673ffffffffffffffffffffffffffffffffffffffff168152602001600182015481526020016002820180546124c990614bb9565b80601f01602080910402602001604051908101604052809291908181526020018280546124f590614bb9565b80156125425780601f1061251757610100808354040283529160200191612542565b820191906000526020600020905b81548152906001019060200180831161252557829003601f168201915b5050505050815260200160038201805461255b90614bb9565b80601f016020809104026020016040519081016040528092919081815260200182805461258790614bb9565b80156125d45780601f106125a9576101008083540402835291602001916125d4565b820191906000526020600020905b8154815290600101906020018083116125b757829003601f168201915b50505050508152602001600482015481526020016005820180546125f790614bb9565b80601f016020809104026020016040519081016040528092919081815260200182805461262390614bb9565b80156126705780601f1061264557610100808354040283529160200191612670565b820191906000526020600020905b81548152906001019060200180831161265357829003601f168201915b505050505081526020016006820160009054906101000a900460ff161515151581526020016007820180546126a490614bb9565b80601f01602080910402602001604051908101604052809291908181526020018280546126d090614bb9565b801561271d5780601f106126f25761010080835404028352916020019161271d565b820191906000526020600020905b81548152906001019060200180831161270057829003601f168201915b5050505050815260200160088201805480602002602001604051908101604052809291908181526020016000905b828210156127f757838290600052602060002001805461276a90614bb9565b80601f016020809104026020016040519081016040528092919081815260200182805461279690614bb9565b80156127e35780601f106127b8576101008083540402835291602001916127e3565b820191906000526020600020905b8154815290600101906020018083116127c657829003601f168201915b50505050508152602001906001019061274b565b50505050815260200160098201604051806101000160405290816000820154815260200160018201805461282a90614bb9565b80601f016020809104026020016040519081016040528092919081815260200182805461285690614bb9565b80156128a35780601f10612878576101008083540402835291602001916128a3565b820191906000526020600020905b81548152906001019060200180831161288657829003601f168201915b505050505081526020016002820180546128bc90614bb9565b80601f01602080910402602001604051908101604052809291908181526020018280546128e890614bb9565b80156129355780601f1061290a57610100808354040283529160200191612935565b820191906000526020600020905b81548152906001019060200180831161291857829003601f168201915b5050505050815260200160038201805461294e90614bb9565b80601f016020809104026020016040519081016040528092919081815260200182805461297a90614bb9565b80156129c75780601f1061299c576101008083540402835291602001916129c7565b820191906000526020600020905b8154815290600101906020018083116129aa57829003601f168201915b505050505081526020016004820180546129e090614bb9565b80601f0160208091040260200160405190810160405280929190818152602001828054612a0c90614bb9565b8015612a595780601f10612a2e57610100808354040283529160200191612a59565b820191906000526020600020905b815481529060010190602001808311612a3c57829003601f168201915b50505050508152602001600582018054612a7290614bb9565b80601f0160208091040260200160405190810160405280929190818152602001828054612a9e90614bb9565b8015612aeb5780601f10612ac057610100808354040283529160200191612aeb565b820191906000526020600020905b815481529060010190602001808311612ace57829003601f168201915b50505050508152602001600682018054612b0490614bb9565b80601f0160208091040260200160405190810160405280929190818152602001828054612b3090614bb9565b8015612b7d5780601f10612b5257610100808354040283529160200191612b7d565b820191906000526020600020905b815481529060010190602001808311612b6057829003601f168201915b50505050508152602001600782018054612b9690614bb9565b80601f0160208091040260200160405190810160405280929190818152602001828054612bc290614bb9565b8015612c0f5780601f10612be457610100808354040283529160200191612c0f565b820191906000526020600020905b815481529060010190602001808311612bf257829003601f168201915b505050505081525050815250509050919050565b600033905060001515600760008373ffffffffffffffffffffffffffffffffffffffff1673ffffffffffffffffffffffffffffffffffffffff16815260200190815260200160002060060160009054906101000a900460ff16151514612cbe576040517f08c379a0000000000000000000000000000000000000000000000000000000008152600401612cb590614f8c565b60405180910390fd5b6000600760008373ffffffffffffffffffffffffffffffffffffffff1673ffffffffffffffffffffffffffffffffffffffff1681526020019081526020016000209050818160000160006101000a81548173ffffffffffffffffffffffffffffffffffffffff021916908373ffffffffffffffffffffffffffffffffffffffff16021790555086816001018190555085816002019081612d5e9190614e6e565b5084816003018190555083816004019081612d799190614e6e565b5082816005018190555060018160060160006101000a81548160ff0219169083151502179055506040518060400160405280601281526020017f4d65646963616c52657365617263684c61620000000000000000000000000000815250600360008473ffffffffffffffffffffffffffffffffffffffff1673ffffffffffffffffffffffffffffffffffffffff1681526020019081526020016000209081612e219190614e6e565b506040518060400160405280601281526020017f4d65646963616c52657365617263684c61620000000000000000000000000000815250816008019081612e689190614e6e565b5050505050505050565b600033905060001515600460008373ffffffffffffffffffffffffffffffffffffffff1673ffffffffffffffffffffffffffffffffffffffff16815260200190815260200160002060060160009054906101000a900460ff16151514612f0d576040517f08c379a0000000000000000000000000000000000000000000000000000000008152600401612f0490615286565b60405180910390fd5b6000600460008373ffffffffffffffffffffffffffffffffffffffff1673ffffffffffffffffffffffffffffffffffffffff1681526020019081526020016000209050818160000160006101000a81548173ffffffffffffffffffffffffffffffffffffffff021916908373ffffffffffffffffffffffffffffffffffffffff16021790555086816001018190555085816002019081612fad9190614e6e565b5084816003019081612fbf9190614e6e565b508381600401819055506040518060400160405280600781526020017f50617469656e7400000000000000000000000000000000000000000000000000815250600360008473ffffffffffffffffffffffffffffffffffffffff1673ffffffffffffffffffffffffffffffffffffffff168152602001908152602001600020908161304a9190614e6e565b508281600501908161305c9190614e6e565b5060018160060160006101000a81548160ff0219169083151502179055506040518060400160405280600781526020017f50617469656e74000000000000000000000000000000000000000000000000008152508160070190816130c09190614e6e565b5050505050505050565b600981815481106130da57600080fd5b9060005260206000200160009150905080546130f590614bb9565b80601f016020809104026020016040519081016040528092919081815260200182805461312190614bb9565b801561316e5780601f106131435761010080835404028352916020019161316e565b820191906000526020600020905b81548152906001019060200180831161315157829003601f168201915b505050505081565b61317e61392f565b600760008373ffffffffffffffffffffffffffffffffffffffff1673ffffffffffffffffffffffffffffffffffffffff16815260200190815260200160002060060160009054906101000a900460ff1661320d576040517f08c379a000000000000000000000000000000000000000000000000000000000815260040161320490615318565b60405180910390fd5b600760008373ffffffffffffffffffffffffffffffffffffffff1673ffffffffffffffffffffffffffffffffffffffff168152602001908152602001600020604051806101200160405290816000820160009054906101000a900473ffffffffffffffffffffffffffffffffffffffff1673ffffffffffffffffffffffffffffffffffffffff1673ffffffffffffffffffffffffffffffffffffffff168152602001600182015481526020016002820180546132c890614bb9565b80601f01602080910402602001604051908101604052809291908181526020018280546132f490614bb9565b80156133415780601f1061331657610100808354040283529160200191613341565b820191906000526020600020905b81548152906001019060200180831161332457829003601f168201915b505050505081526020016003820154815260200160048201805461336490614bb9565b80601f016020809104026020016040519081016040528092919081815260200182805461339090614bb9565b80156133dd5780601f106133b2576101008083540402835291602001916133dd565b820191906000526020600020905b8154815290600101906020018083116133c057829003601f168201915b50505050508152602001600582015481526020016006820160009054906101000a900460ff161515151581526020016007820180548060200260200160405190810160405280929190818152602001828054801561349057602002820191906000526020600020905b8160009054906101000a900473ffffffffffffffffffffffffffffffffffffffff1673ffffffffffffffffffffffffffffffffffffffff1681526020019060010190808311613446575b505050505081526020016008820180546134a990614bb9565b80601f01602080910402602001604051908101604052809291908181526020018280546134d590614bb9565b80156135225780601f106134f757610100808354040283529160200191613522565b820191906000526020600020905b81548152906001019060200180831161350557829003601f168201915b5050505050815250509050919050565b600033905060001515600560008373ffffffffffffffffffffffffffffffffffffffff1673ffffffffffffffffffffffffffffffffffffffff16815260200190815260200160002060080160009054906101000a900460ff161515146135cd576040517f08c379a00000000000000000000000000000000000000000000000000000000081526004016135c490614f8c565b60405180910390fd5b6000600560008373ffffffffffffffffffffffffffffffffffffffff1673ffffffffffffffffffffffffffffffffffffffff1681526020019081526020016000209050818160000160006101000a81548173ffffffffffffffffffffffffffffffffffffffff021916908373ffffffffffffffffffffffffffffffffffffffff1602179055508781600101819055508681600201908161366d9190614e6e565b508581600301908161367f9190614e6e565b508481600401819055508381600501819055508281600601819055506040518060400160405280600681526020017f446f63746f7200000000000000000000000000000000000000000000000000008152508160090190816136e19190614e6e565b5060018160080160006101000a81548160ff0219169083151502179055506040518060400160405280600681526020017f446f63746f720000000000000000000000000000000000000000000000000000815250600360008473ffffffffffffffffffffffffffffffffffffffff1673ffffffffffffffffffffffffffffffffffffffff16815260200190815260200160002090816137809190614e6e565b505050505050505050565b604051806101200160405280600073ffffffffffffffffffffffffffffffffffffffff168152602001600081526020016060815260200160008152602001606081526020016000815260200160001515815260200160608152602001606081525090565b604051806101400160405280600073ffffffffffffffffffffffffffffffffffffffff16815260200160008152602001606081526020016060815260200160008152602001600081526020016000815260200160608152602001600015158152602001606081525090565b604051806101200160405280600073ffffffffffffffffffffffffffffffffffffffff168152602001600081526020016060815260200160008152602001606081526020016000815260200160001515815260200160608152602001606081525090565b604051806101400160405280600073ffffffffffffffffffffffffffffffffffffffff16815260200160008152602001606081526020016060815260200160008152602001606081526020016000151581526020016060815260200160608152602001613929613993565b81525090565b604051806101200160405280600073ffffffffffffffffffffffffffffffffffffffff168152602001600081526020016060815260200160008152602001606081526020016000815260200160001515815260200160608152602001606081525090565b60405180610100016040528060008152602001606081526020016060815260200160608152602001606081526020016060815260200160608152602001606081525090565b6000604051905090565b600080fd5b600080fd5b600073ffffffffffffffffffffffffffffffffffffffff82169050919050565b6000613a17826139ec565b9050919050565b613a2781613a0c565b8114613a3257600080fd5b50565b600081359050613a4481613a1e565b92915050565b600060208284031215613a6057613a5f6139e2565b5b6000613a6e84828501613a35565b91505092915050565b613a8081613a0c565b82525050565b6000819050919050565b613a9981613a86565b82525050565b600081519050919050565b600082825260208201905092915050565b60005b83811015613ad9578082015181840152602081019050613abe565b60008484015250505050565b6000601f19601f8301169050919050565b6000613b0182613a9f565b613b0b8185613aaa565b9350613b1b818560208601613abb565b613b2481613ae5565b840191505092915050565b60008115159050919050565b613b4481613b2f565b82525050565b600081519050919050565b600082825260208201905092915050565b6000819050602082019050919050565b6000613b828383613a77565b60208301905092915050565b6000602082019050919050565b6000613ba682613b4a565b613bb08185613b55565b9350613bbb83613b66565b8060005b83811015613bec578151613bd38882613b76565b9750613bde83613b8e565b925050600181019050613bbf565b5085935050505092915050565b600061012083016000830151613c126000860182613a77565b506020830151613c256020860182613a90565b5060408301518482036040860152613c3d8282613af6565b9150506060830151613c526060860182613a90565b5060808301518482036080860152613c6a8282613af6565b91505060a0830151613c7f60a0860182613a90565b5060c0830151613c9260c0860182613b3b565b5060e083015184820360e0860152613caa8282613b9b565b915050610100830151848203610100860152613cc68282613af6565b9150508091505092915050565b60006020820190508181036000830152613ced8184613bf9565b905092915050565b600081519050919050565b600082825260208201905092915050565b6000819050602082019050919050565b6000613d2d8383613af6565b905092915050565b6000602082019050919050565b6000613d4d82613cf5565b613d578185613d00565b935083602082028501613d6985613d11565b8060005b85811015613da55784840389528151613d868582613d21565b9450613d9183613d35565b925060208a01995050600181019050613d6d565b50829750879550505050505092915050565b60006020820190508181036000830152613dd18184613d42565b905092915050565b613de281613a86565b82525050565b600082825260208201905092915050565b6000613e0482613a9f565b613e0e8185613de8565b9350613e1e818560208601613abb565b613e2781613ae5565b840191505092915050565b600061010082019050613e48600083018b613dd9565b8181036020830152613e5a818a613df9565b90508181036040830152613e6e8189613df9565b90508181036060830152613e828188613df9565b90508181036080830152613e968187613df9565b905081810360a0830152613eaa8186613df9565b905081810360c0830152613ebe8185613df9565b905081810360e0830152613ed28184613df9565b90509998505050505050505050565b600061014083016000830151613efa6000860182613a77565b506020830151613f0d6020860182613a90565b5060408301518482036040860152613f258282613af6565b91505060608301518482036060860152613f3f8282613af6565b9150506080830151613f546080860182613a90565b5060a0830151613f6760a0860182613a90565b5060c0830151613f7a60c0860182613a90565b5060e083015184820360e0860152613f928282613b9b565b915050610100830151613fa9610100860182613b3b565b50610120830151848203610120860152613fc38282613af6565b9150508091505092915050565b60006020820190508181036000830152613fea8184613ee1565b905092915050565b600080fd5b600080fd5b7f4e487b7100000000000000000000000000000000000000000000000000000000600052604160045260246000fd5b61403482613ae5565b810181811067ffffffffffffffff8211171561405357614052613ffc565b5b80604052505050565b60006140666139d8565b9050614072828261402b565b919050565b600067ffffffffffffffff82111561409257614091613ffc565b5b61409b82613ae5565b9050602081019050919050565b82818337600083830152505050565b60006140ca6140c584614077565b61405c565b9050828152602081018484840111156140e6576140e5613ff7565b5b6140f18482856140a8565b509392505050565b600082601f83011261410e5761410d613ff2565b5b813561411e8482602086016140b7565b91505092915050565b6000806040838503121561413e5761413d6139e2565b5b600061414c85828601613a35565b925050602083013567ffffffffffffffff81111561416d5761416c6139e7565b5b614179858286016140f9565b9150509250929050565b600060208284031215614199576141986139e2565b5b600082013567ffffffffffffffff8111156141b7576141b66139e7565b5b6141c3848285016140f9565b91505092915050565b6141d581613a86565b81146141e057600080fd5b50565b6000813590506141f2816141cc565b92915050565b60008060008060008060008060006101208a8c03121561421b5761421a6139e2565b5b60006142298c828d01613a35565b995050602061423a8c828d016141e3565b98505060408a013567ffffffffffffffff81111561425b5761425a6139e7565b5b6142678c828d016140f9565b97505060608a013567ffffffffffffffff811115614288576142876139e7565b5b6142948c828d016140f9565b96505060808a013567ffffffffffffffff8111156142b5576142b46139e7565b5b6142c18c828d016140f9565b95505060a08a013567ffffffffffffffff8111156142e2576142e16139e7565b5b6142ee8c828d016140f9565b94505060c08a013567ffffffffffffffff81111561430f5761430e6139e7565b5b61431b8c828d016140f9565b93505060e08a013567ffffffffffffffff81111561433c5761433b6139e7565b5b6143488c828d016140f9565b9250506101008a013567ffffffffffffffff81111561436a576143696139e7565b5b6143768c828d016140f9565b9150509295985092959850929598565b600080600080600060a086880312156143a2576143a16139e2565b5b60006143b0888289016141e3565b955050602086013567ffffffffffffffff8111156143d1576143d06139e7565b5b6143dd888289016140f9565b94505060406143ee888289016141e3565b935050606086013567ffffffffffffffff81111561440f5761440e6139e7565b5b61441b888289016140f9565b925050608061442c888289016141e3565b9150509295509295909350565b600080600060608486031215614452576144516139e2565b5b600084013567ffffffffffffffff8111156144705761446f6139e7565b5b61447c868287016140f9565b935050602084013567ffffffffffffffff81111561449d5761449c6139e7565b5b6144a9868287016140f9565b92505060406144ba86828701613a35565b9150509250925092565b6000602082840312156144da576144d96139e2565b5b60006144e8848285016141e3565b91505092915050565b6000602082019050818103600083015261450b8184613df9565b905092915050565b60006101208301600083015161452c6000860182613a77565b50602083015161453f6020860182613a90565b50604083015184820360408601526145578282613af6565b915050606083015161456c6060860182613a90565b50608083015184820360808601526145848282613af6565b91505060a083015161459960a0860182613a90565b5060c08301516145ac60c0860182613b3b565b5060e083015184820360e08601526145c48282613b9b565b9150506101008301518482036101008601526145e08282613af6565b9150508091505092915050565b600060208201905081810360008301526146078184614513565b905092915050565b600082825260208201905092915050565b600061462b82613cf5565b614635818561460f565b93508360208202850161464785613d11565b8060005b8581101561468357848403895281516146648582613d21565b945061466f83613d35565b925060208a0199505060018101905061464b565b50829750879550505050505092915050565b6000610100830160008301516146ae6000860182613a90565b50602083015184820360208601526146c68282613af6565b915050604083015184820360408601526146e08282613af6565b915050606083015184820360608601526146fa8282613af6565b915050608083015184820360808601526147148282613af6565b91505060a083015184820360a086015261472e8282613af6565b91505060c083015184820360c08601526147488282613af6565b91505060e083015184820360e08601526147628282613af6565b9150508091505092915050565b6000610140830160008301516147886000860182613a77565b50602083015161479b6020860182613a90565b50604083015184820360408601526147b38282613af6565b915050606083015184820360608601526147cd8282613af6565b91505060808301516147e26080860182613a90565b5060a083015184820360a08601526147fa8282613af6565b91505060c083015161480f60c0860182613b3b565b5060e083015184820360e08601526148278282613af6565b9150506101008301518482036101008601526148438282614620565b91505061012083015184820361012086015261485f8282614695565b9150508091505092915050565b60006020820190508181036000830152614886818461476f565b905092915050565b600080600080600060a086880312156148aa576148a96139e2565b5b60006148b8888289016141e3565b955050602086013567ffffffffffffffff8111156148d9576148d86139e7565b5b6148e5888289016140f9565b945050604086013567ffffffffffffffff811115614906576149056139e7565b5b614912888289016140f9565b9350506060614923888289016141e3565b925050608086013567ffffffffffffffff811115614944576149436139e7565b5b614950888289016140f9565b9150509295509295909350565b6000610120830160008301516149766000860182613a77565b5060208301516149896020860182613a90565b50604083015184820360408601526149a18282613af6565b91505060608301516149b66060860182613a90565b50608083015184820360808601526149ce8282613af6565b91505060a08301516149e360a0860182613a90565b5060c08301516149f660c0860182613b3b565b5060e083015184820360e0860152614a0e8282613b9b565b915050610100830151848203610100860152614a2a8282613af6565b9150508091505092915050565b60006020820190508181036000830152614a51818461495d565b905092915050565b60008060008060008060c08789031215614a7657614a756139e2565b5b6000614a8489828a016141e3565b965050602087013567ffffffffffffffff811115614aa557614aa46139e7565b5b614ab189828a016140f9565b955050604087013567ffffffffffffffff811115614ad257614ad16139e7565b5b614ade89828a016140f9565b9450506060614aef89828a016141e3565b9350506080614b0089828a016141e3565b92505060a0614b1189828a016141e3565b9150509295509295509295565b7f706174686f6c6f676973747320646f6573206e6f742065786973740000000000600082015250565b6000614b54601b83613de8565b9150614b5f82614b1e565b602082019050919050565b60006020820190508181036000830152614b8381614b47565b9050919050565b7f4e487b7100000000000000000000000000000000000000000000000000000000600052602260045260246000fd5b60006002820490506001821680614bd157607f821691505b602082108103614be457614be3614b8a565b5b50919050565b7f446f63746f7220646f6573206e6f742065786973740000000000000000000000600082015250565b6000614c20601583613de8565b9150614c2b82614bea565b602082019050919050565b60006020820190508181036000830152614c4f81614c13565b9050919050565b7f50617469656e7420646f6573206e6f7420657869737400000000000000000000600082015250565b6000614c8c601683613de8565b9150614c9782614c56565b602082019050919050565b60006020820190508181036000830152614cbb81614c7f565b9050919050565b60008190508160005260206000209050919050565b60006020601f8301049050919050565b600082821b905092915050565b600060088302614d247fffffffffffffffffffffffffffffffffffffffffffffffffffffffffffffffff82614ce7565b614d2e8683614ce7565b95508019841693508086168417925050509392505050565b6000819050919050565b6000614d6b614d66614d6184613a86565b614d46565b613a86565b9050919050565b6000819050919050565b614d8583614d50565b614d99614d9182614d72565b848454614cf4565b825550505050565b600090565b614dae614da1565b614db9818484614d7c565b505050565b5b81811015614ddd57614dd2600082614da6565b600181019050614dbf565b5050565b601f821115614e2257614df381614cc2565b614dfc84614cd7565b81016020851015614e0b578190505b614e1f614e1785614cd7565b830182614dbe565b50505b505050565b600082821c905092915050565b6000614e4560001984600802614e27565b1980831691505092915050565b6000614e5e8383614e34565b9150826002028217905092915050565b614e7782613a9f565b67ffffffffffffffff811115614e9057614e8f613ffc565b5b614e9a8254614bb9565b614ea5828285614de1565b600060209050601f831160018114614ed85760008415614ec6578287015190505b614ed08582614e52565b865550614f38565b601f198416614ee686614cc2565b60005b82811015614f0e57848901518255600182019150602085019450602081019050614ee9565b86831015614f2b5784890151614f27601f891682614e34565b8355505b6001600288020188555050505b505050505050565b7f796f7520616c72656164792063726561746520796f75722070726f66696c6500600082015250565b6000614f76601f83613de8565b9150614f8182614f40565b602082019050919050565b60006020820190508181036000830152614fa581614f69565b9050919050565b7f506174686f6c6f6769737420646f6573206e6f74206578697374000000000000600082015250565b6000614fe2601a83613de8565b9150614fed82614fac565b602082019050919050565b6000602082019050818103600083015261501181614fd5565b9050919050565b7f4d65646963616c205265736561726368204c616220646f6573206e6f7420657860008201527f6973740000000000000000000000000000000000000000000000000000000000602082015250565b6000615074602383613de8565b915061507f82615018565b604082019050919050565b600060208201905081810360008301526150a381615067565b9050919050565b7f506861726d61637920436f6d70616e7920646f6573206e6f7420657869737400600082015250565b60006150e0601f83613de8565b91506150eb826150aa565b602082019050919050565b6000602082019050818103600083015261510f816150d3565b9050919050565b7f556e737570706f7274656420656e746974792074797065000000000000000000600082015250565b600061514c601783613de8565b915061515782615116565b602082019050919050565b6000602082019050818103600083015261517b8161513f565b9050919050565b7f506861726d61637920436f6d70616e69657320646f6573206e6f74206578697360008201527f7400000000000000000000000000000000000000000000000000000000000000602082015250565b60006151de602183613de8565b91506151e982615182565b604082019050919050565b6000602082019050818103600083015261520d816151d1565b9050919050565b7f596f75206861766520616c7265616479206372656174656420796f757220707260008201527f6f66696c65000000000000000000000000000000000000000000000000000000602082015250565b6000615270602583613de8565b915061527b82615214565b604082019050919050565b6000602082019050818103600083015261529f81615263565b9050919050565b7f4d65646963616c205265736561726368206c616220646f6573206e6f7420657860008201527f6973740000000000000000000000000000000000000000000000000000000000602082015250565b6000615302602383613de8565b915061530d826152a6565b604082019050919050565b60006020820190508181036000830152615331816152f5565b905091905056fea26469706673582212202e1c6ee8917462d886456593b0c4e73d9ac6a8f89438469ccd3a2e08796e800464736f6c63430008110033",
  "linkReferences": {},
  "deployedLinkReferences": {}
}