{
  "_format": "hh-sol-artifact-1",
  "contractName": "MedicalData",
  "sourceName": "contracts/patientDataManagement.sol",
  "abi": [
    {
      "inputs": [
        {
          "internalType": "uint256",
          "name": "",
          "type": "uint256"
        }
      ],
      "name": "MedicalResearchLabReports",
      "outputs": [
        {
          "internalType": "string",
          "name": "",
          "type": "string"
        }
      ],
      "stateMutability": "view",
      "type": "function"
    },
    {
      "inputs": [
        {
          "internalType": "uint256",
          "name": "",
          "type": "uint256"
        }
      ],
      "name": "TopMedichine",
      "outputs": [
        {
          "internalType": "string",
          "name": "",
          "type": "string"
        }
      ],
      "stateMutability": "view",
      "type": "function"
    },
    {
      "inputs": [
        {
          "internalType": "address",
          "name": "_user",
          "type": "address"
        },
        {
          "internalType": "string",
          "name": "url",
          "type": "string"
        }
      ],
      "name": "addImageURL",
      "outputs": [],
      "stateMutability": "nonpayable",
      "type": "function"
    },
    {
      "inputs": [
        {
          "internalType": "string",
          "name": "report",
          "type": "string"
        }
      ],
      "name": "addLabReport",
      "outputs": [],
      "stateMutability": "nonpayable",
      "type": "function"
    },
    {
      "inputs": [
        {
          "internalType": "string",
          "name": "medichine",
          "type": "string"
        }
      ],
      "name": "addTopMedichine",
      "outputs": [],
      "stateMutability": "nonpayable",
      "type": "function"
    },
    {
      "inputs": [
        {
          "internalType": "address",
          "name": "user",
          "type": "address"
        }
      ],
      "name": "displayImage",
      "outputs": [
        {
          "internalType": "string[]",
          "name": "",
          "type": "string[]"
        }
      ],
      "stateMutability": "view",
      "type": "function"
    },
    {
      "inputs": [
        {
          "internalType": "address",
          "name": "_doctorAddress",
          "type": "address"
        }
      ],
      "name": "getDoctor",
      "outputs": [
        {
          "components": [
            {
              "internalType": "address",
              "name": "DoctorAddress",
              "type": "address"
            },
            {
              "internalType": "string",
              "name": "doctorID",
              "type": "string"
            },
            {
              "internalType": "string",
              "name": "name",
              "type": "string"
            },
            {
              "internalType": "string",
              "name": "specialty",
              "type": "string"
            },
            {
              "internalType": "uint256",
              "name": "consultationFee",
              "type": "uint256"
            },
            {
              "internalType": "uint256",
              "name": "BMDCNumber",
              "type": "uint256"
            },
            {
              "internalType": "string",
              "name": "yearOfExperience",
              "type": "string"
            },
            {
              "internalType": "address[]",
              "name": "allPatientsAddressSharedToDoctor",
              "type": "address[]"
            },
            {
              "internalType": "bool",
              "name": "isAdded",
              "type": "bool"
            }
          ],
          "internalType": "struct MedicalData.Doctor",
          "name": "",
          "type": "tuple"
        }
      ],
      "stateMutability": "view",
      "type": "function"
    },
    {
      "inputs": [
        {
          "internalType": "address",
          "name": "_labAddress",
          "type": "address"
        }
      ],
      "name": "getMedicalResearchLab",
      "outputs": [
        {
          "components": [
            {
              "internalType": "address",
              "name": "labAddress",
              "type": "address"
            },
            {
              "internalType": "string",
              "name": "labID",
              "type": "string"
            },
            {
              "internalType": "string",
              "name": "name",
              "type": "string"
            },
            {
              "internalType": "uint256",
              "name": "licenseID",
              "type": "uint256"
            },
            {
              "internalType": "string",
              "name": "researchArea",
              "type": "string"
            },
            {
              "internalType": "string",
              "name": "labRating",
              "type": "string"
            },
            {
              "internalType": "bool",
              "name": "isAdded",
              "type": "bool"
            },
            {
              "internalType": "address[]",
              "name": "allPatientsAddressSharedToMedicalResearchLab",
              "type": "address[]"
            }
          ],
          "internalType": "struct MedicalData.MedicalResearchLab",
          "name": "",
          "type": "tuple"
        }
      ],
      "stateMutability": "view",
      "type": "function"
    },
    {
      "inputs": [
        {
          "internalType": "address",
          "name": "_pathologistAddress",
          "type": "address"
        }
      ],
      "name": "getPathologist",
      "outputs": [
        {
          "components": [
            {
              "internalType": "address",
              "name": "pathologistAddress",
              "type": "address"
            },
            {
              "internalType": "string",
              "name": "pathologistID",
              "type": "string"
            },
            {
              "internalType": "string",
              "name": "name",
              "type": "string"
            },
            {
              "internalType": "uint256",
              "name": "licenseNumber",
              "type": "uint256"
            },
            {
              "internalType": "string",
              "name": "specializationArea",
              "type": "string"
            },
            {
              "internalType": "string",
              "name": "serviceArea",
              "type": "string"
            },
            {
              "internalType": "uint256",
              "name": "totalExperience",
              "type": "uint256"
            },
            {
              "internalType": "bool",
              "name": "isAdded",
              "type": "bool"
            },
            {
              "internalType": "address[]",
              "name": "allPatientsAddressSharedTopathologist",
              "type": "address[]"
            }
          ],
          "internalType": "struct MedicalData.Pathologist",
          "name": "",
          "type": "tuple"
        }
      ],
      "stateMutability": "view",
      "type": "function"
    },
    {
      "inputs": [
        {
          "internalType": "address",
          "name": "_patientAddress",
          "type": "address"
        }
      ],
      "name": "getPatient",
      "outputs": [
        {
          "components": [
            {
              "internalType": "address",
              "name": "patientAddress",
              "type": "address"
            },
            {
              "internalType": "string",
              "name": "patientID",
              "type": "string"
            },
            {
              "internalType": "string",
              "name": "name",
              "type": "string"
            },
            {
              "internalType": "string",
              "name": "gender",
              "type": "string"
            },
            {
              "internalType": "uint256",
              "name": "age",
              "type": "uint256"
            },
            {
              "internalType": "string",
              "name": "location",
              "type": "string"
            },
            {
              "internalType": "bool",
              "name": "isAdded",
              "type": "bool"
            },
            {
              "components": [
                {
                  "internalType": "uint256",
                  "name": "height",
                  "type": "uint256"
                },
                {
                  "internalType": "string",
                  "name": "Blood",
                  "type": "string"
                },
                {
                  "internalType": "string",
                  "name": "PreviousDiseases",
                  "type": "string"
                },
                {
                  "internalType": "string",
                  "name": "Medicinedrugs",
                  "type": "string"
                },
                {
                  "internalType": "string",
                  "name": "BadHabits",
                  "type": "string"
                },
                {
                  "internalType": "string",
                  "name": "ChronicDiseases",
                  "type": "string"
                },
                {
                  "internalType": "string",
                  "name": "HealthAllergies",
                  "type": "string"
                },
                {
                  "internalType": "string",
                  "name": "BirthDefects",
                  "type": "string"
                }
              ],
              "internalType": "struct MedicalData.PatientPersonalData",
              "name": "patientPersonalData",
              "type": "tuple"
            }
          ],
          "internalType": "struct MedicalData.Patient",
          "name": "",
          "type": "tuple"
        }
      ],
      "stateMutability": "view",
      "type": "function"
    },
    {
      "inputs": [
        {
          "internalType": "address",
          "name": "_pharmacyCompanyAddress",
          "type": "address"
        }
      ],
      "name": "getPharmacyCompany",
      "outputs": [
        {
          "components": [
            {
              "internalType": "address",
              "name": "pharmacyCompanyAddress",
              "type": "address"
            },
            {
              "internalType": "string",
              "name": "companyID",
              "type": "string"
            },
            {
              "internalType": "string",
              "name": "name",
              "type": "string"
            },
            {
              "internalType": "uint256",
              "name": "licenseID",
              "type": "uint256"
            },
            {
              "internalType": "string",
              "name": "productInformation",
              "type": "string"
            },
            {
              "internalType": "string",
              "name": "pharmacyRating",
              "type": "string"
            },
            {
              "internalType": "bool",
              "name": "isAdded",
              "type": "bool"
            },
            {
              "internalType": "address[]",
              "name": "allPatientAddressSharedToPharmacyCompany",
              "type": "address[]"
            }
          ],
          "internalType": "struct MedicalData.PharmacyCompany",
          "name": "",
          "type": "tuple"
        }
      ],
      "stateMutability": "view",
      "type": "function"
    },
    {
      "inputs": [
        {
          "internalType": "address",
          "name": "",
          "type": "address"
        }
      ],
      "name": "patientData",
      "outputs": [
        {
          "internalType": "uint256",
          "name": "height",
          "type": "uint256"
        },
        {
          "internalType": "string",
          "name": "Blood",
          "type": "string"
        },
        {
          "internalType": "string",
          "name": "PreviousDiseases",
          "type": "string"
        },
        {
          "internalType": "string",
          "name": "Medicinedrugs",
          "type": "string"
        },
        {
          "internalType": "string",
          "name": "BadHabits",
          "type": "string"
        },
        {
          "internalType": "string",
          "name": "ChronicDiseases",
          "type": "string"
        },
        {
          "internalType": "string",
          "name": "HealthAllergies",
          "type": "string"
        },
        {
          "internalType": "string",
          "name": "BirthDefects",
          "type": "string"
        }
      ],
      "stateMutability": "view",
      "type": "function"
    },
    {
      "inputs": [
        {
          "internalType": "string",
          "name": "doctorID",
          "type": "string"
        },
        {
          "internalType": "string",
          "name": "name",
          "type": "string"
        },
        {
          "internalType": "string",
          "name": "specialty",
          "type": "string"
        },
        {
          "internalType": "uint256",
          "name": "consultationFee",
          "type": "uint256"
        },
        {
          "internalType": "uint256",
          "name": "BMDCNumber",
          "type": "uint256"
        },
        {
          "internalType": "string",
          "name": "yearOfExperience",
          "type": "string"
        }
      ],
      "name": "setDoctor",
      "outputs": [],
      "stateMutability": "nonpayable",
      "type": "function"
    },
    {
      "inputs": [
        {
          "internalType": "string",
          "name": "labID",
          "type": "string"
        },
        {
          "internalType": "string",
          "name": "name",
          "type": "string"
        },
        {
          "internalType": "uint256",
          "name": "licenseID",
          "type": "uint256"
        },
        {
          "internalType": "string",
          "name": "researchArea",
          "type": "string"
        },
        {
          "internalType": "string",
          "name": "labRating",
          "type": "string"
        }
      ],
      "name": "setMedicalResearchLab",
      "outputs": [],
      "stateMutability": "nonpayable",
      "type": "function"
    },
    {
      "inputs": [
        {
          "internalType": "string",
          "name": "pathologistID",
          "type": "string"
        },
        {
          "internalType": "string",
          "name": "name",
          "type": "string"
        },
        {
          "internalType": "uint256",
          "name": "licenseNumber",
          "type": "uint256"
        },
        {
          "internalType": "string",
          "name": "specializationArea",
          "type": "string"
        },
        {
          "internalType": "string",
          "name": "serviceArea",
          "type": "string"
        },
        {
          "internalType": "uint256",
          "name": "totalExperience",
          "type": "uint256"
        }
      ],
      "name": "setPathologist",
      "outputs": [],
      "stateMutability": "nonpayable",
      "type": "function"
    },
    {
      "inputs": [
        {
          "internalType": "string",
          "name": "patientID",
          "type": "string"
        },
        {
          "internalType": "string",
          "name": "name",
          "type": "string"
        },
        {
          "internalType": "string",
          "name": "gender",
          "type": "string"
        },
        {
          "internalType": "uint256",
          "name": "age",
          "type": "uint256"
        },
        {
          "internalType": "string",
          "name": "location",
          "type": "string"
        }
      ],
      "name": "setPatient",
      "outputs": [],
      "stateMutability": "nonpayable",
      "type": "function"
    },
    {
      "inputs": [
        {
          "internalType": "address",
          "name": "user",
          "type": "address"
        },
        {
          "internalType": "uint256",
          "name": "height",
          "type": "uint256"
        },
        {
          "internalType": "string",
          "name": "blood",
          "type": "string"
        },
        {
          "internalType": "string",
          "name": "previousDiseases",
          "type": "string"
        },
        {
          "internalType": "string",
          "name": "medicineDrugs",
          "type": "string"
        },
        {
          "internalType": "string",
          "name": "badHabits",
          "type": "string"
        },
        {
          "internalType": "string",
          "name": "chronicDiseases",
          "type": "string"
        },
        {
          "internalType": "string",
          "name": "healthAllergies",
          "type": "string"
        },
        {
          "internalType": "string",
          "name": "birthDefects",
          "type": "string"
        }
      ],
      "name": "setPatientPersonalData",
      "outputs": [],
      "stateMutability": "nonpayable",
      "type": "function"
    },
    {
      "inputs": [
        {
          "internalType": "string",
          "name": "companyID",
          "type": "string"
        },
        {
          "internalType": "string",
          "name": "name",
          "type": "string"
        },
        {
          "internalType": "uint256",
          "name": "licenseID",
          "type": "uint256"
        },
        {
          "internalType": "string",
          "name": "productInformation",
          "type": "string"
        },
        {
          "internalType": "string",
          "name": "pharmacyRating",
          "type": "string"
        }
      ],
      "name": "setPharmacyCompany",
      "outputs": [],
      "stateMutability": "nonpayable",
      "type": "function"
    },
    {
      "inputs": [
        {
          "internalType": "string",
          "name": "entityType1",
          "type": "string"
        },
        {
          "internalType": "string",
          "name": "entityType2",
          "type": "string"
        },
        {
          "internalType": "address",
          "name": "user2",
          "type": "address"
        }
      ],
      "name": "transferData",
      "outputs": [],
      "stateMutability": "nonpayable",
      "type": "function"
    }
  ],
  "bytecode": "0x608060405234801561001057600080fd5b50615106806100206000396000f3fe608060405234801561001057600080fd5b50600436106101215760003560e01c806371d7cfda116100ad578063bb22f78011610071578063bb22f7801461032d578063bcdb1e1914610349578063e488e66e14610379578063e71b255514610395578063ea8c9e04146103c557610121565b806371d7cfda146102655780637fd653d0146102815780639059229b146102b157806391c24102146102e1578063b5368e20146102fd57610121565b80632f04e064116100f45780632f04e064146101c557806339000b24146101f55780634854240b1461021157806359ac529a1461022d5780636bc071a51461024957610121565b806316ecfa84146101265780632741a3db146101565780632d5de680146101725780632e608c021461018e575b600080fd5b610140600480360381019061013b9190613733565b6103f5565b60405161014d91906139c3565b60405180910390f35b610170600480360381019061016b9190613b46565b610839565b005b61018c60048036038101906101879190613c31565b6109d1565b005b6101a860048036038101906101a39190613733565b610b73565b6040516101bc989796959493929190613d87565b60405180910390f35b6101df60048036038101906101da9190613733565b610f73565b6040516101ec9190613f17565b60405180910390f35b61020f600480360381019061020a9190613f39565b6113b7565b005b61022b60048036038101906102269190613b46565b6113ef565b005b61024760048036038101906102429190613f82565b611587565b005b610263600480360381019061025e9190613f39565b6116b1565b005b61027f600480360381019061027a9190614110565b6116e9565b005b61029b6004803603810190610296919061419b565b611e3a565b6040516102a891906141c8565b60405180910390f35b6102cb60048036038101906102c69190613733565b611ee6565b6040516102d891906142b6565b60405180910390f35b6102fb60048036038101906102f691906142d8565b612320565b005b61031760048036038101906103129190613733565b6124b8565b6040516103249190614569565b60405180910390f35b6103476004803603810190610342919061458b565b612c81565b005b610363600480360381019061035e9190613733565b612e23565b604051610370919061474a565b60405180910390f35b610393600480360381019061038e919061476c565b612f3b565b005b6103af60048036038101906103aa919061419b565b612fb1565b6040516103bc91906141c8565b60405180910390f35b6103df60048036038101906103da9190613733565b61305d565b6040516103ec9190614894565b60405180910390f35b6103fd613497565b600860008373ffffffffffffffffffffffffffffffffffffffff1673ffffffffffffffffffffffffffffffffffffffff16815260200190815260200160002060070160009054906101000a900460ff1661048c576040517f08c379a000000000000000000000000000000000000000000000000000000000815260040161048390614902565b60405180910390fd5b600860008373ffffffffffffffffffffffffffffffffffffffff1673ffffffffffffffffffffffffffffffffffffffff168152602001908152602001600020604051806101200160405290816000820160009054906101000a900473ffffffffffffffffffffffffffffffffffffffff1673ffffffffffffffffffffffffffffffffffffffff1673ffffffffffffffffffffffffffffffffffffffff16815260200160018201805461053d90614951565b80601f016020809104026020016040519081016040528092919081815260200182805461056990614951565b80156105b65780601f1061058b576101008083540402835291602001916105b6565b820191906000526020600020905b81548152906001019060200180831161059957829003601f168201915b505050505081526020016002820180546105cf90614951565b80601f01602080910402602001604051908101604052809291908181526020018280546105fb90614951565b80156106485780601f1061061d57610100808354040283529160200191610648565b820191906000526020600020905b81548152906001019060200180831161062b57829003601f168201915b505050505081526020016003820154815260200160048201805461066b90614951565b80601f016020809104026020016040519081016040528092919081815260200182805461069790614951565b80156106e45780601f106106b9576101008083540402835291602001916106e4565b820191906000526020600020905b8154815290600101906020018083116106c757829003601f168201915b505050505081526020016005820180546106fd90614951565b80601f016020809104026020016040519081016040528092919081815260200182805461072990614951565b80156107765780601f1061074b57610100808354040283529160200191610776565b820191906000526020600020905b81548152906001019060200180831161075957829003601f168201915b50505050508152602001600682015481526020016007820160009054906101000a900460ff161515151581526020016008820180548060200260200160405190810160405280929190818152602001828054801561082957602002820191906000526020600020905b8160009054906101000a900473ffffffffffffffffffffffffffffffffffffffff1673ffffffffffffffffffffffffffffffffffffffff16815260200190600101908083116107df575b5050505050815250509050919050565b600033905060001515600a60008373ffffffffffffffffffffffffffffffffffffffff1673ffffffffffffffffffffffffffffffffffffffff16815260200190815260200160002060060160009054906101000a900460ff161515146108d4576040517f08c379a00000000000000000000000000000000000000000000000000000000081526004016108cb906149ce565b60405180910390fd5b6000600a60008373ffffffffffffffffffffffffffffffffffffffff1673ffffffffffffffffffffffffffffffffffffffff1681526020019081526020016000209050818160000160006101000a81548173ffffffffffffffffffffffffffffffffffffffff021916908373ffffffffffffffffffffffffffffffffffffffff1602179055508681600101908161096b9190614b9a565b508581600201908161097d9190614b9a565b50848160030181905550838160040190816109989190614b9a565b50828160050190816109aa9190614b9a565b5060018160060160006101000a81548160ff02191690831515021790555050505050505050565b600033905060001515600760008373ffffffffffffffffffffffffffffffffffffffff1673ffffffffffffffffffffffffffffffffffffffff16815260200190815260200160002060080160009054906101000a900460ff16151514610a6c576040517f08c379a0000000000000000000000000000000000000000000000000000000008152600401610a63906149ce565b60405180910390fd5b6000600760008373ffffffffffffffffffffffffffffffffffffffff1673ffffffffffffffffffffffffffffffffffffffff1681526020019081526020016000209050818160000160006101000a81548173ffffffffffffffffffffffffffffffffffffffff021916908373ffffffffffffffffffffffffffffffffffffffff16021790555087816001019081610b039190614b9a565b5086816002019081610b159190614b9a565b5085816003019081610b279190614b9a565b5084816004018190555083816005018190555082816006019081610b4b9190614b9a565b5060018160080160006101000a81548160ff0219169083151502179055505050505050505050565b6000602052806000526040600020600091509050806000015490806001018054610b9c90614951565b80601f0160208091040260200160405190810160405280929190818152602001828054610bc890614951565b8015610c155780601f10610bea57610100808354040283529160200191610c15565b820191906000526020600020905b815481529060010190602001808311610bf857829003601f168201915b505050505090806002018054610c2a90614951565b80601f0160208091040260200160405190810160405280929190818152602001828054610c5690614951565b8015610ca35780601f10610c7857610100808354040283529160200191610ca3565b820191906000526020600020905b815481529060010190602001808311610c8657829003601f168201915b505050505090806003018054610cb890614951565b80601f0160208091040260200160405190810160405280929190818152602001828054610ce490614951565b8015610d315780601f10610d0657610100808354040283529160200191610d31565b820191906000526020600020905b815481529060010190602001808311610d1457829003601f168201915b505050505090806004018054610d4690614951565b80601f0160208091040260200160405190810160405280929190818152602001828054610d7290614951565b8015610dbf5780601f10610d9457610100808354040283529160200191610dbf565b820191906000526020600020905b815481529060010190602001808311610da257829003601f168201915b505050505090806005018054610dd490614951565b80601f0160208091040260200160405190810160405280929190818152602001828054610e0090614951565b8015610e4d5780601f10610e2257610100808354040283529160200191610e4d565b820191906000526020600020905b815481529060010190602001808311610e3057829003601f168201915b505050505090806006018054610e6290614951565b80601f0160208091040260200160405190810160405280929190818152602001828054610e8e90614951565b8015610edb5780601f10610eb057610100808354040283529160200191610edb565b820191906000526020600020905b815481529060010190602001808311610ebe57829003601f168201915b505050505090806007018054610ef090614951565b80601f0160208091040260200160405190810160405280929190818152602001828054610f1c90614951565b8015610f695780601f10610f3e57610100808354040283529160200191610f69565b820191906000526020600020905b815481529060010190602001808311610f4c57829003601f168201915b5050505050905088565b610f7b6134fb565b600760008373ffffffffffffffffffffffffffffffffffffffff1673ffffffffffffffffffffffffffffffffffffffff16815260200190815260200160002060080160009054906101000a900460ff1661100a576040517f08c379a000000000000000000000000000000000000000000000000000000000815260040161100190614cb8565b60405180910390fd5b600760008373ffffffffffffffffffffffffffffffffffffffff1673ffffffffffffffffffffffffffffffffffffffff168152602001908152602001600020604051806101200160405290816000820160009054906101000a900473ffffffffffffffffffffffffffffffffffffffff1673ffffffffffffffffffffffffffffffffffffffff1673ffffffffffffffffffffffffffffffffffffffff1681526020016001820180546110bb90614951565b80601f01602080910402602001604051908101604052809291908181526020018280546110e790614951565b80156111345780601f1061110957610100808354040283529160200191611134565b820191906000526020600020905b81548152906001019060200180831161111757829003601f168201915b5050505050815260200160028201805461114d90614951565b80601f016020809104026020016040519081016040528092919081815260200182805461117990614951565b80156111c65780601f1061119b576101008083540402835291602001916111c6565b820191906000526020600020905b8154815290600101906020018083116111a957829003601f168201915b505050505081526020016003820180546111df90614951565b80601f016020809104026020016040519081016040528092919081815260200182805461120b90614951565b80156112585780601f1061122d57610100808354040283529160200191611258565b820191906000526020600020905b81548152906001019060200180831161123b57829003601f168201915b50505050508152602001600482015481526020016005820154815260200160068201805461128590614951565b80601f01602080910402602001604051908101604052809291908181526020018280546112b190614951565b80156112fe5780601f106112d3576101008083540402835291602001916112fe565b820191906000526020600020905b8154815290600101906020018083116112e157829003601f168201915b505050505081526020016007820180548060200260200160405190810160405280929190818152602001828054801561138c57602002820191906000526020600020905b8160009054906101000a900473ffffffffffffffffffffffffffffffffffffffff1673ffffffffffffffffffffffffffffffffffffffff1681526020019060010190808311611342575b505050505081526020016008820160009054906101000a900460ff1615151515815250509050919050565b6001819080600181540180825580915050600190039060005260206000200160009091909190915090816113eb9190614b9a565b5050565b600033905060001515600960008373ffffffffffffffffffffffffffffffffffffffff1673ffffffffffffffffffffffffffffffffffffffff16815260200190815260200160002060060160009054906101000a900460ff1615151461148a576040517f08c379a0000000000000000000000000000000000000000000000000000000008152600401611481906149ce565b60405180910390fd5b6000600960008373ffffffffffffffffffffffffffffffffffffffff1673ffffffffffffffffffffffffffffffffffffffff1681526020019081526020016000209050818160000160006101000a81548173ffffffffffffffffffffffffffffffffffffffff021916908373ffffffffffffffffffffffffffffffffffffffff160217905550868160010190816115219190614b9a565b50858160020190816115339190614b9a565b508481600301819055508381600401908161154e9190614b9a565b50828160050190816115609190614b9a565b5060018160060160006101000a81548160ff02191690831515021790555050505050505050565b604051806101000160405280898152602001888152602001878152602001868152602001858152602001848152602001838152602001828152506000808b73ffffffffffffffffffffffffffffffffffffffff1673ffffffffffffffffffffffffffffffffffffffff16815260200190815260200160002060008201518160000155602082015181600101908161161e9190614b9a565b5060408201518160020190816116349190614b9a565b50606082015181600301908161164a9190614b9a565b5060808201518160040190816116609190614b9a565b5060a08201518160050190816116769190614b9a565b5060c082015181600601908161168c9190614b9a565b5060e08201518160070190816116a29190614b9a565b50905050505050505050505050565b600b819080600181540180825580915050600190039060005260206000200160009091909190915090816116e59190614b9a565b5050565b7f675bc9802ff0994bbcafe826bffd0f15ec0a3ec17fd0cfbe035a08cbededf8a3838051906020012003611e3557600660003373ffffffffffffffffffffffffffffffffffffffff1673ffffffffffffffffffffffffffffffffffffffff16815260200190815260200160002060060160009054906101000a900460ff166117a6576040517f08c379a000000000000000000000000000000000000000000000000000000000815260040161179d90614d24565b60405180910390fd5b7f81801538196f6575c6900044ae3429ef092e7ad29a7f4da69ed7f897d69f5759828051906020012003611901576000600760008373ffffffffffffffffffffffffffffffffffffffff1673ffffffffffffffffffffffffffffffffffffffff1681526020019081526020016000206005015403611859576040517f08c379a000000000000000000000000000000000000000000000000000000000815260040161185090614cb8565b60405180910390fd5b600760008273ffffffffffffffffffffffffffffffffffffffff1673ffffffffffffffffffffffffffffffffffffffff168152602001908152602001600020600701339080600181540180825580915050600190039060005260206000200160009091909190916101000a81548173ffffffffffffffffffffffffffffffffffffffff021916908373ffffffffffffffffffffffffffffffffffffffff160217905550611e34565b7f25c5b8ad70a2aae48e105ad1defb4db2071cfe805f37688493811662827be142828051906020012003611aa857600073ffffffffffffffffffffffffffffffffffffffff16600860008373ffffffffffffffffffffffffffffffffffffffff1673ffffffffffffffffffffffffffffffffffffffff16815260200190815260200160002060000160009054906101000a900473ffffffffffffffffffffffffffffffffffffffff1673ffffffffffffffffffffffffffffffffffffffff1603611a00576040517f08c379a00000000000000000000000000000000000000000000000000000000081526004016119f790614d90565b60405180910390fd5b600860008273ffffffffffffffffffffffffffffffffffffffff1673ffffffffffffffffffffffffffffffffffffffff168152602001908152602001600020600801339080600181540180825580915050600190039060005260206000200160009091909190916101000a81548173ffffffffffffffffffffffffffffffffffffffff021916908373ffffffffffffffffffffffffffffffffffffffff160217905550611e33565b7f8aef25603e09a14c263a6e271c085f8e2764c5df2a79ce7ef9270a7bdd45072c828051906020012003611c4f57600073ffffffffffffffffffffffffffffffffffffffff16600960008373ffffffffffffffffffffffffffffffffffffffff1673ffffffffffffffffffffffffffffffffffffffff16815260200190815260200160002060000160009054906101000a900473ffffffffffffffffffffffffffffffffffffffff1673ffffffffffffffffffffffffffffffffffffffff1603611ba7576040517f08c379a0000000000000000000000000000000000000000000000000000000008152600401611b9e90614e22565b60405180910390fd5b600960008273ffffffffffffffffffffffffffffffffffffffff1673ffffffffffffffffffffffffffffffffffffffff168152602001908152602001600020600701339080600181540180825580915050600190039060005260206000200160009091909190916101000a81548173ffffffffffffffffffffffffffffffffffffffff021916908373ffffffffffffffffffffffffffffffffffffffff160217905550611e32565b7f07e343dc849601cdf88dd1e300e4fa5a1a1ae98568c5b9d8cea9dacb2617385a828051906020012003611df657600073ffffffffffffffffffffffffffffffffffffffff16600a60008373ffffffffffffffffffffffffffffffffffffffff1673ffffffffffffffffffffffffffffffffffffffff16815260200190815260200160002060000160009054906101000a900473ffffffffffffffffffffffffffffffffffffffff1673ffffffffffffffffffffffffffffffffffffffff1603611d4e576040517f08c379a0000000000000000000000000000000000000000000000000000000008152600401611d4590614e8e565b60405180910390fd5b600a60008273ffffffffffffffffffffffffffffffffffffffff1673ffffffffffffffffffffffffffffffffffffffff168152602001908152602001600020600701339080600181540180825580915050600190039060005260206000200160009091909190916101000a81548173ffffffffffffffffffffffffffffffffffffffff021916908373ffffffffffffffffffffffffffffffffffffffff160217905550611e31565b6040517f08c379a0000000000000000000000000000000000000000000000000000000008152600401611e2890614efa565b60405180910390fd5b5b5b5b5b505050565b60018181548110611e4a57600080fd5b906000526020600020016000915090508054611e6590614951565b80601f0160208091040260200160405190810160405280929190818152602001828054611e9190614951565b8015611ede5780601f10611eb357610100808354040283529160200191611ede565b820191906000526020600020905b815481529060010190602001808311611ec157829003601f168201915b505050505081565b611eee61355f565b600a60008373ffffffffffffffffffffffffffffffffffffffff1673ffffffffffffffffffffffffffffffffffffffff16815260200190815260200160002060060160009054906101000a900460ff16611f7d576040517f08c379a0000000000000000000000000000000000000000000000000000000008152600401611f7490614f8c565b60405180910390fd5b600a60008373ffffffffffffffffffffffffffffffffffffffff1673ffffffffffffffffffffffffffffffffffffffff168152602001908152602001600020604051806101000160405290816000820160009054906101000a900473ffffffffffffffffffffffffffffffffffffffff1673ffffffffffffffffffffffffffffffffffffffff1673ffffffffffffffffffffffffffffffffffffffff16815260200160018201805461202e90614951565b80601f016020809104026020016040519081016040528092919081815260200182805461205a90614951565b80156120a75780601f1061207c576101008083540402835291602001916120a7565b820191906000526020600020905b81548152906001019060200180831161208a57829003601f168201915b505050505081526020016002820180546120c090614951565b80601f01602080910402602001604051908101604052809291908181526020018280546120ec90614951565b80156121395780601f1061210e57610100808354040283529160200191612139565b820191906000526020600020905b81548152906001019060200180831161211c57829003601f168201915b505050505081526020016003820154815260200160048201805461215c90614951565b80601f016020809104026020016040519081016040528092919081815260200182805461218890614951565b80156121d55780601f106121aa576101008083540402835291602001916121d5565b820191906000526020600020905b8154815290600101906020018083116121b857829003601f168201915b505050505081526020016005820180546121ee90614951565b80601f016020809104026020016040519081016040528092919081815260200182805461221a90614951565b80156122675780601f1061223c57610100808354040283529160200191612267565b820191906000526020600020905b81548152906001019060200180831161224a57829003601f168201915b505050505081526020016006820160009054906101000a900460ff161515151581526020016007820180548060200260200160405190810160405280929190818152602001828054801561231057602002820191906000526020600020905b8160009054906101000a900473ffffffffffffffffffffffffffffffffffffffff1673ffffffffffffffffffffffffffffffffffffffff16815260200190600101908083116122c6575b5050505050815250509050919050565b600033905060001515600660008373ffffffffffffffffffffffffffffffffffffffff1673ffffffffffffffffffffffffffffffffffffffff16815260200190815260200160002060060160009054906101000a900460ff161515146123bb576040517f08c379a00000000000000000000000000000000000000000000000000000000081526004016123b29061501e565b60405180910390fd5b6000600660008373ffffffffffffffffffffffffffffffffffffffff1673ffffffffffffffffffffffffffffffffffffffff1681526020019081526020016000209050818160000160006101000a81548173ffffffffffffffffffffffffffffffffffffffff021916908373ffffffffffffffffffffffffffffffffffffffff160217905550868160010190816124529190614b9a565b50858160020190816124649190614b9a565b50848160030190816124769190614b9a565b50838160040181905550828160050190816124919190614b9a565b5060018160060160006101000a81548160ff02191690831515021790555050505050505050565b6124c06135bc565b600660008373ffffffffffffffffffffffffffffffffffffffff1673ffffffffffffffffffffffffffffffffffffffff16815260200190815260200160002060060160009054906101000a900460ff1661254f576040517f08c379a000000000000000000000000000000000000000000000000000000000815260040161254690614d24565b60405180910390fd5b600660008373ffffffffffffffffffffffffffffffffffffffff1673ffffffffffffffffffffffffffffffffffffffff168152602001908152602001600020604051806101000160405290816000820160009054906101000a900473ffffffffffffffffffffffffffffffffffffffff1673ffffffffffffffffffffffffffffffffffffffff1673ffffffffffffffffffffffffffffffffffffffff16815260200160018201805461260090614951565b80601f016020809104026020016040519081016040528092919081815260200182805461262c90614951565b80156126795780601f1061264e57610100808354040283529160200191612679565b820191906000526020600020905b81548152906001019060200180831161265c57829003601f168201915b5050505050815260200160028201805461269290614951565b80601f01602080910402602001604051908101604052809291908181526020018280546126be90614951565b801561270b5780601f106126e05761010080835404028352916020019161270b565b820191906000526020600020905b8154815290600101906020018083116126ee57829003601f168201915b5050505050815260200160038201805461272490614951565b80601f016020809104026020016040519081016040528092919081815260200182805461275090614951565b801561279d5780601f106127725761010080835404028352916020019161279d565b820191906000526020600020905b81548152906001019060200180831161278057829003601f168201915b50505050508152602001600482015481526020016005820180546127c090614951565b80601f01602080910402602001604051908101604052809291908181526020018280546127ec90614951565b80156128395780601f1061280e57610100808354040283529160200191612839565b820191906000526020600020905b81548152906001019060200180831161281c57829003601f168201915b505050505081526020016006820160009054906101000a900460ff1615151515815260200160078201604051806101000160405290816000820154815260200160018201805461288890614951565b80601f01602080910402602001604051908101604052809291908181526020018280546128b490614951565b80156129015780601f106128d657610100808354040283529160200191612901565b820191906000526020600020905b8154815290600101906020018083116128e457829003601f168201915b5050505050815260200160028201805461291a90614951565b80601f016020809104026020016040519081016040528092919081815260200182805461294690614951565b80156129935780601f1061296857610100808354040283529160200191612993565b820191906000526020600020905b81548152906001019060200180831161297657829003601f168201915b505050505081526020016003820180546129ac90614951565b80601f01602080910402602001604051908101604052809291908181526020018280546129d890614951565b8015612a255780601f106129fa57610100808354040283529160200191612a25565b820191906000526020600020905b815481529060010190602001808311612a0857829003601f168201915b50505050508152602001600482018054612a3e90614951565b80601f0160208091040260200160405190810160405280929190818152602001828054612a6a90614951565b8015612ab75780601f10612a8c57610100808354040283529160200191612ab7565b820191906000526020600020905b815481529060010190602001808311612a9a57829003601f168201915b50505050508152602001600582018054612ad090614951565b80601f0160208091040260200160405190810160405280929190818152602001828054612afc90614951565b8015612b495780601f10612b1e57610100808354040283529160200191612b49565b820191906000526020600020905b815481529060010190602001808311612b2c57829003601f168201915b50505050508152602001600682018054612b6290614951565b80601f0160208091040260200160405190810160405280929190818152602001828054612b8e90614951565b8015612bdb5780601f10612bb057610100808354040283529160200191612bdb565b820191906000526020600020905b815481529060010190602001808311612bbe57829003601f168201915b50505050508152602001600782018054612bf490614951565b80601f0160208091040260200160405190810160405280929190818152602001828054612c2090614951565b8015612c6d5780601f10612c4257610100808354040283529160200191612c6d565b820191906000526020600020905b815481529060010190602001808311612c5057829003601f168201915b505050505081525050815250509050919050565b600033905060001515600860008373ffffffffffffffffffffffffffffffffffffffff1673ffffffffffffffffffffffffffffffffffffffff16815260200190815260200160002060070160009054906101000a900460ff16151514612d1c576040517f08c379a0000000000000000000000000000000000000000000000000000000008152600401612d13906149ce565b60405180910390fd5b6000600860008373ffffffffffffffffffffffffffffffffffffffff1673ffffffffffffffffffffffffffffffffffffffff1681526020019081526020016000209050818160000160006101000a81548173ffffffffffffffffffffffffffffffffffffffff021916908373ffffffffffffffffffffffffffffffffffffffff16021790555087816001019081612db39190614b9a565b5086816002019081612dc59190614b9a565b5085816003018190555084816004019081612de09190614b9a565b5083816005019081612df29190614b9a565b5082816006018190555060018160070160006101000a81548160ff0219169083151502179055505050505050505050565b6060600260008373ffffffffffffffffffffffffffffffffffffffff1673ffffffffffffffffffffffffffffffffffffffff168152602001908152602001600020805480602002602001604051908101604052809291908181526020016000905b82821015612f30578382906000526020600020018054612ea390614951565b80601f0160208091040260200160405190810160405280929190818152602001828054612ecf90614951565b8015612f1c5780601f10612ef157610100808354040283529160200191612f1c565b820191906000526020600020905b815481529060010190602001808311612eff57829003601f168201915b505050505081526020019060010190612e84565b505050509050919050565b600260008373ffffffffffffffffffffffffffffffffffffffff1673ffffffffffffffffffffffffffffffffffffffff16815260200190815260200160002081908060018154018082558091505060019003906000526020600020016000909190919091509081612fac9190614b9a565b505050565b600b8181548110612fc157600080fd5b906000526020600020016000915090508054612fdc90614951565b80601f016020809104026020016040519081016040528092919081815260200182805461300890614951565b80156130555780601f1061302a57610100808354040283529160200191613055565b820191906000526020600020905b81548152906001019060200180831161303857829003601f168201915b505050505081565b61306561361f565b600960008373ffffffffffffffffffffffffffffffffffffffff1673ffffffffffffffffffffffffffffffffffffffff16815260200190815260200160002060060160009054906101000a900460ff166130f4576040517f08c379a00000000000000000000000000000000000000000000000000000000081526004016130eb906150b0565b60405180910390fd5b600960008373ffffffffffffffffffffffffffffffffffffffff1673ffffffffffffffffffffffffffffffffffffffff168152602001908152602001600020604051806101000160405290816000820160009054906101000a900473ffffffffffffffffffffffffffffffffffffffff1673ffffffffffffffffffffffffffffffffffffffff1673ffffffffffffffffffffffffffffffffffffffff1681526020016001820180546131a590614951565b80601f01602080910402602001604051908101604052809291908181526020018280546131d190614951565b801561321e5780601f106131f35761010080835404028352916020019161321e565b820191906000526020600020905b81548152906001019060200180831161320157829003601f168201915b5050505050815260200160028201805461323790614951565b80601f016020809104026020016040519081016040528092919081815260200182805461326390614951565b80156132b05780601f10613285576101008083540402835291602001916132b0565b820191906000526020600020905b81548152906001019060200180831161329357829003601f168201915b50505050508152602001600382015481526020016004820180546132d390614951565b80601f01602080910402602001604051908101604052809291908181526020018280546132ff90614951565b801561334c5780601f106133215761010080835404028352916020019161334c565b820191906000526020600020905b81548152906001019060200180831161332f57829003601f168201915b5050505050815260200160058201805461336590614951565b80601f016020809104026020016040519081016040528092919081815260200182805461339190614951565b80156133de5780601f106133b3576101008083540402835291602001916133de565b820191906000526020600020905b8154815290600101906020018083116133c157829003601f168201915b505050505081526020016006820160009054906101000a900460ff161515151581526020016007820180548060200260200160405190810160405280929190818152602001828054801561348757602002820191906000526020600020905b8160009054906101000a900473ffffffffffffffffffffffffffffffffffffffff1673ffffffffffffffffffffffffffffffffffffffff168152602001906001019080831161343d575b5050505050815250509050919050565b604051806101200160405280600073ffffffffffffffffffffffffffffffffffffffff168152602001606081526020016060815260200160008152602001606081526020016060815260200160008152602001600015158152602001606081525090565b604051806101200160405280600073ffffffffffffffffffffffffffffffffffffffff168152602001606081526020016060815260200160608152602001600081526020016000815260200160608152602001606081526020016000151581525090565b604051806101000160405280600073ffffffffffffffffffffffffffffffffffffffff1681526020016060815260200160608152602001600081526020016060815260200160608152602001600015158152602001606081525090565b604051806101000160405280600073ffffffffffffffffffffffffffffffffffffffff168152602001606081526020016060815260200160608152602001600081526020016060815260200160001515815260200161361961367c565b81525090565b604051806101000160405280600073ffffffffffffffffffffffffffffffffffffffff1681526020016060815260200160608152602001600081526020016060815260200160608152602001600015158152602001606081525090565b60405180610100016040528060008152602001606081526020016060815260200160608152602001606081526020016060815260200160608152602001606081525090565b6000604051905090565b600080fd5b600080fd5b600073ffffffffffffffffffffffffffffffffffffffff82169050919050565b6000613700826136d5565b9050919050565b613710816136f5565b811461371b57600080fd5b50565b60008135905061372d81613707565b92915050565b600060208284031215613749576137486136cb565b5b60006137578482850161371e565b91505092915050565b613769816136f5565b82525050565b600081519050919050565b600082825260208201905092915050565b60005b838110156137a957808201518184015260208101905061378e565b60008484015250505050565b6000601f19601f8301169050919050565b60006137d18261376f565b6137db818561377a565b93506137eb81856020860161378b565b6137f4816137b5565b840191505092915050565b6000819050919050565b613812816137ff565b82525050565b60008115159050919050565b61382d81613818565b82525050565b600081519050919050565b600082825260208201905092915050565b6000819050602082019050919050565b600061386b8383613760565b60208301905092915050565b6000602082019050919050565b600061388f82613833565b613899818561383e565b93506138a48361384f565b8060005b838110156138d55781516138bc888261385f565b97506138c783613877565b9250506001810190506138a8565b5085935050505092915050565b6000610120830160008301516138fb6000860182613760565b506020830151848203602086015261391382826137c6565b9150506040830151848203604086015261392d82826137c6565b91505060608301516139426060860182613809565b506080830151848203608086015261395a82826137c6565b91505060a083015184820360a086015261397482826137c6565b91505060c083015161398960c0860182613809565b5060e083015161399c60e0860182613824565b506101008301518482036101008601526139b68282613884565b9150508091505092915050565b600060208201905081810360008301526139dd81846138e2565b905092915050565b600080fd5b600080fd5b7f4e487b7100000000000000000000000000000000000000000000000000000000600052604160045260246000fd5b613a27826137b5565b810181811067ffffffffffffffff82111715613a4657613a456139ef565b5b80604052505050565b6000613a596136c1565b9050613a658282613a1e565b919050565b600067ffffffffffffffff821115613a8557613a846139ef565b5b613a8e826137b5565b9050602081019050919050565b82818337600083830152505050565b6000613abd613ab884613a6a565b613a4f565b905082815260208101848484011115613ad957613ad86139ea565b5b613ae4848285613a9b565b509392505050565b600082601f830112613b0157613b006139e5565b5b8135613b11848260208601613aaa565b91505092915050565b613b23816137ff565b8114613b2e57600080fd5b50565b600081359050613b4081613b1a565b92915050565b600080600080600060a08688031215613b6257613b616136cb565b5b600086013567ffffffffffffffff811115613b8057613b7f6136d0565b5b613b8c88828901613aec565b955050602086013567ffffffffffffffff811115613bad57613bac6136d0565b5b613bb988828901613aec565b9450506040613bca88828901613b31565b935050606086013567ffffffffffffffff811115613beb57613bea6136d0565b5b613bf788828901613aec565b925050608086013567ffffffffffffffff811115613c1857613c176136d0565b5b613c2488828901613aec565b9150509295509295909350565b60008060008060008060c08789031215613c4e57613c4d6136cb565b5b600087013567ffffffffffffffff811115613c6c57613c6b6136d0565b5b613c7889828a01613aec565b965050602087013567ffffffffffffffff811115613c9957613c986136d0565b5b613ca589828a01613aec565b955050604087013567ffffffffffffffff811115613cc657613cc56136d0565b5b613cd289828a01613aec565b9450506060613ce389828a01613b31565b9350506080613cf489828a01613b31565b92505060a087013567ffffffffffffffff811115613d1557613d146136d0565b5b613d2189828a01613aec565b9150509295509295509295565b613d37816137ff565b82525050565b600082825260208201905092915050565b6000613d598261376f565b613d638185613d3d565b9350613d7381856020860161378b565b613d7c816137b5565b840191505092915050565b600061010082019050613d9d600083018b613d2e565b8181036020830152613daf818a613d4e565b90508181036040830152613dc38189613d4e565b90508181036060830152613dd78188613d4e565b90508181036080830152613deb8187613d4e565b905081810360a0830152613dff8186613d4e565b905081810360c0830152613e138185613d4e565b905081810360e0830152613e278184613d4e565b90509998505050505050505050565b600061012083016000830151613e4f6000860182613760565b5060208301518482036020860152613e6782826137c6565b91505060408301518482036040860152613e8182826137c6565b91505060608301518482036060860152613e9b82826137c6565b9150506080830151613eb06080860182613809565b5060a0830151613ec360a0860182613809565b5060c083015184820360c0860152613edb82826137c6565b91505060e083015184820360e0860152613ef58282613884565b915050610100830151613f0c610100860182613824565b508091505092915050565b60006020820190508181036000830152613f318184613e36565b905092915050565b600060208284031215613f4f57613f4e6136cb565b5b600082013567ffffffffffffffff811115613f6d57613f6c6136d0565b5b613f7984828501613aec565b91505092915050565b60008060008060008060008060006101208a8c031215613fa557613fa46136cb565b5b6000613fb38c828d0161371e565b9950506020613fc48c828d01613b31565b98505060408a013567ffffffffffffffff811115613fe557613fe46136d0565b5b613ff18c828d01613aec565b97505060608a013567ffffffffffffffff811115614012576140116136d0565b5b61401e8c828d01613aec565b96505060808a013567ffffffffffffffff81111561403f5761403e6136d0565b5b61404b8c828d01613aec565b95505060a08a013567ffffffffffffffff81111561406c5761406b6136d0565b5b6140788c828d01613aec565b94505060c08a013567ffffffffffffffff811115614099576140986136d0565b5b6140a58c828d01613aec565b93505060e08a013567ffffffffffffffff8111156140c6576140c56136d0565b5b6140d28c828d01613aec565b9250506101008a013567ffffffffffffffff8111156140f4576140f36136d0565b5b6141008c828d01613aec565b9150509295985092959850929598565b600080600060608486031215614129576141286136cb565b5b600084013567ffffffffffffffff811115614147576141466136d0565b5b61415386828701613aec565b935050602084013567ffffffffffffffff811115614174576141736136d0565b5b61418086828701613aec565b92505060406141918682870161371e565b9150509250925092565b6000602082840312156141b1576141b06136cb565b5b60006141bf84828501613b31565b91505092915050565b600060208201905081810360008301526141e28184613d4e565b905092915050565b6000610100830160008301516142036000860182613760565b506020830151848203602086015261421b82826137c6565b9150506040830151848203604086015261423582826137c6565b915050606083015161424a6060860182613809565b506080830151848203608086015261426282826137c6565b91505060a083015184820360a086015261427c82826137c6565b91505060c083015161429160c0860182613824565b5060e083015184820360e08601526142a98282613884565b9150508091505092915050565b600060208201905081810360008301526142d081846141ea565b905092915050565b600080600080600060a086880312156142f4576142f36136cb565b5b600086013567ffffffffffffffff811115614312576143116136d0565b5b61431e88828901613aec565b955050602086013567ffffffffffffffff81111561433f5761433e6136d0565b5b61434b88828901613aec565b945050604086013567ffffffffffffffff81111561436c5761436b6136d0565b5b61437888828901613aec565b935050606061438988828901613b31565b925050608086013567ffffffffffffffff8111156143aa576143a96136d0565b5b6143b688828901613aec565b9150509295509295909350565b6000610100830160008301516143dc6000860182613809565b50602083015184820360208601526143f482826137c6565b9150506040830151848203604086015261440e82826137c6565b9150506060830151848203606086015261442882826137c6565b9150506080830151848203608086015261444282826137c6565b91505060a083015184820360a086015261445c82826137c6565b91505060c083015184820360c086015261447682826137c6565b91505060e083015184820360e086015261449082826137c6565b9150508091505092915050565b6000610100830160008301516144b66000860182613760565b50602083015184820360208601526144ce82826137c6565b915050604083015184820360408601526144e882826137c6565b9150506060830151848203606086015261450282826137c6565b91505060808301516145176080860182613809565b5060a083015184820360a086015261452f82826137c6565b91505060c083015161454460c0860182613824565b5060e083015184820360e086015261455c82826143c3565b9150508091505092915050565b60006020820190508181036000830152614583818461449d565b905092915050565b60008060008060008060c087890312156145a8576145a76136cb565b5b600087013567ffffffffffffffff8111156145c6576145c56136d0565b5b6145d289828a01613aec565b965050602087013567ffffffffffffffff8111156145f3576145f26136d0565b5b6145ff89828a01613aec565b955050604061461089828a01613b31565b945050606087013567ffffffffffffffff811115614631576146306136d0565b5b61463d89828a01613aec565b935050608087013567ffffffffffffffff81111561465e5761465d6136d0565b5b61466a89828a01613aec565b92505060a061467b89828a01613b31565b9150509295509295509295565b600081519050919050565b600082825260208201905092915050565b6000819050602082019050919050565b60006146c083836137c6565b905092915050565b6000602082019050919050565b60006146e082614688565b6146ea8185614693565b9350836020820285016146fc856146a4565b8060005b85811015614738578484038952815161471985826146b4565b9450614724836146c8565b925060208a01995050600181019050614700565b50829750879550505050505092915050565b6000602082019050818103600083015261476481846146d5565b905092915050565b60008060408385031215614783576147826136cb565b5b60006147918582860161371e565b925050602083013567ffffffffffffffff8111156147b2576147b16136d0565b5b6147be85828601613aec565b9150509250929050565b6000610100830160008301516147e16000860182613760565b50602083015184820360208601526147f982826137c6565b9150506040830151848203604086015261481382826137c6565b91505060608301516148286060860182613809565b506080830151848203608086015261484082826137c6565b91505060a083015184820360a086015261485a82826137c6565b91505060c083015161486f60c0860182613824565b5060e083015184820360e08601526148878282613884565b9150508091505092915050565b600060208201905081810360008301526148ae81846147c8565b905092915050565b7f706174686f6c6f676973747320646f6573206e6f742065786973740000000000600082015250565b60006148ec601b83613d3d565b91506148f7826148b6565b602082019050919050565b6000602082019050818103600083015261491b816148df565b9050919050565b7f4e487b7100000000000000000000000000000000000000000000000000000000600052602260045260246000fd5b6000600282049050600182168061496957607f821691505b60208210810361497c5761497b614922565b5b50919050565b7f796f7520616c72656164792063726561746520796f75722070726f66696c6500600082015250565b60006149b8601f83613d3d565b91506149c382614982565b602082019050919050565b600060208201905081810360008301526149e7816149ab565b9050919050565b60008190508160005260206000209050919050565b60006020601f8301049050919050565b600082821b905092915050565b600060088302614a507fffffffffffffffffffffffffffffffffffffffffffffffffffffffffffffffff82614a13565b614a5a8683614a13565b95508019841693508086168417925050509392505050565b6000819050919050565b6000614a97614a92614a8d846137ff565b614a72565b6137ff565b9050919050565b6000819050919050565b614ab183614a7c565b614ac5614abd82614a9e565b848454614a20565b825550505050565b600090565b614ada614acd565b614ae5818484614aa8565b505050565b5b81811015614b0957614afe600082614ad2565b600181019050614aeb565b5050565b601f821115614b4e57614b1f816149ee565b614b2884614a03565b81016020851015614b37578190505b614b4b614b4385614a03565b830182614aea565b50505b505050565b600082821c905092915050565b6000614b7160001984600802614b53565b1980831691505092915050565b6000614b8a8383614b60565b9150826002028217905092915050565b614ba38261376f565b67ffffffffffffffff811115614bbc57614bbb6139ef565b5b614bc68254614951565b614bd1828285614b0d565b600060209050601f831160018114614c045760008415614bf2578287015190505b614bfc8582614b7e565b865550614c64565b601f198416614c12866149ee565b60005b82811015614c3a57848901518255600182019150602085019450602081019050614c15565b86831015614c575784890151614c53601f891682614b60565b8355505b6001600288020188555050505b505050505050565b7f446f63746f7220646f6573206e6f742065786973740000000000000000000000600082015250565b6000614ca2601583613d3d565b9150614cad82614c6c565b602082019050919050565b60006020820190508181036000830152614cd181614c95565b9050919050565b7f50617469656e7420646f6573206e6f7420657869737400000000000000000000600082015250565b6000614d0e601683613d3d565b9150614d1982614cd8565b602082019050919050565b60006020820190508181036000830152614d3d81614d01565b9050919050565b7f506174686f6c6f6769737420646f6573206e6f74206578697374000000000000600082015250565b6000614d7a601a83613d3d565b9150614d8582614d44565b602082019050919050565b60006020820190508181036000830152614da981614d6d565b9050919050565b7f4d65646963616c205265736561726368204c616220646f6573206e6f7420657860008201527f6973740000000000000000000000000000000000000000000000000000000000602082015250565b6000614e0c602383613d3d565b9150614e1782614db0565b604082019050919050565b60006020820190508181036000830152614e3b81614dff565b9050919050565b7f506861726d61637920436f6d70616e7920646f6573206e6f7420657869737400600082015250565b6000614e78601f83613d3d565b9150614e8382614e42565b602082019050919050565b60006020820190508181036000830152614ea781614e6b565b9050919050565b7f556e737570706f7274656420656e746974792074797065000000000000000000600082015250565b6000614ee4601783613d3d565b9150614eef82614eae565b602082019050919050565b60006020820190508181036000830152614f1381614ed7565b9050919050565b7f506861726d61637920436f6d70616e69657320646f6573206e6f74206578697360008201527f7400000000000000000000000000000000000000000000000000000000000000602082015250565b6000614f76602183613d3d565b9150614f8182614f1a565b604082019050919050565b60006020820190508181036000830152614fa581614f69565b9050919050565b7f596f75206861766520616c7265616479206372656174656420796f757220707260008201527f6f66696c65000000000000000000000000000000000000000000000000000000602082015250565b6000615008602583613d3d565b915061501382614fac565b604082019050919050565b6000602082019050818103600083015261503781614ffb565b9050919050565b7f4d65646963616c205265736561726368206c616220646f6573206e6f7420657860008201527f6973740000000000000000000000000000000000000000000000000000000000602082015250565b600061509a602383613d3d565b91506150a58261503e565b604082019050919050565b600060208201905081810360008301526150c98161508d565b905091905056fea2646970667358221220c356a66dc845464a4bab12b106e0341c58321ba43d47e393d4f8f9fefe89baae64736f6c63430008110033",
  "linkReferences": {},
  "deployedLinkReferences": {}
}