{
  "_format": "hh-sol-artifact-1",
  "contractName": "MedicalData",
  "sourceName": "contracts/patientDataManagement.sol",
  "abi": [
    {
      "inputs": [
        {
          "internalType": "address",
          "name": "useraddress",
          "type": "address"
        }
      ],
      "name": "ConnectedAccountType",
      "outputs": [
        {
          "internalType": "uint256",
          "name": "",
          "type": "uint256"
        }
      ],
      "stateMutability": "view",
      "type": "function"
    },
    {
      "inputs": [
        {
          "internalType": "address",
          "name": "",
          "type": "address"
        }
      ],
      "name": "accounts",
      "outputs": [
        {
          "internalType": "uint256",
          "name": "",
          "type": "uint256"
        }
      ],
      "stateMutability": "view",
      "type": "function"
    },
    {
      "inputs": [
        {
          "internalType": "string",
          "name": "report",
          "type": "string"
        }
      ],
      "name": "addLabReport",
      "outputs": [],
      "stateMutability": "nonpayable",
      "type": "function"
    },
    {
      "inputs": [
        {
          "internalType": "address",
          "name": "_user",
          "type": "address"
        },
        {
          "internalType": "string",
          "name": "url",
          "type": "string"
        }
      ],
      "name": "addPrescription",
      "outputs": [],
      "stateMutability": "nonpayable",
      "type": "function"
    },
    {
      "inputs": [
        {
          "internalType": "string",
          "name": "medichine",
          "type": "string"
        }
      ],
      "name": "addTopMedichine",
      "outputs": [],
      "stateMutability": "nonpayable",
      "type": "function"
    },
    {
      "inputs": [
        {
          "internalType": "address",
          "name": "_doctorAddress",
          "type": "address"
        }
      ],
      "name": "getDoctor",
      "outputs": [
        {
          "components": [
            {
              "internalType": "address",
              "name": "DoctorAddress",
              "type": "address"
            },
            {
              "internalType": "uint256",
              "name": "doctorID",
              "type": "uint256"
            },
            {
              "internalType": "string",
              "name": "name",
              "type": "string"
            },
            {
              "internalType": "string",
              "name": "specialty",
              "type": "string"
            },
            {
              "internalType": "uint256",
              "name": "consultationFee",
              "type": "uint256"
            },
            {
              "internalType": "uint256",
              "name": "BMDCNumber",
              "type": "uint256"
            },
            {
              "internalType": "uint256",
              "name": "yearOfExperience",
              "type": "uint256"
            },
            {
              "internalType": "address[]",
              "name": "PatientToDoctor",
              "type": "address[]"
            },
            {
              "internalType": "address[]",
              "name": "PathologiestToDoctor",
              "type": "address[]"
            },
            {
              "internalType": "bool",
              "name": "isAdded",
              "type": "bool"
            },
            {
              "internalType": "string[]",
              "name": "imgUrl",
              "type": "string[]"
            },
            {
              "internalType": "string",
              "name": "userType",
              "type": "string"
            }
          ],
          "internalType": "struct MedicalData.Doctor",
          "name": "",
          "type": "tuple"
        }
      ],
      "stateMutability": "view",
      "type": "function"
    },
    {
      "inputs": [
        {
          "internalType": "address",
          "name": "_labAddress",
          "type": "address"
        }
      ],
      "name": "getMedicalResearchLab",
      "outputs": [
        {
          "components": [
            {
              "internalType": "address",
              "name": "labAddress",
              "type": "address"
            },
            {
              "internalType": "uint256",
              "name": "labID",
              "type": "uint256"
            },
            {
              "internalType": "string",
              "name": "name",
              "type": "string"
            },
            {
              "internalType": "uint256",
              "name": "licenseID",
              "type": "uint256"
            },
            {
              "internalType": "string",
              "name": "researchArea",
              "type": "string"
            },
            {
              "internalType": "uint256",
              "name": "labRating",
              "type": "uint256"
            },
            {
              "internalType": "bool",
              "name": "isAdded",
              "type": "bool"
            },
            {
              "internalType": "address[]",
              "name": "PatientToMedRcLab",
              "type": "address[]"
            },
            {
              "internalType": "string[]",
              "name": "PatientLabReport",
              "type": "string[]"
            },
            {
              "internalType": "string",
              "name": "userType",
              "type": "string"
            }
          ],
          "internalType": "struct MedicalData.MedicalResearchLab",
          "name": "",
          "type": "tuple"
        }
      ],
      "stateMutability": "view",
      "type": "function"
    },
    {
      "inputs": [
        {
          "internalType": "address",
          "name": "_pathologistAddress",
          "type": "address"
        }
      ],
      "name": "getPathologist",
      "outputs": [
        {
          "components": [
            {
              "internalType": "address",
              "name": "pathologistAddress",
              "type": "address"
            },
            {
              "internalType": "uint256",
              "name": "pathologistID",
              "type": "uint256"
            },
            {
              "internalType": "string",
              "name": "name",
              "type": "string"
            },
            {
              "internalType": "uint256",
              "name": "licenseNumber",
              "type": "uint256"
            },
            {
              "internalType": "string",
              "name": "specializationArea",
              "type": "string"
            },
            {
              "internalType": "uint256",
              "name": "totalExperience",
              "type": "uint256"
            },
            {
              "internalType": "bool",
              "name": "isAdded",
              "type": "bool"
            },
            {
              "internalType": "address[]",
              "name": "PatientToPathologiest",
              "type": "address[]"
            },
            {
              "internalType": "string",
              "name": "userType",
              "type": "string"
            },
            {
              "components": [
                {
                  "internalType": "string",
                  "name": "Allergies",
                  "type": "string"
                },
                {
                  "internalType": "string",
                  "name": "Cancer",
                  "type": "string"
                },
                {
                  "internalType": "string",
                  "name": "HormoneProblem",
                  "type": "string"
                },
                {
                  "internalType": "uint256",
                  "name": "DiabatiesLevel",
                  "type": "uint256"
                }
              ],
              "internalType": "struct MedicalData.PathologistTest",
              "name": "pathologistTest",
              "type": "tuple"
            }
          ],
          "internalType": "struct MedicalData.Pathologist",
          "name": "",
          "type": "tuple"
        }
      ],
      "stateMutability": "view",
      "type": "function"
    },
    {
      "inputs": [
        {
          "internalType": "address",
          "name": "_patientAddress",
          "type": "address"
        }
      ],
      "name": "getPatient",
      "outputs": [
        {
          "components": [
            {
              "internalType": "address",
              "name": "patientAddress",
              "type": "address"
            },
            {
              "internalType": "uint256",
              "name": "patientID",
              "type": "uint256"
            },
            {
              "internalType": "string",
              "name": "name",
              "type": "string"
            },
            {
              "internalType": "string",
              "name": "gender",
              "type": "string"
            },
            {
              "internalType": "uint256",
              "name": "age",
              "type": "uint256"
            },
            {
              "internalType": "string",
              "name": "location",
              "type": "string"
            },
            {
              "internalType": "bool",
              "name": "isAdded",
              "type": "bool"
            },
            {
              "internalType": "string",
              "name": "userType",
              "type": "string"
            },
            {
              "internalType": "string[]",
              "name": "imgUrl",
              "type": "string[]"
            },
            {
              "components": [
                {
                  "internalType": "uint256",
                  "name": "height",
                  "type": "uint256"
                },
                {
                  "internalType": "string",
                  "name": "Blood",
                  "type": "string"
                },
                {
                  "internalType": "string",
                  "name": "PreviousDiseases",
                  "type": "string"
                },
                {
                  "internalType": "string",
                  "name": "Medicinedrugs",
                  "type": "string"
                },
                {
                  "internalType": "string",
                  "name": "BadHabits",
                  "type": "string"
                },
                {
                  "internalType": "string",
                  "name": "ChronicDiseases",
                  "type": "string"
                },
                {
                  "internalType": "string",
                  "name": "HealthAllergies",
                  "type": "string"
                },
                {
                  "internalType": "string",
                  "name": "BirthDefects",
                  "type": "string"
                }
              ],
              "internalType": "struct MedicalData.PatientPersonalData",
              "name": "patientPersonalData",
              "type": "tuple"
            },
            {
              "internalType": "address[]",
              "name": "personalDoctor",
              "type": "address[]"
            }
          ],
          "internalType": "struct MedicalData.Patient",
          "name": "",
          "type": "tuple"
        }
      ],
      "stateMutability": "view",
      "type": "function"
    },
    {
      "inputs": [
        {
          "internalType": "address",
          "name": "_pharmacyCompanyAddress",
          "type": "address"
        }
      ],
      "name": "getPharmacyCompany",
      "outputs": [
        {
          "components": [
            {
              "internalType": "address",
              "name": "pharmacyCompanyAddress",
              "type": "address"
            },
            {
              "internalType": "uint256",
              "name": "companyID",
              "type": "uint256"
            },
            {
              "internalType": "string",
              "name": "name",
              "type": "string"
            },
            {
              "internalType": "uint256",
              "name": "licenseID",
              "type": "uint256"
            },
            {
              "internalType": "string",
              "name": "productInformation",
              "type": "string"
            },
            {
              "internalType": "uint256",
              "name": "pharmacyRating",
              "type": "uint256"
            },
            {
              "internalType": "bool",
              "name": "isAdded",
              "type": "bool"
            },
            {
              "internalType": "address[]",
              "name": "PatientToPharmacy",
              "type": "address[]"
            },
            {
              "internalType": "string",
              "name": "userType",
              "type": "string"
            },
            {
              "internalType": "string[]",
              "name": "TopMedichine",
              "type": "string[]"
            }
          ],
          "internalType": "struct MedicalData.PharmacyCompany",
          "name": "",
          "type": "tuple"
        }
      ],
      "stateMutability": "view",
      "type": "function"
    },
    {
      "inputs": [
        {
          "internalType": "address",
          "name": "",
          "type": "address"
        }
      ],
      "name": "pathologistTests",
      "outputs": [
        {
          "internalType": "string",
          "name": "Allergies",
          "type": "string"
        },
        {
          "internalType": "string",
          "name": "Cancer",
          "type": "string"
        },
        {
          "internalType": "string",
          "name": "HormoneProblem",
          "type": "string"
        },
        {
          "internalType": "uint256",
          "name": "DiabatiesLevel",
          "type": "uint256"
        }
      ],
      "stateMutability": "view",
      "type": "function"
    },
    {
      "inputs": [
        {
          "internalType": "uint256",
          "name": "doctorID",
          "type": "uint256"
        },
        {
          "internalType": "string",
          "name": "name",
          "type": "string"
        },
        {
          "internalType": "string",
          "name": "specialty",
          "type": "string"
        },
        {
          "internalType": "uint256",
          "name": "consultationFee",
          "type": "uint256"
        },
        {
          "internalType": "uint256",
          "name": "BMDCNumber",
          "type": "uint256"
        },
        {
          "internalType": "uint256",
          "name": "yearOfExperience",
          "type": "uint256"
        }
      ],
      "name": "setDoctor",
      "outputs": [],
      "stateMutability": "nonpayable",
      "type": "function"
    },
    {
      "inputs": [
        {
          "internalType": "uint256",
          "name": "labID",
          "type": "uint256"
        },
        {
          "internalType": "string",
          "name": "name",
          "type": "string"
        },
        {
          "internalType": "uint256",
          "name": "licenseID",
          "type": "uint256"
        },
        {
          "internalType": "string",
          "name": "researchArea",
          "type": "string"
        },
        {
          "internalType": "uint256",
          "name": "labRating",
          "type": "uint256"
        }
      ],
      "name": "setMedicalResearchLab",
      "outputs": [],
      "stateMutability": "nonpayable",
      "type": "function"
    },
    {
      "inputs": [
        {
          "internalType": "uint256",
          "name": "pathologistID",
          "type": "uint256"
        },
        {
          "internalType": "string",
          "name": "name",
          "type": "string"
        },
        {
          "internalType": "uint256",
          "name": "licenseNumber",
          "type": "uint256"
        },
        {
          "internalType": "string",
          "name": "specializationArea",
          "type": "string"
        },
        {
          "internalType": "uint256",
          "name": "totalExperience",
          "type": "uint256"
        }
      ],
      "name": "setPathologist",
      "outputs": [],
      "stateMutability": "nonpayable",
      "type": "function"
    },
    {
      "inputs": [
        {
          "internalType": "string",
          "name": "allergies",
          "type": "string"
        },
        {
          "internalType": "string",
          "name": "cancer",
          "type": "string"
        },
        {
          "internalType": "string",
          "name": "hormoneProblem",
          "type": "string"
        },
        {
          "internalType": "uint256",
          "name": "diabetesLevel",
          "type": "uint256"
        }
      ],
      "name": "setPathologistTest",
      "outputs": [],
      "stateMutability": "nonpayable",
      "type": "function"
    },
    {
      "inputs": [
        {
          "internalType": "uint256",
          "name": "patientID",
          "type": "uint256"
        },
        {
          "internalType": "string",
          "name": "name",
          "type": "string"
        },
        {
          "internalType": "string",
          "name": "gender",
          "type": "string"
        },
        {
          "internalType": "uint256",
          "name": "age",
          "type": "uint256"
        },
        {
          "internalType": "string",
          "name": "location",
          "type": "string"
        }
      ],
      "name": "setPatient",
      "outputs": [],
      "stateMutability": "nonpayable",
      "type": "function"
    },
    {
      "inputs": [
        {
          "internalType": "uint256",
          "name": "height",
          "type": "uint256"
        },
        {
          "internalType": "string",
          "name": "blood",
          "type": "string"
        },
        {
          "internalType": "string",
          "name": "previousDiseases",
          "type": "string"
        },
        {
          "internalType": "string",
          "name": "medicineDrugs",
          "type": "string"
        },
        {
          "internalType": "string",
          "name": "badHabits",
          "type": "string"
        },
        {
          "internalType": "string",
          "name": "chronicDiseases",
          "type": "string"
        },
        {
          "internalType": "string",
          "name": "healthAllergies",
          "type": "string"
        },
        {
          "internalType": "string",
          "name": "birthDefects",
          "type": "string"
        }
      ],
      "name": "setPatientPersonalData",
      "outputs": [],
      "stateMutability": "nonpayable",
      "type": "function"
    },
    {
      "inputs": [
        {
          "internalType": "uint256",
          "name": "companyID",
          "type": "uint256"
        },
        {
          "internalType": "string",
          "name": "name",
          "type": "string"
        },
        {
          "internalType": "uint256",
          "name": "licenseID",
          "type": "uint256"
        },
        {
          "internalType": "string",
          "name": "productInformation",
          "type": "string"
        },
        {
          "internalType": "uint256",
          "name": "pharmacyRating",
          "type": "uint256"
        }
      ],
      "name": "setPharmacyCompany",
      "outputs": [],
      "stateMutability": "nonpayable",
      "type": "function"
    },
    {
      "inputs": [
        {
          "internalType": "address",
          "name": "useraddress",
          "type": "address"
        }
      ],
      "name": "transferDataByDoctor",
      "outputs": [],
      "stateMutability": "nonpayable",
      "type": "function"
    },
    {
      "inputs": [
        {
          "internalType": "address",
          "name": "useraddress",
          "type": "address"
        }
      ],
      "name": "transferDataByPathologist",
      "outputs": [],
      "stateMutability": "nonpayable",
      "type": "function"
    },
    {
      "inputs": [
        {
          "internalType": "address",
          "name": "useraddress",
          "type": "address"
        }
      ],
      "name": "transferDataByPatient",
      "outputs": [],
      "stateMutability": "nonpayable",
      "type": "function"
    }
  ],
  "bytecode": "0x608060405234801561001057600080fd5b50615f2e80620000216000396000f3fe608060405234801561001057600080fd5b50600436106101375760003560e01c80636bc071a5116100b8578063b5368e201161007c578063b5368e201461035b578063d10b07d81461038b578063d16570d3146103a7578063d23fb52c146103c3578063ea8c9e04146103df578063f4bffd5a1461040f57610137565b80636bc071a5146102bb5780637ddd3f05146102d75780639059229b146102f3578063a3e12bc014610323578063a9d0b46a1461033f57610137565b80632f04e064116100ff5780632f04e064146101f057806339000b24146102205780635e5c06e21461023c578063637b85cf1461026c5780636757711b1461029f57610137565b8063100d1a7f1461013c57806316ecfa84146101585780632545526d146101885780632947f2bc146101a45780632a1ebd01146101c0575b600080fd5b6101566004803603810190610151919061451f565b61042b565b005b610172600480360381019061016d91906146f7565b610554565b60405161017f91906149f2565b60405180910390f35b6101a2600480360381019061019d91906146f7565b610ae4565b005b6101be60048036038101906101b99190614a14565b610dc5565b005b6101da60048036038101906101d591906146f7565b610e80565b6040516101e79190614ade565b60405180910390f35b61020a600480360381019061020591906146f7565b610fb3565b6040516102179190614ce2565b60405180910390f35b61023a60048036038101906102359190614d04565b6114e0565b005b610256600480360381019061025191906146f7565b611558565b6040516102639190614ade565b60405180910390f35b610286600480360381019061028191906146f7565b611570565b6040516102969493929190614d97565b60405180910390f35b6102b960048036038101906102b49190614df1565b611738565b005b6102d560048036038101906102d09190614d04565b61194a565b005b6102f160048036038101906102ec9190614df1565b6119c2565b005b61030d600480360381019061030891906146f7565b611bd4565b60405161031a9190614f9a565b60405180910390f35b61033d60048036038101906103389190614fbc565b612069565b005b610359600480360381019061035491906146f7565b612445565b005b610375600480360381019061037091906146f7565b612a3e565b604051610382919061520b565b60405180910390f35b6103a560048036038101906103a09190614df1565b613378565b005b6103c160048036038101906103bc91906146f7565b61358a565b005b6103dd60048036038101906103d8919061522d565b61381f565b005b6103f960048036038101906103f491906146f7565b613a3a565b60405161040691906153f2565b60405180910390f35b61042960048036038101906104249190615414565b613ecf565b005b604051806101000160405280898152602001888152602001878152602001868152602001858152602001848152602001838152602001828152506000803373ffffffffffffffffffffffffffffffffffffffff1673ffffffffffffffffffffffffffffffffffffffff1681526020019081526020016000206000820151816000015560208201518160010190816104c291906156e5565b5060408201518160020190816104d891906156e5565b5060608201518160030190816104ee91906156e5565b50608082015181600401908161050491906156e5565b5060a082015181600501908161051a91906156e5565b5060c082015181600601908161053091906156e5565b5060e082015181600701908161054691906156e5565b509050505050505050505050565b61055c6140ea565b600460008373ffffffffffffffffffffffffffffffffffffffff1673ffffffffffffffffffffffffffffffffffffffff16815260200190815260200160002060060160009054906101000a900460ff166105eb576040517f08c379a00000000000000000000000000000000000000000000000000000000081526004016105e290615803565b60405180910390fd5b600460008373ffffffffffffffffffffffffffffffffffffffff1673ffffffffffffffffffffffffffffffffffffffff168152602001908152602001600020604051806101400160405290816000820160009054906101000a900473ffffffffffffffffffffffffffffffffffffffff1673ffffffffffffffffffffffffffffffffffffffff1673ffffffffffffffffffffffffffffffffffffffff168152602001600182015481526020016002820180546106a690615508565b80601f01602080910402602001604051908101604052809291908181526020018280546106d290615508565b801561071f5780601f106106f45761010080835404028352916020019161071f565b820191906000526020600020905b81548152906001019060200180831161070257829003601f168201915b505050505081526020016003820154815260200160048201805461074290615508565b80601f016020809104026020016040519081016040528092919081815260200182805461076e90615508565b80156107bb5780601f10610790576101008083540402835291602001916107bb565b820191906000526020600020905b81548152906001019060200180831161079e57829003601f168201915b50505050508152602001600582015481526020016006820160009054906101000a900460ff161515151581526020016007820180548060200260200160405190810160405280929190818152602001828054801561086e57602002820191906000526020600020905b8160009054906101000a900473ffffffffffffffffffffffffffffffffffffffff1673ffffffffffffffffffffffffffffffffffffffff1681526020019060010190808311610824575b5050505050815260200160088201805461088790615508565b80601f01602080910402602001604051908101604052809291908181526020018280546108b390615508565b80156109005780601f106108d557610100808354040283529160200191610900565b820191906000526020600020905b8154815290600101906020018083116108e357829003601f168201915b505050505081526020016009820160405180608001604052908160008201805461092990615508565b80601f016020809104026020016040519081016040528092919081815260200182805461095590615508565b80156109a25780601f10610977576101008083540402835291602001916109a2565b820191906000526020600020905b81548152906001019060200180831161098557829003601f168201915b505050505081526020016001820180546109bb90615508565b80601f01602080910402602001604051908101604052809291908181526020018280546109e790615508565b8015610a345780601f10610a0957610100808354040283529160200191610a34565b820191906000526020600020905b815481529060010190602001808311610a1757829003601f168201915b50505050508152602001600282018054610a4d90615508565b80601f0160208091040260200160405190810160405280929190818152602001828054610a7990615508565b8015610ac65780601f10610a9b57610100808354040283529160200191610ac6565b820191906000526020600020905b815481529060010190602001808311610aa957829003601f168201915b50505050508152602001600382015481525050815250509050919050565b6000600160008373ffffffffffffffffffffffffffffffffffffffff1673ffffffffffffffffffffffffffffffffffffffff16815260200190815260200160002054905060016005811115610b3c57610b3b615823565b5b600103610dc157600360003373ffffffffffffffffffffffffffffffffffffffff1673ffffffffffffffffffffffffffffffffffffffff16815260200190815260200160002060090160009054906101000a900460ff16610bd2576040517f08c379a0000000000000000000000000000000000000000000000000000000008152600401610bc99061589e565b60405180910390fd5b60026005811115610be657610be5615823565b5b81148015610c07575060016005811115610c0357610c02615823565b5b6001145b15610d8557600073ffffffffffffffffffffffffffffffffffffffff16600460008473ffffffffffffffffffffffffffffffffffffffff1673ffffffffffffffffffffffffffffffffffffffff16815260200190815260200160002060000160009054906101000a900473ffffffffffffffffffffffffffffffffffffffff1673ffffffffffffffffffffffffffffffffffffffff1603610cdd576040517f08c379a0000000000000000000000000000000000000000000000000000000008152600401610cd49061590a565b60405180910390fd5b600460008373ffffffffffffffffffffffffffffffffffffffff1673ffffffffffffffffffffffffffffffffffffffff168152602001908152602001600020600701339080600181540180825580915050600190039060005260206000200160009091909190916101000a81548173ffffffffffffffffffffffffffffffffffffffff021916908373ffffffffffffffffffffffffffffffffffffffff160217905550610dc0565b6040517f08c379a0000000000000000000000000000000000000000000000000000000008152600401610db79061599c565b60405180910390fd5b5b5050565b6000604051806080016040528086815260200185815260200184815260200183815250905080600760003373ffffffffffffffffffffffffffffffffffffffff1673ffffffffffffffffffffffffffffffffffffffff1681526020019081526020016000206000820151816000019081610e3f91906156e5565b506020820151816001019081610e5591906156e5565b506040820151816002019081610e6b91906156e5565b50606082015181600301559050505050505050565b600080600160008473ffffffffffffffffffffffffffffffffffffffff1673ffffffffffffffffffffffffffffffffffffffff16815260200190815260200160002054905060016005811115610ed957610ed8615823565b5b8103610ee85780915050610fae565b600580811115610efb57610efa615823565b5b8103610f0a5780915050610fae565b60026005811115610f1e57610f1d615823565b5b8103610f2d5780915050610fae565b60036005811115610f4157610f40615823565b5b8103610f505780915050610fae565b60046005811115610f6457610f63615823565b5b8103610f735780915050610fae565b6040517f08c379a0000000000000000000000000000000000000000000000000000000008152600401610fa590615a08565b60405180910390fd5b919050565b610fbb61415b565b600360008373ffffffffffffffffffffffffffffffffffffffff1673ffffffffffffffffffffffffffffffffffffffff16815260200190815260200160002060090160009054906101000a900460ff1661104a576040517f08c379a00000000000000000000000000000000000000000000000000000000081526004016110419061589e565b60405180910390fd5b600360008373ffffffffffffffffffffffffffffffffffffffff1673ffffffffffffffffffffffffffffffffffffffff168152602001908152602001600020604051806101800160405290816000820160009054906101000a900473ffffffffffffffffffffffffffffffffffffffff1673ffffffffffffffffffffffffffffffffffffffff1673ffffffffffffffffffffffffffffffffffffffff1681526020016001820154815260200160028201805461110590615508565b80601f016020809104026020016040519081016040528092919081815260200182805461113190615508565b801561117e5780601f106111535761010080835404028352916020019161117e565b820191906000526020600020905b81548152906001019060200180831161116157829003601f168201915b5050505050815260200160038201805461119790615508565b80601f01602080910402602001604051908101604052809291908181526020018280546111c390615508565b80156112105780601f106111e557610100808354040283529160200191611210565b820191906000526020600020905b8154815290600101906020018083116111f357829003601f168201915b50505050508152602001600482015481526020016005820154815260200160068201548152602001600782018054806020026020016040519081016040528092919081815260200182805480156112bc57602002820191906000526020600020905b8160009054906101000a900473ffffffffffffffffffffffffffffffffffffffff1673ffffffffffffffffffffffffffffffffffffffff1681526020019060010190808311611272575b505050505081526020016008820180548060200260200160405190810160405280929190818152602001828054801561134a57602002820191906000526020600020905b8160009054906101000a900473ffffffffffffffffffffffffffffffffffffffff1673ffffffffffffffffffffffffffffffffffffffff1681526020019060010190808311611300575b505050505081526020016009820160009054906101000a900460ff16151515158152602001600a8201805480602002602001604051908101604052809291908181526020016000905b8282101561143f5783829060005260206000200180546113b290615508565b80601f01602080910402602001604051908101604052809291908181526020018280546113de90615508565b801561142b5780601f106114005761010080835404028352916020019161142b565b820191906000526020600020905b81548152906001019060200180831161140e57829003601f168201915b505050505081526020019060010190611393565b505050508152602001600b8201805461145790615508565b80601f016020809104026020016040519081016040528092919081815260200182805461148390615508565b80156114d05780601f106114a5576101008083540402835291602001916114d0565b820191906000526020600020905b8154815290600101906020018083116114b357829003601f168201915b5050505050815250509050919050565b600560003373ffffffffffffffffffffffffffffffffffffffff1673ffffffffffffffffffffffffffffffffffffffff1681526020019081526020016000206008018190806001815401808255809150506001900390600052602060002001600090919091909150908161155491906156e5565b5050565b60016020528060005260406000206000915090505481565b600760205280600052604060002060009150905080600001805461159390615508565b80601f01602080910402602001604051908101604052809291908181526020018280546115bf90615508565b801561160c5780601f106115e15761010080835404028352916020019161160c565b820191906000526020600020905b8154815290600101906020018083116115ef57829003601f168201915b50505050509080600101805461162190615508565b80601f016020809104026020016040519081016040528092919081815260200182805461164d90615508565b801561169a5780601f1061166f5761010080835404028352916020019161169a565b820191906000526020600020905b81548152906001019060200180831161167d57829003601f168201915b5050505050908060020180546116af90615508565b80601f01602080910402602001604051908101604052809291908181526020018280546116db90615508565b80156117285780601f106116fd57610100808354040283529160200191611728565b820191906000526020600020905b81548152906001019060200180831161170b57829003601f168201915b5050505050908060030154905084565b600033905060001515600460008373ffffffffffffffffffffffffffffffffffffffff1673ffffffffffffffffffffffffffffffffffffffff16815260200190815260200160002060060160009054906101000a900460ff161515146117d3576040517f08c379a00000000000000000000000000000000000000000000000000000000081526004016117ca90615a74565b60405180910390fd5b6000600460008373ffffffffffffffffffffffffffffffffffffffff1673ffffffffffffffffffffffffffffffffffffffff1681526020019081526020016000209050818160000160006101000a81548173ffffffffffffffffffffffffffffffffffffffff021916908373ffffffffffffffffffffffffffffffffffffffff1602179055508681600101819055508581600201908161187391906156e5565b508481600301819055508381600401908161188e91906156e5565b508281600501819055506002600160008473ffffffffffffffffffffffffffffffffffffffff1673ffffffffffffffffffffffffffffffffffffffff1681526020019081526020016000208190555060018160060160006101000a81548160ff0219169083151502179055506040518060400160405280600b81526020017f506174686f6c6f6769737400000000000000000000000000000000000000000081525081600801908161194091906156e5565b5050505050505050565b600660003373ffffffffffffffffffffffffffffffffffffffff1673ffffffffffffffffffffffffffffffffffffffff168152602001908152602001600020600901819080600181540180825580915050600190039060005260206000200160009091909190915090816119be91906156e5565b5050565b600033905060001515600660008373ffffffffffffffffffffffffffffffffffffffff1673ffffffffffffffffffffffffffffffffffffffff16815260200190815260200160002060060160009054906101000a900460ff16151514611a5d576040517f08c379a0000000000000000000000000000000000000000000000000000000008152600401611a5490615a74565b60405180910390fd5b6000600660008373ffffffffffffffffffffffffffffffffffffffff1673ffffffffffffffffffffffffffffffffffffffff1681526020019081526020016000209050818160000160006101000a81548173ffffffffffffffffffffffffffffffffffffffff021916908373ffffffffffffffffffffffffffffffffffffffff16021790555086816001018190555085816002019081611afd91906156e5565b5084816003018190555083816004019081611b1891906156e5565b5082816005018190555060018160060160006101000a81548160ff0219169083151502179055506004600160008473ffffffffffffffffffffffffffffffffffffffff1673ffffffffffffffffffffffffffffffffffffffff168152602001908152602001600020819055506040518060400160405280601081526020017f506861726d61637920436f6d70616e7900000000000000000000000000000000815250816008019081611bca91906156e5565b5050505050505050565b611bdc6141d4565b600660008373ffffffffffffffffffffffffffffffffffffffff1673ffffffffffffffffffffffffffffffffffffffff16815260200190815260200160002060060160009054906101000a900460ff16611c6b576040517f08c379a0000000000000000000000000000000000000000000000000000000008152600401611c6290615ae0565b60405180910390fd5b600660008373ffffffffffffffffffffffffffffffffffffffff1673ffffffffffffffffffffffffffffffffffffffff168152602001908152602001600020604051806101400160405290816000820160009054906101000a900473ffffffffffffffffffffffffffffffffffffffff1673ffffffffffffffffffffffffffffffffffffffff1673ffffffffffffffffffffffffffffffffffffffff16815260200160018201548152602001600282018054611d2690615508565b80601f0160208091040260200160405190810160405280929190818152602001828054611d5290615508565b8015611d9f5780601f10611d7457610100808354040283529160200191611d9f565b820191906000526020600020905b815481529060010190602001808311611d8257829003601f168201915b5050505050815260200160038201548152602001600482018054611dc290615508565b80601f0160208091040260200160405190810160405280929190818152602001828054611dee90615508565b8015611e3b5780601f10611e1057610100808354040283529160200191611e3b565b820191906000526020600020905b815481529060010190602001808311611e1e57829003601f168201915b50505050508152602001600582015481526020016006820160009054906101000a900460ff1615151515815260200160078201805480602002602001604051908101604052809291908181526020018280548015611eee57602002820191906000526020600020905b8160009054906101000a900473ffffffffffffffffffffffffffffffffffffffff1673ffffffffffffffffffffffffffffffffffffffff1681526020019060010190808311611ea4575b50505050508152602001600882018054611f0790615508565b80601f0160208091040260200160405190810160405280929190818152602001828054611f3390615508565b8015611f805780601f10611f5557610100808354040283529160200191611f80565b820191906000526020600020905b815481529060010190602001808311611f6357829003601f168201915b5050505050815260200160098201805480602002602001604051908101604052809291908181526020016000905b8282101561205a578382906000526020600020018054611fcd90615508565b80601f0160208091040260200160405190810160405280929190818152602001828054611ff990615508565b80156120465780601f1061201b57610100808354040283529160200191612046565b820191906000526020600020905b81548152906001019060200180831161202957829003601f168201915b505050505081526020019060010190611fae565b50505050815250509050919050565b6001600581111561207d5761207c615823565b5b600160003373ffffffffffffffffffffffffffffffffffffffff1673ffffffffffffffffffffffffffffffffffffffff16815260200190815260200160002054036122e357600360003373ffffffffffffffffffffffffffffffffffffffff1673ffffffffffffffffffffffffffffffffffffffff16815260200190815260200160002060090160009054906101000a900460ff16612151576040517f08c379a00000000000000000000000000000000000000000000000000000000081526004016121489061589e565b60405180910390fd5b600360003373ffffffffffffffffffffffffffffffffffffffff1673ffffffffffffffffffffffffffffffffffffffff168152602001908152602001600020600a01819080600181540180825580915050600190039060005260206000200160009091909190915090816121c591906156e5565b50600260008373ffffffffffffffffffffffffffffffffffffffff1673ffffffffffffffffffffffffffffffffffffffff1681526020019081526020016000206008018190806001815401808255809150506001900390600052602060002001600090919091909150908161223a91906156e5565b50600260008373ffffffffffffffffffffffffffffffffffffffff1673ffffffffffffffffffffffffffffffffffffffff168152602001908152602001600020601101339080600181540180825580915050600190039060005260206000200160009091909190916101000a81548173ffffffffffffffffffffffffffffffffffffffff021916908373ffffffffffffffffffffffffffffffffffffffff160217905550612441565b6005808111156122f6576122f5615823565b5b600160003373ffffffffffffffffffffffffffffffffffffffff1673ffffffffffffffffffffffffffffffffffffffff168152602001908152602001600020540361244057600260003373ffffffffffffffffffffffffffffffffffffffff1673ffffffffffffffffffffffffffffffffffffffff16815260200190815260200160002060060160009054906101000a900460ff166123ca576040517f08c379a00000000000000000000000000000000000000000000000000000000081526004016123c190615b4c565b60405180910390fd5b600260003373ffffffffffffffffffffffffffffffffffffffff1673ffffffffffffffffffffffffffffffffffffffff1681526020019081526020016000206008018190806001815401808255809150506001900390600052602060002001600090919091909150908161243e91906156e5565b505b5b5050565b6000600160008373ffffffffffffffffffffffffffffffffffffffff1673ffffffffffffffffffffffffffffffffffffffff16815260200190815260200160002054905060058081111561249c5761249b615823565b5b600503612a3a57600260003373ffffffffffffffffffffffffffffffffffffffff1673ffffffffffffffffffffffffffffffffffffffff16815260200190815260200160002060060160009054906101000a900460ff16612532576040517f08c379a000000000000000000000000000000000000000000000000000000000815260040161252990615b4c565b60405180910390fd5b6001600581111561254657612545615823565b5b81148015612566575060058081111561256257612561615823565b5b6005145b15612698576000600360008473ffffffffffffffffffffffffffffffffffffffff1673ffffffffffffffffffffffffffffffffffffffff16815260200190815260200160002060050154036125f0576040517f08c379a00000000000000000000000000000000000000000000000000000000081526004016125e79061589e565b60405180910390fd5b600360008373ffffffffffffffffffffffffffffffffffffffff1673ffffffffffffffffffffffffffffffffffffffff168152602001908152602001600020600701339080600181540180825580915050600190039060005260206000200160009091909190916101000a81548173ffffffffffffffffffffffffffffffffffffffff021916908373ffffffffffffffffffffffffffffffffffffffff160217905550612a39565b600360058111156126ac576126ab615823565b5b811480156126cc57506005808111156126c8576126c7615823565b5b6005145b1561284a57600073ffffffffffffffffffffffffffffffffffffffff16600560008473ffffffffffffffffffffffffffffffffffffffff1673ffffffffffffffffffffffffffffffffffffffff16815260200190815260200160002060000160009054906101000a900473ffffffffffffffffffffffffffffffffffffffff1673ffffffffffffffffffffffffffffffffffffffff16036127a2576040517f08c379a000000000000000000000000000000000000000000000000000000000815260040161279990615bde565b60405180910390fd5b600560008373ffffffffffffffffffffffffffffffffffffffff1673ffffffffffffffffffffffffffffffffffffffff168152602001908152602001600020600701339080600181540180825580915050600190039060005260206000200160009091909190916101000a81548173ffffffffffffffffffffffffffffffffffffffff021916908373ffffffffffffffffffffffffffffffffffffffff160217905550612a38565b6004600581111561285e5761285d615823565b5b8114801561287e575060058081111561287a57612879615823565b5b6005145b156129fc57600073ffffffffffffffffffffffffffffffffffffffff16600660008473ffffffffffffffffffffffffffffffffffffffff1673ffffffffffffffffffffffffffffffffffffffff16815260200190815260200160002060000160009054906101000a900473ffffffffffffffffffffffffffffffffffffffff1673ffffffffffffffffffffffffffffffffffffffff1603612954576040517f08c379a000000000000000000000000000000000000000000000000000000000815260040161294b90615c4a565b60405180910390fd5b600660008373ffffffffffffffffffffffffffffffffffffffff1673ffffffffffffffffffffffffffffffffffffffff168152602001908152602001600020600701339080600181540180825580915050600190039060005260206000200160009091909190916101000a81548173ffffffffffffffffffffffffffffffffffffffff021916908373ffffffffffffffffffffffffffffffffffffffff160217905550612a37565b6040517f08c379a0000000000000000000000000000000000000000000000000000000008152600401612a2e90615cdc565b60405180910390fd5b5b5b5b5050565b612a4661423f565b600260008373ffffffffffffffffffffffffffffffffffffffff1673ffffffffffffffffffffffffffffffffffffffff16815260200190815260200160002060060160009054906101000a900460ff16612ad5576040517f08c379a0000000000000000000000000000000000000000000000000000000008152600401612acc90615d48565b60405180910390fd5b600260008373ffffffffffffffffffffffffffffffffffffffff1673ffffffffffffffffffffffffffffffffffffffff168152602001908152602001600020604051806101600160405290816000820160009054906101000a900473ffffffffffffffffffffffffffffffffffffffff1673ffffffffffffffffffffffffffffffffffffffff1673ffffffffffffffffffffffffffffffffffffffff16815260200160018201548152602001600282018054612b9090615508565b80601f0160208091040260200160405190810160405280929190818152602001828054612bbc90615508565b8015612c095780601f10612bde57610100808354040283529160200191612c09565b820191906000526020600020905b815481529060010190602001808311612bec57829003601f168201915b50505050508152602001600382018054612c2290615508565b80601f0160208091040260200160405190810160405280929190818152602001828054612c4e90615508565b8015612c9b5780601f10612c7057610100808354040283529160200191612c9b565b820191906000526020600020905b815481529060010190602001808311612c7e57829003601f168201915b5050505050815260200160048201548152602001600582018054612cbe90615508565b80601f0160208091040260200160405190810160405280929190818152602001828054612cea90615508565b8015612d375780601f10612d0c57610100808354040283529160200191612d37565b820191906000526020600020905b815481529060010190602001808311612d1a57829003601f168201915b505050505081526020016006820160009054906101000a900460ff16151515158152602001600782018054612d6b90615508565b80601f0160208091040260200160405190810160405280929190818152602001828054612d9790615508565b8015612de45780601f10612db957610100808354040283529160200191612de4565b820191906000526020600020905b815481529060010190602001808311612dc757829003601f168201915b5050505050815260200160088201805480602002602001604051908101604052809291908181526020016000905b82821015612ebe578382906000526020600020018054612e3190615508565b80601f0160208091040260200160405190810160405280929190818152602001828054612e5d90615508565b8015612eaa5780601f10612e7f57610100808354040283529160200191612eaa565b820191906000526020600020905b815481529060010190602001808311612e8d57829003601f168201915b505050505081526020019060010190612e12565b505050508152602001600982016040518061010001604052908160008201548152602001600182018054612ef190615508565b80601f0160208091040260200160405190810160405280929190818152602001828054612f1d90615508565b8015612f6a5780601f10612f3f57610100808354040283529160200191612f6a565b820191906000526020600020905b815481529060010190602001808311612f4d57829003601f168201915b50505050508152602001600282018054612f8390615508565b80601f0160208091040260200160405190810160405280929190818152602001828054612faf90615508565b8015612ffc5780601f10612fd157610100808354040283529160200191612ffc565b820191906000526020600020905b815481529060010190602001808311612fdf57829003601f168201915b5050505050815260200160038201805461301590615508565b80601f016020809104026020016040519081016040528092919081815260200182805461304190615508565b801561308e5780601f106130635761010080835404028352916020019161308e565b820191906000526020600020905b81548152906001019060200180831161307157829003601f168201915b505050505081526020016004820180546130a790615508565b80601f01602080910402602001604051908101604052809291908181526020018280546130d390615508565b80156131205780601f106130f557610100808354040283529160200191613120565b820191906000526020600020905b81548152906001019060200180831161310357829003601f168201915b5050505050815260200160058201805461313990615508565b80601f016020809104026020016040519081016040528092919081815260200182805461316590615508565b80156131b25780601f10613187576101008083540402835291602001916131b2565b820191906000526020600020905b81548152906001019060200180831161319557829003601f168201915b505050505081526020016006820180546131cb90615508565b80601f01602080910402602001604051908101604052809291908181526020018280546131f790615508565b80156132445780601f1061321957610100808354040283529160200191613244565b820191906000526020600020905b81548152906001019060200180831161322757829003601f168201915b5050505050815260200160078201805461325d90615508565b80601f016020809104026020016040519081016040528092919081815260200182805461328990615508565b80156132d65780601f106132ab576101008083540402835291602001916132d6565b820191906000526020600020905b8154815290600101906020018083116132b957829003601f168201915b50505050508152505081526020016011820180548060200260200160405190810160405280929190818152602001828054801561336857602002820191906000526020600020905b8160009054906101000a900473ffffffffffffffffffffffffffffffffffffffff1673ffffffffffffffffffffffffffffffffffffffff168152602001906001019080831161331e575b5050505050815250509050919050565b600033905060001515600560008373ffffffffffffffffffffffffffffffffffffffff1673ffffffffffffffffffffffffffffffffffffffff16815260200190815260200160002060060160009054906101000a900460ff16151514613413576040517f08c379a000000000000000000000000000000000000000000000000000000000815260040161340a90615a74565b60405180910390fd5b6000600560008373ffffffffffffffffffffffffffffffffffffffff1673ffffffffffffffffffffffffffffffffffffffff1681526020019081526020016000209050818160000160006101000a81548173ffffffffffffffffffffffffffffffffffffffff021916908373ffffffffffffffffffffffffffffffffffffffff160217905550868160010181905550858160020190816134b391906156e5565b50848160030181905550838160040190816134ce91906156e5565b5082816005018190555060018160060160006101000a81548160ff0219169083151502179055506003600160008473ffffffffffffffffffffffffffffffffffffffff1673ffffffffffffffffffffffffffffffffffffffff168152602001908152602001600020819055506040518060400160405280601481526020017f4d65646963616c205265736561726368204c616200000000000000000000000081525081600901908161358091906156e5565b5050505050505050565b6000600160008373ffffffffffffffffffffffffffffffffffffffff1673ffffffffffffffffffffffffffffffffffffffff168152602001908152602001600020549050600260058111156135e2576135e1615823565b5b60020361381b57600460003373ffffffffffffffffffffffffffffffffffffffff1673ffffffffffffffffffffffffffffffffffffffff16815260200190815260200160002060060160009054906101000a900460ff16613678576040517f08c379a000000000000000000000000000000000000000000000000000000000815260040161366f90615db4565b60405180910390fd5b6001600581111561368c5761368b615823565b5b811480156136ad5750600260058111156136a9576136a8615823565b5b6002145b156137df576000600360008473ffffffffffffffffffffffffffffffffffffffff1673ffffffffffffffffffffffffffffffffffffffff1681526020019081526020016000206005015403613737576040517f08c379a000000000000000000000000000000000000000000000000000000000815260040161372e9061589e565b60405180910390fd5b600360008373ffffffffffffffffffffffffffffffffffffffff1673ffffffffffffffffffffffffffffffffffffffff168152602001908152602001600020600801339080600181540180825580915050600190039060005260206000200160009091909190916101000a81548173ffffffffffffffffffffffffffffffffffffffff021916908373ffffffffffffffffffffffffffffffffffffffff16021790555061381a565b6040517f08c379a000000000000000000000000000000000000000000000000000000000815260040161381190615e46565b60405180910390fd5b5b5050565b600033905060001515600260008373ffffffffffffffffffffffffffffffffffffffff1673ffffffffffffffffffffffffffffffffffffffff16815260200190815260200160002060060160009054906101000a900460ff161515146138ba576040517f08c379a00000000000000000000000000000000000000000000000000000000081526004016138b190615ed8565b60405180910390fd5b6000600260008373ffffffffffffffffffffffffffffffffffffffff1673ffffffffffffffffffffffffffffffffffffffff1681526020019081526020016000209050818160000160006101000a81548173ffffffffffffffffffffffffffffffffffffffff021916908373ffffffffffffffffffffffffffffffffffffffff1602179055508681600101819055508581600201908161395a91906156e5565b508481600301908161396c91906156e5565b508381600401819055506005600160008473ffffffffffffffffffffffffffffffffffffffff1673ffffffffffffffffffffffffffffffffffffffff16815260200190815260200160002081905550828160050190816139cc91906156e5565b5060018160060160006101000a81548160ff0219169083151502179055506040518060400160405280600781526020017f50617469656e7400000000000000000000000000000000000000000000000000815250816007019081613a3091906156e5565b5050505050505050565b613a426142b7565b600560008373ffffffffffffffffffffffffffffffffffffffff1673ffffffffffffffffffffffffffffffffffffffff16815260200190815260200160002060060160009054906101000a900460ff16613ad1576040517f08c379a0000000000000000000000000000000000000000000000000000000008152600401613ac890615bde565b60405180910390fd5b600560008373ffffffffffffffffffffffffffffffffffffffff1673ffffffffffffffffffffffffffffffffffffffff168152602001908152602001600020604051806101400160405290816000820160009054906101000a900473ffffffffffffffffffffffffffffffffffffffff1673ffffffffffffffffffffffffffffffffffffffff1673ffffffffffffffffffffffffffffffffffffffff16815260200160018201548152602001600282018054613b8c90615508565b80601f0160208091040260200160405190810160405280929190818152602001828054613bb890615508565b8015613c055780601f10613bda57610100808354040283529160200191613c05565b820191906000526020600020905b815481529060010190602001808311613be857829003601f168201915b5050505050815260200160038201548152602001600482018054613c2890615508565b80601f0160208091040260200160405190810160405280929190818152602001828054613c5490615508565b8015613ca15780601f10613c7657610100808354040283529160200191613ca1565b820191906000526020600020905b815481529060010190602001808311613c8457829003601f168201915b50505050508152602001600582015481526020016006820160009054906101000a900460ff1615151515815260200160078201805480602002602001604051908101604052809291908181526020018280548015613d5457602002820191906000526020600020905b8160009054906101000a900473ffffffffffffffffffffffffffffffffffffffff1673ffffffffffffffffffffffffffffffffffffffff1681526020019060010190808311613d0a575b5050505050815260200160088201805480602002602001604051908101604052809291908181526020016000905b82821015613e2e578382906000526020600020018054613da190615508565b80601f0160208091040260200160405190810160405280929190818152602001828054613dcd90615508565b8015613e1a5780601f10613def57610100808354040283529160200191613e1a565b820191906000526020600020905b815481529060010190602001808311613dfd57829003601f168201915b505050505081526020019060010190613d82565b505050508152602001600982018054613e4690615508565b80601f0160208091040260200160405190810160405280929190818152602001828054613e7290615508565b8015613ebf5780601f10613e9457610100808354040283529160200191613ebf565b820191906000526020600020905b815481529060010190602001808311613ea257829003601f168201915b5050505050815250509050919050565b600033905060001515600360008373ffffffffffffffffffffffffffffffffffffffff1673ffffffffffffffffffffffffffffffffffffffff16815260200190815260200160002060090160009054906101000a900460ff16151514613f6a576040517f08c379a0000000000000000000000000000000000000000000000000000000008152600401613f6190615a74565b60405180910390fd5b6000600360008373ffffffffffffffffffffffffffffffffffffffff1673ffffffffffffffffffffffffffffffffffffffff1681526020019081526020016000209050818160000160006101000a81548173ffffffffffffffffffffffffffffffffffffffff021916908373ffffffffffffffffffffffffffffffffffffffff1602179055508781600101819055508681600201908161400a91906156e5565b508581600301908161401c91906156e5565b508481600401819055508381600501819055508281600601819055506040518060400160405280600681526020017f446f63746f72000000000000000000000000000000000000000000000000000081525081600b01908161407e91906156e5565b5060018160090160006101000a81548160ff02191690831515021790555060018060008473ffffffffffffffffffffffffffffffffffffffff1673ffffffffffffffffffffffffffffffffffffffff168152602001908152602001600020819055505050505050505050565b604051806101400160405280600073ffffffffffffffffffffffffffffffffffffffff16815260200160008152602001606081526020016000815260200160608152602001600081526020016000151581526020016060815260200160608152602001614155614322565b81525090565b604051806101800160405280600073ffffffffffffffffffffffffffffffffffffffff168152602001600081526020016060815260200160608152602001600081526020016000815260200160008152602001606081526020016060815260200160001515815260200160608152602001606081525090565b604051806101400160405280600073ffffffffffffffffffffffffffffffffffffffff16815260200160008152602001606081526020016000815260200160608152602001600081526020016000151581526020016060815260200160608152602001606081525090565b604051806101600160405280600073ffffffffffffffffffffffffffffffffffffffff168152602001600081526020016060815260200160608152602001600081526020016060815260200160001515815260200160608152602001606081526020016142aa61434a565b8152602001606081525090565b604051806101400160405280600073ffffffffffffffffffffffffffffffffffffffff16815260200160008152602001606081526020016000815260200160608152602001600081526020016000151581526020016060815260200160608152602001606081525090565b6040518060800160405280606081526020016060815260200160608152602001600081525090565b60405180610100016040528060008152602001606081526020016060815260200160608152602001606081526020016060815260200160608152602001606081525090565b6000604051905090565b600080fd5b600080fd5b6000819050919050565b6143b6816143a3565b81146143c157600080fd5b50565b6000813590506143d3816143ad565b92915050565b600080fd5b600080fd5b6000601f19601f8301169050919050565b7f4e487b7100000000000000000000000000000000000000000000000000000000600052604160045260246000fd5b61442c826143e3565b810181811067ffffffffffffffff8211171561444b5761444a6143f4565b5b80604052505050565b600061445e61438f565b905061446a8282614423565b919050565b600067ffffffffffffffff82111561448a576144896143f4565b5b614493826143e3565b9050602081019050919050565b82818337600083830152505050565b60006144c26144bd8461446f565b614454565b9050828152602081018484840111156144de576144dd6143de565b5b6144e98482856144a0565b509392505050565b600082601f830112614506576145056143d9565b5b81356145168482602086016144af565b91505092915050565b600080600080600080600080610100898b0312156145405761453f614399565b5b600061454e8b828c016143c4565b985050602089013567ffffffffffffffff81111561456f5761456e61439e565b5b61457b8b828c016144f1565b975050604089013567ffffffffffffffff81111561459c5761459b61439e565b5b6145a88b828c016144f1565b965050606089013567ffffffffffffffff8111156145c9576145c861439e565b5b6145d58b828c016144f1565b955050608089013567ffffffffffffffff8111156145f6576145f561439e565b5b6146028b828c016144f1565b94505060a089013567ffffffffffffffff8111156146235761462261439e565b5b61462f8b828c016144f1565b93505060c089013567ffffffffffffffff8111156146505761464f61439e565b5b61465c8b828c016144f1565b92505060e089013567ffffffffffffffff81111561467d5761467c61439e565b5b6146898b828c016144f1565b9150509295985092959890939650565b600073ffffffffffffffffffffffffffffffffffffffff82169050919050565b60006146c482614699565b9050919050565b6146d4816146b9565b81146146df57600080fd5b50565b6000813590506146f1816146cb565b92915050565b60006020828403121561470d5761470c614399565b5b600061471b848285016146e2565b91505092915050565b61472d816146b9565b82525050565b61473c816143a3565b82525050565b600081519050919050565b600082825260208201905092915050565b60005b8381101561477c578082015181840152602081019050614761565b60008484015250505050565b600061479382614742565b61479d818561474d565b93506147ad81856020860161475e565b6147b6816143e3565b840191505092915050565b60008115159050919050565b6147d6816147c1565b82525050565b600081519050919050565b600082825260208201905092915050565b6000819050602082019050919050565b60006148148383614724565b60208301905092915050565b6000602082019050919050565b6000614838826147dc565b61484281856147e7565b935061484d836147f8565b8060005b8381101561487e5781516148658882614808565b975061487083614820565b925050600181019050614851565b5085935050505092915050565b600060808301600083015184820360008601526148a88282614788565b915050602083015184820360208601526148c28282614788565b915050604083015184820360408601526148dc8282614788565b91505060608301516148f16060860182614733565b508091505092915050565b6000610140830160008301516149156000860182614724565b5060208301516149286020860182614733565b50604083015184820360408601526149408282614788565b91505060608301516149556060860182614733565b506080830151848203608086015261496d8282614788565b91505060a083015161498260a0860182614733565b5060c083015161499560c08601826147cd565b5060e083015184820360e08601526149ad828261482d565b9150506101008301518482036101008601526149c98282614788565b9150506101208301518482036101208601526149e5828261488b565b9150508091505092915050565b60006020820190508181036000830152614a0c81846148fc565b905092915050565b60008060008060808587031215614a2e57614a2d614399565b5b600085013567ffffffffffffffff811115614a4c57614a4b61439e565b5b614a58878288016144f1565b945050602085013567ffffffffffffffff811115614a7957614a7861439e565b5b614a85878288016144f1565b935050604085013567ffffffffffffffff811115614aa657614aa561439e565b5b614ab2878288016144f1565b9250506060614ac3878288016143c4565b91505092959194509250565b614ad8816143a3565b82525050565b6000602082019050614af36000830184614acf565b92915050565b600081519050919050565b600082825260208201905092915050565b6000819050602082019050919050565b6000614b318383614788565b905092915050565b6000602082019050919050565b6000614b5182614af9565b614b5b8185614b04565b935083602082028501614b6d85614b15565b8060005b85811015614ba95784840389528151614b8a8582614b25565b9450614b9583614b39565b925060208a01995050600181019050614b71565b50829750879550505050505092915050565b600061018083016000830151614bd46000860182614724565b506020830151614be76020860182614733565b5060408301518482036040860152614bff8282614788565b91505060608301518482036060860152614c198282614788565b9150506080830151614c2e6080860182614733565b5060a0830151614c4160a0860182614733565b5060c0830151614c5460c0860182614733565b5060e083015184820360e0860152614c6c828261482d565b915050610100830151848203610100860152614c88828261482d565b915050610120830151614c9f6101208601826147cd565b50610140830151848203610140860152614cb98282614b46565b915050610160830151848203610160860152614cd58282614788565b9150508091505092915050565b60006020820190508181036000830152614cfc8184614bbb565b905092915050565b600060208284031215614d1a57614d19614399565b5b600082013567ffffffffffffffff811115614d3857614d3761439e565b5b614d44848285016144f1565b91505092915050565b600082825260208201905092915050565b6000614d6982614742565b614d738185614d4d565b9350614d8381856020860161475e565b614d8c816143e3565b840191505092915050565b60006080820190508181036000830152614db18187614d5e565b90508181036020830152614dc58186614d5e565b90508181036040830152614dd98185614d5e565b9050614de86060830184614acf565b95945050505050565b600080600080600060a08688031215614e0d57614e0c614399565b5b6000614e1b888289016143c4565b955050602086013567ffffffffffffffff811115614e3c57614e3b61439e565b5b614e48888289016144f1565b9450506040614e59888289016143c4565b935050606086013567ffffffffffffffff811115614e7a57614e7961439e565b5b614e86888289016144f1565b9250506080614e97888289016143c4565b9150509295509295909350565b600061014083016000830151614ebd6000860182614724565b506020830151614ed06020860182614733565b5060408301518482036040860152614ee88282614788565b9150506060830151614efd6060860182614733565b5060808301518482036080860152614f158282614788565b91505060a0830151614f2a60a0860182614733565b5060c0830151614f3d60c08601826147cd565b5060e083015184820360e0860152614f55828261482d565b915050610100830151848203610100860152614f718282614788565b915050610120830151848203610120860152614f8d8282614b46565b9150508091505092915050565b60006020820190508181036000830152614fb48184614ea4565b905092915050565b60008060408385031215614fd357614fd2614399565b5b6000614fe1858286016146e2565b925050602083013567ffffffffffffffff8111156150025761500161439e565b5b61500e858286016144f1565b9150509250929050565b6000610100830160008301516150316000860182614733565b50602083015184820360208601526150498282614788565b915050604083015184820360408601526150638282614788565b9150506060830151848203606086015261507d8282614788565b915050608083015184820360808601526150978282614788565b91505060a083015184820360a08601526150b18282614788565b91505060c083015184820360c08601526150cb8282614788565b91505060e083015184820360e08601526150e58282614788565b9150508091505092915050565b60006101608301600083015161510b6000860182614724565b50602083015161511e6020860182614733565b50604083015184820360408601526151368282614788565b915050606083015184820360608601526151508282614788565b91505060808301516151656080860182614733565b5060a083015184820360a086015261517d8282614788565b91505060c083015161519260c08601826147cd565b5060e083015184820360e08601526151aa8282614788565b9150506101008301518482036101008601526151c68282614b46565b9150506101208301518482036101208601526151e28282615018565b9150506101408301518482036101408601526151fe828261482d565b9150508091505092915050565b6000602082019050818103600083015261522581846150f2565b905092915050565b600080600080600060a0868803121561524957615248614399565b5b6000615257888289016143c4565b955050602086013567ffffffffffffffff8111156152785761527761439e565b5b615284888289016144f1565b945050604086013567ffffffffffffffff8111156152a5576152a461439e565b5b6152b1888289016144f1565b93505060606152c2888289016143c4565b925050608086013567ffffffffffffffff8111156152e3576152e261439e565b5b6152ef888289016144f1565b9150509295509295909350565b6000610140830160008301516153156000860182614724565b5060208301516153286020860182614733565b50604083015184820360408601526153408282614788565b91505060608301516153556060860182614733565b506080830151848203608086015261536d8282614788565b91505060a083015161538260a0860182614733565b5060c083015161539560c08601826147cd565b5060e083015184820360e08601526153ad828261482d565b9150506101008301518482036101008601526153c98282614b46565b9150506101208301518482036101208601526153e58282614788565b9150508091505092915050565b6000602082019050818103600083015261540c81846152fc565b905092915050565b60008060008060008060c0878903121561543157615430614399565b5b600061543f89828a016143c4565b965050602087013567ffffffffffffffff8111156154605761545f61439e565b5b61546c89828a016144f1565b955050604087013567ffffffffffffffff81111561548d5761548c61439e565b5b61549989828a016144f1565b94505060606154aa89828a016143c4565b93505060806154bb89828a016143c4565b92505060a06154cc89828a016143c4565b9150509295509295509295565b7f4e487b7100000000000000000000000000000000000000000000000000000000600052602260045260246000fd5b6000600282049050600182168061552057607f821691505b602082108103615533576155326154d9565b5b50919050565b60008190508160005260206000209050919050565b60006020601f8301049050919050565b600082821b905092915050565b60006008830261559b7fffffffffffffffffffffffffffffffffffffffffffffffffffffffffffffffff8261555e565b6155a5868361555e565b95508019841693508086168417925050509392505050565b6000819050919050565b60006155e26155dd6155d8846143a3565b6155bd565b6143a3565b9050919050565b6000819050919050565b6155fc836155c7565b615610615608826155e9565b84845461556b565b825550505050565b600090565b615625615618565b6156308184846155f3565b505050565b5b818110156156545761564960008261561d565b600181019050615636565b5050565b601f8211156156995761566a81615539565b6156738461554e565b81016020851015615682578190505b61569661568e8561554e565b830182615635565b50505b505050565b600082821c905092915050565b60006156bc6000198460080261569e565b1980831691505092915050565b60006156d583836156ab565b9150826002028217905092915050565b6156ee82614742565b67ffffffffffffffff811115615707576157066143f4565b5b6157118254615508565b61571c828285615658565b600060209050601f83116001811461574f576000841561573d578287015190505b61574785826156c9565b8655506157af565b601f19841661575d86615539565b60005b8281101561578557848901518255600182019150602085019450602081019050615760565b868310156157a2578489015161579e601f8916826156ab565b8355505b6001600288020188555050505b505050505050565b7f506174686f6c6f676973747320646f65736e2774206578697374000000000000600082015250565b60006157ed601a83614d4d565b91506157f8826157b7565b602082019050919050565b6000602082019050818103600083015261581c816157e0565b9050919050565b7f4e487b7100000000000000000000000000000000000000000000000000000000600052602160045260246000fd5b7f446f63746f7220646f65736e2774206578697374000000000000000000000000600082015250565b6000615888601483614d4d565b915061589382615852565b602082019050919050565b600060208201905081810360008301526158b78161587b565b9050919050565b7f506174686f6c6f6769737420646f6573206e6f74206578697374000000000000600082015250565b60006158f4601a83614d4d565b91506158ff826158be565b602082019050919050565b60006020820190508181036000830152615923816158e7565b9050919050565b7f446f63746f722063616e207472616e736665722064617461206f6e6c7920706160008201527f74686f6c6f676973747320000000000000000000000000000000000000000000602082015250565b6000615986602b83614d4d565b91506159918261592a565b604082019050919050565b600060208201905081810360008301526159b581615979565b9050919050565b7f4e6f206163636f756e7400000000000000000000000000000000000000000000600082015250565b60006159f2600a83614d4d565b91506159fd826159bc565b602082019050919050565b60006020820190508181036000830152615a21816159e5565b9050919050565b7f596f7520616c72656164792063726561746520796f75722070726f66696c6500600082015250565b6000615a5e601f83614d4d565b9150615a6982615a28565b602082019050919050565b60006020820190508181036000830152615a8d81615a51565b9050919050565b7f506861726d61637920436f6d70616e69657320646f65736e2774206578697374600082015250565b6000615aca602083614d4d565b9150615ad582615a94565b602082019050919050565b60006020820190508181036000830152615af981615abd565b9050919050565b7f50617469656e7420646f65736e27742065786973740000000000000000000000600082015250565b6000615b36601583614d4d565b9150615b4182615b00565b602082019050919050565b60006020820190508181036000830152615b6581615b29565b9050919050565b7f4d65646963616c205265736561726368204c616220646f65736e27742065786960008201527f7374000000000000000000000000000000000000000000000000000000000000602082015250565b6000615bc8602283614d4d565b9150615bd382615b6c565b604082019050919050565b60006020820190508181036000830152615bf781615bbb565b9050919050565b7f506861726d61637920436f6d70616e7920646f65736e27742065786973740000600082015250565b6000615c34601e83614d4d565b9150615c3f82615bfe565b602082019050919050565b60006020820190508181036000830152615c6381615c27565b9050919050565b7f50617469656e742063616e207472616e73666572206461746120776974686f7560008201527f7420706174686f6c6f6769737473200000000000000000000000000000000000602082015250565b6000615cc6602f83614d4d565b9150615cd182615c6a565b604082019050919050565b60006020820190508181036000830152615cf581615cb9565b9050919050565b7f50617469656e7420646f6573206e6f7420657869737400000000000000000000600082015250565b6000615d32601683614d4d565b9150615d3d82615cfc565b602082019050919050565b60006020820190508181036000830152615d6181615d25565b9050919050565b7f506174686f6c6f6769737420646f65736e277420657869737400000000000000600082015250565b6000615d9e601983614d4d565b9150615da982615d68565b602082019050919050565b60006020820190508181036000830152615dcd81615d91565b9050919050565b7f706174686f6c6f67697374732063616e207472616e736665722064617461206f60008201527f6e6c7920646f63746f7200000000000000000000000000000000000000000000602082015250565b6000615e30602a83614d4d565b9150615e3b82615dd4565b604082019050919050565b60006020820190508181036000830152615e5f81615e23565b9050919050565b7f596f75206861766520616c7265616479206372656174656420796f757220707260008201527f6f66696c65000000000000000000000000000000000000000000000000000000602082015250565b6000615ec2602583614d4d565b9150615ecd82615e66565b604082019050919050565b60006020820190508181036000830152615ef181615eb5565b905091905056fea2646970667358221220fb246d4b286824ca9dff30b033eb93541576734be27ab9377634457a74b947b364736f6c63430008110033",
  "linkReferences": {},
  "deployedLinkReferences": {}
}