{
  "_format": "hh-sol-artifact-1",
  "contractName": "MedicalData",
  "sourceName": "contracts/patientDataManagement.sol",
  "abi": [
    {
      "inputs": [
        {
          "internalType": "address",
          "name": "useraddress",
          "type": "address"
        }
      ],
      "name": "ConnectedAccountType",
      "outputs": [
        {
          "internalType": "uint256",
          "name": "",
          "type": "uint256"
        }
      ],
      "stateMutability": "view",
      "type": "function"
    },
    {
      "inputs": [
        {
          "internalType": "address",
          "name": "",
          "type": "address"
        }
      ],
      "name": "accounts",
      "outputs": [
        {
          "internalType": "uint256",
          "name": "",
          "type": "uint256"
        }
      ],
      "stateMutability": "view",
      "type": "function"
    },
    {
      "inputs": [
        {
          "internalType": "string",
          "name": "report",
          "type": "string"
        }
      ],
      "name": "addLabReport",
      "outputs": [],
      "stateMutability": "nonpayable",
      "type": "function"
    },
    {
      "inputs": [
        {
          "internalType": "address",
          "name": "_user",
          "type": "address"
        },
        {
          "internalType": "string",
          "name": "url",
          "type": "string"
        }
      ],
      "name": "addPrescription",
      "outputs": [],
      "stateMutability": "nonpayable",
      "type": "function"
    },
    {
      "inputs": [
        {
          "internalType": "string",
          "name": "medichine",
          "type": "string"
        }
      ],
      "name": "addTopMedichine",
      "outputs": [],
      "stateMutability": "nonpayable",
      "type": "function"
    },
    {
      "inputs": [
        {
          "internalType": "address",
          "name": "_doctorAddress",
          "type": "address"
        }
      ],
      "name": "getDoctor",
      "outputs": [
        {
          "components": [
            {
              "internalType": "address",
              "name": "DoctorAddress",
              "type": "address"
            },
            {
              "internalType": "uint256",
              "name": "doctorID",
              "type": "uint256"
            },
            {
              "internalType": "string",
              "name": "name",
              "type": "string"
            },
            {
              "internalType": "string",
              "name": "specialty",
              "type": "string"
            },
            {
              "internalType": "uint256",
              "name": "consultationFee",
              "type": "uint256"
            },
            {
              "internalType": "uint256",
              "name": "BMDCNumber",
              "type": "uint256"
            },
            {
              "internalType": "uint256",
              "name": "yearOfExperience",
              "type": "uint256"
            },
            {
              "internalType": "address[]",
              "name": "PatientToDoctor",
              "type": "address[]"
            },
            {
              "internalType": "address[]",
              "name": "PathologiestToDoctor",
              "type": "address[]"
            },
            {
              "internalType": "bool",
              "name": "isAdded",
              "type": "bool"
            },
            {
              "internalType": "address[]",
              "name": "TreatedPatient",
              "type": "address[]"
            },
            {
              "internalType": "string",
              "name": "userType",
              "type": "string"
            }
          ],
          "internalType": "struct MedicalData.Doctor",
          "name": "",
          "type": "tuple"
        }
      ],
      "stateMutability": "view",
      "type": "function"
    },
    {
      "inputs": [
        {
          "internalType": "address",
          "name": "_labAddress",
          "type": "address"
        }
      ],
      "name": "getMedicalResearchLab",
      "outputs": [
        {
          "components": [
            {
              "internalType": "address",
              "name": "labAddress",
              "type": "address"
            },
            {
              "internalType": "uint256",
              "name": "labID",
              "type": "uint256"
            },
            {
              "internalType": "string",
              "name": "name",
              "type": "string"
            },
            {
              "internalType": "uint256",
              "name": "licenseID",
              "type": "uint256"
            },
            {
              "internalType": "string",
              "name": "researchArea",
              "type": "string"
            },
            {
              "internalType": "uint256",
              "name": "labRating",
              "type": "uint256"
            },
            {
              "internalType": "bool",
              "name": "isAdded",
              "type": "bool"
            },
            {
              "internalType": "address[]",
              "name": "PatientToMedRcLab",
              "type": "address[]"
            },
            {
              "internalType": "string[]",
              "name": "PatientLabReport",
              "type": "string[]"
            },
            {
              "internalType": "string",
              "name": "userType",
              "type": "string"
            }
          ],
          "internalType": "struct MedicalData.MedicalResearchLab",
          "name": "",
          "type": "tuple"
        }
      ],
      "stateMutability": "view",
      "type": "function"
    },
    {
      "inputs": [
        {
          "internalType": "address",
          "name": "_pathologistAddress",
          "type": "address"
        }
      ],
      "name": "getPathologist",
      "outputs": [
        {
          "components": [
            {
              "internalType": "address",
              "name": "pathologistAddress",
              "type": "address"
            },
            {
              "internalType": "uint256",
              "name": "pathologistID",
              "type": "uint256"
            },
            {
              "internalType": "string",
              "name": "name",
              "type": "string"
            },
            {
              "internalType": "uint256",
              "name": "licenseNumber",
              "type": "uint256"
            },
            {
              "internalType": "string",
              "name": "specializationArea",
              "type": "string"
            },
            {
              "internalType": "uint256",
              "name": "totalExperience",
              "type": "uint256"
            },
            {
              "internalType": "bool",
              "name": "isAdded",
              "type": "bool"
            },
            {
              "internalType": "address[]",
              "name": "PatientToPathologiest",
              "type": "address[]"
            },
            {
              "internalType": "string",
              "name": "userType",
              "type": "string"
            },
            {
              "components": [
                {
                  "internalType": "string",
                  "name": "Allergies",
                  "type": "string"
                },
                {
                  "internalType": "string",
                  "name": "Cancer",
                  "type": "string"
                },
                {
                  "internalType": "string",
                  "name": "HormoneProblem",
                  "type": "string"
                },
                {
                  "internalType": "uint256",
                  "name": "DiabatiesLevel",
                  "type": "uint256"
                }
              ],
              "internalType": "struct MedicalData.PathologistTest",
              "name": "pathologistTest",
              "type": "tuple"
            }
          ],
          "internalType": "struct MedicalData.Pathologist",
          "name": "",
          "type": "tuple"
        }
      ],
      "stateMutability": "view",
      "type": "function"
    },
    {
      "inputs": [
        {
          "internalType": "address",
          "name": "_patientAddress",
          "type": "address"
        }
      ],
      "name": "getPatient",
      "outputs": [
        {
          "components": [
            {
              "internalType": "address",
              "name": "patientAddress",
              "type": "address"
            },
            {
              "internalType": "uint256",
              "name": "patientID",
              "type": "uint256"
            },
            {
              "internalType": "string",
              "name": "name",
              "type": "string"
            },
            {
              "internalType": "string",
              "name": "gender",
              "type": "string"
            },
            {
              "internalType": "uint256",
              "name": "age",
              "type": "uint256"
            },
            {
              "internalType": "string",
              "name": "location",
              "type": "string"
            },
            {
              "internalType": "bool",
              "name": "isAdded",
              "type": "bool"
            },
            {
              "internalType": "string",
              "name": "userType",
              "type": "string"
            },
            {
              "internalType": "string[]",
              "name": "imgUrl",
              "type": "string[]"
            },
            {
              "components": [
                {
                  "internalType": "uint256",
                  "name": "height",
                  "type": "uint256"
                },
                {
                  "internalType": "string",
                  "name": "Blood",
                  "type": "string"
                },
                {
                  "internalType": "string",
                  "name": "PreviousDiseases",
                  "type": "string"
                },
                {
                  "internalType": "string",
                  "name": "Medicinedrugs",
                  "type": "string"
                },
                {
                  "internalType": "string",
                  "name": "BadHabits",
                  "type": "string"
                },
                {
                  "internalType": "string",
                  "name": "ChronicDiseases",
                  "type": "string"
                },
                {
                  "internalType": "string",
                  "name": "HealthAllergies",
                  "type": "string"
                },
                {
                  "internalType": "string",
                  "name": "BirthDefects",
                  "type": "string"
                }
              ],
              "internalType": "struct MedicalData.PatientPersonalData",
              "name": "patientPersonalData",
              "type": "tuple"
            },
            {
              "internalType": "address[]",
              "name": "personalDoctor",
              "type": "address[]"
            }
          ],
          "internalType": "struct MedicalData.Patient",
          "name": "",
          "type": "tuple"
        }
      ],
      "stateMutability": "view",
      "type": "function"
    },
    {
      "inputs": [
        {
          "internalType": "address",
          "name": "_pharmacyCompanyAddress",
          "type": "address"
        }
      ],
      "name": "getPharmacyCompany",
      "outputs": [
        {
          "components": [
            {
              "internalType": "address",
              "name": "pharmacyCompanyAddress",
              "type": "address"
            },
            {
              "internalType": "uint256",
              "name": "companyID",
              "type": "uint256"
            },
            {
              "internalType": "string",
              "name": "name",
              "type": "string"
            },
            {
              "internalType": "uint256",
              "name": "licenseID",
              "type": "uint256"
            },
            {
              "internalType": "string",
              "name": "productInformation",
              "type": "string"
            },
            {
              "internalType": "uint256",
              "name": "pharmacyRating",
              "type": "uint256"
            },
            {
              "internalType": "bool",
              "name": "isAdded",
              "type": "bool"
            },
            {
              "internalType": "address[]",
              "name": "PatientToPharmacy",
              "type": "address[]"
            },
            {
              "internalType": "string",
              "name": "userType",
              "type": "string"
            },
            {
              "internalType": "string[]",
              "name": "TopMedichine",
              "type": "string[]"
            }
          ],
          "internalType": "struct MedicalData.PharmacyCompany",
          "name": "",
          "type": "tuple"
        }
      ],
      "stateMutability": "view",
      "type": "function"
    },
    {
      "inputs": [
        {
          "internalType": "uint256",
          "name": "doctorID",
          "type": "uint256"
        },
        {
          "internalType": "string",
          "name": "name",
          "type": "string"
        },
        {
          "internalType": "string",
          "name": "specialty",
          "type": "string"
        },
        {
          "internalType": "uint256",
          "name": "consultationFee",
          "type": "uint256"
        },
        {
          "internalType": "uint256",
          "name": "BMDCNumber",
          "type": "uint256"
        },
        {
          "internalType": "uint256",
          "name": "yearOfExperience",
          "type": "uint256"
        }
      ],
      "name": "setDoctor",
      "outputs": [],
      "stateMutability": "nonpayable",
      "type": "function"
    },
    {
      "inputs": [
        {
          "internalType": "uint256",
          "name": "labID",
          "type": "uint256"
        },
        {
          "internalType": "string",
          "name": "name",
          "type": "string"
        },
        {
          "internalType": "uint256",
          "name": "licenseID",
          "type": "uint256"
        },
        {
          "internalType": "string",
          "name": "researchArea",
          "type": "string"
        },
        {
          "internalType": "uint256",
          "name": "labRating",
          "type": "uint256"
        }
      ],
      "name": "setMedicalResearchLab",
      "outputs": [],
      "stateMutability": "nonpayable",
      "type": "function"
    },
    {
      "inputs": [
        {
          "internalType": "uint256",
          "name": "pathologistID",
          "type": "uint256"
        },
        {
          "internalType": "string",
          "name": "name",
          "type": "string"
        },
        {
          "internalType": "uint256",
          "name": "licenseNumber",
          "type": "uint256"
        },
        {
          "internalType": "string",
          "name": "specializationArea",
          "type": "string"
        },
        {
          "internalType": "uint256",
          "name": "totalExperience",
          "type": "uint256"
        }
      ],
      "name": "setPathologist",
      "outputs": [],
      "stateMutability": "nonpayable",
      "type": "function"
    },
    {
      "inputs": [
        {
          "internalType": "string",
          "name": "allergies",
          "type": "string"
        },
        {
          "internalType": "string",
          "name": "cancer",
          "type": "string"
        },
        {
          "internalType": "string",
          "name": "hormoneProblem",
          "type": "string"
        },
        {
          "internalType": "uint256",
          "name": "diabetesLevel",
          "type": "uint256"
        }
      ],
      "name": "setPathologistTest",
      "outputs": [],
      "stateMutability": "nonpayable",
      "type": "function"
    },
    {
      "inputs": [
        {
          "internalType": "uint256",
          "name": "patientID",
          "type": "uint256"
        },
        {
          "internalType": "string",
          "name": "name",
          "type": "string"
        },
        {
          "internalType": "string",
          "name": "gender",
          "type": "string"
        },
        {
          "internalType": "uint256",
          "name": "age",
          "type": "uint256"
        },
        {
          "internalType": "string",
          "name": "location",
          "type": "string"
        }
      ],
      "name": "setPatient",
      "outputs": [],
      "stateMutability": "nonpayable",
      "type": "function"
    },
    {
      "inputs": [
        {
          "internalType": "uint256",
          "name": "height",
          "type": "uint256"
        },
        {
          "internalType": "string",
          "name": "blood",
          "type": "string"
        },
        {
          "internalType": "string",
          "name": "previousDiseases",
          "type": "string"
        },
        {
          "internalType": "string",
          "name": "medicineDrugs",
          "type": "string"
        },
        {
          "internalType": "string",
          "name": "badHabits",
          "type": "string"
        },
        {
          "internalType": "string",
          "name": "chronicDiseases",
          "type": "string"
        },
        {
          "internalType": "string",
          "name": "healthAllergies",
          "type": "string"
        },
        {
          "internalType": "string",
          "name": "birthDefects",
          "type": "string"
        }
      ],
      "name": "setPatientPersonalData",
      "outputs": [],
      "stateMutability": "nonpayable",
      "type": "function"
    },
    {
      "inputs": [
        {
          "internalType": "uint256",
          "name": "companyID",
          "type": "uint256"
        },
        {
          "internalType": "string",
          "name": "name",
          "type": "string"
        },
        {
          "internalType": "uint256",
          "name": "licenseID",
          "type": "uint256"
        },
        {
          "internalType": "string",
          "name": "productInformation",
          "type": "string"
        },
        {
          "internalType": "uint256",
          "name": "pharmacyRating",
          "type": "uint256"
        }
      ],
      "name": "setPharmacyCompany",
      "outputs": [],
      "stateMutability": "nonpayable",
      "type": "function"
    },
    {
      "inputs": [
        {
          "internalType": "address",
          "name": "useraddress",
          "type": "address"
        }
      ],
      "name": "transferDataByDoctor",
      "outputs": [],
      "stateMutability": "nonpayable",
      "type": "function"
    },
    {
      "inputs": [
        {
          "internalType": "address",
          "name": "useraddress",
          "type": "address"
        }
      ],
      "name": "transferDataByPathologist",
      "outputs": [],
      "stateMutability": "nonpayable",
      "type": "function"
    },
    {
      "inputs": [
        {
          "internalType": "address",
          "name": "useraddress",
          "type": "address"
        }
      ],
      "name": "transferDataByPatient",
      "outputs": [],
      "stateMutability": "nonpayable",
      "type": "function"
    }
  ],
  "bytecode": "0x608060405234801561001057600080fd5b50615c0c80620000216000396000f3fe608060405234801561001057600080fd5b506004361061012c5760003560e01c80637ddd3f05116100ad578063d10b07d811610071578063d10b07d81461034d578063d16570d314610369578063d23fb52c14610385578063ea8c9e04146103a1578063f4bffd5a146103d15761012c565b80637ddd3f05146102995780639059229b146102b5578063a3e12bc0146102e5578063a9d0b46a14610301578063b5368e201461031d5761012c565b80632f04e064116100f45780632f04e064146101e557806339000b24146102155780635e5c06e2146102315780636757711b146102615780636bc071a51461027d5761012c565b8063100d1a7f1461013157806316ecfa841461014d5780632545526d1461017d5780632947f2bc146101995780632a1ebd01146101b5575b600080fd5b61014b60048036038101906101469190614290565b6103ed565b005b61016760048036038101906101629190614468565b6104da565b6040516101749190614763565b60405180910390f35b61019760048036038101906101929190614468565b610a6a565b005b6101b360048036038101906101ae9190614785565b610d4a565b005b6101cf60048036038101906101ca9190614468565b610ddf565b6040516101dc919061484f565b60405180910390f35b6101ff60048036038101906101fa9190614468565b610f11565b60405161020c9190614991565b60405180910390f35b61022f600480360381019061022a91906149b3565b6113f3565b005b61024b60048036038101906102469190614468565b61146b565b604051610258919061484f565b60405180910390f35b61027b600480360381019061027691906149fc565b611483565b005b610297600480360381019061029291906149b3565b611694565b005b6102b360048036038101906102ae91906149fc565b61170c565b005b6102cf60048036038101906102ca9190614468565b61191d565b6040516102dc9190614c67565b60405180910390f35b6102ff60048036038101906102fa9190614c89565b611db2565b005b61031b60048036038101906103169190614468565b6121ba565b005b61033760048036038101906103329190614468565b6127b2565b6040516103449190614ed8565b60405180910390f35b610367600480360381019061036291906149fc565b6130ec565b005b610383600480360381019061037e9190614468565b6132fd565b005b61039f600480360381019061039a9190614efa565b613591565b005b6103bb60048036038101906103b69190614468565b6137ab565b6040516103c891906150bf565b60405180910390f35b6103eb60048036038101906103e691906150e1565b613c40565b005b6000600160003373ffffffffffffffffffffffffffffffffffffffff1673ffffffffffffffffffffffffffffffffffffffff16815260200190815260200160002090508881600901600001819055508781600901600101908161045091906153b2565b508681600901600201908161046591906153b2565b508581600901600301908161047a91906153b2565b508481600901600401908161048f91906153b2565b50838160090160050190816104a491906153b2565b50828160090160060190816104b991906153b2565b50818160090160070190816104ce91906153b2565b50505050505050505050565b6104e2613e5b565b600360008373ffffffffffffffffffffffffffffffffffffffff1673ffffffffffffffffffffffffffffffffffffffff16815260200190815260200160002060060160009054906101000a900460ff16610571576040517f08c379a0000000000000000000000000000000000000000000000000000000008152600401610568906154e1565b60405180910390fd5b600360008373ffffffffffffffffffffffffffffffffffffffff1673ffffffffffffffffffffffffffffffffffffffff168152602001908152602001600020604051806101400160405290816000820160009054906101000a900473ffffffffffffffffffffffffffffffffffffffff1673ffffffffffffffffffffffffffffffffffffffff1673ffffffffffffffffffffffffffffffffffffffff1681526020016001820154815260200160028201805461062c906151d5565b80601f0160208091040260200160405190810160405280929190818152602001828054610658906151d5565b80156106a55780601f1061067a576101008083540402835291602001916106a5565b820191906000526020600020905b81548152906001019060200180831161068857829003601f168201915b50505050508152602001600382015481526020016004820180546106c8906151d5565b80601f01602080910402602001604051908101604052809291908181526020018280546106f4906151d5565b80156107415780601f1061071657610100808354040283529160200191610741565b820191906000526020600020905b81548152906001019060200180831161072457829003601f168201915b50505050508152602001600582015481526020016006820160009054906101000a900460ff16151515158152602001600782018054806020026020016040519081016040528092919081815260200182805480156107f457602002820191906000526020600020905b8160009054906101000a900473ffffffffffffffffffffffffffffffffffffffff1673ffffffffffffffffffffffffffffffffffffffff16815260200190600101908083116107aa575b5050505050815260200160088201805461080d906151d5565b80601f0160208091040260200160405190810160405280929190818152602001828054610839906151d5565b80156108865780601f1061085b57610100808354040283529160200191610886565b820191906000526020600020905b81548152906001019060200180831161086957829003601f168201915b50505050508152602001600982016040518060800160405290816000820180546108af906151d5565b80601f01602080910402602001604051908101604052809291908181526020018280546108db906151d5565b80156109285780601f106108fd57610100808354040283529160200191610928565b820191906000526020600020905b81548152906001019060200180831161090b57829003601f168201915b50505050508152602001600182018054610941906151d5565b80601f016020809104026020016040519081016040528092919081815260200182805461096d906151d5565b80156109ba5780601f1061098f576101008083540402835291602001916109ba565b820191906000526020600020905b81548152906001019060200180831161099d57829003601f168201915b505050505081526020016002820180546109d3906151d5565b80601f01602080910402602001604051908101604052809291908181526020018280546109ff906151d5565b8015610a4c5780601f10610a2157610100808354040283529160200191610a4c565b820191906000526020600020905b815481529060010190602001808311610a2f57829003601f168201915b50505050508152602001600382015481525050815250509050919050565b60008060008373ffffffffffffffffffffffffffffffffffffffff1673ffffffffffffffffffffffffffffffffffffffff16815260200190815260200160002054905060016005811115610ac157610ac0615501565b5b600103610d4657600260003373ffffffffffffffffffffffffffffffffffffffff1673ffffffffffffffffffffffffffffffffffffffff16815260200190815260200160002060090160009054906101000a900460ff16610b57576040517f08c379a0000000000000000000000000000000000000000000000000000000008152600401610b4e9061557c565b60405180910390fd5b60026005811115610b6b57610b6a615501565b5b81148015610b8c575060016005811115610b8857610b87615501565b5b6001145b15610d0a57600073ffffffffffffffffffffffffffffffffffffffff16600360008473ffffffffffffffffffffffffffffffffffffffff1673ffffffffffffffffffffffffffffffffffffffff16815260200190815260200160002060000160009054906101000a900473ffffffffffffffffffffffffffffffffffffffff1673ffffffffffffffffffffffffffffffffffffffff1603610c62576040517f08c379a0000000000000000000000000000000000000000000000000000000008152600401610c59906155e8565b60405180910390fd5b600360008373ffffffffffffffffffffffffffffffffffffffff1673ffffffffffffffffffffffffffffffffffffffff168152602001908152602001600020600701339080600181540180825580915050600190039060005260206000200160009091909190916101000a81548173ffffffffffffffffffffffffffffffffffffffff021916908373ffffffffffffffffffffffffffffffffffffffff160217905550610d45565b6040517f08c379a0000000000000000000000000000000000000000000000000000000008152600401610d3c9061567a565b60405180910390fd5b5b5050565b6000600360003373ffffffffffffffffffffffffffffffffffffffff1673ffffffffffffffffffffffffffffffffffffffff168152602001908152602001600020905084816009016000019081610da191906153b2565b5083816009016001019081610db691906153b2565b5082816009016002019081610dcb91906153b2565b508181600901600301819055505050505050565b6000806000808473ffffffffffffffffffffffffffffffffffffffff1673ffffffffffffffffffffffffffffffffffffffff16815260200190815260200160002054905060016005811115610e3757610e36615501565b5b8103610e465780915050610f0c565b600580811115610e5957610e58615501565b5b8103610e685780915050610f0c565b60026005811115610e7c57610e7b615501565b5b8103610e8b5780915050610f0c565b60036005811115610e9f57610e9e615501565b5b8103610eae5780915050610f0c565b60046005811115610ec257610ec1615501565b5b8103610ed15780915050610f0c565b6040517f08c379a0000000000000000000000000000000000000000000000000000000008152600401610f03906156e6565b60405180910390fd5b919050565b610f19613ecc565b600260008373ffffffffffffffffffffffffffffffffffffffff1673ffffffffffffffffffffffffffffffffffffffff16815260200190815260200160002060090160009054906101000a900460ff16610fa8576040517f08c379a0000000000000000000000000000000000000000000000000000000008152600401610f9f9061557c565b60405180910390fd5b600260008373ffffffffffffffffffffffffffffffffffffffff1673ffffffffffffffffffffffffffffffffffffffff168152602001908152602001600020604051806101800160405290816000820160009054906101000a900473ffffffffffffffffffffffffffffffffffffffff1673ffffffffffffffffffffffffffffffffffffffff1673ffffffffffffffffffffffffffffffffffffffff16815260200160018201548152602001600282018054611063906151d5565b80601f016020809104026020016040519081016040528092919081815260200182805461108f906151d5565b80156110dc5780601f106110b1576101008083540402835291602001916110dc565b820191906000526020600020905b8154815290600101906020018083116110bf57829003601f168201915b505050505081526020016003820180546110f5906151d5565b80601f0160208091040260200160405190810160405280929190818152602001828054611121906151d5565b801561116e5780601f106111435761010080835404028352916020019161116e565b820191906000526020600020905b81548152906001019060200180831161115157829003601f168201915b505050505081526020016004820154815260200160058201548152602001600682015481526020016007820180548060200260200160405190810160405280929190818152602001828054801561121a57602002820191906000526020600020905b8160009054906101000a900473ffffffffffffffffffffffffffffffffffffffff1673ffffffffffffffffffffffffffffffffffffffff16815260200190600101908083116111d0575b50505050508152602001600882018054806020026020016040519081016040528092919081815260200182805480156112a857602002820191906000526020600020905b8160009054906101000a900473ffffffffffffffffffffffffffffffffffffffff1673ffffffffffffffffffffffffffffffffffffffff168152602001906001019080831161125e575b505050505081526020016009820160009054906101000a900460ff16151515158152602001600a820180548060200260200160405190810160405280929190818152602001828054801561135157602002820191906000526020600020905b8160009054906101000a900473ffffffffffffffffffffffffffffffffffffffff1673ffffffffffffffffffffffffffffffffffffffff1681526020019060010190808311611307575b50505050508152602001600b8201805461136a906151d5565b80601f0160208091040260200160405190810160405280929190818152602001828054611396906151d5565b80156113e35780601f106113b8576101008083540402835291602001916113e3565b820191906000526020600020905b8154815290600101906020018083116113c657829003601f168201915b5050505050815250509050919050565b600460003373ffffffffffffffffffffffffffffffffffffffff1673ffffffffffffffffffffffffffffffffffffffff1681526020019081526020016000206008018190806001815401808255809150506001900390600052602060002001600090919091909150908161146791906153b2565b5050565b60006020528060005260406000206000915090505481565b600033905060001515600360008373ffffffffffffffffffffffffffffffffffffffff1673ffffffffffffffffffffffffffffffffffffffff16815260200190815260200160002060060160009054906101000a900460ff1615151461151e576040517f08c379a000000000000000000000000000000000000000000000000000000000815260040161151590615752565b60405180910390fd5b6000600360008373ffffffffffffffffffffffffffffffffffffffff1673ffffffffffffffffffffffffffffffffffffffff1681526020019081526020016000209050818160000160006101000a81548173ffffffffffffffffffffffffffffffffffffffff021916908373ffffffffffffffffffffffffffffffffffffffff160217905550868160010181905550858160020190816115be91906153b2565b50848160030181905550838160040190816115d991906153b2565b5082816005018190555060026000808473ffffffffffffffffffffffffffffffffffffffff1673ffffffffffffffffffffffffffffffffffffffff1681526020019081526020016000208190555060018160060160006101000a81548160ff0219169083151502179055506040518060400160405280600b81526020017f506174686f6c6f6769737400000000000000000000000000000000000000000081525081600801908161168a91906153b2565b5050505050505050565b600560003373ffffffffffffffffffffffffffffffffffffffff1673ffffffffffffffffffffffffffffffffffffffff1681526020019081526020016000206009018190806001815401808255809150506001900390600052602060002001600090919091909150908161170891906153b2565b5050565b600033905060001515600560008373ffffffffffffffffffffffffffffffffffffffff1673ffffffffffffffffffffffffffffffffffffffff16815260200190815260200160002060060160009054906101000a900460ff161515146117a7576040517f08c379a000000000000000000000000000000000000000000000000000000000815260040161179e90615752565b60405180910390fd5b6000600560008373ffffffffffffffffffffffffffffffffffffffff1673ffffffffffffffffffffffffffffffffffffffff1681526020019081526020016000209050818160000160006101000a81548173ffffffffffffffffffffffffffffffffffffffff021916908373ffffffffffffffffffffffffffffffffffffffff1602179055508681600101819055508581600201908161184791906153b2565b508481600301819055508381600401908161186291906153b2565b5082816005018190555060018160060160006101000a81548160ff02191690831515021790555060046000808473ffffffffffffffffffffffffffffffffffffffff1673ffffffffffffffffffffffffffffffffffffffff168152602001908152602001600020819055506040518060400160405280601081526020017f506861726d61637920436f6d70616e790000000000000000000000000000000081525081600801908161191391906153b2565b5050505050505050565b611925613f45565b600560008373ffffffffffffffffffffffffffffffffffffffff1673ffffffffffffffffffffffffffffffffffffffff16815260200190815260200160002060060160009054906101000a900460ff166119b4576040517f08c379a00000000000000000000000000000000000000000000000000000000081526004016119ab906157be565b60405180910390fd5b600560008373ffffffffffffffffffffffffffffffffffffffff1673ffffffffffffffffffffffffffffffffffffffff168152602001908152602001600020604051806101400160405290816000820160009054906101000a900473ffffffffffffffffffffffffffffffffffffffff1673ffffffffffffffffffffffffffffffffffffffff1673ffffffffffffffffffffffffffffffffffffffff16815260200160018201548152602001600282018054611a6f906151d5565b80601f0160208091040260200160405190810160405280929190818152602001828054611a9b906151d5565b8015611ae85780601f10611abd57610100808354040283529160200191611ae8565b820191906000526020600020905b815481529060010190602001808311611acb57829003601f168201915b5050505050815260200160038201548152602001600482018054611b0b906151d5565b80601f0160208091040260200160405190810160405280929190818152602001828054611b37906151d5565b8015611b845780601f10611b5957610100808354040283529160200191611b84565b820191906000526020600020905b815481529060010190602001808311611b6757829003601f168201915b50505050508152602001600582015481526020016006820160009054906101000a900460ff1615151515815260200160078201805480602002602001604051908101604052809291908181526020018280548015611c3757602002820191906000526020600020905b8160009054906101000a900473ffffffffffffffffffffffffffffffffffffffff1673ffffffffffffffffffffffffffffffffffffffff1681526020019060010190808311611bed575b50505050508152602001600882018054611c50906151d5565b80601f0160208091040260200160405190810160405280929190818152602001828054611c7c906151d5565b8015611cc95780601f10611c9e57610100808354040283529160200191611cc9565b820191906000526020600020905b815481529060010190602001808311611cac57829003601f168201915b5050505050815260200160098201805480602002602001604051908101604052809291908181526020016000905b82821015611da3578382906000526020600020018054611d16906151d5565b80601f0160208091040260200160405190810160405280929190818152602001828054611d42906151d5565b8015611d8f5780601f10611d6457610100808354040283529160200191611d8f565b820191906000526020600020905b815481529060010190602001808311611d7257829003601f168201915b505050505081526020019060010190611cf7565b50505050815250509050919050565b60016005811115611dc657611dc5615501565b5b6000803373ffffffffffffffffffffffffffffffffffffffff1673ffffffffffffffffffffffffffffffffffffffff168152602001908152602001600020540361205957600260003373ffffffffffffffffffffffffffffffffffffffff1673ffffffffffffffffffffffffffffffffffffffff16815260200190815260200160002060090160009054906101000a900460ff16611e99576040517f08c379a0000000000000000000000000000000000000000000000000000000008152600401611e909061557c565b60405180910390fd5b600260003373ffffffffffffffffffffffffffffffffffffffff1673ffffffffffffffffffffffffffffffffffffffff168152602001908152602001600020600a01829080600181540180825580915050600190039060005260206000200160009091909190916101000a81548173ffffffffffffffffffffffffffffffffffffffff021916908373ffffffffffffffffffffffffffffffffffffffff160217905550600160008373ffffffffffffffffffffffffffffffffffffffff1673ffffffffffffffffffffffffffffffffffffffff16815260200190815260200160002060080181908060018154018082558091505060019003906000526020600020016000909190919091509081611fb091906153b2565b50600160008373ffffffffffffffffffffffffffffffffffffffff1673ffffffffffffffffffffffffffffffffffffffff168152602001908152602001600020601101339080600181540180825580915050600190039060005260206000200160009091909190916101000a81548173ffffffffffffffffffffffffffffffffffffffff021916908373ffffffffffffffffffffffffffffffffffffffff1602179055506121b6565b60058081111561206c5761206b615501565b5b6000803373ffffffffffffffffffffffffffffffffffffffff1673ffffffffffffffffffffffffffffffffffffffff16815260200190815260200160002054036121b557600160003373ffffffffffffffffffffffffffffffffffffffff1673ffffffffffffffffffffffffffffffffffffffff16815260200190815260200160002060060160009054906101000a900460ff1661213f576040517f08c379a00000000000000000000000000000000000000000000000000000000081526004016121369061582a565b60405180910390fd5b600160003373ffffffffffffffffffffffffffffffffffffffff1673ffffffffffffffffffffffffffffffffffffffff168152602001908152602001600020600801819080600181540180825580915050600190039060005260206000200160009091909190915090816121b391906153b2565b505b5b5050565b60008060008373ffffffffffffffffffffffffffffffffffffffff1673ffffffffffffffffffffffffffffffffffffffff1681526020019081526020016000205490506005808111156122105761220f615501565b5b6005036127ae57600160003373ffffffffffffffffffffffffffffffffffffffff1673ffffffffffffffffffffffffffffffffffffffff16815260200190815260200160002060060160009054906101000a900460ff166122a6576040517f08c379a000000000000000000000000000000000000000000000000000000000815260040161229d9061582a565b60405180910390fd5b600160058111156122ba576122b9615501565b5b811480156122da57506005808111156122d6576122d5615501565b5b6005145b1561240c576000600260008473ffffffffffffffffffffffffffffffffffffffff1673ffffffffffffffffffffffffffffffffffffffff1681526020019081526020016000206005015403612364576040517f08c379a000000000000000000000000000000000000000000000000000000000815260040161235b9061557c565b60405180910390fd5b600260008373ffffffffffffffffffffffffffffffffffffffff1673ffffffffffffffffffffffffffffffffffffffff168152602001908152602001600020600701339080600181540180825580915050600190039060005260206000200160009091909190916101000a81548173ffffffffffffffffffffffffffffffffffffffff021916908373ffffffffffffffffffffffffffffffffffffffff1602179055506127ad565b600360058111156124205761241f615501565b5b81148015612440575060058081111561243c5761243b615501565b5b6005145b156125be57600073ffffffffffffffffffffffffffffffffffffffff16600460008473ffffffffffffffffffffffffffffffffffffffff1673ffffffffffffffffffffffffffffffffffffffff16815260200190815260200160002060000160009054906101000a900473ffffffffffffffffffffffffffffffffffffffff1673ffffffffffffffffffffffffffffffffffffffff1603612516576040517f08c379a000000000000000000000000000000000000000000000000000000000815260040161250d906158bc565b60405180910390fd5b600460008373ffffffffffffffffffffffffffffffffffffffff1673ffffffffffffffffffffffffffffffffffffffff168152602001908152602001600020600701339080600181540180825580915050600190039060005260206000200160009091909190916101000a81548173ffffffffffffffffffffffffffffffffffffffff021916908373ffffffffffffffffffffffffffffffffffffffff1602179055506127ac565b600460058111156125d2576125d1615501565b5b811480156125f257506005808111156125ee576125ed615501565b5b6005145b1561277057600073ffffffffffffffffffffffffffffffffffffffff16600560008473ffffffffffffffffffffffffffffffffffffffff1673ffffffffffffffffffffffffffffffffffffffff16815260200190815260200160002060000160009054906101000a900473ffffffffffffffffffffffffffffffffffffffff1673ffffffffffffffffffffffffffffffffffffffff16036126c8576040517f08c379a00000000000000000000000000000000000000000000000000000000081526004016126bf90615928565b60405180910390fd5b600560008373ffffffffffffffffffffffffffffffffffffffff1673ffffffffffffffffffffffffffffffffffffffff168152602001908152602001600020600701339080600181540180825580915050600190039060005260206000200160009091909190916101000a81548173ffffffffffffffffffffffffffffffffffffffff021916908373ffffffffffffffffffffffffffffffffffffffff1602179055506127ab565b6040517f08c379a00000000000000000000000000000000000000000000000000000000081526004016127a2906159ba565b60405180910390fd5b5b5b5b5050565b6127ba613fb0565b600160008373ffffffffffffffffffffffffffffffffffffffff1673ffffffffffffffffffffffffffffffffffffffff16815260200190815260200160002060060160009054906101000a900460ff16612849576040517f08c379a000000000000000000000000000000000000000000000000000000000815260040161284090615a26565b60405180910390fd5b600160008373ffffffffffffffffffffffffffffffffffffffff1673ffffffffffffffffffffffffffffffffffffffff168152602001908152602001600020604051806101600160405290816000820160009054906101000a900473ffffffffffffffffffffffffffffffffffffffff1673ffffffffffffffffffffffffffffffffffffffff1673ffffffffffffffffffffffffffffffffffffffff16815260200160018201548152602001600282018054612904906151d5565b80601f0160208091040260200160405190810160405280929190818152602001828054612930906151d5565b801561297d5780601f106129525761010080835404028352916020019161297d565b820191906000526020600020905b81548152906001019060200180831161296057829003601f168201915b50505050508152602001600382018054612996906151d5565b80601f01602080910402602001604051908101604052809291908181526020018280546129c2906151d5565b8015612a0f5780601f106129e457610100808354040283529160200191612a0f565b820191906000526020600020905b8154815290600101906020018083116129f257829003601f168201915b5050505050815260200160048201548152602001600582018054612a32906151d5565b80601f0160208091040260200160405190810160405280929190818152602001828054612a5e906151d5565b8015612aab5780601f10612a8057610100808354040283529160200191612aab565b820191906000526020600020905b815481529060010190602001808311612a8e57829003601f168201915b505050505081526020016006820160009054906101000a900460ff16151515158152602001600782018054612adf906151d5565b80601f0160208091040260200160405190810160405280929190818152602001828054612b0b906151d5565b8015612b585780601f10612b2d57610100808354040283529160200191612b58565b820191906000526020600020905b815481529060010190602001808311612b3b57829003601f168201915b5050505050815260200160088201805480602002602001604051908101604052809291908181526020016000905b82821015612c32578382906000526020600020018054612ba5906151d5565b80601f0160208091040260200160405190810160405280929190818152602001828054612bd1906151d5565b8015612c1e5780601f10612bf357610100808354040283529160200191612c1e565b820191906000526020600020905b815481529060010190602001808311612c0157829003601f168201915b505050505081526020019060010190612b86565b505050508152602001600982016040518061010001604052908160008201548152602001600182018054612c65906151d5565b80601f0160208091040260200160405190810160405280929190818152602001828054612c91906151d5565b8015612cde5780601f10612cb357610100808354040283529160200191612cde565b820191906000526020600020905b815481529060010190602001808311612cc157829003601f168201915b50505050508152602001600282018054612cf7906151d5565b80601f0160208091040260200160405190810160405280929190818152602001828054612d23906151d5565b8015612d705780601f10612d4557610100808354040283529160200191612d70565b820191906000526020600020905b815481529060010190602001808311612d5357829003601f168201915b50505050508152602001600382018054612d89906151d5565b80601f0160208091040260200160405190810160405280929190818152602001828054612db5906151d5565b8015612e025780601f10612dd757610100808354040283529160200191612e02565b820191906000526020600020905b815481529060010190602001808311612de557829003601f168201915b50505050508152602001600482018054612e1b906151d5565b80601f0160208091040260200160405190810160405280929190818152602001828054612e47906151d5565b8015612e945780601f10612e6957610100808354040283529160200191612e94565b820191906000526020600020905b815481529060010190602001808311612e7757829003601f168201915b50505050508152602001600582018054612ead906151d5565b80601f0160208091040260200160405190810160405280929190818152602001828054612ed9906151d5565b8015612f265780601f10612efb57610100808354040283529160200191612f26565b820191906000526020600020905b815481529060010190602001808311612f0957829003601f168201915b50505050508152602001600682018054612f3f906151d5565b80601f0160208091040260200160405190810160405280929190818152602001828054612f6b906151d5565b8015612fb85780601f10612f8d57610100808354040283529160200191612fb8565b820191906000526020600020905b815481529060010190602001808311612f9b57829003601f168201915b50505050508152602001600782018054612fd1906151d5565b80601f0160208091040260200160405190810160405280929190818152602001828054612ffd906151d5565b801561304a5780601f1061301f5761010080835404028352916020019161304a565b820191906000526020600020905b81548152906001019060200180831161302d57829003601f168201915b5050505050815250508152602001601182018054806020026020016040519081016040528092919081815260200182805480156130dc57602002820191906000526020600020905b8160009054906101000a900473ffffffffffffffffffffffffffffffffffffffff1673ffffffffffffffffffffffffffffffffffffffff1681526020019060010190808311613092575b5050505050815250509050919050565b600033905060001515600460008373ffffffffffffffffffffffffffffffffffffffff1673ffffffffffffffffffffffffffffffffffffffff16815260200190815260200160002060060160009054906101000a900460ff16151514613187576040517f08c379a000000000000000000000000000000000000000000000000000000000815260040161317e90615752565b60405180910390fd5b6000600460008373ffffffffffffffffffffffffffffffffffffffff1673ffffffffffffffffffffffffffffffffffffffff1681526020019081526020016000209050818160000160006101000a81548173ffffffffffffffffffffffffffffffffffffffff021916908373ffffffffffffffffffffffffffffffffffffffff1602179055508681600101819055508581600201908161322791906153b2565b508481600301819055508381600401908161324291906153b2565b5082816005018190555060018160060160006101000a81548160ff02191690831515021790555060036000808473ffffffffffffffffffffffffffffffffffffffff1673ffffffffffffffffffffffffffffffffffffffff168152602001908152602001600020819055506040518060400160405280601481526020017f4d65646963616c205265736561726368204c61620000000000000000000000008152508160090190816132f391906153b2565b5050505050505050565b60008060008373ffffffffffffffffffffffffffffffffffffffff1673ffffffffffffffffffffffffffffffffffffffff1681526020019081526020016000205490506002600581111561335457613353615501565b5b60020361358d57600360003373ffffffffffffffffffffffffffffffffffffffff1673ffffffffffffffffffffffffffffffffffffffff16815260200190815260200160002060060160009054906101000a900460ff166133ea576040517f08c379a00000000000000000000000000000000000000000000000000000000081526004016133e190615a92565b60405180910390fd5b600160058111156133fe576133fd615501565b5b8114801561341f57506002600581111561341b5761341a615501565b5b6002145b15613551576000600260008473ffffffffffffffffffffffffffffffffffffffff1673ffffffffffffffffffffffffffffffffffffffff16815260200190815260200160002060050154036134a9576040517f08c379a00000000000000000000000000000000000000000000000000000000081526004016134a09061557c565b60405180910390fd5b600260008373ffffffffffffffffffffffffffffffffffffffff1673ffffffffffffffffffffffffffffffffffffffff168152602001908152602001600020600801339080600181540180825580915050600190039060005260206000200160009091909190916101000a81548173ffffffffffffffffffffffffffffffffffffffff021916908373ffffffffffffffffffffffffffffffffffffffff16021790555061358c565b6040517f08c379a000000000000000000000000000000000000000000000000000000000815260040161358390615b24565b60405180910390fd5b5b5050565b600033905060001515600160008373ffffffffffffffffffffffffffffffffffffffff1673ffffffffffffffffffffffffffffffffffffffff16815260200190815260200160002060060160009054906101000a900460ff1615151461362c576040517f08c379a000000000000000000000000000000000000000000000000000000000815260040161362390615bb6565b60405180910390fd5b6000600160008373ffffffffffffffffffffffffffffffffffffffff1673ffffffffffffffffffffffffffffffffffffffff1681526020019081526020016000209050818160000160006101000a81548173ffffffffffffffffffffffffffffffffffffffff021916908373ffffffffffffffffffffffffffffffffffffffff160217905550868160010181905550858160020190816136cc91906153b2565b50848160030190816136de91906153b2565b5083816004018190555060056000808473ffffffffffffffffffffffffffffffffffffffff1673ffffffffffffffffffffffffffffffffffffffff168152602001908152602001600020819055508281600501908161373d91906153b2565b5060018160060160006101000a81548160ff0219169083151502179055506040518060400160405280600781526020017f50617469656e74000000000000000000000000000000000000000000000000008152508160070190816137a191906153b2565b5050505050505050565b6137b3614028565b600460008373ffffffffffffffffffffffffffffffffffffffff1673ffffffffffffffffffffffffffffffffffffffff16815260200190815260200160002060060160009054906101000a900460ff16613842576040517f08c379a0000000000000000000000000000000000000000000000000000000008152600401613839906158bc565b60405180910390fd5b600460008373ffffffffffffffffffffffffffffffffffffffff1673ffffffffffffffffffffffffffffffffffffffff168152602001908152602001600020604051806101400160405290816000820160009054906101000a900473ffffffffffffffffffffffffffffffffffffffff1673ffffffffffffffffffffffffffffffffffffffff1673ffffffffffffffffffffffffffffffffffffffff168152602001600182015481526020016002820180546138fd906151d5565b80601f0160208091040260200160405190810160405280929190818152602001828054613929906151d5565b80156139765780601f1061394b57610100808354040283529160200191613976565b820191906000526020600020905b81548152906001019060200180831161395957829003601f168201915b5050505050815260200160038201548152602001600482018054613999906151d5565b80601f01602080910402602001604051908101604052809291908181526020018280546139c5906151d5565b8015613a125780601f106139e757610100808354040283529160200191613a12565b820191906000526020600020905b8154815290600101906020018083116139f557829003601f168201915b50505050508152602001600582015481526020016006820160009054906101000a900460ff1615151515815260200160078201805480602002602001604051908101604052809291908181526020018280548015613ac557602002820191906000526020600020905b8160009054906101000a900473ffffffffffffffffffffffffffffffffffffffff1673ffffffffffffffffffffffffffffffffffffffff1681526020019060010190808311613a7b575b5050505050815260200160088201805480602002602001604051908101604052809291908181526020016000905b82821015613b9f578382906000526020600020018054613b12906151d5565b80601f0160208091040260200160405190810160405280929190818152602001828054613b3e906151d5565b8015613b8b5780601f10613b6057610100808354040283529160200191613b8b565b820191906000526020600020905b815481529060010190602001808311613b6e57829003601f168201915b505050505081526020019060010190613af3565b505050508152602001600982018054613bb7906151d5565b80601f0160208091040260200160405190810160405280929190818152602001828054613be3906151d5565b8015613c305780601f10613c0557610100808354040283529160200191613c30565b820191906000526020600020905b815481529060010190602001808311613c1357829003601f168201915b5050505050815250509050919050565b600033905060001515600260008373ffffffffffffffffffffffffffffffffffffffff1673ffffffffffffffffffffffffffffffffffffffff16815260200190815260200160002060090160009054906101000a900460ff16151514613cdb576040517f08c379a0000000000000000000000000000000000000000000000000000000008152600401613cd290615752565b60405180910390fd5b6000600260008373ffffffffffffffffffffffffffffffffffffffff1673ffffffffffffffffffffffffffffffffffffffff1681526020019081526020016000209050818160000160006101000a81548173ffffffffffffffffffffffffffffffffffffffff021916908373ffffffffffffffffffffffffffffffffffffffff16021790555087816001018190555086816002019081613d7b91906153b2565b5085816003019081613d8d91906153b2565b508481600401819055508381600501819055508281600601819055506040518060400160405280600681526020017f446f63746f72000000000000000000000000000000000000000000000000000081525081600b019081613def91906153b2565b5060018160090160006101000a81548160ff02191690831515021790555060016000808473ffffffffffffffffffffffffffffffffffffffff1673ffffffffffffffffffffffffffffffffffffffff168152602001908152602001600020819055505050505050505050565b604051806101400160405280600073ffffffffffffffffffffffffffffffffffffffff16815260200160008152602001606081526020016000815260200160608152602001600081526020016000151581526020016060815260200160608152602001613ec6614093565b81525090565b604051806101800160405280600073ffffffffffffffffffffffffffffffffffffffff168152602001600081526020016060815260200160608152602001600081526020016000815260200160008152602001606081526020016060815260200160001515815260200160608152602001606081525090565b604051806101400160405280600073ffffffffffffffffffffffffffffffffffffffff16815260200160008152602001606081526020016000815260200160608152602001600081526020016000151581526020016060815260200160608152602001606081525090565b604051806101600160405280600073ffffffffffffffffffffffffffffffffffffffff1681526020016000815260200160608152602001606081526020016000815260200160608152602001600015158152602001606081526020016060815260200161401b6140bb565b8152602001606081525090565b604051806101400160405280600073ffffffffffffffffffffffffffffffffffffffff16815260200160008152602001606081526020016000815260200160608152602001600081526020016000151581526020016060815260200160608152602001606081525090565b6040518060800160405280606081526020016060815260200160608152602001600081525090565b60405180610100016040528060008152602001606081526020016060815260200160608152602001606081526020016060815260200160608152602001606081525090565b6000604051905090565b600080fd5b600080fd5b6000819050919050565b61412781614114565b811461413257600080fd5b50565b6000813590506141448161411e565b92915050565b600080fd5b600080fd5b6000601f19601f8301169050919050565b7f4e487b7100000000000000000000000000000000000000000000000000000000600052604160045260246000fd5b61419d82614154565b810181811067ffffffffffffffff821117156141bc576141bb614165565b5b80604052505050565b60006141cf614100565b90506141db8282614194565b919050565b600067ffffffffffffffff8211156141fb576141fa614165565b5b61420482614154565b9050602081019050919050565b82818337600083830152505050565b600061423361422e846141e0565b6141c5565b90508281526020810184848401111561424f5761424e61414f565b5b61425a848285614211565b509392505050565b600082601f8301126142775761427661414a565b5b8135614287848260208601614220565b91505092915050565b600080600080600080600080610100898b0312156142b1576142b061410a565b5b60006142bf8b828c01614135565b985050602089013567ffffffffffffffff8111156142e0576142df61410f565b5b6142ec8b828c01614262565b975050604089013567ffffffffffffffff81111561430d5761430c61410f565b5b6143198b828c01614262565b965050606089013567ffffffffffffffff81111561433a5761433961410f565b5b6143468b828c01614262565b955050608089013567ffffffffffffffff8111156143675761436661410f565b5b6143738b828c01614262565b94505060a089013567ffffffffffffffff8111156143945761439361410f565b5b6143a08b828c01614262565b93505060c089013567ffffffffffffffff8111156143c1576143c061410f565b5b6143cd8b828c01614262565b92505060e089013567ffffffffffffffff8111156143ee576143ed61410f565b5b6143fa8b828c01614262565b9150509295985092959890939650565b600073ffffffffffffffffffffffffffffffffffffffff82169050919050565b60006144358261440a565b9050919050565b6144458161442a565b811461445057600080fd5b50565b6000813590506144628161443c565b92915050565b60006020828403121561447e5761447d61410a565b5b600061448c84828501614453565b91505092915050565b61449e8161442a565b82525050565b6144ad81614114565b82525050565b600081519050919050565b600082825260208201905092915050565b60005b838110156144ed5780820151818401526020810190506144d2565b60008484015250505050565b6000614504826144b3565b61450e81856144be565b935061451e8185602086016144cf565b61452781614154565b840191505092915050565b60008115159050919050565b61454781614532565b82525050565b600081519050919050565b600082825260208201905092915050565b6000819050602082019050919050565b60006145858383614495565b60208301905092915050565b6000602082019050919050565b60006145a98261454d565b6145b38185614558565b93506145be83614569565b8060005b838110156145ef5781516145d68882614579565b97506145e183614591565b9250506001810190506145c2565b5085935050505092915050565b6000608083016000830151848203600086015261461982826144f9565b9150506020830151848203602086015261463382826144f9565b9150506040830151848203604086015261464d82826144f9565b915050606083015161466260608601826144a4565b508091505092915050565b6000610140830160008301516146866000860182614495565b50602083015161469960208601826144a4565b50604083015184820360408601526146b182826144f9565b91505060608301516146c660608601826144a4565b50608083015184820360808601526146de82826144f9565b91505060a08301516146f360a08601826144a4565b5060c083015161470660c086018261453e565b5060e083015184820360e086015261471e828261459e565b91505061010083015184820361010086015261473a82826144f9565b91505061012083015184820361012086015261475682826145fc565b9150508091505092915050565b6000602082019050818103600083015261477d818461466d565b905092915050565b6000806000806080858703121561479f5761479e61410a565b5b600085013567ffffffffffffffff8111156147bd576147bc61410f565b5b6147c987828801614262565b945050602085013567ffffffffffffffff8111156147ea576147e961410f565b5b6147f687828801614262565b935050604085013567ffffffffffffffff8111156148175761481661410f565b5b61482387828801614262565b925050606061483487828801614135565b91505092959194509250565b61484981614114565b82525050565b60006020820190506148646000830184614840565b92915050565b6000610180830160008301516148836000860182614495565b50602083015161489660208601826144a4565b50604083015184820360408601526148ae82826144f9565b915050606083015184820360608601526148c882826144f9565b91505060808301516148dd60808601826144a4565b5060a08301516148f060a08601826144a4565b5060c083015161490360c08601826144a4565b5060e083015184820360e086015261491b828261459e565b915050610100830151848203610100860152614937828261459e565b91505061012083015161494e61012086018261453e565b50610140830151848203610140860152614968828261459e565b91505061016083015184820361016086015261498482826144f9565b9150508091505092915050565b600060208201905081810360008301526149ab818461486a565b905092915050565b6000602082840312156149c9576149c861410a565b5b600082013567ffffffffffffffff8111156149e7576149e661410f565b5b6149f384828501614262565b91505092915050565b600080600080600060a08688031215614a1857614a1761410a565b5b6000614a2688828901614135565b955050602086013567ffffffffffffffff811115614a4757614a4661410f565b5b614a5388828901614262565b9450506040614a6488828901614135565b935050606086013567ffffffffffffffff811115614a8557614a8461410f565b5b614a9188828901614262565b9250506080614aa288828901614135565b9150509295509295909350565b600081519050919050565b600082825260208201905092915050565b6000819050602082019050919050565b6000614ae783836144f9565b905092915050565b6000602082019050919050565b6000614b0782614aaf565b614b118185614aba565b935083602082028501614b2385614acb565b8060005b85811015614b5f5784840389528151614b408582614adb565b9450614b4b83614aef565b925060208a01995050600181019050614b27565b50829750879550505050505092915050565b600061014083016000830151614b8a6000860182614495565b506020830151614b9d60208601826144a4565b5060408301518482036040860152614bb582826144f9565b9150506060830151614bca60608601826144a4565b5060808301518482036080860152614be282826144f9565b91505060a0830151614bf760a08601826144a4565b5060c0830151614c0a60c086018261453e565b5060e083015184820360e0860152614c22828261459e565b915050610100830151848203610100860152614c3e82826144f9565b915050610120830151848203610120860152614c5a8282614afc565b9150508091505092915050565b60006020820190508181036000830152614c818184614b71565b905092915050565b60008060408385031215614ca057614c9f61410a565b5b6000614cae85828601614453565b925050602083013567ffffffffffffffff811115614ccf57614cce61410f565b5b614cdb85828601614262565b9150509250929050565b600061010083016000830151614cfe60008601826144a4565b5060208301518482036020860152614d1682826144f9565b91505060408301518482036040860152614d3082826144f9565b91505060608301518482036060860152614d4a82826144f9565b91505060808301518482036080860152614d6482826144f9565b91505060a083015184820360a0860152614d7e82826144f9565b91505060c083015184820360c0860152614d9882826144f9565b91505060e083015184820360e0860152614db282826144f9565b9150508091505092915050565b600061016083016000830151614dd86000860182614495565b506020830151614deb60208601826144a4565b5060408301518482036040860152614e0382826144f9565b91505060608301518482036060860152614e1d82826144f9565b9150506080830151614e3260808601826144a4565b5060a083015184820360a0860152614e4a82826144f9565b91505060c0830151614e5f60c086018261453e565b5060e083015184820360e0860152614e7782826144f9565b915050610100830151848203610100860152614e938282614afc565b915050610120830151848203610120860152614eaf8282614ce5565b915050610140830151848203610140860152614ecb828261459e565b9150508091505092915050565b60006020820190508181036000830152614ef28184614dbf565b905092915050565b600080600080600060a08688031215614f1657614f1561410a565b5b6000614f2488828901614135565b955050602086013567ffffffffffffffff811115614f4557614f4461410f565b5b614f5188828901614262565b945050604086013567ffffffffffffffff811115614f7257614f7161410f565b5b614f7e88828901614262565b9350506060614f8f88828901614135565b925050608086013567ffffffffffffffff811115614fb057614faf61410f565b5b614fbc88828901614262565b9150509295509295909350565b600061014083016000830151614fe26000860182614495565b506020830151614ff560208601826144a4565b506040830151848203604086015261500d82826144f9565b915050606083015161502260608601826144a4565b506080830151848203608086015261503a82826144f9565b91505060a083015161504f60a08601826144a4565b5060c083015161506260c086018261453e565b5060e083015184820360e086015261507a828261459e565b9150506101008301518482036101008601526150968282614afc565b9150506101208301518482036101208601526150b282826144f9565b9150508091505092915050565b600060208201905081810360008301526150d98184614fc9565b905092915050565b60008060008060008060c087890312156150fe576150fd61410a565b5b600061510c89828a01614135565b965050602087013567ffffffffffffffff81111561512d5761512c61410f565b5b61513989828a01614262565b955050604087013567ffffffffffffffff81111561515a5761515961410f565b5b61516689828a01614262565b945050606061517789828a01614135565b935050608061518889828a01614135565b92505060a061519989828a01614135565b9150509295509295509295565b7f4e487b7100000000000000000000000000000000000000000000000000000000600052602260045260246000fd5b600060028204905060018216806151ed57607f821691505b602082108103615200576151ff6151a6565b5b50919050565b60008190508160005260206000209050919050565b60006020601f8301049050919050565b600082821b905092915050565b6000600883026152687fffffffffffffffffffffffffffffffffffffffffffffffffffffffffffffffff8261522b565b615272868361522b565b95508019841693508086168417925050509392505050565b6000819050919050565b60006152af6152aa6152a584614114565b61528a565b614114565b9050919050565b6000819050919050565b6152c983615294565b6152dd6152d5826152b6565b848454615238565b825550505050565b600090565b6152f26152e5565b6152fd8184846152c0565b505050565b5b81811015615321576153166000826152ea565b600181019050615303565b5050565b601f8211156153665761533781615206565b6153408461521b565b8101602085101561534f578190505b61536361535b8561521b565b830182615302565b50505b505050565b600082821c905092915050565b60006153896000198460080261536b565b1980831691505092915050565b60006153a28383615378565b9150826002028217905092915050565b6153bb826144b3565b67ffffffffffffffff8111156153d4576153d3614165565b5b6153de82546151d5565b6153e9828285615325565b600060209050601f83116001811461541c576000841561540a578287015190505b6154148582615396565b86555061547c565b601f19841661542a86615206565b60005b828110156154525784890151825560018201915060208501945060208101905061542d565b8683101561546f578489015161546b601f891682615378565b8355505b6001600288020188555050505b505050505050565b600082825260208201905092915050565b7f506174686f6c6f676973747320646f65736e2774206578697374000000000000600082015250565b60006154cb601a83615484565b91506154d682615495565b602082019050919050565b600060208201905081810360008301526154fa816154be565b9050919050565b7f4e487b7100000000000000000000000000000000000000000000000000000000600052602160045260246000fd5b7f446f63746f7220646f65736e2774206578697374000000000000000000000000600082015250565b6000615566601483615484565b915061557182615530565b602082019050919050565b6000602082019050818103600083015261559581615559565b9050919050565b7f506174686f6c6f6769737420646f6573206e6f74206578697374000000000000600082015250565b60006155d2601a83615484565b91506155dd8261559c565b602082019050919050565b60006020820190508181036000830152615601816155c5565b9050919050565b7f446f63746f722063616e207472616e736665722064617461206f6e6c7920706160008201527f74686f6c6f676973747320000000000000000000000000000000000000000000602082015250565b6000615664602b83615484565b915061566f82615608565b604082019050919050565b6000602082019050818103600083015261569381615657565b9050919050565b7f4e6f206163636f756e7400000000000000000000000000000000000000000000600082015250565b60006156d0600a83615484565b91506156db8261569a565b602082019050919050565b600060208201905081810360008301526156ff816156c3565b9050919050565b7f596f7520616c72656164792063726561746520796f75722070726f66696c6500600082015250565b600061573c601f83615484565b915061574782615706565b602082019050919050565b6000602082019050818103600083015261576b8161572f565b9050919050565b7f506861726d61637920436f6d70616e69657320646f65736e2774206578697374600082015250565b60006157a8602083615484565b91506157b382615772565b602082019050919050565b600060208201905081810360008301526157d78161579b565b9050919050565b7f50617469656e7420646f65736e27742065786973740000000000000000000000600082015250565b6000615814601583615484565b915061581f826157de565b602082019050919050565b6000602082019050818103600083015261584381615807565b9050919050565b7f4d65646963616c205265736561726368204c616220646f65736e27742065786960008201527f7374000000000000000000000000000000000000000000000000000000000000602082015250565b60006158a6602283615484565b91506158b18261584a565b604082019050919050565b600060208201905081810360008301526158d581615899565b9050919050565b7f506861726d61637920436f6d70616e7920646f65736e27742065786973740000600082015250565b6000615912601e83615484565b915061591d826158dc565b602082019050919050565b6000602082019050818103600083015261594181615905565b9050919050565b7f50617469656e742063616e207472616e73666572206461746120776974686f7560008201527f7420706174686f6c6f6769737473200000000000000000000000000000000000602082015250565b60006159a4602f83615484565b91506159af82615948565b604082019050919050565b600060208201905081810360008301526159d381615997565b9050919050565b7f50617469656e7420646f6573206e6f7420657869737400000000000000000000600082015250565b6000615a10601683615484565b9150615a1b826159da565b602082019050919050565b60006020820190508181036000830152615a3f81615a03565b9050919050565b7f506174686f6c6f6769737420646f65736e277420657869737400000000000000600082015250565b6000615a7c601983615484565b9150615a8782615a46565b602082019050919050565b60006020820190508181036000830152615aab81615a6f565b9050919050565b7f706174686f6c6f67697374732063616e207472616e736665722064617461206f60008201527f6e6c7920646f63746f7200000000000000000000000000000000000000000000602082015250565b6000615b0e602a83615484565b9150615b1982615ab2565b604082019050919050565b60006020820190508181036000830152615b3d81615b01565b9050919050565b7f596f75206861766520616c7265616479206372656174656420796f757220707260008201527f6f66696c65000000000000000000000000000000000000000000000000000000602082015250565b6000615ba0602583615484565b9150615bab82615b44565b604082019050919050565b60006020820190508181036000830152615bcf81615b93565b905091905056fea2646970667358221220df43fb318efc243eefa849c37aeeb65d525a6236879a8db5305df785e1085f0964736f6c63430008110033",
  "linkReferences": {},
  "deployedLinkReferences": {}
}