{
  "_format": "hh-sol-artifact-1",
  "contractName": "MedicalData",
  "sourceName": "contracts/patientDataManagement.sol",
  "abi": [
    {
      "inputs": [
        {
          "internalType": "address",
          "name": "useraddress",
          "type": "address"
        }
      ],
      "name": "ConnectedAccountType",
      "outputs": [
        {
          "internalType": "uint256",
          "name": "",
          "type": "uint256"
        }
      ],
      "stateMutability": "view",
      "type": "function"
    },
    {
      "inputs": [
        {
          "internalType": "address",
          "name": "",
          "type": "address"
        }
      ],
      "name": "accounts",
      "outputs": [
        {
          "internalType": "uint256",
          "name": "",
          "type": "uint256"
        }
      ],
      "stateMutability": "view",
      "type": "function"
    },
    {
      "inputs": [
        {
          "internalType": "address",
          "name": "_user",
          "type": "address"
        },
        {
          "internalType": "string",
          "name": "url",
          "type": "string"
        }
      ],
      "name": "add",
      "outputs": [],
      "stateMutability": "nonpayable",
      "type": "function"
    },
    {
      "inputs": [
        {
          "internalType": "string",
          "name": "report",
          "type": "string"
        }
      ],
      "name": "addLabReport",
      "outputs": [],
      "stateMutability": "nonpayable",
      "type": "function"
    },
    {
      "inputs": [
        {
          "internalType": "string",
          "name": "medichine",
          "type": "string"
        }
      ],
      "name": "addTopMedichine",
      "outputs": [],
      "stateMutability": "nonpayable",
      "type": "function"
    },
    {
      "inputs": [
        {
          "internalType": "address",
          "name": "_doctorAddress",
          "type": "address"
        }
      ],
      "name": "getDoctor",
      "outputs": [
        {
          "components": [
            {
              "internalType": "address",
              "name": "DoctorAddress",
              "type": "address"
            },
            {
              "internalType": "uint256",
              "name": "doctorID",
              "type": "uint256"
            },
            {
              "internalType": "string",
              "name": "name",
              "type": "string"
            },
            {
              "internalType": "string",
              "name": "specialty",
              "type": "string"
            },
            {
              "internalType": "uint256",
              "name": "consultationFee",
              "type": "uint256"
            },
            {
              "internalType": "uint256",
              "name": "BMDCNumber",
              "type": "uint256"
            },
            {
              "internalType": "uint256",
              "name": "yearOfExperience",
              "type": "uint256"
            },
            {
              "internalType": "address[]",
              "name": "allPatientsAddressSharedToDoctor",
              "type": "address[]"
            },
            {
              "internalType": "address[]",
              "name": "allPathologistAddressSharedToDoctor",
              "type": "address[]"
            },
            {
              "internalType": "bool",
              "name": "isAdded",
              "type": "bool"
            },
            {
              "internalType": "string[]",
              "name": "imgUrl",
              "type": "string[]"
            },
            {
              "internalType": "string",
              "name": "userType",
              "type": "string"
            }
          ],
          "internalType": "struct MedicalData.Doctor",
          "name": "",
          "type": "tuple"
        }
      ],
      "stateMutability": "view",
      "type": "function"
    },
    {
      "inputs": [
        {
          "internalType": "address",
          "name": "_labAddress",
          "type": "address"
        }
      ],
      "name": "getMedicalResearchLab",
      "outputs": [
        {
          "components": [
            {
              "internalType": "address",
              "name": "labAddress",
              "type": "address"
            },
            {
              "internalType": "uint256",
              "name": "labID",
              "type": "uint256"
            },
            {
              "internalType": "string",
              "name": "name",
              "type": "string"
            },
            {
              "internalType": "uint256",
              "name": "licenseID",
              "type": "uint256"
            },
            {
              "internalType": "string",
              "name": "researchArea",
              "type": "string"
            },
            {
              "internalType": "uint256",
              "name": "labRating",
              "type": "uint256"
            },
            {
              "internalType": "bool",
              "name": "isAdded",
              "type": "bool"
            },
            {
              "internalType": "address[]",
              "name": "allPatientsAddressSharedToMedicalResearchLab",
              "type": "address[]"
            },
            {
              "internalType": "string[]",
              "name": "MedicalResearchLabReports",
              "type": "string[]"
            },
            {
              "internalType": "string",
              "name": "userType",
              "type": "string"
            }
          ],
          "internalType": "struct MedicalData.MedicalResearchLab",
          "name": "",
          "type": "tuple"
        }
      ],
      "stateMutability": "view",
      "type": "function"
    },
    {
      "inputs": [
        {
          "internalType": "address",
          "name": "_pathologistAddress",
          "type": "address"
        }
      ],
      "name": "getPathologist",
      "outputs": [
        {
          "components": [
            {
              "internalType": "address",
              "name": "pathologistAddress",
              "type": "address"
            },
            {
              "internalType": "uint256",
              "name": "pathologistID",
              "type": "uint256"
            },
            {
              "internalType": "string",
              "name": "name",
              "type": "string"
            },
            {
              "internalType": "uint256",
              "name": "licenseNumber",
              "type": "uint256"
            },
            {
              "internalType": "string",
              "name": "specializationArea",
              "type": "string"
            },
            {
              "internalType": "uint256",
              "name": "totalExperience",
              "type": "uint256"
            },
            {
              "internalType": "bool",
              "name": "isAdded",
              "type": "bool"
            },
            {
              "internalType": "address[]",
              "name": "allPatientsAddressSharedTopathologist",
              "type": "address[]"
            },
            {
              "internalType": "string",
              "name": "userType",
              "type": "string"
            }
          ],
          "internalType": "struct MedicalData.Pathologist",
          "name": "",
          "type": "tuple"
        }
      ],
      "stateMutability": "view",
      "type": "function"
    },
    {
      "inputs": [
        {
          "internalType": "address",
          "name": "_patientAddress",
          "type": "address"
        }
      ],
      "name": "getPatient",
      "outputs": [
        {
          "components": [
            {
              "internalType": "address",
              "name": "patientAddress",
              "type": "address"
            },
            {
              "internalType": "uint256",
              "name": "patientID",
              "type": "uint256"
            },
            {
              "internalType": "string",
              "name": "name",
              "type": "string"
            },
            {
              "internalType": "string",
              "name": "gender",
              "type": "string"
            },
            {
              "internalType": "uint256",
              "name": "age",
              "type": "uint256"
            },
            {
              "internalType": "string",
              "name": "location",
              "type": "string"
            },
            {
              "internalType": "bool",
              "name": "isAdded",
              "type": "bool"
            },
            {
              "internalType": "string",
              "name": "userType",
              "type": "string"
            },
            {
              "internalType": "string[]",
              "name": "imgUrl",
              "type": "string[]"
            },
            {
              "components": [
                {
                  "internalType": "uint256",
                  "name": "height",
                  "type": "uint256"
                },
                {
                  "internalType": "string",
                  "name": "Blood",
                  "type": "string"
                },
                {
                  "internalType": "string",
                  "name": "PreviousDiseases",
                  "type": "string"
                },
                {
                  "internalType": "string",
                  "name": "Medicinedrugs",
                  "type": "string"
                },
                {
                  "internalType": "string",
                  "name": "BadHabits",
                  "type": "string"
                },
                {
                  "internalType": "string",
                  "name": "ChronicDiseases",
                  "type": "string"
                },
                {
                  "internalType": "string",
                  "name": "HealthAllergies",
                  "type": "string"
                },
                {
                  "internalType": "string",
                  "name": "BirthDefects",
                  "type": "string"
                }
              ],
              "internalType": "struct MedicalData.PatientPersonalData",
              "name": "patientPersonalData",
              "type": "tuple"
            }
          ],
          "internalType": "struct MedicalData.Patient",
          "name": "",
          "type": "tuple"
        }
      ],
      "stateMutability": "view",
      "type": "function"
    },
    {
      "inputs": [
        {
          "internalType": "address",
          "name": "_pharmacyCompanyAddress",
          "type": "address"
        }
      ],
      "name": "getPharmacyCompany",
      "outputs": [
        {
          "components": [
            {
              "internalType": "address",
              "name": "pharmacyCompanyAddress",
              "type": "address"
            },
            {
              "internalType": "uint256",
              "name": "companyID",
              "type": "uint256"
            },
            {
              "internalType": "string",
              "name": "name",
              "type": "string"
            },
            {
              "internalType": "uint256",
              "name": "licenseID",
              "type": "uint256"
            },
            {
              "internalType": "string",
              "name": "productInformation",
              "type": "string"
            },
            {
              "internalType": "uint256",
              "name": "pharmacyRating",
              "type": "uint256"
            },
            {
              "internalType": "bool",
              "name": "isAdded",
              "type": "bool"
            },
            {
              "internalType": "address[]",
              "name": "allPatientAddressSharedToPharmacyCompany",
              "type": "address[]"
            },
            {
              "internalType": "string",
              "name": "userType",
              "type": "string"
            },
            {
              "internalType": "string[]",
              "name": "TopMedichine",
              "type": "string[]"
            }
          ],
          "internalType": "struct MedicalData.PharmacyCompany",
          "name": "",
          "type": "tuple"
        }
      ],
      "stateMutability": "view",
      "type": "function"
    },
    {
      "inputs": [
        {
          "internalType": "uint256",
          "name": "doctorID",
          "type": "uint256"
        },
        {
          "internalType": "string",
          "name": "name",
          "type": "string"
        },
        {
          "internalType": "string",
          "name": "specialty",
          "type": "string"
        },
        {
          "internalType": "uint256",
          "name": "consultationFee",
          "type": "uint256"
        },
        {
          "internalType": "uint256",
          "name": "BMDCNumber",
          "type": "uint256"
        },
        {
          "internalType": "uint256",
          "name": "yearOfExperience",
          "type": "uint256"
        }
      ],
      "name": "setDoctor",
      "outputs": [],
      "stateMutability": "nonpayable",
      "type": "function"
    },
    {
      "inputs": [
        {
          "internalType": "uint256",
          "name": "labID",
          "type": "uint256"
        },
        {
          "internalType": "string",
          "name": "name",
          "type": "string"
        },
        {
          "internalType": "uint256",
          "name": "licenseID",
          "type": "uint256"
        },
        {
          "internalType": "string",
          "name": "researchArea",
          "type": "string"
        },
        {
          "internalType": "uint256",
          "name": "labRating",
          "type": "uint256"
        }
      ],
      "name": "setMedicalResearchLab",
      "outputs": [],
      "stateMutability": "nonpayable",
      "type": "function"
    },
    {
      "inputs": [
        {
          "internalType": "uint256",
          "name": "pathologistID",
          "type": "uint256"
        },
        {
          "internalType": "string",
          "name": "name",
          "type": "string"
        },
        {
          "internalType": "uint256",
          "name": "licenseNumber",
          "type": "uint256"
        },
        {
          "internalType": "string",
          "name": "specializationArea",
          "type": "string"
        },
        {
          "internalType": "uint256",
          "name": "totalExperience",
          "type": "uint256"
        }
      ],
      "name": "setPathologist",
      "outputs": [],
      "stateMutability": "nonpayable",
      "type": "function"
    },
    {
      "inputs": [
        {
          "internalType": "uint256",
          "name": "patientID",
          "type": "uint256"
        },
        {
          "internalType": "string",
          "name": "name",
          "type": "string"
        },
        {
          "internalType": "string",
          "name": "gender",
          "type": "string"
        },
        {
          "internalType": "uint256",
          "name": "age",
          "type": "uint256"
        },
        {
          "internalType": "string",
          "name": "location",
          "type": "string"
        }
      ],
      "name": "setPatient",
      "outputs": [],
      "stateMutability": "nonpayable",
      "type": "function"
    },
    {
      "inputs": [
        {
          "internalType": "uint256",
          "name": "height",
          "type": "uint256"
        },
        {
          "internalType": "string",
          "name": "blood",
          "type": "string"
        },
        {
          "internalType": "string",
          "name": "previousDiseases",
          "type": "string"
        },
        {
          "internalType": "string",
          "name": "medicineDrugs",
          "type": "string"
        },
        {
          "internalType": "string",
          "name": "badHabits",
          "type": "string"
        },
        {
          "internalType": "string",
          "name": "chronicDiseases",
          "type": "string"
        },
        {
          "internalType": "string",
          "name": "healthAllergies",
          "type": "string"
        },
        {
          "internalType": "string",
          "name": "birthDefects",
          "type": "string"
        }
      ],
      "name": "setPatientPersonalData",
      "outputs": [],
      "stateMutability": "nonpayable",
      "type": "function"
    },
    {
      "inputs": [
        {
          "internalType": "uint256",
          "name": "companyID",
          "type": "uint256"
        },
        {
          "internalType": "string",
          "name": "name",
          "type": "string"
        },
        {
          "internalType": "uint256",
          "name": "licenseID",
          "type": "uint256"
        },
        {
          "internalType": "string",
          "name": "productInformation",
          "type": "string"
        },
        {
          "internalType": "uint256",
          "name": "pharmacyRating",
          "type": "uint256"
        }
      ],
      "name": "setPharmacyCompany",
      "outputs": [],
      "stateMutability": "nonpayable",
      "type": "function"
    },
    {
      "inputs": [
        {
          "internalType": "address",
          "name": "useraddress",
          "type": "address"
        }
      ],
      "name": "transferDataByDoctor",
      "outputs": [],
      "stateMutability": "nonpayable",
      "type": "function"
    },
    {
      "inputs": [
        {
          "internalType": "address",
          "name": "useraddress",
          "type": "address"
        }
      ],
      "name": "transferDataByPathologist",
      "outputs": [],
      "stateMutability": "nonpayable",
      "type": "function"
    },
    {
      "inputs": [
        {
          "internalType": "address",
          "name": "useraddress",
          "type": "address"
        }
      ],
      "name": "transferDataByPatient",
      "outputs": [],
      "stateMutability": "nonpayable",
      "type": "function"
    }
  ],
  "bytecode": "0x608060405234801561001057600080fd5b506157c380620000216000396000f3fe608060405234801561001057600080fd5b50600436106101215760003560e01c80636bc071a5116100ad578063d10b07d811610071578063d10b07d814610326578063d16570d314610342578063d23fb52c1461035e578063ea8c9e041461037a578063f4bffd5a146103aa57610121565b80636bc071a5146102725780637ddd3f051461028e5780639059229b146102aa578063a9d0b46a146102da578063b5368e20146102f657610121565b80632f04e064116100f45780632f04e064146101be57806336d6da55146101ee57806339000b241461020a5780635e5c06e2146102265780636757711b1461025657610121565b8063100d1a7f1461012657806316ecfa84146101425780632545526d146101725780632a1ebd011461018e575b600080fd5b610140600480360381019061013b91906140a9565b6103c6565b005b61015c60048036038101906101579190614281565b6104ef565b60405161016991906144ef565b60405180910390f35b61018c60048036038101906101879190614281565b6108ab565b005b6101a860048036038101906101a39190614281565b610b8c565b6040516101b59190614520565b60405180910390f35b6101d860048036038101906101d39190614281565b610cbf565b6040516101e59190614724565b60405180910390f35b61020860048036038101906102039190614746565b6111ec565b005b610224600480360381019061021f91906147a2565b611525565b005b610240600480360381019061023b9190614281565b61159d565b60405161024d9190614520565b60405180910390f35b610270600480360381019061026b91906147eb565b6115b5565b005b61028c600480360381019061028791906147a2565b6117c7565b005b6102a860048036038101906102a391906147eb565b61183f565b005b6102c460048036038101906102bf9190614281565b611a51565b6040516102d19190614994565b60405180910390f35b6102f460048036038101906102ef9190614281565b611ee6565b005b610310600480360381019061030b9190614281565b612692565b60405161031d9190614b8d565b60405180910390f35b610340600480360381019061033b91906147eb565b612f3e565b005b61035c60048036038101906103579190614281565b613150565b005b61037860048036038101906103739190614baf565b6133e5565b005b610394600480360381019061038f9190614281565b613600565b6040516103a19190614d74565b60405180910390f35b6103c460048036038101906103bf9190614d96565b613a95565b005b604051806101000160405280898152602001888152602001878152602001868152602001858152602001848152602001838152602001828152506000803373ffffffffffffffffffffffffffffffffffffffff1673ffffffffffffffffffffffffffffffffffffffff16815260200190815260200160002060008201518160000155602082015181600101908161045d9190615067565b5060408201518160020190816104739190615067565b5060608201518160030190816104899190615067565b50608082015181600401908161049f9190615067565b5060a08201518160050190816104b59190615067565b5060c08201518160060190816104cb9190615067565b5060e08201518160070190816104e19190615067565b509050505050505050505050565b6104f7613cb0565b600460008373ffffffffffffffffffffffffffffffffffffffff1673ffffffffffffffffffffffffffffffffffffffff16815260200190815260200160002060060160009054906101000a900460ff16610586576040517f08c379a000000000000000000000000000000000000000000000000000000000815260040161057d90615196565b60405180910390fd5b600460008373ffffffffffffffffffffffffffffffffffffffff1673ffffffffffffffffffffffffffffffffffffffff168152602001908152602001600020604051806101200160405290816000820160009054906101000a900473ffffffffffffffffffffffffffffffffffffffff1673ffffffffffffffffffffffffffffffffffffffff1673ffffffffffffffffffffffffffffffffffffffff1681526020016001820154815260200160028201805461064190614e8a565b80601f016020809104026020016040519081016040528092919081815260200182805461066d90614e8a565b80156106ba5780601f1061068f576101008083540402835291602001916106ba565b820191906000526020600020905b81548152906001019060200180831161069d57829003601f168201915b50505050508152602001600382015481526020016004820180546106dd90614e8a565b80601f016020809104026020016040519081016040528092919081815260200182805461070990614e8a565b80156107565780601f1061072b57610100808354040283529160200191610756565b820191906000526020600020905b81548152906001019060200180831161073957829003601f168201915b50505050508152602001600582015481526020016006820160009054906101000a900460ff161515151581526020016007820180548060200260200160405190810160405280929190818152602001828054801561080957602002820191906000526020600020905b8160009054906101000a900473ffffffffffffffffffffffffffffffffffffffff1673ffffffffffffffffffffffffffffffffffffffff16815260200190600101908083116107bf575b5050505050815260200160088201805461082290614e8a565b80601f016020809104026020016040519081016040528092919081815260200182805461084e90614e8a565b801561089b5780601f106108705761010080835404028352916020019161089b565b820191906000526020600020905b81548152906001019060200180831161087e57829003601f168201915b5050505050815250509050919050565b6000600160008373ffffffffffffffffffffffffffffffffffffffff1673ffffffffffffffffffffffffffffffffffffffff16815260200190815260200160002054905060016005811115610903576109026151b6565b5b600103610b8857600360003373ffffffffffffffffffffffffffffffffffffffff1673ffffffffffffffffffffffffffffffffffffffff16815260200190815260200160002060090160009054906101000a900460ff16610999576040517f08c379a000000000000000000000000000000000000000000000000000000000815260040161099090615231565b60405180910390fd5b600260058111156109ad576109ac6151b6565b5b811480156109ce5750600160058111156109ca576109c96151b6565b5b6001145b15610b4c57600073ffffffffffffffffffffffffffffffffffffffff16600460008473ffffffffffffffffffffffffffffffffffffffff1673ffffffffffffffffffffffffffffffffffffffff16815260200190815260200160002060000160009054906101000a900473ffffffffffffffffffffffffffffffffffffffff1673ffffffffffffffffffffffffffffffffffffffff1603610aa4576040517f08c379a0000000000000000000000000000000000000000000000000000000008152600401610a9b9061529d565b60405180910390fd5b600460008373ffffffffffffffffffffffffffffffffffffffff1673ffffffffffffffffffffffffffffffffffffffff168152602001908152602001600020600701339080600181540180825580915050600190039060005260206000200160009091909190916101000a81548173ffffffffffffffffffffffffffffffffffffffff021916908373ffffffffffffffffffffffffffffffffffffffff160217905550610b87565b6040517f08c379a0000000000000000000000000000000000000000000000000000000008152600401610b7e90615309565b60405180910390fd5b5b5050565b600080600160008473ffffffffffffffffffffffffffffffffffffffff1673ffffffffffffffffffffffffffffffffffffffff16815260200190815260200160002054905060016005811115610be557610be46151b6565b5b8103610bf45780915050610cba565b600580811115610c0757610c066151b6565b5b8103610c165780915050610cba565b60026005811115610c2a57610c296151b6565b5b8103610c395780915050610cba565b60036005811115610c4d57610c4c6151b6565b5b8103610c5c5780915050610cba565b60046005811115610c7057610c6f6151b6565b5b8103610c7f5780915050610cba565b6040517f08c379a0000000000000000000000000000000000000000000000000000000008152600401610cb190615375565b60405180910390fd5b919050565b610cc7613d14565b600360008373ffffffffffffffffffffffffffffffffffffffff1673ffffffffffffffffffffffffffffffffffffffff16815260200190815260200160002060090160009054906101000a900460ff16610d56576040517f08c379a0000000000000000000000000000000000000000000000000000000008152600401610d4d90615231565b60405180910390fd5b600360008373ffffffffffffffffffffffffffffffffffffffff1673ffffffffffffffffffffffffffffffffffffffff168152602001908152602001600020604051806101800160405290816000820160009054906101000a900473ffffffffffffffffffffffffffffffffffffffff1673ffffffffffffffffffffffffffffffffffffffff1673ffffffffffffffffffffffffffffffffffffffff16815260200160018201548152602001600282018054610e1190614e8a565b80601f0160208091040260200160405190810160405280929190818152602001828054610e3d90614e8a565b8015610e8a5780601f10610e5f57610100808354040283529160200191610e8a565b820191906000526020600020905b815481529060010190602001808311610e6d57829003601f168201915b50505050508152602001600382018054610ea390614e8a565b80601f0160208091040260200160405190810160405280929190818152602001828054610ecf90614e8a565b8015610f1c5780601f10610ef157610100808354040283529160200191610f1c565b820191906000526020600020905b815481529060010190602001808311610eff57829003601f168201915b5050505050815260200160048201548152602001600582015481526020016006820154815260200160078201805480602002602001604051908101604052809291908181526020018280548015610fc857602002820191906000526020600020905b8160009054906101000a900473ffffffffffffffffffffffffffffffffffffffff1673ffffffffffffffffffffffffffffffffffffffff1681526020019060010190808311610f7e575b505050505081526020016008820180548060200260200160405190810160405280929190818152602001828054801561105657602002820191906000526020600020905b8160009054906101000a900473ffffffffffffffffffffffffffffffffffffffff1673ffffffffffffffffffffffffffffffffffffffff168152602001906001019080831161100c575b505050505081526020016009820160009054906101000a900460ff16151515158152602001600a8201805480602002602001604051908101604052809291908181526020016000905b8282101561114b5783829060005260206000200180546110be90614e8a565b80601f01602080910402602001604051908101604052809291908181526020018280546110ea90614e8a565b80156111375780601f1061110c57610100808354040283529160200191611137565b820191906000526020600020905b81548152906001019060200180831161111a57829003601f168201915b50505050508152602001906001019061109f565b505050508152602001600b8201805461116390614e8a565b80601f016020809104026020016040519081016040528092919081815260200182805461118f90614e8a565b80156111dc5780601f106111b1576101008083540402835291602001916111dc565b820191906000526020600020905b8154815290600101906020018083116111bf57829003601f168201915b5050505050815250509050919050565b60016005811115611200576111ff6151b6565b5b600160003373ffffffffffffffffffffffffffffffffffffffff1673ffffffffffffffffffffffffffffffffffffffff16815260200190815260200160002054036113c357600360003373ffffffffffffffffffffffffffffffffffffffff1673ffffffffffffffffffffffffffffffffffffffff16815260200190815260200160002060090160009054906101000a900460ff166112d4576040517f08c379a00000000000000000000000000000000000000000000000000000000081526004016112cb906153e1565b60405180910390fd5b600360003373ffffffffffffffffffffffffffffffffffffffff1673ffffffffffffffffffffffffffffffffffffffff168152602001908152602001600020600a01819080600181540180825580915050600190039060005260206000200160009091909190915090816113489190615067565b50600260008373ffffffffffffffffffffffffffffffffffffffff1673ffffffffffffffffffffffffffffffffffffffff168152602001908152602001600020600801819080600181540180825580915050600190039060005260206000200160009091909190915090816113bd9190615067565b50611521565b6005808111156113d6576113d56151b6565b5b600160003373ffffffffffffffffffffffffffffffffffffffff1673ffffffffffffffffffffffffffffffffffffffff168152602001908152602001600020540361152057600260003373ffffffffffffffffffffffffffffffffffffffff1673ffffffffffffffffffffffffffffffffffffffff16815260200190815260200160002060060160009054906101000a900460ff166114aa576040517f08c379a00000000000000000000000000000000000000000000000000000000081526004016114a19061544d565b60405180910390fd5b600260003373ffffffffffffffffffffffffffffffffffffffff1673ffffffffffffffffffffffffffffffffffffffff1681526020019081526020016000206008018190806001815401808255809150506001900390600052602060002001600090919091909150908161151e9190615067565b505b5b5050565b600560003373ffffffffffffffffffffffffffffffffffffffff1673ffffffffffffffffffffffffffffffffffffffff168152602001908152602001600020600801819080600181540180825580915050600190039060005260206000200160009091909190915090816115999190615067565b5050565b60016020528060005260406000206000915090505481565b600033905060001515600460008373ffffffffffffffffffffffffffffffffffffffff1673ffffffffffffffffffffffffffffffffffffffff16815260200190815260200160002060060160009054906101000a900460ff16151514611650576040517f08c379a0000000000000000000000000000000000000000000000000000000008152600401611647906154b9565b60405180910390fd5b6000600460008373ffffffffffffffffffffffffffffffffffffffff1673ffffffffffffffffffffffffffffffffffffffff1681526020019081526020016000209050818160000160006101000a81548173ffffffffffffffffffffffffffffffffffffffff021916908373ffffffffffffffffffffffffffffffffffffffff160217905550868160010181905550858160020190816116f09190615067565b508481600301819055508381600401908161170b9190615067565b508281600501819055506002600160008473ffffffffffffffffffffffffffffffffffffffff1673ffffffffffffffffffffffffffffffffffffffff1681526020019081526020016000208190555060018160060160006101000a81548160ff0219169083151502179055506040518060400160405280600b81526020017f506174686f6c6f676973740000000000000000000000000000000000000000008152508160080190816117bd9190615067565b5050505050505050565b600660003373ffffffffffffffffffffffffffffffffffffffff1673ffffffffffffffffffffffffffffffffffffffff1681526020019081526020016000206009018190806001815401808255809150506001900390600052602060002001600090919091909150908161183b9190615067565b5050565b600033905060001515600660008373ffffffffffffffffffffffffffffffffffffffff1673ffffffffffffffffffffffffffffffffffffffff16815260200190815260200160002060060160009054906101000a900460ff161515146118da576040517f08c379a00000000000000000000000000000000000000000000000000000000081526004016118d1906154b9565b60405180910390fd5b6000600660008373ffffffffffffffffffffffffffffffffffffffff1673ffffffffffffffffffffffffffffffffffffffff1681526020019081526020016000209050818160000160006101000a81548173ffffffffffffffffffffffffffffffffffffffff021916908373ffffffffffffffffffffffffffffffffffffffff1602179055508681600101819055508581600201908161197a9190615067565b50848160030181905550838160040190816119959190615067565b5082816005018190555060018160060160006101000a81548160ff0219169083151502179055506004600160008473ffffffffffffffffffffffffffffffffffffffff1673ffffffffffffffffffffffffffffffffffffffff168152602001908152602001600020819055506040518060400160405280600f81526020017f506861726d616379436f6d70616e790000000000000000000000000000000000815250816008019081611a479190615067565b5050505050505050565b611a59613d8d565b600660008373ffffffffffffffffffffffffffffffffffffffff1673ffffffffffffffffffffffffffffffffffffffff16815260200190815260200160002060060160009054906101000a900460ff16611ae8576040517f08c379a0000000000000000000000000000000000000000000000000000000008152600401611adf9061554b565b60405180910390fd5b600660008373ffffffffffffffffffffffffffffffffffffffff1673ffffffffffffffffffffffffffffffffffffffff168152602001908152602001600020604051806101400160405290816000820160009054906101000a900473ffffffffffffffffffffffffffffffffffffffff1673ffffffffffffffffffffffffffffffffffffffff1673ffffffffffffffffffffffffffffffffffffffff16815260200160018201548152602001600282018054611ba390614e8a565b80601f0160208091040260200160405190810160405280929190818152602001828054611bcf90614e8a565b8015611c1c5780601f10611bf157610100808354040283529160200191611c1c565b820191906000526020600020905b815481529060010190602001808311611bff57829003601f168201915b5050505050815260200160038201548152602001600482018054611c3f90614e8a565b80601f0160208091040260200160405190810160405280929190818152602001828054611c6b90614e8a565b8015611cb85780601f10611c8d57610100808354040283529160200191611cb8565b820191906000526020600020905b815481529060010190602001808311611c9b57829003601f168201915b50505050508152602001600582015481526020016006820160009054906101000a900460ff1615151515815260200160078201805480602002602001604051908101604052809291908181526020018280548015611d6b57602002820191906000526020600020905b8160009054906101000a900473ffffffffffffffffffffffffffffffffffffffff1673ffffffffffffffffffffffffffffffffffffffff1681526020019060010190808311611d21575b50505050508152602001600882018054611d8490614e8a565b80601f0160208091040260200160405190810160405280929190818152602001828054611db090614e8a565b8015611dfd5780601f10611dd257610100808354040283529160200191611dfd565b820191906000526020600020905b815481529060010190602001808311611de057829003601f168201915b5050505050815260200160098201805480602002602001604051908101604052809291908181526020016000905b82821015611ed7578382906000526020600020018054611e4a90614e8a565b80601f0160208091040260200160405190810160405280929190818152602001828054611e7690614e8a565b8015611ec35780601f10611e9857610100808354040283529160200191611ec3565b820191906000526020600020905b815481529060010190602001808311611ea657829003601f168201915b505050505081526020019060010190611e2b565b50505050815250509050919050565b6000600160008373ffffffffffffffffffffffffffffffffffffffff1673ffffffffffffffffffffffffffffffffffffffff168152602001908152602001600020549050600580811115611f3d57611f3c6151b6565b5b60050361268e57600260003373ffffffffffffffffffffffffffffffffffffffff1673ffffffffffffffffffffffffffffffffffffffff16815260200190815260200160002060060160009054906101000a900460ff16611fd3576040517f08c379a0000000000000000000000000000000000000000000000000000000008152600401611fca9061544d565b60405180910390fd5b60016005811115611fe757611fe66151b6565b5b811480156120075750600580811115612003576120026151b6565b5b6005145b15612139576000600360008473ffffffffffffffffffffffffffffffffffffffff1673ffffffffffffffffffffffffffffffffffffffff1681526020019081526020016000206005015403612091576040517f08c379a000000000000000000000000000000000000000000000000000000000815260040161208890615231565b60405180910390fd5b600360008373ffffffffffffffffffffffffffffffffffffffff1673ffffffffffffffffffffffffffffffffffffffff168152602001908152602001600020600701339080600181540180825580915050600190039060005260206000200160009091909190916101000a81548173ffffffffffffffffffffffffffffffffffffffff021916908373ffffffffffffffffffffffffffffffffffffffff16021790555061268d565b6002600581111561214d5761214c6151b6565b5b8114801561216d5750600580811115612169576121686151b6565b5b6005145b156122eb57600073ffffffffffffffffffffffffffffffffffffffff16600460008473ffffffffffffffffffffffffffffffffffffffff1673ffffffffffffffffffffffffffffffffffffffff16815260200190815260200160002060000160009054906101000a900473ffffffffffffffffffffffffffffffffffffffff1673ffffffffffffffffffffffffffffffffffffffff1603612243576040517f08c379a000000000000000000000000000000000000000000000000000000000815260040161223a9061529d565b60405180910390fd5b600460008373ffffffffffffffffffffffffffffffffffffffff1673ffffffffffffffffffffffffffffffffffffffff168152602001908152602001600020600701339080600181540180825580915050600190039060005260206000200160009091909190916101000a81548173ffffffffffffffffffffffffffffffffffffffff021916908373ffffffffffffffffffffffffffffffffffffffff16021790555061268c565b600360058111156122ff576122fe6151b6565b5b8114801561231f575060058081111561231b5761231a6151b6565b5b6005145b1561249d57600073ffffffffffffffffffffffffffffffffffffffff16600560008473ffffffffffffffffffffffffffffffffffffffff1673ffffffffffffffffffffffffffffffffffffffff16815260200190815260200160002060000160009054906101000a900473ffffffffffffffffffffffffffffffffffffffff1673ffffffffffffffffffffffffffffffffffffffff16036123f5576040517f08c379a00000000000000000000000000000000000000000000000000000000081526004016123ec906155dd565b60405180910390fd5b600560008373ffffffffffffffffffffffffffffffffffffffff1673ffffffffffffffffffffffffffffffffffffffff168152602001908152602001600020600701339080600181540180825580915050600190039060005260206000200160009091909190916101000a81548173ffffffffffffffffffffffffffffffffffffffff021916908373ffffffffffffffffffffffffffffffffffffffff16021790555061268b565b600460058111156124b1576124b06151b6565b5b811480156124d157506005808111156124cd576124cc6151b6565b5b6005145b1561264f57600073ffffffffffffffffffffffffffffffffffffffff16600660008473ffffffffffffffffffffffffffffffffffffffff1673ffffffffffffffffffffffffffffffffffffffff16815260200190815260200160002060000160009054906101000a900473ffffffffffffffffffffffffffffffffffffffff1673ffffffffffffffffffffffffffffffffffffffff16036125a7576040517f08c379a000000000000000000000000000000000000000000000000000000000815260040161259e90615649565b60405180910390fd5b600660008373ffffffffffffffffffffffffffffffffffffffff1673ffffffffffffffffffffffffffffffffffffffff168152602001908152602001600020600701339080600181540180825580915050600190039060005260206000200160009091909190916101000a81548173ffffffffffffffffffffffffffffffffffffffff021916908373ffffffffffffffffffffffffffffffffffffffff16021790555061268a565b6040517f08c379a000000000000000000000000000000000000000000000000000000000815260040161268190615309565b60405180910390fd5b5b5b5b5b5050565b61269a613df8565b600260008373ffffffffffffffffffffffffffffffffffffffff1673ffffffffffffffffffffffffffffffffffffffff16815260200190815260200160002060060160009054906101000a900460ff16612729576040517f08c379a00000000000000000000000000000000000000000000000000000000081526004016127209061544d565b60405180910390fd5b600260008373ffffffffffffffffffffffffffffffffffffffff1673ffffffffffffffffffffffffffffffffffffffff168152602001908152602001600020604051806101400160405290816000820160009054906101000a900473ffffffffffffffffffffffffffffffffffffffff1673ffffffffffffffffffffffffffffffffffffffff1673ffffffffffffffffffffffffffffffffffffffff168152602001600182015481526020016002820180546127e490614e8a565b80601f016020809104026020016040519081016040528092919081815260200182805461281090614e8a565b801561285d5780601f106128325761010080835404028352916020019161285d565b820191906000526020600020905b81548152906001019060200180831161284057829003601f168201915b5050505050815260200160038201805461287690614e8a565b80601f01602080910402602001604051908101604052809291908181526020018280546128a290614e8a565b80156128ef5780601f106128c4576101008083540402835291602001916128ef565b820191906000526020600020905b8154815290600101906020018083116128d257829003601f168201915b505050505081526020016004820154815260200160058201805461291290614e8a565b80601f016020809104026020016040519081016040528092919081815260200182805461293e90614e8a565b801561298b5780601f106129605761010080835404028352916020019161298b565b820191906000526020600020905b81548152906001019060200180831161296e57829003601f168201915b505050505081526020016006820160009054906101000a900460ff161515151581526020016007820180546129bf90614e8a565b80601f01602080910402602001604051908101604052809291908181526020018280546129eb90614e8a565b8015612a385780601f10612a0d57610100808354040283529160200191612a38565b820191906000526020600020905b815481529060010190602001808311612a1b57829003601f168201915b5050505050815260200160088201805480602002602001604051908101604052809291908181526020016000905b82821015612b12578382906000526020600020018054612a8590614e8a565b80601f0160208091040260200160405190810160405280929190818152602001828054612ab190614e8a565b8015612afe5780601f10612ad357610100808354040283529160200191612afe565b820191906000526020600020905b815481529060010190602001808311612ae157829003601f168201915b505050505081526020019060010190612a66565b505050508152602001600982016040518061010001604052908160008201548152602001600182018054612b4590614e8a565b80601f0160208091040260200160405190810160405280929190818152602001828054612b7190614e8a565b8015612bbe5780601f10612b9357610100808354040283529160200191612bbe565b820191906000526020600020905b815481529060010190602001808311612ba157829003601f168201915b50505050508152602001600282018054612bd790614e8a565b80601f0160208091040260200160405190810160405280929190818152602001828054612c0390614e8a565b8015612c505780601f10612c2557610100808354040283529160200191612c50565b820191906000526020600020905b815481529060010190602001808311612c3357829003601f168201915b50505050508152602001600382018054612c6990614e8a565b80601f0160208091040260200160405190810160405280929190818152602001828054612c9590614e8a565b8015612ce25780601f10612cb757610100808354040283529160200191612ce2565b820191906000526020600020905b815481529060010190602001808311612cc557829003601f168201915b50505050508152602001600482018054612cfb90614e8a565b80601f0160208091040260200160405190810160405280929190818152602001828054612d2790614e8a565b8015612d745780601f10612d4957610100808354040283529160200191612d74565b820191906000526020600020905b815481529060010190602001808311612d5757829003601f168201915b50505050508152602001600582018054612d8d90614e8a565b80601f0160208091040260200160405190810160405280929190818152602001828054612db990614e8a565b8015612e065780601f10612ddb57610100808354040283529160200191612e06565b820191906000526020600020905b815481529060010190602001808311612de957829003601f168201915b50505050508152602001600682018054612e1f90614e8a565b80601f0160208091040260200160405190810160405280929190818152602001828054612e4b90614e8a565b8015612e985780601f10612e6d57610100808354040283529160200191612e98565b820191906000526020600020905b815481529060010190602001808311612e7b57829003601f168201915b50505050508152602001600782018054612eb190614e8a565b80601f0160208091040260200160405190810160405280929190818152602001828054612edd90614e8a565b8015612f2a5780601f10612eff57610100808354040283529160200191612f2a565b820191906000526020600020905b815481529060010190602001808311612f0d57829003601f168201915b505050505081525050815250509050919050565b600033905060001515600560008373ffffffffffffffffffffffffffffffffffffffff1673ffffffffffffffffffffffffffffffffffffffff16815260200190815260200160002060060160009054906101000a900460ff16151514612fd9576040517f08c379a0000000000000000000000000000000000000000000000000000000008152600401612fd0906154b9565b60405180910390fd5b6000600560008373ffffffffffffffffffffffffffffffffffffffff1673ffffffffffffffffffffffffffffffffffffffff1681526020019081526020016000209050818160000160006101000a81548173ffffffffffffffffffffffffffffffffffffffff021916908373ffffffffffffffffffffffffffffffffffffffff160217905550868160010181905550858160020190816130799190615067565b50848160030181905550838160040190816130949190615067565b5082816005018190555060018160060160006101000a81548160ff0219169083151502179055506003600160008473ffffffffffffffffffffffffffffffffffffffff1673ffffffffffffffffffffffffffffffffffffffff168152602001908152602001600020819055506040518060400160405280601281526020017f4d65646963616c52657365617263684c616200000000000000000000000000008152508160090190816131469190615067565b5050505050505050565b6000600160008373ffffffffffffffffffffffffffffffffffffffff1673ffffffffffffffffffffffffffffffffffffffff168152602001908152602001600020549050600260058111156131a8576131a76151b6565b5b6002036133e157600460003373ffffffffffffffffffffffffffffffffffffffff1673ffffffffffffffffffffffffffffffffffffffff16815260200190815260200160002060060160009054906101000a900460ff1661323e576040517f08c379a00000000000000000000000000000000000000000000000000000000081526004016132359061529d565b60405180910390fd5b60016005811115613252576132516151b6565b5b8114801561327357506002600581111561326f5761326e6151b6565b5b6002145b156133a5576000600360008473ffffffffffffffffffffffffffffffffffffffff1673ffffffffffffffffffffffffffffffffffffffff16815260200190815260200160002060050154036132fd576040517f08c379a00000000000000000000000000000000000000000000000000000000081526004016132f490615231565b60405180910390fd5b600360008373ffffffffffffffffffffffffffffffffffffffff1673ffffffffffffffffffffffffffffffffffffffff168152602001908152602001600020600801339080600181540180825580915050600190039060005260206000200160009091909190916101000a81548173ffffffffffffffffffffffffffffffffffffffff021916908373ffffffffffffffffffffffffffffffffffffffff1602179055506133e0565b6040517f08c379a00000000000000000000000000000000000000000000000000000000081526004016133d790615309565b60405180910390fd5b5b5050565b600033905060001515600260008373ffffffffffffffffffffffffffffffffffffffff1673ffffffffffffffffffffffffffffffffffffffff16815260200190815260200160002060060160009054906101000a900460ff16151514613480576040517f08c379a0000000000000000000000000000000000000000000000000000000008152600401613477906156db565b60405180910390fd5b6000600260008373ffffffffffffffffffffffffffffffffffffffff1673ffffffffffffffffffffffffffffffffffffffff1681526020019081526020016000209050818160000160006101000a81548173ffffffffffffffffffffffffffffffffffffffff021916908373ffffffffffffffffffffffffffffffffffffffff160217905550868160010181905550858160020190816135209190615067565b50848160030190816135329190615067565b508381600401819055506005600160008473ffffffffffffffffffffffffffffffffffffffff1673ffffffffffffffffffffffffffffffffffffffff16815260200190815260200160002081905550828160050190816135929190615067565b5060018160060160006101000a81548160ff0219169083151502179055506040518060400160405280600781526020017f50617469656e74000000000000000000000000000000000000000000000000008152508160070190816135f69190615067565b5050505050505050565b613608613e69565b600560008373ffffffffffffffffffffffffffffffffffffffff1673ffffffffffffffffffffffffffffffffffffffff16815260200190815260200160002060060160009054906101000a900460ff16613697576040517f08c379a000000000000000000000000000000000000000000000000000000000815260040161368e9061576d565b60405180910390fd5b600560008373ffffffffffffffffffffffffffffffffffffffff1673ffffffffffffffffffffffffffffffffffffffff168152602001908152602001600020604051806101400160405290816000820160009054906101000a900473ffffffffffffffffffffffffffffffffffffffff1673ffffffffffffffffffffffffffffffffffffffff1673ffffffffffffffffffffffffffffffffffffffff1681526020016001820154815260200160028201805461375290614e8a565b80601f016020809104026020016040519081016040528092919081815260200182805461377e90614e8a565b80156137cb5780601f106137a0576101008083540402835291602001916137cb565b820191906000526020600020905b8154815290600101906020018083116137ae57829003601f168201915b50505050508152602001600382015481526020016004820180546137ee90614e8a565b80601f016020809104026020016040519081016040528092919081815260200182805461381a90614e8a565b80156138675780601f1061383c57610100808354040283529160200191613867565b820191906000526020600020905b81548152906001019060200180831161384a57829003601f168201915b50505050508152602001600582015481526020016006820160009054906101000a900460ff161515151581526020016007820180548060200260200160405190810160405280929190818152602001828054801561391a57602002820191906000526020600020905b8160009054906101000a900473ffffffffffffffffffffffffffffffffffffffff1673ffffffffffffffffffffffffffffffffffffffff16815260200190600101908083116138d0575b5050505050815260200160088201805480602002602001604051908101604052809291908181526020016000905b828210156139f457838290600052602060002001805461396790614e8a565b80601f016020809104026020016040519081016040528092919081815260200182805461399390614e8a565b80156139e05780601f106139b5576101008083540402835291602001916139e0565b820191906000526020600020905b8154815290600101906020018083116139c357829003601f168201915b505050505081526020019060010190613948565b505050508152602001600982018054613a0c90614e8a565b80601f0160208091040260200160405190810160405280929190818152602001828054613a3890614e8a565b8015613a855780601f10613a5a57610100808354040283529160200191613a85565b820191906000526020600020905b815481529060010190602001808311613a6857829003601f168201915b5050505050815250509050919050565b600033905060001515600360008373ffffffffffffffffffffffffffffffffffffffff1673ffffffffffffffffffffffffffffffffffffffff16815260200190815260200160002060090160009054906101000a900460ff16151514613b30576040517f08c379a0000000000000000000000000000000000000000000000000000000008152600401613b27906154b9565b60405180910390fd5b6000600360008373ffffffffffffffffffffffffffffffffffffffff1673ffffffffffffffffffffffffffffffffffffffff1681526020019081526020016000209050818160000160006101000a81548173ffffffffffffffffffffffffffffffffffffffff021916908373ffffffffffffffffffffffffffffffffffffffff16021790555087816001018190555086816002019081613bd09190615067565b5085816003019081613be29190615067565b508481600401819055508381600501819055508281600601819055506040518060400160405280600681526020017f446f63746f72000000000000000000000000000000000000000000000000000081525081600b019081613c449190615067565b5060018160090160006101000a81548160ff02191690831515021790555060018060008473ffffffffffffffffffffffffffffffffffffffff1673ffffffffffffffffffffffffffffffffffffffff168152602001908152602001600020819055505050505050505050565b604051806101200160405280600073ffffffffffffffffffffffffffffffffffffffff168152602001600081526020016060815260200160008152602001606081526020016000815260200160001515815260200160608152602001606081525090565b604051806101800160405280600073ffffffffffffffffffffffffffffffffffffffff168152602001600081526020016060815260200160608152602001600081526020016000815260200160008152602001606081526020016060815260200160001515815260200160608152602001606081525090565b604051806101400160405280600073ffffffffffffffffffffffffffffffffffffffff16815260200160008152602001606081526020016000815260200160608152602001600081526020016000151581526020016060815260200160608152602001606081525090565b604051806101400160405280600073ffffffffffffffffffffffffffffffffffffffff16815260200160008152602001606081526020016060815260200160008152602001606081526020016000151581526020016060815260200160608152602001613e63613ed4565b81525090565b604051806101400160405280600073ffffffffffffffffffffffffffffffffffffffff16815260200160008152602001606081526020016000815260200160608152602001600081526020016000151581526020016060815260200160608152602001606081525090565b60405180610100016040528060008152602001606081526020016060815260200160608152602001606081526020016060815260200160608152602001606081525090565b6000604051905090565b600080fd5b600080fd5b6000819050919050565b613f4081613f2d565b8114613f4b57600080fd5b50565b600081359050613f5d81613f37565b92915050565b600080fd5b600080fd5b6000601f19601f8301169050919050565b7f4e487b7100000000000000000000000000000000000000000000000000000000600052604160045260246000fd5b613fb682613f6d565b810181811067ffffffffffffffff82111715613fd557613fd4613f7e565b5b80604052505050565b6000613fe8613f19565b9050613ff48282613fad565b919050565b600067ffffffffffffffff82111561401457614013613f7e565b5b61401d82613f6d565b9050602081019050919050565b82818337600083830152505050565b600061404c61404784613ff9565b613fde565b90508281526020810184848401111561406857614067613f68565b5b61407384828561402a565b509392505050565b600082601f8301126140905761408f613f63565b5b81356140a0848260208601614039565b91505092915050565b600080600080600080600080610100898b0312156140ca576140c9613f23565b5b60006140d88b828c01613f4e565b985050602089013567ffffffffffffffff8111156140f9576140f8613f28565b5b6141058b828c0161407b565b975050604089013567ffffffffffffffff81111561412657614125613f28565b5b6141328b828c0161407b565b965050606089013567ffffffffffffffff81111561415357614152613f28565b5b61415f8b828c0161407b565b955050608089013567ffffffffffffffff8111156141805761417f613f28565b5b61418c8b828c0161407b565b94505060a089013567ffffffffffffffff8111156141ad576141ac613f28565b5b6141b98b828c0161407b565b93505060c089013567ffffffffffffffff8111156141da576141d9613f28565b5b6141e68b828c0161407b565b92505060e089013567ffffffffffffffff81111561420757614206613f28565b5b6142138b828c0161407b565b9150509295985092959890939650565b600073ffffffffffffffffffffffffffffffffffffffff82169050919050565b600061424e82614223565b9050919050565b61425e81614243565b811461426957600080fd5b50565b60008135905061427b81614255565b92915050565b60006020828403121561429757614296613f23565b5b60006142a58482850161426c565b91505092915050565b6142b781614243565b82525050565b6142c681613f2d565b82525050565b600081519050919050565b600082825260208201905092915050565b60005b838110156143065780820151818401526020810190506142eb565b60008484015250505050565b600061431d826142cc565b61432781856142d7565b93506143378185602086016142e8565b61434081613f6d565b840191505092915050565b60008115159050919050565b6143608161434b565b82525050565b600081519050919050565b600082825260208201905092915050565b6000819050602082019050919050565b600061439e83836142ae565b60208301905092915050565b6000602082019050919050565b60006143c282614366565b6143cc8185614371565b93506143d783614382565b8060005b838110156144085781516143ef8882614392565b97506143fa836143aa565b9250506001810190506143db565b5085935050505092915050565b60006101208301600083015161442e60008601826142ae565b50602083015161444160208601826142bd565b50604083015184820360408601526144598282614312565b915050606083015161446e60608601826142bd565b50608083015184820360808601526144868282614312565b91505060a083015161449b60a08601826142bd565b5060c08301516144ae60c0860182614357565b5060e083015184820360e08601526144c682826143b7565b9150506101008301518482036101008601526144e28282614312565b9150508091505092915050565b600060208201905081810360008301526145098184614415565b905092915050565b61451a81613f2d565b82525050565b60006020820190506145356000830184614511565b92915050565b600081519050919050565b600082825260208201905092915050565b6000819050602082019050919050565b60006145738383614312565b905092915050565b6000602082019050919050565b60006145938261453b565b61459d8185614546565b9350836020820285016145af85614557565b8060005b858110156145eb57848403895281516145cc8582614567565b94506145d78361457b565b925060208a019950506001810190506145b3565b50829750879550505050505092915050565b60006101808301600083015161461660008601826142ae565b50602083015161462960208601826142bd565b50604083015184820360408601526146418282614312565b9150506060830151848203606086015261465b8282614312565b915050608083015161467060808601826142bd565b5060a083015161468360a08601826142bd565b5060c083015161469660c08601826142bd565b5060e083015184820360e08601526146ae82826143b7565b9150506101008301518482036101008601526146ca82826143b7565b9150506101208301516146e1610120860182614357565b506101408301518482036101408601526146fb8282614588565b9150506101608301518482036101608601526147178282614312565b9150508091505092915050565b6000602082019050818103600083015261473e81846145fd565b905092915050565b6000806040838503121561475d5761475c613f23565b5b600061476b8582860161426c565b925050602083013567ffffffffffffffff81111561478c5761478b613f28565b5b6147988582860161407b565b9150509250929050565b6000602082840312156147b8576147b7613f23565b5b600082013567ffffffffffffffff8111156147d6576147d5613f28565b5b6147e28482850161407b565b91505092915050565b600080600080600060a0868803121561480757614806613f23565b5b600061481588828901613f4e565b955050602086013567ffffffffffffffff81111561483657614835613f28565b5b6148428882890161407b565b945050604061485388828901613f4e565b935050606086013567ffffffffffffffff81111561487457614873613f28565b5b6148808882890161407b565b925050608061489188828901613f4e565b9150509295509295909350565b6000610140830160008301516148b760008601826142ae565b5060208301516148ca60208601826142bd565b50604083015184820360408601526148e28282614312565b91505060608301516148f760608601826142bd565b506080830151848203608086015261490f8282614312565b91505060a083015161492460a08601826142bd565b5060c083015161493760c0860182614357565b5060e083015184820360e086015261494f82826143b7565b91505061010083015184820361010086015261496b8282614312565b9150506101208301518482036101208601526149878282614588565b9150508091505092915050565b600060208201905081810360008301526149ae818461489e565b905092915050565b6000610100830160008301516149cf60008601826142bd565b50602083015184820360208601526149e78282614312565b91505060408301518482036040860152614a018282614312565b91505060608301518482036060860152614a1b8282614312565b91505060808301518482036080860152614a358282614312565b91505060a083015184820360a0860152614a4f8282614312565b91505060c083015184820360c0860152614a698282614312565b91505060e083015184820360e0860152614a838282614312565b9150508091505092915050565b600061014083016000830151614aa960008601826142ae565b506020830151614abc60208601826142bd565b5060408301518482036040860152614ad48282614312565b91505060608301518482036060860152614aee8282614312565b9150506080830151614b0360808601826142bd565b5060a083015184820360a0860152614b1b8282614312565b91505060c0830151614b3060c0860182614357565b5060e083015184820360e0860152614b488282614312565b915050610100830151848203610100860152614b648282614588565b915050610120830151848203610120860152614b8082826149b6565b9150508091505092915050565b60006020820190508181036000830152614ba78184614a90565b905092915050565b600080600080600060a08688031215614bcb57614bca613f23565b5b6000614bd988828901613f4e565b955050602086013567ffffffffffffffff811115614bfa57614bf9613f28565b5b614c068882890161407b565b945050604086013567ffffffffffffffff811115614c2757614c26613f28565b5b614c338882890161407b565b9350506060614c4488828901613f4e565b925050608086013567ffffffffffffffff811115614c6557614c64613f28565b5b614c718882890161407b565b9150509295509295909350565b600061014083016000830151614c9760008601826142ae565b506020830151614caa60208601826142bd565b5060408301518482036040860152614cc28282614312565b9150506060830151614cd760608601826142bd565b5060808301518482036080860152614cef8282614312565b91505060a0830151614d0460a08601826142bd565b5060c0830151614d1760c0860182614357565b5060e083015184820360e0860152614d2f82826143b7565b915050610100830151848203610100860152614d4b8282614588565b915050610120830151848203610120860152614d678282614312565b9150508091505092915050565b60006020820190508181036000830152614d8e8184614c7e565b905092915050565b60008060008060008060c08789031215614db357614db2613f23565b5b6000614dc189828a01613f4e565b965050602087013567ffffffffffffffff811115614de257614de1613f28565b5b614dee89828a0161407b565b955050604087013567ffffffffffffffff811115614e0f57614e0e613f28565b5b614e1b89828a0161407b565b9450506060614e2c89828a01613f4e565b9350506080614e3d89828a01613f4e565b92505060a0614e4e89828a01613f4e565b9150509295509295509295565b7f4e487b7100000000000000000000000000000000000000000000000000000000600052602260045260246000fd5b60006002820490506001821680614ea257607f821691505b602082108103614eb557614eb4614e5b565b5b50919050565b60008190508160005260206000209050919050565b60006020601f8301049050919050565b600082821b905092915050565b600060088302614f1d7fffffffffffffffffffffffffffffffffffffffffffffffffffffffffffffffff82614ee0565b614f278683614ee0565b95508019841693508086168417925050509392505050565b6000819050919050565b6000614f64614f5f614f5a84613f2d565b614f3f565b613f2d565b9050919050565b6000819050919050565b614f7e83614f49565b614f92614f8a82614f6b565b848454614eed565b825550505050565b600090565b614fa7614f9a565b614fb2818484614f75565b505050565b5b81811015614fd657614fcb600082614f9f565b600181019050614fb8565b5050565b601f82111561501b57614fec81614ebb565b614ff584614ed0565b81016020851015615004578190505b61501861501085614ed0565b830182614fb7565b50505b505050565b600082821c905092915050565b600061503e60001984600802615020565b1980831691505092915050565b6000615057838361502d565b9150826002028217905092915050565b615070826142cc565b67ffffffffffffffff81111561508957615088613f7e565b5b6150938254614e8a565b61509e828285614fda565b600060209050601f8311600181146150d157600084156150bf578287015190505b6150c9858261504b565b865550615131565b601f1984166150df86614ebb565b60005b82811015615107578489015182556001820191506020850194506020810190506150e2565b868310156151245784890151615120601f89168261502d565b8355505b6001600288020188555050505b505050505050565b600082825260208201905092915050565b7f706174686f6c6f676973747320646f6573206e6f742065786973740000000000600082015250565b6000615180601b83615139565b915061518b8261514a565b602082019050919050565b600060208201905081810360008301526151af81615173565b9050919050565b7f4e487b7100000000000000000000000000000000000000000000000000000000600052602160045260246000fd5b7f446f63746f7220646f6573206e6f742065786973740000000000000000000000600082015250565b600061521b601583615139565b9150615226826151e5565b602082019050919050565b6000602082019050818103600083015261524a8161520e565b9050919050565b7f506174686f6c6f6769737420646f6573206e6f74206578697374000000000000600082015250565b6000615287601a83615139565b915061529282615251565b602082019050919050565b600060208201905081810360008301526152b68161527a565b9050919050565b7f446f6e2774206861766520616e79206b696e6473206f66206163636f756e7400600082015250565b60006152f3601f83615139565b91506152fe826152bd565b602082019050919050565b60006020820190508181036000830152615322816152e6565b9050919050565b7f4e6f206163636f756e74206861766520616e7920656e74697479207479706500600082015250565b600061535f601f83615139565b915061536a82615329565b602082019050919050565b6000602082019050818103600083015261538e81615352565b9050919050565b7f446f63746f722020646f6573206e6f7420657869737400000000000000000000600082015250565b60006153cb601683615139565b91506153d682615395565b602082019050919050565b600060208201905081810360008301526153fa816153be565b9050919050565b7f50617469656e7420646f6573206e6f7420657869737400000000000000000000600082015250565b6000615437601683615139565b915061544282615401565b602082019050919050565b600060208201905081810360008301526154668161542a565b9050919050565b7f796f7520616c72656164792063726561746520796f75722070726f66696c6500600082015250565b60006154a3601f83615139565b91506154ae8261546d565b602082019050919050565b600060208201905081810360008301526154d281615496565b9050919050565b7f506861726d61637920436f6d70616e69657320646f6573206e6f74206578697360008201527f7400000000000000000000000000000000000000000000000000000000000000602082015250565b6000615535602183615139565b9150615540826154d9565b604082019050919050565b6000602082019050818103600083015261556481615528565b9050919050565b7f4d65646963616c205265736561726368204c616220646f6573206e6f7420657860008201527f6973740000000000000000000000000000000000000000000000000000000000602082015250565b60006155c7602383615139565b91506155d28261556b565b604082019050919050565b600060208201905081810360008301526155f6816155ba565b9050919050565b7f506861726d61637920436f6d70616e7920646f6573206e6f7420657869737400600082015250565b6000615633601f83615139565b915061563e826155fd565b602082019050919050565b6000602082019050818103600083015261566281615626565b9050919050565b7f596f75206861766520616c7265616479206372656174656420796f757220707260008201527f6f66696c65000000000000000000000000000000000000000000000000000000602082015250565b60006156c5602583615139565b91506156d082615669565b604082019050919050565b600060208201905081810360008301526156f4816156b8565b9050919050565b7f4d65646963616c205265736561726368206c616220646f6573206e6f7420657860008201527f6973740000000000000000000000000000000000000000000000000000000000602082015250565b6000615757602383615139565b9150615762826156fb565b604082019050919050565b600060208201905081810360008301526157868161574a565b905091905056fea2646970667358221220f790b324002e9ac4e067a2d76c15fa7bdcb675d8952902d91ccf1cee5ec713f764736f6c63430008110033",
  "linkReferences": {},
  "deployedLinkReferences": {}
}