{
  "_format": "hh-sol-artifact-1",
  "contractName": "MedicalData",
  "sourceName": "contracts/patientDataManagement.sol",
  "abi": [
    {
      "inputs": [
        {
          "internalType": "uint256",
          "name": "",
          "type": "uint256"
        }
      ],
      "name": "MedicalResearchLabReports",
      "outputs": [
        {
          "internalType": "string",
          "name": "",
          "type": "string"
        }
      ],
      "stateMutability": "view",
      "type": "function"
    },
    {
      "inputs": [
        {
          "internalType": "uint256",
          "name": "",
          "type": "uint256"
        }
      ],
      "name": "TopMedichine",
      "outputs": [
        {
          "internalType": "string",
          "name": "",
          "type": "string"
        }
      ],
      "stateMutability": "view",
      "type": "function"
    },
    {
      "inputs": [
        {
          "internalType": "address",
          "name": "_user",
          "type": "address"
        },
        {
          "internalType": "string",
          "name": "url",
          "type": "string"
        }
      ],
      "name": "addImageURL",
      "outputs": [],
      "stateMutability": "nonpayable",
      "type": "function"
    },
    {
      "inputs": [
        {
          "internalType": "string",
          "name": "report",
          "type": "string"
        }
      ],
      "name": "addLabReport",
      "outputs": [],
      "stateMutability": "nonpayable",
      "type": "function"
    },
    {
      "inputs": [
        {
          "internalType": "string",
          "name": "medichine",
          "type": "string"
        }
      ],
      "name": "addTopMedichine",
      "outputs": [],
      "stateMutability": "nonpayable",
      "type": "function"
    },
    {
      "inputs": [
        {
          "internalType": "address",
          "name": "user",
          "type": "address"
        }
      ],
      "name": "displayImage",
      "outputs": [
        {
          "internalType": "string[]",
          "name": "",
          "type": "string[]"
        }
      ],
      "stateMutability": "view",
      "type": "function"
    },
    {
      "inputs": [
        {
          "internalType": "address",
          "name": "_doctorAddress",
          "type": "address"
        }
      ],
      "name": "getDoctor",
      "outputs": [
        {
          "components": [
            {
              "internalType": "address",
              "name": "DoctorAddress",
              "type": "address"
            },
            {
              "internalType": "uint256",
              "name": "doctorID",
              "type": "uint256"
            },
            {
              "internalType": "string",
              "name": "name",
              "type": "string"
            },
            {
              "internalType": "string",
              "name": "specialty",
              "type": "string"
            },
            {
              "internalType": "uint256",
              "name": "consultationFee",
              "type": "uint256"
            },
            {
              "internalType": "uint256",
              "name": "BMDCNumber",
              "type": "uint256"
            },
            {
              "internalType": "uint256",
              "name": "yearOfExperience",
              "type": "uint256"
            },
            {
              "internalType": "address[]",
              "name": "allPatientsAddressSharedToDoctor",
              "type": "address[]"
            },
            {
              "internalType": "bool",
              "name": "isAdded",
              "type": "bool"
            }
          ],
          "internalType": "struct MedicalData.Doctor",
          "name": "",
          "type": "tuple"
        }
      ],
      "stateMutability": "view",
      "type": "function"
    },
    {
      "inputs": [
        {
          "internalType": "address",
          "name": "_labAddress",
          "type": "address"
        }
      ],
      "name": "getMedicalResearchLab",
      "outputs": [
        {
          "components": [
            {
              "internalType": "address",
              "name": "labAddress",
              "type": "address"
            },
            {
              "internalType": "uint256",
              "name": "labID",
              "type": "uint256"
            },
            {
              "internalType": "string",
              "name": "name",
              "type": "string"
            },
            {
              "internalType": "uint256",
              "name": "licenseID",
              "type": "uint256"
            },
            {
              "internalType": "string",
              "name": "researchArea",
              "type": "string"
            },
            {
              "internalType": "string",
              "name": "labRating",
              "type": "string"
            },
            {
              "internalType": "bool",
              "name": "isAdded",
              "type": "bool"
            },
            {
              "internalType": "address[]",
              "name": "allPatientsAddressSharedToMedicalResearchLab",
              "type": "address[]"
            }
          ],
          "internalType": "struct MedicalData.MedicalResearchLab",
          "name": "",
          "type": "tuple"
        }
      ],
      "stateMutability": "view",
      "type": "function"
    },
    {
      "inputs": [
        {
          "internalType": "address",
          "name": "_pathologistAddress",
          "type": "address"
        }
      ],
      "name": "getPathologist",
      "outputs": [
        {
          "components": [
            {
              "internalType": "address",
              "name": "pathologistAddress",
              "type": "address"
            },
            {
              "internalType": "uint256",
              "name": "pathologistID",
              "type": "uint256"
            },
            {
              "internalType": "string",
              "name": "name",
              "type": "string"
            },
            {
              "internalType": "uint256",
              "name": "licenseNumber",
              "type": "uint256"
            },
            {
              "internalType": "string",
              "name": "specializationArea",
              "type": "string"
            },
            {
              "internalType": "uint256",
              "name": "totalExperience",
              "type": "uint256"
            },
            {
              "internalType": "bool",
              "name": "isAdded",
              "type": "bool"
            },
            {
              "internalType": "address[]",
              "name": "allPatientsAddressSharedTopathologist",
              "type": "address[]"
            }
          ],
          "internalType": "struct MedicalData.Pathologist",
          "name": "",
          "type": "tuple"
        }
      ],
      "stateMutability": "view",
      "type": "function"
    },
    {
      "inputs": [
        {
          "internalType": "address",
          "name": "_patientAddress",
          "type": "address"
        }
      ],
      "name": "getPatient",
      "outputs": [
        {
          "components": [
            {
              "internalType": "address",
              "name": "patientAddress",
              "type": "address"
            },
            {
              "internalType": "uint256",
              "name": "patientID",
              "type": "uint256"
            },
            {
              "internalType": "string",
              "name": "name",
              "type": "string"
            },
            {
              "internalType": "string",
              "name": "gender",
              "type": "string"
            },
            {
              "internalType": "uint256",
              "name": "age",
              "type": "uint256"
            },
            {
              "internalType": "string",
              "name": "location",
              "type": "string"
            },
            {
              "internalType": "bool",
              "name": "isAdded",
              "type": "bool"
            },
            {
              "components": [
                {
                  "internalType": "uint256",
                  "name": "height",
                  "type": "uint256"
                },
                {
                  "internalType": "string",
                  "name": "Blood",
                  "type": "string"
                },
                {
                  "internalType": "string",
                  "name": "PreviousDiseases",
                  "type": "string"
                },
                {
                  "internalType": "string",
                  "name": "Medicinedrugs",
                  "type": "string"
                },
                {
                  "internalType": "string",
                  "name": "BadHabits",
                  "type": "string"
                },
                {
                  "internalType": "string",
                  "name": "ChronicDiseases",
                  "type": "string"
                },
                {
                  "internalType": "string",
                  "name": "HealthAllergies",
                  "type": "string"
                },
                {
                  "internalType": "string",
                  "name": "BirthDefects",
                  "type": "string"
                }
              ],
              "internalType": "struct MedicalData.PatientPersonalData",
              "name": "patientPersonalData",
              "type": "tuple"
            }
          ],
          "internalType": "struct MedicalData.Patient",
          "name": "",
          "type": "tuple"
        }
      ],
      "stateMutability": "view",
      "type": "function"
    },
    {
      "inputs": [
        {
          "internalType": "address",
          "name": "_pharmacyCompanyAddress",
          "type": "address"
        }
      ],
      "name": "getPharmacyCompany",
      "outputs": [
        {
          "components": [
            {
              "internalType": "address",
              "name": "pharmacyCompanyAddress",
              "type": "address"
            },
            {
              "internalType": "uint256",
              "name": "companyID",
              "type": "uint256"
            },
            {
              "internalType": "string",
              "name": "name",
              "type": "string"
            },
            {
              "internalType": "uint256",
              "name": "licenseID",
              "type": "uint256"
            },
            {
              "internalType": "string",
              "name": "productInformation",
              "type": "string"
            },
            {
              "internalType": "uint256",
              "name": "pharmacyRating",
              "type": "uint256"
            },
            {
              "internalType": "bool",
              "name": "isAdded",
              "type": "bool"
            },
            {
              "internalType": "address[]",
              "name": "allPatientAddressSharedToPharmacyCompany",
              "type": "address[]"
            }
          ],
          "internalType": "struct MedicalData.PharmacyCompany",
          "name": "",
          "type": "tuple"
        }
      ],
      "stateMutability": "view",
      "type": "function"
    },
    {
      "inputs": [
        {
          "internalType": "address",
          "name": "",
          "type": "address"
        }
      ],
      "name": "patientData",
      "outputs": [
        {
          "internalType": "uint256",
          "name": "height",
          "type": "uint256"
        },
        {
          "internalType": "string",
          "name": "Blood",
          "type": "string"
        },
        {
          "internalType": "string",
          "name": "PreviousDiseases",
          "type": "string"
        },
        {
          "internalType": "string",
          "name": "Medicinedrugs",
          "type": "string"
        },
        {
          "internalType": "string",
          "name": "BadHabits",
          "type": "string"
        },
        {
          "internalType": "string",
          "name": "ChronicDiseases",
          "type": "string"
        },
        {
          "internalType": "string",
          "name": "HealthAllergies",
          "type": "string"
        },
        {
          "internalType": "string",
          "name": "BirthDefects",
          "type": "string"
        }
      ],
      "stateMutability": "view",
      "type": "function"
    },
    {
      "inputs": [
        {
          "internalType": "uint256",
          "name": "doctorID",
          "type": "uint256"
        },
        {
          "internalType": "string",
          "name": "name",
          "type": "string"
        },
        {
          "internalType": "string",
          "name": "specialty",
          "type": "string"
        },
        {
          "internalType": "uint256",
          "name": "consultationFee",
          "type": "uint256"
        },
        {
          "internalType": "uint256",
          "name": "BMDCNumber",
          "type": "uint256"
        },
        {
          "internalType": "uint256",
          "name": "yearOfExperience",
          "type": "uint256"
        }
      ],
      "name": "setDoctor",
      "outputs": [],
      "stateMutability": "nonpayable",
      "type": "function"
    },
    {
      "inputs": [
        {
          "internalType": "uint256",
          "name": "labID",
          "type": "uint256"
        },
        {
          "internalType": "string",
          "name": "name",
          "type": "string"
        },
        {
          "internalType": "uint256",
          "name": "licenseID",
          "type": "uint256"
        },
        {
          "internalType": "string",
          "name": "researchArea",
          "type": "string"
        },
        {
          "internalType": "string",
          "name": "labRating",
          "type": "string"
        }
      ],
      "name": "setMedicalResearchLab",
      "outputs": [],
      "stateMutability": "nonpayable",
      "type": "function"
    },
    {
      "inputs": [
        {
          "internalType": "uint256",
          "name": "pathologistID",
          "type": "uint256"
        },
        {
          "internalType": "string",
          "name": "name",
          "type": "string"
        },
        {
          "internalType": "uint256",
          "name": "licenseNumber",
          "type": "uint256"
        },
        {
          "internalType": "string",
          "name": "specializationArea",
          "type": "string"
        },
        {
          "internalType": "uint256",
          "name": "totalExperience",
          "type": "uint256"
        }
      ],
      "name": "setPathologist",
      "outputs": [],
      "stateMutability": "nonpayable",
      "type": "function"
    },
    {
      "inputs": [
        {
          "internalType": "uint256",
          "name": "patientID",
          "type": "uint256"
        },
        {
          "internalType": "string",
          "name": "name",
          "type": "string"
        },
        {
          "internalType": "string",
          "name": "gender",
          "type": "string"
        },
        {
          "internalType": "uint256",
          "name": "age",
          "type": "uint256"
        },
        {
          "internalType": "string",
          "name": "location",
          "type": "string"
        }
      ],
      "name": "setPatient",
      "outputs": [],
      "stateMutability": "nonpayable",
      "type": "function"
    },
    {
      "inputs": [
        {
          "internalType": "address",
          "name": "user",
          "type": "address"
        },
        {
          "internalType": "uint256",
          "name": "height",
          "type": "uint256"
        },
        {
          "internalType": "string",
          "name": "blood",
          "type": "string"
        },
        {
          "internalType": "string",
          "name": "previousDiseases",
          "type": "string"
        },
        {
          "internalType": "string",
          "name": "medicineDrugs",
          "type": "string"
        },
        {
          "internalType": "string",
          "name": "badHabits",
          "type": "string"
        },
        {
          "internalType": "string",
          "name": "chronicDiseases",
          "type": "string"
        },
        {
          "internalType": "string",
          "name": "healthAllergies",
          "type": "string"
        },
        {
          "internalType": "string",
          "name": "birthDefects",
          "type": "string"
        }
      ],
      "name": "setPatientPersonalData",
      "outputs": [],
      "stateMutability": "nonpayable",
      "type": "function"
    },
    {
      "inputs": [
        {
          "internalType": "uint256",
          "name": "companyID",
          "type": "uint256"
        },
        {
          "internalType": "string",
          "name": "name",
          "type": "string"
        },
        {
          "internalType": "uint256",
          "name": "licenseID",
          "type": "uint256"
        },
        {
          "internalType": "string",
          "name": "productInformation",
          "type": "string"
        },
        {
          "internalType": "uint256",
          "name": "pharmacyRating",
          "type": "uint256"
        }
      ],
      "name": "setPharmacyCompany",
      "outputs": [],
      "stateMutability": "nonpayable",
      "type": "function"
    },
    {
      "inputs": [
        {
          "internalType": "string",
          "name": "entityType1",
          "type": "string"
        },
        {
          "internalType": "string",
          "name": "entityType2",
          "type": "string"
        },
        {
          "internalType": "address",
          "name": "user2",
          "type": "address"
        }
      ],
      "name": "transferData",
      "outputs": [],
      "stateMutability": "nonpayable",
      "type": "function"
    }
  ],
  "bytecode": "0x608060405234801561001057600080fd5b50614b5c806100206000396000f3fe608060405234801561001057600080fd5b50600436106101215760003560e01c80637fd653d0116100ad578063d23fb52c11610071578063d23fb52c14610341578063e488e66e1461035d578063e71b255514610379578063ea8c9e04146103a9578063f4bffd5a146103d957610121565b80637fd653d0146102655780639059229b14610295578063b5368e20146102c5578063bcdb1e19146102f5578063c74f96db1461032557610121565b806359ac529a116100f457806359ac529a146101d95780636757711b146101f55780636bc071a51461021157806371d7cfda1461022d5780637ddd3f051461024957610121565b806316ecfa84146101265780632e608c02146101565780632f04e0641461018d57806339000b24146101bd575b600080fd5b610140600480360381019061013b9190613290565b6103f5565b60405161014d91906134fd565b60405180910390f35b610170600480360381019061016b9190613290565b61071f565b604051610184989796959493929190613578565b60405180910390f35b6101a760048036038101906101a29190613290565b610b1f565b6040516101b491906136fa565b60405180910390f35b6101d760048036038101906101d29190613851565b610e53565b005b6101f360048036038101906101ee91906138c6565b610e8b565b005b61020f600480360381019061020a9190613a54565b610fb5565b005b61022b60048036038101906102269190613851565b61113b565b005b61024760048036038101906102429190613b07565b611173565b005b610263600480360381019061025e9190613a54565b6118c4565b005b61027f600480360381019061027a9190613b92565b611a4a565b60405161028c9190613bbf565b60405180910390f35b6102af60048036038101906102aa9190613290565b611af6565b6040516102bc9190613c9f565b60405180910390f35b6102df60048036038101906102da9190613290565b611e20565b6040516102ec9190613e60565b60405180910390f35b61030f600480360381019061030a9190613290565b612561565b60405161031c9190613f44565b60405180910390f35b61033f600480360381019061033a9190613f66565b612679565b005b61035b60048036038101906103569190614035565b612808565b005b61037760048036038101906103729190614104565b612997565b005b610393600480360381019061038e9190613b92565b612a0d565b6040516103a09190613bbf565b60405180910390f35b6103c360048036038101906103be9190613290565b612ab9565b6040516103d09190614225565b60405180910390f35b6103f360048036038101906103ee9190614247565b612e6b565b005b6103fd612ffb565b600860008373ffffffffffffffffffffffffffffffffffffffff1673ffffffffffffffffffffffffffffffffffffffff16815260200190815260200160002060060160009054906101000a900460ff1661048c576040517f08c379a000000000000000000000000000000000000000000000000000000000815260040161048390614358565b60405180910390fd5b600860008373ffffffffffffffffffffffffffffffffffffffff1673ffffffffffffffffffffffffffffffffffffffff168152602001908152602001600020604051806101000160405290816000820160009054906101000a900473ffffffffffffffffffffffffffffffffffffffff1673ffffffffffffffffffffffffffffffffffffffff1673ffffffffffffffffffffffffffffffffffffffff16815260200160018201548152602001600282018054610547906143a7565b80601f0160208091040260200160405190810160405280929190818152602001828054610573906143a7565b80156105c05780601f10610595576101008083540402835291602001916105c0565b820191906000526020600020905b8154815290600101906020018083116105a357829003601f168201915b50505050508152602001600382015481526020016004820180546105e3906143a7565b80601f016020809104026020016040519081016040528092919081815260200182805461060f906143a7565b801561065c5780601f106106315761010080835404028352916020019161065c565b820191906000526020600020905b81548152906001019060200180831161063f57829003601f168201915b50505050508152602001600582015481526020016006820160009054906101000a900460ff161515151581526020016007820180548060200260200160405190810160405280929190818152602001828054801561070f57602002820191906000526020600020905b8160009054906101000a900473ffffffffffffffffffffffffffffffffffffffff1673ffffffffffffffffffffffffffffffffffffffff16815260200190600101908083116106c5575b5050505050815250509050919050565b6000602052806000526040600020600091509050806000015490806001018054610748906143a7565b80601f0160208091040260200160405190810160405280929190818152602001828054610774906143a7565b80156107c15780601f10610796576101008083540402835291602001916107c1565b820191906000526020600020905b8154815290600101906020018083116107a457829003601f168201915b5050505050908060020180546107d6906143a7565b80601f0160208091040260200160405190810160405280929190818152602001828054610802906143a7565b801561084f5780601f106108245761010080835404028352916020019161084f565b820191906000526020600020905b81548152906001019060200180831161083257829003601f168201915b505050505090806003018054610864906143a7565b80601f0160208091040260200160405190810160405280929190818152602001828054610890906143a7565b80156108dd5780601f106108b2576101008083540402835291602001916108dd565b820191906000526020600020905b8154815290600101906020018083116108c057829003601f168201915b5050505050908060040180546108f2906143a7565b80601f016020809104026020016040519081016040528092919081815260200182805461091e906143a7565b801561096b5780601f106109405761010080835404028352916020019161096b565b820191906000526020600020905b81548152906001019060200180831161094e57829003601f168201915b505050505090806005018054610980906143a7565b80601f01602080910402602001604051908101604052809291908181526020018280546109ac906143a7565b80156109f95780601f106109ce576101008083540402835291602001916109f9565b820191906000526020600020905b8154815290600101906020018083116109dc57829003601f168201915b505050505090806006018054610a0e906143a7565b80601f0160208091040260200160405190810160405280929190818152602001828054610a3a906143a7565b8015610a875780601f10610a5c57610100808354040283529160200191610a87565b820191906000526020600020905b815481529060010190602001808311610a6a57829003601f168201915b505050505090806007018054610a9c906143a7565b80601f0160208091040260200160405190810160405280929190818152602001828054610ac8906143a7565b8015610b155780601f10610aea57610100808354040283529160200191610b15565b820191906000526020600020905b815481529060010190602001808311610af857829003601f168201915b5050505050905088565b610b27613058565b600760008373ffffffffffffffffffffffffffffffffffffffff1673ffffffffffffffffffffffffffffffffffffffff16815260200190815260200160002060080160009054906101000a900460ff16610bb6576040517f08c379a0000000000000000000000000000000000000000000000000000000008152600401610bad90614424565b60405180910390fd5b600760008373ffffffffffffffffffffffffffffffffffffffff1673ffffffffffffffffffffffffffffffffffffffff168152602001908152602001600020604051806101200160405290816000820160009054906101000a900473ffffffffffffffffffffffffffffffffffffffff1673ffffffffffffffffffffffffffffffffffffffff1673ffffffffffffffffffffffffffffffffffffffff16815260200160018201548152602001600282018054610c71906143a7565b80601f0160208091040260200160405190810160405280929190818152602001828054610c9d906143a7565b8015610cea5780601f10610cbf57610100808354040283529160200191610cea565b820191906000526020600020905b815481529060010190602001808311610ccd57829003601f168201915b50505050508152602001600382018054610d03906143a7565b80601f0160208091040260200160405190810160405280929190818152602001828054610d2f906143a7565b8015610d7c5780601f10610d5157610100808354040283529160200191610d7c565b820191906000526020600020905b815481529060010190602001808311610d5f57829003601f168201915b5050505050815260200160048201548152602001600582015481526020016006820154815260200160078201805480602002602001604051908101604052809291908181526020018280548015610e2857602002820191906000526020600020905b8160009054906101000a900473ffffffffffffffffffffffffffffffffffffffff1673ffffffffffffffffffffffffffffffffffffffff1681526020019060010190808311610dde575b505050505081526020016008820160009054906101000a900460ff1615151515815250509050919050565b600181908060018154018082558091505060019003906000526020600020016000909190919091509081610e8791906145f0565b5050565b604051806101000160405280898152602001888152602001878152602001868152602001858152602001848152602001838152602001828152506000808b73ffffffffffffffffffffffffffffffffffffffff1673ffffffffffffffffffffffffffffffffffffffff168152602001908152602001600020600082015181600001556020820151816001019081610f2291906145f0565b506040820151816002019081610f3891906145f0565b506060820151816003019081610f4e91906145f0565b506080820151816004019081610f6491906145f0565b5060a0820151816005019081610f7a91906145f0565b5060c0820151816006019081610f9091906145f0565b5060e0820151816007019081610fa691906145f0565b50905050505050505050505050565b600033905060001515600860008373ffffffffffffffffffffffffffffffffffffffff1673ffffffffffffffffffffffffffffffffffffffff16815260200190815260200160002060060160009054906101000a900460ff16151514611050576040517f08c379a00000000000000000000000000000000000000000000000000000000081526004016110479061470e565b60405180910390fd5b6000600860008373ffffffffffffffffffffffffffffffffffffffff1673ffffffffffffffffffffffffffffffffffffffff1681526020019081526020016000209050818160000160006101000a81548173ffffffffffffffffffffffffffffffffffffffff021916908373ffffffffffffffffffffffffffffffffffffffff160217905550868160010181905550858160020190816110f091906145f0565b508481600301819055508381600401908161110b91906145f0565b5082816005018190555060018160060160006101000a81548160ff02191690831515021790555050505050505050565b600b8190806001815401808255809150506001900390600052602060002001600090919091909150908161116f91906145f0565b5050565b7f675bc9802ff0994bbcafe826bffd0f15ec0a3ec17fd0cfbe035a08cbededf8a38380519060200120036118bf57600660003373ffffffffffffffffffffffffffffffffffffffff1673ffffffffffffffffffffffffffffffffffffffff16815260200190815260200160002060060160009054906101000a900460ff16611230576040517f08c379a00000000000000000000000000000000000000000000000000000000081526004016112279061477a565b60405180910390fd5b7f81801538196f6575c6900044ae3429ef092e7ad29a7f4da69ed7f897d69f575982805190602001200361138b576000600760008373ffffffffffffffffffffffffffffffffffffffff1673ffffffffffffffffffffffffffffffffffffffff16815260200190815260200160002060050154036112e3576040517f08c379a00000000000000000000000000000000000000000000000000000000081526004016112da90614424565b60405180910390fd5b600760008273ffffffffffffffffffffffffffffffffffffffff1673ffffffffffffffffffffffffffffffffffffffff168152602001908152602001600020600701339080600181540180825580915050600190039060005260206000200160009091909190916101000a81548173ffffffffffffffffffffffffffffffffffffffff021916908373ffffffffffffffffffffffffffffffffffffffff1602179055506118be565b7f25c5b8ad70a2aae48e105ad1defb4db2071cfe805f37688493811662827be14282805190602001200361153257600073ffffffffffffffffffffffffffffffffffffffff16600860008373ffffffffffffffffffffffffffffffffffffffff1673ffffffffffffffffffffffffffffffffffffffff16815260200190815260200160002060000160009054906101000a900473ffffffffffffffffffffffffffffffffffffffff1673ffffffffffffffffffffffffffffffffffffffff160361148a576040517f08c379a0000000000000000000000000000000000000000000000000000000008152600401611481906147e6565b60405180910390fd5b600860008273ffffffffffffffffffffffffffffffffffffffff1673ffffffffffffffffffffffffffffffffffffffff168152602001908152602001600020600701339080600181540180825580915050600190039060005260206000200160009091909190916101000a81548173ffffffffffffffffffffffffffffffffffffffff021916908373ffffffffffffffffffffffffffffffffffffffff1602179055506118bd565b7f8aef25603e09a14c263a6e271c085f8e2764c5df2a79ce7ef9270a7bdd45072c8280519060200120036116d957600073ffffffffffffffffffffffffffffffffffffffff16600960008373ffffffffffffffffffffffffffffffffffffffff1673ffffffffffffffffffffffffffffffffffffffff16815260200190815260200160002060000160009054906101000a900473ffffffffffffffffffffffffffffffffffffffff1673ffffffffffffffffffffffffffffffffffffffff1603611631576040517f08c379a000000000000000000000000000000000000000000000000000000000815260040161162890614878565b60405180910390fd5b600960008273ffffffffffffffffffffffffffffffffffffffff1673ffffffffffffffffffffffffffffffffffffffff168152602001908152602001600020600701339080600181540180825580915050600190039060005260206000200160009091909190916101000a81548173ffffffffffffffffffffffffffffffffffffffff021916908373ffffffffffffffffffffffffffffffffffffffff1602179055506118bc565b7f07e343dc849601cdf88dd1e300e4fa5a1a1ae98568c5b9d8cea9dacb2617385a82805190602001200361188057600073ffffffffffffffffffffffffffffffffffffffff16600a60008373ffffffffffffffffffffffffffffffffffffffff1673ffffffffffffffffffffffffffffffffffffffff16815260200190815260200160002060000160009054906101000a900473ffffffffffffffffffffffffffffffffffffffff1673ffffffffffffffffffffffffffffffffffffffff16036117d8576040517f08c379a00000000000000000000000000000000000000000000000000000000081526004016117cf906148e4565b60405180910390fd5b600a60008273ffffffffffffffffffffffffffffffffffffffff1673ffffffffffffffffffffffffffffffffffffffff168152602001908152602001600020600701339080600181540180825580915050600190039060005260206000200160009091909190916101000a81548173ffffffffffffffffffffffffffffffffffffffff021916908373ffffffffffffffffffffffffffffffffffffffff1602179055506118bb565b6040517f08c379a00000000000000000000000000000000000000000000000000000000081526004016118b290614950565b60405180910390fd5b5b5b5b5b505050565b600033905060001515600a60008373ffffffffffffffffffffffffffffffffffffffff1673ffffffffffffffffffffffffffffffffffffffff16815260200190815260200160002060060160009054906101000a900460ff1615151461195f576040517f08c379a00000000000000000000000000000000000000000000000000000000081526004016119569061470e565b60405180910390fd5b6000600a60008373ffffffffffffffffffffffffffffffffffffffff1673ffffffffffffffffffffffffffffffffffffffff1681526020019081526020016000209050818160000160006101000a81548173ffffffffffffffffffffffffffffffffffffffff021916908373ffffffffffffffffffffffffffffffffffffffff160217905550868160010181905550858160020190816119ff91906145f0565b5084816003018190555083816004019081611a1a91906145f0565b5082816005018190555060018160060160006101000a81548160ff02191690831515021790555050505050505050565b60018181548110611a5a57600080fd5b906000526020600020016000915090508054611a75906143a7565b80601f0160208091040260200160405190810160405280929190818152602001828054611aa1906143a7565b8015611aee5780601f10611ac357610100808354040283529160200191611aee565b820191906000526020600020905b815481529060010190602001808311611ad157829003601f168201915b505050505081565b611afe6130bc565b600a60008373ffffffffffffffffffffffffffffffffffffffff1673ffffffffffffffffffffffffffffffffffffffff16815260200190815260200160002060060160009054906101000a900460ff16611b8d576040517f08c379a0000000000000000000000000000000000000000000000000000000008152600401611b84906149e2565b60405180910390fd5b600a60008373ffffffffffffffffffffffffffffffffffffffff1673ffffffffffffffffffffffffffffffffffffffff168152602001908152602001600020604051806101000160405290816000820160009054906101000a900473ffffffffffffffffffffffffffffffffffffffff1673ffffffffffffffffffffffffffffffffffffffff1673ffffffffffffffffffffffffffffffffffffffff16815260200160018201548152602001600282018054611c48906143a7565b80601f0160208091040260200160405190810160405280929190818152602001828054611c74906143a7565b8015611cc15780601f10611c9657610100808354040283529160200191611cc1565b820191906000526020600020905b815481529060010190602001808311611ca457829003601f168201915b5050505050815260200160038201548152602001600482018054611ce4906143a7565b80601f0160208091040260200160405190810160405280929190818152602001828054611d10906143a7565b8015611d5d5780601f10611d3257610100808354040283529160200191611d5d565b820191906000526020600020905b815481529060010190602001808311611d4057829003601f168201915b50505050508152602001600582015481526020016006820160009054906101000a900460ff1615151515815260200160078201805480602002602001604051908101604052809291908181526020018280548015611e1057602002820191906000526020600020905b8160009054906101000a900473ffffffffffffffffffffffffffffffffffffffff1673ffffffffffffffffffffffffffffffffffffffff1681526020019060010190808311611dc6575b5050505050815250509050919050565b611e28613119565b600660008373ffffffffffffffffffffffffffffffffffffffff1673ffffffffffffffffffffffffffffffffffffffff16815260200190815260200160002060060160009054906101000a900460ff16611eb7576040517f08c379a0000000000000000000000000000000000000000000000000000000008152600401611eae9061477a565b60405180910390fd5b600660008373ffffffffffffffffffffffffffffffffffffffff1673ffffffffffffffffffffffffffffffffffffffff168152602001908152602001600020604051806101000160405290816000820160009054906101000a900473ffffffffffffffffffffffffffffffffffffffff1673ffffffffffffffffffffffffffffffffffffffff1673ffffffffffffffffffffffffffffffffffffffff16815260200160018201548152602001600282018054611f72906143a7565b80601f0160208091040260200160405190810160405280929190818152602001828054611f9e906143a7565b8015611feb5780601f10611fc057610100808354040283529160200191611feb565b820191906000526020600020905b815481529060010190602001808311611fce57829003601f168201915b50505050508152602001600382018054612004906143a7565b80601f0160208091040260200160405190810160405280929190818152602001828054612030906143a7565b801561207d5780601f106120525761010080835404028352916020019161207d565b820191906000526020600020905b81548152906001019060200180831161206057829003601f168201915b50505050508152602001600482015481526020016005820180546120a0906143a7565b80601f01602080910402602001604051908101604052809291908181526020018280546120cc906143a7565b80156121195780601f106120ee57610100808354040283529160200191612119565b820191906000526020600020905b8154815290600101906020018083116120fc57829003601f168201915b505050505081526020016006820160009054906101000a900460ff16151515158152602001600782016040518061010001604052908160008201548152602001600182018054612168906143a7565b80601f0160208091040260200160405190810160405280929190818152602001828054612194906143a7565b80156121e15780601f106121b6576101008083540402835291602001916121e1565b820191906000526020600020905b8154815290600101906020018083116121c457829003601f168201915b505050505081526020016002820180546121fa906143a7565b80601f0160208091040260200160405190810160405280929190818152602001828054612226906143a7565b80156122735780601f1061224857610100808354040283529160200191612273565b820191906000526020600020905b81548152906001019060200180831161225657829003601f168201915b5050505050815260200160038201805461228c906143a7565b80601f01602080910402602001604051908101604052809291908181526020018280546122b8906143a7565b80156123055780601f106122da57610100808354040283529160200191612305565b820191906000526020600020905b8154815290600101906020018083116122e857829003601f168201915b5050505050815260200160048201805461231e906143a7565b80601f016020809104026020016040519081016040528092919081815260200182805461234a906143a7565b80156123975780601f1061236c57610100808354040283529160200191612397565b820191906000526020600020905b81548152906001019060200180831161237a57829003601f168201915b505050505081526020016005820180546123b0906143a7565b80601f01602080910402602001604051908101604052809291908181526020018280546123dc906143a7565b80156124295780601f106123fe57610100808354040283529160200191612429565b820191906000526020600020905b81548152906001019060200180831161240c57829003601f168201915b50505050508152602001600682018054612442906143a7565b80601f016020809104026020016040519081016040528092919081815260200182805461246e906143a7565b80156124bb5780601f10612490576101008083540402835291602001916124bb565b820191906000526020600020905b81548152906001019060200180831161249e57829003601f168201915b505050505081526020016007820180546124d4906143a7565b80601f0160208091040260200160405190810160405280929190818152602001828054612500906143a7565b801561254d5780601f106125225761010080835404028352916020019161254d565b820191906000526020600020905b81548152906001019060200180831161253057829003601f168201915b505050505081525050815250509050919050565b6060600260008373ffffffffffffffffffffffffffffffffffffffff1673ffffffffffffffffffffffffffffffffffffffff168152602001908152602001600020805480602002602001604051908101604052809291908181526020016000905b8282101561266e5783829060005260206000200180546125e1906143a7565b80601f016020809104026020016040519081016040528092919081815260200182805461260d906143a7565b801561265a5780601f1061262f5761010080835404028352916020019161265a565b820191906000526020600020905b81548152906001019060200180831161263d57829003601f168201915b5050505050815260200190600101906125c2565b505050509050919050565b600033905060001515600960008373ffffffffffffffffffffffffffffffffffffffff1673ffffffffffffffffffffffffffffffffffffffff16815260200190815260200160002060060160009054906101000a900460ff16151514612714576040517f08c379a000000000000000000000000000000000000000000000000000000000815260040161270b9061470e565b60405180910390fd5b6000600960008373ffffffffffffffffffffffffffffffffffffffff1673ffffffffffffffffffffffffffffffffffffffff1681526020019081526020016000209050818160000160006101000a81548173ffffffffffffffffffffffffffffffffffffffff021916908373ffffffffffffffffffffffffffffffffffffffff160217905550868160010181905550858160020190816127b491906145f0565b50848160030181905550838160040190816127cf91906145f0565b50828160050190816127e191906145f0565b5060018160060160006101000a81548160ff02191690831515021790555050505050505050565b600033905060001515600660008373ffffffffffffffffffffffffffffffffffffffff1673ffffffffffffffffffffffffffffffffffffffff16815260200190815260200160002060060160009054906101000a900460ff161515146128a3576040517f08c379a000000000000000000000000000000000000000000000000000000000815260040161289a90614a74565b60405180910390fd5b6000600660008373ffffffffffffffffffffffffffffffffffffffff1673ffffffffffffffffffffffffffffffffffffffff1681526020019081526020016000209050818160000160006101000a81548173ffffffffffffffffffffffffffffffffffffffff021916908373ffffffffffffffffffffffffffffffffffffffff1602179055508681600101819055508581600201908161294391906145f0565b508481600301908161295591906145f0565b508381600401819055508281600501908161297091906145f0565b5060018160060160006101000a81548160ff02191690831515021790555050505050505050565b600260008373ffffffffffffffffffffffffffffffffffffffff1673ffffffffffffffffffffffffffffffffffffffff16815260200190815260200160002081908060018154018082558091505060019003906000526020600020016000909190919091509081612a0891906145f0565b505050565b600b8181548110612a1d57600080fd5b906000526020600020016000915090508054612a38906143a7565b80601f0160208091040260200160405190810160405280929190818152602001828054612a64906143a7565b8015612ab15780601f10612a8657610100808354040283529160200191612ab1565b820191906000526020600020905b815481529060010190602001808311612a9457829003601f168201915b505050505081565b612ac161317c565b600960008373ffffffffffffffffffffffffffffffffffffffff1673ffffffffffffffffffffffffffffffffffffffff16815260200190815260200160002060060160009054906101000a900460ff16612b50576040517f08c379a0000000000000000000000000000000000000000000000000000000008152600401612b4790614b06565b60405180910390fd5b600960008373ffffffffffffffffffffffffffffffffffffffff1673ffffffffffffffffffffffffffffffffffffffff168152602001908152602001600020604051806101000160405290816000820160009054906101000a900473ffffffffffffffffffffffffffffffffffffffff1673ffffffffffffffffffffffffffffffffffffffff1673ffffffffffffffffffffffffffffffffffffffff16815260200160018201548152602001600282018054612c0b906143a7565b80601f0160208091040260200160405190810160405280929190818152602001828054612c37906143a7565b8015612c845780601f10612c5957610100808354040283529160200191612c84565b820191906000526020600020905b815481529060010190602001808311612c6757829003601f168201915b5050505050815260200160038201548152602001600482018054612ca7906143a7565b80601f0160208091040260200160405190810160405280929190818152602001828054612cd3906143a7565b8015612d205780601f10612cf557610100808354040283529160200191612d20565b820191906000526020600020905b815481529060010190602001808311612d0357829003601f168201915b50505050508152602001600582018054612d39906143a7565b80601f0160208091040260200160405190810160405280929190818152602001828054612d65906143a7565b8015612db25780601f10612d8757610100808354040283529160200191612db2565b820191906000526020600020905b815481529060010190602001808311612d9557829003601f168201915b505050505081526020016006820160009054906101000a900460ff1615151515815260200160078201805480602002602001604051908101604052809291908181526020018280548015612e5b57602002820191906000526020600020905b8160009054906101000a900473ffffffffffffffffffffffffffffffffffffffff1673ffffffffffffffffffffffffffffffffffffffff1681526020019060010190808311612e11575b5050505050815250509050919050565b600033905060001515600760008373ffffffffffffffffffffffffffffffffffffffff1673ffffffffffffffffffffffffffffffffffffffff16815260200190815260200160002060080160009054906101000a900460ff16151514612f06576040517f08c379a0000000000000000000000000000000000000000000000000000000008152600401612efd9061470e565b60405180910390fd5b6000600760008373ffffffffffffffffffffffffffffffffffffffff1673ffffffffffffffffffffffffffffffffffffffff1681526020019081526020016000209050818160000160006101000a81548173ffffffffffffffffffffffffffffffffffffffff021916908373ffffffffffffffffffffffffffffffffffffffff16021790555087816001018190555086816002019081612fa691906145f0565b5085816003019081612fb891906145f0565b5084816004018190555083816005018190555082816006018190555060018160080160006101000a81548160ff0219169083151502179055505050505050505050565b604051806101000160405280600073ffffffffffffffffffffffffffffffffffffffff1681526020016000815260200160608152602001600081526020016060815260200160008152602001600015158152602001606081525090565b604051806101200160405280600073ffffffffffffffffffffffffffffffffffffffff168152602001600081526020016060815260200160608152602001600081526020016000815260200160008152602001606081526020016000151581525090565b604051806101000160405280600073ffffffffffffffffffffffffffffffffffffffff1681526020016000815260200160608152602001600081526020016060815260200160008152602001600015158152602001606081525090565b604051806101000160405280600073ffffffffffffffffffffffffffffffffffffffff16815260200160008152602001606081526020016060815260200160008152602001606081526020016000151581526020016131766131d9565b81525090565b604051806101000160405280600073ffffffffffffffffffffffffffffffffffffffff1681526020016000815260200160608152602001600081526020016060815260200160608152602001600015158152602001606081525090565b60405180610100016040528060008152602001606081526020016060815260200160608152602001606081526020016060815260200160608152602001606081525090565b6000604051905090565b600080fd5b600080fd5b600073ffffffffffffffffffffffffffffffffffffffff82169050919050565b600061325d82613232565b9050919050565b61326d81613252565b811461327857600080fd5b50565b60008135905061328a81613264565b92915050565b6000602082840312156132a6576132a5613228565b5b60006132b48482850161327b565b91505092915050565b6132c681613252565b82525050565b6000819050919050565b6132df816132cc565b82525050565b600081519050919050565b600082825260208201905092915050565b60005b8381101561331f578082015181840152602081019050613304565b60008484015250505050565b6000601f19601f8301169050919050565b6000613347826132e5565b61335181856132f0565b9350613361818560208601613301565b61336a8161332b565b840191505092915050565b60008115159050919050565b61338a81613375565b82525050565b600081519050919050565b600082825260208201905092915050565b6000819050602082019050919050565b60006133c883836132bd565b60208301905092915050565b6000602082019050919050565b60006133ec82613390565b6133f6818561339b565b9350613401836133ac565b8060005b8381101561343257815161341988826133bc565b9750613424836133d4565b925050600181019050613405565b5085935050505092915050565b60006101008301600083015161345860008601826132bd565b50602083015161346b60208601826132d6565b5060408301518482036040860152613483828261333c565b915050606083015161349860608601826132d6565b50608083015184820360808601526134b0828261333c565b91505060a08301516134c560a08601826132d6565b5060c08301516134d860c0860182613381565b5060e083015184820360e08601526134f082826133e1565b9150508091505092915050565b60006020820190508181036000830152613517818461343f565b905092915050565b613528816132cc565b82525050565b600082825260208201905092915050565b600061354a826132e5565b613554818561352e565b9350613564818560208601613301565b61356d8161332b565b840191505092915050565b60006101008201905061358e600083018b61351f565b81810360208301526135a0818a61353f565b905081810360408301526135b4818961353f565b905081810360608301526135c8818861353f565b905081810360808301526135dc818761353f565b905081810360a08301526135f0818661353f565b905081810360c0830152613604818561353f565b905081810360e0830152613618818461353f565b90509998505050505050505050565b60006101208301600083015161364060008601826132bd565b50602083015161365360208601826132d6565b506040830151848203604086015261366b828261333c565b91505060608301518482036060860152613685828261333c565b915050608083015161369a60808601826132d6565b5060a08301516136ad60a08601826132d6565b5060c08301516136c060c08601826132d6565b5060e083015184820360e08601526136d882826133e1565b9150506101008301516136ef610100860182613381565b508091505092915050565b600060208201905081810360008301526137148184613627565b905092915050565b600080fd5b600080fd5b7f4e487b7100000000000000000000000000000000000000000000000000000000600052604160045260246000fd5b61375e8261332b565b810181811067ffffffffffffffff8211171561377d5761377c613726565b5b80604052505050565b600061379061321e565b905061379c8282613755565b919050565b600067ffffffffffffffff8211156137bc576137bb613726565b5b6137c58261332b565b9050602081019050919050565b82818337600083830152505050565b60006137f46137ef846137a1565b613786565b9050828152602081018484840111156138105761380f613721565b5b61381b8482856137d2565b509392505050565b600082601f8301126138385761383761371c565b5b81356138488482602086016137e1565b91505092915050565b60006020828403121561386757613866613228565b5b600082013567ffffffffffffffff8111156138855761388461322d565b5b61389184828501613823565b91505092915050565b6138a3816132cc565b81146138ae57600080fd5b50565b6000813590506138c08161389a565b92915050565b60008060008060008060008060006101208a8c0312156138e9576138e8613228565b5b60006138f78c828d0161327b565b99505060206139088c828d016138b1565b98505060408a013567ffffffffffffffff8111156139295761392861322d565b5b6139358c828d01613823565b97505060608a013567ffffffffffffffff8111156139565761395561322d565b5b6139628c828d01613823565b96505060808a013567ffffffffffffffff8111156139835761398261322d565b5b61398f8c828d01613823565b95505060a08a013567ffffffffffffffff8111156139b0576139af61322d565b5b6139bc8c828d01613823565b94505060c08a013567ffffffffffffffff8111156139dd576139dc61322d565b5b6139e98c828d01613823565b93505060e08a013567ffffffffffffffff811115613a0a57613a0961322d565b5b613a168c828d01613823565b9250506101008a013567ffffffffffffffff811115613a3857613a3761322d565b5b613a448c828d01613823565b9150509295985092959850929598565b600080600080600060a08688031215613a7057613a6f613228565b5b6000613a7e888289016138b1565b955050602086013567ffffffffffffffff811115613a9f57613a9e61322d565b5b613aab88828901613823565b9450506040613abc888289016138b1565b935050606086013567ffffffffffffffff811115613add57613adc61322d565b5b613ae988828901613823565b9250506080613afa888289016138b1565b9150509295509295909350565b600080600060608486031215613b2057613b1f613228565b5b600084013567ffffffffffffffff811115613b3e57613b3d61322d565b5b613b4a86828701613823565b935050602084013567ffffffffffffffff811115613b6b57613b6a61322d565b5b613b7786828701613823565b9250506040613b888682870161327b565b9150509250925092565b600060208284031215613ba857613ba7613228565b5b6000613bb6848285016138b1565b91505092915050565b60006020820190508181036000830152613bd9818461353f565b905092915050565b600061010083016000830151613bfa60008601826132bd565b506020830151613c0d60208601826132d6565b5060408301518482036040860152613c25828261333c565b9150506060830151613c3a60608601826132d6565b5060808301518482036080860152613c52828261333c565b91505060a0830151613c6760a08601826132d6565b5060c0830151613c7a60c0860182613381565b5060e083015184820360e0860152613c9282826133e1565b9150508091505092915050565b60006020820190508181036000830152613cb98184613be1565b905092915050565b600061010083016000830151613cda60008601826132d6565b5060208301518482036020860152613cf2828261333c565b91505060408301518482036040860152613d0c828261333c565b91505060608301518482036060860152613d26828261333c565b91505060808301518482036080860152613d40828261333c565b91505060a083015184820360a0860152613d5a828261333c565b91505060c083015184820360c0860152613d74828261333c565b91505060e083015184820360e0860152613d8e828261333c565b9150508091505092915050565b600061010083016000830151613db460008601826132bd565b506020830151613dc760208601826132d6565b5060408301518482036040860152613ddf828261333c565b91505060608301518482036060860152613df9828261333c565b9150506080830151613e0e60808601826132d6565b5060a083015184820360a0860152613e26828261333c565b91505060c0830151613e3b60c0860182613381565b5060e083015184820360e0860152613e538282613cc1565b9150508091505092915050565b60006020820190508181036000830152613e7a8184613d9b565b905092915050565b600081519050919050565b600082825260208201905092915050565b6000819050602082019050919050565b6000613eba838361333c565b905092915050565b6000602082019050919050565b6000613eda82613e82565b613ee48185613e8d565b935083602082028501613ef685613e9e565b8060005b85811015613f325784840389528151613f138582613eae565b9450613f1e83613ec2565b925060208a01995050600181019050613efa565b50829750879550505050505092915050565b60006020820190508181036000830152613f5e8184613ecf565b905092915050565b600080600080600060a08688031215613f8257613f81613228565b5b6000613f90888289016138b1565b955050602086013567ffffffffffffffff811115613fb157613fb061322d565b5b613fbd88828901613823565b9450506040613fce888289016138b1565b935050606086013567ffffffffffffffff811115613fef57613fee61322d565b5b613ffb88828901613823565b925050608086013567ffffffffffffffff81111561401c5761401b61322d565b5b61402888828901613823565b9150509295509295909350565b600080600080600060a0868803121561405157614050613228565b5b600061405f888289016138b1565b955050602086013567ffffffffffffffff8111156140805761407f61322d565b5b61408c88828901613823565b945050604086013567ffffffffffffffff8111156140ad576140ac61322d565b5b6140b988828901613823565b93505060606140ca888289016138b1565b925050608086013567ffffffffffffffff8111156140eb576140ea61322d565b5b6140f788828901613823565b9150509295509295909350565b6000806040838503121561411b5761411a613228565b5b60006141298582860161327b565b925050602083013567ffffffffffffffff81111561414a5761414961322d565b5b61415685828601613823565b9150509250929050565b60006101008301600083015161417960008601826132bd565b50602083015161418c60208601826132d6565b50604083015184820360408601526141a4828261333c565b91505060608301516141b960608601826132d6565b50608083015184820360808601526141d1828261333c565b91505060a083015184820360a08601526141eb828261333c565b91505060c083015161420060c0860182613381565b5060e083015184820360e086015261421882826133e1565b9150508091505092915050565b6000602082019050818103600083015261423f8184614160565b905092915050565b60008060008060008060c0878903121561426457614263613228565b5b600061427289828a016138b1565b965050602087013567ffffffffffffffff8111156142935761429261322d565b5b61429f89828a01613823565b955050604087013567ffffffffffffffff8111156142c0576142bf61322d565b5b6142cc89828a01613823565b94505060606142dd89828a016138b1565b93505060806142ee89828a016138b1565b92505060a06142ff89828a016138b1565b9150509295509295509295565b7f706174686f6c6f676973747320646f6573206e6f742065786973740000000000600082015250565b6000614342601b8361352e565b915061434d8261430c565b602082019050919050565b6000602082019050818103600083015261437181614335565b9050919050565b7f4e487b7100000000000000000000000000000000000000000000000000000000600052602260045260246000fd5b600060028204905060018216806143bf57607f821691505b6020821081036143d2576143d1614378565b5b50919050565b7f446f63746f7220646f6573206e6f742065786973740000000000000000000000600082015250565b600061440e60158361352e565b9150614419826143d8565b602082019050919050565b6000602082019050818103600083015261443d81614401565b9050919050565b60008190508160005260206000209050919050565b60006020601f8301049050919050565b600082821b905092915050565b6000600883026144a67fffffffffffffffffffffffffffffffffffffffffffffffffffffffffffffffff82614469565b6144b08683614469565b95508019841693508086168417925050509392505050565b6000819050919050565b60006144ed6144e86144e3846132cc565b6144c8565b6132cc565b9050919050565b6000819050919050565b614507836144d2565b61451b614513826144f4565b848454614476565b825550505050565b600090565b614530614523565b61453b8184846144fe565b505050565b5b8181101561455f57614554600082614528565b600181019050614541565b5050565b601f8211156145a45761457581614444565b61457e84614459565b8101602085101561458d578190505b6145a161459985614459565b830182614540565b50505b505050565b600082821c905092915050565b60006145c7600019846008026145a9565b1980831691505092915050565b60006145e083836145b6565b9150826002028217905092915050565b6145f9826132e5565b67ffffffffffffffff81111561461257614611613726565b5b61461c82546143a7565b614627828285614563565b600060209050601f83116001811461465a5760008415614648578287015190505b61465285826145d4565b8655506146ba565b601f19841661466886614444565b60005b828110156146905784890151825560018201915060208501945060208101905061466b565b868310156146ad57848901516146a9601f8916826145b6565b8355505b6001600288020188555050505b505050505050565b7f796f7520616c72656164792063726561746520796f75722070726f66696c6500600082015250565b60006146f8601f8361352e565b9150614703826146c2565b602082019050919050565b60006020820190508181036000830152614727816146eb565b9050919050565b7f50617469656e7420646f6573206e6f7420657869737400000000000000000000600082015250565b600061476460168361352e565b915061476f8261472e565b602082019050919050565b6000602082019050818103600083015261479381614757565b9050919050565b7f506174686f6c6f6769737420646f6573206e6f74206578697374000000000000600082015250565b60006147d0601a8361352e565b91506147db8261479a565b602082019050919050565b600060208201905081810360008301526147ff816147c3565b9050919050565b7f4d65646963616c205265736561726368204c616220646f6573206e6f7420657860008201527f6973740000000000000000000000000000000000000000000000000000000000602082015250565b600061486260238361352e565b915061486d82614806565b604082019050919050565b6000602082019050818103600083015261489181614855565b9050919050565b7f506861726d61637920436f6d70616e7920646f6573206e6f7420657869737400600082015250565b60006148ce601f8361352e565b91506148d982614898565b602082019050919050565b600060208201905081810360008301526148fd816148c1565b9050919050565b7f556e737570706f7274656420656e746974792074797065000000000000000000600082015250565b600061493a60178361352e565b915061494582614904565b602082019050919050565b600060208201905081810360008301526149698161492d565b9050919050565b7f506861726d61637920436f6d70616e69657320646f6573206e6f74206578697360008201527f7400000000000000000000000000000000000000000000000000000000000000602082015250565b60006149cc60218361352e565b91506149d782614970565b604082019050919050565b600060208201905081810360008301526149fb816149bf565b9050919050565b7f596f75206861766520616c7265616479206372656174656420796f757220707260008201527f6f66696c65000000000000000000000000000000000000000000000000000000602082015250565b6000614a5e60258361352e565b9150614a6982614a02565b604082019050919050565b60006020820190508181036000830152614a8d81614a51565b9050919050565b7f4d65646963616c205265736561726368206c616220646f6573206e6f7420657860008201527f6973740000000000000000000000000000000000000000000000000000000000602082015250565b6000614af060238361352e565b9150614afb82614a94565b604082019050919050565b60006020820190508181036000830152614b1f81614ae3565b905091905056fea2646970667358221220e99ffa067e9a02e2b91ff9528ce2467904461a2db30dc515113709b4b66adb4664736f6c63430008110033",
  "linkReferences": {},
  "deployedLinkReferences": {}
}