{
  "_format": "hh-sol-artifact-1",
  "contractName": "MedicalData",
  "sourceName": "contracts/patientDataManagement.sol",
  "abi": [
    {
      "inputs": [
        {
          "internalType": "address",
          "name": "useraddress",
          "type": "address"
        }
      ],
      "name": "ConnectedAccountType",
      "outputs": [
        {
          "internalType": "uint256",
          "name": "",
          "type": "uint256"
        }
      ],
      "stateMutability": "view",
      "type": "function"
    },
    {
      "inputs": [
        {
          "internalType": "address",
          "name": "",
          "type": "address"
        }
      ],
      "name": "accounts",
      "outputs": [
        {
          "internalType": "uint256",
          "name": "",
          "type": "uint256"
        }
      ],
      "stateMutability": "view",
      "type": "function"
    },
    {
      "inputs": [
        {
          "internalType": "address",
          "name": "_user",
          "type": "address"
        },
        {
          "internalType": "string",
          "name": "url",
          "type": "string"
        }
      ],
      "name": "add",
      "outputs": [],
      "stateMutability": "nonpayable",
      "type": "function"
    },
    {
      "inputs": [
        {
          "internalType": "string",
          "name": "report",
          "type": "string"
        }
      ],
      "name": "addLabReport",
      "outputs": [],
      "stateMutability": "nonpayable",
      "type": "function"
    },
    {
      "inputs": [
        {
          "internalType": "string",
          "name": "medichine",
          "type": "string"
        }
      ],
      "name": "addTopMedichine",
      "outputs": [],
      "stateMutability": "nonpayable",
      "type": "function"
    },
    {
      "inputs": [
        {
          "internalType": "address",
          "name": "user",
          "type": "address"
        }
      ],
      "name": "addaddress",
      "outputs": [],
      "stateMutability": "nonpayable",
      "type": "function"
    },
    {
      "inputs": [],
      "name": "displayImage",
      "outputs": [
        {
          "internalType": "string[]",
          "name": "",
          "type": "string[]"
        }
      ],
      "stateMutability": "view",
      "type": "function"
    },
    {
      "inputs": [
        {
          "internalType": "address",
          "name": "_doctorAddress",
          "type": "address"
        }
      ],
      "name": "getDoctor",
      "outputs": [
        {
          "components": [
            {
              "internalType": "address",
              "name": "DoctorAddress",
              "type": "address"
            },
            {
              "internalType": "uint256",
              "name": "doctorID",
              "type": "uint256"
            },
            {
              "internalType": "string",
              "name": "name",
              "type": "string"
            },
            {
              "internalType": "string",
              "name": "specialty",
              "type": "string"
            },
            {
              "internalType": "uint256",
              "name": "consultationFee",
              "type": "uint256"
            },
            {
              "internalType": "uint256",
              "name": "BMDCNumber",
              "type": "uint256"
            },
            {
              "internalType": "uint256",
              "name": "yearOfExperience",
              "type": "uint256"
            },
            {
              "internalType": "address[]",
              "name": "allPatientsAddressSharedToDoctor",
              "type": "address[]"
            },
            {
              "internalType": "bool",
              "name": "isAdded",
              "type": "bool"
            },
            {
              "internalType": "string",
              "name": "userType",
              "type": "string"
            }
          ],
          "internalType": "struct MedicalData.Doctor",
          "name": "",
          "type": "tuple"
        }
      ],
      "stateMutability": "view",
      "type": "function"
    },
    {
      "inputs": [
        {
          "internalType": "address",
          "name": "_labAddress",
          "type": "address"
        }
      ],
      "name": "getMedicalResearchLab",
      "outputs": [
        {
          "internalType": "address[]",
          "name": "",
          "type": "address[]"
        }
      ],
      "stateMutability": "view",
      "type": "function"
    },
    {
      "inputs": [
        {
          "internalType": "address",
          "name": "_pathologistAddress",
          "type": "address"
        }
      ],
      "name": "getPathologist",
      "outputs": [
        {
          "components": [
            {
              "internalType": "address",
              "name": "pathologistAddress",
              "type": "address"
            },
            {
              "internalType": "uint256",
              "name": "pathologistID",
              "type": "uint256"
            },
            {
              "internalType": "string",
              "name": "name",
              "type": "string"
            },
            {
              "internalType": "uint256",
              "name": "licenseNumber",
              "type": "uint256"
            },
            {
              "internalType": "string",
              "name": "specializationArea",
              "type": "string"
            },
            {
              "internalType": "uint256",
              "name": "totalExperience",
              "type": "uint256"
            },
            {
              "internalType": "bool",
              "name": "isAdded",
              "type": "bool"
            },
            {
              "internalType": "address[]",
              "name": "allPatientsAddressSharedTopathologist",
              "type": "address[]"
            },
            {
              "internalType": "string",
              "name": "userType",
              "type": "string"
            }
          ],
          "internalType": "struct MedicalData.Pathologist",
          "name": "",
          "type": "tuple"
        }
      ],
      "stateMutability": "view",
      "type": "function"
    },
    {
      "inputs": [
        {
          "internalType": "address",
          "name": "_patientAddress",
          "type": "address"
        }
      ],
      "name": "getPatient",
      "outputs": [
        {
          "components": [
            {
              "internalType": "address",
              "name": "patientAddress",
              "type": "address"
            },
            {
              "internalType": "uint256",
              "name": "patientID",
              "type": "uint256"
            },
            {
              "internalType": "string",
              "name": "name",
              "type": "string"
            },
            {
              "internalType": "string",
              "name": "gender",
              "type": "string"
            },
            {
              "internalType": "uint256",
              "name": "age",
              "type": "uint256"
            },
            {
              "internalType": "string",
              "name": "location",
              "type": "string"
            },
            {
              "internalType": "bool",
              "name": "isAdded",
              "type": "bool"
            },
            {
              "internalType": "string",
              "name": "userType",
              "type": "string"
            },
            {
              "internalType": "string[]",
              "name": "imgUrl",
              "type": "string[]"
            },
            {
              "components": [
                {
                  "internalType": "uint256",
                  "name": "height",
                  "type": "uint256"
                },
                {
                  "internalType": "string",
                  "name": "Blood",
                  "type": "string"
                },
                {
                  "internalType": "string",
                  "name": "PreviousDiseases",
                  "type": "string"
                },
                {
                  "internalType": "string",
                  "name": "Medicinedrugs",
                  "type": "string"
                },
                {
                  "internalType": "string",
                  "name": "BadHabits",
                  "type": "string"
                },
                {
                  "internalType": "string",
                  "name": "ChronicDiseases",
                  "type": "string"
                },
                {
                  "internalType": "string",
                  "name": "HealthAllergies",
                  "type": "string"
                },
                {
                  "internalType": "string",
                  "name": "BirthDefects",
                  "type": "string"
                }
              ],
              "internalType": "struct MedicalData.PatientPersonalData",
              "name": "patientPersonalData",
              "type": "tuple"
            }
          ],
          "internalType": "struct MedicalData.Patient",
          "name": "",
          "type": "tuple"
        }
      ],
      "stateMutability": "view",
      "type": "function"
    },
    {
      "inputs": [
        {
          "internalType": "address",
          "name": "_pharmacyCompanyAddress",
          "type": "address"
        }
      ],
      "name": "getPharmacyCompany",
      "outputs": [
        {
          "components": [
            {
              "internalType": "address",
              "name": "pharmacyCompanyAddress",
              "type": "address"
            },
            {
              "internalType": "uint256",
              "name": "companyID",
              "type": "uint256"
            },
            {
              "internalType": "string",
              "name": "name",
              "type": "string"
            },
            {
              "internalType": "uint256",
              "name": "licenseID",
              "type": "uint256"
            },
            {
              "internalType": "string",
              "name": "productInformation",
              "type": "string"
            },
            {
              "internalType": "uint256",
              "name": "pharmacyRating",
              "type": "uint256"
            },
            {
              "internalType": "bool",
              "name": "isAdded",
              "type": "bool"
            },
            {
              "internalType": "address[]",
              "name": "allPatientAddressSharedToPharmacyCompany",
              "type": "address[]"
            },
            {
              "internalType": "string",
              "name": "userType",
              "type": "string"
            },
            {
              "internalType": "string[]",
              "name": "TopMedichine",
              "type": "string[]"
            }
          ],
          "internalType": "struct MedicalData.PharmacyCompany",
          "name": "",
          "type": "tuple"
        }
      ],
      "stateMutability": "view",
      "type": "function"
    },
    {
      "inputs": [
        {
          "internalType": "uint256",
          "name": "doctorID",
          "type": "uint256"
        },
        {
          "internalType": "string",
          "name": "name",
          "type": "string"
        },
        {
          "internalType": "string",
          "name": "specialty",
          "type": "string"
        },
        {
          "internalType": "uint256",
          "name": "consultationFee",
          "type": "uint256"
        },
        {
          "internalType": "uint256",
          "name": "BMDCNumber",
          "type": "uint256"
        },
        {
          "internalType": "uint256",
          "name": "yearOfExperience",
          "type": "uint256"
        }
      ],
      "name": "setDoctor",
      "outputs": [],
      "stateMutability": "nonpayable",
      "type": "function"
    },
    {
      "inputs": [
        {
          "internalType": "uint256",
          "name": "labID",
          "type": "uint256"
        },
        {
          "internalType": "string",
          "name": "name",
          "type": "string"
        },
        {
          "internalType": "uint256",
          "name": "licenseID",
          "type": "uint256"
        },
        {
          "internalType": "string",
          "name": "researchArea",
          "type": "string"
        },
        {
          "internalType": "uint256",
          "name": "labRating",
          "type": "uint256"
        }
      ],
      "name": "setMedicalResearchLab",
      "outputs": [],
      "stateMutability": "nonpayable",
      "type": "function"
    },
    {
      "inputs": [
        {
          "internalType": "uint256",
          "name": "pathologistID",
          "type": "uint256"
        },
        {
          "internalType": "string",
          "name": "name",
          "type": "string"
        },
        {
          "internalType": "uint256",
          "name": "licenseNumber",
          "type": "uint256"
        },
        {
          "internalType": "string",
          "name": "specializationArea",
          "type": "string"
        },
        {
          "internalType": "uint256",
          "name": "totalExperience",
          "type": "uint256"
        }
      ],
      "name": "setPathologist",
      "outputs": [],
      "stateMutability": "nonpayable",
      "type": "function"
    },
    {
      "inputs": [
        {
          "internalType": "uint256",
          "name": "patientID",
          "type": "uint256"
        },
        {
          "internalType": "string",
          "name": "name",
          "type": "string"
        },
        {
          "internalType": "string",
          "name": "gender",
          "type": "string"
        },
        {
          "internalType": "uint256",
          "name": "age",
          "type": "uint256"
        },
        {
          "internalType": "string",
          "name": "location",
          "type": "string"
        }
      ],
      "name": "setPatient",
      "outputs": [],
      "stateMutability": "nonpayable",
      "type": "function"
    },
    {
      "inputs": [
        {
          "internalType": "uint256",
          "name": "height",
          "type": "uint256"
        },
        {
          "internalType": "string",
          "name": "blood",
          "type": "string"
        },
        {
          "internalType": "string",
          "name": "previousDiseases",
          "type": "string"
        },
        {
          "internalType": "string",
          "name": "medicineDrugs",
          "type": "string"
        },
        {
          "internalType": "string",
          "name": "badHabits",
          "type": "string"
        },
        {
          "internalType": "string",
          "name": "chronicDiseases",
          "type": "string"
        },
        {
          "internalType": "string",
          "name": "healthAllergies",
          "type": "string"
        },
        {
          "internalType": "string",
          "name": "birthDefects",
          "type": "string"
        }
      ],
      "name": "setPatientPersonalData",
      "outputs": [],
      "stateMutability": "nonpayable",
      "type": "function"
    },
    {
      "inputs": [
        {
          "internalType": "uint256",
          "name": "companyID",
          "type": "uint256"
        },
        {
          "internalType": "string",
          "name": "name",
          "type": "string"
        },
        {
          "internalType": "uint256",
          "name": "licenseID",
          "type": "uint256"
        },
        {
          "internalType": "string",
          "name": "productInformation",
          "type": "string"
        },
        {
          "internalType": "uint256",
          "name": "pharmacyRating",
          "type": "uint256"
        }
      ],
      "name": "setPharmacyCompany",
      "outputs": [],
      "stateMutability": "nonpayable",
      "type": "function"
    },
    {
      "inputs": [
        {
          "internalType": "address",
          "name": "useraddress",
          "type": "address"
        }
      ],
      "name": "transferData",
      "outputs": [],
      "stateMutability": "nonpayable",
      "type": "function"
    }
  ],
  "bytecode": "0x608060405234801561001057600080fd5b50614c44806100206000396000f3fe608060405234801561001057600080fd5b50600436106101215760003560e01c806362d3f814116100ad578063b5368e2011610071578063b5368e2014610314578063d10b07d814610344578063d23fb52c14610360578063ea8c9e041461037c578063f4bffd5a146103ac57610121565b806362d3f814146102745780636757711b146102905780636bc071a5146102ac5780637ddd3f05146102c85780639059229b146102e457610121565b80632f04e064116100f45780632f04e064146101c057806336d6da55146101f057806339000b241461020c5780634ad3c0d1146102285780635e5c06e21461024457610121565b8063100d1a7f1461012657806316ecfa84146101425780631e10b2ea146101725780632a1ebd0114610190575b600080fd5b610140600480360381019061013b91906135ad565b6103c8565b005b61015c60048036038101906101579190613785565b6104f1565b60405161016991906139f3565b60405180910390f35b61017a6108ad565b6040516101879190613ad7565b60405180910390f35b6101aa60048036038101906101a59190613785565b6109c6565b6040516101b79190613b08565b60405180910390f35b6101da60048036038101906101d59190613785565b610af9565b6040516101e79190613c12565b60405180910390f35b61020a60048036038101906102059190613c34565b610ebf565b005b61022660048036038101906102219190613c90565b610fc7565b005b610242600480360381019061023d9190613785565b61103f565b005b61025e60048036038101906102599190613785565b6110e5565b60405161026b9190613b08565b60405180910390f35b61028e60048036038101906102899190613785565b6110fd565b005b6102aa60048036038101906102a59190613cd9565b6118a9565b005b6102c660048036038101906102c19190613c90565b611abb565b005b6102e260048036038101906102dd9190613cd9565b611b33565b005b6102fe60048036038101906102f99190613785565b611d45565b60405161030b9190613f08565b60405180910390f35b61032e60048036038101906103299190613785565b6121da565b60405161033b9190614101565b60405180910390f35b61035e60048036038101906103599190613cd9565b612a86565b005b61037a60048036038101906103759190614123565b612c98565b005b61039660048036038101906103919190613785565b612eb3565b6040516103a39190614261565b60405180910390f35b6103c660048036038101906103c19190614283565b613012565b005b604051806101000160405280898152602001888152602001878152602001868152602001858152602001848152602001838152602001828152506000803373ffffffffffffffffffffffffffffffffffffffff1673ffffffffffffffffffffffffffffffffffffffff16815260200190815260200160002060008201518160000155602082015181600101908161045f9190614554565b5060408201518160020190816104759190614554565b50606082015181600301908161048b9190614554565b5060808201518160040190816104a19190614554565b5060a08201518160050190816104b79190614554565b5060c08201518160060190816104cd9190614554565b5060e08201518160070190816104e39190614554565b509050505050505050505050565b6104f961322d565b600460008373ffffffffffffffffffffffffffffffffffffffff1673ffffffffffffffffffffffffffffffffffffffff16815260200190815260200160002060060160009054906101000a900460ff16610588576040517f08c379a000000000000000000000000000000000000000000000000000000000815260040161057f90614683565b60405180910390fd5b600460008373ffffffffffffffffffffffffffffffffffffffff1673ffffffffffffffffffffffffffffffffffffffff168152602001908152602001600020604051806101200160405290816000820160009054906101000a900473ffffffffffffffffffffffffffffffffffffffff1673ffffffffffffffffffffffffffffffffffffffff1673ffffffffffffffffffffffffffffffffffffffff1681526020016001820154815260200160028201805461064390614377565b80601f016020809104026020016040519081016040528092919081815260200182805461066f90614377565b80156106bc5780601f10610691576101008083540402835291602001916106bc565b820191906000526020600020905b81548152906001019060200180831161069f57829003601f168201915b50505050508152602001600382015481526020016004820180546106df90614377565b80601f016020809104026020016040519081016040528092919081815260200182805461070b90614377565b80156107585780601f1061072d57610100808354040283529160200191610758565b820191906000526020600020905b81548152906001019060200180831161073b57829003601f168201915b50505050508152602001600582015481526020016006820160009054906101000a900460ff161515151581526020016007820180548060200260200160405190810160405280929190818152602001828054801561080b57602002820191906000526020600020905b8160009054906101000a900473ffffffffffffffffffffffffffffffffffffffff1673ffffffffffffffffffffffffffffffffffffffff16815260200190600101908083116107c1575b5050505050815260200160088201805461082490614377565b80601f016020809104026020016040519081016040528092919081815260200182805461085090614377565b801561089d5780601f106108725761010080835404028352916020019161089d565b820191906000526020600020905b81548152906001019060200180831161088057829003601f168201915b5050505050815250509050919050565b6060600260003373ffffffffffffffffffffffffffffffffffffffff1673ffffffffffffffffffffffffffffffffffffffff168152602001908152602001600020600801805480602002602001604051908101604052809291908181526020016000905b828210156109bd57838290600052602060002001805461093090614377565b80601f016020809104026020016040519081016040528092919081815260200182805461095c90614377565b80156109a95780601f1061097e576101008083540402835291602001916109a9565b820191906000526020600020905b81548152906001019060200180831161098c57829003601f168201915b505050505081526020019060010190610911565b50505050905090565b600080600160008473ffffffffffffffffffffffffffffffffffffffff1673ffffffffffffffffffffffffffffffffffffffff16815260200190815260200160002054905060016005811115610a1f57610a1e6146a3565b5b8103610a2e5780915050610af4565b600580811115610a4157610a406146a3565b5b8103610a505780915050610af4565b60026005811115610a6457610a636146a3565b5b8103610a735780915050610af4565b60036005811115610a8757610a866146a3565b5b8103610a965780915050610af4565b60046005811115610aaa57610aa96146a3565b5b8103610ab95780915050610af4565b6040517f08c379a0000000000000000000000000000000000000000000000000000000008152600401610aeb9061471e565b60405180910390fd5b919050565b610b01613291565b600360008373ffffffffffffffffffffffffffffffffffffffff1673ffffffffffffffffffffffffffffffffffffffff16815260200190815260200160002060080160009054906101000a900460ff16610b90576040517f08c379a0000000000000000000000000000000000000000000000000000000008152600401610b879061478a565b60405180910390fd5b600360008373ffffffffffffffffffffffffffffffffffffffff1673ffffffffffffffffffffffffffffffffffffffff168152602001908152602001600020604051806101400160405290816000820160009054906101000a900473ffffffffffffffffffffffffffffffffffffffff1673ffffffffffffffffffffffffffffffffffffffff1673ffffffffffffffffffffffffffffffffffffffff16815260200160018201548152602001600282018054610c4b90614377565b80601f0160208091040260200160405190810160405280929190818152602001828054610c7790614377565b8015610cc45780601f10610c9957610100808354040283529160200191610cc4565b820191906000526020600020905b815481529060010190602001808311610ca757829003601f168201915b50505050508152602001600382018054610cdd90614377565b80601f0160208091040260200160405190810160405280929190818152602001828054610d0990614377565b8015610d565780601f10610d2b57610100808354040283529160200191610d56565b820191906000526020600020905b815481529060010190602001808311610d3957829003601f168201915b5050505050815260200160048201548152602001600582015481526020016006820154815260200160078201805480602002602001604051908101604052809291908181526020018280548015610e0257602002820191906000526020600020905b8160009054906101000a900473ffffffffffffffffffffffffffffffffffffffff1673ffffffffffffffffffffffffffffffffffffffff1681526020019060010190808311610db8575b505050505081526020016008820160009054906101000a900460ff16151515158152602001600982018054610e3690614377565b80601f0160208091040260200160405190810160405280929190818152602001828054610e6290614377565b8015610eaf5780601f10610e8457610100808354040283529160200191610eaf565b820191906000526020600020905b815481529060010190602001808311610e9257829003601f168201915b5050505050815250509050919050565b600260008373ffffffffffffffffffffffffffffffffffffffff1673ffffffffffffffffffffffffffffffffffffffff16815260200190815260200160002060060160009054906101000a900460ff16610f4e576040517f08c379a0000000000000000000000000000000000000000000000000000000008152600401610f45906147f6565b60405180910390fd5b600260008373ffffffffffffffffffffffffffffffffffffffff1673ffffffffffffffffffffffffffffffffffffffff16815260200190815260200160002060080181908060018154018082558091505060019003906000526020600020016000909190919091509081610fc29190614554565b505050565b600560003373ffffffffffffffffffffffffffffffffffffffff1673ffffffffffffffffffffffffffffffffffffffff1681526020019081526020016000206008018190806001815401808255809150506001900390600052602060002001600090919091909150908161103b9190614554565b5050565b600560008273ffffffffffffffffffffffffffffffffffffffff1673ffffffffffffffffffffffffffffffffffffffff168152602001908152602001600020600701339080600181540180825580915050600190039060005260206000200160009091909190916101000a81548173ffffffffffffffffffffffffffffffffffffffff021916908373ffffffffffffffffffffffffffffffffffffffff16021790555050565b60016020528060005260406000206000915090505481565b6000600160008373ffffffffffffffffffffffffffffffffffffffff1673ffffffffffffffffffffffffffffffffffffffff16815260200190815260200160002054905060006005811115611155576111546146a3565b5b81036118a557600260003373ffffffffffffffffffffffffffffffffffffffff1673ffffffffffffffffffffffffffffffffffffffff16815260200190815260200160002060060160009054906101000a900460ff166111ea576040517f08c379a00000000000000000000000000000000000000000000000000000000081526004016111e1906147f6565b60405180910390fd5b600160058111156111fe576111fd6146a3565b5b8114801561121e575060058081111561121a576112196146a3565b5b6005145b15611350576000600360008473ffffffffffffffffffffffffffffffffffffffff1673ffffffffffffffffffffffffffffffffffffffff16815260200190815260200160002060050154036112a8576040517f08c379a000000000000000000000000000000000000000000000000000000000815260040161129f9061478a565b60405180910390fd5b600360008373ffffffffffffffffffffffffffffffffffffffff1673ffffffffffffffffffffffffffffffffffffffff168152602001908152602001600020600701339080600181540180825580915050600190039060005260206000200160009091909190916101000a81548173ffffffffffffffffffffffffffffffffffffffff021916908373ffffffffffffffffffffffffffffffffffffffff1602179055506118a4565b60026005811115611364576113636146a3565b5b8114801561138457506005808111156113805761137f6146a3565b5b6005145b1561150257600073ffffffffffffffffffffffffffffffffffffffff16600460008473ffffffffffffffffffffffffffffffffffffffff1673ffffffffffffffffffffffffffffffffffffffff16815260200190815260200160002060000160009054906101000a900473ffffffffffffffffffffffffffffffffffffffff1673ffffffffffffffffffffffffffffffffffffffff160361145a576040517f08c379a000000000000000000000000000000000000000000000000000000000815260040161145190614862565b60405180910390fd5b600460008373ffffffffffffffffffffffffffffffffffffffff1673ffffffffffffffffffffffffffffffffffffffff168152602001908152602001600020600701339080600181540180825580915050600190039060005260206000200160009091909190916101000a81548173ffffffffffffffffffffffffffffffffffffffff021916908373ffffffffffffffffffffffffffffffffffffffff1602179055506118a3565b60036005811115611516576115156146a3565b5b811480156115365750600580811115611532576115316146a3565b5b6005145b156116b457600073ffffffffffffffffffffffffffffffffffffffff16600560008473ffffffffffffffffffffffffffffffffffffffff1673ffffffffffffffffffffffffffffffffffffffff16815260200190815260200160002060000160009054906101000a900473ffffffffffffffffffffffffffffffffffffffff1673ffffffffffffffffffffffffffffffffffffffff160361160c576040517f08c379a0000000000000000000000000000000000000000000000000000000008152600401611603906148f4565b60405180910390fd5b600560008373ffffffffffffffffffffffffffffffffffffffff1673ffffffffffffffffffffffffffffffffffffffff168152602001908152602001600020600701339080600181540180825580915050600190039060005260206000200160009091909190916101000a81548173ffffffffffffffffffffffffffffffffffffffff021916908373ffffffffffffffffffffffffffffffffffffffff1602179055506118a2565b600460058111156116c8576116c76146a3565b5b811480156116e857506005808111156116e4576116e36146a3565b5b6005145b1561186657600073ffffffffffffffffffffffffffffffffffffffff16600660008473ffffffffffffffffffffffffffffffffffffffff1673ffffffffffffffffffffffffffffffffffffffff16815260200190815260200160002060000160009054906101000a900473ffffffffffffffffffffffffffffffffffffffff1673ffffffffffffffffffffffffffffffffffffffff16036117be576040517f08c379a00000000000000000000000000000000000000000000000000000000081526004016117b590614960565b60405180910390fd5b600660008373ffffffffffffffffffffffffffffffffffffffff1673ffffffffffffffffffffffffffffffffffffffff168152602001908152602001600020600701339080600181540180825580915050600190039060005260206000200160009091909190916101000a81548173ffffffffffffffffffffffffffffffffffffffff021916908373ffffffffffffffffffffffffffffffffffffffff1602179055506118a1565b6040517f08c379a0000000000000000000000000000000000000000000000000000000008152600401611898906149cc565b60405180910390fd5b5b5b5b5b5050565b600033905060001515600460008373ffffffffffffffffffffffffffffffffffffffff1673ffffffffffffffffffffffffffffffffffffffff16815260200190815260200160002060060160009054906101000a900460ff16151514611944576040517f08c379a000000000000000000000000000000000000000000000000000000000815260040161193b90614a38565b60405180910390fd5b6000600460008373ffffffffffffffffffffffffffffffffffffffff1673ffffffffffffffffffffffffffffffffffffffff1681526020019081526020016000209050818160000160006101000a81548173ffffffffffffffffffffffffffffffffffffffff021916908373ffffffffffffffffffffffffffffffffffffffff160217905550868160010181905550858160020190816119e49190614554565b50848160030181905550838160040190816119ff9190614554565b508281600501819055506002600160008473ffffffffffffffffffffffffffffffffffffffff1673ffffffffffffffffffffffffffffffffffffffff1681526020019081526020016000208190555060018160060160006101000a81548160ff0219169083151502179055506040518060400160405280600b81526020017f506174686f6c6f67697374000000000000000000000000000000000000000000815250816008019081611ab19190614554565b5050505050505050565b600660003373ffffffffffffffffffffffffffffffffffffffff1673ffffffffffffffffffffffffffffffffffffffff16815260200190815260200160002060090181908060018154018082558091505060019003906000526020600020016000909190919091509081611b2f9190614554565b5050565b600033905060001515600660008373ffffffffffffffffffffffffffffffffffffffff1673ffffffffffffffffffffffffffffffffffffffff16815260200190815260200160002060060160009054906101000a900460ff16151514611bce576040517f08c379a0000000000000000000000000000000000000000000000000000000008152600401611bc590614a38565b60405180910390fd5b6000600660008373ffffffffffffffffffffffffffffffffffffffff1673ffffffffffffffffffffffffffffffffffffffff1681526020019081526020016000209050818160000160006101000a81548173ffffffffffffffffffffffffffffffffffffffff021916908373ffffffffffffffffffffffffffffffffffffffff16021790555086816001018190555085816002019081611c6e9190614554565b5084816003018190555083816004019081611c899190614554565b5082816005018190555060018160060160006101000a81548160ff0219169083151502179055506004600160008473ffffffffffffffffffffffffffffffffffffffff1673ffffffffffffffffffffffffffffffffffffffff168152602001908152602001600020819055506040518060400160405280600f81526020017f506861726d616379436f6d70616e790000000000000000000000000000000000815250816008019081611d3b9190614554565b5050505050505050565b611d4d6132fc565b600660008373ffffffffffffffffffffffffffffffffffffffff1673ffffffffffffffffffffffffffffffffffffffff16815260200190815260200160002060060160009054906101000a900460ff16611ddc576040517f08c379a0000000000000000000000000000000000000000000000000000000008152600401611dd390614aca565b60405180910390fd5b600660008373ffffffffffffffffffffffffffffffffffffffff1673ffffffffffffffffffffffffffffffffffffffff168152602001908152602001600020604051806101400160405290816000820160009054906101000a900473ffffffffffffffffffffffffffffffffffffffff1673ffffffffffffffffffffffffffffffffffffffff1673ffffffffffffffffffffffffffffffffffffffff16815260200160018201548152602001600282018054611e9790614377565b80601f0160208091040260200160405190810160405280929190818152602001828054611ec390614377565b8015611f105780601f10611ee557610100808354040283529160200191611f10565b820191906000526020600020905b815481529060010190602001808311611ef357829003601f168201915b5050505050815260200160038201548152602001600482018054611f3390614377565b80601f0160208091040260200160405190810160405280929190818152602001828054611f5f90614377565b8015611fac5780601f10611f8157610100808354040283529160200191611fac565b820191906000526020600020905b815481529060010190602001808311611f8f57829003601f168201915b50505050508152602001600582015481526020016006820160009054906101000a900460ff161515151581526020016007820180548060200260200160405190810160405280929190818152602001828054801561205f57602002820191906000526020600020905b8160009054906101000a900473ffffffffffffffffffffffffffffffffffffffff1673ffffffffffffffffffffffffffffffffffffffff1681526020019060010190808311612015575b5050505050815260200160088201805461207890614377565b80601f01602080910402602001604051908101604052809291908181526020018280546120a490614377565b80156120f15780601f106120c6576101008083540402835291602001916120f1565b820191906000526020600020905b8154815290600101906020018083116120d457829003601f168201915b5050505050815260200160098201805480602002602001604051908101604052809291908181526020016000905b828210156121cb57838290600052602060002001805461213e90614377565b80601f016020809104026020016040519081016040528092919081815260200182805461216a90614377565b80156121b75780601f1061218c576101008083540402835291602001916121b7565b820191906000526020600020905b81548152906001019060200180831161219a57829003601f168201915b50505050508152602001906001019061211f565b50505050815250509050919050565b6121e2613367565b600260008373ffffffffffffffffffffffffffffffffffffffff1673ffffffffffffffffffffffffffffffffffffffff16815260200190815260200160002060060160009054906101000a900460ff16612271576040517f08c379a0000000000000000000000000000000000000000000000000000000008152600401612268906147f6565b60405180910390fd5b600260008373ffffffffffffffffffffffffffffffffffffffff1673ffffffffffffffffffffffffffffffffffffffff168152602001908152602001600020604051806101400160405290816000820160009054906101000a900473ffffffffffffffffffffffffffffffffffffffff1673ffffffffffffffffffffffffffffffffffffffff1673ffffffffffffffffffffffffffffffffffffffff1681526020016001820154815260200160028201805461232c90614377565b80601f016020809104026020016040519081016040528092919081815260200182805461235890614377565b80156123a55780601f1061237a576101008083540402835291602001916123a5565b820191906000526020600020905b81548152906001019060200180831161238857829003601f168201915b505050505081526020016003820180546123be90614377565b80601f01602080910402602001604051908101604052809291908181526020018280546123ea90614377565b80156124375780601f1061240c57610100808354040283529160200191612437565b820191906000526020600020905b81548152906001019060200180831161241a57829003601f168201915b505050505081526020016004820154815260200160058201805461245a90614377565b80601f016020809104026020016040519081016040528092919081815260200182805461248690614377565b80156124d35780601f106124a8576101008083540402835291602001916124d3565b820191906000526020600020905b8154815290600101906020018083116124b657829003601f168201915b505050505081526020016006820160009054906101000a900460ff1615151515815260200160078201805461250790614377565b80601f016020809104026020016040519081016040528092919081815260200182805461253390614377565b80156125805780601f1061255557610100808354040283529160200191612580565b820191906000526020600020905b81548152906001019060200180831161256357829003601f168201915b5050505050815260200160088201805480602002602001604051908101604052809291908181526020016000905b8282101561265a5783829060005260206000200180546125cd90614377565b80601f01602080910402602001604051908101604052809291908181526020018280546125f990614377565b80156126465780601f1061261b57610100808354040283529160200191612646565b820191906000526020600020905b81548152906001019060200180831161262957829003601f168201915b5050505050815260200190600101906125ae565b50505050815260200160098201604051806101000160405290816000820154815260200160018201805461268d90614377565b80601f01602080910402602001604051908101604052809291908181526020018280546126b990614377565b80156127065780601f106126db57610100808354040283529160200191612706565b820191906000526020600020905b8154815290600101906020018083116126e957829003601f168201915b5050505050815260200160028201805461271f90614377565b80601f016020809104026020016040519081016040528092919081815260200182805461274b90614377565b80156127985780601f1061276d57610100808354040283529160200191612798565b820191906000526020600020905b81548152906001019060200180831161277b57829003601f168201915b505050505081526020016003820180546127b190614377565b80601f01602080910402602001604051908101604052809291908181526020018280546127dd90614377565b801561282a5780601f106127ff5761010080835404028352916020019161282a565b820191906000526020600020905b81548152906001019060200180831161280d57829003601f168201915b5050505050815260200160048201805461284390614377565b80601f016020809104026020016040519081016040528092919081815260200182805461286f90614377565b80156128bc5780601f10612891576101008083540402835291602001916128bc565b820191906000526020600020905b81548152906001019060200180831161289f57829003601f168201915b505050505081526020016005820180546128d590614377565b80601f016020809104026020016040519081016040528092919081815260200182805461290190614377565b801561294e5780601f106129235761010080835404028352916020019161294e565b820191906000526020600020905b81548152906001019060200180831161293157829003601f168201915b5050505050815260200160068201805461296790614377565b80601f016020809104026020016040519081016040528092919081815260200182805461299390614377565b80156129e05780601f106129b5576101008083540402835291602001916129e0565b820191906000526020600020905b8154815290600101906020018083116129c357829003601f168201915b505050505081526020016007820180546129f990614377565b80601f0160208091040260200160405190810160405280929190818152602001828054612a2590614377565b8015612a725780601f10612a4757610100808354040283529160200191612a72565b820191906000526020600020905b815481529060010190602001808311612a5557829003601f168201915b505050505081525050815250509050919050565b600033905060001515600560008373ffffffffffffffffffffffffffffffffffffffff1673ffffffffffffffffffffffffffffffffffffffff16815260200190815260200160002060060160009054906101000a900460ff16151514612b21576040517f08c379a0000000000000000000000000000000000000000000000000000000008152600401612b1890614a38565b60405180910390fd5b6000600560008373ffffffffffffffffffffffffffffffffffffffff1673ffffffffffffffffffffffffffffffffffffffff1681526020019081526020016000209050818160000160006101000a81548173ffffffffffffffffffffffffffffffffffffffff021916908373ffffffffffffffffffffffffffffffffffffffff16021790555086816001018190555085816002019081612bc19190614554565b5084816003018190555083816004019081612bdc9190614554565b5082816005018190555060018160060160006101000a81548160ff0219169083151502179055506003600160008473ffffffffffffffffffffffffffffffffffffffff1673ffffffffffffffffffffffffffffffffffffffff168152602001908152602001600020819055506040518060400160405280601281526020017f4d65646963616c52657365617263684c61620000000000000000000000000000815250816009019081612c8e9190614554565b5050505050505050565b600033905060001515600260008373ffffffffffffffffffffffffffffffffffffffff1673ffffffffffffffffffffffffffffffffffffffff16815260200190815260200160002060060160009054906101000a900460ff16151514612d33576040517f08c379a0000000000000000000000000000000000000000000000000000000008152600401612d2a90614b5c565b60405180910390fd5b6000600260008373ffffffffffffffffffffffffffffffffffffffff1673ffffffffffffffffffffffffffffffffffffffff1681526020019081526020016000209050818160000160006101000a81548173ffffffffffffffffffffffffffffffffffffffff021916908373ffffffffffffffffffffffffffffffffffffffff16021790555086816001018190555085816002019081612dd39190614554565b5084816003019081612de59190614554565b508381600401819055506005600160008473ffffffffffffffffffffffffffffffffffffffff1673ffffffffffffffffffffffffffffffffffffffff1681526020019081526020016000208190555082816005019081612e459190614554565b5060018160060160006101000a81548160ff0219169083151502179055506040518060400160405280600781526020017f50617469656e7400000000000000000000000000000000000000000000000000815250816007019081612ea99190614554565b5050505050505050565b6060600560008373ffffffffffffffffffffffffffffffffffffffff1673ffffffffffffffffffffffffffffffffffffffff16815260200190815260200160002060060160009054906101000a900460ff16612f44576040517f08c379a0000000000000000000000000000000000000000000000000000000008152600401612f3b90614bee565b60405180910390fd5b600560008373ffffffffffffffffffffffffffffffffffffffff1673ffffffffffffffffffffffffffffffffffffffff16815260200190815260200160002060070180548060200260200160405190810160405280929190818152602001828054801561300657602002820191906000526020600020905b8160009054906101000a900473ffffffffffffffffffffffffffffffffffffffff1673ffffffffffffffffffffffffffffffffffffffff1681526020019060010190808311612fbc575b50505050509050919050565b600033905060001515600360008373ffffffffffffffffffffffffffffffffffffffff1673ffffffffffffffffffffffffffffffffffffffff16815260200190815260200160002060080160009054906101000a900460ff161515146130ad576040517f08c379a00000000000000000000000000000000000000000000000000000000081526004016130a490614a38565b60405180910390fd5b6000600360008373ffffffffffffffffffffffffffffffffffffffff1673ffffffffffffffffffffffffffffffffffffffff1681526020019081526020016000209050818160000160006101000a81548173ffffffffffffffffffffffffffffffffffffffff021916908373ffffffffffffffffffffffffffffffffffffffff1602179055508781600101819055508681600201908161314d9190614554565b508581600301908161315f9190614554565b508481600401819055508381600501819055508281600601819055506040518060400160405280600681526020017f446f63746f7200000000000000000000000000000000000000000000000000008152508160090190816131c19190614554565b5060018160080160006101000a81548160ff02191690831515021790555060018060008473ffffffffffffffffffffffffffffffffffffffff1673ffffffffffffffffffffffffffffffffffffffff168152602001908152602001600020819055505050505050505050565b604051806101200160405280600073ffffffffffffffffffffffffffffffffffffffff168152602001600081526020016060815260200160008152602001606081526020016000815260200160001515815260200160608152602001606081525090565b604051806101400160405280600073ffffffffffffffffffffffffffffffffffffffff16815260200160008152602001606081526020016060815260200160008152602001600081526020016000815260200160608152602001600015158152602001606081525090565b604051806101400160405280600073ffffffffffffffffffffffffffffffffffffffff16815260200160008152602001606081526020016000815260200160608152602001600081526020016000151581526020016060815260200160608152602001606081525090565b604051806101400160405280600073ffffffffffffffffffffffffffffffffffffffff168152602001600081526020016060815260200160608152602001600081526020016060815260200160001515815260200160608152602001606081526020016133d26133d8565b81525090565b60405180610100016040528060008152602001606081526020016060815260200160608152602001606081526020016060815260200160608152602001606081525090565b6000604051905090565b600080fd5b600080fd5b6000819050919050565b61344481613431565b811461344f57600080fd5b50565b6000813590506134618161343b565b92915050565b600080fd5b600080fd5b6000601f19601f8301169050919050565b7f4e487b7100000000000000000000000000000000000000000000000000000000600052604160045260246000fd5b6134ba82613471565b810181811067ffffffffffffffff821117156134d9576134d8613482565b5b80604052505050565b60006134ec61341d565b90506134f882826134b1565b919050565b600067ffffffffffffffff82111561351857613517613482565b5b61352182613471565b9050602081019050919050565b82818337600083830152505050565b600061355061354b846134fd565b6134e2565b90508281526020810184848401111561356c5761356b61346c565b5b61357784828561352e565b509392505050565b600082601f83011261359457613593613467565b5b81356135a484826020860161353d565b91505092915050565b600080600080600080600080610100898b0312156135ce576135cd613427565b5b60006135dc8b828c01613452565b985050602089013567ffffffffffffffff8111156135fd576135fc61342c565b5b6136098b828c0161357f565b975050604089013567ffffffffffffffff81111561362a5761362961342c565b5b6136368b828c0161357f565b965050606089013567ffffffffffffffff8111156136575761365661342c565b5b6136638b828c0161357f565b955050608089013567ffffffffffffffff8111156136845761368361342c565b5b6136908b828c0161357f565b94505060a089013567ffffffffffffffff8111156136b1576136b061342c565b5b6136bd8b828c0161357f565b93505060c089013567ffffffffffffffff8111156136de576136dd61342c565b5b6136ea8b828c0161357f565b92505060e089013567ffffffffffffffff81111561370b5761370a61342c565b5b6137178b828c0161357f565b9150509295985092959890939650565b600073ffffffffffffffffffffffffffffffffffffffff82169050919050565b600061375282613727565b9050919050565b61376281613747565b811461376d57600080fd5b50565b60008135905061377f81613759565b92915050565b60006020828403121561379b5761379a613427565b5b60006137a984828501613770565b91505092915050565b6137bb81613747565b82525050565b6137ca81613431565b82525050565b600081519050919050565b600082825260208201905092915050565b60005b8381101561380a5780820151818401526020810190506137ef565b60008484015250505050565b6000613821826137d0565b61382b81856137db565b935061383b8185602086016137ec565b61384481613471565b840191505092915050565b60008115159050919050565b6138648161384f565b82525050565b600081519050919050565b600082825260208201905092915050565b6000819050602082019050919050565b60006138a283836137b2565b60208301905092915050565b6000602082019050919050565b60006138c68261386a565b6138d08185613875565b93506138db83613886565b8060005b8381101561390c5781516138f38882613896565b97506138fe836138ae565b9250506001810190506138df565b5085935050505092915050565b60006101208301600083015161393260008601826137b2565b50602083015161394560208601826137c1565b506040830151848203604086015261395d8282613816565b915050606083015161397260608601826137c1565b506080830151848203608086015261398a8282613816565b91505060a083015161399f60a08601826137c1565b5060c08301516139b260c086018261385b565b5060e083015184820360e08601526139ca82826138bb565b9150506101008301518482036101008601526139e68282613816565b9150508091505092915050565b60006020820190508181036000830152613a0d8184613919565b905092915050565b600081519050919050565b600082825260208201905092915050565b6000819050602082019050919050565b6000613a4d8383613816565b905092915050565b6000602082019050919050565b6000613a6d82613a15565b613a778185613a20565b935083602082028501613a8985613a31565b8060005b85811015613ac55784840389528151613aa68582613a41565b9450613ab183613a55565b925060208a01995050600181019050613a8d565b50829750879550505050505092915050565b60006020820190508181036000830152613af18184613a62565b905092915050565b613b0281613431565b82525050565b6000602082019050613b1d6000830184613af9565b92915050565b600061014083016000830151613b3c60008601826137b2565b506020830151613b4f60208601826137c1565b5060408301518482036040860152613b678282613816565b91505060608301518482036060860152613b818282613816565b9150506080830151613b9660808601826137c1565b5060a0830151613ba960a08601826137c1565b5060c0830151613bbc60c08601826137c1565b5060e083015184820360e0860152613bd482826138bb565b915050610100830151613beb61010086018261385b565b50610120830151848203610120860152613c058282613816565b9150508091505092915050565b60006020820190508181036000830152613c2c8184613b23565b905092915050565b60008060408385031215613c4b57613c4a613427565b5b6000613c5985828601613770565b925050602083013567ffffffffffffffff811115613c7a57613c7961342c565b5b613c868582860161357f565b9150509250929050565b600060208284031215613ca657613ca5613427565b5b600082013567ffffffffffffffff811115613cc457613cc361342c565b5b613cd08482850161357f565b91505092915050565b600080600080600060a08688031215613cf557613cf4613427565b5b6000613d0388828901613452565b955050602086013567ffffffffffffffff811115613d2457613d2361342c565b5b613d308882890161357f565b9450506040613d4188828901613452565b935050606086013567ffffffffffffffff811115613d6257613d6161342c565b5b613d6e8882890161357f565b9250506080613d7f88828901613452565b9150509295509295909350565b600082825260208201905092915050565b6000613da882613a15565b613db28185613d8c565b935083602082028501613dc485613a31565b8060005b85811015613e005784840389528151613de18582613a41565b9450613dec83613a55565b925060208a01995050600181019050613dc8565b50829750879550505050505092915050565b600061014083016000830151613e2b60008601826137b2565b506020830151613e3e60208601826137c1565b5060408301518482036040860152613e568282613816565b9150506060830151613e6b60608601826137c1565b5060808301518482036080860152613e838282613816565b91505060a0830151613e9860a08601826137c1565b5060c0830151613eab60c086018261385b565b5060e083015184820360e0860152613ec382826138bb565b915050610100830151848203610100860152613edf8282613816565b915050610120830151848203610120860152613efb8282613d9d565b9150508091505092915050565b60006020820190508181036000830152613f228184613e12565b905092915050565b600061010083016000830151613f4360008601826137c1565b5060208301518482036020860152613f5b8282613816565b91505060408301518482036040860152613f758282613816565b91505060608301518482036060860152613f8f8282613816565b91505060808301518482036080860152613fa98282613816565b91505060a083015184820360a0860152613fc38282613816565b91505060c083015184820360c0860152613fdd8282613816565b91505060e083015184820360e0860152613ff78282613816565b9150508091505092915050565b60006101408301600083015161401d60008601826137b2565b50602083015161403060208601826137c1565b50604083015184820360408601526140488282613816565b915050606083015184820360608601526140628282613816565b915050608083015161407760808601826137c1565b5060a083015184820360a086015261408f8282613816565b91505060c08301516140a460c086018261385b565b5060e083015184820360e08601526140bc8282613816565b9150506101008301518482036101008601526140d88282613d9d565b9150506101208301518482036101208601526140f48282613f2a565b9150508091505092915050565b6000602082019050818103600083015261411b8184614004565b905092915050565b600080600080600060a0868803121561413f5761413e613427565b5b600061414d88828901613452565b955050602086013567ffffffffffffffff81111561416e5761416d61342c565b5b61417a8882890161357f565b945050604086013567ffffffffffffffff81111561419b5761419a61342c565b5b6141a78882890161357f565b93505060606141b888828901613452565b925050608086013567ffffffffffffffff8111156141d9576141d861342c565b5b6141e58882890161357f565b9150509295509295909350565b600082825260208201905092915050565b600061420e8261386a565b61421881856141f2565b935061422383613886565b8060005b8381101561425457815161423b8882613896565b9750614246836138ae565b925050600181019050614227565b5085935050505092915050565b6000602082019050818103600083015261427b8184614203565b905092915050565b60008060008060008060c087890312156142a05761429f613427565b5b60006142ae89828a01613452565b965050602087013567ffffffffffffffff8111156142cf576142ce61342c565b5b6142db89828a0161357f565b955050604087013567ffffffffffffffff8111156142fc576142fb61342c565b5b61430889828a0161357f565b945050606061431989828a01613452565b935050608061432a89828a01613452565b92505060a061433b89828a01613452565b9150509295509295509295565b7f4e487b7100000000000000000000000000000000000000000000000000000000600052602260045260246000fd5b6000600282049050600182168061438f57607f821691505b6020821081036143a2576143a1614348565b5b50919050565b60008190508160005260206000209050919050565b60006020601f8301049050919050565b600082821b905092915050565b60006008830261440a7fffffffffffffffffffffffffffffffffffffffffffffffffffffffffffffffff826143cd565b61441486836143cd565b95508019841693508086168417925050509392505050565b6000819050919050565b600061445161444c61444784613431565b61442c565b613431565b9050919050565b6000819050919050565b61446b83614436565b61447f61447782614458565b8484546143da565b825550505050565b600090565b614494614487565b61449f818484614462565b505050565b5b818110156144c3576144b860008261448c565b6001810190506144a5565b5050565b601f821115614508576144d9816143a8565b6144e2846143bd565b810160208510156144f1578190505b6145056144fd856143bd565b8301826144a4565b50505b505050565b600082821c905092915050565b600061452b6000198460080261450d565b1980831691505092915050565b6000614544838361451a565b9150826002028217905092915050565b61455d826137d0565b67ffffffffffffffff81111561457657614575613482565b5b6145808254614377565b61458b8282856144c7565b600060209050601f8311600181146145be57600084156145ac578287015190505b6145b68582614538565b86555061461e565b601f1984166145cc866143a8565b60005b828110156145f4578489015182556001820191506020850194506020810190506145cf565b86831015614611578489015161460d601f89168261451a565b8355505b6001600288020188555050505b505050505050565b600082825260208201905092915050565b7f706174686f6c6f676973747320646f6573206e6f742065786973740000000000600082015250565b600061466d601b83614626565b915061467882614637565b602082019050919050565b6000602082019050818103600083015261469c81614660565b9050919050565b7f4e487b7100000000000000000000000000000000000000000000000000000000600052602160045260246000fd5b7f4e6f206163636f756e74206861766520616e7920656e74697479207479706500600082015250565b6000614708601f83614626565b9150614713826146d2565b602082019050919050565b60006020820190508181036000830152614737816146fb565b9050919050565b7f446f63746f7220646f6573206e6f742065786973740000000000000000000000600082015250565b6000614774601583614626565b915061477f8261473e565b602082019050919050565b600060208201905081810360008301526147a381614767565b9050919050565b7f50617469656e7420646f6573206e6f7420657869737400000000000000000000600082015250565b60006147e0601683614626565b91506147eb826147aa565b602082019050919050565b6000602082019050818103600083015261480f816147d3565b9050919050565b7f506174686f6c6f6769737420646f6573206e6f74206578697374000000000000600082015250565b600061484c601a83614626565b915061485782614816565b602082019050919050565b6000602082019050818103600083015261487b8161483f565b9050919050565b7f4d65646963616c205265736561726368204c616220646f6573206e6f7420657860008201527f6973740000000000000000000000000000000000000000000000000000000000602082015250565b60006148de602383614626565b91506148e982614882565b604082019050919050565b6000602082019050818103600083015261490d816148d1565b9050919050565b7f506861726d61637920436f6d70616e7920646f6573206e6f7420657869737400600082015250565b600061494a601f83614626565b915061495582614914565b602082019050919050565b600060208201905081810360008301526149798161493d565b9050919050565b7f446f6e2774206861766520616e79206b696e6473206f66206163636f756e7400600082015250565b60006149b6601f83614626565b91506149c182614980565b602082019050919050565b600060208201905081810360008301526149e5816149a9565b9050919050565b7f796f7520616c72656164792063726561746520796f75722070726f66696c6500600082015250565b6000614a22601f83614626565b9150614a2d826149ec565b602082019050919050565b60006020820190508181036000830152614a5181614a15565b9050919050565b7f506861726d61637920436f6d70616e69657320646f6573206e6f74206578697360008201527f7400000000000000000000000000000000000000000000000000000000000000602082015250565b6000614ab4602183614626565b9150614abf82614a58565b604082019050919050565b60006020820190508181036000830152614ae381614aa7565b9050919050565b7f596f75206861766520616c7265616479206372656174656420796f757220707260008201527f6f66696c65000000000000000000000000000000000000000000000000000000602082015250565b6000614b46602583614626565b9150614b5182614aea565b604082019050919050565b60006020820190508181036000830152614b7581614b39565b9050919050565b7f4d65646963616c205265736561726368206c616220646f6573206e6f7420657860008201527f6973740000000000000000000000000000000000000000000000000000000000602082015250565b6000614bd8602383614626565b9150614be382614b7c565b604082019050919050565b60006020820190508181036000830152614c0781614bcb565b905091905056fea26469706673582212202ae42218cb8b31cd41a4b74755cd43465bf81aef3c468fd5f9f092b8788b396a64736f6c63430008110033",
  "linkReferences": {},
  "deployedLinkReferences": {}
}