{
  "_format": "hh-sol-artifact-1",
  "contractName": "MedicalData",
  "sourceName": "contracts/patientDataManagement.sol",
  "abi": [
    {
      "inputs": [
        {
          "internalType": "uint256",
          "name": "",
          "type": "uint256"
        }
      ],
      "name": "MedicalResearchLabReports",
      "outputs": [
        {
          "internalType": "string",
          "name": "",
          "type": "string"
        }
      ],
      "stateMutability": "view",
      "type": "function"
    },
    {
      "inputs": [
        {
          "internalType": "uint256",
          "name": "",
          "type": "uint256"
        }
      ],
      "name": "TopMedichine",
      "outputs": [
        {
          "internalType": "string",
          "name": "",
          "type": "string"
        }
      ],
      "stateMutability": "view",
      "type": "function"
    },
    {
      "inputs": [
        {
          "internalType": "address",
          "name": "user",
          "type": "address"
        }
      ],
      "name": "accressDataAnyone",
      "outputs": [],
      "stateMutability": "nonpayable",
      "type": "function"
    },
    {
      "inputs": [
        {
          "internalType": "address",
          "name": "",
          "type": "address"
        },
        {
          "internalType": "address",
          "name": "",
          "type": "address"
        }
      ],
      "name": "accressList",
      "outputs": [
        {
          "internalType": "bool",
          "name": "",
          "type": "bool"
        }
      ],
      "stateMutability": "view",
      "type": "function"
    },
    {
      "inputs": [
        {
          "internalType": "string",
          "name": "report",
          "type": "string"
        }
      ],
      "name": "addLabReport",
      "outputs": [],
      "stateMutability": "nonpayable",
      "type": "function"
    },
    {
      "inputs": [
        {
          "internalType": "string",
          "name": "medichine",
          "type": "string"
        }
      ],
      "name": "addTopMedichine",
      "outputs": [],
      "stateMutability": "nonpayable",
      "type": "function"
    },
    {
      "inputs": [
        {
          "internalType": "address",
          "name": "_doctorAddress",
          "type": "address"
        }
      ],
      "name": "getDoctor",
      "outputs": [
        {
          "components": [
            {
              "internalType": "address",
              "name": "DoctorAddress",
              "type": "address"
            },
            {
              "internalType": "string",
              "name": "doctorID",
              "type": "string"
            },
            {
              "internalType": "string",
              "name": "name",
              "type": "string"
            },
            {
              "internalType": "string",
              "name": "specialty",
              "type": "string"
            },
            {
              "internalType": "uint256",
              "name": "consultationFee",
              "type": "uint256"
            },
            {
              "internalType": "uint256",
              "name": "BMDCNumber",
              "type": "uint256"
            },
            {
              "internalType": "string",
              "name": "yearOfExperience",
              "type": "string"
            },
            {
              "internalType": "address[]",
              "name": "allPatientsAddressSharedToDoctor",
              "type": "address[]"
            },
            {
              "internalType": "string",
              "name": "aboutDoctors",
              "type": "string"
            },
            {
              "internalType": "string",
              "name": "chamberLocation",
              "type": "string"
            },
            {
              "internalType": "bool",
              "name": "isAdded",
              "type": "bool"
            }
          ],
          "internalType": "struct MedicalData.Doctor",
          "name": "",
          "type": "tuple"
        }
      ],
      "stateMutability": "view",
      "type": "function"
    },
    {
      "inputs": [
        {
          "internalType": "address",
          "name": "_labAddress",
          "type": "address"
        }
      ],
      "name": "getMedicalResearchLab",
      "outputs": [
        {
          "components": [
            {
              "internalType": "address",
              "name": "labAddress",
              "type": "address"
            },
            {
              "internalType": "string",
              "name": "labID",
              "type": "string"
            },
            {
              "internalType": "string",
              "name": "name",
              "type": "string"
            },
            {
              "internalType": "uint256",
              "name": "licenseID",
              "type": "uint256"
            },
            {
              "internalType": "string",
              "name": "researchArea",
              "type": "string"
            },
            {
              "internalType": "string",
              "name": "labRating",
              "type": "string"
            },
            {
              "internalType": "bool",
              "name": "isAdded",
              "type": "bool"
            },
            {
              "internalType": "address[]",
              "name": "allPatientsAddressSharedToMedicalResearchLab",
              "type": "address[]"
            }
          ],
          "internalType": "struct MedicalData.MedicalResearchLab",
          "name": "",
          "type": "tuple"
        }
      ],
      "stateMutability": "view",
      "type": "function"
    },
    {
      "inputs": [
        {
          "internalType": "address",
          "name": "_pathologistAddress",
          "type": "address"
        }
      ],
      "name": "getPathologist",
      "outputs": [
        {
          "components": [
            {
              "internalType": "address",
              "name": "pathologistAddress",
              "type": "address"
            },
            {
              "internalType": "string",
              "name": "pathologistID",
              "type": "string"
            },
            {
              "internalType": "string",
              "name": "name",
              "type": "string"
            },
            {
              "internalType": "uint256",
              "name": "licenseNumber",
              "type": "uint256"
            },
            {
              "internalType": "string",
              "name": "specializationArea",
              "type": "string"
            },
            {
              "internalType": "string",
              "name": "serviceArea",
              "type": "string"
            },
            {
              "internalType": "uint256",
              "name": "totalExperience",
              "type": "uint256"
            },
            {
              "internalType": "uint256",
              "name": "totalRating",
              "type": "uint256"
            },
            {
              "internalType": "string",
              "name": "review",
              "type": "string"
            },
            {
              "internalType": "bool",
              "name": "isAdded",
              "type": "bool"
            },
            {
              "internalType": "address[]",
              "name": "allPatientsAddressSharedTopathologist",
              "type": "address[]"
            }
          ],
          "internalType": "struct MedicalData.Pathologist",
          "name": "",
          "type": "tuple"
        }
      ],
      "stateMutability": "view",
      "type": "function"
    },
    {
      "inputs": [
        {
          "internalType": "address",
          "name": "_patientAddress",
          "type": "address"
        }
      ],
      "name": "getPatient",
      "outputs": [
        {
          "components": [
            {
              "internalType": "address",
              "name": "patientAddress",
              "type": "address"
            },
            {
              "internalType": "string",
              "name": "patientID",
              "type": "string"
            },
            {
              "internalType": "string",
              "name": "name",
              "type": "string"
            },
            {
              "internalType": "string",
              "name": "gender",
              "type": "string"
            },
            {
              "internalType": "uint256",
              "name": "age",
              "type": "uint256"
            },
            {
              "internalType": "string",
              "name": "location",
              "type": "string"
            },
            {
              "internalType": "bool",
              "name": "isAdded",
              "type": "bool"
            }
          ],
          "internalType": "struct MedicalData.Patient",
          "name": "",
          "type": "tuple"
        }
      ],
      "stateMutability": "view",
      "type": "function"
    },
    {
      "inputs": [
        {
          "internalType": "address",
          "name": "_patientAddress",
          "type": "address"
        }
      ],
      "name": "getPatientPersonalData",
      "outputs": [
        {
          "components": [
            {
              "internalType": "uint256",
              "name": "height",
              "type": "uint256"
            },
            {
              "internalType": "string",
              "name": "Blood",
              "type": "string"
            },
            {
              "internalType": "string",
              "name": "PreviousDiseases",
              "type": "string"
            },
            {
              "internalType": "string",
              "name": "Medicinedrugs",
              "type": "string"
            },
            {
              "internalType": "string",
              "name": "BadHabits",
              "type": "string"
            },
            {
              "internalType": "string",
              "name": "ChronicDiseases",
              "type": "string"
            },
            {
              "internalType": "string",
              "name": "HealthAllergies",
              "type": "string"
            },
            {
              "internalType": "string",
              "name": "BirthDefects",
              "type": "string"
            }
          ],
          "internalType": "struct MedicalData.PatientPersonalData",
          "name": "",
          "type": "tuple"
        }
      ],
      "stateMutability": "view",
      "type": "function"
    },
    {
      "inputs": [
        {
          "internalType": "address",
          "name": "_pharmacyCompanyAddress",
          "type": "address"
        }
      ],
      "name": "getPharmacyCompany",
      "outputs": [
        {
          "components": [
            {
              "internalType": "address",
              "name": "pharmacyCompanyAddress",
              "type": "address"
            },
            {
              "internalType": "string",
              "name": "companyID",
              "type": "string"
            },
            {
              "internalType": "string",
              "name": "name",
              "type": "string"
            },
            {
              "internalType": "uint256",
              "name": "licenseID",
              "type": "uint256"
            },
            {
              "internalType": "string",
              "name": "productInformation",
              "type": "string"
            },
            {
              "internalType": "string",
              "name": "pharmacyRating",
              "type": "string"
            },
            {
              "internalType": "bool",
              "name": "isAdded",
              "type": "bool"
            },
            {
              "internalType": "address[]",
              "name": "allPatientAddressSharedToPharmacyCompany",
              "type": "address[]"
            }
          ],
          "internalType": "struct MedicalData.PharmacyCompany",
          "name": "",
          "type": "tuple"
        }
      ],
      "stateMutability": "view",
      "type": "function"
    },
    {
      "inputs": [
        {
          "internalType": "address",
          "name": "",
          "type": "address"
        }
      ],
      "name": "patientData",
      "outputs": [
        {
          "internalType": "uint256",
          "name": "height",
          "type": "uint256"
        },
        {
          "internalType": "string",
          "name": "Blood",
          "type": "string"
        },
        {
          "internalType": "string",
          "name": "PreviousDiseases",
          "type": "string"
        },
        {
          "internalType": "string",
          "name": "Medicinedrugs",
          "type": "string"
        },
        {
          "internalType": "string",
          "name": "BadHabits",
          "type": "string"
        },
        {
          "internalType": "string",
          "name": "ChronicDiseases",
          "type": "string"
        },
        {
          "internalType": "string",
          "name": "HealthAllergies",
          "type": "string"
        },
        {
          "internalType": "string",
          "name": "BirthDefects",
          "type": "string"
        }
      ],
      "stateMutability": "view",
      "type": "function"
    },
    {
      "inputs": [
        {
          "internalType": "address",
          "name": "user",
          "type": "address"
        }
      ],
      "name": "revokeDataAnyone",
      "outputs": [],
      "stateMutability": "nonpayable",
      "type": "function"
    },
    {
      "inputs": [
        {
          "internalType": "string",
          "name": "doctorID",
          "type": "string"
        },
        {
          "internalType": "string",
          "name": "name",
          "type": "string"
        },
        {
          "internalType": "string",
          "name": "specialty",
          "type": "string"
        },
        {
          "internalType": "uint256",
          "name": "consultationFee",
          "type": "uint256"
        },
        {
          "internalType": "uint256",
          "name": "BMDCNumber",
          "type": "uint256"
        },
        {
          "internalType": "string",
          "name": "yearOfExperience",
          "type": "string"
        },
        {
          "internalType": "string",
          "name": "aboutDoctors",
          "type": "string"
        },
        {
          "internalType": "string",
          "name": "chamberLocation",
          "type": "string"
        }
      ],
      "name": "setDoctor",
      "outputs": [],
      "stateMutability": "nonpayable",
      "type": "function"
    },
    {
      "inputs": [
        {
          "internalType": "string",
          "name": "labID",
          "type": "string"
        },
        {
          "internalType": "string",
          "name": "name",
          "type": "string"
        },
        {
          "internalType": "uint256",
          "name": "licenseID",
          "type": "uint256"
        },
        {
          "internalType": "string",
          "name": "researchArea",
          "type": "string"
        },
        {
          "internalType": "string",
          "name": "labRating",
          "type": "string"
        }
      ],
      "name": "setMedicalResearchLab",
      "outputs": [],
      "stateMutability": "nonpayable",
      "type": "function"
    },
    {
      "inputs": [
        {
          "internalType": "string",
          "name": "pathologistID",
          "type": "string"
        },
        {
          "internalType": "string",
          "name": "name",
          "type": "string"
        },
        {
          "internalType": "uint256",
          "name": "licenseNumber",
          "type": "uint256"
        },
        {
          "internalType": "string",
          "name": "specializationArea",
          "type": "string"
        },
        {
          "internalType": "string",
          "name": "serviceArea",
          "type": "string"
        },
        {
          "internalType": "uint256",
          "name": "totalExperience",
          "type": "uint256"
        },
        {
          "internalType": "uint256",
          "name": "totalRating",
          "type": "uint256"
        },
        {
          "internalType": "string",
          "name": "review",
          "type": "string"
        }
      ],
      "name": "setPathologist",
      "outputs": [],
      "stateMutability": "nonpayable",
      "type": "function"
    },
    {
      "inputs": [
        {
          "internalType": "string",
          "name": "patientID",
          "type": "string"
        },
        {
          "internalType": "string",
          "name": "name",
          "type": "string"
        },
        {
          "internalType": "string",
          "name": "gender",
          "type": "string"
        },
        {
          "internalType": "uint256",
          "name": "age",
          "type": "uint256"
        },
        {
          "internalType": "string",
          "name": "location",
          "type": "string"
        }
      ],
      "name": "setPatient",
      "outputs": [],
      "stateMutability": "nonpayable",
      "type": "function"
    },
    {
      "inputs": [
        {
          "internalType": "address",
          "name": "user",
          "type": "address"
        },
        {
          "internalType": "uint256",
          "name": "height",
          "type": "uint256"
        },
        {
          "internalType": "string",
          "name": "blood",
          "type": "string"
        },
        {
          "internalType": "string",
          "name": "previousDiseases",
          "type": "string"
        },
        {
          "internalType": "string",
          "name": "medicineDrugs",
          "type": "string"
        },
        {
          "internalType": "string",
          "name": "badHabits",
          "type": "string"
        },
        {
          "internalType": "string",
          "name": "chronicDiseases",
          "type": "string"
        },
        {
          "internalType": "string",
          "name": "healthAllergies",
          "type": "string"
        },
        {
          "internalType": "string",
          "name": "birthDefects",
          "type": "string"
        }
      ],
      "name": "setPatientPersonalData",
      "outputs": [],
      "stateMutability": "nonpayable",
      "type": "function"
    },
    {
      "inputs": [
        {
          "internalType": "string",
          "name": "companyID",
          "type": "string"
        },
        {
          "internalType": "string",
          "name": "name",
          "type": "string"
        },
        {
          "internalType": "uint256",
          "name": "licenseID",
          "type": "uint256"
        },
        {
          "internalType": "string",
          "name": "productInformation",
          "type": "string"
        },
        {
          "internalType": "string",
          "name": "pharmacyRating",
          "type": "string"
        }
      ],
      "name": "setPharmacyCompany",
      "outputs": [],
      "stateMutability": "nonpayable",
      "type": "function"
    },
    {
      "inputs": [
        {
          "internalType": "string",
          "name": "entityType1",
          "type": "string"
        },
        {
          "internalType": "string",
          "name": "entityType2",
          "type": "string"
        },
        {
          "internalType": "address",
          "name": "user2",
          "type": "address"
        }
      ],
      "name": "transferData",
      "outputs": [],
      "stateMutability": "nonpayable",
      "type": "function"
    }
  ],
  "bytecode": "0x608060405234801561001057600080fd5b50615de080620000216000396000f3fe608060405234801561001057600080fd5b50600436106101375760003560e01c806371d7cfda116100b857806391cd74a51161007c57806391cd74a51461034b5780639f261e091461037b578063b5368e2014610397578063d96e84a5146103c7578063e71b2555146103f7578063ea8c9e041461042757610137565b806371d7cfda1461029757806372232f14146102b35780637fd653d0146102cf5780639059229b146102ff57806391c241021461032f57610137565b806339000b24116100ff57806339000b241461020b5780634854240b14610227578063490362171461024357806359ac529a1461025f5780636bc071a51461027b57610137565b806316ecfa841461013c57806325570ae91461016c5780632741a3db146101885780632e608c02146101a45780632f04e064146101db575b600080fd5b610156600480360381019061015191906141d1565b610457565b6040516101639190614492565b60405180910390f35b610186600480360381019061018191906141d1565b610a3f565b005b6101a2600480360381019061019d9190614615565b610b83565b005b6101be60048036038101906101b991906141d1565b610d1b565b6040516101d2989796959493929190614759565b60405180910390f35b6101f560048036038101906101f091906141d1565b61111b565b6040516102029190614921565b60405180910390f35b61022560048036038101906102209190614943565b61178b565b005b610241600480360381019061023c9190614615565b6117c3565b005b61025d6004803603810190610258919061498c565b61195b565b005b61027960048036038101906102749190614ace565b611b1a565b005b61029560048036038101906102909190614943565b611c44565b005b6102b160048036038101906102ac9190614c5c565b611c7c565b005b6102cd60048036038101906102c891906141d1565b6123cd565b005b6102e960048036038101906102e49190614ce7565b612511565b6040516102f69190614d14565b60405180910390f35b610319600480360381019061031491906141d1565b6125bd565b6040516103269190614e02565b60405180910390f35b61034960048036038101906103449190614e24565b612aff565b005b610365600480360381019061036091906141d1565b612c97565b6040516103729190614fe9565b60405180910390f35b6103956004803603810190610390919061500b565b61328f565b005b6103b160048036038101906103ac91906141d1565b613457565b6040516103be919061521a565b60405180910390f35b6103e160048036038101906103dc919061523c565b61390a565b6040516103ee919061528b565b60405180910390f35b610411600480360381019061040c9190614ce7565b613939565b60405161041e9190614d14565b60405180910390f35b610441600480360381019061043c91906141d1565b6139e5565b60405161044e9190615372565b60405180910390f35b61045f613f27565b81600460008273ffffffffffffffffffffffffffffffffffffffff1673ffffffffffffffffffffffffffffffffffffffff16815260200190815260200160002060090160009054906101000a900460ff166104ef576040517f08c379a00000000000000000000000000000000000000000000000000000000081526004016104e6906153e0565b60405180910390fd5b8073ffffffffffffffffffffffffffffffffffffffff163373ffffffffffffffffffffffffffffffffffffffff1614806105b6575060011515600760008373ffffffffffffffffffffffffffffffffffffffff1673ffffffffffffffffffffffffffffffffffffffff16815260200190815260200160002060003373ffffffffffffffffffffffffffffffffffffffff1673ffffffffffffffffffffffffffffffffffffffff16815260200190815260200160002060009054906101000a900460ff161515145b6105f5576040517f08c379a00000000000000000000000000000000000000000000000000000000081526004016105ec90615472565b60405180910390fd5b600460008473ffffffffffffffffffffffffffffffffffffffff1673ffffffffffffffffffffffffffffffffffffffff168152602001908152602001600020604051806101600160405290816000820160009054906101000a900473ffffffffffffffffffffffffffffffffffffffff1673ffffffffffffffffffffffffffffffffffffffff1673ffffffffffffffffffffffffffffffffffffffff1681526020016001820180546106a6906154c1565b80601f01602080910402602001604051908101604052809291908181526020018280546106d2906154c1565b801561071f5780601f106106f45761010080835404028352916020019161071f565b820191906000526020600020905b81548152906001019060200180831161070257829003601f168201915b50505050508152602001600282018054610738906154c1565b80601f0160208091040260200160405190810160405280929190818152602001828054610764906154c1565b80156107b15780601f10610786576101008083540402835291602001916107b1565b820191906000526020600020905b81548152906001019060200180831161079457829003601f168201915b50505050508152602001600382015481526020016004820180546107d4906154c1565b80601f0160208091040260200160405190810160405280929190818152602001828054610800906154c1565b801561084d5780601f106108225761010080835404028352916020019161084d565b820191906000526020600020905b81548152906001019060200180831161083057829003601f168201915b50505050508152602001600582018054610866906154c1565b80601f0160208091040260200160405190810160405280929190818152602001828054610892906154c1565b80156108df5780601f106108b4576101008083540402835291602001916108df565b820191906000526020600020905b8154815290600101906020018083116108c257829003601f168201915b50505050508152602001600682015481526020016007820154815260200160088201805461090c906154c1565b80601f0160208091040260200160405190810160405280929190818152602001828054610938906154c1565b80156109855780601f1061095a57610100808354040283529160200191610985565b820191906000526020600020905b81548152906001019060200180831161096857829003601f168201915b505050505081526020016009820160009054906101000a900460ff16151515158152602001600a8201805480602002602001604051908101604052809291908181526020018280548015610a2e57602002820191906000526020600020905b8160009054906101000a900473ffffffffffffffffffffffffffffffffffffffff1673ffffffffffffffffffffffffffffffffffffffff16815260200190600101908083116109e4575b505050505081525050915050919050565b8073ffffffffffffffffffffffffffffffffffffffff163373ffffffffffffffffffffffffffffffffffffffff1603610aad576040517f08c379a0000000000000000000000000000000000000000000000000000000008152600401610aa49061553e565b60405180910390fd5b6000600760003373ffffffffffffffffffffffffffffffffffffffff1673ffffffffffffffffffffffffffffffffffffffff16815260200190815260200160002060008373ffffffffffffffffffffffffffffffffffffffff1673ffffffffffffffffffffffffffffffffffffffff16815260200190815260200160002060006101000a81548160ff0219169083151502179055610b80576040517f08c379a0000000000000000000000000000000000000000000000000000000008152600401610b77906155d0565b60405180910390fd5b50565b600033905060001515600660008373ffffffffffffffffffffffffffffffffffffffff1673ffffffffffffffffffffffffffffffffffffffff16815260200190815260200160002060060160009054906101000a900460ff16151514610c1e576040517f08c379a0000000000000000000000000000000000000000000000000000000008152600401610c159061563c565b60405180910390fd5b6000600660008373ffffffffffffffffffffffffffffffffffffffff1673ffffffffffffffffffffffffffffffffffffffff1681526020019081526020016000209050818160000160006101000a81548173ffffffffffffffffffffffffffffffffffffffff021916908373ffffffffffffffffffffffffffffffffffffffff16021790555086816001019081610cb59190615808565b5085816002019081610cc79190615808565b5084816003018190555083816004019081610ce29190615808565b5082816005019081610cf49190615808565b5060018160060160006101000a81548160ff02191690831515021790555050505050505050565b6000602052806000526040600020600091509050806000015490806001018054610d44906154c1565b80601f0160208091040260200160405190810160405280929190818152602001828054610d70906154c1565b8015610dbd5780601f10610d9257610100808354040283529160200191610dbd565b820191906000526020600020905b815481529060010190602001808311610da057829003601f168201915b505050505090806002018054610dd2906154c1565b80601f0160208091040260200160405190810160405280929190818152602001828054610dfe906154c1565b8015610e4b5780601f10610e2057610100808354040283529160200191610e4b565b820191906000526020600020905b815481529060010190602001808311610e2e57829003601f168201915b505050505090806003018054610e60906154c1565b80601f0160208091040260200160405190810160405280929190818152602001828054610e8c906154c1565b8015610ed95780601f10610eae57610100808354040283529160200191610ed9565b820191906000526020600020905b815481529060010190602001808311610ebc57829003601f168201915b505050505090806004018054610eee906154c1565b80601f0160208091040260200160405190810160405280929190818152602001828054610f1a906154c1565b8015610f675780601f10610f3c57610100808354040283529160200191610f67565b820191906000526020600020905b815481529060010190602001808311610f4a57829003601f168201915b505050505090806005018054610f7c906154c1565b80601f0160208091040260200160405190810160405280929190818152602001828054610fa8906154c1565b8015610ff55780601f10610fca57610100808354040283529160200191610ff5565b820191906000526020600020905b815481529060010190602001808311610fd857829003601f168201915b50505050509080600601805461100a906154c1565b80601f0160208091040260200160405190810160405280929190818152602001828054611036906154c1565b80156110835780601f1061105857610100808354040283529160200191611083565b820191906000526020600020905b81548152906001019060200180831161106657829003601f168201915b505050505090806007018054611098906154c1565b80601f01602080910402602001604051908101604052809291908181526020018280546110c4906154c1565b80156111115780601f106110e657610100808354040283529160200191611111565b820191906000526020600020905b8154815290600101906020018083116110f457829003601f168201915b5050505050905088565b611123613f99565b81600360008273ffffffffffffffffffffffffffffffffffffffff1673ffffffffffffffffffffffffffffffffffffffff168152602001908152602001600020600a0160009054906101000a900460ff166111b3576040517f08c379a00000000000000000000000000000000000000000000000000000000081526004016111aa90615926565b60405180910390fd5b8073ffffffffffffffffffffffffffffffffffffffff163373ffffffffffffffffffffffffffffffffffffffff16148061127a575060011515600760008373ffffffffffffffffffffffffffffffffffffffff1673ffffffffffffffffffffffffffffffffffffffff16815260200190815260200160002060003373ffffffffffffffffffffffffffffffffffffffff1673ffffffffffffffffffffffffffffffffffffffff16815260200190815260200160002060009054906101000a900460ff161515145b6112b9576040517f08c379a00000000000000000000000000000000000000000000000000000000081526004016112b090615472565b60405180910390fd5b600360008473ffffffffffffffffffffffffffffffffffffffff1673ffffffffffffffffffffffffffffffffffffffff168152602001908152602001600020604051806101600160405290816000820160009054906101000a900473ffffffffffffffffffffffffffffffffffffffff1673ffffffffffffffffffffffffffffffffffffffff1673ffffffffffffffffffffffffffffffffffffffff16815260200160018201805461136a906154c1565b80601f0160208091040260200160405190810160405280929190818152602001828054611396906154c1565b80156113e35780601f106113b8576101008083540402835291602001916113e3565b820191906000526020600020905b8154815290600101906020018083116113c657829003601f168201915b505050505081526020016002820180546113fc906154c1565b80601f0160208091040260200160405190810160405280929190818152602001828054611428906154c1565b80156114755780601f1061144a57610100808354040283529160200191611475565b820191906000526020600020905b81548152906001019060200180831161145857829003601f168201915b5050505050815260200160038201805461148e906154c1565b80601f01602080910402602001604051908101604052809291908181526020018280546114ba906154c1565b80156115075780601f106114dc57610100808354040283529160200191611507565b820191906000526020600020905b8154815290600101906020018083116114ea57829003601f168201915b505050505081526020016004820154815260200160058201548152602001600682018054611534906154c1565b80601f0160208091040260200160405190810160405280929190818152602001828054611560906154c1565b80156115ad5780601f10611582576101008083540402835291602001916115ad565b820191906000526020600020905b81548152906001019060200180831161159057829003601f168201915b505050505081526020016007820180548060200260200160405190810160405280929190818152602001828054801561163b57602002820191906000526020600020905b8160009054906101000a900473ffffffffffffffffffffffffffffffffffffffff1673ffffffffffffffffffffffffffffffffffffffff16815260200190600101908083116115f1575b50505050508152602001600882018054611654906154c1565b80601f0160208091040260200160405190810160405280929190818152602001828054611680906154c1565b80156116cd5780601f106116a2576101008083540402835291602001916116cd565b820191906000526020600020905b8154815290600101906020018083116116b057829003601f168201915b505050505081526020016009820180546116e6906154c1565b80601f0160208091040260200160405190810160405280929190818152602001828054611712906154c1565b801561175f5780601f106117345761010080835404028352916020019161175f565b820191906000526020600020905b81548152906001019060200180831161174257829003601f168201915b50505050508152602001600a820160009054906101000a900460ff161515151581525050915050919050565b6001819080600181540180825580915050600190039060005260206000200160009091909190915090816117bf9190615808565b5050565b600033905060001515600560008373ffffffffffffffffffffffffffffffffffffffff1673ffffffffffffffffffffffffffffffffffffffff16815260200190815260200160002060060160009054906101000a900460ff1615151461185e576040517f08c379a00000000000000000000000000000000000000000000000000000000081526004016118559061563c565b60405180910390fd5b6000600560008373ffffffffffffffffffffffffffffffffffffffff1673ffffffffffffffffffffffffffffffffffffffff1681526020019081526020016000209050818160000160006101000a81548173ffffffffffffffffffffffffffffffffffffffff021916908373ffffffffffffffffffffffffffffffffffffffff160217905550868160010190816118f59190615808565b50858160020190816119079190615808565b50848160030181905550838160040190816119229190615808565b50828160050190816119349190615808565b5060018160060160006101000a81548160ff02191690831515021790555050505050505050565b600033905060001515600460008373ffffffffffffffffffffffffffffffffffffffff1673ffffffffffffffffffffffffffffffffffffffff16815260200190815260200160002060090160009054906101000a900460ff161515146119f6576040517f08c379a00000000000000000000000000000000000000000000000000000000081526004016119ed9061563c565b60405180910390fd5b6000600460008373ffffffffffffffffffffffffffffffffffffffff1673ffffffffffffffffffffffffffffffffffffffff1681526020019081526020016000209050818160000160006101000a81548173ffffffffffffffffffffffffffffffffffffffff021916908373ffffffffffffffffffffffffffffffffffffffff16021790555089816001019081611a8d9190615808565b5088816002019081611a9f9190615808565b5087816003018190555086816004019081611aba9190615808565b5085816005019081611acc9190615808565b5084816006018190555083816007018190555082816008019081611af09190615808565b5060018160090160006101000a81548160ff02191690831515021790555050505050505050505050565b604051806101000160405280898152602001888152602001878152602001868152602001858152602001848152602001838152602001828152506000808b73ffffffffffffffffffffffffffffffffffffffff1673ffffffffffffffffffffffffffffffffffffffff168152602001908152602001600020600082015181600001556020820151816001019081611bb19190615808565b506040820151816002019081611bc79190615808565b506060820151816003019081611bdd9190615808565b506080820151816004019081611bf39190615808565b5060a0820151816005019081611c099190615808565b5060c0820151816006019081611c1f9190615808565b5060e0820151816007019081611c359190615808565b50905050505050505050505050565b600881908060018154018082558091505060019003906000526020600020016000909190919091509081611c789190615808565b5050565b7f675bc9802ff0994bbcafe826bffd0f15ec0a3ec17fd0cfbe035a08cbededf8a38380519060200120036123c857600260003373ffffffffffffffffffffffffffffffffffffffff1673ffffffffffffffffffffffffffffffffffffffff16815260200190815260200160002060060160009054906101000a900460ff16611d39576040517f08c379a0000000000000000000000000000000000000000000000000000000008152600401611d3090615992565b60405180910390fd5b7f81801538196f6575c6900044ae3429ef092e7ad29a7f4da69ed7f897d69f5759828051906020012003611e94576000600360008373ffffffffffffffffffffffffffffffffffffffff1673ffffffffffffffffffffffffffffffffffffffff1681526020019081526020016000206005015403611dec576040517f08c379a0000000000000000000000000000000000000000000000000000000008152600401611de390615926565b60405180910390fd5b600360008273ffffffffffffffffffffffffffffffffffffffff1673ffffffffffffffffffffffffffffffffffffffff168152602001908152602001600020600701339080600181540180825580915050600190039060005260206000200160009091909190916101000a81548173ffffffffffffffffffffffffffffffffffffffff021916908373ffffffffffffffffffffffffffffffffffffffff1602179055506123c7565b7f25c5b8ad70a2aae48e105ad1defb4db2071cfe805f37688493811662827be14282805190602001200361203b57600073ffffffffffffffffffffffffffffffffffffffff16600460008373ffffffffffffffffffffffffffffffffffffffff1673ffffffffffffffffffffffffffffffffffffffff16815260200190815260200160002060000160009054906101000a900473ffffffffffffffffffffffffffffffffffffffff1673ffffffffffffffffffffffffffffffffffffffff1603611f93576040517f08c379a0000000000000000000000000000000000000000000000000000000008152600401611f8a906159fe565b60405180910390fd5b600460008273ffffffffffffffffffffffffffffffffffffffff1673ffffffffffffffffffffffffffffffffffffffff168152602001908152602001600020600a01339080600181540180825580915050600190039060005260206000200160009091909190916101000a81548173ffffffffffffffffffffffffffffffffffffffff021916908373ffffffffffffffffffffffffffffffffffffffff1602179055506123c6565b7f8aef25603e09a14c263a6e271c085f8e2764c5df2a79ce7ef9270a7bdd45072c8280519060200120036121e257600073ffffffffffffffffffffffffffffffffffffffff16600560008373ffffffffffffffffffffffffffffffffffffffff1673ffffffffffffffffffffffffffffffffffffffff16815260200190815260200160002060000160009054906101000a900473ffffffffffffffffffffffffffffffffffffffff1673ffffffffffffffffffffffffffffffffffffffff160361213a576040517f08c379a000000000000000000000000000000000000000000000000000000000815260040161213190615a90565b60405180910390fd5b600560008273ffffffffffffffffffffffffffffffffffffffff1673ffffffffffffffffffffffffffffffffffffffff168152602001908152602001600020600701339080600181540180825580915050600190039060005260206000200160009091909190916101000a81548173ffffffffffffffffffffffffffffffffffffffff021916908373ffffffffffffffffffffffffffffffffffffffff1602179055506123c5565b7f07e343dc849601cdf88dd1e300e4fa5a1a1ae98568c5b9d8cea9dacb2617385a82805190602001200361238957600073ffffffffffffffffffffffffffffffffffffffff16600660008373ffffffffffffffffffffffffffffffffffffffff1673ffffffffffffffffffffffffffffffffffffffff16815260200190815260200160002060000160009054906101000a900473ffffffffffffffffffffffffffffffffffffffff1673ffffffffffffffffffffffffffffffffffffffff16036122e1576040517f08c379a00000000000000000000000000000000000000000000000000000000081526004016122d890615afc565b60405180910390fd5b600660008273ffffffffffffffffffffffffffffffffffffffff1673ffffffffffffffffffffffffffffffffffffffff168152602001908152602001600020600701339080600181540180825580915050600190039060005260206000200160009091909190916101000a81548173ffffffffffffffffffffffffffffffffffffffff021916908373ffffffffffffffffffffffffffffffffffffffff1602179055506123c4565b6040517f08c379a00000000000000000000000000000000000000000000000000000000081526004016123bb90615b68565b60405180910390fd5b5b5b5b5b505050565b8073ffffffffffffffffffffffffffffffffffffffff163373ffffffffffffffffffffffffffffffffffffffff160361243b576040517f08c379a000000000000000000000000000000000000000000000000000000000815260040161243290615bd4565b60405180910390fd5b6001600760003373ffffffffffffffffffffffffffffffffffffffff1673ffffffffffffffffffffffffffffffffffffffff16815260200190815260200160002060008373ffffffffffffffffffffffffffffffffffffffff1673ffffffffffffffffffffffffffffffffffffffff16815260200190815260200160002060006101000a81548160ff021916908315150217905561250e576040517f08c379a000000000000000000000000000000000000000000000000000000000815260040161250590615c66565b60405180910390fd5b50565b6001818154811061252157600080fd5b90600052602060002001600091509050805461253c906154c1565b80601f0160208091040260200160405190810160405280929190818152602001828054612568906154c1565b80156125b55780601f1061258a576101008083540402835291602001916125b5565b820191906000526020600020905b81548152906001019060200180831161259857829003601f168201915b505050505081565b6125c561400b565b81600460008273ffffffffffffffffffffffffffffffffffffffff1673ffffffffffffffffffffffffffffffffffffffff16815260200190815260200160002060090160009054906101000a900460ff16612655576040517f08c379a000000000000000000000000000000000000000000000000000000000815260040161264c906153e0565b60405180910390fd5b8073ffffffffffffffffffffffffffffffffffffffff163373ffffffffffffffffffffffffffffffffffffffff16148061271c575060011515600760008373ffffffffffffffffffffffffffffffffffffffff1673ffffffffffffffffffffffffffffffffffffffff16815260200190815260200160002060003373ffffffffffffffffffffffffffffffffffffffff1673ffffffffffffffffffffffffffffffffffffffff16815260200190815260200160002060009054906101000a900460ff161515145b61275b576040517f08c379a000000000000000000000000000000000000000000000000000000000815260040161275290615472565b60405180910390fd5b600660008473ffffffffffffffffffffffffffffffffffffffff1673ffffffffffffffffffffffffffffffffffffffff168152602001908152602001600020604051806101000160405290816000820160009054906101000a900473ffffffffffffffffffffffffffffffffffffffff1673ffffffffffffffffffffffffffffffffffffffff1673ffffffffffffffffffffffffffffffffffffffff16815260200160018201805461280c906154c1565b80601f0160208091040260200160405190810160405280929190818152602001828054612838906154c1565b80156128855780601f1061285a57610100808354040283529160200191612885565b820191906000526020600020905b81548152906001019060200180831161286857829003601f168201915b5050505050815260200160028201805461289e906154c1565b80601f01602080910402602001604051908101604052809291908181526020018280546128ca906154c1565b80156129175780601f106128ec57610100808354040283529160200191612917565b820191906000526020600020905b8154815290600101906020018083116128fa57829003601f168201915b505050505081526020016003820154815260200160048201805461293a906154c1565b80601f0160208091040260200160405190810160405280929190818152602001828054612966906154c1565b80156129b35780601f10612988576101008083540402835291602001916129b3565b820191906000526020600020905b81548152906001019060200180831161299657829003601f168201915b505050505081526020016005820180546129cc906154c1565b80601f01602080910402602001604051908101604052809291908181526020018280546129f8906154c1565b8015612a455780601f10612a1a57610100808354040283529160200191612a45565b820191906000526020600020905b815481529060010190602001808311612a2857829003601f168201915b505050505081526020016006820160009054906101000a900460ff1615151515815260200160078201805480602002602001604051908101604052809291908181526020018280548015612aee57602002820191906000526020600020905b8160009054906101000a900473ffffffffffffffffffffffffffffffffffffffff1673ffffffffffffffffffffffffffffffffffffffff1681526020019060010190808311612aa4575b505050505081525050915050919050565b600033905060001515600260008373ffffffffffffffffffffffffffffffffffffffff1673ffffffffffffffffffffffffffffffffffffffff16815260200190815260200160002060060160009054906101000a900460ff16151514612b9a576040517f08c379a0000000000000000000000000000000000000000000000000000000008152600401612b9190615cf8565b60405180910390fd5b6000600260008373ffffffffffffffffffffffffffffffffffffffff1673ffffffffffffffffffffffffffffffffffffffff1681526020019081526020016000209050818160000160006101000a81548173ffffffffffffffffffffffffffffffffffffffff021916908373ffffffffffffffffffffffffffffffffffffffff16021790555086816001019081612c319190615808565b5085816002019081612c439190615808565b5084816003019081612c559190615808565b5083816004018190555082816005019081612c709190615808565b5060018160060160006101000a81548160ff02191690831515021790555050505050505050565b612c9f614068565b81600260008273ffffffffffffffffffffffffffffffffffffffff1673ffffffffffffffffffffffffffffffffffffffff16815260200190815260200160002060060160009054906101000a900460ff16612d2f576040517f08c379a0000000000000000000000000000000000000000000000000000000008152600401612d2690615992565b60405180910390fd5b8073ffffffffffffffffffffffffffffffffffffffff163373ffffffffffffffffffffffffffffffffffffffff161480612df6575060011515600760008373ffffffffffffffffffffffffffffffffffffffff1673ffffffffffffffffffffffffffffffffffffffff16815260200190815260200160002060003373ffffffffffffffffffffffffffffffffffffffff1673ffffffffffffffffffffffffffffffffffffffff16815260200190815260200160002060009054906101000a900460ff161515145b612e35576040517f08c379a0000000000000000000000000000000000000000000000000000000008152600401612e2c90615472565b60405180910390fd5b6000808473ffffffffffffffffffffffffffffffffffffffff1673ffffffffffffffffffffffffffffffffffffffff1681526020019081526020016000206040518061010001604052908160008201548152602001600182018054612e99906154c1565b80601f0160208091040260200160405190810160405280929190818152602001828054612ec5906154c1565b8015612f125780601f10612ee757610100808354040283529160200191612f12565b820191906000526020600020905b815481529060010190602001808311612ef557829003601f168201915b50505050508152602001600282018054612f2b906154c1565b80601f0160208091040260200160405190810160405280929190818152602001828054612f57906154c1565b8015612fa45780601f10612f7957610100808354040283529160200191612fa4565b820191906000526020600020905b815481529060010190602001808311612f8757829003601f168201915b50505050508152602001600382018054612fbd906154c1565b80601f0160208091040260200160405190810160405280929190818152602001828054612fe9906154c1565b80156130365780601f1061300b57610100808354040283529160200191613036565b820191906000526020600020905b81548152906001019060200180831161301957829003601f168201915b5050505050815260200160048201805461304f906154c1565b80601f016020809104026020016040519081016040528092919081815260200182805461307b906154c1565b80156130c85780601f1061309d576101008083540402835291602001916130c8565b820191906000526020600020905b8154815290600101906020018083116130ab57829003601f168201915b505050505081526020016005820180546130e1906154c1565b80601f016020809104026020016040519081016040528092919081815260200182805461310d906154c1565b801561315a5780601f1061312f5761010080835404028352916020019161315a565b820191906000526020600020905b81548152906001019060200180831161313d57829003601f168201915b50505050508152602001600682018054613173906154c1565b80601f016020809104026020016040519081016040528092919081815260200182805461319f906154c1565b80156131ec5780601f106131c1576101008083540402835291602001916131ec565b820191906000526020600020905b8154815290600101906020018083116131cf57829003601f168201915b50505050508152602001600782018054613205906154c1565b80601f0160208091040260200160405190810160405280929190818152602001828054613231906154c1565b801561327e5780601f106132535761010080835404028352916020019161327e565b820191906000526020600020905b81548152906001019060200180831161326157829003601f168201915b505050505081525050915050919050565b600033905060001515600360008373ffffffffffffffffffffffffffffffffffffffff1673ffffffffffffffffffffffffffffffffffffffff168152602001908152602001600020600a0160009054906101000a900460ff1615151461332a576040517f08c379a00000000000000000000000000000000000000000000000000000000081526004016133219061563c565b60405180910390fd5b6000600360008373ffffffffffffffffffffffffffffffffffffffff1673ffffffffffffffffffffffffffffffffffffffff1681526020019081526020016000209050818160000160006101000a81548173ffffffffffffffffffffffffffffffffffffffff021916908373ffffffffffffffffffffffffffffffffffffffff160217905550898160010190816133c19190615808565b50888160020190816133d39190615808565b50878160030190816133e59190615808565b50868160040181905550858160050181905550848160060190816134099190615808565b508381600801908161341b9190615808565b508281600901908161342d9190615808565b50600181600a0160006101000a81548160ff02191690831515021790555050505050505050505050565b61345f6140ad565b81600260008273ffffffffffffffffffffffffffffffffffffffff1673ffffffffffffffffffffffffffffffffffffffff16815260200190815260200160002060060160009054906101000a900460ff166134ef576040517f08c379a00000000000000000000000000000000000000000000000000000000081526004016134e690615992565b60405180910390fd5b8073ffffffffffffffffffffffffffffffffffffffff163373ffffffffffffffffffffffffffffffffffffffff1614806135b6575060011515600760008373ffffffffffffffffffffffffffffffffffffffff1673ffffffffffffffffffffffffffffffffffffffff16815260200190815260200160002060003373ffffffffffffffffffffffffffffffffffffffff1673ffffffffffffffffffffffffffffffffffffffff16815260200190815260200160002060009054906101000a900460ff161515145b6135f5576040517f08c379a00000000000000000000000000000000000000000000000000000000081526004016135ec90615472565b60405180910390fd5b600260008473ffffffffffffffffffffffffffffffffffffffff1673ffffffffffffffffffffffffffffffffffffffff1681526020019081526020016000206040518060e00160405290816000820160009054906101000a900473ffffffffffffffffffffffffffffffffffffffff1673ffffffffffffffffffffffffffffffffffffffff1673ffffffffffffffffffffffffffffffffffffffff1681526020016001820180546136a5906154c1565b80601f01602080910402602001604051908101604052809291908181526020018280546136d1906154c1565b801561371e5780601f106136f35761010080835404028352916020019161371e565b820191906000526020600020905b81548152906001019060200180831161370157829003601f168201915b50505050508152602001600282018054613737906154c1565b80601f0160208091040260200160405190810160405280929190818152602001828054613763906154c1565b80156137b05780601f10613785576101008083540402835291602001916137b0565b820191906000526020600020905b81548152906001019060200180831161379357829003601f168201915b505050505081526020016003820180546137c9906154c1565b80601f01602080910402602001604051908101604052809291908181526020018280546137f5906154c1565b80156138425780601f1061381757610100808354040283529160200191613842565b820191906000526020600020905b81548152906001019060200180831161382557829003601f168201915b5050505050815260200160048201548152602001600582018054613865906154c1565b80601f0160208091040260200160405190810160405280929190818152602001828054613891906154c1565b80156138de5780601f106138b3576101008083540402835291602001916138de565b820191906000526020600020905b8154815290600101906020018083116138c157829003601f168201915b505050505081526020016006820160009054906101000a900460ff161515151581525050915050919050565b60076020528160005260406000206020528060005260406000206000915091509054906101000a900460ff1681565b6008818154811061394957600080fd5b906000526020600020016000915090508054613964906154c1565b80601f0160208091040260200160405190810160405280929190818152602001828054613990906154c1565b80156139dd5780601f106139b2576101008083540402835291602001916139dd565b820191906000526020600020905b8154815290600101906020018083116139c057829003601f168201915b505050505081565b6139ed614102565b81600560008273ffffffffffffffffffffffffffffffffffffffff1673ffffffffffffffffffffffffffffffffffffffff16815260200190815260200160002060060160009054906101000a900460ff16613a7d576040517f08c379a0000000000000000000000000000000000000000000000000000000008152600401613a7490615d8a565b60405180910390fd5b8073ffffffffffffffffffffffffffffffffffffffff163373ffffffffffffffffffffffffffffffffffffffff161480613b44575060011515600760008373ffffffffffffffffffffffffffffffffffffffff1673ffffffffffffffffffffffffffffffffffffffff16815260200190815260200160002060003373ffffffffffffffffffffffffffffffffffffffff1673ffffffffffffffffffffffffffffffffffffffff16815260200190815260200160002060009054906101000a900460ff161515145b613b83576040517f08c379a0000000000000000000000000000000000000000000000000000000008152600401613b7a90615472565b60405180910390fd5b600560008473ffffffffffffffffffffffffffffffffffffffff1673ffffffffffffffffffffffffffffffffffffffff168152602001908152602001600020604051806101000160405290816000820160009054906101000a900473ffffffffffffffffffffffffffffffffffffffff1673ffffffffffffffffffffffffffffffffffffffff1673ffffffffffffffffffffffffffffffffffffffff168152602001600182018054613c34906154c1565b80601f0160208091040260200160405190810160405280929190818152602001828054613c60906154c1565b8015613cad5780601f10613c8257610100808354040283529160200191613cad565b820191906000526020600020905b815481529060010190602001808311613c9057829003601f168201915b50505050508152602001600282018054613cc6906154c1565b80601f0160208091040260200160405190810160405280929190818152602001828054613cf2906154c1565b8015613d3f5780601f10613d1457610100808354040283529160200191613d3f565b820191906000526020600020905b815481529060010190602001808311613d2257829003601f168201915b5050505050815260200160038201548152602001600482018054613d62906154c1565b80601f0160208091040260200160405190810160405280929190818152602001828054613d8e906154c1565b8015613ddb5780601f10613db057610100808354040283529160200191613ddb565b820191906000526020600020905b815481529060010190602001808311613dbe57829003601f168201915b50505050508152602001600582018054613df4906154c1565b80601f0160208091040260200160405190810160405280929190818152602001828054613e20906154c1565b8015613e6d5780601f10613e4257610100808354040283529160200191613e6d565b820191906000526020600020905b815481529060010190602001808311613e5057829003601f168201915b505050505081526020016006820160009054906101000a900460ff1615151515815260200160078201805480602002602001604051908101604052809291908181526020018280548015613f1657602002820191906000526020600020905b8160009054906101000a900473ffffffffffffffffffffffffffffffffffffffff1673ffffffffffffffffffffffffffffffffffffffff1681526020019060010190808311613ecc575b505050505081525050915050919050565b604051806101600160405280600073ffffffffffffffffffffffffffffffffffffffff1681526020016060815260200160608152602001600081526020016060815260200160608152602001600081526020016000815260200160608152602001600015158152602001606081525090565b604051806101600160405280600073ffffffffffffffffffffffffffffffffffffffff1681526020016060815260200160608152602001606081526020016000815260200160008152602001606081526020016060815260200160608152602001606081526020016000151581525090565b604051806101000160405280600073ffffffffffffffffffffffffffffffffffffffff1681526020016060815260200160608152602001600081526020016060815260200160608152602001600015158152602001606081525090565b60405180610100016040528060008152602001606081526020016060815260200160608152602001606081526020016060815260200160608152602001606081525090565b6040518060e00160405280600073ffffffffffffffffffffffffffffffffffffffff16815260200160608152602001606081526020016060815260200160008152602001606081526020016000151581525090565b604051806101000160405280600073ffffffffffffffffffffffffffffffffffffffff1681526020016060815260200160608152602001600081526020016060815260200160608152602001600015158152602001606081525090565b6000604051905090565b600080fd5b600080fd5b600073ffffffffffffffffffffffffffffffffffffffff82169050919050565b600061419e82614173565b9050919050565b6141ae81614193565b81146141b957600080fd5b50565b6000813590506141cb816141a5565b92915050565b6000602082840312156141e7576141e6614169565b5b60006141f5848285016141bc565b91505092915050565b61420781614193565b82525050565b600081519050919050565b600082825260208201905092915050565b60005b8381101561424757808201518184015260208101905061422c565b60008484015250505050565b6000601f19601f8301169050919050565b600061426f8261420d565b6142798185614218565b9350614289818560208601614229565b61429281614253565b840191505092915050565b6000819050919050565b6142b08161429d565b82525050565b60008115159050919050565b6142cb816142b6565b82525050565b600081519050919050565b600082825260208201905092915050565b6000819050602082019050919050565b600061430983836141fe565b60208301905092915050565b6000602082019050919050565b600061432d826142d1565b61433781856142dc565b9350614342836142ed565b8060005b8381101561437357815161435a88826142fd565b975061436583614315565b925050600181019050614346565b5085935050505092915050565b60006101608301600083015161439960008601826141fe565b50602083015184820360208601526143b18282614264565b915050604083015184820360408601526143cb8282614264565b91505060608301516143e060608601826142a7565b50608083015184820360808601526143f88282614264565b91505060a083015184820360a08601526144128282614264565b91505060c083015161442760c08601826142a7565b5060e083015161443a60e08601826142a7565b506101008301518482036101008601526144548282614264565b91505061012083015161446b6101208601826142c2565b506101408301518482036101408601526144858282614322565b9150508091505092915050565b600060208201905081810360008301526144ac8184614380565b905092915050565b600080fd5b600080fd5b7f4e487b7100000000000000000000000000000000000000000000000000000000600052604160045260246000fd5b6144f682614253565b810181811067ffffffffffffffff82111715614515576145146144be565b5b80604052505050565b600061452861415f565b905061453482826144ed565b919050565b600067ffffffffffffffff821115614554576145536144be565b5b61455d82614253565b9050602081019050919050565b82818337600083830152505050565b600061458c61458784614539565b61451e565b9050828152602081018484840111156145a8576145a76144b9565b5b6145b384828561456a565b509392505050565b600082601f8301126145d0576145cf6144b4565b5b81356145e0848260208601614579565b91505092915050565b6145f28161429d565b81146145fd57600080fd5b50565b60008135905061460f816145e9565b92915050565b600080600080600060a0868803121561463157614630614169565b5b600086013567ffffffffffffffff81111561464f5761464e61416e565b5b61465b888289016145bb565b955050602086013567ffffffffffffffff81111561467c5761467b61416e565b5b614688888289016145bb565b945050604061469988828901614600565b935050606086013567ffffffffffffffff8111156146ba576146b961416e565b5b6146c6888289016145bb565b925050608086013567ffffffffffffffff8111156146e7576146e661416e565b5b6146f3888289016145bb565b9150509295509295909350565b6147098161429d565b82525050565b600082825260208201905092915050565b600061472b8261420d565b614735818561470f565b9350614745818560208601614229565b61474e81614253565b840191505092915050565b60006101008201905061476f600083018b614700565b8181036020830152614781818a614720565b905081810360408301526147958189614720565b905081810360608301526147a98188614720565b905081810360808301526147bd8187614720565b905081810360a08301526147d18186614720565b905081810360c08301526147e58185614720565b905081810360e08301526147f98184614720565b90509998505050505050505050565b60006101608301600083015161482160008601826141fe565b50602083015184820360208601526148398282614264565b915050604083015184820360408601526148538282614264565b9150506060830151848203606086015261486d8282614264565b915050608083015161488260808601826142a7565b5060a083015161489560a08601826142a7565b5060c083015184820360c08601526148ad8282614264565b91505060e083015184820360e08601526148c78282614322565b9150506101008301518482036101008601526148e38282614264565b9150506101208301518482036101208601526148ff8282614264565b9150506101408301516149166101408601826142c2565b508091505092915050565b6000602082019050818103600083015261493b8184614808565b905092915050565b60006020828403121561495957614958614169565b5b600082013567ffffffffffffffff8111156149775761497661416e565b5b614983848285016145bb565b91505092915050565b600080600080600080600080610100898b0312156149ad576149ac614169565b5b600089013567ffffffffffffffff8111156149cb576149ca61416e565b5b6149d78b828c016145bb565b985050602089013567ffffffffffffffff8111156149f8576149f761416e565b5b614a048b828c016145bb565b9750506040614a158b828c01614600565b965050606089013567ffffffffffffffff811115614a3657614a3561416e565b5b614a428b828c016145bb565b955050608089013567ffffffffffffffff811115614a6357614a6261416e565b5b614a6f8b828c016145bb565b94505060a0614a808b828c01614600565b93505060c0614a918b828c01614600565b92505060e089013567ffffffffffffffff811115614ab257614ab161416e565b5b614abe8b828c016145bb565b9150509295985092959890939650565b60008060008060008060008060006101208a8c031215614af157614af0614169565b5b6000614aff8c828d016141bc565b9950506020614b108c828d01614600565b98505060408a013567ffffffffffffffff811115614b3157614b3061416e565b5b614b3d8c828d016145bb565b97505060608a013567ffffffffffffffff811115614b5e57614b5d61416e565b5b614b6a8c828d016145bb565b96505060808a013567ffffffffffffffff811115614b8b57614b8a61416e565b5b614b978c828d016145bb565b95505060a08a013567ffffffffffffffff811115614bb857614bb761416e565b5b614bc48c828d016145bb565b94505060c08a013567ffffffffffffffff811115614be557614be461416e565b5b614bf18c828d016145bb565b93505060e08a013567ffffffffffffffff811115614c1257614c1161416e565b5b614c1e8c828d016145bb565b9250506101008a013567ffffffffffffffff811115614c4057614c3f61416e565b5b614c4c8c828d016145bb565b9150509295985092959850929598565b600080600060608486031215614c7557614c74614169565b5b600084013567ffffffffffffffff811115614c9357614c9261416e565b5b614c9f868287016145bb565b935050602084013567ffffffffffffffff811115614cc057614cbf61416e565b5b614ccc868287016145bb565b9250506040614cdd868287016141bc565b9150509250925092565b600060208284031215614cfd57614cfc614169565b5b6000614d0b84828501614600565b91505092915050565b60006020820190508181036000830152614d2e8184614720565b905092915050565b600061010083016000830151614d4f60008601826141fe565b5060208301518482036020860152614d678282614264565b91505060408301518482036040860152614d818282614264565b9150506060830151614d9660608601826142a7565b5060808301518482036080860152614dae8282614264565b91505060a083015184820360a0860152614dc88282614264565b91505060c0830151614ddd60c08601826142c2565b5060e083015184820360e0860152614df58282614322565b9150508091505092915050565b60006020820190508181036000830152614e1c8184614d36565b905092915050565b600080600080600060a08688031215614e4057614e3f614169565b5b600086013567ffffffffffffffff811115614e5e57614e5d61416e565b5b614e6a888289016145bb565b955050602086013567ffffffffffffffff811115614e8b57614e8a61416e565b5b614e97888289016145bb565b945050604086013567ffffffffffffffff811115614eb857614eb761416e565b5b614ec4888289016145bb565b9350506060614ed588828901614600565b925050608086013567ffffffffffffffff811115614ef657614ef561416e565b5b614f02888289016145bb565b9150509295509295909350565b600061010083016000830151614f2860008601826142a7565b5060208301518482036020860152614f408282614264565b91505060408301518482036040860152614f5a8282614264565b91505060608301518482036060860152614f748282614264565b91505060808301518482036080860152614f8e8282614264565b91505060a083015184820360a0860152614fa88282614264565b91505060c083015184820360c0860152614fc28282614264565b91505060e083015184820360e0860152614fdc8282614264565b9150508091505092915050565b600060208201905081810360008301526150038184614f0f565b905092915050565b600080600080600080600080610100898b03121561502c5761502b614169565b5b600089013567ffffffffffffffff81111561504a5761504961416e565b5b6150568b828c016145bb565b985050602089013567ffffffffffffffff8111156150775761507661416e565b5b6150838b828c016145bb565b975050604089013567ffffffffffffffff8111156150a4576150a361416e565b5b6150b08b828c016145bb565b96505060606150c18b828c01614600565b95505060806150d28b828c01614600565b94505060a089013567ffffffffffffffff8111156150f3576150f261416e565b5b6150ff8b828c016145bb565b93505060c089013567ffffffffffffffff8111156151205761511f61416e565b5b61512c8b828c016145bb565b92505060e089013567ffffffffffffffff81111561514d5761514c61416e565b5b6151598b828c016145bb565b9150509295985092959890939650565b600060e08301600083015161518160008601826141fe565b50602083015184820360208601526151998282614264565b915050604083015184820360408601526151b38282614264565b915050606083015184820360608601526151cd8282614264565b91505060808301516151e260808601826142a7565b5060a083015184820360a08601526151fa8282614264565b91505060c083015161520f60c08601826142c2565b508091505092915050565b600060208201905081810360008301526152348184615169565b905092915050565b6000806040838503121561525357615252614169565b5b6000615261858286016141bc565b9250506020615272858286016141bc565b9150509250929050565b615285816142b6565b82525050565b60006020820190506152a0600083018461527c565b92915050565b6000610100830160008301516152bf60008601826141fe565b50602083015184820360208601526152d78282614264565b915050604083015184820360408601526152f18282614264565b915050606083015161530660608601826142a7565b506080830151848203608086015261531e8282614264565b91505060a083015184820360a08601526153388282614264565b91505060c083015161534d60c08601826142c2565b5060e083015184820360e08601526153658282614322565b9150508091505092915050565b6000602082019050818103600083015261538c81846152a6565b905092915050565b7f706174686f6c6f676973747320646f6573206e6f742065786973740000000000600082015250565b60006153ca601b8361470f565b91506153d582615394565b602082019050919050565b600060208201905081810360008301526153f9816153bd565b9050919050565b7f7573657220646f6e27742068617665206163637265737320696e20796f75722060008201527f6461746100000000000000000000000000000000000000000000000000000000602082015250565b600061545c60248361470f565b915061546782615400565b604082019050919050565b6000602082019050818103600083015261548b8161544f565b9050919050565b7f4e487b7100000000000000000000000000000000000000000000000000000000600052602260045260246000fd5b600060028204905060018216806154d957607f821691505b6020821081036154ec576154eb615492565b5b50919050565b7f796f752063616e2774207265766f6b6520796f757273656c6620000000000000600082015250565b6000615528601a8361470f565b9150615533826154f2565b602082019050919050565b600060208201905081810360008301526155578161551b565b9050919050565b7f7573657220616c72656479207265766f6b65642066726f6d202064617461206160008201527f6363726573730000000000000000000000000000000000000000000000000000602082015250565b60006155ba60268361470f565b91506155c58261555e565b604082019050919050565b600060208201905081810360008301526155e9816155ad565b9050919050565b7f796f7520616c72656164792063726561746520796f75722070726f66696c6500600082015250565b6000615626601f8361470f565b9150615631826155f0565b602082019050919050565b6000602082019050818103600083015261565581615619565b9050919050565b60008190508160005260206000209050919050565b60006020601f8301049050919050565b600082821b905092915050565b6000600883026156be7fffffffffffffffffffffffffffffffffffffffffffffffffffffffffffffffff82615681565b6156c88683615681565b95508019841693508086168417925050509392505050565b6000819050919050565b60006157056157006156fb8461429d565b6156e0565b61429d565b9050919050565b6000819050919050565b61571f836156ea565b61573361572b8261570c565b84845461568e565b825550505050565b600090565b61574861573b565b615753818484615716565b505050565b5b818110156157775761576c600082615740565b600181019050615759565b5050565b601f8211156157bc5761578d8161565c565b61579684615671565b810160208510156157a5578190505b6157b96157b185615671565b830182615758565b50505b505050565b600082821c905092915050565b60006157df600019846008026157c1565b1980831691505092915050565b60006157f883836157ce565b9150826002028217905092915050565b6158118261420d565b67ffffffffffffffff81111561582a576158296144be565b5b61583482546154c1565b61583f82828561577b565b600060209050601f8311600181146158725760008415615860578287015190505b61586a85826157ec565b8655506158d2565b601f1984166158808661565c565b60005b828110156158a857848901518255600182019150602085019450602081019050615883565b868310156158c557848901516158c1601f8916826157ce565b8355505b6001600288020188555050505b505050505050565b7f446f63746f7220646f6573206e6f742065786973740000000000000000000000600082015250565b600061591060158361470f565b915061591b826158da565b602082019050919050565b6000602082019050818103600083015261593f81615903565b9050919050565b7f50617469656e7420646f6573206e6f7420657869737400000000000000000000600082015250565b600061597c60168361470f565b915061598782615946565b602082019050919050565b600060208201905081810360008301526159ab8161596f565b9050919050565b7f506174686f6c6f6769737420646f6573206e6f74206578697374000000000000600082015250565b60006159e8601a8361470f565b91506159f3826159b2565b602082019050919050565b60006020820190508181036000830152615a17816159db565b9050919050565b7f4d65646963616c205265736561726368204c616220646f6573206e6f7420657860008201527f6973740000000000000000000000000000000000000000000000000000000000602082015250565b6000615a7a60238361470f565b9150615a8582615a1e565b604082019050919050565b60006020820190508181036000830152615aa981615a6d565b9050919050565b7f506861726d61637920436f6d70616e7920646f6573206e6f7420657869737400600082015250565b6000615ae6601f8361470f565b9150615af182615ab0565b602082019050919050565b60006020820190508181036000830152615b1581615ad9565b9050919050565b7f556e737570706f7274656420656e746974792074797065000000000000000000600082015250565b6000615b5260178361470f565b9150615b5d82615b1c565b602082019050919050565b60006020820190508181036000830152615b8181615b45565b9050919050565b7f796f752063616e2774206163637265737320796f757273656c66200000000000600082015250565b6000615bbe601b8361470f565b9150615bc982615b88565b602082019050919050565b60006020820190508181036000830152615bed81615bb1565b9050919050565b7f7573657220616c726564792068617665206163637265737320696e20796f757260008201527f2064617461000000000000000000000000000000000000000000000000000000602082015250565b6000615c5060258361470f565b9150615c5b82615bf4565b604082019050919050565b60006020820190508181036000830152615c7f81615c43565b9050919050565b7f596f75206861766520616c7265616479206372656174656420796f757220707260008201527f6f66696c65000000000000000000000000000000000000000000000000000000602082015250565b6000615ce260258361470f565b9150615ced82615c86565b604082019050919050565b60006020820190508181036000830152615d1181615cd5565b9050919050565b7f4d65646963616c205265736561726368206c616220646f6573206e6f7420657860008201527f6973740000000000000000000000000000000000000000000000000000000000602082015250565b6000615d7460238361470f565b9150615d7f82615d18565b604082019050919050565b60006020820190508181036000830152615da381615d67565b905091905056fea2646970667358221220c3144005fbab8fcdd714aac9ee8403845295c418ceccc9e41d1f1522d78408c764736f6c63430008110033",
  "linkReferences": {},
  "deployedLinkReferences": {}
}