{
  "_format": "hh-sol-artifact-1",
  "contractName": "MedicalData",
  "sourceName": "contracts/patientDataManagement.sol",
  "abi": [
    {
      "inputs": [
        {
          "internalType": "address",
          "name": "useraddress",
          "type": "address"
        }
      ],
      "name": "ConnectedAccountType",
      "outputs": [
        {
          "internalType": "uint256",
          "name": "",
          "type": "uint256"
        }
      ],
      "stateMutability": "view",
      "type": "function"
    },
    {
      "inputs": [
        {
          "internalType": "address",
          "name": "",
          "type": "address"
        }
      ],
      "name": "accounts",
      "outputs": [
        {
          "internalType": "uint256",
          "name": "",
          "type": "uint256"
        }
      ],
      "stateMutability": "view",
      "type": "function"
    },
    {
      "inputs": [
        {
          "internalType": "string",
          "name": "report",
          "type": "string"
        }
      ],
      "name": "addLabReport",
      "outputs": [],
      "stateMutability": "nonpayable",
      "type": "function"
    },
    {
      "inputs": [
        {
          "internalType": "address",
          "name": "_user",
          "type": "address"
        },
        {
          "internalType": "string",
          "name": "url",
          "type": "string"
        }
      ],
      "name": "addPrescription",
      "outputs": [],
      "stateMutability": "nonpayable",
      "type": "function"
    },
    {
      "inputs": [
        {
          "internalType": "string",
          "name": "medichine",
          "type": "string"
        }
      ],
      "name": "addTopMedichine",
      "outputs": [],
      "stateMutability": "nonpayable",
      "type": "function"
    },
    {
      "inputs": [
        {
          "internalType": "address",
          "name": "_doctorAddress",
          "type": "address"
        }
      ],
      "name": "getDoctor",
      "outputs": [
        {
          "components": [
            {
              "internalType": "address",
              "name": "DoctorAddress",
              "type": "address"
            },
            {
              "internalType": "uint256",
              "name": "doctorID",
              "type": "uint256"
            },
            {
              "internalType": "string",
              "name": "name",
              "type": "string"
            },
            {
              "internalType": "string",
              "name": "specialty",
              "type": "string"
            },
            {
              "internalType": "uint256",
              "name": "consultationFee",
              "type": "uint256"
            },
            {
              "internalType": "uint256",
              "name": "BMDCNumber",
              "type": "uint256"
            },
            {
              "internalType": "uint256",
              "name": "yearOfExperience",
              "type": "uint256"
            },
            {
              "internalType": "address[]",
              "name": "PatientToDoctor",
              "type": "address[]"
            },
            {
              "internalType": "address[]",
              "name": "PathologiestToDoctor",
              "type": "address[]"
            },
            {
              "internalType": "bool",
              "name": "isAdded",
              "type": "bool"
            },
            {
              "internalType": "address[]",
              "name": "TreatedPatient",
              "type": "address[]"
            },
            {
              "internalType": "string",
              "name": "userType",
              "type": "string"
            }
          ],
          "internalType": "struct MedicalData.Doctor",
          "name": "",
          "type": "tuple"
        }
      ],
      "stateMutability": "view",
      "type": "function"
    },
    {
      "inputs": [
        {
          "internalType": "address",
          "name": "_labAddress",
          "type": "address"
        }
      ],
      "name": "getMedicalResearchLab",
      "outputs": [
        {
          "components": [
            {
              "internalType": "address",
              "name": "labAddress",
              "type": "address"
            },
            {
              "internalType": "uint256",
              "name": "labID",
              "type": "uint256"
            },
            {
              "internalType": "string",
              "name": "name",
              "type": "string"
            },
            {
              "internalType": "uint256",
              "name": "licenseID",
              "type": "uint256"
            },
            {
              "internalType": "string",
              "name": "researchArea",
              "type": "string"
            },
            {
              "internalType": "uint256",
              "name": "labRating",
              "type": "uint256"
            },
            {
              "internalType": "bool",
              "name": "isAdded",
              "type": "bool"
            },
            {
              "internalType": "address[]",
              "name": "PatientToMedRcLab",
              "type": "address[]"
            },
            {
              "internalType": "string[]",
              "name": "PatientLabReport",
              "type": "string[]"
            },
            {
              "internalType": "string",
              "name": "userType",
              "type": "string"
            }
          ],
          "internalType": "struct MedicalData.MedicalResearchLab",
          "name": "",
          "type": "tuple"
        }
      ],
      "stateMutability": "view",
      "type": "function"
    },
    {
      "inputs": [
        {
          "internalType": "address",
          "name": "_pathologistAddress",
          "type": "address"
        }
      ],
      "name": "getPathologist",
      "outputs": [
        {
          "components": [
            {
              "internalType": "address",
              "name": "pathologistAddress",
              "type": "address"
            },
            {
              "internalType": "uint256",
              "name": "pathologistID",
              "type": "uint256"
            },
            {
              "internalType": "string",
              "name": "name",
              "type": "string"
            },
            {
              "internalType": "uint256",
              "name": "licenseNumber",
              "type": "uint256"
            },
            {
              "internalType": "string",
              "name": "specializationArea",
              "type": "string"
            },
            {
              "internalType": "uint256",
              "name": "totalExperience",
              "type": "uint256"
            },
            {
              "internalType": "bool",
              "name": "isAdded",
              "type": "bool"
            },
            {
              "internalType": "address[]",
              "name": "PatientToPathologiest",
              "type": "address[]"
            },
            {
              "internalType": "string",
              "name": "userType",
              "type": "string"
            },
            {
              "components": [
                {
                  "internalType": "string",
                  "name": "Allergies",
                  "type": "string"
                },
                {
                  "internalType": "string",
                  "name": "Cancer",
                  "type": "string"
                },
                {
                  "internalType": "string",
                  "name": "HormoneProblem",
                  "type": "string"
                },
                {
                  "internalType": "uint256",
                  "name": "DiabatiesLevel",
                  "type": "uint256"
                }
              ],
              "internalType": "struct MedicalData.PathologistTest",
              "name": "pathologistTest",
              "type": "tuple"
            }
          ],
          "internalType": "struct MedicalData.Pathologist",
          "name": "",
          "type": "tuple"
        }
      ],
      "stateMutability": "view",
      "type": "function"
    },
    {
      "inputs": [
        {
          "internalType": "address",
          "name": "_patientAddress",
          "type": "address"
        }
      ],
      "name": "getPatient",
      "outputs": [
        {
          "components": [
            {
              "internalType": "address",
              "name": "patientAddress",
              "type": "address"
            },
            {
              "internalType": "uint256",
              "name": "patientID",
              "type": "uint256"
            },
            {
              "internalType": "string",
              "name": "name",
              "type": "string"
            },
            {
              "internalType": "string",
              "name": "gender",
              "type": "string"
            },
            {
              "internalType": "uint256",
              "name": "age",
              "type": "uint256"
            },
            {
              "internalType": "string",
              "name": "location",
              "type": "string"
            },
            {
              "internalType": "bool",
              "name": "isAdded",
              "type": "bool"
            },
            {
              "internalType": "string",
              "name": "userType",
              "type": "string"
            },
            {
              "internalType": "string[]",
              "name": "imgUrl",
              "type": "string[]"
            },
            {
              "components": [
                {
                  "internalType": "uint256",
                  "name": "height",
                  "type": "uint256"
                },
                {
                  "internalType": "string",
                  "name": "Blood",
                  "type": "string"
                },
                {
                  "internalType": "string",
                  "name": "PreviousDiseases",
                  "type": "string"
                },
                {
                  "internalType": "string",
                  "name": "Medicinedrugs",
                  "type": "string"
                },
                {
                  "internalType": "string",
                  "name": "BadHabits",
                  "type": "string"
                },
                {
                  "internalType": "string",
                  "name": "ChronicDiseases",
                  "type": "string"
                },
                {
                  "internalType": "string",
                  "name": "HealthAllergies",
                  "type": "string"
                },
                {
                  "internalType": "string",
                  "name": "BirthDefects",
                  "type": "string"
                }
              ],
              "internalType": "struct MedicalData.PatientPersonalData",
              "name": "patientPersonalData",
              "type": "tuple"
            },
            {
              "internalType": "address[]",
              "name": "personalDoctor",
              "type": "address[]"
            }
          ],
          "internalType": "struct MedicalData.Patient",
          "name": "",
          "type": "tuple"
        }
      ],
      "stateMutability": "view",
      "type": "function"
    },
    {
      "inputs": [
        {
          "internalType": "address",
          "name": "_pharmacyCompanyAddress",
          "type": "address"
        }
      ],
      "name": "getPharmacyCompany",
      "outputs": [
        {
          "components": [
            {
              "internalType": "address",
              "name": "pharmacyCompanyAddress",
              "type": "address"
            },
            {
              "internalType": "uint256",
              "name": "companyID",
              "type": "uint256"
            },
            {
              "internalType": "string",
              "name": "name",
              "type": "string"
            },
            {
              "internalType": "uint256",
              "name": "licenseID",
              "type": "uint256"
            },
            {
              "internalType": "string",
              "name": "productInformation",
              "type": "string"
            },
            {
              "internalType": "uint256",
              "name": "pharmacyRating",
              "type": "uint256"
            },
            {
              "internalType": "bool",
              "name": "isAdded",
              "type": "bool"
            },
            {
              "internalType": "address[]",
              "name": "PatientToPharmacy",
              "type": "address[]"
            },
            {
              "internalType": "string",
              "name": "userType",
              "type": "string"
            },
            {
              "internalType": "string[]",
              "name": "TopMedichine",
              "type": "string[]"
            }
          ],
          "internalType": "struct MedicalData.PharmacyCompany",
          "name": "",
          "type": "tuple"
        }
      ],
      "stateMutability": "view",
      "type": "function"
    },
    {
      "inputs": [
        {
          "internalType": "address",
          "name": "",
          "type": "address"
        }
      ],
      "name": "pathologistTests",
      "outputs": [
        {
          "internalType": "string",
          "name": "Allergies",
          "type": "string"
        },
        {
          "internalType": "string",
          "name": "Cancer",
          "type": "string"
        },
        {
          "internalType": "string",
          "name": "HormoneProblem",
          "type": "string"
        },
        {
          "internalType": "uint256",
          "name": "DiabatiesLevel",
          "type": "uint256"
        }
      ],
      "stateMutability": "view",
      "type": "function"
    },
    {
      "inputs": [
        {
          "internalType": "uint256",
          "name": "doctorID",
          "type": "uint256"
        },
        {
          "internalType": "string",
          "name": "name",
          "type": "string"
        },
        {
          "internalType": "string",
          "name": "specialty",
          "type": "string"
        },
        {
          "internalType": "uint256",
          "name": "consultationFee",
          "type": "uint256"
        },
        {
          "internalType": "uint256",
          "name": "BMDCNumber",
          "type": "uint256"
        },
        {
          "internalType": "uint256",
          "name": "yearOfExperience",
          "type": "uint256"
        }
      ],
      "name": "setDoctor",
      "outputs": [],
      "stateMutability": "nonpayable",
      "type": "function"
    },
    {
      "inputs": [
        {
          "internalType": "uint256",
          "name": "labID",
          "type": "uint256"
        },
        {
          "internalType": "string",
          "name": "name",
          "type": "string"
        },
        {
          "internalType": "uint256",
          "name": "licenseID",
          "type": "uint256"
        },
        {
          "internalType": "string",
          "name": "researchArea",
          "type": "string"
        },
        {
          "internalType": "uint256",
          "name": "labRating",
          "type": "uint256"
        }
      ],
      "name": "setMedicalResearchLab",
      "outputs": [],
      "stateMutability": "nonpayable",
      "type": "function"
    },
    {
      "inputs": [
        {
          "internalType": "uint256",
          "name": "pathologistID",
          "type": "uint256"
        },
        {
          "internalType": "string",
          "name": "name",
          "type": "string"
        },
        {
          "internalType": "uint256",
          "name": "licenseNumber",
          "type": "uint256"
        },
        {
          "internalType": "string",
          "name": "specializationArea",
          "type": "string"
        },
        {
          "internalType": "uint256",
          "name": "totalExperience",
          "type": "uint256"
        }
      ],
      "name": "setPathologist",
      "outputs": [],
      "stateMutability": "nonpayable",
      "type": "function"
    },
    {
      "inputs": [
        {
          "internalType": "string",
          "name": "allergies",
          "type": "string"
        },
        {
          "internalType": "string",
          "name": "cancer",
          "type": "string"
        },
        {
          "internalType": "string",
          "name": "hormoneProblem",
          "type": "string"
        },
        {
          "internalType": "uint256",
          "name": "diabetesLevel",
          "type": "uint256"
        }
      ],
      "name": "setPathologistTest",
      "outputs": [],
      "stateMutability": "nonpayable",
      "type": "function"
    },
    {
      "inputs": [
        {
          "internalType": "uint256",
          "name": "patientID",
          "type": "uint256"
        },
        {
          "internalType": "string",
          "name": "name",
          "type": "string"
        },
        {
          "internalType": "string",
          "name": "gender",
          "type": "string"
        },
        {
          "internalType": "uint256",
          "name": "age",
          "type": "uint256"
        },
        {
          "internalType": "string",
          "name": "location",
          "type": "string"
        }
      ],
      "name": "setPatient",
      "outputs": [],
      "stateMutability": "nonpayable",
      "type": "function"
    },
    {
      "inputs": [
        {
          "internalType": "uint256",
          "name": "height",
          "type": "uint256"
        },
        {
          "internalType": "string",
          "name": "blood",
          "type": "string"
        },
        {
          "internalType": "string",
          "name": "previousDiseases",
          "type": "string"
        },
        {
          "internalType": "string",
          "name": "medicineDrugs",
          "type": "string"
        },
        {
          "internalType": "string",
          "name": "badHabits",
          "type": "string"
        },
        {
          "internalType": "string",
          "name": "chronicDiseases",
          "type": "string"
        },
        {
          "internalType": "string",
          "name": "healthAllergies",
          "type": "string"
        },
        {
          "internalType": "string",
          "name": "birthDefects",
          "type": "string"
        }
      ],
      "name": "setPatientPersonalData",
      "outputs": [],
      "stateMutability": "nonpayable",
      "type": "function"
    },
    {
      "inputs": [
        {
          "internalType": "uint256",
          "name": "companyID",
          "type": "uint256"
        },
        {
          "internalType": "string",
          "name": "name",
          "type": "string"
        },
        {
          "internalType": "uint256",
          "name": "licenseID",
          "type": "uint256"
        },
        {
          "internalType": "string",
          "name": "productInformation",
          "type": "string"
        },
        {
          "internalType": "uint256",
          "name": "pharmacyRating",
          "type": "uint256"
        }
      ],
      "name": "setPharmacyCompany",
      "outputs": [],
      "stateMutability": "nonpayable",
      "type": "function"
    },
    {
      "inputs": [
        {
          "internalType": "address",
          "name": "useraddress",
          "type": "address"
        }
      ],
      "name": "transferDataByDoctor",
      "outputs": [],
      "stateMutability": "nonpayable",
      "type": "function"
    },
    {
      "inputs": [
        {
          "internalType": "address",
          "name": "useraddress",
          "type": "address"
        }
      ],
      "name": "transferDataByPathologist",
      "outputs": [],
      "stateMutability": "nonpayable",
      "type": "function"
    },
    {
      "inputs": [
        {
          "internalType": "address",
          "name": "useraddress",
          "type": "address"
        }
      ],
      "name": "transferDataByPatient",
      "outputs": [],
      "stateMutability": "nonpayable",
      "type": "function"
    }
  ],
  "bytecode": "0x608060405234801561001057600080fd5b50615ecb80620000216000396000f3fe608060405234801561001057600080fd5b50600436106101375760003560e01c80636bc071a5116100b8578063b5368e201161007c578063b5368e201461035b578063d10b07d81461038b578063d16570d3146103a7578063d23fb52c146103c3578063ea8c9e04146103df578063f4bffd5a1461040f57610137565b80636bc071a5146102bb5780637ddd3f05146102d75780639059229b146102f3578063a3e12bc014610323578063a9d0b46a1461033f57610137565b80632f04e064116100ff5780632f04e064146101f057806339000b24146102205780635e5c06e21461023c578063637b85cf1461026c5780636757711b1461029f57610137565b8063100d1a7f1461013c57806316ecfa84146101585780632545526d146101885780632947f2bc146101a45780632a1ebd01146101c0575b600080fd5b610156600480360381019061015191906144bc565b61042b565b005b610172600480360381019061016d9190614694565b610518565b60405161017f919061498f565b60405180910390f35b6101a2600480360381019061019d9190614694565b610aa8565b005b6101be60048036038101906101b991906149b1565b610d88565b005b6101da60048036038101906101d59190614694565b610e43565b6040516101e79190614a7b565b60405180910390f35b61020a60048036038101906102059190614694565b610f75565b6040516102179190614bbd565b60405180910390f35b61023a60048036038101906102359190614bdf565b611457565b005b61025660048036038101906102519190614694565b6114cf565b6040516102639190614a7b565b60405180910390f35b61028660048036038101906102819190614694565b6114e7565b6040516102969493929190614c72565b60405180910390f35b6102b960048036038101906102b49190614ccc565b6116af565b005b6102d560048036038101906102d09190614bdf565b6118c0565b005b6102f160048036038101906102ec9190614ccc565b611938565b005b61030d60048036038101906103089190614694565b611b49565b60405161031a9190614f37565b60405180910390f35b61033d60048036038101906103389190614f59565b611fde565b005b61035960048036038101906103549190614694565b6123e6565b005b61037560048036038101906103709190614694565b6129de565b60405161038291906151a8565b60405180910390f35b6103a560048036038101906103a09190614ccc565b613318565b005b6103c160048036038101906103bc9190614694565b613529565b005b6103dd60048036038101906103d891906151ca565b6137bd565b005b6103f960048036038101906103f49190614694565b6139d7565b604051610406919061538f565b60405180910390f35b610429600480360381019061042491906153b1565b613e6c565b005b6000600160003373ffffffffffffffffffffffffffffffffffffffff1673ffffffffffffffffffffffffffffffffffffffff16815260200190815260200160002090508881600901600001819055508781600901600101908161048e9190615682565b50868160090160020190816104a39190615682565b50858160090160030190816104b89190615682565b50848160090160040190816104cd9190615682565b50838160090160050190816104e29190615682565b50828160090160060190816104f79190615682565b508181600901600701908161050c9190615682565b50505050505050505050565b610520614087565b600360008373ffffffffffffffffffffffffffffffffffffffff1673ffffffffffffffffffffffffffffffffffffffff16815260200190815260200160002060060160009054906101000a900460ff166105af576040517f08c379a00000000000000000000000000000000000000000000000000000000081526004016105a6906157a0565b60405180910390fd5b600360008373ffffffffffffffffffffffffffffffffffffffff1673ffffffffffffffffffffffffffffffffffffffff168152602001908152602001600020604051806101400160405290816000820160009054906101000a900473ffffffffffffffffffffffffffffffffffffffff1673ffffffffffffffffffffffffffffffffffffffff1673ffffffffffffffffffffffffffffffffffffffff1681526020016001820154815260200160028201805461066a906154a5565b80601f0160208091040260200160405190810160405280929190818152602001828054610696906154a5565b80156106e35780601f106106b8576101008083540402835291602001916106e3565b820191906000526020600020905b8154815290600101906020018083116106c657829003601f168201915b5050505050815260200160038201548152602001600482018054610706906154a5565b80601f0160208091040260200160405190810160405280929190818152602001828054610732906154a5565b801561077f5780601f106107545761010080835404028352916020019161077f565b820191906000526020600020905b81548152906001019060200180831161076257829003601f168201915b50505050508152602001600582015481526020016006820160009054906101000a900460ff161515151581526020016007820180548060200260200160405190810160405280929190818152602001828054801561083257602002820191906000526020600020905b8160009054906101000a900473ffffffffffffffffffffffffffffffffffffffff1673ffffffffffffffffffffffffffffffffffffffff16815260200190600101908083116107e8575b5050505050815260200160088201805461084b906154a5565b80601f0160208091040260200160405190810160405280929190818152602001828054610877906154a5565b80156108c45780601f10610899576101008083540402835291602001916108c4565b820191906000526020600020905b8154815290600101906020018083116108a757829003601f168201915b50505050508152602001600982016040518060800160405290816000820180546108ed906154a5565b80601f0160208091040260200160405190810160405280929190818152602001828054610919906154a5565b80156109665780601f1061093b57610100808354040283529160200191610966565b820191906000526020600020905b81548152906001019060200180831161094957829003601f168201915b5050505050815260200160018201805461097f906154a5565b80601f01602080910402602001604051908101604052809291908181526020018280546109ab906154a5565b80156109f85780601f106109cd576101008083540402835291602001916109f8565b820191906000526020600020905b8154815290600101906020018083116109db57829003601f168201915b50505050508152602001600282018054610a11906154a5565b80601f0160208091040260200160405190810160405280929190818152602001828054610a3d906154a5565b8015610a8a5780601f10610a5f57610100808354040283529160200191610a8a565b820191906000526020600020905b815481529060010190602001808311610a6d57829003601f168201915b50505050508152602001600382015481525050815250509050919050565b60008060008373ffffffffffffffffffffffffffffffffffffffff1673ffffffffffffffffffffffffffffffffffffffff16815260200190815260200160002054905060016005811115610aff57610afe6157c0565b5b600103610d8457600260003373ffffffffffffffffffffffffffffffffffffffff1673ffffffffffffffffffffffffffffffffffffffff16815260200190815260200160002060090160009054906101000a900460ff16610b95576040517f08c379a0000000000000000000000000000000000000000000000000000000008152600401610b8c9061583b565b60405180910390fd5b60026005811115610ba957610ba86157c0565b5b81148015610bca575060016005811115610bc657610bc56157c0565b5b6001145b15610d4857600073ffffffffffffffffffffffffffffffffffffffff16600360008473ffffffffffffffffffffffffffffffffffffffff1673ffffffffffffffffffffffffffffffffffffffff16815260200190815260200160002060000160009054906101000a900473ffffffffffffffffffffffffffffffffffffffff1673ffffffffffffffffffffffffffffffffffffffff1603610ca0576040517f08c379a0000000000000000000000000000000000000000000000000000000008152600401610c97906158a7565b60405180910390fd5b600360008373ffffffffffffffffffffffffffffffffffffffff1673ffffffffffffffffffffffffffffffffffffffff168152602001908152602001600020600701339080600181540180825580915050600190039060005260206000200160009091909190916101000a81548173ffffffffffffffffffffffffffffffffffffffff021916908373ffffffffffffffffffffffffffffffffffffffff160217905550610d83565b6040517f08c379a0000000000000000000000000000000000000000000000000000000008152600401610d7a90615939565b60405180910390fd5b5b5050565b6000604051806080016040528086815260200185815260200184815260200183815250905080600660003373ffffffffffffffffffffffffffffffffffffffff1673ffffffffffffffffffffffffffffffffffffffff1681526020019081526020016000206000820151816000019081610e029190615682565b506020820151816001019081610e189190615682565b506040820151816002019081610e2e9190615682565b50606082015181600301559050505050505050565b6000806000808473ffffffffffffffffffffffffffffffffffffffff1673ffffffffffffffffffffffffffffffffffffffff16815260200190815260200160002054905060016005811115610e9b57610e9a6157c0565b5b8103610eaa5780915050610f70565b600580811115610ebd57610ebc6157c0565b5b8103610ecc5780915050610f70565b60026005811115610ee057610edf6157c0565b5b8103610eef5780915050610f70565b60036005811115610f0357610f026157c0565b5b8103610f125780915050610f70565b60046005811115610f2657610f256157c0565b5b8103610f355780915050610f70565b6040517f08c379a0000000000000000000000000000000000000000000000000000000008152600401610f67906159a5565b60405180910390fd5b919050565b610f7d6140f8565b600260008373ffffffffffffffffffffffffffffffffffffffff1673ffffffffffffffffffffffffffffffffffffffff16815260200190815260200160002060090160009054906101000a900460ff1661100c576040517f08c379a00000000000000000000000000000000000000000000000000000000081526004016110039061583b565b60405180910390fd5b600260008373ffffffffffffffffffffffffffffffffffffffff1673ffffffffffffffffffffffffffffffffffffffff168152602001908152602001600020604051806101800160405290816000820160009054906101000a900473ffffffffffffffffffffffffffffffffffffffff1673ffffffffffffffffffffffffffffffffffffffff1673ffffffffffffffffffffffffffffffffffffffff168152602001600182015481526020016002820180546110c7906154a5565b80601f01602080910402602001604051908101604052809291908181526020018280546110f3906154a5565b80156111405780601f1061111557610100808354040283529160200191611140565b820191906000526020600020905b81548152906001019060200180831161112357829003601f168201915b50505050508152602001600382018054611159906154a5565b80601f0160208091040260200160405190810160405280929190818152602001828054611185906154a5565b80156111d25780601f106111a7576101008083540402835291602001916111d2565b820191906000526020600020905b8154815290600101906020018083116111b557829003601f168201915b505050505081526020016004820154815260200160058201548152602001600682015481526020016007820180548060200260200160405190810160405280929190818152602001828054801561127e57602002820191906000526020600020905b8160009054906101000a900473ffffffffffffffffffffffffffffffffffffffff1673ffffffffffffffffffffffffffffffffffffffff1681526020019060010190808311611234575b505050505081526020016008820180548060200260200160405190810160405280929190818152602001828054801561130c57602002820191906000526020600020905b8160009054906101000a900473ffffffffffffffffffffffffffffffffffffffff1673ffffffffffffffffffffffffffffffffffffffff16815260200190600101908083116112c2575b505050505081526020016009820160009054906101000a900460ff16151515158152602001600a82018054806020026020016040519081016040528092919081815260200182805480156113b557602002820191906000526020600020905b8160009054906101000a900473ffffffffffffffffffffffffffffffffffffffff1673ffffffffffffffffffffffffffffffffffffffff168152602001906001019080831161136b575b50505050508152602001600b820180546113ce906154a5565b80601f01602080910402602001604051908101604052809291908181526020018280546113fa906154a5565b80156114475780601f1061141c57610100808354040283529160200191611447565b820191906000526020600020905b81548152906001019060200180831161142a57829003601f168201915b5050505050815250509050919050565b600460003373ffffffffffffffffffffffffffffffffffffffff1673ffffffffffffffffffffffffffffffffffffffff168152602001908152602001600020600801819080600181540180825580915050600190039060005260206000200160009091909190915090816114cb9190615682565b5050565b60006020528060005260406000206000915090505481565b600660205280600052604060002060009150905080600001805461150a906154a5565b80601f0160208091040260200160405190810160405280929190818152602001828054611536906154a5565b80156115835780601f1061155857610100808354040283529160200191611583565b820191906000526020600020905b81548152906001019060200180831161156657829003601f168201915b505050505090806001018054611598906154a5565b80601f01602080910402602001604051908101604052809291908181526020018280546115c4906154a5565b80156116115780601f106115e657610100808354040283529160200191611611565b820191906000526020600020905b8154815290600101906020018083116115f457829003601f168201915b505050505090806002018054611626906154a5565b80601f0160208091040260200160405190810160405280929190818152602001828054611652906154a5565b801561169f5780601f106116745761010080835404028352916020019161169f565b820191906000526020600020905b81548152906001019060200180831161168257829003601f168201915b5050505050908060030154905084565b600033905060001515600360008373ffffffffffffffffffffffffffffffffffffffff1673ffffffffffffffffffffffffffffffffffffffff16815260200190815260200160002060060160009054906101000a900460ff1615151461174a576040517f08c379a000000000000000000000000000000000000000000000000000000000815260040161174190615a11565b60405180910390fd5b6000600360008373ffffffffffffffffffffffffffffffffffffffff1673ffffffffffffffffffffffffffffffffffffffff1681526020019081526020016000209050818160000160006101000a81548173ffffffffffffffffffffffffffffffffffffffff021916908373ffffffffffffffffffffffffffffffffffffffff160217905550868160010181905550858160020190816117ea9190615682565b50848160030181905550838160040190816118059190615682565b5082816005018190555060026000808473ffffffffffffffffffffffffffffffffffffffff1673ffffffffffffffffffffffffffffffffffffffff1681526020019081526020016000208190555060018160060160006101000a81548160ff0219169083151502179055506040518060400160405280600b81526020017f506174686f6c6f676973740000000000000000000000000000000000000000008152508160080190816118b69190615682565b5050505050505050565b600560003373ffffffffffffffffffffffffffffffffffffffff1673ffffffffffffffffffffffffffffffffffffffff168152602001908152602001600020600901819080600181540180825580915050600190039060005260206000200160009091909190915090816119349190615682565b5050565b600033905060001515600560008373ffffffffffffffffffffffffffffffffffffffff1673ffffffffffffffffffffffffffffffffffffffff16815260200190815260200160002060060160009054906101000a900460ff161515146119d3576040517f08c379a00000000000000000000000000000000000000000000000000000000081526004016119ca90615a11565b60405180910390fd5b6000600560008373ffffffffffffffffffffffffffffffffffffffff1673ffffffffffffffffffffffffffffffffffffffff1681526020019081526020016000209050818160000160006101000a81548173ffffffffffffffffffffffffffffffffffffffff021916908373ffffffffffffffffffffffffffffffffffffffff16021790555086816001018190555085816002019081611a739190615682565b5084816003018190555083816004019081611a8e9190615682565b5082816005018190555060018160060160006101000a81548160ff02191690831515021790555060046000808473ffffffffffffffffffffffffffffffffffffffff1673ffffffffffffffffffffffffffffffffffffffff168152602001908152602001600020819055506040518060400160405280601081526020017f506861726d61637920436f6d70616e7900000000000000000000000000000000815250816008019081611b3f9190615682565b5050505050505050565b611b51614171565b600560008373ffffffffffffffffffffffffffffffffffffffff1673ffffffffffffffffffffffffffffffffffffffff16815260200190815260200160002060060160009054906101000a900460ff16611be0576040517f08c379a0000000000000000000000000000000000000000000000000000000008152600401611bd790615a7d565b60405180910390fd5b600560008373ffffffffffffffffffffffffffffffffffffffff1673ffffffffffffffffffffffffffffffffffffffff168152602001908152602001600020604051806101400160405290816000820160009054906101000a900473ffffffffffffffffffffffffffffffffffffffff1673ffffffffffffffffffffffffffffffffffffffff1673ffffffffffffffffffffffffffffffffffffffff16815260200160018201548152602001600282018054611c9b906154a5565b80601f0160208091040260200160405190810160405280929190818152602001828054611cc7906154a5565b8015611d145780601f10611ce957610100808354040283529160200191611d14565b820191906000526020600020905b815481529060010190602001808311611cf757829003601f168201915b5050505050815260200160038201548152602001600482018054611d37906154a5565b80601f0160208091040260200160405190810160405280929190818152602001828054611d63906154a5565b8015611db05780601f10611d8557610100808354040283529160200191611db0565b820191906000526020600020905b815481529060010190602001808311611d9357829003601f168201915b50505050508152602001600582015481526020016006820160009054906101000a900460ff1615151515815260200160078201805480602002602001604051908101604052809291908181526020018280548015611e6357602002820191906000526020600020905b8160009054906101000a900473ffffffffffffffffffffffffffffffffffffffff1673ffffffffffffffffffffffffffffffffffffffff1681526020019060010190808311611e19575b50505050508152602001600882018054611e7c906154a5565b80601f0160208091040260200160405190810160405280929190818152602001828054611ea8906154a5565b8015611ef55780601f10611eca57610100808354040283529160200191611ef5565b820191906000526020600020905b815481529060010190602001808311611ed857829003601f168201915b5050505050815260200160098201805480602002602001604051908101604052809291908181526020016000905b82821015611fcf578382906000526020600020018054611f42906154a5565b80601f0160208091040260200160405190810160405280929190818152602001828054611f6e906154a5565b8015611fbb5780601f10611f9057610100808354040283529160200191611fbb565b820191906000526020600020905b815481529060010190602001808311611f9e57829003601f168201915b505050505081526020019060010190611f23565b50505050815250509050919050565b60016005811115611ff257611ff16157c0565b5b6000803373ffffffffffffffffffffffffffffffffffffffff1673ffffffffffffffffffffffffffffffffffffffff168152602001908152602001600020540361228557600260003373ffffffffffffffffffffffffffffffffffffffff1673ffffffffffffffffffffffffffffffffffffffff16815260200190815260200160002060090160009054906101000a900460ff166120c5576040517f08c379a00000000000000000000000000000000000000000000000000000000081526004016120bc9061583b565b60405180910390fd5b600260003373ffffffffffffffffffffffffffffffffffffffff1673ffffffffffffffffffffffffffffffffffffffff168152602001908152602001600020600a01829080600181540180825580915050600190039060005260206000200160009091909190916101000a81548173ffffffffffffffffffffffffffffffffffffffff021916908373ffffffffffffffffffffffffffffffffffffffff160217905550600160008373ffffffffffffffffffffffffffffffffffffffff1673ffffffffffffffffffffffffffffffffffffffff168152602001908152602001600020600801819080600181540180825580915050600190039060005260206000200160009091909190915090816121dc9190615682565b50600160008373ffffffffffffffffffffffffffffffffffffffff1673ffffffffffffffffffffffffffffffffffffffff168152602001908152602001600020601101339080600181540180825580915050600190039060005260206000200160009091909190916101000a81548173ffffffffffffffffffffffffffffffffffffffff021916908373ffffffffffffffffffffffffffffffffffffffff1602179055506123e2565b600580811115612298576122976157c0565b5b6000803373ffffffffffffffffffffffffffffffffffffffff1673ffffffffffffffffffffffffffffffffffffffff16815260200190815260200160002054036123e157600160003373ffffffffffffffffffffffffffffffffffffffff1673ffffffffffffffffffffffffffffffffffffffff16815260200190815260200160002060060160009054906101000a900460ff1661236b576040517f08c379a000000000000000000000000000000000000000000000000000000000815260040161236290615ae9565b60405180910390fd5b600160003373ffffffffffffffffffffffffffffffffffffffff1673ffffffffffffffffffffffffffffffffffffffff168152602001908152602001600020600801819080600181540180825580915050600190039060005260206000200160009091909190915090816123df9190615682565b505b5b5050565b60008060008373ffffffffffffffffffffffffffffffffffffffff1673ffffffffffffffffffffffffffffffffffffffff16815260200190815260200160002054905060058081111561243c5761243b6157c0565b5b6005036129da57600160003373ffffffffffffffffffffffffffffffffffffffff1673ffffffffffffffffffffffffffffffffffffffff16815260200190815260200160002060060160009054906101000a900460ff166124d2576040517f08c379a00000000000000000000000000000000000000000000000000000000081526004016124c990615ae9565b60405180910390fd5b600160058111156124e6576124e56157c0565b5b811480156125065750600580811115612502576125016157c0565b5b6005145b15612638576000600260008473ffffffffffffffffffffffffffffffffffffffff1673ffffffffffffffffffffffffffffffffffffffff1681526020019081526020016000206005015403612590576040517f08c379a00000000000000000000000000000000000000000000000000000000081526004016125879061583b565b60405180910390fd5b600260008373ffffffffffffffffffffffffffffffffffffffff1673ffffffffffffffffffffffffffffffffffffffff168152602001908152602001600020600701339080600181540180825580915050600190039060005260206000200160009091909190916101000a81548173ffffffffffffffffffffffffffffffffffffffff021916908373ffffffffffffffffffffffffffffffffffffffff1602179055506129d9565b6003600581111561264c5761264b6157c0565b5b8114801561266c5750600580811115612668576126676157c0565b5b6005145b156127ea57600073ffffffffffffffffffffffffffffffffffffffff16600460008473ffffffffffffffffffffffffffffffffffffffff1673ffffffffffffffffffffffffffffffffffffffff16815260200190815260200160002060000160009054906101000a900473ffffffffffffffffffffffffffffffffffffffff1673ffffffffffffffffffffffffffffffffffffffff1603612742576040517f08c379a000000000000000000000000000000000000000000000000000000000815260040161273990615b7b565b60405180910390fd5b600460008373ffffffffffffffffffffffffffffffffffffffff1673ffffffffffffffffffffffffffffffffffffffff168152602001908152602001600020600701339080600181540180825580915050600190039060005260206000200160009091909190916101000a81548173ffffffffffffffffffffffffffffffffffffffff021916908373ffffffffffffffffffffffffffffffffffffffff1602179055506129d8565b600460058111156127fe576127fd6157c0565b5b8114801561281e575060058081111561281a576128196157c0565b5b6005145b1561299c57600073ffffffffffffffffffffffffffffffffffffffff16600560008473ffffffffffffffffffffffffffffffffffffffff1673ffffffffffffffffffffffffffffffffffffffff16815260200190815260200160002060000160009054906101000a900473ffffffffffffffffffffffffffffffffffffffff1673ffffffffffffffffffffffffffffffffffffffff16036128f4576040517f08c379a00000000000000000000000000000000000000000000000000000000081526004016128eb90615be7565b60405180910390fd5b600560008373ffffffffffffffffffffffffffffffffffffffff1673ffffffffffffffffffffffffffffffffffffffff168152602001908152602001600020600701339080600181540180825580915050600190039060005260206000200160009091909190916101000a81548173ffffffffffffffffffffffffffffffffffffffff021916908373ffffffffffffffffffffffffffffffffffffffff1602179055506129d7565b6040517f08c379a00000000000000000000000000000000000000000000000000000000081526004016129ce90615c79565b60405180910390fd5b5b5b5b5050565b6129e66141dc565b600160008373ffffffffffffffffffffffffffffffffffffffff1673ffffffffffffffffffffffffffffffffffffffff16815260200190815260200160002060060160009054906101000a900460ff16612a75576040517f08c379a0000000000000000000000000000000000000000000000000000000008152600401612a6c90615ce5565b60405180910390fd5b600160008373ffffffffffffffffffffffffffffffffffffffff1673ffffffffffffffffffffffffffffffffffffffff168152602001908152602001600020604051806101600160405290816000820160009054906101000a900473ffffffffffffffffffffffffffffffffffffffff1673ffffffffffffffffffffffffffffffffffffffff1673ffffffffffffffffffffffffffffffffffffffff16815260200160018201548152602001600282018054612b30906154a5565b80601f0160208091040260200160405190810160405280929190818152602001828054612b5c906154a5565b8015612ba95780601f10612b7e57610100808354040283529160200191612ba9565b820191906000526020600020905b815481529060010190602001808311612b8c57829003601f168201915b50505050508152602001600382018054612bc2906154a5565b80601f0160208091040260200160405190810160405280929190818152602001828054612bee906154a5565b8015612c3b5780601f10612c1057610100808354040283529160200191612c3b565b820191906000526020600020905b815481529060010190602001808311612c1e57829003601f168201915b5050505050815260200160048201548152602001600582018054612c5e906154a5565b80601f0160208091040260200160405190810160405280929190818152602001828054612c8a906154a5565b8015612cd75780601f10612cac57610100808354040283529160200191612cd7565b820191906000526020600020905b815481529060010190602001808311612cba57829003601f168201915b505050505081526020016006820160009054906101000a900460ff16151515158152602001600782018054612d0b906154a5565b80601f0160208091040260200160405190810160405280929190818152602001828054612d37906154a5565b8015612d845780601f10612d5957610100808354040283529160200191612d84565b820191906000526020600020905b815481529060010190602001808311612d6757829003601f168201915b5050505050815260200160088201805480602002602001604051908101604052809291908181526020016000905b82821015612e5e578382906000526020600020018054612dd1906154a5565b80601f0160208091040260200160405190810160405280929190818152602001828054612dfd906154a5565b8015612e4a5780601f10612e1f57610100808354040283529160200191612e4a565b820191906000526020600020905b815481529060010190602001808311612e2d57829003601f168201915b505050505081526020019060010190612db2565b505050508152602001600982016040518061010001604052908160008201548152602001600182018054612e91906154a5565b80601f0160208091040260200160405190810160405280929190818152602001828054612ebd906154a5565b8015612f0a5780601f10612edf57610100808354040283529160200191612f0a565b820191906000526020600020905b815481529060010190602001808311612eed57829003601f168201915b50505050508152602001600282018054612f23906154a5565b80601f0160208091040260200160405190810160405280929190818152602001828054612f4f906154a5565b8015612f9c5780601f10612f7157610100808354040283529160200191612f9c565b820191906000526020600020905b815481529060010190602001808311612f7f57829003601f168201915b50505050508152602001600382018054612fb5906154a5565b80601f0160208091040260200160405190810160405280929190818152602001828054612fe1906154a5565b801561302e5780601f106130035761010080835404028352916020019161302e565b820191906000526020600020905b81548152906001019060200180831161301157829003601f168201915b50505050508152602001600482018054613047906154a5565b80601f0160208091040260200160405190810160405280929190818152602001828054613073906154a5565b80156130c05780601f10613095576101008083540402835291602001916130c0565b820191906000526020600020905b8154815290600101906020018083116130a357829003601f168201915b505050505081526020016005820180546130d9906154a5565b80601f0160208091040260200160405190810160405280929190818152602001828054613105906154a5565b80156131525780601f1061312757610100808354040283529160200191613152565b820191906000526020600020905b81548152906001019060200180831161313557829003601f168201915b5050505050815260200160068201805461316b906154a5565b80601f0160208091040260200160405190810160405280929190818152602001828054613197906154a5565b80156131e45780601f106131b9576101008083540402835291602001916131e4565b820191906000526020600020905b8154815290600101906020018083116131c757829003601f168201915b505050505081526020016007820180546131fd906154a5565b80601f0160208091040260200160405190810160405280929190818152602001828054613229906154a5565b80156132765780601f1061324b57610100808354040283529160200191613276565b820191906000526020600020905b81548152906001019060200180831161325957829003601f168201915b50505050508152505081526020016011820180548060200260200160405190810160405280929190818152602001828054801561330857602002820191906000526020600020905b8160009054906101000a900473ffffffffffffffffffffffffffffffffffffffff1673ffffffffffffffffffffffffffffffffffffffff16815260200190600101908083116132be575b5050505050815250509050919050565b600033905060001515600460008373ffffffffffffffffffffffffffffffffffffffff1673ffffffffffffffffffffffffffffffffffffffff16815260200190815260200160002060060160009054906101000a900460ff161515146133b3576040517f08c379a00000000000000000000000000000000000000000000000000000000081526004016133aa90615a11565b60405180910390fd5b6000600460008373ffffffffffffffffffffffffffffffffffffffff1673ffffffffffffffffffffffffffffffffffffffff1681526020019081526020016000209050818160000160006101000a81548173ffffffffffffffffffffffffffffffffffffffff021916908373ffffffffffffffffffffffffffffffffffffffff160217905550868160010181905550858160020190816134539190615682565b508481600301819055508381600401908161346e9190615682565b5082816005018190555060018160060160006101000a81548160ff02191690831515021790555060036000808473ffffffffffffffffffffffffffffffffffffffff1673ffffffffffffffffffffffffffffffffffffffff168152602001908152602001600020819055506040518060400160405280601481526020017f4d65646963616c205265736561726368204c616200000000000000000000000081525081600901908161351f9190615682565b5050505050505050565b60008060008373ffffffffffffffffffffffffffffffffffffffff1673ffffffffffffffffffffffffffffffffffffffff168152602001908152602001600020549050600260058111156135805761357f6157c0565b5b6002036137b957600360003373ffffffffffffffffffffffffffffffffffffffff1673ffffffffffffffffffffffffffffffffffffffff16815260200190815260200160002060060160009054906101000a900460ff16613616576040517f08c379a000000000000000000000000000000000000000000000000000000000815260040161360d90615d51565b60405180910390fd5b6001600581111561362a576136296157c0565b5b8114801561364b575060026005811115613647576136466157c0565b5b6002145b1561377d576000600260008473ffffffffffffffffffffffffffffffffffffffff1673ffffffffffffffffffffffffffffffffffffffff16815260200190815260200160002060050154036136d5576040517f08c379a00000000000000000000000000000000000000000000000000000000081526004016136cc9061583b565b60405180910390fd5b600260008373ffffffffffffffffffffffffffffffffffffffff1673ffffffffffffffffffffffffffffffffffffffff168152602001908152602001600020600801339080600181540180825580915050600190039060005260206000200160009091909190916101000a81548173ffffffffffffffffffffffffffffffffffffffff021916908373ffffffffffffffffffffffffffffffffffffffff1602179055506137b8565b6040517f08c379a00000000000000000000000000000000000000000000000000000000081526004016137af90615de3565b60405180910390fd5b5b5050565b600033905060001515600160008373ffffffffffffffffffffffffffffffffffffffff1673ffffffffffffffffffffffffffffffffffffffff16815260200190815260200160002060060160009054906101000a900460ff16151514613858576040517f08c379a000000000000000000000000000000000000000000000000000000000815260040161384f90615e75565b60405180910390fd5b6000600160008373ffffffffffffffffffffffffffffffffffffffff1673ffffffffffffffffffffffffffffffffffffffff1681526020019081526020016000209050818160000160006101000a81548173ffffffffffffffffffffffffffffffffffffffff021916908373ffffffffffffffffffffffffffffffffffffffff160217905550868160010181905550858160020190816138f89190615682565b508481600301908161390a9190615682565b5083816004018190555060056000808473ffffffffffffffffffffffffffffffffffffffff1673ffffffffffffffffffffffffffffffffffffffff16815260200190815260200160002081905550828160050190816139699190615682565b5060018160060160006101000a81548160ff0219169083151502179055506040518060400160405280600781526020017f50617469656e74000000000000000000000000000000000000000000000000008152508160070190816139cd9190615682565b5050505050505050565b6139df614254565b600460008373ffffffffffffffffffffffffffffffffffffffff1673ffffffffffffffffffffffffffffffffffffffff16815260200190815260200160002060060160009054906101000a900460ff16613a6e576040517f08c379a0000000000000000000000000000000000000000000000000000000008152600401613a6590615b7b565b60405180910390fd5b600460008373ffffffffffffffffffffffffffffffffffffffff1673ffffffffffffffffffffffffffffffffffffffff168152602001908152602001600020604051806101400160405290816000820160009054906101000a900473ffffffffffffffffffffffffffffffffffffffff1673ffffffffffffffffffffffffffffffffffffffff1673ffffffffffffffffffffffffffffffffffffffff16815260200160018201548152602001600282018054613b29906154a5565b80601f0160208091040260200160405190810160405280929190818152602001828054613b55906154a5565b8015613ba25780601f10613b7757610100808354040283529160200191613ba2565b820191906000526020600020905b815481529060010190602001808311613b8557829003601f168201915b5050505050815260200160038201548152602001600482018054613bc5906154a5565b80601f0160208091040260200160405190810160405280929190818152602001828054613bf1906154a5565b8015613c3e5780601f10613c1357610100808354040283529160200191613c3e565b820191906000526020600020905b815481529060010190602001808311613c2157829003601f168201915b50505050508152602001600582015481526020016006820160009054906101000a900460ff1615151515815260200160078201805480602002602001604051908101604052809291908181526020018280548015613cf157602002820191906000526020600020905b8160009054906101000a900473ffffffffffffffffffffffffffffffffffffffff1673ffffffffffffffffffffffffffffffffffffffff1681526020019060010190808311613ca7575b5050505050815260200160088201805480602002602001604051908101604052809291908181526020016000905b82821015613dcb578382906000526020600020018054613d3e906154a5565b80601f0160208091040260200160405190810160405280929190818152602001828054613d6a906154a5565b8015613db75780601f10613d8c57610100808354040283529160200191613db7565b820191906000526020600020905b815481529060010190602001808311613d9a57829003601f168201915b505050505081526020019060010190613d1f565b505050508152602001600982018054613de3906154a5565b80601f0160208091040260200160405190810160405280929190818152602001828054613e0f906154a5565b8015613e5c5780601f10613e3157610100808354040283529160200191613e5c565b820191906000526020600020905b815481529060010190602001808311613e3f57829003601f168201915b5050505050815250509050919050565b600033905060001515600260008373ffffffffffffffffffffffffffffffffffffffff1673ffffffffffffffffffffffffffffffffffffffff16815260200190815260200160002060090160009054906101000a900460ff16151514613f07576040517f08c379a0000000000000000000000000000000000000000000000000000000008152600401613efe90615a11565b60405180910390fd5b6000600260008373ffffffffffffffffffffffffffffffffffffffff1673ffffffffffffffffffffffffffffffffffffffff1681526020019081526020016000209050818160000160006101000a81548173ffffffffffffffffffffffffffffffffffffffff021916908373ffffffffffffffffffffffffffffffffffffffff16021790555087816001018190555086816002019081613fa79190615682565b5085816003019081613fb99190615682565b508481600401819055508381600501819055508281600601819055506040518060400160405280600681526020017f446f63746f72000000000000000000000000000000000000000000000000000081525081600b01908161401b9190615682565b5060018160090160006101000a81548160ff02191690831515021790555060016000808473ffffffffffffffffffffffffffffffffffffffff1673ffffffffffffffffffffffffffffffffffffffff168152602001908152602001600020819055505050505050505050565b604051806101400160405280600073ffffffffffffffffffffffffffffffffffffffff168152602001600081526020016060815260200160008152602001606081526020016000815260200160001515815260200160608152602001606081526020016140f26142bf565b81525090565b604051806101800160405280600073ffffffffffffffffffffffffffffffffffffffff168152602001600081526020016060815260200160608152602001600081526020016000815260200160008152602001606081526020016060815260200160001515815260200160608152602001606081525090565b604051806101400160405280600073ffffffffffffffffffffffffffffffffffffffff16815260200160008152602001606081526020016000815260200160608152602001600081526020016000151581526020016060815260200160608152602001606081525090565b604051806101600160405280600073ffffffffffffffffffffffffffffffffffffffff168152602001600081526020016060815260200160608152602001600081526020016060815260200160001515815260200160608152602001606081526020016142476142e7565b8152602001606081525090565b604051806101400160405280600073ffffffffffffffffffffffffffffffffffffffff16815260200160008152602001606081526020016000815260200160608152602001600081526020016000151581526020016060815260200160608152602001606081525090565b6040518060800160405280606081526020016060815260200160608152602001600081525090565b60405180610100016040528060008152602001606081526020016060815260200160608152602001606081526020016060815260200160608152602001606081525090565b6000604051905090565b600080fd5b600080fd5b6000819050919050565b61435381614340565b811461435e57600080fd5b50565b6000813590506143708161434a565b92915050565b600080fd5b600080fd5b6000601f19601f8301169050919050565b7f4e487b7100000000000000000000000000000000000000000000000000000000600052604160045260246000fd5b6143c982614380565b810181811067ffffffffffffffff821117156143e8576143e7614391565b5b80604052505050565b60006143fb61432c565b905061440782826143c0565b919050565b600067ffffffffffffffff82111561442757614426614391565b5b61443082614380565b9050602081019050919050565b82818337600083830152505050565b600061445f61445a8461440c565b6143f1565b90508281526020810184848401111561447b5761447a61437b565b5b61448684828561443d565b509392505050565b600082601f8301126144a3576144a2614376565b5b81356144b384826020860161444c565b91505092915050565b600080600080600080600080610100898b0312156144dd576144dc614336565b5b60006144eb8b828c01614361565b985050602089013567ffffffffffffffff81111561450c5761450b61433b565b5b6145188b828c0161448e565b975050604089013567ffffffffffffffff8111156145395761453861433b565b5b6145458b828c0161448e565b965050606089013567ffffffffffffffff8111156145665761456561433b565b5b6145728b828c0161448e565b955050608089013567ffffffffffffffff8111156145935761459261433b565b5b61459f8b828c0161448e565b94505060a089013567ffffffffffffffff8111156145c0576145bf61433b565b5b6145cc8b828c0161448e565b93505060c089013567ffffffffffffffff8111156145ed576145ec61433b565b5b6145f98b828c0161448e565b92505060e089013567ffffffffffffffff81111561461a5761461961433b565b5b6146268b828c0161448e565b9150509295985092959890939650565b600073ffffffffffffffffffffffffffffffffffffffff82169050919050565b600061466182614636565b9050919050565b61467181614656565b811461467c57600080fd5b50565b60008135905061468e81614668565b92915050565b6000602082840312156146aa576146a9614336565b5b60006146b88482850161467f565b91505092915050565b6146ca81614656565b82525050565b6146d981614340565b82525050565b600081519050919050565b600082825260208201905092915050565b60005b838110156147195780820151818401526020810190506146fe565b60008484015250505050565b6000614730826146df565b61473a81856146ea565b935061474a8185602086016146fb565b61475381614380565b840191505092915050565b60008115159050919050565b6147738161475e565b82525050565b600081519050919050565b600082825260208201905092915050565b6000819050602082019050919050565b60006147b183836146c1565b60208301905092915050565b6000602082019050919050565b60006147d582614779565b6147df8185614784565b93506147ea83614795565b8060005b8381101561481b57815161480288826147a5565b975061480d836147bd565b9250506001810190506147ee565b5085935050505092915050565b600060808301600083015184820360008601526148458282614725565b9150506020830151848203602086015261485f8282614725565b915050604083015184820360408601526148798282614725565b915050606083015161488e60608601826146d0565b508091505092915050565b6000610140830160008301516148b260008601826146c1565b5060208301516148c560208601826146d0565b50604083015184820360408601526148dd8282614725565b91505060608301516148f260608601826146d0565b506080830151848203608086015261490a8282614725565b91505060a083015161491f60a08601826146d0565b5060c083015161493260c086018261476a565b5060e083015184820360e086015261494a82826147ca565b9150506101008301518482036101008601526149668282614725565b9150506101208301518482036101208601526149828282614828565b9150508091505092915050565b600060208201905081810360008301526149a98184614899565b905092915050565b600080600080608085870312156149cb576149ca614336565b5b600085013567ffffffffffffffff8111156149e9576149e861433b565b5b6149f58782880161448e565b945050602085013567ffffffffffffffff811115614a1657614a1561433b565b5b614a228782880161448e565b935050604085013567ffffffffffffffff811115614a4357614a4261433b565b5b614a4f8782880161448e565b9250506060614a6087828801614361565b91505092959194509250565b614a7581614340565b82525050565b6000602082019050614a906000830184614a6c565b92915050565b600061018083016000830151614aaf60008601826146c1565b506020830151614ac260208601826146d0565b5060408301518482036040860152614ada8282614725565b91505060608301518482036060860152614af48282614725565b9150506080830151614b0960808601826146d0565b5060a0830151614b1c60a08601826146d0565b5060c0830151614b2f60c08601826146d0565b5060e083015184820360e0860152614b4782826147ca565b915050610100830151848203610100860152614b6382826147ca565b915050610120830151614b7a61012086018261476a565b50610140830151848203610140860152614b9482826147ca565b915050610160830151848203610160860152614bb08282614725565b9150508091505092915050565b60006020820190508181036000830152614bd78184614a96565b905092915050565b600060208284031215614bf557614bf4614336565b5b600082013567ffffffffffffffff811115614c1357614c1261433b565b5b614c1f8482850161448e565b91505092915050565b600082825260208201905092915050565b6000614c44826146df565b614c4e8185614c28565b9350614c5e8185602086016146fb565b614c6781614380565b840191505092915050565b60006080820190508181036000830152614c8c8187614c39565b90508181036020830152614ca08186614c39565b90508181036040830152614cb48185614c39565b9050614cc36060830184614a6c565b95945050505050565b600080600080600060a08688031215614ce857614ce7614336565b5b6000614cf688828901614361565b955050602086013567ffffffffffffffff811115614d1757614d1661433b565b5b614d238882890161448e565b9450506040614d3488828901614361565b935050606086013567ffffffffffffffff811115614d5557614d5461433b565b5b614d618882890161448e565b9250506080614d7288828901614361565b9150509295509295909350565b600081519050919050565b600082825260208201905092915050565b6000819050602082019050919050565b6000614db78383614725565b905092915050565b6000602082019050919050565b6000614dd782614d7f565b614de18185614d8a565b935083602082028501614df385614d9b565b8060005b85811015614e2f5784840389528151614e108582614dab565b9450614e1b83614dbf565b925060208a01995050600181019050614df7565b50829750879550505050505092915050565b600061014083016000830151614e5a60008601826146c1565b506020830151614e6d60208601826146d0565b5060408301518482036040860152614e858282614725565b9150506060830151614e9a60608601826146d0565b5060808301518482036080860152614eb28282614725565b91505060a0830151614ec760a08601826146d0565b5060c0830151614eda60c086018261476a565b5060e083015184820360e0860152614ef282826147ca565b915050610100830151848203610100860152614f0e8282614725565b915050610120830151848203610120860152614f2a8282614dcc565b9150508091505092915050565b60006020820190508181036000830152614f518184614e41565b905092915050565b60008060408385031215614f7057614f6f614336565b5b6000614f7e8582860161467f565b925050602083013567ffffffffffffffff811115614f9f57614f9e61433b565b5b614fab8582860161448e565b9150509250929050565b600061010083016000830151614fce60008601826146d0565b5060208301518482036020860152614fe68282614725565b915050604083015184820360408601526150008282614725565b9150506060830151848203606086015261501a8282614725565b915050608083015184820360808601526150348282614725565b91505060a083015184820360a086015261504e8282614725565b91505060c083015184820360c08601526150688282614725565b91505060e083015184820360e08601526150828282614725565b9150508091505092915050565b6000610160830160008301516150a860008601826146c1565b5060208301516150bb60208601826146d0565b50604083015184820360408601526150d38282614725565b915050606083015184820360608601526150ed8282614725565b915050608083015161510260808601826146d0565b5060a083015184820360a086015261511a8282614725565b91505060c083015161512f60c086018261476a565b5060e083015184820360e08601526151478282614725565b9150506101008301518482036101008601526151638282614dcc565b91505061012083015184820361012086015261517f8282614fb5565b91505061014083015184820361014086015261519b82826147ca565b9150508091505092915050565b600060208201905081810360008301526151c2818461508f565b905092915050565b600080600080600060a086880312156151e6576151e5614336565b5b60006151f488828901614361565b955050602086013567ffffffffffffffff8111156152155761521461433b565b5b6152218882890161448e565b945050604086013567ffffffffffffffff8111156152425761524161433b565b5b61524e8882890161448e565b935050606061525f88828901614361565b925050608086013567ffffffffffffffff8111156152805761527f61433b565b5b61528c8882890161448e565b9150509295509295909350565b6000610140830160008301516152b260008601826146c1565b5060208301516152c560208601826146d0565b50604083015184820360408601526152dd8282614725565b91505060608301516152f260608601826146d0565b506080830151848203608086015261530a8282614725565b91505060a083015161531f60a08601826146d0565b5060c083015161533260c086018261476a565b5060e083015184820360e086015261534a82826147ca565b9150506101008301518482036101008601526153668282614dcc565b9150506101208301518482036101208601526153828282614725565b9150508091505092915050565b600060208201905081810360008301526153a98184615299565b905092915050565b60008060008060008060c087890312156153ce576153cd614336565b5b60006153dc89828a01614361565b965050602087013567ffffffffffffffff8111156153fd576153fc61433b565b5b61540989828a0161448e565b955050604087013567ffffffffffffffff81111561542a5761542961433b565b5b61543689828a0161448e565b945050606061544789828a01614361565b935050608061545889828a01614361565b92505060a061546989828a01614361565b9150509295509295509295565b7f4e487b7100000000000000000000000000000000000000000000000000000000600052602260045260246000fd5b600060028204905060018216806154bd57607f821691505b6020821081036154d0576154cf615476565b5b50919050565b60008190508160005260206000209050919050565b60006020601f8301049050919050565b600082821b905092915050565b6000600883026155387fffffffffffffffffffffffffffffffffffffffffffffffffffffffffffffffff826154fb565b61554286836154fb565b95508019841693508086168417925050509392505050565b6000819050919050565b600061557f61557a61557584614340565b61555a565b614340565b9050919050565b6000819050919050565b61559983615564565b6155ad6155a582615586565b848454615508565b825550505050565b600090565b6155c26155b5565b6155cd818484615590565b505050565b5b818110156155f1576155e66000826155ba565b6001810190506155d3565b5050565b601f82111561563657615607816154d6565b615610846154eb565b8101602085101561561f578190505b61563361562b856154eb565b8301826155d2565b50505b505050565b600082821c905092915050565b60006156596000198460080261563b565b1980831691505092915050565b60006156728383615648565b9150826002028217905092915050565b61568b826146df565b67ffffffffffffffff8111156156a4576156a3614391565b5b6156ae82546154a5565b6156b98282856155f5565b600060209050601f8311600181146156ec57600084156156da578287015190505b6156e48582615666565b86555061574c565b601f1984166156fa866154d6565b60005b82811015615722578489015182556001820191506020850194506020810190506156fd565b8683101561573f578489015161573b601f891682615648565b8355505b6001600288020188555050505b505050505050565b7f506174686f6c6f676973747320646f65736e2774206578697374000000000000600082015250565b600061578a601a83614c28565b915061579582615754565b602082019050919050565b600060208201905081810360008301526157b98161577d565b9050919050565b7f4e487b7100000000000000000000000000000000000000000000000000000000600052602160045260246000fd5b7f446f63746f7220646f65736e2774206578697374000000000000000000000000600082015250565b6000615825601483614c28565b9150615830826157ef565b602082019050919050565b6000602082019050818103600083015261585481615818565b9050919050565b7f506174686f6c6f6769737420646f6573206e6f74206578697374000000000000600082015250565b6000615891601a83614c28565b915061589c8261585b565b602082019050919050565b600060208201905081810360008301526158c081615884565b9050919050565b7f446f63746f722063616e207472616e736665722064617461206f6e6c7920706160008201527f74686f6c6f676973747320000000000000000000000000000000000000000000602082015250565b6000615923602b83614c28565b915061592e826158c7565b604082019050919050565b6000602082019050818103600083015261595281615916565b9050919050565b7f4e6f206163636f756e7400000000000000000000000000000000000000000000600082015250565b600061598f600a83614c28565b915061599a82615959565b602082019050919050565b600060208201905081810360008301526159be81615982565b9050919050565b7f596f7520616c72656164792063726561746520796f75722070726f66696c6500600082015250565b60006159fb601f83614c28565b9150615a06826159c5565b602082019050919050565b60006020820190508181036000830152615a2a816159ee565b9050919050565b7f506861726d61637920436f6d70616e69657320646f65736e2774206578697374600082015250565b6000615a67602083614c28565b9150615a7282615a31565b602082019050919050565b60006020820190508181036000830152615a9681615a5a565b9050919050565b7f50617469656e7420646f65736e27742065786973740000000000000000000000600082015250565b6000615ad3601583614c28565b9150615ade82615a9d565b602082019050919050565b60006020820190508181036000830152615b0281615ac6565b9050919050565b7f4d65646963616c205265736561726368204c616220646f65736e27742065786960008201527f7374000000000000000000000000000000000000000000000000000000000000602082015250565b6000615b65602283614c28565b9150615b7082615b09565b604082019050919050565b60006020820190508181036000830152615b9481615b58565b9050919050565b7f506861726d61637920436f6d70616e7920646f65736e27742065786973740000600082015250565b6000615bd1601e83614c28565b9150615bdc82615b9b565b602082019050919050565b60006020820190508181036000830152615c0081615bc4565b9050919050565b7f50617469656e742063616e207472616e73666572206461746120776974686f7560008201527f7420706174686f6c6f6769737473200000000000000000000000000000000000602082015250565b6000615c63602f83614c28565b9150615c6e82615c07565b604082019050919050565b60006020820190508181036000830152615c9281615c56565b9050919050565b7f50617469656e7420646f6573206e6f7420657869737400000000000000000000600082015250565b6000615ccf601683614c28565b9150615cda82615c99565b602082019050919050565b60006020820190508181036000830152615cfe81615cc2565b9050919050565b7f506174686f6c6f6769737420646f65736e277420657869737400000000000000600082015250565b6000615d3b601983614c28565b9150615d4682615d05565b602082019050919050565b60006020820190508181036000830152615d6a81615d2e565b9050919050565b7f706174686f6c6f67697374732063616e207472616e736665722064617461206f60008201527f6e6c7920646f63746f7200000000000000000000000000000000000000000000602082015250565b6000615dcd602a83614c28565b9150615dd882615d71565b604082019050919050565b60006020820190508181036000830152615dfc81615dc0565b9050919050565b7f596f75206861766520616c7265616479206372656174656420796f757220707260008201527f6f66696c65000000000000000000000000000000000000000000000000000000602082015250565b6000615e5f602583614c28565b9150615e6a82615e03565b604082019050919050565b60006020820190508181036000830152615e8e81615e52565b905091905056fea26469706673582212208f312d024f7bbb799302601c5be945cc4cc8abdf8fd70e7d17b596b4691080ab64736f6c63430008110033",
  "linkReferences": {},
  "deployedLinkReferences": {}
}