{
  "_format": "hh-sol-artifact-1",
  "contractName": "MedicalData",
  "sourceName": "contracts/patientDataManagement.sol",
  "abi": [
    {
      "inputs": [
        {
          "internalType": "address",
          "name": "user",
          "type": "address"
        }
      ],
      "name": "accressDataAnyone",
      "outputs": [],
      "stateMutability": "nonpayable",
      "type": "function"
    },
    {
      "inputs": [
        {
          "internalType": "address",
          "name": "",
          "type": "address"
        },
        {
          "internalType": "address",
          "name": "",
          "type": "address"
        }
      ],
      "name": "accressList",
      "outputs": [
        {
          "internalType": "bool",
          "name": "",
          "type": "bool"
        }
      ],
      "stateMutability": "view",
      "type": "function"
    },
    {
      "inputs": [
        {
          "internalType": "string",
          "name": "entityType",
          "type": "string"
        },
        {
          "internalType": "string",
          "name": "data",
          "type": "string"
        }
      ],
      "name": "addData",
      "outputs": [],
      "stateMutability": "nonpayable",
      "type": "function"
    },
    {
      "inputs": [
        {
          "internalType": "uint256",
          "name": "",
          "type": "uint256"
        }
      ],
      "name": "allDoctorAddress",
      "outputs": [
        {
          "internalType": "address",
          "name": "",
          "type": "address"
        }
      ],
      "stateMutability": "view",
      "type": "function"
    },
    {
      "inputs": [
        {
          "internalType": "uint256",
          "name": "",
          "type": "uint256"
        }
      ],
      "name": "allHospitalAddress",
      "outputs": [
        {
          "internalType": "address",
          "name": "",
          "type": "address"
        }
      ],
      "stateMutability": "view",
      "type": "function"
    },
    {
      "inputs": [
        {
          "internalType": "uint256",
          "name": "",
          "type": "uint256"
        }
      ],
      "name": "allPatientsAddress",
      "outputs": [
        {
          "internalType": "address",
          "name": "",
          "type": "address"
        }
      ],
      "stateMutability": "view",
      "type": "function"
    },
    {
      "inputs": [
        {
          "internalType": "uint256",
          "name": "",
          "type": "uint256"
        }
      ],
      "name": "allPharmacyCompanyAddress",
      "outputs": [
        {
          "internalType": "address",
          "name": "",
          "type": "address"
        }
      ],
      "stateMutability": "view",
      "type": "function"
    },
    {
      "inputs": [
        {
          "internalType": "uint256",
          "name": "",
          "type": "uint256"
        }
      ],
      "name": "allmedicalResearchLabsAddress",
      "outputs": [
        {
          "internalType": "address",
          "name": "",
          "type": "address"
        }
      ],
      "stateMutability": "view",
      "type": "function"
    },
    {
      "inputs": [
        {
          "internalType": "uint256",
          "name": "",
          "type": "uint256"
        }
      ],
      "name": "allparentsAddress",
      "outputs": [
        {
          "internalType": "address",
          "name": "",
          "type": "address"
        }
      ],
      "stateMutability": "view",
      "type": "function"
    },
    {
      "inputs": [
        {
          "internalType": "uint256",
          "name": "",
          "type": "uint256"
        }
      ],
      "name": "allpathologistsAddress",
      "outputs": [
        {
          "internalType": "address",
          "name": "",
          "type": "address"
        }
      ],
      "stateMutability": "view",
      "type": "function"
    },
    {
      "inputs": [
        {
          "internalType": "address",
          "name": "_doctorAddress",
          "type": "address"
        }
      ],
      "name": "getDoctor",
      "outputs": [
        {
          "components": [
            {
              "internalType": "address",
              "name": "DoctorAddress",
              "type": "address"
            },
            {
              "internalType": "string",
              "name": "doctorID",
              "type": "string"
            },
            {
              "internalType": "string",
              "name": "name",
              "type": "string"
            },
            {
              "internalType": "string",
              "name": "specialty",
              "type": "string"
            },
            {
              "internalType": "uint256",
              "name": "consultationFee",
              "type": "uint256"
            },
            {
              "internalType": "uint256",
              "name": "BMDCNumber",
              "type": "uint256"
            },
            {
              "internalType": "string",
              "name": "yearOfExperience",
              "type": "string"
            },
            {
              "internalType": "uint256",
              "name": "joiningDate",
              "type": "uint256"
            },
            {
              "internalType": "uint256",
              "name": "totalRating",
              "type": "uint256"
            },
            {
              "internalType": "string",
              "name": "aboutDoctors",
              "type": "string"
            },
            {
              "internalType": "string",
              "name": "chamberLocation",
              "type": "string"
            },
            {
              "internalType": "bool",
              "name": "isAdded",
              "type": "bool"
            },
            {
              "internalType": "string[]",
              "name": "data",
              "type": "string[]"
            }
          ],
          "internalType": "struct MedicalData.Doctor",
          "name": "",
          "type": "tuple"
        }
      ],
      "stateMutability": "view",
      "type": "function"
    },
    {
      "inputs": [
        {
          "internalType": "address",
          "name": "_labAddress",
          "type": "address"
        }
      ],
      "name": "getMedicalResearchLab",
      "outputs": [
        {
          "components": [
            {
              "internalType": "address",
              "name": "labAddress",
              "type": "address"
            },
            {
              "internalType": "string",
              "name": "labID",
              "type": "string"
            },
            {
              "internalType": "string",
              "name": "name",
              "type": "string"
            },
            {
              "internalType": "uint256",
              "name": "licenseID",
              "type": "uint256"
            },
            {
              "internalType": "string",
              "name": "researchArea",
              "type": "string"
            },
            {
              "internalType": "string",
              "name": "labRating",
              "type": "string"
            },
            {
              "internalType": "bool",
              "name": "isAdded",
              "type": "bool"
            },
            {
              "internalType": "string[]",
              "name": "data",
              "type": "string[]"
            }
          ],
          "internalType": "struct MedicalData.MedicalResearchLab",
          "name": "",
          "type": "tuple"
        }
      ],
      "stateMutability": "view",
      "type": "function"
    },
    {
      "inputs": [
        {
          "internalType": "address",
          "name": "_pathologistAddress",
          "type": "address"
        }
      ],
      "name": "getPathologist",
      "outputs": [
        {
          "components": [
            {
              "internalType": "address",
              "name": "pathologistAddress",
              "type": "address"
            },
            {
              "internalType": "string",
              "name": "pathologistID",
              "type": "string"
            },
            {
              "internalType": "string",
              "name": "name",
              "type": "string"
            },
            {
              "internalType": "uint256",
              "name": "licenseNumber",
              "type": "uint256"
            },
            {
              "internalType": "string",
              "name": "specializationArea",
              "type": "string"
            },
            {
              "internalType": "string",
              "name": "serviceArea",
              "type": "string"
            },
            {
              "internalType": "uint256",
              "name": "totalExperience",
              "type": "uint256"
            },
            {
              "internalType": "uint256",
              "name": "totalRating",
              "type": "uint256"
            },
            {
              "internalType": "string",
              "name": "review",
              "type": "string"
            },
            {
              "internalType": "bool",
              "name": "isAdded",
              "type": "bool"
            },
            {
              "internalType": "string[]",
              "name": "data",
              "type": "string[]"
            }
          ],
          "internalType": "struct MedicalData.Pathologist",
          "name": "",
          "type": "tuple"
        }
      ],
      "stateMutability": "view",
      "type": "function"
    },
    {
      "inputs": [
        {
          "internalType": "address",
          "name": "_patientAddress",
          "type": "address"
        }
      ],
      "name": "getPatient",
      "outputs": [
        {
          "components": [
            {
              "internalType": "address",
              "name": "patientAddress",
              "type": "address"
            },
            {
              "internalType": "string",
              "name": "patientID",
              "type": "string"
            },
            {
              "internalType": "string",
              "name": "name",
              "type": "string"
            },
            {
              "internalType": "string",
              "name": "gender",
              "type": "string"
            },
            {
              "internalType": "uint256",
              "name": "age",
              "type": "uint256"
            },
            {
              "internalType": "string",
              "name": "bloodGroup",
              "type": "string"
            },
            {
              "internalType": "string",
              "name": "location",
              "type": "string"
            },
            {
              "internalType": "string",
              "name": "NIDInfo",
              "type": "string"
            },
            {
              "internalType": "bool",
              "name": "isAdded",
              "type": "bool"
            },
            {
              "internalType": "string[]",
              "name": "data",
              "type": "string[]"
            }
          ],
          "internalType": "struct MedicalData.Patient",
          "name": "",
          "type": "tuple"
        }
      ],
      "stateMutability": "view",
      "type": "function"
    },
    {
      "inputs": [
        {
          "internalType": "address",
          "name": "_pharmacyCompanyAddress",
          "type": "address"
        }
      ],
      "name": "getPharmacyCompany",
      "outputs": [
        {
          "components": [
            {
              "internalType": "address",
              "name": "pharmacyCompanyAddress",
              "type": "address"
            },
            {
              "internalType": "string",
              "name": "companyID",
              "type": "string"
            },
            {
              "internalType": "string",
              "name": "name",
              "type": "string"
            },
            {
              "internalType": "uint256",
              "name": "licenseID",
              "type": "uint256"
            },
            {
              "internalType": "string",
              "name": "productInformation",
              "type": "string"
            },
            {
              "internalType": "string",
              "name": "pharmacyRating",
              "type": "string"
            },
            {
              "internalType": "bool",
              "name": "isAdded",
              "type": "bool"
            },
            {
              "internalType": "string[]",
              "name": "data",
              "type": "string[]"
            }
          ],
          "internalType": "struct MedicalData.PharmacyCompany",
          "name": "",
          "type": "tuple"
        }
      ],
      "stateMutability": "view",
      "type": "function"
    },
    {
      "inputs": [
        {
          "internalType": "address",
          "name": "user",
          "type": "address"
        }
      ],
      "name": "revokeDataAnyone",
      "outputs": [],
      "stateMutability": "nonpayable",
      "type": "function"
    },
    {
      "inputs": [
        {
          "internalType": "string",
          "name": "doctorID",
          "type": "string"
        },
        {
          "internalType": "string",
          "name": "name",
          "type": "string"
        },
        {
          "internalType": "string",
          "name": "specialty",
          "type": "string"
        },
        {
          "internalType": "uint256",
          "name": "consultationFee",
          "type": "uint256"
        },
        {
          "internalType": "uint256",
          "name": "BMDCNumber",
          "type": "uint256"
        },
        {
          "internalType": "string",
          "name": "yearOfExperience",
          "type": "string"
        },
        {
          "internalType": "uint256",
          "name": "joiningDate",
          "type": "uint256"
        },
        {
          "internalType": "uint256",
          "name": "totalRating",
          "type": "uint256"
        },
        {
          "internalType": "string",
          "name": "aboutDoctors",
          "type": "string"
        },
        {
          "internalType": "string",
          "name": "chamberLocation",
          "type": "string"
        }
      ],
      "name": "setDoctor",
      "outputs": [],
      "stateMutability": "nonpayable",
      "type": "function"
    },
    {
      "inputs": [
        {
          "internalType": "string",
          "name": "labID",
          "type": "string"
        },
        {
          "internalType": "string",
          "name": "name",
          "type": "string"
        },
        {
          "internalType": "uint256",
          "name": "licenseID",
          "type": "uint256"
        },
        {
          "internalType": "string",
          "name": "researchArea",
          "type": "string"
        },
        {
          "internalType": "string",
          "name": "labRating",
          "type": "string"
        }
      ],
      "name": "setMedicalResearchLab",
      "outputs": [],
      "stateMutability": "nonpayable",
      "type": "function"
    },
    {
      "inputs": [
        {
          "internalType": "string",
          "name": "pathologistID",
          "type": "string"
        },
        {
          "internalType": "string",
          "name": "name",
          "type": "string"
        },
        {
          "internalType": "uint256",
          "name": "licenseNumber",
          "type": "uint256"
        },
        {
          "internalType": "string",
          "name": "specializationArea",
          "type": "string"
        },
        {
          "internalType": "string",
          "name": "serviceArea",
          "type": "string"
        },
        {
          "internalType": "uint256",
          "name": "totalExperience",
          "type": "uint256"
        },
        {
          "internalType": "uint256",
          "name": "totalRating",
          "type": "uint256"
        },
        {
          "internalType": "string",
          "name": "review",
          "type": "string"
        }
      ],
      "name": "setPathologist",
      "outputs": [],
      "stateMutability": "nonpayable",
      "type": "function"
    },
    {
      "inputs": [
        {
          "internalType": "string",
          "name": "patientID",
          "type": "string"
        },
        {
          "internalType": "string",
          "name": "name",
          "type": "string"
        },
        {
          "internalType": "string",
          "name": "gender",
          "type": "string"
        },
        {
          "internalType": "uint256",
          "name": "age",
          "type": "uint256"
        },
        {
          "internalType": "string",
          "name": "bloodGroup",
          "type": "string"
        },
        {
          "internalType": "string",
          "name": "location",
          "type": "string"
        },
        {
          "internalType": "string",
          "name": "NIDInfo",
          "type": "string"
        }
      ],
      "name": "setPatient",
      "outputs": [],
      "stateMutability": "nonpayable",
      "type": "function"
    },
    {
      "inputs": [
        {
          "internalType": "string",
          "name": "companyID",
          "type": "string"
        },
        {
          "internalType": "string",
          "name": "name",
          "type": "string"
        },
        {
          "internalType": "uint256",
          "name": "licenseID",
          "type": "uint256"
        },
        {
          "internalType": "string",
          "name": "productInformation",
          "type": "string"
        },
        {
          "internalType": "string",
          "name": "pharmacyRating",
          "type": "string"
        }
      ],
      "name": "setPharmacyCompany",
      "outputs": [],
      "stateMutability": "nonpayable",
      "type": "function"
    },
    {
      "inputs": [
        {
          "internalType": "string",
          "name": "entityType1",
          "type": "string"
        },
        {
          "internalType": "string",
          "name": "entityType2",
          "type": "string"
        },
        {
          "internalType": "address",
          "name": "user1",
          "type": "address"
        },
        {
          "internalType": "address",
          "name": "user2",
          "type": "address"
        }
      ],
      "name": "transferData",
      "outputs": [],
      "stateMutability": "nonpayable",
      "type": "function"
    }
  ],
  "bytecode": "0x608060405234801561001057600080fd5b50615e4580620000216000396000f3fe608060405234801561001057600080fd5b50600436106101425760003560e01c80635b3d300c116100b8578063b5368e201161007c578063b5368e20146103a7578063d96e84a5146103d7578063db0f477814610407578063ea8c9e0414610423578063ef5c2d8914610453578063fb57baff1461048357610142565b80635b3d300c146102df57806362106a3a1461030f57806372232f141461032b5780638e87d2f9146103475780639059229b1461037757610142565b8063325b5c791161010a578063325b5c79146101fb578063457782741461022b5780634854240b1461025b5780634903621714610277578063528407e51461029357806354a7d253146102af57610142565b806316ecfa841461014757806325570ae9146101775780632741a3db146101935780632f04e064146101af578063307f46ea146101df575b600080fd5b610161600480360381019061015c91906141c3565b6104b3565b60405161016e9190614497565b60405180910390f35b610191600480360381019061018c91906141c3565b610ae6565b005b6101ad60048036038101906101a8919061461a565b610c2a565b005b6101c960048036038101906101c491906141c3565b610e25565b6040516101d69190614848565b60405180910390f35b6101f960048036038101906101f4919061486a565b6114f4565b005b61021560048036038101906102109190614909565b611e40565b6040516102229190614945565b60405180910390f35b61024560048036038101906102409190614909565b611e7f565b6040516102529190614945565b60405180910390f35b6102756004803603810190610270919061461a565b611ebe565b005b610291600480360381019061028c9190614960565b6120b9565b005b6102ad60048036038101906102a89190614aa2565b6122db565b005b6102c960048036038101906102c49190614909565b612665565b6040516102d69190614945565b60405180910390f35b6102f960048036038101906102f49190614909565b6126a4565b6040516103069190614945565b60405180910390f35b61032960048036038101906103249190614b1a565b6126e3565b005b610345600480360381019061034091906141c3565b612922565b005b610361600480360381019061035c9190614909565b612a66565b60405161036e9190614945565b60405180910390f35b610391600480360381019061038c91906141c3565b612aa5565b60405161039e9190614d6d565b60405180910390f35b6103c160048036038101906103bc91906141c3565b613032565b6040516103ce9190614e93565b60405180910390f35b6103f160048036038101906103ec9190614eb5565b6136e1565b6040516103fe9190614f04565b60405180910390f35b610421600480360381019061041c9190614f1f565b613710565b005b61043d600480360381019061043891906141c3565b61392f565b60405161044a9190615135565b60405180910390f35b61046d60048036038101906104689190614909565b613ebc565b60405161047a9190614945565b60405180910390f35b61049d60048036038101906104989190614909565b613efb565b6040516104aa9190614945565b60405180910390f35b6104bb613f3a565b81600260008273ffffffffffffffffffffffffffffffffffffffff1673ffffffffffffffffffffffffffffffffffffffff16815260200190815260200160002060090160009054906101000a900460ff1661054b576040517f08c379a0000000000000000000000000000000000000000000000000000000008152600401610542906151b4565b60405180910390fd5b8073ffffffffffffffffffffffffffffffffffffffff163373ffffffffffffffffffffffffffffffffffffffff161480610612575060011515600560008373ffffffffffffffffffffffffffffffffffffffff1673ffffffffffffffffffffffffffffffffffffffff16815260200190815260200160002060003373ffffffffffffffffffffffffffffffffffffffff1673ffffffffffffffffffffffffffffffffffffffff16815260200190815260200160002060009054906101000a900460ff161515145b610651576040517f08c379a000000000000000000000000000000000000000000000000000000000815260040161064890615246565b60405180910390fd5b600260008473ffffffffffffffffffffffffffffffffffffffff1673ffffffffffffffffffffffffffffffffffffffff168152602001908152602001600020604051806101600160405290816000820160009054906101000a900473ffffffffffffffffffffffffffffffffffffffff1673ffffffffffffffffffffffffffffffffffffffff1673ffffffffffffffffffffffffffffffffffffffff16815260200160018201805461070290615295565b80601f016020809104026020016040519081016040528092919081815260200182805461072e90615295565b801561077b5780601f106107505761010080835404028352916020019161077b565b820191906000526020600020905b81548152906001019060200180831161075e57829003601f168201915b5050505050815260200160028201805461079490615295565b80601f01602080910402602001604051908101604052809291908181526020018280546107c090615295565b801561080d5780601f106107e25761010080835404028352916020019161080d565b820191906000526020600020905b8154815290600101906020018083116107f057829003601f168201915b505050505081526020016003820154815260200160048201805461083090615295565b80601f016020809104026020016040519081016040528092919081815260200182805461085c90615295565b80156108a95780601f1061087e576101008083540402835291602001916108a9565b820191906000526020600020905b81548152906001019060200180831161088c57829003601f168201915b505050505081526020016005820180546108c290615295565b80601f01602080910402602001604051908101604052809291908181526020018280546108ee90615295565b801561093b5780601f106109105761010080835404028352916020019161093b565b820191906000526020600020905b81548152906001019060200180831161091e57829003601f168201915b50505050508152602001600682015481526020016007820154815260200160088201805461096890615295565b80601f016020809104026020016040519081016040528092919081815260200182805461099490615295565b80156109e15780601f106109b6576101008083540402835291602001916109e1565b820191906000526020600020905b8154815290600101906020018083116109c457829003601f168201915b505050505081526020016009820160009054906101000a900460ff16151515158152602001600a8201805480602002602001604051908101604052809291908181526020016000905b82821015610ad6578382906000526020600020018054610a4990615295565b80601f0160208091040260200160405190810160405280929190818152602001828054610a7590615295565b8015610ac25780601f10610a9757610100808354040283529160200191610ac2565b820191906000526020600020905b815481529060010190602001808311610aa557829003601f168201915b505050505081526020019060010190610a2a565b5050505081525050915050919050565b8073ffffffffffffffffffffffffffffffffffffffff163373ffffffffffffffffffffffffffffffffffffffff1603610b54576040517f08c379a0000000000000000000000000000000000000000000000000000000008152600401610b4b90615312565b60405180910390fd5b6000600560003373ffffffffffffffffffffffffffffffffffffffff1673ffffffffffffffffffffffffffffffffffffffff16815260200190815260200160002060008373ffffffffffffffffffffffffffffffffffffffff1673ffffffffffffffffffffffffffffffffffffffff16815260200190815260200160002060006101000a81548160ff0219169083151502179055610c27576040517f08c379a0000000000000000000000000000000000000000000000000000000008152600401610c1e906153a4565b60405180910390fd5b50565b600033905060001515600460008373ffffffffffffffffffffffffffffffffffffffff1673ffffffffffffffffffffffffffffffffffffffff16815260200190815260200160002060060160009054906101000a900460ff16151514610cc5576040517f08c379a0000000000000000000000000000000000000000000000000000000008152600401610cbc90615410565b60405180910390fd5b6000600460008373ffffffffffffffffffffffffffffffffffffffff1673ffffffffffffffffffffffffffffffffffffffff1681526020019081526020016000209050818160000160006101000a81548173ffffffffffffffffffffffffffffffffffffffff021916908373ffffffffffffffffffffffffffffffffffffffff16021790555086816001019081610d5c91906155dc565b5085816002019081610d6e91906155dc565b5084816003018190555083816004019081610d8991906155dc565b5082816005019081610d9b91906155dc565b5060018160060160006101000a81548160ff021916908315150217905550600c829080600181540180825580915050600190039060005260206000200160009091909190916101000a81548173ffffffffffffffffffffffffffffffffffffffff021916908373ffffffffffffffffffffffffffffffffffffffff16021790555050505050505050565b610e2d613fac565b81600160008273ffffffffffffffffffffffffffffffffffffffff1673ffffffffffffffffffffffffffffffffffffffff168152602001908152602001600020600b0160009054906101000a900460ff16610ebd576040517f08c379a0000000000000000000000000000000000000000000000000000000008152600401610eb4906156fa565b60405180910390fd5b8073ffffffffffffffffffffffffffffffffffffffff163373ffffffffffffffffffffffffffffffffffffffff161480610f84575060011515600560008373ffffffffffffffffffffffffffffffffffffffff1673ffffffffffffffffffffffffffffffffffffffff16815260200190815260200160002060003373ffffffffffffffffffffffffffffffffffffffff1673ffffffffffffffffffffffffffffffffffffffff16815260200190815260200160002060009054906101000a900460ff161515145b610fc3576040517f08c379a0000000000000000000000000000000000000000000000000000000008152600401610fba90615246565b60405180910390fd5b600160008473ffffffffffffffffffffffffffffffffffffffff1673ffffffffffffffffffffffffffffffffffffffff168152602001908152602001600020604051806101a00160405290816000820160009054906101000a900473ffffffffffffffffffffffffffffffffffffffff1673ffffffffffffffffffffffffffffffffffffffff1673ffffffffffffffffffffffffffffffffffffffff16815260200160018201805461107490615295565b80601f01602080910402602001604051908101604052809291908181526020018280546110a090615295565b80156110ed5780601f106110c2576101008083540402835291602001916110ed565b820191906000526020600020905b8154815290600101906020018083116110d057829003601f168201915b5050505050815260200160028201805461110690615295565b80601f016020809104026020016040519081016040528092919081815260200182805461113290615295565b801561117f5780601f106111545761010080835404028352916020019161117f565b820191906000526020600020905b81548152906001019060200180831161116257829003601f168201915b5050505050815260200160038201805461119890615295565b80601f01602080910402602001604051908101604052809291908181526020018280546111c490615295565b80156112115780601f106111e657610100808354040283529160200191611211565b820191906000526020600020905b8154815290600101906020018083116111f457829003601f168201915b50505050508152602001600482015481526020016005820154815260200160068201805461123e90615295565b80601f016020809104026020016040519081016040528092919081815260200182805461126a90615295565b80156112b75780601f1061128c576101008083540402835291602001916112b7565b820191906000526020600020905b81548152906001019060200180831161129a57829003601f168201915b5050505050815260200160078201548152602001600882015481526020016009820180546112e490615295565b80601f016020809104026020016040519081016040528092919081815260200182805461131090615295565b801561135d5780601f106113325761010080835404028352916020019161135d565b820191906000526020600020905b81548152906001019060200180831161134057829003601f168201915b50505050508152602001600a8201805461137690615295565b80601f01602080910402602001604051908101604052809291908181526020018280546113a290615295565b80156113ef5780601f106113c4576101008083540402835291602001916113ef565b820191906000526020600020905b8154815290600101906020018083116113d257829003601f168201915b50505050508152602001600b820160009054906101000a900460ff16151515158152602001600c8201805480602002602001604051908101604052809291908181526020016000905b828210156114e457838290600052602060002001805461145790615295565b80601f016020809104026020016040519081016040528092919081815260200182805461148390615295565b80156114d05780601f106114a5576101008083540402835291602001916114d0565b820191906000526020600020905b8154815290600101906020018083116114b357829003601f168201915b505050505081526020019060010190611438565b5050505081525050915050919050565b7f675bc9802ff0994bbcafe826bffd0f15ec0a3ec17fd0cfbe035a08cbededf8a3848051906020012003611e3a576000808373ffffffffffffffffffffffffffffffffffffffff1673ffffffffffffffffffffffffffffffffffffffff16815260200190815260200160002060080160009054906101000a900460ff166115b0576040517f08c379a00000000000000000000000000000000000000000000000000000000081526004016115a790615766565b60405180910390fd5b60008060008473ffffffffffffffffffffffffffffffffffffffff1673ffffffffffffffffffffffffffffffffffffffff1681526020019081526020016000206009018054905011611637576040517f08c379a000000000000000000000000000000000000000000000000000000000815260040161162e906157d2565b60405180910390fd5b7f81801538196f6575c6900044ae3429ef092e7ad29a7f4da69ed7f897d69f57598380519060200120036117ef576000600160008373ffffffffffffffffffffffffffffffffffffffff1673ffffffffffffffffffffffffffffffffffffffff16815260200190815260200160002060050154036116ea576040517f08c379a00000000000000000000000000000000000000000000000000000000081526004016116e1906156fa565b60405180910390fd5b60008060008473ffffffffffffffffffffffffffffffffffffffff1673ffffffffffffffffffffffffffffffffffffffff16815260200190815260200160002060090190506000600160008473ffffffffffffffffffffffffffffffffffffffff1673ffffffffffffffffffffffffffffffffffffffff168152602001908152602001600020600c01905060005b82805490508110156117e75781838281548110611798576117976157f2565b5b906000526020600020019080600181540180825580915050600190039060005260206000200160009091909190915090816117d3919061584c565b5080806117df90615963565b915050611778565b505050611e39565b7f25c5b8ad70a2aae48e105ad1defb4db2071cfe805f37688493811662827be1428380519060200120036119f357600073ffffffffffffffffffffffffffffffffffffffff16600260008373ffffffffffffffffffffffffffffffffffffffff1673ffffffffffffffffffffffffffffffffffffffff16815260200190815260200160002060000160009054906101000a900473ffffffffffffffffffffffffffffffffffffffff1673ffffffffffffffffffffffffffffffffffffffff16036118ee576040517f08c379a00000000000000000000000000000000000000000000000000000000081526004016118e5906159f7565b60405180910390fd5b60008060008473ffffffffffffffffffffffffffffffffffffffff1673ffffffffffffffffffffffffffffffffffffffff16815260200190815260200160002060090190506000600260008473ffffffffffffffffffffffffffffffffffffffff1673ffffffffffffffffffffffffffffffffffffffff168152602001908152602001600020600a01905060005b82805490508110156119eb578183828154811061199c5761199b6157f2565b5b906000526020600020019080600181540180825580915050600190039060005260206000200160009091909190915090816119d7919061584c565b5080806119e390615963565b91505061197c565b505050611e38565b7f8aef25603e09a14c263a6e271c085f8e2764c5df2a79ce7ef9270a7bdd45072c838051906020012003611bf757600073ffffffffffffffffffffffffffffffffffffffff16600360008373ffffffffffffffffffffffffffffffffffffffff1673ffffffffffffffffffffffffffffffffffffffff16815260200190815260200160002060000160009054906101000a900473ffffffffffffffffffffffffffffffffffffffff1673ffffffffffffffffffffffffffffffffffffffff1603611af2576040517f08c379a0000000000000000000000000000000000000000000000000000000008152600401611ae990615a89565b60405180910390fd5b60008060008473ffffffffffffffffffffffffffffffffffffffff1673ffffffffffffffffffffffffffffffffffffffff16815260200190815260200160002060090190506000600360008473ffffffffffffffffffffffffffffffffffffffff1673ffffffffffffffffffffffffffffffffffffffff168152602001908152602001600020600701905060005b8280549050811015611bef5781838281548110611ba057611b9f6157f2565b5b90600052602060002001908060018154018082558091505060019003906000526020600020016000909190919091509081611bdb919061584c565b508080611be790615963565b915050611b80565b505050611e37565b7f07e343dc849601cdf88dd1e300e4fa5a1a1ae98568c5b9d8cea9dacb2617385a838051906020012003611dfb57600073ffffffffffffffffffffffffffffffffffffffff16600460008373ffffffffffffffffffffffffffffffffffffffff1673ffffffffffffffffffffffffffffffffffffffff16815260200190815260200160002060000160009054906101000a900473ffffffffffffffffffffffffffffffffffffffff1673ffffffffffffffffffffffffffffffffffffffff1603611cf6576040517f08c379a0000000000000000000000000000000000000000000000000000000008152600401611ced90615af5565b60405180910390fd5b60008060008473ffffffffffffffffffffffffffffffffffffffff1673ffffffffffffffffffffffffffffffffffffffff16815260200190815260200160002060090190506000600460008473ffffffffffffffffffffffffffffffffffffffff1673ffffffffffffffffffffffffffffffffffffffff168152602001908152602001600020600701905060005b8280549050811015611df35781838281548110611da457611da36157f2565b5b90600052602060002001908060018154018082558091505060019003906000526020600020016000909190919091509081611ddf919061584c565b508080611deb90615963565b915050611d84565b505050611e36565b6040517f08c379a0000000000000000000000000000000000000000000000000000000008152600401611e2d90615b61565b60405180910390fd5b5b5b5b5b50505050565b600b8181548110611e5057600080fd5b906000526020600020016000915054906101000a900473ffffffffffffffffffffffffffffffffffffffff1681565b600c8181548110611e8f57600080fd5b906000526020600020016000915054906101000a900473ffffffffffffffffffffffffffffffffffffffff1681565b600033905060001515600360008373ffffffffffffffffffffffffffffffffffffffff1673ffffffffffffffffffffffffffffffffffffffff16815260200190815260200160002060060160009054906101000a900460ff16151514611f59576040517f08c379a0000000000000000000000000000000000000000000000000000000008152600401611f5090615410565b60405180910390fd5b6000600360008373ffffffffffffffffffffffffffffffffffffffff1673ffffffffffffffffffffffffffffffffffffffff1681526020019081526020016000209050818160000160006101000a81548173ffffffffffffffffffffffffffffffffffffffff021916908373ffffffffffffffffffffffffffffffffffffffff16021790555086816001019081611ff091906155dc565b508581600201908161200291906155dc565b508481600301819055508381600401908161201d91906155dc565b508281600501908161202f91906155dc565b5060018160060160006101000a81548160ff021916908315150217905550600a829080600181540180825580915050600190039060005260206000200160009091909190916101000a81548173ffffffffffffffffffffffffffffffffffffffff021916908373ffffffffffffffffffffffffffffffffffffffff16021790555050505050505050565b600033905060001515600260008373ffffffffffffffffffffffffffffffffffffffff1673ffffffffffffffffffffffffffffffffffffffff16815260200190815260200160002060090160009054906101000a900460ff16151514612154576040517f08c379a000000000000000000000000000000000000000000000000000000000815260040161214b90615410565b60405180910390fd5b6000600260008373ffffffffffffffffffffffffffffffffffffffff1673ffffffffffffffffffffffffffffffffffffffff1681526020019081526020016000209050818160000160006101000a81548173ffffffffffffffffffffffffffffffffffffffff021916908373ffffffffffffffffffffffffffffffffffffffff160217905550898160010190816121eb91906155dc565b50888160020190816121fd91906155dc565b508781600301819055508681600401908161221891906155dc565b508581600501908161222a91906155dc565b508481600601819055508381600701819055508281600801908161224e91906155dc565b5060018160090160006101000a81548160ff0219169083151502179055506009829080600181540180825580915050600190039060005260206000200160009091909190916101000a81548173ffffffffffffffffffffffffffffffffffffffff021916908373ffffffffffffffffffffffffffffffffffffffff16021790555050505050505050505050565b7f675bc9802ff0994bbcafe826bffd0f15ec0a3ec17fd0cfbe035a08cbededf8a3828051906020012003612382576000803373ffffffffffffffffffffffffffffffffffffffff1673ffffffffffffffffffffffffffffffffffffffff1681526020019081526020016000206009018190806001815401808255809150506001900390600052602060002001600090919091909150908161237c91906155dc565b50612661565b7f81801538196f6575c6900044ae3429ef092e7ad29a7f4da69ed7f897d69f575982805190602001200361242a57600160003373ffffffffffffffffffffffffffffffffffffffff1673ffffffffffffffffffffffffffffffffffffffff168152602001908152602001600020600c018190806001815401808255809150506001900390600052602060002001600090919091909150908161242491906155dc565b50612660565b7f25c5b8ad70a2aae48e105ad1defb4db2071cfe805f37688493811662827be1428280519060200120036124d257600260003373ffffffffffffffffffffffffffffffffffffffff1673ffffffffffffffffffffffffffffffffffffffff168152602001908152602001600020600a01819080600181540180825580915050600190039060005260206000200160009091909190915090816124cc91906155dc565b5061265f565b7f8aef25603e09a14c263a6e271c085f8e2764c5df2a79ce7ef9270a7bdd45072c82805190602001200361257a57600360003373ffffffffffffffffffffffffffffffffffffffff1673ffffffffffffffffffffffffffffffffffffffff1681526020019081526020016000206007018190806001815401808255809150506001900390600052602060002001600090919091909150908161257491906155dc565b5061265e565b7f07e343dc849601cdf88dd1e300e4fa5a1a1ae98568c5b9d8cea9dacb2617385a82805190602001200361262257600460003373ffffffffffffffffffffffffffffffffffffffff1673ffffffffffffffffffffffffffffffffffffffff1681526020019081526020016000206007018190806001815401808255809150506001900390600052602060002001600090919091909150908161261c91906155dc565b5061265d565b6040517f08c379a000000000000000000000000000000000000000000000000000000000815260040161265490615bcd565b60405180910390fd5b5b5b5b5b5050565b6009818154811061267557600080fd5b906000526020600020016000915054906101000a900473ffffffffffffffffffffffffffffffffffffffff1681565b600681815481106126b457600080fd5b906000526020600020016000915054906101000a900473ffffffffffffffffffffffffffffffffffffffff1681565b600033905060001515600160008373ffffffffffffffffffffffffffffffffffffffff1673ffffffffffffffffffffffffffffffffffffffff168152602001908152602001600020600b0160009054906101000a900460ff1615151461277e576040517f08c379a000000000000000000000000000000000000000000000000000000000815260040161277590615410565b60405180910390fd5b6000600160008373ffffffffffffffffffffffffffffffffffffffff1673ffffffffffffffffffffffffffffffffffffffff1681526020019081526020016000209050818160000160006101000a81548173ffffffffffffffffffffffffffffffffffffffff021916908373ffffffffffffffffffffffffffffffffffffffff1602179055508b81600101908161281591906155dc565b508a81600201908161282791906155dc565b508981600301908161283991906155dc565b508881600401819055508781600501819055508681600601908161285d91906155dc565b508581600701819055508481600801819055508381600901908161288191906155dc565b508281600a01908161289391906155dc565b50600181600b0160006101000a81548160ff0219169083151502179055506007829080600181540180825580915050600190039060005260206000200160009091909190916101000a81548173ffffffffffffffffffffffffffffffffffffffff021916908373ffffffffffffffffffffffffffffffffffffffff160217905550505050505050505050505050565b8073ffffffffffffffffffffffffffffffffffffffff163373ffffffffffffffffffffffffffffffffffffffff1603612990576040517f08c379a000000000000000000000000000000000000000000000000000000000815260040161298790615c39565b60405180910390fd5b6001600560003373ffffffffffffffffffffffffffffffffffffffff1673ffffffffffffffffffffffffffffffffffffffff16815260200190815260200160002060008373ffffffffffffffffffffffffffffffffffffffff1673ffffffffffffffffffffffffffffffffffffffff16815260200190815260200160002060006101000a81548160ff0219169083151502179055612a63576040517f08c379a0000000000000000000000000000000000000000000000000000000008152600401612a5a90615ccb565b60405180910390fd5b50565b60088181548110612a7657600080fd5b906000526020600020016000915054906101000a900473ffffffffffffffffffffffffffffffffffffffff1681565b612aad61402c565b81600260008273ffffffffffffffffffffffffffffffffffffffff1673ffffffffffffffffffffffffffffffffffffffff16815260200190815260200160002060090160009054906101000a900460ff16612b3d576040517f08c379a0000000000000000000000000000000000000000000000000000000008152600401612b34906151b4565b60405180910390fd5b8073ffffffffffffffffffffffffffffffffffffffff163373ffffffffffffffffffffffffffffffffffffffff161480612c04575060011515600560008373ffffffffffffffffffffffffffffffffffffffff1673ffffffffffffffffffffffffffffffffffffffff16815260200190815260200160002060003373ffffffffffffffffffffffffffffffffffffffff1673ffffffffffffffffffffffffffffffffffffffff16815260200190815260200160002060009054906101000a900460ff161515145b612c43576040517f08c379a0000000000000000000000000000000000000000000000000000000008152600401612c3a90615246565b60405180910390fd5b600460008473ffffffffffffffffffffffffffffffffffffffff1673ffffffffffffffffffffffffffffffffffffffff168152602001908152602001600020604051806101000160405290816000820160009054906101000a900473ffffffffffffffffffffffffffffffffffffffff1673ffffffffffffffffffffffffffffffffffffffff1673ffffffffffffffffffffffffffffffffffffffff168152602001600182018054612cf490615295565b80601f0160208091040260200160405190810160405280929190818152602001828054612d2090615295565b8015612d6d5780601f10612d4257610100808354040283529160200191612d6d565b820191906000526020600020905b815481529060010190602001808311612d5057829003601f168201915b50505050508152602001600282018054612d8690615295565b80601f0160208091040260200160405190810160405280929190818152602001828054612db290615295565b8015612dff5780601f10612dd457610100808354040283529160200191612dff565b820191906000526020600020905b815481529060010190602001808311612de257829003601f168201915b5050505050815260200160038201548152602001600482018054612e2290615295565b80601f0160208091040260200160405190810160405280929190818152602001828054612e4e90615295565b8015612e9b5780601f10612e7057610100808354040283529160200191612e9b565b820191906000526020600020905b815481529060010190602001808311612e7e57829003601f168201915b50505050508152602001600582018054612eb490615295565b80601f0160208091040260200160405190810160405280929190818152602001828054612ee090615295565b8015612f2d5780601f10612f0257610100808354040283529160200191612f2d565b820191906000526020600020905b815481529060010190602001808311612f1057829003601f168201915b505050505081526020016006820160009054906101000a900460ff1615151515815260200160078201805480602002602001604051908101604052809291908181526020016000905b82821015613022578382906000526020600020018054612f9590615295565b80601f0160208091040260200160405190810160405280929190818152602001828054612fc190615295565b801561300e5780601f10612fe35761010080835404028352916020019161300e565b820191906000526020600020905b815481529060010190602001808311612ff157829003601f168201915b505050505081526020019060010190612f76565b5050505081525050915050919050565b61303a614089565b816000808273ffffffffffffffffffffffffffffffffffffffff1673ffffffffffffffffffffffffffffffffffffffff16815260200190815260200160002060080160009054906101000a900460ff166130c9576040517f08c379a00000000000000000000000000000000000000000000000000000000081526004016130c090615766565b60405180910390fd5b8073ffffffffffffffffffffffffffffffffffffffff163373ffffffffffffffffffffffffffffffffffffffff161480613190575060011515600560008373ffffffffffffffffffffffffffffffffffffffff1673ffffffffffffffffffffffffffffffffffffffff16815260200190815260200160002060003373ffffffffffffffffffffffffffffffffffffffff1673ffffffffffffffffffffffffffffffffffffffff16815260200190815260200160002060009054906101000a900460ff161515145b6131cf576040517f08c379a00000000000000000000000000000000000000000000000000000000081526004016131c690615246565b60405180910390fd5b6000808473ffffffffffffffffffffffffffffffffffffffff1673ffffffffffffffffffffffffffffffffffffffff168152602001908152602001600020604051806101400160405290816000820160009054906101000a900473ffffffffffffffffffffffffffffffffffffffff1673ffffffffffffffffffffffffffffffffffffffff1673ffffffffffffffffffffffffffffffffffffffff16815260200160018201805461327f90615295565b80601f01602080910402602001604051908101604052809291908181526020018280546132ab90615295565b80156132f85780601f106132cd576101008083540402835291602001916132f8565b820191906000526020600020905b8154815290600101906020018083116132db57829003601f168201915b5050505050815260200160028201805461331190615295565b80601f016020809104026020016040519081016040528092919081815260200182805461333d90615295565b801561338a5780601f1061335f5761010080835404028352916020019161338a565b820191906000526020600020905b81548152906001019060200180831161336d57829003601f168201915b505050505081526020016003820180546133a390615295565b80601f01602080910402602001604051908101604052809291908181526020018280546133cf90615295565b801561341c5780601f106133f15761010080835404028352916020019161341c565b820191906000526020600020905b8154815290600101906020018083116133ff57829003601f168201915b505050505081526020016004820154815260200160058201805461343f90615295565b80601f016020809104026020016040519081016040528092919081815260200182805461346b90615295565b80156134b85780601f1061348d576101008083540402835291602001916134b8565b820191906000526020600020905b81548152906001019060200180831161349b57829003601f168201915b505050505081526020016006820180546134d190615295565b80601f01602080910402602001604051908101604052809291908181526020018280546134fd90615295565b801561354a5780601f1061351f5761010080835404028352916020019161354a565b820191906000526020600020905b81548152906001019060200180831161352d57829003601f168201915b5050505050815260200160078201805461356390615295565b80601f016020809104026020016040519081016040528092919081815260200182805461358f90615295565b80156135dc5780601f106135b1576101008083540402835291602001916135dc565b820191906000526020600020905b8154815290600101906020018083116135bf57829003601f168201915b505050505081526020016008820160009054906101000a900460ff1615151515815260200160098201805480602002602001604051908101604052809291908181526020016000905b828210156136d157838290600052602060002001805461364490615295565b80601f016020809104026020016040519081016040528092919081815260200182805461367090615295565b80156136bd5780601f10613692576101008083540402835291602001916136bd565b820191906000526020600020905b8154815290600101906020018083116136a057829003601f168201915b505050505081526020019060010190613625565b5050505081525050915050919050565b60056020528160005260406000206020528060005260406000206000915091509054906101000a900460ff1681565b6000339050600015156000808373ffffffffffffffffffffffffffffffffffffffff1673ffffffffffffffffffffffffffffffffffffffff16815260200190815260200160002060080160009054906101000a900460ff161515146137aa576040517f08c379a00000000000000000000000000000000000000000000000000000000081526004016137a190615d5d565b60405180910390fd5b60008060008373ffffffffffffffffffffffffffffffffffffffff1673ffffffffffffffffffffffffffffffffffffffff1681526020019081526020016000209050818160000160006101000a81548173ffffffffffffffffffffffffffffffffffffffff021916908373ffffffffffffffffffffffffffffffffffffffff1602179055508881600101908161384091906155dc565b508781600201908161385291906155dc565b508681600301908161386491906155dc565b508581600401819055508481600501908161387f91906155dc565b508381600601908161389191906155dc565b5060018160080160006101000a81548160ff021916908315150217905550828160070190816138c091906155dc565b506006829080600181540180825580915050600190039060005260206000200160009091909190916101000a81548173ffffffffffffffffffffffffffffffffffffffff021916908373ffffffffffffffffffffffffffffffffffffffff160217905550505050505050505050565b6139376140f4565b81600360008273ffffffffffffffffffffffffffffffffffffffff1673ffffffffffffffffffffffffffffffffffffffff16815260200190815260200160002060060160009054906101000a900460ff166139c7576040517f08c379a00000000000000000000000000000000000000000000000000000000081526004016139be90615def565b60405180910390fd5b8073ffffffffffffffffffffffffffffffffffffffff163373ffffffffffffffffffffffffffffffffffffffff161480613a8e575060011515600560008373ffffffffffffffffffffffffffffffffffffffff1673ffffffffffffffffffffffffffffffffffffffff16815260200190815260200160002060003373ffffffffffffffffffffffffffffffffffffffff1673ffffffffffffffffffffffffffffffffffffffff16815260200190815260200160002060009054906101000a900460ff161515145b613acd576040517f08c379a0000000000000000000000000000000000000000000000000000000008152600401613ac490615246565b60405180910390fd5b600360008473ffffffffffffffffffffffffffffffffffffffff1673ffffffffffffffffffffffffffffffffffffffff168152602001908152602001600020604051806101000160405290816000820160009054906101000a900473ffffffffffffffffffffffffffffffffffffffff1673ffffffffffffffffffffffffffffffffffffffff1673ffffffffffffffffffffffffffffffffffffffff168152602001600182018054613b7e90615295565b80601f0160208091040260200160405190810160405280929190818152602001828054613baa90615295565b8015613bf75780601f10613bcc57610100808354040283529160200191613bf7565b820191906000526020600020905b815481529060010190602001808311613bda57829003601f168201915b50505050508152602001600282018054613c1090615295565b80601f0160208091040260200160405190810160405280929190818152602001828054613c3c90615295565b8015613c895780601f10613c5e57610100808354040283529160200191613c89565b820191906000526020600020905b815481529060010190602001808311613c6c57829003601f168201915b5050505050815260200160038201548152602001600482018054613cac90615295565b80601f0160208091040260200160405190810160405280929190818152602001828054613cd890615295565b8015613d255780601f10613cfa57610100808354040283529160200191613d25565b820191906000526020600020905b815481529060010190602001808311613d0857829003601f168201915b50505050508152602001600582018054613d3e90615295565b80601f0160208091040260200160405190810160405280929190818152602001828054613d6a90615295565b8015613db75780601f10613d8c57610100808354040283529160200191613db7565b820191906000526020600020905b815481529060010190602001808311613d9a57829003601f168201915b505050505081526020016006820160009054906101000a900460ff1615151515815260200160078201805480602002602001604051908101604052809291908181526020016000905b82821015613eac578382906000526020600020018054613e1f90615295565b80601f0160208091040260200160405190810160405280929190818152602001828054613e4b90615295565b8015613e985780601f10613e6d57610100808354040283529160200191613e98565b820191906000526020600020905b815481529060010190602001808311613e7b57829003601f168201915b505050505081526020019060010190613e00565b5050505081525050915050919050565b600a8181548110613ecc57600080fd5b906000526020600020016000915054906101000a900473ffffffffffffffffffffffffffffffffffffffff1681565b60078181548110613f0b57600080fd5b906000526020600020016000915054906101000a900473ffffffffffffffffffffffffffffffffffffffff1681565b604051806101600160405280600073ffffffffffffffffffffffffffffffffffffffff1681526020016060815260200160608152602001600081526020016060815260200160608152602001600081526020016000815260200160608152602001600015158152602001606081525090565b604051806101a00160405280600073ffffffffffffffffffffffffffffffffffffffff16815260200160608152602001606081526020016060815260200160008152602001600081526020016060815260200160008152602001600081526020016060815260200160608152602001600015158152602001606081525090565b604051806101000160405280600073ffffffffffffffffffffffffffffffffffffffff1681526020016060815260200160608152602001600081526020016060815260200160608152602001600015158152602001606081525090565b604051806101400160405280600073ffffffffffffffffffffffffffffffffffffffff16815260200160608152602001606081526020016060815260200160008152602001606081526020016060815260200160608152602001600015158152602001606081525090565b604051806101000160405280600073ffffffffffffffffffffffffffffffffffffffff1681526020016060815260200160608152602001600081526020016060815260200160608152602001600015158152602001606081525090565b6000604051905090565b600080fd5b600080fd5b600073ffffffffffffffffffffffffffffffffffffffff82169050919050565b600061419082614165565b9050919050565b6141a081614185565b81146141ab57600080fd5b50565b6000813590506141bd81614197565b92915050565b6000602082840312156141d9576141d861415b565b5b60006141e7848285016141ae565b91505092915050565b6141f981614185565b82525050565b600081519050919050565b600082825260208201905092915050565b60005b8381101561423957808201518184015260208101905061421e565b60008484015250505050565b6000601f19601f8301169050919050565b6000614261826141ff565b61426b818561420a565b935061427b81856020860161421b565b61428481614245565b840191505092915050565b6000819050919050565b6142a28161428f565b82525050565b60008115159050919050565b6142bd816142a8565b82525050565b600081519050919050565b600082825260208201905092915050565b6000819050602082019050919050565b60006142fb8383614256565b905092915050565b6000602082019050919050565b600061431b826142c3565b61432581856142ce565b935083602082028501614337856142df565b8060005b85811015614373578484038952815161435485826142ef565b945061435f83614303565b925060208a0199505060018101905061433b565b50829750879550505050505092915050565b60006101608301600083015161439e60008601826141f0565b50602083015184820360208601526143b68282614256565b915050604083015184820360408601526143d08282614256565b91505060608301516143e56060860182614299565b50608083015184820360808601526143fd8282614256565b91505060a083015184820360a08601526144178282614256565b91505060c083015161442c60c0860182614299565b5060e083015161443f60e0860182614299565b506101008301518482036101008601526144598282614256565b9150506101208301516144706101208601826142b4565b5061014083015184820361014086015261448a8282614310565b9150508091505092915050565b600060208201905081810360008301526144b18184614385565b905092915050565b600080fd5b600080fd5b7f4e487b7100000000000000000000000000000000000000000000000000000000600052604160045260246000fd5b6144fb82614245565b810181811067ffffffffffffffff8211171561451a576145196144c3565b5b80604052505050565b600061452d614151565b905061453982826144f2565b919050565b600067ffffffffffffffff821115614559576145586144c3565b5b61456282614245565b9050602081019050919050565b82818337600083830152505050565b600061459161458c8461453e565b614523565b9050828152602081018484840111156145ad576145ac6144be565b5b6145b884828561456f565b509392505050565b600082601f8301126145d5576145d46144b9565b5b81356145e584826020860161457e565b91505092915050565b6145f78161428f565b811461460257600080fd5b50565b600081359050614614816145ee565b92915050565b600080600080600060a086880312156146365761463561415b565b5b600086013567ffffffffffffffff81111561465457614653614160565b5b614660888289016145c0565b955050602086013567ffffffffffffffff81111561468157614680614160565b5b61468d888289016145c0565b945050604061469e88828901614605565b935050606086013567ffffffffffffffff8111156146bf576146be614160565b5b6146cb888289016145c0565b925050608086013567ffffffffffffffff8111156146ec576146eb614160565b5b6146f8888289016145c0565b9150509295509295909350565b60006101a08301600083015161471e60008601826141f0565b50602083015184820360208601526147368282614256565b915050604083015184820360408601526147508282614256565b9150506060830151848203606086015261476a8282614256565b915050608083015161477f6080860182614299565b5060a083015161479260a0860182614299565b5060c083015184820360c08601526147aa8282614256565b91505060e08301516147bf60e0860182614299565b506101008301516147d4610100860182614299565b506101208301518482036101208601526147ee8282614256565b91505061014083015184820361014086015261480a8282614256565b9150506101608301516148216101608601826142b4565b5061018083015184820361018086015261483b8282614310565b9150508091505092915050565b600060208201905081810360008301526148628184614705565b905092915050565b600080600080608085870312156148845761488361415b565b5b600085013567ffffffffffffffff8111156148a2576148a1614160565b5b6148ae878288016145c0565b945050602085013567ffffffffffffffff8111156148cf576148ce614160565b5b6148db878288016145c0565b93505060406148ec878288016141ae565b92505060606148fd878288016141ae565b91505092959194509250565b60006020828403121561491f5761491e61415b565b5b600061492d84828501614605565b91505092915050565b61493f81614185565b82525050565b600060208201905061495a6000830184614936565b92915050565b600080600080600080600080610100898b0312156149815761498061415b565b5b600089013567ffffffffffffffff81111561499f5761499e614160565b5b6149ab8b828c016145c0565b985050602089013567ffffffffffffffff8111156149cc576149cb614160565b5b6149d88b828c016145c0565b97505060406149e98b828c01614605565b965050606089013567ffffffffffffffff811115614a0a57614a09614160565b5b614a168b828c016145c0565b955050608089013567ffffffffffffffff811115614a3757614a36614160565b5b614a438b828c016145c0565b94505060a0614a548b828c01614605565b93505060c0614a658b828c01614605565b92505060e089013567ffffffffffffffff811115614a8657614a85614160565b5b614a928b828c016145c0565b9150509295985092959890939650565b60008060408385031215614ab957614ab861415b565b5b600083013567ffffffffffffffff811115614ad757614ad6614160565b5b614ae3858286016145c0565b925050602083013567ffffffffffffffff811115614b0457614b03614160565b5b614b10858286016145c0565b9150509250929050565b6000806000806000806000806000806101408b8d031215614b3e57614b3d61415b565b5b60008b013567ffffffffffffffff811115614b5c57614b5b614160565b5b614b688d828e016145c0565b9a505060208b013567ffffffffffffffff811115614b8957614b88614160565b5b614b958d828e016145c0565b99505060408b013567ffffffffffffffff811115614bb657614bb5614160565b5b614bc28d828e016145c0565b9850506060614bd38d828e01614605565b9750506080614be48d828e01614605565b96505060a08b013567ffffffffffffffff811115614c0557614c04614160565b5b614c118d828e016145c0565b95505060c0614c228d828e01614605565b94505060e0614c338d828e01614605565b9350506101008b013567ffffffffffffffff811115614c5557614c54614160565b5b614c618d828e016145c0565b9250506101208b013567ffffffffffffffff811115614c8357614c82614160565b5b614c8f8d828e016145c0565b9150509295989b9194979a5092959850565b600061010083016000830151614cba60008601826141f0565b5060208301518482036020860152614cd28282614256565b91505060408301518482036040860152614cec8282614256565b9150506060830151614d016060860182614299565b5060808301518482036080860152614d198282614256565b91505060a083015184820360a0860152614d338282614256565b91505060c0830151614d4860c08601826142b4565b5060e083015184820360e0860152614d608282614310565b9150508091505092915050565b60006020820190508181036000830152614d878184614ca1565b905092915050565b600061014083016000830151614da860008601826141f0565b5060208301518482036020860152614dc08282614256565b91505060408301518482036040860152614dda8282614256565b91505060608301518482036060860152614df48282614256565b9150506080830151614e096080860182614299565b5060a083015184820360a0860152614e218282614256565b91505060c083015184820360c0860152614e3b8282614256565b91505060e083015184820360e0860152614e558282614256565b915050610100830151614e6c6101008601826142b4565b50610120830151848203610120860152614e868282614310565b9150508091505092915050565b60006020820190508181036000830152614ead8184614d8f565b905092915050565b60008060408385031215614ecc57614ecb61415b565b5b6000614eda858286016141ae565b9250506020614eeb858286016141ae565b9150509250929050565b614efe816142a8565b82525050565b6000602082019050614f196000830184614ef5565b92915050565b600080600080600080600060e0888a031215614f3e57614f3d61415b565b5b600088013567ffffffffffffffff811115614f5c57614f5b614160565b5b614f688a828b016145c0565b975050602088013567ffffffffffffffff811115614f8957614f88614160565b5b614f958a828b016145c0565b965050604088013567ffffffffffffffff811115614fb657614fb5614160565b5b614fc28a828b016145c0565b9550506060614fd38a828b01614605565b945050608088013567ffffffffffffffff811115614ff457614ff3614160565b5b6150008a828b016145c0565b93505060a088013567ffffffffffffffff81111561502157615020614160565b5b61502d8a828b016145c0565b92505060c088013567ffffffffffffffff81111561504e5761504d614160565b5b61505a8a828b016145c0565b91505092959891949750929550565b60006101008301600083015161508260008601826141f0565b506020830151848203602086015261509a8282614256565b915050604083015184820360408601526150b48282614256565b91505060608301516150c96060860182614299565b50608083015184820360808601526150e18282614256565b91505060a083015184820360a08601526150fb8282614256565b91505060c083015161511060c08601826142b4565b5060e083015184820360e08601526151288282614310565b9150508091505092915050565b6000602082019050818103600083015261514f8184615069565b905092915050565b600082825260208201905092915050565b7f706174686f6c6f676973747320646f6573206e6f742065786973740000000000600082015250565b600061519e601b83615157565b91506151a982615168565b602082019050919050565b600060208201905081810360008301526151cd81615191565b9050919050565b7f7573657220646f6e27742068617665206163637265737320696e20796f75722060008201527f6461746100000000000000000000000000000000000000000000000000000000602082015250565b6000615230602483615157565b915061523b826151d4565b604082019050919050565b6000602082019050818103600083015261525f81615223565b9050919050565b7f4e487b7100000000000000000000000000000000000000000000000000000000600052602260045260246000fd5b600060028204905060018216806152ad57607f821691505b6020821081036152c0576152bf615266565b5b50919050565b7f796f752063616e2774207265766f6b6520796f757273656c6620000000000000600082015250565b60006152fc601a83615157565b9150615307826152c6565b602082019050919050565b6000602082019050818103600083015261532b816152ef565b9050919050565b7f7573657220616c72656479207265766f6b65642066726f6d202064617461206160008201527f6363726573730000000000000000000000000000000000000000000000000000602082015250565b600061538e602683615157565b915061539982615332565b604082019050919050565b600060208201905081810360008301526153bd81615381565b9050919050565b7f796f7520616c72656164792063726561746520796f75722070726f66696c6500600082015250565b60006153fa601f83615157565b9150615405826153c4565b602082019050919050565b60006020820190508181036000830152615429816153ed565b9050919050565b60008190508160005260206000209050919050565b60006020601f8301049050919050565b600082821b905092915050565b6000600883026154927fffffffffffffffffffffffffffffffffffffffffffffffffffffffffffffffff82615455565b61549c8683615455565b95508019841693508086168417925050509392505050565b6000819050919050565b60006154d96154d46154cf8461428f565b6154b4565b61428f565b9050919050565b6000819050919050565b6154f3836154be565b6155076154ff826154e0565b848454615462565b825550505050565b600090565b61551c61550f565b6155278184846154ea565b505050565b5b8181101561554b57615540600082615514565b60018101905061552d565b5050565b601f8211156155905761556181615430565b61556a84615445565b81016020851015615579578190505b61558d61558585615445565b83018261552c565b50505b505050565b600082821c905092915050565b60006155b360001984600802615595565b1980831691505092915050565b60006155cc83836155a2565b9150826002028217905092915050565b6155e5826141ff565b67ffffffffffffffff8111156155fe576155fd6144c3565b5b6156088254615295565b61561382828561554f565b600060209050601f8311600181146156465760008415615634578287015190505b61563e85826155c0565b8655506156a6565b601f19841661565486615430565b60005b8281101561567c57848901518255600182019150602085019450602081019050615657565b868310156156995784890151615695601f8916826155a2565b8355505b6001600288020188555050505b505050505050565b7f446f63746f7220646f6573206e6f742065786973740000000000000000000000600082015250565b60006156e4601583615157565b91506156ef826156ae565b602082019050919050565b60006020820190508181036000830152615713816156d7565b9050919050565b7f50617469656e7420646f6573206e6f7420657869737400000000000000000000600082015250565b6000615750601683615157565b915061575b8261571a565b602082019050919050565b6000602082019050818103600083015261577f81615743565b9050919050565b7f4e6f206461746120617661696c61626c6520746f207472616e73666572000000600082015250565b60006157bc601d83615157565b91506157c782615786565b602082019050919050565b600060208201905081810360008301526157eb816157af565b9050919050565b7f4e487b7100000000000000000000000000000000000000000000000000000000600052603260045260246000fd5b60008154905061583081615295565b9050919050565b60008190508160005260206000209050919050565b81810361585a575050615932565b61586382615821565b67ffffffffffffffff81111561587c5761587b6144c3565b5b6158868254615295565b61589182828561554f565b6000601f8311600181146158c057600084156158ae578287015490505b6158b885826155c0565b86555061592b565b601f1984166158ce87615837565b96506158d986615430565b60005b82811015615901578489015482556001820191506001850194506020810190506158dc565b8683101561591e578489015461591a601f8916826155a2565b8355505b6001600288020188555050505b5050505050505b565b7f4e487b7100000000000000000000000000000000000000000000000000000000600052601160045260246000fd5b600061596e8261428f565b91507fffffffffffffffffffffffffffffffffffffffffffffffffffffffffffffffff82036159a05761599f615934565b5b600182019050919050565b7f506174686f6c6f6769737420646f6573206e6f74206578697374000000000000600082015250565b60006159e1601a83615157565b91506159ec826159ab565b602082019050919050565b60006020820190508181036000830152615a10816159d4565b9050919050565b7f4d65646963616c205265736561726368204c616220646f6573206e6f7420657860008201527f6973740000000000000000000000000000000000000000000000000000000000602082015250565b6000615a73602383615157565b9150615a7e82615a17565b604082019050919050565b60006020820190508181036000830152615aa281615a66565b9050919050565b7f506861726d61637920436f6d70616e7920646f6573206e6f7420657869737400600082015250565b6000615adf601f83615157565b9150615aea82615aa9565b602082019050919050565b60006020820190508181036000830152615b0e81615ad2565b9050919050565b7f556e737570706f7274656420656e746974792074797065000000000000000000600082015250565b6000615b4b601783615157565b9150615b5682615b15565b602082019050919050565b60006020820190508181036000830152615b7a81615b3e565b9050919050565b7f496e76616c696420656e74697479207479706500000000000000000000000000600082015250565b6000615bb7601383615157565b9150615bc282615b81565b602082019050919050565b60006020820190508181036000830152615be681615baa565b9050919050565b7f796f752063616e2774206163637265737320796f757273656c66200000000000600082015250565b6000615c23601b83615157565b9150615c2e82615bed565b602082019050919050565b60006020820190508181036000830152615c5281615c16565b9050919050565b7f7573657220616c726564792068617665206163637265737320696e20796f757260008201527f2064617461000000000000000000000000000000000000000000000000000000602082015250565b6000615cb5602583615157565b9150615cc082615c59565b604082019050919050565b60006020820190508181036000830152615ce481615ca8565b9050919050565b7f596f75206861766520616c7265616479206372656174656420796f757220707260008201527f6f66696c65000000000000000000000000000000000000000000000000000000602082015250565b6000615d47602583615157565b9150615d5282615ceb565b604082019050919050565b60006020820190508181036000830152615d7681615d3a565b9050919050565b7f4d65646963616c205265736561726368206c616220646f6573206e6f7420657860008201527f6973740000000000000000000000000000000000000000000000000000000000602082015250565b6000615dd9602383615157565b9150615de482615d7d565b604082019050919050565b60006020820190508181036000830152615e0881615dcc565b905091905056fea2646970667358221220c8eae75cb9ac8940161286b0efcc575d8d11236256c5a160acbedd9c4a712e7264736f6c63430008110033",
  "linkReferences": {},
  "deployedLinkReferences": {}
}