{
  "_format": "hh-sol-artifact-1",
  "contractName": "MedicalData",
  "sourceName": "contracts/patientDataManagement.sol",
  "abi": [
    {
      "inputs": [
        {
          "internalType": "address",
          "name": "useraddress",
          "type": "address"
        }
      ],
      "name": "ConnectedAccountType",
      "outputs": [
        {
          "internalType": "uint256",
          "name": "",
          "type": "uint256"
        }
      ],
      "stateMutability": "view",
      "type": "function"
    },
    {
      "inputs": [
        {
          "internalType": "address",
          "name": "",
          "type": "address"
        }
      ],
      "name": "accounts",
      "outputs": [
        {
          "internalType": "uint256",
          "name": "",
          "type": "uint256"
        }
      ],
      "stateMutability": "view",
      "type": "function"
    },
    {
      "inputs": [
        {
          "internalType": "address",
          "name": "_user",
          "type": "address"
        },
        {
          "internalType": "string",
          "name": "url",
          "type": "string"
        }
      ],
      "name": "add",
      "outputs": [],
      "stateMutability": "nonpayable",
      "type": "function"
    },
    {
      "inputs": [
        {
          "internalType": "string",
          "name": "report",
          "type": "string"
        }
      ],
      "name": "addLabReport",
      "outputs": [],
      "stateMutability": "nonpayable",
      "type": "function"
    },
    {
      "inputs": [
        {
          "internalType": "string",
          "name": "medichine",
          "type": "string"
        }
      ],
      "name": "addTopMedichine",
      "outputs": [],
      "stateMutability": "nonpayable",
      "type": "function"
    },
    {
      "inputs": [
        {
          "internalType": "address",
          "name": "_doctorAddress",
          "type": "address"
        }
      ],
      "name": "getDoctor",
      "outputs": [
        {
          "components": [
            {
              "internalType": "address",
              "name": "DoctorAddress",
              "type": "address"
            },
            {
              "internalType": "uint256",
              "name": "doctorID",
              "type": "uint256"
            },
            {
              "internalType": "string",
              "name": "name",
              "type": "string"
            },
            {
              "internalType": "string",
              "name": "specialty",
              "type": "string"
            },
            {
              "internalType": "uint256",
              "name": "consultationFee",
              "type": "uint256"
            },
            {
              "internalType": "uint256",
              "name": "BMDCNumber",
              "type": "uint256"
            },
            {
              "internalType": "uint256",
              "name": "yearOfExperience",
              "type": "uint256"
            },
            {
              "internalType": "address[]",
              "name": "allPatientsAddressSharedToDoctor",
              "type": "address[]"
            },
            {
              "internalType": "bool",
              "name": "isAdded",
              "type": "bool"
            },
            {
              "internalType": "string[]",
              "name": "imgUrl",
              "type": "string[]"
            },
            {
              "internalType": "string",
              "name": "userType",
              "type": "string"
            }
          ],
          "internalType": "struct MedicalData.Doctor",
          "name": "",
          "type": "tuple"
        }
      ],
      "stateMutability": "view",
      "type": "function"
    },
    {
      "inputs": [
        {
          "internalType": "address",
          "name": "_labAddress",
          "type": "address"
        }
      ],
      "name": "getMedicalResearchLab",
      "outputs": [
        {
          "components": [
            {
              "internalType": "address",
              "name": "labAddress",
              "type": "address"
            },
            {
              "internalType": "uint256",
              "name": "labID",
              "type": "uint256"
            },
            {
              "internalType": "string",
              "name": "name",
              "type": "string"
            },
            {
              "internalType": "uint256",
              "name": "licenseID",
              "type": "uint256"
            },
            {
              "internalType": "string",
              "name": "researchArea",
              "type": "string"
            },
            {
              "internalType": "uint256",
              "name": "labRating",
              "type": "uint256"
            },
            {
              "internalType": "bool",
              "name": "isAdded",
              "type": "bool"
            },
            {
              "internalType": "address[]",
              "name": "allPatientsAddressSharedToMedicalResearchLab",
              "type": "address[]"
            },
            {
              "internalType": "string[]",
              "name": "MedicalResearchLabReports",
              "type": "string[]"
            },
            {
              "internalType": "string",
              "name": "userType",
              "type": "string"
            }
          ],
          "internalType": "struct MedicalData.MedicalResearchLab",
          "name": "",
          "type": "tuple"
        }
      ],
      "stateMutability": "view",
      "type": "function"
    },
    {
      "inputs": [
        {
          "internalType": "address",
          "name": "_pathologistAddress",
          "type": "address"
        }
      ],
      "name": "getPathologist",
      "outputs": [
        {
          "components": [
            {
              "internalType": "address",
              "name": "pathologistAddress",
              "type": "address"
            },
            {
              "internalType": "uint256",
              "name": "pathologistID",
              "type": "uint256"
            },
            {
              "internalType": "string",
              "name": "name",
              "type": "string"
            },
            {
              "internalType": "uint256",
              "name": "licenseNumber",
              "type": "uint256"
            },
            {
              "internalType": "string",
              "name": "specializationArea",
              "type": "string"
            },
            {
              "internalType": "uint256",
              "name": "totalExperience",
              "type": "uint256"
            },
            {
              "internalType": "bool",
              "name": "isAdded",
              "type": "bool"
            },
            {
              "internalType": "address[]",
              "name": "allPatientsAddressSharedTopathologist",
              "type": "address[]"
            },
            {
              "internalType": "string",
              "name": "userType",
              "type": "string"
            }
          ],
          "internalType": "struct MedicalData.Pathologist",
          "name": "",
          "type": "tuple"
        }
      ],
      "stateMutability": "view",
      "type": "function"
    },
    {
      "inputs": [
        {
          "internalType": "address",
          "name": "_patientAddress",
          "type": "address"
        }
      ],
      "name": "getPatient",
      "outputs": [
        {
          "components": [
            {
              "internalType": "address",
              "name": "patientAddress",
              "type": "address"
            },
            {
              "internalType": "uint256",
              "name": "patientID",
              "type": "uint256"
            },
            {
              "internalType": "string",
              "name": "name",
              "type": "string"
            },
            {
              "internalType": "string",
              "name": "gender",
              "type": "string"
            },
            {
              "internalType": "uint256",
              "name": "age",
              "type": "uint256"
            },
            {
              "internalType": "string",
              "name": "location",
              "type": "string"
            },
            {
              "internalType": "bool",
              "name": "isAdded",
              "type": "bool"
            },
            {
              "internalType": "string",
              "name": "userType",
              "type": "string"
            },
            {
              "internalType": "string[]",
              "name": "imgUrl",
              "type": "string[]"
            },
            {
              "components": [
                {
                  "internalType": "uint256",
                  "name": "height",
                  "type": "uint256"
                },
                {
                  "internalType": "string",
                  "name": "Blood",
                  "type": "string"
                },
                {
                  "internalType": "string",
                  "name": "PreviousDiseases",
                  "type": "string"
                },
                {
                  "internalType": "string",
                  "name": "Medicinedrugs",
                  "type": "string"
                },
                {
                  "internalType": "string",
                  "name": "BadHabits",
                  "type": "string"
                },
                {
                  "internalType": "string",
                  "name": "ChronicDiseases",
                  "type": "string"
                },
                {
                  "internalType": "string",
                  "name": "HealthAllergies",
                  "type": "string"
                },
                {
                  "internalType": "string",
                  "name": "BirthDefects",
                  "type": "string"
                }
              ],
              "internalType": "struct MedicalData.PatientPersonalData",
              "name": "patientPersonalData",
              "type": "tuple"
            }
          ],
          "internalType": "struct MedicalData.Patient",
          "name": "",
          "type": "tuple"
        }
      ],
      "stateMutability": "view",
      "type": "function"
    },
    {
      "inputs": [
        {
          "internalType": "address",
          "name": "_pharmacyCompanyAddress",
          "type": "address"
        }
      ],
      "name": "getPharmacyCompany",
      "outputs": [
        {
          "components": [
            {
              "internalType": "address",
              "name": "pharmacyCompanyAddress",
              "type": "address"
            },
            {
              "internalType": "uint256",
              "name": "companyID",
              "type": "uint256"
            },
            {
              "internalType": "string",
              "name": "name",
              "type": "string"
            },
            {
              "internalType": "uint256",
              "name": "licenseID",
              "type": "uint256"
            },
            {
              "internalType": "string",
              "name": "productInformation",
              "type": "string"
            },
            {
              "internalType": "uint256",
              "name": "pharmacyRating",
              "type": "uint256"
            },
            {
              "internalType": "bool",
              "name": "isAdded",
              "type": "bool"
            },
            {
              "internalType": "address[]",
              "name": "allPatientAddressSharedToPharmacyCompany",
              "type": "address[]"
            },
            {
              "internalType": "string",
              "name": "userType",
              "type": "string"
            },
            {
              "internalType": "string[]",
              "name": "TopMedichine",
              "type": "string[]"
            }
          ],
          "internalType": "struct MedicalData.PharmacyCompany",
          "name": "",
          "type": "tuple"
        }
      ],
      "stateMutability": "view",
      "type": "function"
    },
    {
      "inputs": [
        {
          "internalType": "uint256",
          "name": "doctorID",
          "type": "uint256"
        },
        {
          "internalType": "string",
          "name": "name",
          "type": "string"
        },
        {
          "internalType": "string",
          "name": "specialty",
          "type": "string"
        },
        {
          "internalType": "uint256",
          "name": "consultationFee",
          "type": "uint256"
        },
        {
          "internalType": "uint256",
          "name": "BMDCNumber",
          "type": "uint256"
        },
        {
          "internalType": "uint256",
          "name": "yearOfExperience",
          "type": "uint256"
        }
      ],
      "name": "setDoctor",
      "outputs": [],
      "stateMutability": "nonpayable",
      "type": "function"
    },
    {
      "inputs": [
        {
          "internalType": "uint256",
          "name": "labID",
          "type": "uint256"
        },
        {
          "internalType": "string",
          "name": "name",
          "type": "string"
        },
        {
          "internalType": "uint256",
          "name": "licenseID",
          "type": "uint256"
        },
        {
          "internalType": "string",
          "name": "researchArea",
          "type": "string"
        },
        {
          "internalType": "uint256",
          "name": "labRating",
          "type": "uint256"
        }
      ],
      "name": "setMedicalResearchLab",
      "outputs": [],
      "stateMutability": "nonpayable",
      "type": "function"
    },
    {
      "inputs": [
        {
          "internalType": "uint256",
          "name": "pathologistID",
          "type": "uint256"
        },
        {
          "internalType": "string",
          "name": "name",
          "type": "string"
        },
        {
          "internalType": "uint256",
          "name": "licenseNumber",
          "type": "uint256"
        },
        {
          "internalType": "string",
          "name": "specializationArea",
          "type": "string"
        },
        {
          "internalType": "uint256",
          "name": "totalExperience",
          "type": "uint256"
        }
      ],
      "name": "setPathologist",
      "outputs": [],
      "stateMutability": "nonpayable",
      "type": "function"
    },
    {
      "inputs": [
        {
          "internalType": "uint256",
          "name": "patientID",
          "type": "uint256"
        },
        {
          "internalType": "string",
          "name": "name",
          "type": "string"
        },
        {
          "internalType": "string",
          "name": "gender",
          "type": "string"
        },
        {
          "internalType": "uint256",
          "name": "age",
          "type": "uint256"
        },
        {
          "internalType": "string",
          "name": "location",
          "type": "string"
        }
      ],
      "name": "setPatient",
      "outputs": [],
      "stateMutability": "nonpayable",
      "type": "function"
    },
    {
      "inputs": [
        {
          "internalType": "uint256",
          "name": "height",
          "type": "uint256"
        },
        {
          "internalType": "string",
          "name": "blood",
          "type": "string"
        },
        {
          "internalType": "string",
          "name": "previousDiseases",
          "type": "string"
        },
        {
          "internalType": "string",
          "name": "medicineDrugs",
          "type": "string"
        },
        {
          "internalType": "string",
          "name": "badHabits",
          "type": "string"
        },
        {
          "internalType": "string",
          "name": "chronicDiseases",
          "type": "string"
        },
        {
          "internalType": "string",
          "name": "healthAllergies",
          "type": "string"
        },
        {
          "internalType": "string",
          "name": "birthDefects",
          "type": "string"
        }
      ],
      "name": "setPatientPersonalData",
      "outputs": [],
      "stateMutability": "nonpayable",
      "type": "function"
    },
    {
      "inputs": [
        {
          "internalType": "uint256",
          "name": "companyID",
          "type": "uint256"
        },
        {
          "internalType": "string",
          "name": "name",
          "type": "string"
        },
        {
          "internalType": "uint256",
          "name": "licenseID",
          "type": "uint256"
        },
        {
          "internalType": "string",
          "name": "productInformation",
          "type": "string"
        },
        {
          "internalType": "uint256",
          "name": "pharmacyRating",
          "type": "uint256"
        }
      ],
      "name": "setPharmacyCompany",
      "outputs": [],
      "stateMutability": "nonpayable",
      "type": "function"
    },
    {
      "inputs": [
        {
          "internalType": "address",
          "name": "useraddress",
          "type": "address"
        }
      ],
      "name": "transferDataByDoctor",
      "outputs": [],
      "stateMutability": "nonpayable",
      "type": "function"
    },
    {
      "inputs": [
        {
          "internalType": "address",
          "name": "useraddress",
          "type": "address"
        }
      ],
      "name": "transferDataByPathologist",
      "outputs": [],
      "stateMutability": "nonpayable",
      "type": "function"
    },
    {
      "inputs": [
        {
          "internalType": "address",
          "name": "useraddress",
          "type": "address"
        }
      ],
      "name": "transferDataByPatient",
      "outputs": [],
      "stateMutability": "nonpayable",
      "type": "function"
    }
  ],
  "bytecode": "0x608060405234801561001057600080fd5b5061571280620000216000396000f3fe608060405234801561001057600080fd5b50600436106101215760003560e01c80636bc071a5116100ad578063d10b07d811610071578063d10b07d814610326578063d16570d314610342578063d23fb52c1461035e578063ea8c9e041461037a578063f4bffd5a146103aa57610121565b80636bc071a5146102725780637ddd3f051461028e5780639059229b146102aa578063a9d0b46a146102da578063b5368e20146102f657610121565b80632f04e064116100f45780632f04e064146101be57806336d6da55146101ee57806339000b241461020a5780635e5c06e2146102265780636757711b1461025657610121565b8063100d1a7f1461012657806316ecfa84146101425780632545526d146101725780632a1ebd011461018e575b600080fd5b610140600480360381019061013b9190614014565b6103c6565b005b61015c600480360381019061015791906141ec565b6104ef565b604051610169919061445a565b60405180910390f35b61018c600480360381019061018791906141ec565b6108ab565b005b6101a860048036038101906101a391906141ec565b610b8c565b6040516101b5919061448b565b60405180910390f35b6101d860048036038101906101d391906141ec565b610cbf565b6040516101e59190614673565b60405180910390f35b61020860048036038101906102039190614695565b61115e565b005b610224600480360381019061021f91906146f1565b611497565b005b610240600480360381019061023b91906141ec565b61150f565b60405161024d919061448b565b60405180910390f35b610270600480360381019061026b919061473a565b611527565b005b61028c600480360381019061028791906146f1565b611739565b005b6102a860048036038101906102a3919061473a565b6117b1565b005b6102c460048036038101906102bf91906141ec565b6119c3565b6040516102d191906148e3565b60405180910390f35b6102f460048036038101906102ef91906141ec565b611e58565b005b610310600480360381019061030b91906141ec565b612604565b60405161031d9190614adc565b60405180910390f35b610340600480360381019061033b919061473a565b612eb0565b005b61035c600480360381019061035791906141ec565b6130c2565b005b61037860048036038101906103739190614afe565b613357565b005b610394600480360381019061038f91906141ec565b613572565b6040516103a19190614cc3565b60405180910390f35b6103c460048036038101906103bf9190614ce5565b613a07565b005b604051806101000160405280898152602001888152602001878152602001868152602001858152602001848152602001838152602001828152506000803373ffffffffffffffffffffffffffffffffffffffff1673ffffffffffffffffffffffffffffffffffffffff16815260200190815260200160002060008201518160000155602082015181600101908161045d9190614fb6565b5060408201518160020190816104739190614fb6565b5060608201518160030190816104899190614fb6565b50608082015181600401908161049f9190614fb6565b5060a08201518160050190816104b59190614fb6565b5060c08201518160060190816104cb9190614fb6565b5060e08201518160070190816104e19190614fb6565b509050505050505050505050565b6104f7613c22565b600460008373ffffffffffffffffffffffffffffffffffffffff1673ffffffffffffffffffffffffffffffffffffffff16815260200190815260200160002060060160009054906101000a900460ff16610586576040517f08c379a000000000000000000000000000000000000000000000000000000000815260040161057d906150e5565b60405180910390fd5b600460008373ffffffffffffffffffffffffffffffffffffffff1673ffffffffffffffffffffffffffffffffffffffff168152602001908152602001600020604051806101200160405290816000820160009054906101000a900473ffffffffffffffffffffffffffffffffffffffff1673ffffffffffffffffffffffffffffffffffffffff1673ffffffffffffffffffffffffffffffffffffffff1681526020016001820154815260200160028201805461064190614dd9565b80601f016020809104026020016040519081016040528092919081815260200182805461066d90614dd9565b80156106ba5780601f1061068f576101008083540402835291602001916106ba565b820191906000526020600020905b81548152906001019060200180831161069d57829003601f168201915b50505050508152602001600382015481526020016004820180546106dd90614dd9565b80601f016020809104026020016040519081016040528092919081815260200182805461070990614dd9565b80156107565780601f1061072b57610100808354040283529160200191610756565b820191906000526020600020905b81548152906001019060200180831161073957829003601f168201915b50505050508152602001600582015481526020016006820160009054906101000a900460ff161515151581526020016007820180548060200260200160405190810160405280929190818152602001828054801561080957602002820191906000526020600020905b8160009054906101000a900473ffffffffffffffffffffffffffffffffffffffff1673ffffffffffffffffffffffffffffffffffffffff16815260200190600101908083116107bf575b5050505050815260200160088201805461082290614dd9565b80601f016020809104026020016040519081016040528092919081815260200182805461084e90614dd9565b801561089b5780601f106108705761010080835404028352916020019161089b565b820191906000526020600020905b81548152906001019060200180831161087e57829003601f168201915b5050505050815250509050919050565b6000600160008373ffffffffffffffffffffffffffffffffffffffff1673ffffffffffffffffffffffffffffffffffffffff1681526020019081526020016000205490506001600581111561090357610902615105565b5b600103610b8857600360003373ffffffffffffffffffffffffffffffffffffffff1673ffffffffffffffffffffffffffffffffffffffff16815260200190815260200160002060080160009054906101000a900460ff16610999576040517f08c379a000000000000000000000000000000000000000000000000000000000815260040161099090615180565b60405180910390fd5b600260058111156109ad576109ac615105565b5b811480156109ce5750600160058111156109ca576109c9615105565b5b6001145b15610b4c57600073ffffffffffffffffffffffffffffffffffffffff16600460008473ffffffffffffffffffffffffffffffffffffffff1673ffffffffffffffffffffffffffffffffffffffff16815260200190815260200160002060000160009054906101000a900473ffffffffffffffffffffffffffffffffffffffff1673ffffffffffffffffffffffffffffffffffffffff1603610aa4576040517f08c379a0000000000000000000000000000000000000000000000000000000008152600401610a9b906151ec565b60405180910390fd5b600460008373ffffffffffffffffffffffffffffffffffffffff1673ffffffffffffffffffffffffffffffffffffffff168152602001908152602001600020600701339080600181540180825580915050600190039060005260206000200160009091909190916101000a81548173ffffffffffffffffffffffffffffffffffffffff021916908373ffffffffffffffffffffffffffffffffffffffff160217905550610b87565b6040517f08c379a0000000000000000000000000000000000000000000000000000000008152600401610b7e90615258565b60405180910390fd5b5b5050565b600080600160008473ffffffffffffffffffffffffffffffffffffffff1673ffffffffffffffffffffffffffffffffffffffff16815260200190815260200160002054905060016005811115610be557610be4615105565b5b8103610bf45780915050610cba565b600580811115610c0757610c06615105565b5b8103610c165780915050610cba565b60026005811115610c2a57610c29615105565b5b8103610c395780915050610cba565b60036005811115610c4d57610c4c615105565b5b8103610c5c5780915050610cba565b60046005811115610c7057610c6f615105565b5b8103610c7f5780915050610cba565b6040517f08c379a0000000000000000000000000000000000000000000000000000000008152600401610cb1906152c4565b60405180910390fd5b919050565b610cc7613c86565b600360008373ffffffffffffffffffffffffffffffffffffffff1673ffffffffffffffffffffffffffffffffffffffff16815260200190815260200160002060080160009054906101000a900460ff16610d56576040517f08c379a0000000000000000000000000000000000000000000000000000000008152600401610d4d90615180565b60405180910390fd5b600360008373ffffffffffffffffffffffffffffffffffffffff1673ffffffffffffffffffffffffffffffffffffffff168152602001908152602001600020604051806101600160405290816000820160009054906101000a900473ffffffffffffffffffffffffffffffffffffffff1673ffffffffffffffffffffffffffffffffffffffff1673ffffffffffffffffffffffffffffffffffffffff16815260200160018201548152602001600282018054610e1190614dd9565b80601f0160208091040260200160405190810160405280929190818152602001828054610e3d90614dd9565b8015610e8a5780601f10610e5f57610100808354040283529160200191610e8a565b820191906000526020600020905b815481529060010190602001808311610e6d57829003601f168201915b50505050508152602001600382018054610ea390614dd9565b80601f0160208091040260200160405190810160405280929190818152602001828054610ecf90614dd9565b8015610f1c5780601f10610ef157610100808354040283529160200191610f1c565b820191906000526020600020905b815481529060010190602001808311610eff57829003601f168201915b5050505050815260200160048201548152602001600582015481526020016006820154815260200160078201805480602002602001604051908101604052809291908181526020018280548015610fc857602002820191906000526020600020905b8160009054906101000a900473ffffffffffffffffffffffffffffffffffffffff1673ffffffffffffffffffffffffffffffffffffffff1681526020019060010190808311610f7e575b505050505081526020016008820160009054906101000a900460ff1615151515815260200160098201805480602002602001604051908101604052809291908181526020016000905b828210156110bd57838290600052602060002001805461103090614dd9565b80601f016020809104026020016040519081016040528092919081815260200182805461105c90614dd9565b80156110a95780601f1061107e576101008083540402835291602001916110a9565b820191906000526020600020905b81548152906001019060200180831161108c57829003601f168201915b505050505081526020019060010190611011565b505050508152602001600a820180546110d590614dd9565b80601f016020809104026020016040519081016040528092919081815260200182805461110190614dd9565b801561114e5780601f106111235761010080835404028352916020019161114e565b820191906000526020600020905b81548152906001019060200180831161113157829003601f168201915b5050505050815250509050919050565b6001600581111561117257611171615105565b5b600160003373ffffffffffffffffffffffffffffffffffffffff1673ffffffffffffffffffffffffffffffffffffffff168152602001908152602001600020540361133557600360003373ffffffffffffffffffffffffffffffffffffffff1673ffffffffffffffffffffffffffffffffffffffff16815260200190815260200160002060080160009054906101000a900460ff16611246576040517f08c379a000000000000000000000000000000000000000000000000000000000815260040161123d90615330565b60405180910390fd5b600360003373ffffffffffffffffffffffffffffffffffffffff1673ffffffffffffffffffffffffffffffffffffffff168152602001908152602001600020600901819080600181540180825580915050600190039060005260206000200160009091909190915090816112ba9190614fb6565b50600260008373ffffffffffffffffffffffffffffffffffffffff1673ffffffffffffffffffffffffffffffffffffffff1681526020019081526020016000206008018190806001815401808255809150506001900390600052602060002001600090919091909150908161132f9190614fb6565b50611493565b60058081111561134857611347615105565b5b600160003373ffffffffffffffffffffffffffffffffffffffff1673ffffffffffffffffffffffffffffffffffffffff168152602001908152602001600020540361149257600260003373ffffffffffffffffffffffffffffffffffffffff1673ffffffffffffffffffffffffffffffffffffffff16815260200190815260200160002060060160009054906101000a900460ff1661141c576040517f08c379a00000000000000000000000000000000000000000000000000000000081526004016114139061539c565b60405180910390fd5b600260003373ffffffffffffffffffffffffffffffffffffffff1673ffffffffffffffffffffffffffffffffffffffff168152602001908152602001600020600801819080600181540180825580915050600190039060005260206000200160009091909190915090816114909190614fb6565b505b5b5050565b600560003373ffffffffffffffffffffffffffffffffffffffff1673ffffffffffffffffffffffffffffffffffffffff1681526020019081526020016000206008018190806001815401808255809150506001900390600052602060002001600090919091909150908161150b9190614fb6565b5050565b60016020528060005260406000206000915090505481565b600033905060001515600460008373ffffffffffffffffffffffffffffffffffffffff1673ffffffffffffffffffffffffffffffffffffffff16815260200190815260200160002060060160009054906101000a900460ff161515146115c2576040517f08c379a00000000000000000000000000000000000000000000000000000000081526004016115b990615408565b60405180910390fd5b6000600460008373ffffffffffffffffffffffffffffffffffffffff1673ffffffffffffffffffffffffffffffffffffffff1681526020019081526020016000209050818160000160006101000a81548173ffffffffffffffffffffffffffffffffffffffff021916908373ffffffffffffffffffffffffffffffffffffffff160217905550868160010181905550858160020190816116629190614fb6565b508481600301819055508381600401908161167d9190614fb6565b508281600501819055506002600160008473ffffffffffffffffffffffffffffffffffffffff1673ffffffffffffffffffffffffffffffffffffffff1681526020019081526020016000208190555060018160060160006101000a81548160ff0219169083151502179055506040518060400160405280600b81526020017f506174686f6c6f6769737400000000000000000000000000000000000000000081525081600801908161172f9190614fb6565b5050505050505050565b600660003373ffffffffffffffffffffffffffffffffffffffff1673ffffffffffffffffffffffffffffffffffffffff168152602001908152602001600020600901819080600181540180825580915050600190039060005260206000200160009091909190915090816117ad9190614fb6565b5050565b600033905060001515600660008373ffffffffffffffffffffffffffffffffffffffff1673ffffffffffffffffffffffffffffffffffffffff16815260200190815260200160002060060160009054906101000a900460ff1615151461184c576040517f08c379a000000000000000000000000000000000000000000000000000000000815260040161184390615408565b60405180910390fd5b6000600660008373ffffffffffffffffffffffffffffffffffffffff1673ffffffffffffffffffffffffffffffffffffffff1681526020019081526020016000209050818160000160006101000a81548173ffffffffffffffffffffffffffffffffffffffff021916908373ffffffffffffffffffffffffffffffffffffffff160217905550868160010181905550858160020190816118ec9190614fb6565b50848160030181905550838160040190816119079190614fb6565b5082816005018190555060018160060160006101000a81548160ff0219169083151502179055506004600160008473ffffffffffffffffffffffffffffffffffffffff1673ffffffffffffffffffffffffffffffffffffffff168152602001908152602001600020819055506040518060400160405280600f81526020017f506861726d616379436f6d70616e7900000000000000000000000000000000008152508160080190816119b99190614fb6565b5050505050505050565b6119cb613cf8565b600660008373ffffffffffffffffffffffffffffffffffffffff1673ffffffffffffffffffffffffffffffffffffffff16815260200190815260200160002060060160009054906101000a900460ff16611a5a576040517f08c379a0000000000000000000000000000000000000000000000000000000008152600401611a519061549a565b60405180910390fd5b600660008373ffffffffffffffffffffffffffffffffffffffff1673ffffffffffffffffffffffffffffffffffffffff168152602001908152602001600020604051806101400160405290816000820160009054906101000a900473ffffffffffffffffffffffffffffffffffffffff1673ffffffffffffffffffffffffffffffffffffffff1673ffffffffffffffffffffffffffffffffffffffff16815260200160018201548152602001600282018054611b1590614dd9565b80601f0160208091040260200160405190810160405280929190818152602001828054611b4190614dd9565b8015611b8e5780601f10611b6357610100808354040283529160200191611b8e565b820191906000526020600020905b815481529060010190602001808311611b7157829003601f168201915b5050505050815260200160038201548152602001600482018054611bb190614dd9565b80601f0160208091040260200160405190810160405280929190818152602001828054611bdd90614dd9565b8015611c2a5780601f10611bff57610100808354040283529160200191611c2a565b820191906000526020600020905b815481529060010190602001808311611c0d57829003601f168201915b50505050508152602001600582015481526020016006820160009054906101000a900460ff1615151515815260200160078201805480602002602001604051908101604052809291908181526020018280548015611cdd57602002820191906000526020600020905b8160009054906101000a900473ffffffffffffffffffffffffffffffffffffffff1673ffffffffffffffffffffffffffffffffffffffff1681526020019060010190808311611c93575b50505050508152602001600882018054611cf690614dd9565b80601f0160208091040260200160405190810160405280929190818152602001828054611d2290614dd9565b8015611d6f5780601f10611d4457610100808354040283529160200191611d6f565b820191906000526020600020905b815481529060010190602001808311611d5257829003601f168201915b5050505050815260200160098201805480602002602001604051908101604052809291908181526020016000905b82821015611e49578382906000526020600020018054611dbc90614dd9565b80601f0160208091040260200160405190810160405280929190818152602001828054611de890614dd9565b8015611e355780601f10611e0a57610100808354040283529160200191611e35565b820191906000526020600020905b815481529060010190602001808311611e1857829003601f168201915b505050505081526020019060010190611d9d565b50505050815250509050919050565b6000600160008373ffffffffffffffffffffffffffffffffffffffff1673ffffffffffffffffffffffffffffffffffffffff168152602001908152602001600020549050600580811115611eaf57611eae615105565b5b60050361260057600260003373ffffffffffffffffffffffffffffffffffffffff1673ffffffffffffffffffffffffffffffffffffffff16815260200190815260200160002060060160009054906101000a900460ff16611f45576040517f08c379a0000000000000000000000000000000000000000000000000000000008152600401611f3c9061539c565b60405180910390fd5b60016005811115611f5957611f58615105565b5b81148015611f795750600580811115611f7557611f74615105565b5b6005145b156120ab576000600360008473ffffffffffffffffffffffffffffffffffffffff1673ffffffffffffffffffffffffffffffffffffffff1681526020019081526020016000206005015403612003576040517f08c379a0000000000000000000000000000000000000000000000000000000008152600401611ffa90615180565b60405180910390fd5b600360008373ffffffffffffffffffffffffffffffffffffffff1673ffffffffffffffffffffffffffffffffffffffff168152602001908152602001600020600701339080600181540180825580915050600190039060005260206000200160009091909190916101000a81548173ffffffffffffffffffffffffffffffffffffffff021916908373ffffffffffffffffffffffffffffffffffffffff1602179055506125ff565b600260058111156120bf576120be615105565b5b811480156120df57506005808111156120db576120da615105565b5b6005145b1561225d57600073ffffffffffffffffffffffffffffffffffffffff16600460008473ffffffffffffffffffffffffffffffffffffffff1673ffffffffffffffffffffffffffffffffffffffff16815260200190815260200160002060000160009054906101000a900473ffffffffffffffffffffffffffffffffffffffff1673ffffffffffffffffffffffffffffffffffffffff16036121b5576040517f08c379a00000000000000000000000000000000000000000000000000000000081526004016121ac906151ec565b60405180910390fd5b600460008373ffffffffffffffffffffffffffffffffffffffff1673ffffffffffffffffffffffffffffffffffffffff168152602001908152602001600020600701339080600181540180825580915050600190039060005260206000200160009091909190916101000a81548173ffffffffffffffffffffffffffffffffffffffff021916908373ffffffffffffffffffffffffffffffffffffffff1602179055506125fe565b6003600581111561227157612270615105565b5b81148015612291575060058081111561228d5761228c615105565b5b6005145b1561240f57600073ffffffffffffffffffffffffffffffffffffffff16600560008473ffffffffffffffffffffffffffffffffffffffff1673ffffffffffffffffffffffffffffffffffffffff16815260200190815260200160002060000160009054906101000a900473ffffffffffffffffffffffffffffffffffffffff1673ffffffffffffffffffffffffffffffffffffffff1603612367576040517f08c379a000000000000000000000000000000000000000000000000000000000815260040161235e9061552c565b60405180910390fd5b600560008373ffffffffffffffffffffffffffffffffffffffff1673ffffffffffffffffffffffffffffffffffffffff168152602001908152602001600020600701339080600181540180825580915050600190039060005260206000200160009091909190916101000a81548173ffffffffffffffffffffffffffffffffffffffff021916908373ffffffffffffffffffffffffffffffffffffffff1602179055506125fd565b6004600581111561242357612422615105565b5b81148015612443575060058081111561243f5761243e615105565b5b6005145b156125c157600073ffffffffffffffffffffffffffffffffffffffff16600660008473ffffffffffffffffffffffffffffffffffffffff1673ffffffffffffffffffffffffffffffffffffffff16815260200190815260200160002060000160009054906101000a900473ffffffffffffffffffffffffffffffffffffffff1673ffffffffffffffffffffffffffffffffffffffff1603612519576040517f08c379a000000000000000000000000000000000000000000000000000000000815260040161251090615598565b60405180910390fd5b600660008373ffffffffffffffffffffffffffffffffffffffff1673ffffffffffffffffffffffffffffffffffffffff168152602001908152602001600020600701339080600181540180825580915050600190039060005260206000200160009091909190916101000a81548173ffffffffffffffffffffffffffffffffffffffff021916908373ffffffffffffffffffffffffffffffffffffffff1602179055506125fc565b6040517f08c379a00000000000000000000000000000000000000000000000000000000081526004016125f390615258565b60405180910390fd5b5b5b5b5b5050565b61260c613d63565b600260008373ffffffffffffffffffffffffffffffffffffffff1673ffffffffffffffffffffffffffffffffffffffff16815260200190815260200160002060060160009054906101000a900460ff1661269b576040517f08c379a00000000000000000000000000000000000000000000000000000000081526004016126929061539c565b60405180910390fd5b600260008373ffffffffffffffffffffffffffffffffffffffff1673ffffffffffffffffffffffffffffffffffffffff168152602001908152602001600020604051806101400160405290816000820160009054906101000a900473ffffffffffffffffffffffffffffffffffffffff1673ffffffffffffffffffffffffffffffffffffffff1673ffffffffffffffffffffffffffffffffffffffff1681526020016001820154815260200160028201805461275690614dd9565b80601f016020809104026020016040519081016040528092919081815260200182805461278290614dd9565b80156127cf5780601f106127a4576101008083540402835291602001916127cf565b820191906000526020600020905b8154815290600101906020018083116127b257829003601f168201915b505050505081526020016003820180546127e890614dd9565b80601f016020809104026020016040519081016040528092919081815260200182805461281490614dd9565b80156128615780601f1061283657610100808354040283529160200191612861565b820191906000526020600020905b81548152906001019060200180831161284457829003601f168201915b505050505081526020016004820154815260200160058201805461288490614dd9565b80601f01602080910402602001604051908101604052809291908181526020018280546128b090614dd9565b80156128fd5780601f106128d2576101008083540402835291602001916128fd565b820191906000526020600020905b8154815290600101906020018083116128e057829003601f168201915b505050505081526020016006820160009054906101000a900460ff1615151515815260200160078201805461293190614dd9565b80601f016020809104026020016040519081016040528092919081815260200182805461295d90614dd9565b80156129aa5780601f1061297f576101008083540402835291602001916129aa565b820191906000526020600020905b81548152906001019060200180831161298d57829003601f168201915b5050505050815260200160088201805480602002602001604051908101604052809291908181526020016000905b82821015612a845783829060005260206000200180546129f790614dd9565b80601f0160208091040260200160405190810160405280929190818152602001828054612a2390614dd9565b8015612a705780601f10612a4557610100808354040283529160200191612a70565b820191906000526020600020905b815481529060010190602001808311612a5357829003601f168201915b5050505050815260200190600101906129d8565b505050508152602001600982016040518061010001604052908160008201548152602001600182018054612ab790614dd9565b80601f0160208091040260200160405190810160405280929190818152602001828054612ae390614dd9565b8015612b305780601f10612b0557610100808354040283529160200191612b30565b820191906000526020600020905b815481529060010190602001808311612b1357829003601f168201915b50505050508152602001600282018054612b4990614dd9565b80601f0160208091040260200160405190810160405280929190818152602001828054612b7590614dd9565b8015612bc25780601f10612b9757610100808354040283529160200191612bc2565b820191906000526020600020905b815481529060010190602001808311612ba557829003601f168201915b50505050508152602001600382018054612bdb90614dd9565b80601f0160208091040260200160405190810160405280929190818152602001828054612c0790614dd9565b8015612c545780601f10612c2957610100808354040283529160200191612c54565b820191906000526020600020905b815481529060010190602001808311612c3757829003601f168201915b50505050508152602001600482018054612c6d90614dd9565b80601f0160208091040260200160405190810160405280929190818152602001828054612c9990614dd9565b8015612ce65780601f10612cbb57610100808354040283529160200191612ce6565b820191906000526020600020905b815481529060010190602001808311612cc957829003601f168201915b50505050508152602001600582018054612cff90614dd9565b80601f0160208091040260200160405190810160405280929190818152602001828054612d2b90614dd9565b8015612d785780601f10612d4d57610100808354040283529160200191612d78565b820191906000526020600020905b815481529060010190602001808311612d5b57829003601f168201915b50505050508152602001600682018054612d9190614dd9565b80601f0160208091040260200160405190810160405280929190818152602001828054612dbd90614dd9565b8015612e0a5780601f10612ddf57610100808354040283529160200191612e0a565b820191906000526020600020905b815481529060010190602001808311612ded57829003601f168201915b50505050508152602001600782018054612e2390614dd9565b80601f0160208091040260200160405190810160405280929190818152602001828054612e4f90614dd9565b8015612e9c5780601f10612e7157610100808354040283529160200191612e9c565b820191906000526020600020905b815481529060010190602001808311612e7f57829003601f168201915b505050505081525050815250509050919050565b600033905060001515600560008373ffffffffffffffffffffffffffffffffffffffff1673ffffffffffffffffffffffffffffffffffffffff16815260200190815260200160002060060160009054906101000a900460ff16151514612f4b576040517f08c379a0000000000000000000000000000000000000000000000000000000008152600401612f4290615408565b60405180910390fd5b6000600560008373ffffffffffffffffffffffffffffffffffffffff1673ffffffffffffffffffffffffffffffffffffffff1681526020019081526020016000209050818160000160006101000a81548173ffffffffffffffffffffffffffffffffffffffff021916908373ffffffffffffffffffffffffffffffffffffffff16021790555086816001018190555085816002019081612feb9190614fb6565b50848160030181905550838160040190816130069190614fb6565b5082816005018190555060018160060160006101000a81548160ff0219169083151502179055506003600160008473ffffffffffffffffffffffffffffffffffffffff1673ffffffffffffffffffffffffffffffffffffffff168152602001908152602001600020819055506040518060400160405280601281526020017f4d65646963616c52657365617263684c616200000000000000000000000000008152508160090190816130b89190614fb6565b5050505050505050565b6000600160008373ffffffffffffffffffffffffffffffffffffffff1673ffffffffffffffffffffffffffffffffffffffff1681526020019081526020016000205490506002600581111561311a57613119615105565b5b60020361335357600460003373ffffffffffffffffffffffffffffffffffffffff1673ffffffffffffffffffffffffffffffffffffffff16815260200190815260200160002060060160009054906101000a900460ff166131b0576040517f08c379a00000000000000000000000000000000000000000000000000000000081526004016131a7906151ec565b60405180910390fd5b600160058111156131c4576131c3615105565b5b811480156131e55750600260058111156131e1576131e0615105565b5b6002145b15613317576000600360008473ffffffffffffffffffffffffffffffffffffffff1673ffffffffffffffffffffffffffffffffffffffff168152602001908152602001600020600501540361326f576040517f08c379a000000000000000000000000000000000000000000000000000000000815260040161326690615180565b60405180910390fd5b600360008373ffffffffffffffffffffffffffffffffffffffff1673ffffffffffffffffffffffffffffffffffffffff168152602001908152602001600020600701339080600181540180825580915050600190039060005260206000200160009091909190916101000a81548173ffffffffffffffffffffffffffffffffffffffff021916908373ffffffffffffffffffffffffffffffffffffffff160217905550613352565b6040517f08c379a000000000000000000000000000000000000000000000000000000000815260040161334990615258565b60405180910390fd5b5b5050565b600033905060001515600260008373ffffffffffffffffffffffffffffffffffffffff1673ffffffffffffffffffffffffffffffffffffffff16815260200190815260200160002060060160009054906101000a900460ff161515146133f2576040517f08c379a00000000000000000000000000000000000000000000000000000000081526004016133e99061562a565b60405180910390fd5b6000600260008373ffffffffffffffffffffffffffffffffffffffff1673ffffffffffffffffffffffffffffffffffffffff1681526020019081526020016000209050818160000160006101000a81548173ffffffffffffffffffffffffffffffffffffffff021916908373ffffffffffffffffffffffffffffffffffffffff160217905550868160010181905550858160020190816134929190614fb6565b50848160030190816134a49190614fb6565b508381600401819055506005600160008473ffffffffffffffffffffffffffffffffffffffff1673ffffffffffffffffffffffffffffffffffffffff16815260200190815260200160002081905550828160050190816135049190614fb6565b5060018160060160006101000a81548160ff0219169083151502179055506040518060400160405280600781526020017f50617469656e74000000000000000000000000000000000000000000000000008152508160070190816135689190614fb6565b5050505050505050565b61357a613dd4565b600560008373ffffffffffffffffffffffffffffffffffffffff1673ffffffffffffffffffffffffffffffffffffffff16815260200190815260200160002060060160009054906101000a900460ff16613609576040517f08c379a0000000000000000000000000000000000000000000000000000000008152600401613600906156bc565b60405180910390fd5b600560008373ffffffffffffffffffffffffffffffffffffffff1673ffffffffffffffffffffffffffffffffffffffff168152602001908152602001600020604051806101400160405290816000820160009054906101000a900473ffffffffffffffffffffffffffffffffffffffff1673ffffffffffffffffffffffffffffffffffffffff1673ffffffffffffffffffffffffffffffffffffffff168152602001600182015481526020016002820180546136c490614dd9565b80601f01602080910402602001604051908101604052809291908181526020018280546136f090614dd9565b801561373d5780601f106137125761010080835404028352916020019161373d565b820191906000526020600020905b81548152906001019060200180831161372057829003601f168201915b505050505081526020016003820154815260200160048201805461376090614dd9565b80601f016020809104026020016040519081016040528092919081815260200182805461378c90614dd9565b80156137d95780601f106137ae576101008083540402835291602001916137d9565b820191906000526020600020905b8154815290600101906020018083116137bc57829003601f168201915b50505050508152602001600582015481526020016006820160009054906101000a900460ff161515151581526020016007820180548060200260200160405190810160405280929190818152602001828054801561388c57602002820191906000526020600020905b8160009054906101000a900473ffffffffffffffffffffffffffffffffffffffff1673ffffffffffffffffffffffffffffffffffffffff1681526020019060010190808311613842575b5050505050815260200160088201805480602002602001604051908101604052809291908181526020016000905b828210156139665783829060005260206000200180546138d990614dd9565b80601f016020809104026020016040519081016040528092919081815260200182805461390590614dd9565b80156139525780601f1061392757610100808354040283529160200191613952565b820191906000526020600020905b81548152906001019060200180831161393557829003601f168201915b5050505050815260200190600101906138ba565b50505050815260200160098201805461397e90614dd9565b80601f01602080910402602001604051908101604052809291908181526020018280546139aa90614dd9565b80156139f75780601f106139cc576101008083540402835291602001916139f7565b820191906000526020600020905b8154815290600101906020018083116139da57829003601f168201915b5050505050815250509050919050565b600033905060001515600360008373ffffffffffffffffffffffffffffffffffffffff1673ffffffffffffffffffffffffffffffffffffffff16815260200190815260200160002060080160009054906101000a900460ff16151514613aa2576040517f08c379a0000000000000000000000000000000000000000000000000000000008152600401613a9990615408565b60405180910390fd5b6000600360008373ffffffffffffffffffffffffffffffffffffffff1673ffffffffffffffffffffffffffffffffffffffff1681526020019081526020016000209050818160000160006101000a81548173ffffffffffffffffffffffffffffffffffffffff021916908373ffffffffffffffffffffffffffffffffffffffff16021790555087816001018190555086816002019081613b429190614fb6565b5085816003019081613b549190614fb6565b508481600401819055508381600501819055508281600601819055506040518060400160405280600681526020017f446f63746f72000000000000000000000000000000000000000000000000000081525081600a019081613bb69190614fb6565b5060018160080160006101000a81548160ff02191690831515021790555060018060008473ffffffffffffffffffffffffffffffffffffffff1673ffffffffffffffffffffffffffffffffffffffff168152602001908152602001600020819055505050505050505050565b604051806101200160405280600073ffffffffffffffffffffffffffffffffffffffff168152602001600081526020016060815260200160008152602001606081526020016000815260200160001515815260200160608152602001606081525090565b604051806101600160405280600073ffffffffffffffffffffffffffffffffffffffff1681526020016000815260200160608152602001606081526020016000815260200160008152602001600081526020016060815260200160001515815260200160608152602001606081525090565b604051806101400160405280600073ffffffffffffffffffffffffffffffffffffffff16815260200160008152602001606081526020016000815260200160608152602001600081526020016000151581526020016060815260200160608152602001606081525090565b604051806101400160405280600073ffffffffffffffffffffffffffffffffffffffff16815260200160008152602001606081526020016060815260200160008152602001606081526020016000151581526020016060815260200160608152602001613dce613e3f565b81525090565b604051806101400160405280600073ffffffffffffffffffffffffffffffffffffffff16815260200160008152602001606081526020016000815260200160608152602001600081526020016000151581526020016060815260200160608152602001606081525090565b60405180610100016040528060008152602001606081526020016060815260200160608152602001606081526020016060815260200160608152602001606081525090565b6000604051905090565b600080fd5b600080fd5b6000819050919050565b613eab81613e98565b8114613eb657600080fd5b50565b600081359050613ec881613ea2565b92915050565b600080fd5b600080fd5b6000601f19601f8301169050919050565b7f4e487b7100000000000000000000000000000000000000000000000000000000600052604160045260246000fd5b613f2182613ed8565b810181811067ffffffffffffffff82111715613f4057613f3f613ee9565b5b80604052505050565b6000613f53613e84565b9050613f5f8282613f18565b919050565b600067ffffffffffffffff821115613f7f57613f7e613ee9565b5b613f8882613ed8565b9050602081019050919050565b82818337600083830152505050565b6000613fb7613fb284613f64565b613f49565b905082815260208101848484011115613fd357613fd2613ed3565b5b613fde848285613f95565b509392505050565b600082601f830112613ffb57613ffa613ece565b5b813561400b848260208601613fa4565b91505092915050565b600080600080600080600080610100898b03121561403557614034613e8e565b5b60006140438b828c01613eb9565b985050602089013567ffffffffffffffff81111561406457614063613e93565b5b6140708b828c01613fe6565b975050604089013567ffffffffffffffff81111561409157614090613e93565b5b61409d8b828c01613fe6565b965050606089013567ffffffffffffffff8111156140be576140bd613e93565b5b6140ca8b828c01613fe6565b955050608089013567ffffffffffffffff8111156140eb576140ea613e93565b5b6140f78b828c01613fe6565b94505060a089013567ffffffffffffffff81111561411857614117613e93565b5b6141248b828c01613fe6565b93505060c089013567ffffffffffffffff81111561414557614144613e93565b5b6141518b828c01613fe6565b92505060e089013567ffffffffffffffff81111561417257614171613e93565b5b61417e8b828c01613fe6565b9150509295985092959890939650565b600073ffffffffffffffffffffffffffffffffffffffff82169050919050565b60006141b98261418e565b9050919050565b6141c9816141ae565b81146141d457600080fd5b50565b6000813590506141e6816141c0565b92915050565b60006020828403121561420257614201613e8e565b5b6000614210848285016141d7565b91505092915050565b614222816141ae565b82525050565b61423181613e98565b82525050565b600081519050919050565b600082825260208201905092915050565b60005b83811015614271578082015181840152602081019050614256565b60008484015250505050565b600061428882614237565b6142928185614242565b93506142a2818560208601614253565b6142ab81613ed8565b840191505092915050565b60008115159050919050565b6142cb816142b6565b82525050565b600081519050919050565b600082825260208201905092915050565b6000819050602082019050919050565b60006143098383614219565b60208301905092915050565b6000602082019050919050565b600061432d826142d1565b61433781856142dc565b9350614342836142ed565b8060005b8381101561437357815161435a88826142fd565b975061436583614315565b925050600181019050614346565b5085935050505092915050565b6000610120830160008301516143996000860182614219565b5060208301516143ac6020860182614228565b50604083015184820360408601526143c4828261427d565b91505060608301516143d96060860182614228565b50608083015184820360808601526143f1828261427d565b91505060a083015161440660a0860182614228565b5060c083015161441960c08601826142c2565b5060e083015184820360e08601526144318282614322565b91505061010083015184820361010086015261444d828261427d565b9150508091505092915050565b600060208201905081810360008301526144748184614380565b905092915050565b61448581613e98565b82525050565b60006020820190506144a0600083018461447c565b92915050565b600081519050919050565b600082825260208201905092915050565b6000819050602082019050919050565b60006144de838361427d565b905092915050565b6000602082019050919050565b60006144fe826144a6565b61450881856144b1565b93508360208202850161451a856144c2565b8060005b85811015614556578484038952815161453785826144d2565b9450614542836144e6565b925060208a0199505060018101905061451e565b50829750879550505050505092915050565b6000610160830160008301516145816000860182614219565b5060208301516145946020860182614228565b50604083015184820360408601526145ac828261427d565b915050606083015184820360608601526145c6828261427d565b91505060808301516145db6080860182614228565b5060a08301516145ee60a0860182614228565b5060c083015161460160c0860182614228565b5060e083015184820360e08601526146198282614322565b9150506101008301516146306101008601826142c2565b5061012083015184820361012086015261464a82826144f3565b915050610140830151848203610140860152614666828261427d565b9150508091505092915050565b6000602082019050818103600083015261468d8184614568565b905092915050565b600080604083850312156146ac576146ab613e8e565b5b60006146ba858286016141d7565b925050602083013567ffffffffffffffff8111156146db576146da613e93565b5b6146e785828601613fe6565b9150509250929050565b60006020828403121561470757614706613e8e565b5b600082013567ffffffffffffffff81111561472557614724613e93565b5b61473184828501613fe6565b91505092915050565b600080600080600060a0868803121561475657614755613e8e565b5b600061476488828901613eb9565b955050602086013567ffffffffffffffff81111561478557614784613e93565b5b61479188828901613fe6565b94505060406147a288828901613eb9565b935050606086013567ffffffffffffffff8111156147c3576147c2613e93565b5b6147cf88828901613fe6565b92505060806147e088828901613eb9565b9150509295509295909350565b6000610140830160008301516148066000860182614219565b5060208301516148196020860182614228565b5060408301518482036040860152614831828261427d565b91505060608301516148466060860182614228565b506080830151848203608086015261485e828261427d565b91505060a083015161487360a0860182614228565b5060c083015161488660c08601826142c2565b5060e083015184820360e086015261489e8282614322565b9150506101008301518482036101008601526148ba828261427d565b9150506101208301518482036101208601526148d682826144f3565b9150508091505092915050565b600060208201905081810360008301526148fd81846147ed565b905092915050565b60006101008301600083015161491e6000860182614228565b5060208301518482036020860152614936828261427d565b91505060408301518482036040860152614950828261427d565b9150506060830151848203606086015261496a828261427d565b91505060808301518482036080860152614984828261427d565b91505060a083015184820360a086015261499e828261427d565b91505060c083015184820360c08601526149b8828261427d565b91505060e083015184820360e08601526149d2828261427d565b9150508091505092915050565b6000610140830160008301516149f86000860182614219565b506020830151614a0b6020860182614228565b5060408301518482036040860152614a23828261427d565b91505060608301518482036060860152614a3d828261427d565b9150506080830151614a526080860182614228565b5060a083015184820360a0860152614a6a828261427d565b91505060c0830151614a7f60c08601826142c2565b5060e083015184820360e0860152614a97828261427d565b915050610100830151848203610100860152614ab382826144f3565b915050610120830151848203610120860152614acf8282614905565b9150508091505092915050565b60006020820190508181036000830152614af681846149df565b905092915050565b600080600080600060a08688031215614b1a57614b19613e8e565b5b6000614b2888828901613eb9565b955050602086013567ffffffffffffffff811115614b4957614b48613e93565b5b614b5588828901613fe6565b945050604086013567ffffffffffffffff811115614b7657614b75613e93565b5b614b8288828901613fe6565b9350506060614b9388828901613eb9565b925050608086013567ffffffffffffffff811115614bb457614bb3613e93565b5b614bc088828901613fe6565b9150509295509295909350565b600061014083016000830151614be66000860182614219565b506020830151614bf96020860182614228565b5060408301518482036040860152614c11828261427d565b9150506060830151614c266060860182614228565b5060808301518482036080860152614c3e828261427d565b91505060a0830151614c5360a0860182614228565b5060c0830151614c6660c08601826142c2565b5060e083015184820360e0860152614c7e8282614322565b915050610100830151848203610100860152614c9a82826144f3565b915050610120830151848203610120860152614cb6828261427d565b9150508091505092915050565b60006020820190508181036000830152614cdd8184614bcd565b905092915050565b60008060008060008060c08789031215614d0257614d01613e8e565b5b6000614d1089828a01613eb9565b965050602087013567ffffffffffffffff811115614d3157614d30613e93565b5b614d3d89828a01613fe6565b955050604087013567ffffffffffffffff811115614d5e57614d5d613e93565b5b614d6a89828a01613fe6565b9450506060614d7b89828a01613eb9565b9350506080614d8c89828a01613eb9565b92505060a0614d9d89828a01613eb9565b9150509295509295509295565b7f4e487b7100000000000000000000000000000000000000000000000000000000600052602260045260246000fd5b60006002820490506001821680614df157607f821691505b602082108103614e0457614e03614daa565b5b50919050565b60008190508160005260206000209050919050565b60006020601f8301049050919050565b600082821b905092915050565b600060088302614e6c7fffffffffffffffffffffffffffffffffffffffffffffffffffffffffffffffff82614e2f565b614e768683614e2f565b95508019841693508086168417925050509392505050565b6000819050919050565b6000614eb3614eae614ea984613e98565b614e8e565b613e98565b9050919050565b6000819050919050565b614ecd83614e98565b614ee1614ed982614eba565b848454614e3c565b825550505050565b600090565b614ef6614ee9565b614f01818484614ec4565b505050565b5b81811015614f2557614f1a600082614eee565b600181019050614f07565b5050565b601f821115614f6a57614f3b81614e0a565b614f4484614e1f565b81016020851015614f53578190505b614f67614f5f85614e1f565b830182614f06565b50505b505050565b600082821c905092915050565b6000614f8d60001984600802614f6f565b1980831691505092915050565b6000614fa68383614f7c565b9150826002028217905092915050565b614fbf82614237565b67ffffffffffffffff811115614fd857614fd7613ee9565b5b614fe28254614dd9565b614fed828285614f29565b600060209050601f831160018114615020576000841561500e578287015190505b6150188582614f9a565b865550615080565b601f19841661502e86614e0a565b60005b8281101561505657848901518255600182019150602085019450602081019050615031565b86831015615073578489015161506f601f891682614f7c565b8355505b6001600288020188555050505b505050505050565b600082825260208201905092915050565b7f706174686f6c6f676973747320646f6573206e6f742065786973740000000000600082015250565b60006150cf601b83615088565b91506150da82615099565b602082019050919050565b600060208201905081810360008301526150fe816150c2565b9050919050565b7f4e487b7100000000000000000000000000000000000000000000000000000000600052602160045260246000fd5b7f446f63746f7220646f6573206e6f742065786973740000000000000000000000600082015250565b600061516a601583615088565b915061517582615134565b602082019050919050565b600060208201905081810360008301526151998161515d565b9050919050565b7f506174686f6c6f6769737420646f6573206e6f74206578697374000000000000600082015250565b60006151d6601a83615088565b91506151e1826151a0565b602082019050919050565b60006020820190508181036000830152615205816151c9565b9050919050565b7f446f6e2774206861766520616e79206b696e6473206f66206163636f756e7400600082015250565b6000615242601f83615088565b915061524d8261520c565b602082019050919050565b6000602082019050818103600083015261527181615235565b9050919050565b7f4e6f206163636f756e74206861766520616e7920656e74697479207479706500600082015250565b60006152ae601f83615088565b91506152b982615278565b602082019050919050565b600060208201905081810360008301526152dd816152a1565b9050919050565b7f446f63746f722020646f6573206e6f7420657869737400000000000000000000600082015250565b600061531a601683615088565b9150615325826152e4565b602082019050919050565b600060208201905081810360008301526153498161530d565b9050919050565b7f50617469656e7420646f6573206e6f7420657869737400000000000000000000600082015250565b6000615386601683615088565b915061539182615350565b602082019050919050565b600060208201905081810360008301526153b581615379565b9050919050565b7f796f7520616c72656164792063726561746520796f75722070726f66696c6500600082015250565b60006153f2601f83615088565b91506153fd826153bc565b602082019050919050565b60006020820190508181036000830152615421816153e5565b9050919050565b7f506861726d61637920436f6d70616e69657320646f6573206e6f74206578697360008201527f7400000000000000000000000000000000000000000000000000000000000000602082015250565b6000615484602183615088565b915061548f82615428565b604082019050919050565b600060208201905081810360008301526154b381615477565b9050919050565b7f4d65646963616c205265736561726368204c616220646f6573206e6f7420657860008201527f6973740000000000000000000000000000000000000000000000000000000000602082015250565b6000615516602383615088565b9150615521826154ba565b604082019050919050565b6000602082019050818103600083015261554581615509565b9050919050565b7f506861726d61637920436f6d70616e7920646f6573206e6f7420657869737400600082015250565b6000615582601f83615088565b915061558d8261554c565b602082019050919050565b600060208201905081810360008301526155b181615575565b9050919050565b7f596f75206861766520616c7265616479206372656174656420796f757220707260008201527f6f66696c65000000000000000000000000000000000000000000000000000000602082015250565b6000615614602583615088565b915061561f826155b8565b604082019050919050565b6000602082019050818103600083015261564381615607565b9050919050565b7f4d65646963616c205265736561726368206c616220646f6573206e6f7420657860008201527f6973740000000000000000000000000000000000000000000000000000000000602082015250565b60006156a6602383615088565b91506156b18261564a565b604082019050919050565b600060208201905081810360008301526156d581615699565b905091905056fea26469706673582212201a90e44c83237918065c5f65213e5f052c4513ea2afa3e20cce2f2ae35935cab64736f6c63430008110033",
  "linkReferences": {},
  "deployedLinkReferences": {}
}