{
  "_format": "hh-sol-artifact-1",
  "contractName": "PatientData",
  "sourceName": "contracts/Patient.sol",
  "abi": [
    {
      "inputs": [
        {
          "internalType": "address",
          "name": "user",
          "type": "address"
        }
      ],
      "name": "accressDataAnyone",
      "outputs": [],
      "stateMutability": "nonpayable",
      "type": "function"
    },
    {
      "inputs": [
        {
          "internalType": "address",
          "name": "",
          "type": "address"
        },
        {
          "internalType": "address",
          "name": "",
          "type": "address"
        }
      ],
      "name": "accressList",
      "outputs": [
        {
          "internalType": "bool",
          "name": "",
          "type": "bool"
        }
      ],
      "stateMutability": "view",
      "type": "function"
    },
    {
      "inputs": [
        {
          "internalType": "address",
          "name": "_issuerAddress",
          "type": "address"
        },
        {
          "internalType": "string",
          "name": "_credentielType",
          "type": "string"
        },
        {
          "internalType": "string",
          "name": "_credentialIssuer",
          "type": "string"
        },
        {
          "internalType": "string",
          "name": "_credentialValue",
          "type": "string"
        },
        {
          "internalType": "string",
          "name": "_dateIssued",
          "type": "string"
        }
      ],
      "name": "addCredential",
      "outputs": [],
      "stateMutability": "nonpayable",
      "type": "function"
    },
    {
      "inputs": [
        {
          "internalType": "address",
          "name": "_patient",
          "type": "address"
        },
        {
          "internalType": "string",
          "name": "_name",
          "type": "string"
        },
        {
          "internalType": "uint256",
          "name": "_age",
          "type": "uint256"
        },
        {
          "internalType": "uint256",
          "name": "_patientId",
          "type": "uint256"
        },
        {
          "internalType": "string",
          "name": "_gender",
          "type": "string"
        },
        {
          "internalType": "uint256",
          "name": "_birthDay",
          "type": "uint256"
        },
        {
          "internalType": "string",
          "name": "_bloodGroup",
          "type": "string"
        },
        {
          "internalType": "uint256",
          "name": "_nid",
          "type": "uint256"
        }
      ],
      "name": "addPatient",
      "outputs": [],
      "stateMutability": "nonpayable",
      "type": "function"
    },
    {
      "inputs": [
        {
          "internalType": "string",
          "name": "_name",
          "type": "string"
        },
        {
          "internalType": "address",
          "name": "_patientParient",
          "type": "address"
        },
        {
          "internalType": "uint256",
          "name": "_age",
          "type": "uint256"
        },
        {
          "internalType": "string",
          "name": "_gender",
          "type": "string"
        },
        {
          "internalType": "uint256",
          "name": "_birthDay",
          "type": "uint256"
        },
        {
          "internalType": "string",
          "name": "_bloodGroup",
          "type": "string"
        },
        {
          "internalType": "uint256",
          "name": "_nid",
          "type": "uint256"
        }
      ],
      "name": "addPatientParient",
      "outputs": [],
      "stateMutability": "nonpayable",
      "type": "function"
    },
    {
      "inputs": [
        {
          "internalType": "address",
          "name": "",
          "type": "address"
        }
      ],
      "name": "allCredential",
      "outputs": [
        {
          "internalType": "address",
          "name": "issuerAddress",
          "type": "address"
        },
        {
          "internalType": "string",
          "name": "credentielType",
          "type": "string"
        },
        {
          "internalType": "string",
          "name": "credentialIssuer",
          "type": "string"
        },
        {
          "internalType": "string",
          "name": "credentialValue",
          "type": "string"
        },
        {
          "internalType": "string",
          "name": "dateIssued",
          "type": "string"
        },
        {
          "internalType": "bool",
          "name": "isAdded",
          "type": "bool"
        },
        {
          "internalType": "bool",
          "name": "dataAccress",
          "type": "bool"
        }
      ],
      "stateMutability": "view",
      "type": "function"
    },
    {
      "inputs": [
        {
          "internalType": "uint256",
          "name": "",
          "type": "uint256"
        }
      ],
      "name": "allCredentialAddress",
      "outputs": [
        {
          "internalType": "address",
          "name": "",
          "type": "address"
        }
      ],
      "stateMutability": "view",
      "type": "function"
    },
    {
      "inputs": [
        {
          "internalType": "address",
          "name": "",
          "type": "address"
        }
      ],
      "name": "allPatient",
      "outputs": [
        {
          "internalType": "address",
          "name": "patient",
          "type": "address"
        },
        {
          "internalType": "string",
          "name": "name",
          "type": "string"
        },
        {
          "internalType": "uint256",
          "name": "age",
          "type": "uint256"
        },
        {
          "internalType": "uint256",
          "name": "patientId",
          "type": "uint256"
        },
        {
          "internalType": "string",
          "name": "gender",
          "type": "string"
        },
        {
          "internalType": "uint256",
          "name": "birthDay",
          "type": "uint256"
        },
        {
          "internalType": "string",
          "name": "bloodGroup",
          "type": "string"
        },
        {
          "components": [
            {
              "internalType": "string",
              "name": "name",
              "type": "string"
            },
            {
              "internalType": "address",
              "name": "patientParient",
              "type": "address"
            },
            {
              "internalType": "uint256",
              "name": "age",
              "type": "uint256"
            },
            {
              "internalType": "string",
              "name": "gender",
              "type": "string"
            },
            {
              "internalType": "uint256",
              "name": "birthDay",
              "type": "uint256"
            },
            {
              "internalType": "string",
              "name": "bloodGroup",
              "type": "string"
            },
            {
              "internalType": "uint256",
              "name": "nid",
              "type": "uint256"
            },
            {
              "internalType": "bool",
              "name": "isAdded",
              "type": "bool"
            }
          ],
          "internalType": "struct PatientData.PatientParient",
          "name": "patientParient",
          "type": "tuple"
        },
        {
          "internalType": "uint256",
          "name": "nid",
          "type": "uint256"
        },
        {
          "internalType": "bool",
          "name": "isAdded",
          "type": "bool"
        }
      ],
      "stateMutability": "view",
      "type": "function"
    },
    {
      "inputs": [
        {
          "internalType": "uint256",
          "name": "",
          "type": "uint256"
        }
      ],
      "name": "allPatientAddress",
      "outputs": [
        {
          "internalType": "address",
          "name": "",
          "type": "address"
        }
      ],
      "stateMutability": "view",
      "type": "function"
    },
    {
      "inputs": [
        {
          "internalType": "address",
          "name": "",
          "type": "address"
        }
      ],
      "name": "allPatientParient",
      "outputs": [
        {
          "internalType": "string",
          "name": "name",
          "type": "string"
        },
        {
          "internalType": "address",
          "name": "patientParient",
          "type": "address"
        },
        {
          "internalType": "uint256",
          "name": "age",
          "type": "uint256"
        },
        {
          "internalType": "string",
          "name": "gender",
          "type": "string"
        },
        {
          "internalType": "uint256",
          "name": "birthDay",
          "type": "uint256"
        },
        {
          "internalType": "string",
          "name": "bloodGroup",
          "type": "string"
        },
        {
          "internalType": "uint256",
          "name": "nid",
          "type": "uint256"
        },
        {
          "internalType": "bool",
          "name": "isAdded",
          "type": "bool"
        }
      ],
      "stateMutability": "view",
      "type": "function"
    },
    {
      "inputs": [
        {
          "internalType": "uint256",
          "name": "",
          "type": "uint256"
        }
      ],
      "name": "allPatientParientAddress",
      "outputs": [
        {
          "internalType": "address",
          "name": "",
          "type": "address"
        }
      ],
      "stateMutability": "view",
      "type": "function"
    },
    {
      "inputs": [
        {
          "internalType": "address",
          "name": "user",
          "type": "address"
        }
      ],
      "name": "revokeDataAnyone",
      "outputs": [],
      "stateMutability": "nonpayable",
      "type": "function"
    },
    {
      "inputs": [
        {
          "internalType": "address",
          "name": "_issuerAddress",
          "type": "address"
        }
      ],
      "name": "viewCredential",
      "outputs": [
        {
          "internalType": "address",
          "name": "",
          "type": "address"
        },
        {
          "internalType": "string",
          "name": "",
          "type": "string"
        },
        {
          "internalType": "string",
          "name": "",
          "type": "string"
        },
        {
          "internalType": "string",
          "name": "",
          "type": "string"
        },
        {
          "internalType": "string",
          "name": "",
          "type": "string"
        },
        {
          "internalType": "bool",
          "name": "",
          "type": "bool"
        }
      ],
      "stateMutability": "view",
      "type": "function"
    },
    {
      "inputs": [
        {
          "internalType": "address",
          "name": "_patient",
          "type": "address"
        }
      ],
      "name": "viewPatient",
      "outputs": [
        {
          "internalType": "address",
          "name": "",
          "type": "address"
        },
        {
          "internalType": "string",
          "name": "",
          "type": "string"
        },
        {
          "internalType": "uint256",
          "name": "",
          "type": "uint256"
        },
        {
          "internalType": "uint256",
          "name": "",
          "type": "uint256"
        },
        {
          "internalType": "string",
          "name": "",
          "type": "string"
        },
        {
          "internalType": "uint256",
          "name": "",
          "type": "uint256"
        },
        {
          "internalType": "string",
          "name": "",
          "type": "string"
        },
        {
          "internalType": "uint256",
          "name": "",
          "type": "uint256"
        },
        {
          "internalType": "bool",
          "name": "",
          "type": "bool"
        }
      ],
      "stateMutability": "view",
      "type": "function"
    },
    {
      "inputs": [
        {
          "internalType": "address",
          "name": "_patientParient",
          "type": "address"
        }
      ],
      "name": "viewPatientParient",
      "outputs": [
        {
          "internalType": "string",
          "name": "",
          "type": "string"
        },
        {
          "internalType": "address",
          "name": "",
          "type": "address"
        },
        {
          "internalType": "uint256",
          "name": "",
          "type": "uint256"
        },
        {
          "internalType": "string",
          "name": "",
          "type": "string"
        },
        {
          "internalType": "uint256",
          "name": "",
          "type": "uint256"
        },
        {
          "internalType": "string",
          "name": "",
          "type": "string"
        },
        {
          "internalType": "uint256",
          "name": "",
          "type": "uint256"
        },
        {
          "internalType": "bool",
          "name": "",
          "type": "bool"
        }
      ],
      "stateMutability": "view",
      "type": "function"
    }
  ],
  "bytecode": "0x608060405234801561001057600080fd5b50613575806100206000396000f3fe608060405234801561001057600080fd5b50600436106100f55760003560e01c8063362b3b31116100975780636d2e3c16116100665780636d2e3c16146102e457806372232f141461031457806378a9ae6914610330578063d96e84a514610360576100f5565b8063362b3b31146102575780634ebf7a2f146102905780635d21836d146102ac57806369af39bc146102c8576100f5565b80631ae738b8116100d35780631ae738b814610197578063210145c9146101cf57806325570ae9146102045780632dff8bce14610220576100f5565b80630a088f63146100fa57806315f250651461012a578063166d37d514610160575b600080fd5b610114600480360381019061010f91906123bc565b610390565b604051610121919061242a565b60405180910390f35b610144600480360381019061013f9190612471565b6103cf565b6040516101579796959493929190612549565b60405180910390f35b61017a60048036038101906101759190612471565b61066b565b60405161018e9897969594939291906125e3565b60405180910390f35b6101b160048036038101906101ac9190612471565b610a57565b6040516101c699989796959493929190612676565b60405180910390f35b6101e960048036038101906101e49190612471565b61103b565b6040516101fb96959493929190612718565b60405180910390f35b61021e60048036038101906102199190612471565b6113e5565b005b61023a60048036038101906102359190612471565b611529565b60405161024e9897969594939291906125e3565b60405180910390f35b610271600480360381019061026c9190612471565b611736565b6040516102879a999897969594939291906128ca565b60405180910390f35b6102aa60048036038101906102a59190612ab7565b611b9f565b005b6102c660048036038101906102c19190612ba2565b611d8b565b005b6102e260048036038101906102dd9190612c98565b611f82565b005b6102fe60048036038101906102f991906123bc565b612181565b60405161030b919061242a565b60405180910390f35b61032e60048036038101906103299190612471565b6121c0565b005b61034a600480360381019061034591906123bc565b612304565b604051610357919061242a565b60405180910390f35b61037a60048036038101906103759190612da2565b612343565b6040516103879190612de2565b60405180910390f35b600481815481106103a057600080fd5b906000526020600020016000915054906101000a900473ffffffffffffffffffffffffffffffffffffffff1681565b60026020528060005260406000206000915090508060000160009054906101000a900473ffffffffffffffffffffffffffffffffffffffff169080600101805461041890612e2c565b80601f016020809104026020016040519081016040528092919081815260200182805461044490612e2c565b80156104915780601f1061046657610100808354040283529160200191610491565b820191906000526020600020905b81548152906001019060200180831161047457829003601f168201915b5050505050908060020180546104a690612e2c565b80601f01602080910402602001604051908101604052809291908181526020018280546104d290612e2c565b801561051f5780601f106104f45761010080835404028352916020019161051f565b820191906000526020600020905b81548152906001019060200180831161050257829003601f168201915b50505050509080600301805461053490612e2c565b80601f016020809104026020016040519081016040528092919081815260200182805461056090612e2c565b80156105ad5780601f10610582576101008083540402835291602001916105ad565b820191906000526020600020905b81548152906001019060200180831161059057829003601f168201915b5050505050908060040180546105c290612e2c565b80601f01602080910402602001604051908101604052809291908181526020018280546105ee90612e2c565b801561063b5780601f106106105761010080835404028352916020019161063b565b820191906000526020600020905b81548152906001019060200180831161061e57829003601f168201915b5050505050908060050160009054906101000a900460ff16908060050160019054906101000a900460ff16905087565b60606000806060600060606000803373ffffffffffffffffffffffffffffffffffffffff168973ffffffffffffffffffffffffffffffffffffffff161480610740575060011515600360008b73ffffffffffffffffffffffffffffffffffffffff1673ffffffffffffffffffffffffffffffffffffffff16815260200190815260200160002060003373ffffffffffffffffffffffffffffffffffffffff1673ffffffffffffffffffffffffffffffffffffffff16815260200190815260200160002060009054906101000a900460ff161515145b61077f576040517f08c379a000000000000000000000000000000000000000000000000000000000815260040161077690612ea9565b60405180910390fd5b6000600160008b73ffffffffffffffffffffffffffffffffffffffff1673ffffffffffffffffffffffffffffffffffffffff168152602001908152602001600020604051806101000160405290816000820180546107dc90612e2c565b80601f016020809104026020016040519081016040528092919081815260200182805461080890612e2c565b80156108555780601f1061082a57610100808354040283529160200191610855565b820191906000526020600020905b81548152906001019060200180831161083857829003601f168201915b505050505081526020016001820160009054906101000a900473ffffffffffffffffffffffffffffffffffffffff1673ffffffffffffffffffffffffffffffffffffffff1673ffffffffffffffffffffffffffffffffffffffff168152602001600282015481526020016003820180546108ce90612e2c565b80601f01602080910402602001604051908101604052809291908181526020018280546108fa90612e2c565b80156109475780601f1061091c57610100808354040283529160200191610947565b820191906000526020600020905b81548152906001019060200180831161092a57829003601f168201915b505050505081526020016004820154815260200160058201805461096a90612e2c565b80601f016020809104026020016040519081016040528092919081815260200182805461099690612e2c565b80156109e35780601f106109b8576101008083540402835291602001916109e3565b820191906000526020600020905b8154815290600101906020018083116109c657829003601f168201915b50505050508152602001600682015481526020016007820160009054906101000a900460ff1615151515815250509050806000015181602001518260400151836060015184608001518560a001518660c001518760e001519850985098509850985098509850985050919395975091939597565b6000606060008060606000606060008060008060008c73ffffffffffffffffffffffffffffffffffffffff1673ffffffffffffffffffffffffffffffffffffffff168152602001908152602001600020604051806101600160405290816000820160009054906101000a900473ffffffffffffffffffffffffffffffffffffffff1673ffffffffffffffffffffffffffffffffffffffff1673ffffffffffffffffffffffffffffffffffffffff168152602001600182018054610b1990612e2c565b80601f0160208091040260200160405190810160405280929190818152602001828054610b4590612e2c565b8015610b925780601f10610b6757610100808354040283529160200191610b92565b820191906000526020600020905b815481529060010190602001808311610b7557829003601f168201915b505050505081526020016002820154815260200160038201548152602001600482018054610bbf90612e2c565b80601f0160208091040260200160405190810160405280929190818152602001828054610beb90612e2c565b8015610c385780601f10610c0d57610100808354040283529160200191610c38565b820191906000526020600020905b815481529060010190602001808311610c1b57829003601f168201915b5050505050815260200160058201548152602001600682018054610c5b90612e2c565b80601f0160208091040260200160405190810160405280929190818152602001828054610c8790612e2c565b8015610cd45780601f10610ca957610100808354040283529160200191610cd4565b820191906000526020600020905b815481529060010190602001808311610cb757829003601f168201915b505050505081526020016007820160405180610100016040529081600082018054610cfe90612e2c565b80601f0160208091040260200160405190810160405280929190818152602001828054610d2a90612e2c565b8015610d775780601f10610d4c57610100808354040283529160200191610d77565b820191906000526020600020905b815481529060010190602001808311610d5a57829003601f168201915b505050505081526020016001820160009054906101000a900473ffffffffffffffffffffffffffffffffffffffff1673ffffffffffffffffffffffffffffffffffffffff1673ffffffffffffffffffffffffffffffffffffffff16815260200160028201548152602001600382018054610df090612e2c565b80601f0160208091040260200160405190810160405280929190818152602001828054610e1c90612e2c565b8015610e695780601f10610e3e57610100808354040283529160200191610e69565b820191906000526020600020905b815481529060010190602001808311610e4c57829003601f168201915b5050505050815260200160048201548152602001600582018054610e8c90612e2c565b80601f0160208091040260200160405190810160405280929190818152602001828054610eb890612e2c565b8015610f055780601f10610eda57610100808354040283529160200191610f05565b820191906000526020600020905b815481529060010190602001808311610ee857829003601f168201915b50505050508152602001600682015481526020016007820160009054906101000a900460ff1615151515815250508152602001600f82015481526020016010820160009054906101000a900460ff1615151515815260200160118201805480602002602001604051908101604052809291908181526020018280548015610fe157602002820191906000526020600020905b8160009054906101000a900473ffffffffffffffffffffffffffffffffffffffff1673ffffffffffffffffffffffffffffffffffffffff1681526020019060010190808311610f97575b5050505050815250509050806000015181602001518260400151836060015184608001518560a001518660c00151876101000151886101200151995099509950995099509950995099509950509193959799909294969850565b6000606080606080600060011515600360008973ffffffffffffffffffffffffffffffffffffffff1673ffffffffffffffffffffffffffffffffffffffff16815260200190815260200160002060003373ffffffffffffffffffffffffffffffffffffffff1673ffffffffffffffffffffffffffffffffffffffff16815260200190815260200160002060009054906101000a900460ff16151514611115576040517f08c379a000000000000000000000000000000000000000000000000000000000815260040161110c90612f3b565b60405180910390fd5b6000600260008973ffffffffffffffffffffffffffffffffffffffff1673ffffffffffffffffffffffffffffffffffffffff16815260200190815260200160002090508060000160009054906101000a900473ffffffffffffffffffffffffffffffffffffffff16816001018260020183600301846004018560050160009054906101000a900460ff168480546111ab90612e2c565b80601f01602080910402602001604051908101604052809291908181526020018280546111d790612e2c565b80156112245780601f106111f957610100808354040283529160200191611224565b820191906000526020600020905b81548152906001019060200180831161120757829003601f168201915b5050505050945083805461123790612e2c565b80601f016020809104026020016040519081016040528092919081815260200182805461126390612e2c565b80156112b05780601f10611285576101008083540402835291602001916112b0565b820191906000526020600020905b81548152906001019060200180831161129357829003601f168201915b505050505093508280546112c390612e2c565b80601f01602080910402602001604051908101604052809291908181526020018280546112ef90612e2c565b801561133c5780601f106113115761010080835404028352916020019161133c565b820191906000526020600020905b81548152906001019060200180831161131f57829003601f168201915b5050505050925081805461134f90612e2c565b80601f016020809104026020016040519081016040528092919081815260200182805461137b90612e2c565b80156113c85780601f1061139d576101008083540402835291602001916113c8565b820191906000526020600020905b8154815290600101906020018083116113ab57829003601f168201915b505050505091509650965096509650965096505091939550919395565b8073ffffffffffffffffffffffffffffffffffffffff163373ffffffffffffffffffffffffffffffffffffffff1603611453576040517f08c379a000000000000000000000000000000000000000000000000000000000815260040161144a90612fa7565b60405180910390fd5b6000600360003373ffffffffffffffffffffffffffffffffffffffff1673ffffffffffffffffffffffffffffffffffffffff16815260200190815260200160002060008373ffffffffffffffffffffffffffffffffffffffff1673ffffffffffffffffffffffffffffffffffffffff16815260200190815260200160002060006101000a81548160ff0219169083151502179055611526576040517f08c379a000000000000000000000000000000000000000000000000000000000815260040161151d90613039565b60405180910390fd5b50565b600160205280600052604060002060009150905080600001805461154c90612e2c565b80601f016020809104026020016040519081016040528092919081815260200182805461157890612e2c565b80156115c55780601f1061159a576101008083540402835291602001916115c5565b820191906000526020600020905b8154815290600101906020018083116115a857829003601f168201915b5050505050908060010160009054906101000a900473ffffffffffffffffffffffffffffffffffffffff169080600201549080600301805461160690612e2c565b80601f016020809104026020016040519081016040528092919081815260200182805461163290612e2c565b801561167f5780601f106116545761010080835404028352916020019161167f565b820191906000526020600020905b81548152906001019060200180831161166257829003601f168201915b50505050509080600401549080600501805461169a90612e2c565b80601f01602080910402602001604051908101604052809291908181526020018280546116c690612e2c565b80156117135780601f106116e857610100808354040283529160200191611713565b820191906000526020600020905b8154815290600101906020018083116116f657829003601f168201915b5050505050908060060154908060070160009054906101000a900460ff16905088565b60006020528060005260406000206000915090508060000160009054906101000a900473ffffffffffffffffffffffffffffffffffffffff169080600101805461177f90612e2c565b80601f01602080910402602001604051908101604052809291908181526020018280546117ab90612e2c565b80156117f85780601f106117cd576101008083540402835291602001916117f8565b820191906000526020600020905b8154815290600101906020018083116117db57829003601f168201915b50505050509080600201549080600301549080600401805461181990612e2c565b80601f016020809104026020016040519081016040528092919081815260200182805461184590612e2c565b80156118925780601f1061186757610100808354040283529160200191611892565b820191906000526020600020905b81548152906001019060200180831161187557829003601f168201915b5050505050908060050154908060060180546118ad90612e2c565b80601f01602080910402602001604051908101604052809291908181526020018280546118d990612e2c565b80156119265780601f106118fb57610100808354040283529160200191611926565b820191906000526020600020905b81548152906001019060200180831161190957829003601f168201915b505050505090806007016040518061010001604052908160008201805461194c90612e2c565b80601f016020809104026020016040519081016040528092919081815260200182805461197890612e2c565b80156119c55780601f1061199a576101008083540402835291602001916119c5565b820191906000526020600020905b8154815290600101906020018083116119a857829003601f168201915b505050505081526020016001820160009054906101000a900473ffffffffffffffffffffffffffffffffffffffff1673ffffffffffffffffffffffffffffffffffffffff1673ffffffffffffffffffffffffffffffffffffffff16815260200160028201548152602001600382018054611a3e90612e2c565b80601f0160208091040260200160405190810160405280929190818152602001828054611a6a90612e2c565b8015611ab75780601f10611a8c57610100808354040283529160200191611ab7565b820191906000526020600020905b815481529060010190602001808311611a9a57829003601f168201915b5050505050815260200160048201548152602001600582018054611ada90612e2c565b80601f0160208091040260200160405190810160405280929190818152602001828054611b0690612e2c565b8015611b535780601f10611b2857610100808354040283529160200191611b53565b820191906000526020600020905b815481529060010190602001808311611b3657829003601f168201915b50505050508152602001600682015481526020016007820160009054906101000a900460ff1615151515815250509080600f0154908060100160009054906101000a900460ff1690508a565b60001515600260008773ffffffffffffffffffffffffffffffffffffffff1673ffffffffffffffffffffffffffffffffffffffff16815260200190815260200160002060050160009054906101000a900460ff16151514611c35576040517f08c379a0000000000000000000000000000000000000000000000000000000008152600401611c2c906130cb565b60405180910390fd5b6000600260008773ffffffffffffffffffffffffffffffffffffffff1673ffffffffffffffffffffffffffffffffffffffff1681526020019081526020016000209050858160000160006101000a81548173ffffffffffffffffffffffffffffffffffffffff021916908373ffffffffffffffffffffffffffffffffffffffff16021790555084816001019081611ccc9190613297565b5083816002019081611cde9190613297565b5082816003019081611cf09190613297565b5081816004019081611d029190613297565b5060018160050160006101000a81548160ff0219169083151502179055506006869080600181540180825580915050600190039060005260206000200160009091909190916101000a81548173ffffffffffffffffffffffffffffffffffffffff021916908373ffffffffffffffffffffffffffffffffffffffff160217905550505050505050565b60001515600160008873ffffffffffffffffffffffffffffffffffffffff1673ffffffffffffffffffffffffffffffffffffffff16815260200190815260200160002060070160009054906101000a900460ff16151514611e21576040517f08c379a0000000000000000000000000000000000000000000000000000000008152600401611e18906133b5565b60405180910390fd5b6000600160008873ffffffffffffffffffffffffffffffffffffffff1673ffffffffffffffffffffffffffffffffffffffff168152602001908152602001600020905087816000019081611e759190613297565b50868160010160006101000a81548173ffffffffffffffffffffffffffffffffffffffff021916908373ffffffffffffffffffffffffffffffffffffffff16021790555085816002018190555084816003019081611ed39190613297565b5083816004018190555082816005019081611eee9190613297565b5081816006018190555060018160070160006101000a81548160ff0219169083151502179055506005879080600181540180825580915050600190039060005260206000200160009091909190916101000a81548173ffffffffffffffffffffffffffffffffffffffff021916908373ffffffffffffffffffffffffffffffffffffffff1602179055505050505050505050565b600015156000808a73ffffffffffffffffffffffffffffffffffffffff1673ffffffffffffffffffffffffffffffffffffffff16815260200190815260200160002060100160009054906101000a900460ff16151514612017576040517f08c379a000000000000000000000000000000000000000000000000000000000815260040161200e90613421565b60405180910390fd5b60008060008a73ffffffffffffffffffffffffffffffffffffffff1673ffffffffffffffffffffffffffffffffffffffff1681526020019081526020016000209050888160000160006101000a81548173ffffffffffffffffffffffffffffffffffffffff021916908373ffffffffffffffffffffffffffffffffffffffff160217905550878160010190816120ad9190613297565b50868160020181905550858160030181905550848160040190816120d19190613297565b508381600501819055508181600f0181905550828160060190816120f59190613297565b5060018160100160006101000a81548160ff0219169083151502179055506004899080600181540180825580915050600190039060005260206000200160009091909190916101000a81548173ffffffffffffffffffffffffffffffffffffffff021916908373ffffffffffffffffffffffffffffffffffffffff160217905550505050505050505050565b6006818154811061219157600080fd5b906000526020600020016000915054906101000a900473ffffffffffffffffffffffffffffffffffffffff1681565b8073ffffffffffffffffffffffffffffffffffffffff163373ffffffffffffffffffffffffffffffffffffffff160361222e576040517f08c379a00000000000000000000000000000000000000000000000000000000081526004016122259061348d565b60405180910390fd5b6001600360003373ffffffffffffffffffffffffffffffffffffffff1673ffffffffffffffffffffffffffffffffffffffff16815260200190815260200160002060008373ffffffffffffffffffffffffffffffffffffffff1673ffffffffffffffffffffffffffffffffffffffff16815260200190815260200160002060006101000a81548160ff0219169083151502179055612301576040517f08c379a00000000000000000000000000000000000000000000000000000000081526004016122f89061351f565b60405180910390fd5b50565b6005818154811061231457600080fd5b906000526020600020016000915054906101000a900473ffffffffffffffffffffffffffffffffffffffff1681565b60036020528160005260406000206020528060005260406000206000915091509054906101000a900460ff1681565b6000604051905090565b600080fd5b600080fd5b6000819050919050565b61239981612386565b81146123a457600080fd5b50565b6000813590506123b681612390565b92915050565b6000602082840312156123d2576123d161237c565b5b60006123e0848285016123a7565b91505092915050565b600073ffffffffffffffffffffffffffffffffffffffff82169050919050565b6000612414826123e9565b9050919050565b61242481612409565b82525050565b600060208201905061243f600083018461241b565b92915050565b61244e81612409565b811461245957600080fd5b50565b60008135905061246b81612445565b92915050565b6000602082840312156124875761248661237c565b5b60006124958482850161245c565b91505092915050565b600081519050919050565b600082825260208201905092915050565b60005b838110156124d85780820151818401526020810190506124bd565b60008484015250505050565b6000601f19601f8301169050919050565b60006125008261249e565b61250a81856124a9565b935061251a8185602086016124ba565b612523816124e4565b840191505092915050565b60008115159050919050565b6125438161252e565b82525050565b600060e08201905061255e600083018a61241b565b818103602083015261257081896124f5565b9050818103604083015261258481886124f5565b9050818103606083015261259881876124f5565b905081810360808301526125ac81866124f5565b90506125bb60a083018561253a565b6125c860c083018461253a565b98975050505050505050565b6125dd81612386565b82525050565b60006101008201905081810360008301526125fe818b6124f5565b905061260d602083018a61241b565b61261a60408301896125d4565b818103606083015261262c81886124f5565b905061263b60808301876125d4565b81810360a083015261264d81866124f5565b905061265c60c08301856125d4565b61266960e083018461253a565b9998505050505050505050565b60006101208201905061268c600083018c61241b565b818103602083015261269e818b6124f5565b90506126ad604083018a6125d4565b6126ba60608301896125d4565b81810360808301526126cc81886124f5565b90506126db60a08301876125d4565b81810360c08301526126ed81866124f5565b90506126fc60e08301856125d4565b61270a61010083018461253a565b9a9950505050505050505050565b600060c08201905061272d600083018961241b565b818103602083015261273f81886124f5565b9050818103604083015261275381876124f5565b9050818103606083015261276781866124f5565b9050818103608083015261277b81856124f5565b905061278a60a083018461253a565b979650505050505050565b600082825260208201905092915050565b60006127b18261249e565b6127bb8185612795565b93506127cb8185602086016124ba565b6127d4816124e4565b840191505092915050565b6127e881612409565b82525050565b6127f781612386565b82525050565b6128068161252e565b82525050565b600061010083016000830151848203600086015261282a82826127a6565b915050602083015161283f60208601826127df565b50604083015161285260408601826127ee565b506060830151848203606086015261286a82826127a6565b915050608083015161287f60808601826127ee565b5060a083015184820360a086015261289782826127a6565b91505060c08301516128ac60c08601826127ee565b5060e08301516128bf60e08601826127fd565b508091505092915050565b6000610140820190506128e0600083018d61241b565b81810360208301526128f2818c6124f5565b9050612901604083018b6125d4565b61290e606083018a6125d4565b818103608083015261292081896124f5565b905061292f60a08301886125d4565b81810360c083015261294181876124f5565b905081810360e0830152612955818661280c565b90506129656101008301856125d4565b61297361012083018461253a565b9b9a5050505050505050505050565b600080fd5b600080fd5b7f4e487b7100000000000000000000000000000000000000000000000000000000600052604160045260246000fd5b6129c4826124e4565b810181811067ffffffffffffffff821117156129e3576129e261298c565b5b80604052505050565b60006129f6612372565b9050612a0282826129bb565b919050565b600067ffffffffffffffff821115612a2257612a2161298c565b5b612a2b826124e4565b9050602081019050919050565b82818337600083830152505050565b6000612a5a612a5584612a07565b6129ec565b905082815260208101848484011115612a7657612a75612987565b5b612a81848285612a38565b509392505050565b600082601f830112612a9e57612a9d612982565b5b8135612aae848260208601612a47565b91505092915050565b600080600080600060a08688031215612ad357612ad261237c565b5b6000612ae18882890161245c565b955050602086013567ffffffffffffffff811115612b0257612b01612381565b5b612b0e88828901612a89565b945050604086013567ffffffffffffffff811115612b2f57612b2e612381565b5b612b3b88828901612a89565b935050606086013567ffffffffffffffff811115612b5c57612b5b612381565b5b612b6888828901612a89565b925050608086013567ffffffffffffffff811115612b8957612b88612381565b5b612b9588828901612a89565b9150509295509295909350565b600080600080600080600060e0888a031215612bc157612bc061237c565b5b600088013567ffffffffffffffff811115612bdf57612bde612381565b5b612beb8a828b01612a89565b9750506020612bfc8a828b0161245c565b9650506040612c0d8a828b016123a7565b955050606088013567ffffffffffffffff811115612c2e57612c2d612381565b5b612c3a8a828b01612a89565b9450506080612c4b8a828b016123a7565b93505060a088013567ffffffffffffffff811115612c6c57612c6b612381565b5b612c788a828b01612a89565b92505060c0612c898a828b016123a7565b91505092959891949750929550565b600080600080600080600080610100898b031215612cb957612cb861237c565b5b6000612cc78b828c0161245c565b985050602089013567ffffffffffffffff811115612ce857612ce7612381565b5b612cf48b828c01612a89565b9750506040612d058b828c016123a7565b9650506060612d168b828c016123a7565b955050608089013567ffffffffffffffff811115612d3757612d36612381565b5b612d438b828c01612a89565b94505060a0612d548b828c016123a7565b93505060c089013567ffffffffffffffff811115612d7557612d74612381565b5b612d818b828c01612a89565b92505060e0612d928b828c016123a7565b9150509295985092959890939650565b60008060408385031215612db957612db861237c565b5b6000612dc78582860161245c565b9250506020612dd88582860161245c565b9150509250929050565b6000602082019050612df7600083018461253a565b92915050565b7f4e487b7100000000000000000000000000000000000000000000000000000000600052602260045260246000fd5b60006002820490506001821680612e4457607f821691505b602082108103612e5757612e56612dfd565b5b50919050565b7f7573657220646f65736e6f742061636365737320696e20796f75722064617461600082015250565b6000612e936020836124a9565b9150612e9e82612e5d565b602082019050919050565b60006020820190508181036000830152612ec281612e86565b9050919050565b7f757365722020646f65736e6f74206163637265737320696e20796f757220646160008201527f7461000000000000000000000000000000000000000000000000000000000000602082015250565b6000612f256022836124a9565b9150612f3082612ec9565b604082019050919050565b60006020820190508181036000830152612f5481612f18565b9050919050565b7f796f752063616e2774207265766f6b6520796f757273656c6620000000000000600082015250565b6000612f91601a836124a9565b9150612f9c82612f5b565b602082019050919050565b60006020820190508181036000830152612fc081612f84565b9050919050565b7f7573657220616c72656479207265766f6b65642066726f6d20796f757220646160008201527f7461206163637265737300000000000000000000000000000000000000000000602082015250565b6000613023602a836124a9565b915061302e82612fc7565b604082019050919050565b6000602082019050818103600083015261305281613016565b9050919050565b7f796f7520616c726561647920616464656420796f75722043726564656e74696160008201527f6c00000000000000000000000000000000000000000000000000000000000000602082015250565b60006130b56021836124a9565b91506130c082613059565b604082019050919050565b600060208201905081810360008301526130e4816130a8565b9050919050565b60008190508160005260206000209050919050565b60006020601f8301049050919050565b600082821b905092915050565b60006008830261314d7fffffffffffffffffffffffffffffffffffffffffffffffffffffffffffffffff82613110565b6131578683613110565b95508019841693508086168417925050509392505050565b6000819050919050565b600061319461318f61318a84612386565b61316f565b612386565b9050919050565b6000819050919050565b6131ae83613179565b6131c26131ba8261319b565b84845461311d565b825550505050565b600090565b6131d76131ca565b6131e28184846131a5565b505050565b5b81811015613206576131fb6000826131cf565b6001810190506131e8565b5050565b601f82111561324b5761321c816130eb565b61322584613100565b81016020851015613234578190505b61324861324085613100565b8301826131e7565b50505b505050565b600082821c905092915050565b600061326e60001984600802613250565b1980831691505092915050565b6000613287838361325d565b9150826002028217905092915050565b6132a08261249e565b67ffffffffffffffff8111156132b9576132b861298c565b5b6132c38254612e2c565b6132ce82828561320a565b600060209050601f83116001811461330157600084156132ef578287015190505b6132f9858261327b565b865550613361565b601f19841661330f866130eb565b60005b8281101561333757848901518255600182019150602085019450602081019050613312565b868310156133545784890151613350601f89168261325d565b8355505b6001600288020188555050505b505050505050565b7f796f7520616c72656164792063726561746520796f75722070726f66696c6500600082015250565b600061339f601f836124a9565b91506133aa82613369565b602082019050919050565b600060208201905081810360008301526133ce81613392565b9050919050565b7f796f7520616c726561647920616464656420796f757273656c66000000000000600082015250565b600061340b601a836124a9565b9150613416826133d5565b602082019050919050565b6000602082019050818103600083015261343a816133fe565b9050919050565b7f796f752063616e2774206163637265737320796f757273656c66200000000000600082015250565b6000613477601b836124a9565b915061348282613441565b602082019050919050565b600060208201905081810360008301526134a68161346a565b9050919050565b7f7573657220616c726564792068617665206163637265737320696e20796f757260008201527f2064617461000000000000000000000000000000000000000000000000000000602082015250565b60006135096025836124a9565b9150613514826134ad565b604082019050919050565b60006020820190508181036000830152613538816134fc565b905091905056fea264697066735822122069472287415000869c461b42787e0c8b6fd9f79614dd1a9e031365580c60305464736f6c63430008110033",
  "linkReferences": {},
  "deployedLinkReferences": {}
}