{
  "_format": "hh-sol-artifact-1",
  "contractName": "PatientData",
  "sourceName": "contracts/Patient.sol",
  "abi": [
    {
      "inputs": [
        {
          "internalType": "address",
          "name": "user",
          "type": "address"
        }
      ],
      "name": "accressDataAnyone",
      "outputs": [],
      "stateMutability": "nonpayable",
      "type": "function"
    },
    {
      "inputs": [
        {
          "internalType": "address",
          "name": "",
          "type": "address"
        },
        {
          "internalType": "address",
          "name": "",
          "type": "address"
        }
      ],
      "name": "accressList",
      "outputs": [
        {
          "internalType": "bool",
          "name": "",
          "type": "bool"
        }
      ],
      "stateMutability": "view",
      "type": "function"
    },
    {
      "inputs": [
        {
          "internalType": "address",
          "name": "_issuerAddress",
          "type": "address"
        },
        {
          "internalType": "string",
          "name": "_credentielType",
          "type": "string"
        },
        {
          "internalType": "string",
          "name": "_credentialIssuer",
          "type": "string"
        },
        {
          "internalType": "string",
          "name": "_credentialValue",
          "type": "string"
        },
        {
          "internalType": "string",
          "name": "_dateIssued",
          "type": "string"
        }
      ],
      "name": "addCredential",
      "outputs": [],
      "stateMutability": "nonpayable",
      "type": "function"
    },
    {
      "inputs": [
        {
          "internalType": "address",
          "name": "_patient",
          "type": "address"
        },
        {
          "internalType": "string",
          "name": "_name",
          "type": "string"
        },
        {
          "internalType": "uint256",
          "name": "_age",
          "type": "uint256"
        },
        {
          "internalType": "uint256",
          "name": "_patientId",
          "type": "uint256"
        },
        {
          "internalType": "string",
          "name": "_gender",
          "type": "string"
        },
        {
          "internalType": "uint256",
          "name": "_birthDay",
          "type": "uint256"
        },
        {
          "internalType": "string",
          "name": "_bloodGroup",
          "type": "string"
        },
        {
          "internalType": "uint256",
          "name": "_nid",
          "type": "uint256"
        }
      ],
      "name": "addPatient",
      "outputs": [],
      "stateMutability": "nonpayable",
      "type": "function"
    },
    {
      "inputs": [
        {
          "internalType": "string",
          "name": "_name",
          "type": "string"
        },
        {
          "internalType": "address",
          "name": "_patientParient",
          "type": "address"
        },
        {
          "internalType": "uint256",
          "name": "_age",
          "type": "uint256"
        },
        {
          "internalType": "string",
          "name": "_gender",
          "type": "string"
        },
        {
          "internalType": "uint256",
          "name": "_birthDay",
          "type": "uint256"
        },
        {
          "internalType": "string",
          "name": "_bloodGroup",
          "type": "string"
        },
        {
          "internalType": "uint256",
          "name": "_nid",
          "type": "uint256"
        }
      ],
      "name": "addPatientParient",
      "outputs": [],
      "stateMutability": "nonpayable",
      "type": "function"
    },
    {
      "inputs": [
        {
          "internalType": "address",
          "name": "",
          "type": "address"
        }
      ],
      "name": "allCredential",
      "outputs": [
        {
          "internalType": "address",
          "name": "issuerAddress",
          "type": "address"
        },
        {
          "internalType": "string",
          "name": "credentielType",
          "type": "string"
        },
        {
          "internalType": "string",
          "name": "credentialIssuer",
          "type": "string"
        },
        {
          "internalType": "string",
          "name": "credentialValue",
          "type": "string"
        },
        {
          "internalType": "string",
          "name": "dateIssued",
          "type": "string"
        },
        {
          "internalType": "bool",
          "name": "isAdded",
          "type": "bool"
        },
        {
          "internalType": "bool",
          "name": "dataAccress",
          "type": "bool"
        }
      ],
      "stateMutability": "view",
      "type": "function"
    },
    {
      "inputs": [
        {
          "internalType": "uint256",
          "name": "",
          "type": "uint256"
        }
      ],
      "name": "allCredentialAddress",
      "outputs": [
        {
          "internalType": "address",
          "name": "",
          "type": "address"
        }
      ],
      "stateMutability": "view",
      "type": "function"
    },
    {
      "inputs": [
        {
          "internalType": "address",
          "name": "",
          "type": "address"
        }
      ],
      "name": "allPatient",
      "outputs": [
        {
          "internalType": "address",
          "name": "patient",
          "type": "address"
        },
        {
          "internalType": "string",
          "name": "name",
          "type": "string"
        },
        {
          "internalType": "uint256",
          "name": "age",
          "type": "uint256"
        },
        {
          "internalType": "uint256",
          "name": "patientId",
          "type": "uint256"
        },
        {
          "internalType": "string",
          "name": "gender",
          "type": "string"
        },
        {
          "internalType": "uint256",
          "name": "birthDay",
          "type": "uint256"
        },
        {
          "internalType": "string",
          "name": "bloodGroup",
          "type": "string"
        },
        {
          "components": [
            {
              "internalType": "string",
              "name": "name",
              "type": "string"
            },
            {
              "internalType": "address",
              "name": "patientParient",
              "type": "address"
            },
            {
              "internalType": "uint256",
              "name": "age",
              "type": "uint256"
            },
            {
              "internalType": "string",
              "name": "gender",
              "type": "string"
            },
            {
              "internalType": "uint256",
              "name": "birthDay",
              "type": "uint256"
            },
            {
              "internalType": "string",
              "name": "bloodGroup",
              "type": "string"
            },
            {
              "internalType": "uint256",
              "name": "nid",
              "type": "uint256"
            },
            {
              "internalType": "bool",
              "name": "isAdded",
              "type": "bool"
            }
          ],
          "internalType": "struct PatientData.PatientParient",
          "name": "patientParient",
          "type": "tuple"
        },
        {
          "internalType": "uint256",
          "name": "nid",
          "type": "uint256"
        },
        {
          "internalType": "bool",
          "name": "isAdded",
          "type": "bool"
        }
      ],
      "stateMutability": "view",
      "type": "function"
    },
    {
      "inputs": [
        {
          "internalType": "uint256",
          "name": "",
          "type": "uint256"
        }
      ],
      "name": "allPatientAddress",
      "outputs": [
        {
          "internalType": "address",
          "name": "",
          "type": "address"
        }
      ],
      "stateMutability": "view",
      "type": "function"
    },
    {
      "inputs": [
        {
          "internalType": "address",
          "name": "",
          "type": "address"
        }
      ],
      "name": "allPatientParient",
      "outputs": [
        {
          "internalType": "string",
          "name": "name",
          "type": "string"
        },
        {
          "internalType": "address",
          "name": "patientParient",
          "type": "address"
        },
        {
          "internalType": "uint256",
          "name": "age",
          "type": "uint256"
        },
        {
          "internalType": "string",
          "name": "gender",
          "type": "string"
        },
        {
          "internalType": "uint256",
          "name": "birthDay",
          "type": "uint256"
        },
        {
          "internalType": "string",
          "name": "bloodGroup",
          "type": "string"
        },
        {
          "internalType": "uint256",
          "name": "nid",
          "type": "uint256"
        },
        {
          "internalType": "bool",
          "name": "isAdded",
          "type": "bool"
        }
      ],
      "stateMutability": "view",
      "type": "function"
    },
    {
      "inputs": [
        {
          "internalType": "uint256",
          "name": "",
          "type": "uint256"
        }
      ],
      "name": "allPatientParientAddress",
      "outputs": [
        {
          "internalType": "address",
          "name": "",
          "type": "address"
        }
      ],
      "stateMutability": "view",
      "type": "function"
    },
    {
      "inputs": [
        {
          "internalType": "address",
          "name": "user",
          "type": "address"
        }
      ],
      "name": "revokeDataAnyone",
      "outputs": [],
      "stateMutability": "nonpayable",
      "type": "function"
    },
    {
      "inputs": [
        {
          "internalType": "address",
          "name": "_issuerAddress",
          "type": "address"
        }
      ],
      "name": "viewCredential",
      "outputs": [
        {
          "internalType": "address",
          "name": "",
          "type": "address"
        },
        {
          "internalType": "string",
          "name": "",
          "type": "string"
        },
        {
          "internalType": "string",
          "name": "",
          "type": "string"
        },
        {
          "internalType": "string",
          "name": "",
          "type": "string"
        },
        {
          "internalType": "string",
          "name": "",
          "type": "string"
        },
        {
          "internalType": "bool",
          "name": "",
          "type": "bool"
        }
      ],
      "stateMutability": "view",
      "type": "function"
    },
    {
      "inputs": [
        {
          "internalType": "address",
          "name": "_patient",
          "type": "address"
        }
      ],
      "name": "viewPatient",
      "outputs": [
        {
          "internalType": "address",
          "name": "",
          "type": "address"
        },
        {
          "internalType": "string",
          "name": "",
          "type": "string"
        },
        {
          "internalType": "uint256",
          "name": "",
          "type": "uint256"
        },
        {
          "internalType": "uint256",
          "name": "",
          "type": "uint256"
        },
        {
          "internalType": "string",
          "name": "",
          "type": "string"
        },
        {
          "internalType": "uint256",
          "name": "",
          "type": "uint256"
        },
        {
          "internalType": "string",
          "name": "",
          "type": "string"
        },
        {
          "internalType": "uint256",
          "name": "",
          "type": "uint256"
        },
        {
          "internalType": "bool",
          "name": "",
          "type": "bool"
        }
      ],
      "stateMutability": "view",
      "type": "function"
    },
    {
      "inputs": [
        {
          "internalType": "address",
          "name": "_patientParient",
          "type": "address"
        }
      ],
      "name": "viewPatientParient",
      "outputs": [
        {
          "internalType": "string",
          "name": "",
          "type": "string"
        },
        {
          "internalType": "address",
          "name": "",
          "type": "address"
        },
        {
          "internalType": "uint256",
          "name": "",
          "type": "uint256"
        },
        {
          "internalType": "string",
          "name": "",
          "type": "string"
        },
        {
          "internalType": "uint256",
          "name": "",
          "type": "uint256"
        },
        {
          "internalType": "string",
          "name": "",
          "type": "string"
        },
        {
          "internalType": "uint256",
          "name": "",
          "type": "uint256"
        },
        {
          "internalType": "bool",
          "name": "",
          "type": "bool"
        }
      ],
      "stateMutability": "view",
      "type": "function"
    }
  ],
  "bytecode": "0x608060405234801561001057600080fd5b50613441806100206000396000f3fe608060405234801561001057600080fd5b50600436106100f55760003560e01c8063362b3b31116100975780636d2e3c16116100665780636d2e3c16146102e457806372232f141461031457806378a9ae6914610330578063d96e84a514610360576100f5565b8063362b3b31146102575780634ebf7a2f146102905780635d21836d146102ac57806369af39bc146102c8576100f5565b80631ae738b8116100d35780631ae738b814610197578063210145c9146101cf57806325570ae9146102045780632dff8bce14610220576100f5565b80630a088f63146100fa57806315f250651461012a578063166d37d514610160575b600080fd5b610114600480360381019061010f9190612386565b610390565b60405161012191906123f4565b60405180910390f35b610144600480360381019061013f919061243b565b6103cf565b6040516101579796959493929190612513565b60405180910390f35b61017a6004803603810190610175919061243b565b61066b565b60405161018e9897969594939291906125ad565b60405180910390f35b6101b160048036038101906101ac919061243b565b610a21565b6040516101c699989796959493929190612640565b60405180910390f35b6101e960048036038101906101e4919061243b565b611005565b6040516101fb969594939291906126e2565b60405180910390f35b61021e6004803603810190610219919061243b565b6113af565b005b61023a6004803603810190610235919061243b565b6114f3565b60405161024e9897969594939291906125ad565b60405180910390f35b610271600480360381019061026c919061243b565b611700565b6040516102879a99989796959493929190612894565b60405180910390f35b6102aa60048036038101906102a59190612a81565b611b69565b005b6102c660048036038101906102c19190612b6c565b611d55565b005b6102e260048036038101906102dd9190612c62565b611f4c565b005b6102fe60048036038101906102f99190612386565b61214b565b60405161030b91906123f4565b60405180910390f35b61032e6004803603810190610329919061243b565b61218a565b005b61034a60048036038101906103459190612386565b6122ce565b60405161035791906123f4565b60405180910390f35b61037a60048036038101906103759190612d6c565b61230d565b6040516103879190612dac565b60405180910390f35b600481815481106103a057600080fd5b906000526020600020016000915054906101000a900473ffffffffffffffffffffffffffffffffffffffff1681565b60026020528060005260406000206000915090508060000160009054906101000a900473ffffffffffffffffffffffffffffffffffffffff169080600101805461041890612df6565b80601f016020809104026020016040519081016040528092919081815260200182805461044490612df6565b80156104915780601f1061046657610100808354040283529160200191610491565b820191906000526020600020905b81548152906001019060200180831161047457829003601f168201915b5050505050908060020180546104a690612df6565b80601f01602080910402602001604051908101604052809291908181526020018280546104d290612df6565b801561051f5780601f106104f45761010080835404028352916020019161051f565b820191906000526020600020905b81548152906001019060200180831161050257829003601f168201915b50505050509080600301805461053490612df6565b80601f016020809104026020016040519081016040528092919081815260200182805461056090612df6565b80156105ad5780601f10610582576101008083540402835291602001916105ad565b820191906000526020600020905b81548152906001019060200180831161059057829003601f168201915b5050505050908060040180546105c290612df6565b80601f01602080910402602001604051908101604052809291908181526020018280546105ee90612df6565b801561063b5780601f106106105761010080835404028352916020019161063b565b820191906000526020600020905b81548152906001019060200180831161061e57829003601f168201915b5050505050908060050160009054906101000a900460ff16908060050160019054906101000a900460ff16905087565b606060008060606000606060008060011515600360008b73ffffffffffffffffffffffffffffffffffffffff1673ffffffffffffffffffffffffffffffffffffffff16815260200190815260200160002060003373ffffffffffffffffffffffffffffffffffffffff1673ffffffffffffffffffffffffffffffffffffffff16815260200190815260200160002060009054906101000a900460ff16151514610749576040517f08c379a000000000000000000000000000000000000000000000000000000000815260040161074090612e99565b60405180910390fd5b6000600160008b73ffffffffffffffffffffffffffffffffffffffff1673ffffffffffffffffffffffffffffffffffffffff168152602001908152602001600020604051806101000160405290816000820180546107a690612df6565b80601f01602080910402602001604051908101604052809291908181526020018280546107d290612df6565b801561081f5780601f106107f45761010080835404028352916020019161081f565b820191906000526020600020905b81548152906001019060200180831161080257829003601f168201915b505050505081526020016001820160009054906101000a900473ffffffffffffffffffffffffffffffffffffffff1673ffffffffffffffffffffffffffffffffffffffff1673ffffffffffffffffffffffffffffffffffffffff1681526020016002820154815260200160038201805461089890612df6565b80601f01602080910402602001604051908101604052809291908181526020018280546108c490612df6565b80156109115780601f106108e657610100808354040283529160200191610911565b820191906000526020600020905b8154815290600101906020018083116108f457829003601f168201915b505050505081526020016004820154815260200160058201805461093490612df6565b80601f016020809104026020016040519081016040528092919081815260200182805461096090612df6565b80156109ad5780601f10610982576101008083540402835291602001916109ad565b820191906000526020600020905b81548152906001019060200180831161099057829003601f168201915b50505050508152602001600682015481526020016007820160009054906101000a900460ff1615151515815250509050806000015181602001518260400151836060015184608001518560a001518660c001518760e001519850985098509850985098509850985050919395975091939597565b6000606060008060606000606060008060008060008c73ffffffffffffffffffffffffffffffffffffffff1673ffffffffffffffffffffffffffffffffffffffff168152602001908152602001600020604051806101600160405290816000820160009054906101000a900473ffffffffffffffffffffffffffffffffffffffff1673ffffffffffffffffffffffffffffffffffffffff1673ffffffffffffffffffffffffffffffffffffffff168152602001600182018054610ae390612df6565b80601f0160208091040260200160405190810160405280929190818152602001828054610b0f90612df6565b8015610b5c5780601f10610b3157610100808354040283529160200191610b5c565b820191906000526020600020905b815481529060010190602001808311610b3f57829003601f168201915b505050505081526020016002820154815260200160038201548152602001600482018054610b8990612df6565b80601f0160208091040260200160405190810160405280929190818152602001828054610bb590612df6565b8015610c025780601f10610bd757610100808354040283529160200191610c02565b820191906000526020600020905b815481529060010190602001808311610be557829003601f168201915b5050505050815260200160058201548152602001600682018054610c2590612df6565b80601f0160208091040260200160405190810160405280929190818152602001828054610c5190612df6565b8015610c9e5780601f10610c7357610100808354040283529160200191610c9e565b820191906000526020600020905b815481529060010190602001808311610c8157829003601f168201915b505050505081526020016007820160405180610100016040529081600082018054610cc890612df6565b80601f0160208091040260200160405190810160405280929190818152602001828054610cf490612df6565b8015610d415780601f10610d1657610100808354040283529160200191610d41565b820191906000526020600020905b815481529060010190602001808311610d2457829003601f168201915b505050505081526020016001820160009054906101000a900473ffffffffffffffffffffffffffffffffffffffff1673ffffffffffffffffffffffffffffffffffffffff1673ffffffffffffffffffffffffffffffffffffffff16815260200160028201548152602001600382018054610dba90612df6565b80601f0160208091040260200160405190810160405280929190818152602001828054610de690612df6565b8015610e335780601f10610e0857610100808354040283529160200191610e33565b820191906000526020600020905b815481529060010190602001808311610e1657829003601f168201915b5050505050815260200160048201548152602001600582018054610e5690612df6565b80601f0160208091040260200160405190810160405280929190818152602001828054610e8290612df6565b8015610ecf5780601f10610ea457610100808354040283529160200191610ecf565b820191906000526020600020905b815481529060010190602001808311610eb257829003601f168201915b50505050508152602001600682015481526020016007820160009054906101000a900460ff1615151515815250508152602001600f82015481526020016010820160009054906101000a900460ff1615151515815260200160118201805480602002602001604051908101604052809291908181526020018280548015610fab57602002820191906000526020600020905b8160009054906101000a900473ffffffffffffffffffffffffffffffffffffffff1673ffffffffffffffffffffffffffffffffffffffff1681526020019060010190808311610f61575b5050505050815250509050806000015181602001518260400151836060015184608001518560a001518660c00151876101000151886101200151995099509950995099509950995099509950509193959799909294969850565b6000606080606080600060011515600360008973ffffffffffffffffffffffffffffffffffffffff1673ffffffffffffffffffffffffffffffffffffffff16815260200190815260200160002060003373ffffffffffffffffffffffffffffffffffffffff1673ffffffffffffffffffffffffffffffffffffffff16815260200190815260200160002060009054906101000a900460ff161515146110df576040517f08c379a00000000000000000000000000000000000000000000000000000000081526004016110d690612e99565b60405180910390fd5b6000600260008973ffffffffffffffffffffffffffffffffffffffff1673ffffffffffffffffffffffffffffffffffffffff16815260200190815260200160002090508060000160009054906101000a900473ffffffffffffffffffffffffffffffffffffffff16816001018260020183600301846004018560050160009054906101000a900460ff1684805461117590612df6565b80601f01602080910402602001604051908101604052809291908181526020018280546111a190612df6565b80156111ee5780601f106111c3576101008083540402835291602001916111ee565b820191906000526020600020905b8154815290600101906020018083116111d157829003601f168201915b5050505050945083805461120190612df6565b80601f016020809104026020016040519081016040528092919081815260200182805461122d90612df6565b801561127a5780601f1061124f5761010080835404028352916020019161127a565b820191906000526020600020905b81548152906001019060200180831161125d57829003601f168201915b5050505050935082805461128d90612df6565b80601f01602080910402602001604051908101604052809291908181526020018280546112b990612df6565b80156113065780601f106112db57610100808354040283529160200191611306565b820191906000526020600020905b8154815290600101906020018083116112e957829003601f168201915b5050505050925081805461131990612df6565b80601f016020809104026020016040519081016040528092919081815260200182805461134590612df6565b80156113925780601f1061136757610100808354040283529160200191611392565b820191906000526020600020905b81548152906001019060200180831161137557829003601f168201915b505050505091509650965096509650965096505091939550919395565b8073ffffffffffffffffffffffffffffffffffffffff163373ffffffffffffffffffffffffffffffffffffffff160361141d576040517f08c379a000000000000000000000000000000000000000000000000000000000815260040161141490612f05565b60405180910390fd5b6000600360003373ffffffffffffffffffffffffffffffffffffffff1673ffffffffffffffffffffffffffffffffffffffff16815260200190815260200160002060008373ffffffffffffffffffffffffffffffffffffffff1673ffffffffffffffffffffffffffffffffffffffff16815260200190815260200160002060006101000a81548160ff02191690831515021790556114f0576040517f08c379a00000000000000000000000000000000000000000000000000000000081526004016114e790612f97565b60405180910390fd5b50565b600160205280600052604060002060009150905080600001805461151690612df6565b80601f016020809104026020016040519081016040528092919081815260200182805461154290612df6565b801561158f5780601f106115645761010080835404028352916020019161158f565b820191906000526020600020905b81548152906001019060200180831161157257829003601f168201915b5050505050908060010160009054906101000a900473ffffffffffffffffffffffffffffffffffffffff16908060020154908060030180546115d090612df6565b80601f01602080910402602001604051908101604052809291908181526020018280546115fc90612df6565b80156116495780601f1061161e57610100808354040283529160200191611649565b820191906000526020600020905b81548152906001019060200180831161162c57829003601f168201915b50505050509080600401549080600501805461166490612df6565b80601f016020809104026020016040519081016040528092919081815260200182805461169090612df6565b80156116dd5780601f106116b2576101008083540402835291602001916116dd565b820191906000526020600020905b8154815290600101906020018083116116c057829003601f168201915b5050505050908060060154908060070160009054906101000a900460ff16905088565b60006020528060005260406000206000915090508060000160009054906101000a900473ffffffffffffffffffffffffffffffffffffffff169080600101805461174990612df6565b80601f016020809104026020016040519081016040528092919081815260200182805461177590612df6565b80156117c25780601f10611797576101008083540402835291602001916117c2565b820191906000526020600020905b8154815290600101906020018083116117a557829003601f168201915b5050505050908060020154908060030154908060040180546117e390612df6565b80601f016020809104026020016040519081016040528092919081815260200182805461180f90612df6565b801561185c5780601f106118315761010080835404028352916020019161185c565b820191906000526020600020905b81548152906001019060200180831161183f57829003601f168201915b50505050509080600501549080600601805461187790612df6565b80601f01602080910402602001604051908101604052809291908181526020018280546118a390612df6565b80156118f05780601f106118c5576101008083540402835291602001916118f0565b820191906000526020600020905b8154815290600101906020018083116118d357829003601f168201915b505050505090806007016040518061010001604052908160008201805461191690612df6565b80601f016020809104026020016040519081016040528092919081815260200182805461194290612df6565b801561198f5780601f106119645761010080835404028352916020019161198f565b820191906000526020600020905b81548152906001019060200180831161197257829003601f168201915b505050505081526020016001820160009054906101000a900473ffffffffffffffffffffffffffffffffffffffff1673ffffffffffffffffffffffffffffffffffffffff1673ffffffffffffffffffffffffffffffffffffffff16815260200160028201548152602001600382018054611a0890612df6565b80601f0160208091040260200160405190810160405280929190818152602001828054611a3490612df6565b8015611a815780601f10611a5657610100808354040283529160200191611a81565b820191906000526020600020905b815481529060010190602001808311611a6457829003601f168201915b5050505050815260200160048201548152602001600582018054611aa490612df6565b80601f0160208091040260200160405190810160405280929190818152602001828054611ad090612df6565b8015611b1d5780601f10611af257610100808354040283529160200191611b1d565b820191906000526020600020905b815481529060010190602001808311611b0057829003601f168201915b50505050508152602001600682015481526020016007820160009054906101000a900460ff1615151515815250509080600f0154908060100160009054906101000a900460ff1690508a565b60001515600260008773ffffffffffffffffffffffffffffffffffffffff1673ffffffffffffffffffffffffffffffffffffffff16815260200190815260200160002060050160009054906101000a900460ff16151514611bff576040517f08c379a0000000000000000000000000000000000000000000000000000000008152600401611bf690613029565b60405180910390fd5b6000600260008773ffffffffffffffffffffffffffffffffffffffff1673ffffffffffffffffffffffffffffffffffffffff1681526020019081526020016000209050858160000160006101000a81548173ffffffffffffffffffffffffffffffffffffffff021916908373ffffffffffffffffffffffffffffffffffffffff16021790555084816001019081611c9691906131f5565b5083816002019081611ca891906131f5565b5082816003019081611cba91906131f5565b5081816004019081611ccc91906131f5565b5060018160050160006101000a81548160ff0219169083151502179055506006869080600181540180825580915050600190039060005260206000200160009091909190916101000a81548173ffffffffffffffffffffffffffffffffffffffff021916908373ffffffffffffffffffffffffffffffffffffffff160217905550505050505050565b60001515600160008873ffffffffffffffffffffffffffffffffffffffff1673ffffffffffffffffffffffffffffffffffffffff16815260200190815260200160002060070160009054906101000a900460ff16151514611deb576040517f08c379a0000000000000000000000000000000000000000000000000000000008152600401611de290613313565b60405180910390fd5b6000600160008873ffffffffffffffffffffffffffffffffffffffff1673ffffffffffffffffffffffffffffffffffffffff168152602001908152602001600020905087816000019081611e3f91906131f5565b50868160010160006101000a81548173ffffffffffffffffffffffffffffffffffffffff021916908373ffffffffffffffffffffffffffffffffffffffff16021790555085816002018190555084816003019081611e9d91906131f5565b5083816004018190555082816005019081611eb891906131f5565b5081816006018190555060018160070160006101000a81548160ff0219169083151502179055506005879080600181540180825580915050600190039060005260206000200160009091909190916101000a81548173ffffffffffffffffffffffffffffffffffffffff021916908373ffffffffffffffffffffffffffffffffffffffff1602179055505050505050505050565b600015156000808a73ffffffffffffffffffffffffffffffffffffffff1673ffffffffffffffffffffffffffffffffffffffff16815260200190815260200160002060100160009054906101000a900460ff16151514611fe1576040517f08c379a0000000000000000000000000000000000000000000000000000000008152600401611fd89061337f565b60405180910390fd5b60008060008a73ffffffffffffffffffffffffffffffffffffffff1673ffffffffffffffffffffffffffffffffffffffff1681526020019081526020016000209050888160000160006101000a81548173ffffffffffffffffffffffffffffffffffffffff021916908373ffffffffffffffffffffffffffffffffffffffff1602179055508781600101908161207791906131f5565b508681600201819055508581600301819055508481600401908161209b91906131f5565b508381600501819055508181600f0181905550828160060190816120bf91906131f5565b5060018160100160006101000a81548160ff0219169083151502179055506004899080600181540180825580915050600190039060005260206000200160009091909190916101000a81548173ffffffffffffffffffffffffffffffffffffffff021916908373ffffffffffffffffffffffffffffffffffffffff160217905550505050505050505050565b6006818154811061215b57600080fd5b906000526020600020016000915054906101000a900473ffffffffffffffffffffffffffffffffffffffff1681565b8073ffffffffffffffffffffffffffffffffffffffff163373ffffffffffffffffffffffffffffffffffffffff16036121f8576040517f08c379a00000000000000000000000000000000000000000000000000000000081526004016121ef906133eb565b60405180910390fd5b6001600360003373ffffffffffffffffffffffffffffffffffffffff1673ffffffffffffffffffffffffffffffffffffffff16815260200190815260200160002060008373ffffffffffffffffffffffffffffffffffffffff1673ffffffffffffffffffffffffffffffffffffffff16815260200190815260200160002060006101000a81548160ff02191690831515021790556122cb576040517f08c379a00000000000000000000000000000000000000000000000000000000081526004016122c290612e99565b60405180910390fd5b50565b600581815481106122de57600080fd5b906000526020600020016000915054906101000a900473ffffffffffffffffffffffffffffffffffffffff1681565b60036020528160005260406000206020528060005260406000206000915091509054906101000a900460ff1681565b6000604051905090565b600080fd5b600080fd5b6000819050919050565b61236381612350565b811461236e57600080fd5b50565b6000813590506123808161235a565b92915050565b60006020828403121561239c5761239b612346565b5b60006123aa84828501612371565b91505092915050565b600073ffffffffffffffffffffffffffffffffffffffff82169050919050565b60006123de826123b3565b9050919050565b6123ee816123d3565b82525050565b600060208201905061240960008301846123e5565b92915050565b612418816123d3565b811461242357600080fd5b50565b6000813590506124358161240f565b92915050565b60006020828403121561245157612450612346565b5b600061245f84828501612426565b91505092915050565b600081519050919050565b600082825260208201905092915050565b60005b838110156124a2578082015181840152602081019050612487565b60008484015250505050565b6000601f19601f8301169050919050565b60006124ca82612468565b6124d48185612473565b93506124e4818560208601612484565b6124ed816124ae565b840191505092915050565b60008115159050919050565b61250d816124f8565b82525050565b600060e082019050612528600083018a6123e5565b818103602083015261253a81896124bf565b9050818103604083015261254e81886124bf565b9050818103606083015261256281876124bf565b9050818103608083015261257681866124bf565b905061258560a0830185612504565b61259260c0830184612504565b98975050505050505050565b6125a781612350565b82525050565b60006101008201905081810360008301526125c8818b6124bf565b90506125d7602083018a6123e5565b6125e4604083018961259e565b81810360608301526125f681886124bf565b9050612605608083018761259e565b81810360a083015261261781866124bf565b905061262660c083018561259e565b61263360e0830184612504565b9998505050505050505050565b600061012082019050612656600083018c6123e5565b8181036020830152612668818b6124bf565b9050612677604083018a61259e565b612684606083018961259e565b818103608083015261269681886124bf565b90506126a560a083018761259e565b81810360c08301526126b781866124bf565b90506126c660e083018561259e565b6126d4610100830184612504565b9a9950505050505050505050565b600060c0820190506126f760008301896123e5565b818103602083015261270981886124bf565b9050818103604083015261271d81876124bf565b9050818103606083015261273181866124bf565b9050818103608083015261274581856124bf565b905061275460a0830184612504565b979650505050505050565b600082825260208201905092915050565b600061277b82612468565b612785818561275f565b9350612795818560208601612484565b61279e816124ae565b840191505092915050565b6127b2816123d3565b82525050565b6127c181612350565b82525050565b6127d0816124f8565b82525050565b60006101008301600083015184820360008601526127f48282612770565b915050602083015161280960208601826127a9565b50604083015161281c60408601826127b8565b50606083015184820360608601526128348282612770565b915050608083015161284960808601826127b8565b5060a083015184820360a08601526128618282612770565b91505060c083015161287660c08601826127b8565b5060e083015161288960e08601826127c7565b508091505092915050565b6000610140820190506128aa600083018d6123e5565b81810360208301526128bc818c6124bf565b90506128cb604083018b61259e565b6128d8606083018a61259e565b81810360808301526128ea81896124bf565b90506128f960a083018861259e565b81810360c083015261290b81876124bf565b905081810360e083015261291f81866127d6565b905061292f61010083018561259e565b61293d610120830184612504565b9b9a5050505050505050505050565b600080fd5b600080fd5b7f4e487b7100000000000000000000000000000000000000000000000000000000600052604160045260246000fd5b61298e826124ae565b810181811067ffffffffffffffff821117156129ad576129ac612956565b5b80604052505050565b60006129c061233c565b90506129cc8282612985565b919050565b600067ffffffffffffffff8211156129ec576129eb612956565b5b6129f5826124ae565b9050602081019050919050565b82818337600083830152505050565b6000612a24612a1f846129d1565b6129b6565b905082815260208101848484011115612a4057612a3f612951565b5b612a4b848285612a02565b509392505050565b600082601f830112612a6857612a6761294c565b5b8135612a78848260208601612a11565b91505092915050565b600080600080600060a08688031215612a9d57612a9c612346565b5b6000612aab88828901612426565b955050602086013567ffffffffffffffff811115612acc57612acb61234b565b5b612ad888828901612a53565b945050604086013567ffffffffffffffff811115612af957612af861234b565b5b612b0588828901612a53565b935050606086013567ffffffffffffffff811115612b2657612b2561234b565b5b612b3288828901612a53565b925050608086013567ffffffffffffffff811115612b5357612b5261234b565b5b612b5f88828901612a53565b9150509295509295909350565b600080600080600080600060e0888a031215612b8b57612b8a612346565b5b600088013567ffffffffffffffff811115612ba957612ba861234b565b5b612bb58a828b01612a53565b9750506020612bc68a828b01612426565b9650506040612bd78a828b01612371565b955050606088013567ffffffffffffffff811115612bf857612bf761234b565b5b612c048a828b01612a53565b9450506080612c158a828b01612371565b93505060a088013567ffffffffffffffff811115612c3657612c3561234b565b5b612c428a828b01612a53565b92505060c0612c538a828b01612371565b91505092959891949750929550565b600080600080600080600080610100898b031215612c8357612c82612346565b5b6000612c918b828c01612426565b985050602089013567ffffffffffffffff811115612cb257612cb161234b565b5b612cbe8b828c01612a53565b9750506040612ccf8b828c01612371565b9650506060612ce08b828c01612371565b955050608089013567ffffffffffffffff811115612d0157612d0061234b565b5b612d0d8b828c01612a53565b94505060a0612d1e8b828c01612371565b93505060c089013567ffffffffffffffff811115612d3f57612d3e61234b565b5b612d4b8b828c01612a53565b92505060e0612d5c8b828c01612371565b9150509295985092959890939650565b60008060408385031215612d8357612d82612346565b5b6000612d9185828601612426565b9250506020612da285828601612426565b9150509250929050565b6000602082019050612dc16000830184612504565b92915050565b7f4e487b7100000000000000000000000000000000000000000000000000000000600052602260045260246000fd5b60006002820490506001821680612e0e57607f821691505b602082108103612e2157612e20612dc7565b5b50919050565b7f7573657220616c726564792068617665206163637265737320696e20796f757260008201527f2064617461000000000000000000000000000000000000000000000000000000602082015250565b6000612e83602583612473565b9150612e8e82612e27565b604082019050919050565b60006020820190508181036000830152612eb281612e76565b9050919050565b7f796f752063616e2774207265766f6b6520796f757273656c6620000000000000600082015250565b6000612eef601a83612473565b9150612efa82612eb9565b602082019050919050565b60006020820190508181036000830152612f1e81612ee2565b9050919050565b7f7573657220616c72656479207265766f6b65642066726f6d202064617461206160008201527f6363726573730000000000000000000000000000000000000000000000000000602082015250565b6000612f81602683612473565b9150612f8c82612f25565b604082019050919050565b60006020820190508181036000830152612fb081612f74565b9050919050565b7f796f7520616c726561647920616464656420796f75722043726564656e74696160008201527f6c00000000000000000000000000000000000000000000000000000000000000602082015250565b6000613013602183612473565b915061301e82612fb7565b604082019050919050565b6000602082019050818103600083015261304281613006565b9050919050565b60008190508160005260206000209050919050565b60006020601f8301049050919050565b600082821b905092915050565b6000600883026130ab7fffffffffffffffffffffffffffffffffffffffffffffffffffffffffffffffff8261306e565b6130b5868361306e565b95508019841693508086168417925050509392505050565b6000819050919050565b60006130f26130ed6130e884612350565b6130cd565b612350565b9050919050565b6000819050919050565b61310c836130d7565b613120613118826130f9565b84845461307b565b825550505050565b600090565b613135613128565b613140818484613103565b505050565b5b818110156131645761315960008261312d565b600181019050613146565b5050565b601f8211156131a95761317a81613049565b6131838461305e565b81016020851015613192578190505b6131a661319e8561305e565b830182613145565b50505b505050565b600082821c905092915050565b60006131cc600019846008026131ae565b1980831691505092915050565b60006131e583836131bb565b9150826002028217905092915050565b6131fe82612468565b67ffffffffffffffff81111561321757613216612956565b5b6132218254612df6565b61322c828285613168565b600060209050601f83116001811461325f576000841561324d578287015190505b61325785826131d9565b8655506132bf565b601f19841661326d86613049565b60005b8281101561329557848901518255600182019150602085019450602081019050613270565b868310156132b257848901516132ae601f8916826131bb565b8355505b6001600288020188555050505b505050505050565b7f796f7520616c72656164792063726561746520796f75722070726f66696c6500600082015250565b60006132fd601f83612473565b9150613308826132c7565b602082019050919050565b6000602082019050818103600083015261332c816132f0565b9050919050565b7f796f7520616c726561647920616464656420796f757273656c66000000000000600082015250565b6000613369601a83612473565b915061337482613333565b602082019050919050565b600060208201905081810360008301526133988161335c565b9050919050565b7f796f752063616e2774206163637265737320796f757273656c66200000000000600082015250565b60006133d5601b83612473565b91506133e08261339f565b602082019050919050565b60006020820190508181036000830152613404816133c8565b905091905056fea26469706673582212203b94f827983695b0ac691cedea56dd539645d7110bff4a3429402b8da09a23aa64736f6c63430008110033",
  "linkReferences": {},
  "deployedLinkReferences": {}
}