{
  "_format": "hh-sol-artifact-1",
  "contractName": "PatientData",
  "sourceName": "contracts/Patient.sol",
  "abi": [
    {
      "inputs": [
        {
          "internalType": "address",
          "name": "",
          "type": "address"
        },
        {
          "internalType": "address",
          "name": "",
          "type": "address"
        }
      ],
      "name": "accessList",
      "outputs": [
        {
          "internalType": "bool",
          "name": "",
          "type": "bool"
        }
      ],
      "stateMutability": "view",
      "type": "function"
    },
    {
      "inputs": [
        {
          "internalType": "address",
          "name": "_issuerAddress",
          "type": "address"
        },
        {
          "internalType": "string",
          "name": "_credentialType",
          "type": "string"
        },
        {
          "internalType": "string",
          "name": "_credentialIssuer",
          "type": "string"
        },
        {
          "internalType": "string",
          "name": "_credentialValue",
          "type": "string"
        },
        {
          "internalType": "string",
          "name": "_dateIssued",
          "type": "string"
        }
      ],
      "name": "addCredential",
      "outputs": [],
      "stateMutability": "nonpayable",
      "type": "function"
    },
    {
      "inputs": [
        {
          "internalType": "address",
          "name": "_patient",
          "type": "address"
        },
        {
          "internalType": "string",
          "name": "_name",
          "type": "string"
        },
        {
          "internalType": "uint256",
          "name": "_age",
          "type": "uint256"
        },
        {
          "internalType": "uint256",
          "name": "_patientId",
          "type": "uint256"
        },
        {
          "internalType": "string",
          "name": "_gender",
          "type": "string"
        },
        {
          "internalType": "uint256",
          "name": "_birthDay",
          "type": "uint256"
        },
        {
          "internalType": "string",
          "name": "_bloodGroup",
          "type": "string"
        },
        {
          "internalType": "uint256",
          "name": "_nid",
          "type": "uint256"
        }
      ],
      "name": "addPatient",
      "outputs": [],
      "stateMutability": "nonpayable",
      "type": "function"
    },
    {
      "inputs": [
        {
          "internalType": "address",
          "name": "",
          "type": "address"
        }
      ],
      "name": "allCredential",
      "outputs": [
        {
          "internalType": "address",
          "name": "issuerAddress",
          "type": "address"
        },
        {
          "internalType": "string",
          "name": "credentialType",
          "type": "string"
        },
        {
          "internalType": "string",
          "name": "credentialIssuer",
          "type": "string"
        },
        {
          "internalType": "string",
          "name": "credentialValue",
          "type": "string"
        },
        {
          "internalType": "string",
          "name": "dateIssued",
          "type": "string"
        },
        {
          "internalType": "bool",
          "name": "isAdded",
          "type": "bool"
        },
        {
          "internalType": "bool",
          "name": "dataAccess",
          "type": "bool"
        }
      ],
      "stateMutability": "view",
      "type": "function"
    },
    {
      "inputs": [
        {
          "internalType": "uint256",
          "name": "",
          "type": "uint256"
        }
      ],
      "name": "allCredentialAddress",
      "outputs": [
        {
          "internalType": "address",
          "name": "",
          "type": "address"
        }
      ],
      "stateMutability": "view",
      "type": "function"
    },
    {
      "inputs": [
        {
          "internalType": "uint256",
          "name": "",
          "type": "uint256"
        }
      ],
      "name": "allPatientAddress",
      "outputs": [
        {
          "internalType": "address",
          "name": "",
          "type": "address"
        }
      ],
      "stateMutability": "view",
      "type": "function"
    },
    {
      "inputs": [
        {
          "internalType": "address",
          "name": "",
          "type": "address"
        }
      ],
      "name": "allPatientParient",
      "outputs": [
        {
          "internalType": "string",
          "name": "name",
          "type": "string"
        },
        {
          "internalType": "address",
          "name": "patientParient",
          "type": "address"
        },
        {
          "internalType": "uint256",
          "name": "age",
          "type": "uint256"
        },
        {
          "internalType": "string",
          "name": "gender",
          "type": "string"
        },
        {
          "internalType": "uint256",
          "name": "birthDay",
          "type": "uint256"
        },
        {
          "internalType": "string",
          "name": "bloodGroup",
          "type": "string"
        },
        {
          "internalType": "uint256",
          "name": "nid",
          "type": "uint256"
        },
        {
          "internalType": "bool",
          "name": "isAdded",
          "type": "bool"
        }
      ],
      "stateMutability": "view",
      "type": "function"
    },
    {
      "inputs": [
        {
          "internalType": "uint256",
          "name": "",
          "type": "uint256"
        }
      ],
      "name": "allPatientParientAddress",
      "outputs": [
        {
          "internalType": "address",
          "name": "",
          "type": "address"
        }
      ],
      "stateMutability": "view",
      "type": "function"
    },
    {
      "inputs": [
        {
          "internalType": "address",
          "name": "_patientAddress",
          "type": "address"
        }
      ],
      "name": "checkAccess",
      "outputs": [
        {
          "internalType": "bool",
          "name": "",
          "type": "bool"
        }
      ],
      "stateMutability": "view",
      "type": "function"
    },
    {
      "inputs": [
        {
          "internalType": "address",
          "name": "_patientAddress",
          "type": "address"
        }
      ],
      "name": "grantAccess",
      "outputs": [],
      "stateMutability": "nonpayable",
      "type": "function"
    },
    {
      "inputs": [
        {
          "internalType": "address",
          "name": "_patientAddress",
          "type": "address"
        }
      ],
      "name": "revokeAccess",
      "outputs": [],
      "stateMutability": "nonpayable",
      "type": "function"
    },
    {
      "inputs": [
        {
          "internalType": "address",
          "name": "_issuerAddress",
          "type": "address"
        }
      ],
      "name": "viewCredential",
      "outputs": [
        {
          "internalType": "address",
          "name": "",
          "type": "address"
        },
        {
          "internalType": "string",
          "name": "",
          "type": "string"
        },
        {
          "internalType": "string",
          "name": "",
          "type": "string"
        },
        {
          "internalType": "string",
          "name": "",
          "type": "string"
        },
        {
          "internalType": "string",
          "name": "",
          "type": "string"
        },
        {
          "internalType": "bool",
          "name": "",
          "type": "bool"
        }
      ],
      "stateMutability": "view",
      "type": "function"
    },
    {
      "inputs": [
        {
          "internalType": "address",
          "name": "_patient",
          "type": "address"
        }
      ],
      "name": "viewPatient",
      "outputs": [
        {
          "internalType": "address",
          "name": "",
          "type": "address"
        },
        {
          "internalType": "string",
          "name": "",
          "type": "string"
        },
        {
          "internalType": "uint256",
          "name": "",
          "type": "uint256"
        },
        {
          "internalType": "uint256",
          "name": "",
          "type": "uint256"
        },
        {
          "internalType": "string",
          "name": "",
          "type": "string"
        },
        {
          "internalType": "uint256",
          "name": "",
          "type": "uint256"
        },
        {
          "internalType": "string",
          "name": "",
          "type": "string"
        },
        {
          "internalType": "uint256",
          "name": "",
          "type": "uint256"
        },
        {
          "internalType": "bool",
          "name": "",
          "type": "bool"
        }
      ],
      "stateMutability": "view",
      "type": "function"
    }
  ],
  "bytecode": "0x608060405234801561001057600080fd5b506125d3806100206000396000f3fe608060405234801561001057600080fd5b50600436106100cf5760003560e01c8063466a01461161008c5780636d2e3c16116100665780636d2e3c1614610262578063778146461461029257806378a9ae69146102c257806385e68531146102f2576100cf565b8063466a0146146101fa5780634ebf7a2f1461022a57806369af39bc14610246576100cf565b80630a088f63146100d45780630ae5e7391461010457806315f25065146101205780631ae738b814610156578063210145c91461018e5780632dff8bce146101c3575b600080fd5b6100ee60048036038101906100e991906119d1565b61030e565b6040516100fb9190611a3f565b60405180910390f35b61011e60048036038101906101199190611a86565b61034d565b005b61013a60048036038101906101359190611a86565b6103e5565b60405161014d9796959493929190611b5e565b60405180910390f35b610170600480360381019061016b9190611a86565b610681565b60405161018599989796959493929190611bf8565b60405180910390f35b6101a860048036038101906101a39190611a86565b610d64565b6040516101ba96959493929190611c9a565b60405180910390f35b6101dd60048036038101906101d89190611a86565b6111c3565b6040516101f1989796959493929190611d17565b60405180910390f35b610214600480360381019061020f9190611a86565b6113d0565b6040516102219190611daa565b60405180910390f35b610244600480360381019061023f9190611efa565b611463565b005b610260600480360381019061025b9190611fe5565b611649565b005b61027c600480360381019061027791906119d1565b611842565b6040516102899190611a3f565b60405180910390f35b6102ac60048036038101906102a791906120ef565b611881565b6040516102b99190611daa565b60405180910390f35b6102dc60048036038101906102d791906119d1565b6118b0565b6040516102e99190611a3f565b60405180910390f35b61030c60048036038101906103079190611a86565b6118ef565b005b6004818154811061031e57600080fd5b906000526020600020016000915054906101000a900473ffffffffffffffffffffffffffffffffffffffff1681565b6001600360003373ffffffffffffffffffffffffffffffffffffffff1673ffffffffffffffffffffffffffffffffffffffff16815260200190815260200160002060008373ffffffffffffffffffffffffffffffffffffffff1673ffffffffffffffffffffffffffffffffffffffff16815260200190815260200160002060006101000a81548160ff02191690831515021790555050565b60026020528060005260406000206000915090508060000160009054906101000a900473ffffffffffffffffffffffffffffffffffffffff169080600101805461042e9061215e565b80601f016020809104026020016040519081016040528092919081815260200182805461045a9061215e565b80156104a75780601f1061047c576101008083540402835291602001916104a7565b820191906000526020600020905b81548152906001019060200180831161048a57829003601f168201915b5050505050908060020180546104bc9061215e565b80601f01602080910402602001604051908101604052809291908181526020018280546104e89061215e565b80156105355780601f1061050a57610100808354040283529160200191610535565b820191906000526020600020905b81548152906001019060200180831161051857829003601f168201915b50505050509080600301805461054a9061215e565b80601f01602080910402602001604051908101604052809291908181526020018280546105769061215e565b80156105c35780601f10610598576101008083540402835291602001916105c3565b820191906000526020600020905b8154815290600101906020018083116105a657829003601f168201915b5050505050908060040180546105d89061215e565b80601f01602080910402602001604051908101604052809291908181526020018280546106049061215e565b80156106515780601f1061062657610100808354040283529160200191610651565b820191906000526020600020905b81548152906001019060200180831161063457829003601f168201915b5050505050908060050160009054906101000a900460ff16908060050160019054906101000a900460ff16905087565b600060606000806060600060606000803373ffffffffffffffffffffffffffffffffffffffff168a73ffffffffffffffffffffffffffffffffffffffff1614806107515750600360008b73ffffffffffffffffffffffffffffffffffffffff1673ffffffffffffffffffffffffffffffffffffffff16815260200190815260200160002060003373ffffffffffffffffffffffffffffffffffffffff1673ffffffffffffffffffffffffffffffffffffffff16815260200190815260200160002060009054906101000a900460ff165b610790576040517f08c379a000000000000000000000000000000000000000000000000000000000815260040161078790612201565b60405180910390fd5b60008060008c73ffffffffffffffffffffffffffffffffffffffff1673ffffffffffffffffffffffffffffffffffffffff168152602001908152602001600020604051806101600160405290816000820160009054906101000a900473ffffffffffffffffffffffffffffffffffffffff1673ffffffffffffffffffffffffffffffffffffffff1673ffffffffffffffffffffffffffffffffffffffff1681526020016001820180546108429061215e565b80601f016020809104026020016040519081016040528092919081815260200182805461086e9061215e565b80156108bb5780601f10610890576101008083540402835291602001916108bb565b820191906000526020600020905b81548152906001019060200180831161089e57829003601f168201915b5050505050815260200160028201548152602001600382015481526020016004820180546108e89061215e565b80601f01602080910402602001604051908101604052809291908181526020018280546109149061215e565b80156109615780601f1061093657610100808354040283529160200191610961565b820191906000526020600020905b81548152906001019060200180831161094457829003601f168201915b50505050508152602001600582015481526020016006820180546109849061215e565b80601f01602080910402602001604051908101604052809291908181526020018280546109b09061215e565b80156109fd5780601f106109d2576101008083540402835291602001916109fd565b820191906000526020600020905b8154815290600101906020018083116109e057829003601f168201915b505050505081526020016007820160405180610100016040529081600082018054610a279061215e565b80601f0160208091040260200160405190810160405280929190818152602001828054610a539061215e565b8015610aa05780601f10610a7557610100808354040283529160200191610aa0565b820191906000526020600020905b815481529060010190602001808311610a8357829003601f168201915b505050505081526020016001820160009054906101000a900473ffffffffffffffffffffffffffffffffffffffff1673ffffffffffffffffffffffffffffffffffffffff1673ffffffffffffffffffffffffffffffffffffffff16815260200160028201548152602001600382018054610b199061215e565b80601f0160208091040260200160405190810160405280929190818152602001828054610b459061215e565b8015610b925780601f10610b6757610100808354040283529160200191610b92565b820191906000526020600020905b815481529060010190602001808311610b7557829003601f168201915b5050505050815260200160048201548152602001600582018054610bb59061215e565b80601f0160208091040260200160405190810160405280929190818152602001828054610be19061215e565b8015610c2e5780601f10610c0357610100808354040283529160200191610c2e565b820191906000526020600020905b815481529060010190602001808311610c1157829003601f168201915b50505050508152602001600682015481526020016007820160009054906101000a900460ff1615151515815250508152602001600f82015481526020016010820160009054906101000a900460ff1615151515815260200160118201805480602002602001604051908101604052809291908181526020018280548015610d0a57602002820191906000526020600020905b8160009054906101000a900473ffffffffffffffffffffffffffffffffffffffff1673ffffffffffffffffffffffffffffffffffffffff1681526020019060010190808311610cc0575b5050505050815250509050806000015181602001518260400151836060015184608001518560a001518660c00151876101000151886101200151995099509950995099509950995099509950509193959799909294969850565b600060608060608060003373ffffffffffffffffffffffffffffffffffffffff168773ffffffffffffffffffffffffffffffffffffffff161480610e2e5750600360008873ffffffffffffffffffffffffffffffffffffffff1673ffffffffffffffffffffffffffffffffffffffff16815260200190815260200160002060003373ffffffffffffffffffffffffffffffffffffffff1673ffffffffffffffffffffffffffffffffffffffff16815260200190815260200160002060009054906101000a900460ff165b610e6d576040517f08c379a0000000000000000000000000000000000000000000000000000000008152600401610e6490612201565b60405180910390fd5b6000600260008973ffffffffffffffffffffffffffffffffffffffff1673ffffffffffffffffffffffffffffffffffffffff1681526020019081526020016000206040518060e00160405290816000820160009054906101000a900473ffffffffffffffffffffffffffffffffffffffff1673ffffffffffffffffffffffffffffffffffffffff1673ffffffffffffffffffffffffffffffffffffffff168152602001600182018054610f1f9061215e565b80601f0160208091040260200160405190810160405280929190818152602001828054610f4b9061215e565b8015610f985780601f10610f6d57610100808354040283529160200191610f98565b820191906000526020600020905b815481529060010190602001808311610f7b57829003601f168201915b50505050508152602001600282018054610fb19061215e565b80601f0160208091040260200160405190810160405280929190818152602001828054610fdd9061215e565b801561102a5780601f10610fff5761010080835404028352916020019161102a565b820191906000526020600020905b81548152906001019060200180831161100d57829003601f168201915b505050505081526020016003820180546110439061215e565b80601f016020809104026020016040519081016040528092919081815260200182805461106f9061215e565b80156110bc5780601f10611091576101008083540402835291602001916110bc565b820191906000526020600020905b81548152906001019060200180831161109f57829003601f168201915b505050505081526020016004820180546110d59061215e565b80601f01602080910402602001604051908101604052809291908181526020018280546111019061215e565b801561114e5780601f106111235761010080835404028352916020019161114e565b820191906000526020600020905b81548152906001019060200180831161113157829003601f168201915b505050505081526020016005820160009054906101000a900460ff161515151581526020016005820160019054906101000a900460ff1615151515815250509050806000015181602001518260400151836060015184608001518560a001519650965096509650965096505091939550919395565b60016020528060005260406000206000915090508060000180546111e69061215e565b80601f01602080910402602001604051908101604052809291908181526020018280546112129061215e565b801561125f5780601f106112345761010080835404028352916020019161125f565b820191906000526020600020905b81548152906001019060200180831161124257829003601f168201915b5050505050908060010160009054906101000a900473ffffffffffffffffffffffffffffffffffffffff16908060020154908060030180546112a09061215e565b80601f01602080910402602001604051908101604052809291908181526020018280546112cc9061215e565b80156113195780601f106112ee57610100808354040283529160200191611319565b820191906000526020600020905b8154815290600101906020018083116112fc57829003601f168201915b5050505050908060040154908060050180546113349061215e565b80601f01602080910402602001604051908101604052809291908181526020018280546113609061215e565b80156113ad5780601f10611382576101008083540402835291602001916113ad565b820191906000526020600020905b81548152906001019060200180831161139057829003601f168201915b5050505050908060060154908060070160009054906101000a900460ff16905088565b6000600360003373ffffffffffffffffffffffffffffffffffffffff1673ffffffffffffffffffffffffffffffffffffffff16815260200190815260200160002060008373ffffffffffffffffffffffffffffffffffffffff1673ffffffffffffffffffffffffffffffffffffffff16815260200190815260200160002060009054906101000a900460ff169050919050565b600260008673ffffffffffffffffffffffffffffffffffffffff1673ffffffffffffffffffffffffffffffffffffffff16815260200190815260200160002060050160009054906101000a900460ff16156114f3576040517f08c379a00000000000000000000000000000000000000000000000000000000081526004016114ea90612293565b60405180910390fd5b6000600260008773ffffffffffffffffffffffffffffffffffffffff1673ffffffffffffffffffffffffffffffffffffffff1681526020019081526020016000209050858160000160006101000a81548173ffffffffffffffffffffffffffffffffffffffff021916908373ffffffffffffffffffffffffffffffffffffffff1602179055508481600101908161158a919061245f565b508381600201908161159c919061245f565b50828160030190816115ae919061245f565b50818160040190816115c0919061245f565b5060018160050160006101000a81548160ff0219169083151502179055506006869080600181540180825580915050600190039060005260206000200160009091909190916101000a81548173ffffffffffffffffffffffffffffffffffffffff021916908373ffffffffffffffffffffffffffffffffffffffff160217905550505050505050565b6000808973ffffffffffffffffffffffffffffffffffffffff1673ffffffffffffffffffffffffffffffffffffffff16815260200190815260200160002060100160009054906101000a900460ff16156116d8576040517f08c379a00000000000000000000000000000000000000000000000000000000081526004016116cf9061257d565b60405180910390fd5b60008060008a73ffffffffffffffffffffffffffffffffffffffff1673ffffffffffffffffffffffffffffffffffffffff1681526020019081526020016000209050888160000160006101000a81548173ffffffffffffffffffffffffffffffffffffffff021916908373ffffffffffffffffffffffffffffffffffffffff1602179055508781600101908161176e919061245f565b5086816002018190555085816003018190555084816004019081611792919061245f565b50838160050181905550828160060190816117ad919061245f565b508181600f018190555060018160100160006101000a81548160ff0219169083151502179055506004899080600181540180825580915050600190039060005260206000200160009091909190916101000a81548173ffffffffffffffffffffffffffffffffffffffff021916908373ffffffffffffffffffffffffffffffffffffffff160217905550505050505050505050565b6006818154811061185257600080fd5b906000526020600020016000915054906101000a900473ffffffffffffffffffffffffffffffffffffffff1681565b60036020528160005260406000206020528060005260406000206000915091509054906101000a900460ff1681565b600581815481106118c057600080fd5b906000526020600020016000915054906101000a900473ffffffffffffffffffffffffffffffffffffffff1681565b6000600360003373ffffffffffffffffffffffffffffffffffffffff1673ffffffffffffffffffffffffffffffffffffffff16815260200190815260200160002060008373ffffffffffffffffffffffffffffffffffffffff1673ffffffffffffffffffffffffffffffffffffffff16815260200190815260200160002060006101000a81548160ff02191690831515021790555050565b6000604051905090565b600080fd5b600080fd5b6000819050919050565b6119ae8161199b565b81146119b957600080fd5b50565b6000813590506119cb816119a5565b92915050565b6000602082840312156119e7576119e6611991565b5b60006119f5848285016119bc565b91505092915050565b600073ffffffffffffffffffffffffffffffffffffffff82169050919050565b6000611a29826119fe565b9050919050565b611a3981611a1e565b82525050565b6000602082019050611a546000830184611a30565b92915050565b611a6381611a1e565b8114611a6e57600080fd5b50565b600081359050611a8081611a5a565b92915050565b600060208284031215611a9c57611a9b611991565b5b6000611aaa84828501611a71565b91505092915050565b600081519050919050565b600082825260208201905092915050565b60005b83811015611aed578082015181840152602081019050611ad2565b60008484015250505050565b6000601f19601f8301169050919050565b6000611b1582611ab3565b611b1f8185611abe565b9350611b2f818560208601611acf565b611b3881611af9565b840191505092915050565b60008115159050919050565b611b5881611b43565b82525050565b600060e082019050611b73600083018a611a30565b8181036020830152611b858189611b0a565b90508181036040830152611b998188611b0a565b90508181036060830152611bad8187611b0a565b90508181036080830152611bc18186611b0a565b9050611bd060a0830185611b4f565b611bdd60c0830184611b4f565b98975050505050505050565b611bf28161199b565b82525050565b600061012082019050611c0e600083018c611a30565b8181036020830152611c20818b611b0a565b9050611c2f604083018a611be9565b611c3c6060830189611be9565b8181036080830152611c4e8188611b0a565b9050611c5d60a0830187611be9565b81810360c0830152611c6f8186611b0a565b9050611c7e60e0830185611be9565b611c8c610100830184611b4f565b9a9950505050505050505050565b600060c082019050611caf6000830189611a30565b8181036020830152611cc18188611b0a565b90508181036040830152611cd58187611b0a565b90508181036060830152611ce98186611b0a565b90508181036080830152611cfd8185611b0a565b9050611d0c60a0830184611b4f565b979650505050505050565b6000610100820190508181036000830152611d32818b611b0a565b9050611d41602083018a611a30565b611d4e6040830189611be9565b8181036060830152611d608188611b0a565b9050611d6f6080830187611be9565b81810360a0830152611d818186611b0a565b9050611d9060c0830185611be9565b611d9d60e0830184611b4f565b9998505050505050505050565b6000602082019050611dbf6000830184611b4f565b92915050565b600080fd5b600080fd5b7f4e487b7100000000000000000000000000000000000000000000000000000000600052604160045260246000fd5b611e0782611af9565b810181811067ffffffffffffffff82111715611e2657611e25611dcf565b5b80604052505050565b6000611e39611987565b9050611e458282611dfe565b919050565b600067ffffffffffffffff821115611e6557611e64611dcf565b5b611e6e82611af9565b9050602081019050919050565b82818337600083830152505050565b6000611e9d611e9884611e4a565b611e2f565b905082815260208101848484011115611eb957611eb8611dca565b5b611ec4848285611e7b565b509392505050565b600082601f830112611ee157611ee0611dc5565b5b8135611ef1848260208601611e8a565b91505092915050565b600080600080600060a08688031215611f1657611f15611991565b5b6000611f2488828901611a71565b955050602086013567ffffffffffffffff811115611f4557611f44611996565b5b611f5188828901611ecc565b945050604086013567ffffffffffffffff811115611f7257611f71611996565b5b611f7e88828901611ecc565b935050606086013567ffffffffffffffff811115611f9f57611f9e611996565b5b611fab88828901611ecc565b925050608086013567ffffffffffffffff811115611fcc57611fcb611996565b5b611fd888828901611ecc565b9150509295509295909350565b600080600080600080600080610100898b03121561200657612005611991565b5b60006120148b828c01611a71565b985050602089013567ffffffffffffffff81111561203557612034611996565b5b6120418b828c01611ecc565b97505060406120528b828c016119bc565b96505060606120638b828c016119bc565b955050608089013567ffffffffffffffff81111561208457612083611996565b5b6120908b828c01611ecc565b94505060a06120a18b828c016119bc565b93505060c089013567ffffffffffffffff8111156120c2576120c1611996565b5b6120ce8b828c01611ecc565b92505060e06120df8b828c016119bc565b9150509295985092959890939650565b6000806040838503121561210657612105611991565b5b600061211485828601611a71565b925050602061212585828601611a71565b9150509250929050565b7f4e487b7100000000000000000000000000000000000000000000000000000000600052602260045260246000fd5b6000600282049050600182168061217657607f821691505b6020821081036121895761218861212f565b5b50919050565b7f7573657220646f6e277420686176652061636365737320696e20796f7572206460008201527f6174610000000000000000000000000000000000000000000000000000000000602082015250565b60006121eb602383611abe565b91506121f68261218f565b604082019050919050565b6000602082019050818103600083015261221a816121de565b9050919050565b7f596f75206861766520616c726561647920616464656420796f7572204372656460008201527f656e7469616c0000000000000000000000000000000000000000000000000000602082015250565b600061227d602683611abe565b915061228882612221565b604082019050919050565b600060208201905081810360008301526122ac81612270565b9050919050565b60008190508160005260206000209050919050565b60006020601f8301049050919050565b600082821b905092915050565b6000600883026123157fffffffffffffffffffffffffffffffffffffffffffffffffffffffffffffffff826122d8565b61231f86836122d8565b95508019841693508086168417925050509392505050565b6000819050919050565b600061235c6123576123528461199b565b612337565b61199b565b9050919050565b6000819050919050565b61237683612341565b61238a61238282612363565b8484546122e5565b825550505050565b600090565b61239f612392565b6123aa81848461236d565b505050565b5b818110156123ce576123c3600082612397565b6001810190506123b0565b5050565b601f821115612413576123e4816122b3565b6123ed846122c8565b810160208510156123fc578190505b612410612408856122c8565b8301826123af565b50505b505050565b600082821c905092915050565b600061243660001984600802612418565b1980831691505092915050565b600061244f8383612425565b9150826002028217905092915050565b61246882611ab3565b67ffffffffffffffff81111561248157612480611dcf565b5b61248b825461215e565b6124968282856123d2565b600060209050601f8311600181146124c957600084156124b7578287015190505b6124c18582612443565b865550612529565b601f1984166124d7866122b3565b60005b828110156124ff578489015182556001820191506020850194506020810190506124da565b8683101561251c5784890151612518601f891682612425565b8355505b6001600288020188555050505b505050505050565b7f596f75206861766520616c726561647920616464656420796f757273656c6600600082015250565b6000612567601f83611abe565b915061257282612531565b602082019050919050565b600060208201905081810360008301526125968161255a565b905091905056fea2646970667358221220ceccf2912a333615476fcdd537874b40976bde70e09adfcca98675acd6927d1764736f6c63430008110033",
  "linkReferences": {},
  "deployedLinkReferences": {}
}